{"contracts/MusicNFTMarketplace.sol":{"MusicNFTMarketplace":{"abi":[{"inputs":[],"stateMutability":"nonpayable","type":"constructor"},{"inputs":[],"name":"ArrayLengthMismatch","type":"error"},{"inputs":[],"name":"BatchSizeTooLarge","type":"error"},{"inputs":[],"name":"InsufficientBalance","type":"error"},{"inputs":[],"name":"InsufficientPayment","type":"error"},{"inputs":[],"name":"InvalidAddress","type":"error"},{"inputs":[],"name":"InvalidInput","type":"error"},{"inputs":[],"name":"InvalidPrice","type":"error"},{"inputs":[],"name":"InvalidRoyalty","type":"error"},{"inputs":[],"name":"InvalidSupply","type":"error"},{"inputs":[],"name":"MaxSupplyExceeded","type":"error"},{"inputs":[],"name":"NFTNotActive","type":"error"},{"inputs":[],"name":"NFTNotFound","type":"error"},{"inputs":[],"name":"NotAuthorized","type":"error"},{"inputs":[],"name":"TransferFailed","type":"error"},{"anonymous":false,"inputs":[{"indexed":true,"internalType":"address","name":"account","type":"address"},{"indexed":true,"internalType":"address","name":"operator","type":"address"},{"indexed":false,"internalType":"bool","name":"approved","type":"bool"}],"name":"ApprovalForAll","type":"event"},{"anonymous":false,"inputs":[{"indexed":true,"internalType":"address","name":"seller","type":"address"},{"indexed":false,"internalType":"uint256[]","name":"tokenIds","type":"uint256[]"},{"indexed":false,"internalType":"uint256[]","name":"amounts","type":"uint256[]"},{"indexed":false,"internalType":"uint256[]","name":"prices","type":"uint256[]"}],"name":"BatchListingCompleted","type":"event"},{"anonymous":false,"inputs":[{"indexed":true,"internalType":"address","name":"buyer","type":"address"},{"indexed":false,"internalType":"uint256[]","name":"tokenIds","type":"uint256[]"},{"indexed":false,"internalType":"uint256[]","name":"amounts","type":"uint256[]"}],"name":"BatchMintCompleted","type":"event"},{"anonymous":false,"inputs":[{"indexed":true,"internalType":"uint256","name":"tokenId","type":"uint256"},{"indexed":true,"internalType":"address","name":"seller","type":"address"}],"name":"ListingCancelled","type":"event"},{"anonymous":false,"inputs":[{"indexed":true,"internalType":"uint256","name":"tokenId","type":"uint256"},{"indexed":true,"internalType":"address","name":"creator","type":"address"},{"indexed":false,"internalType":"uint256","name":"price","type":"uint256"},{"indexed":false,"internalType":"uint256","name":"maxSupply","type":"uint256"}],"name":"NFTCreated","type":"event"},{"anonymous":false,"inputs":[{"indexed":true,"internalType":"uint256","name":"tokenId","type":"uint256"},{"indexed":true,"internalType":"address","name":"seller","type":"address"},{"indexed":false,"internalType":"uint256","name":"price","type":"uint256"},{"indexed":false,"internalType":"uint256","name":"amount","type":"uint256"}],"name":"NFTListed","type":"event"},{"anonymous":false,"inputs":[{"indexed":true,"internalType":"uint256","name":"tokenId","type":"uint256"},{"indexed":false,"internalType":"uint256","name":"newPrice","type":"uint256"}],"name":"NFTPriceUpdated","type":"event"},{"anonymous":false,"inputs":[{"indexed":true,"internalType":"uint256","name":"tokenId","type":"uint256"},{"indexed":true,"internalType":"address","name":"seller","type":"address"},{"indexed":true,"internalType":"address","name":"buyer","type":"address"},{"indexed":false,"internalType":"uint256","name":"price","type":"uint256"},{"indexed":false,"internalType":"uint256","name":"amount","type":"uint256"}],"name":"NFTSold","type":"event"},{"anonymous":false,"inputs":[{"indexed":true,"internalType":"uint256","name":"tokenId","type":"uint256"},{"indexed":false,"internalType":"bool","name":"isActive","type":"bool"}],"name":"NFTStatusUpdated","type":"event"},{"anonymous":false,"inputs":[{"indexed":true,"internalType":"address","name":"previousOwner","type":"address"},{"indexed":true,"internalType":"address","name":"newOwner","type":"address"}],"name":"OwnershipTransferred","type":"event"},{"anonymous":false,"inputs":[{"indexed":false,"internalType":"address","name":"account","type":"address"}],"name":"Paused","type":"event"},{"anonymous":false,"inputs":[{"indexed":true,"internalType":"address","name":"operator","type":"address"},{"indexed":true,"internalType":"address","name":"from","type":"address"},{"indexed":true,"internalType":"address","name":"to","type":"address"},{"indexed":false,"internalType":"uint256[]","name":"ids","type":"uint256[]"},{"indexed":false,"internalType":"uint256[]","name":"values","type":"uint256[]"}],"name":"TransferBatch","type":"event"},{"anonymous":false,"inputs":[{"indexed":true,"internalType":"address","name":"operator","type":"address"},{"indexed":true,"internalType":"address","name":"from","type":"address"},{"indexed":true,"internalType":"address","name":"to","type":"address"},{"indexed":false,"internalType":"uint256","name":"id","type":"uint256"},{"indexed":false,"internalType":"uint256","name":"value","type":"uint256"}],"name":"TransferSingle","type":"event"},{"anonymous":false,"inputs":[{"indexed":false,"internalType":"string","name":"value","type":"string"},{"indexed":true,"internalType":"uint256","name":"id","type":"uint256"}],"name":"URI","type":"event"},{"anonymous":false,"inputs":[{"indexed":false,"internalType":"address","name":"account","type":"address"}],"name":"Unpaused","type":"event"},{"inputs":[],"name":"BASIS_POINTS","outputs":[{"internalType":"uint256","name":"","type":"uint256"}],"stateMutability":"view","type":"function"},{"inputs":[],"name":"MAX_BATCH_SIZE","outputs":[{"internalType":"uint256","name":"","type":"uint256"}],"stateMutability":"view","type":"function"},{"inputs":[],"name":"MAX_ROYALTY_BPS","outputs":[{"internalType":"uint256","name":"","type":"uint256"}],"stateMutability":"view","type":"function"},{"inputs":[],"name":"MIN_ROYALTY_BPS","outputs":[{"internalType":"uint256","name":"","type":"uint256"}],"stateMutability":"view","type":"function"},{"inputs":[{"internalType":"address","name":"account","type":"address"},{"internalType":"uint256","name":"id","type":"uint256"}],"name":"balanceOf","outputs":[{"internalType":"uint256","name":"","type":"uint256"}],"stateMutability":"view","type":"function"},{"inputs":[{"internalType":"address[]","name":"accounts","type":"address[]"},{"internalType":"uint256[]","name":"ids","type":"uint256[]"}],"name":"balanceOfBatch","outputs":[{"internalType":"uint256[]","name":"","type":"uint256[]"}],"stateMutability":"view","type":"function"},{"inputs":[{"internalType":"uint256[]","name":"_tokenIds","type":"uint256[]"},{"internalType":"uint256[]","name":"_amounts","type":"uint256[]"}],"name":"batchMintNFTs","outputs":[],"stateMutability":"payable","type":"function"},{"inputs":[{"internalType":"uint256","name":"_tokenId","type":"uint256"},{"internalType":"address","name":"_seller","type":"address"},{"internalType":"uint256","name":"_amount","type":"uint256"}],"name":"buyListedNFT","outputs":[],"stateMutability":"payable","type":"function"},{"inputs":[{"internalType":"uint256","name":"_tokenId","type":"uint256"}],"name":"cancelListing","outputs":[],"stateMutability":"nonpayable","type":"function"},{"inputs":[{"internalType":"string","name":"_name","type":"string"},{"internalType":"string","name":"_description","type":"string"},{"internalType":"string","name":"_musicUrl","type":"string"},{"internalType":"string","name":"_imageUrl","type":"string"},{"internalType":"uint256","name":"_price","type":"uint256"},{"internalType":"uint256","name":"_maxSupply","type":"uint256"},{"internalType":"uint256","name":"_royaltyBPS","type":"uint256"}],"name":"createMusicNFT","outputs":[{"internalType":"uint256","name":"","type":"uint256"}],"stateMutability":"nonpayable","type":"function"},{"inputs":[{"internalType":"uint256","name":"_tokenId","type":"uint256"},{"internalType":"address","name":"_seller","type":"address"}],"name":"getListing","outputs":[{"components":[{"internalType":"address","name":"seller","type":"address"},{"internalType":"uint256","name":"price","type":"uint256"},{"internalType":"uint256","name":"amount","type":"uint256"}],"internalType":"struct MusicNFTMarketplace.Listing","name":"","type":"tuple"}],"stateMutability":"view","type":"function"},{"inputs":[{"internalType":"uint256","name":"tokenId","type":"uint256"}],"name":"getNFTMetadata","outputs":[{"components":[{"internalType":"string","name":"name","type":"string"},{"internalType":"string","name":"description","type":"string"},{"internalType":"string","name":"imageUrl","type":"string"},{"internalType":"string","name":"musicUrl","type":"string"},{"internalType":"address","name":"creator","type":"address"},{"internalType":"uint256","name":"maxSupply","type":"uint256"},{"internalType":"uint256","name":"currentSupply","type":"uint256"},{"internalType":"uint256","name":"royaltyBPS","type":"uint256"}],"internalType":"struct MusicNFTMarketplace.NFTMetadata","name":"","type":"tuple"}],"stateMutability":"view","type":"function"},{"inputs":[{"internalType":"address","name":"account","type":"address"},{"internalType":"address","name":"operator","type":"address"}],"name":"isApprovedForAll","outputs":[{"internalType":"bool","name":"","type":"bool"}],"stateMutability":"view","type":"function"},{"inputs":[{"internalType":"uint256","name":"_tokenId","type":"uint256"},{"internalType":"uint256","name":"_amount","type":"uint256"},{"internalType":"uint256","name":"_price","type":"uint256"}],"name":"listNFT","outputs":[],"stateMutability":"nonpayable","type":"function"},{"inputs":[{"internalType":"uint256","name":"","type":"uint256"},{"internalType":"address","name":"","type":"address"}],"name":"listings","outputs":[{"internalType":"address","name":"seller","type":"address"},{"internalType":"uint256","name":"price","type":"uint256"},{"internalType":"uint256","name":"amount","type":"uint256"}],"stateMutability":"view","type":"function"},{"inputs":[{"internalType":"uint256","name":"_tokenId","type":"uint256"},{"internalType":"uint256","name":"_amount","type":"uint256"}],"name":"mintNFT","outputs":[],"stateMutability":"payable","type":"function"},{"inputs":[{"internalType":"uint256","name":"","type":"uint256"}],"name":"musicNFTs","outputs":[{"internalType":"address","name":"creator","type":"address"},{"internalType":"string","name":"musicUrl","type":"string"},{"internalType":"string","name":"imageUrl","type":"string"},{"internalType":"uint256","name":"price","type":"uint256"},{"internalType":"uint256","name":"maxSupply","type":"uint256"},{"internalType":"uint256","name":"currentSupply","type":"uint256"},{"internalType":"bool","name":"isActive","type":"bool"}],"stateMutability":"view","type":"function"},{"inputs":[],"name":"owner","outputs":[{"internalType":"address","name":"","type":"address"}],"stateMutability":"view","type":"function"},{"inputs":[],"name":"pause","outputs":[],"stateMutability":"nonpayable","type":"function"},{"inputs":[],"name":"paused","outputs":[{"internalType":"bool","name":"","type":"bool"}],"stateMutability":"view","type":"function"},{"inputs":[],"name":"renounceOwnership","outputs":[],"stateMutability":"nonpayable","type":"function"},{"inputs":[{"internalType":"uint256","name":"tokenId","type":"uint256"},{"internalType":"uint256","name":"salePrice","type":"uint256"}],"name":"royaltyInfo","outputs":[{"internalType":"address","name":"","type":"address"},{"internalType":"uint256","name":"","type":"uint256"}],"stateMutability":"view","type":"function"},{"inputs":[{"internalType":"address","name":"from","type":"address"},{"internalType":"address","name":"to","type":"address"},{"internalType":"uint256[]","name":"ids","type":"uint256[]"},{"internalType":"uint256[]","name":"amounts","type":"uint256[]"},{"internalType":"bytes","name":"data","type":"bytes"}],"name":"safeBatchTransferFrom","outputs":[],"stateMutability":"nonpayable","type":"function"},{"inputs":[{"internalType":"address","name":"from","type":"address"},{"internalType":"address","name":"to","type":"address"},{"internalType":"uint256","name":"id","type":"uint256"},{"internalType":"uint256","name":"amount","type":"uint256"},{"internalType":"bytes","name":"data","type":"bytes"}],"name":"safeTransferFrom","outputs":[],"stateMutability":"nonpayable","type":"function"},{"inputs":[{"internalType":"address","name":"operator","type":"address"},{"internalType":"bool","name":"approved","type":"bool"}],"name":"setApprovalForAll","outputs":[],"stateMutability":"nonpayable","type":"function"},{"inputs":[{"internalType":"bytes4","name":"interfaceId","type":"bytes4"}],"name":"supportsInterface","outputs":[{"internalType":"bool","name":"","type":"bool"}],"stateMutability":"view","type":"function"},{"inputs":[{"internalType":"uint256","name":"_tokenId","type":"uint256"}],"name":"toggleNFTStatus","outputs":[],"stateMutability":"nonpayable","type":"function"},{"inputs":[{"internalType":"address","name":"newOwner","type":"address"}],"name":"transferOwnership","outputs":[],"stateMutability":"nonpayable","type":"function"},{"inputs":[],"name":"unpause","outputs":[],"stateMutability":"nonpayable","type":"function"},{"inputs":[{"internalType":"uint256","name":"_tokenId","type":"uint256"},{"internalType":"uint256","name":"_newPrice","type":"uint256"}],"name":"updateNFTPrice","outputs":[],"stateMutability":"nonpayable","type":"function"},{"inputs":[{"internalType":"uint256","name":"tokenId","type":"uint256"}],"name":"uri","outputs":[{"internalType":"string","name":"","type":"string"}],"stateMutability":"view","type":"function"}],"evm":{"bytecode":{"linkReferences":{},"object":"6080346200015357602081016001600160401b038111828210176200013d5760405260008091526002546001908181811c9116801562000132575b60208210146200011e57601f8111620000d0575b50600282905560058054336001600160a01b031982168117909255604051936001600160a01b03909116907f8be0079c531659141344cd1fd0a4f28419497f9722a3daafe3b4186f6b6457e09080a360065560ff19600754166007553315620000c1576040516136f49081620001598239f35b63e6c4247b60e01b8152600490fd5b60028352601f0160051c7f405787fa12a823e0f2b7631cc41b3ba8828b3321ca811111fa75cd3aa3bb5ace9081019082905b828110620001125750506200004e565b84815501829062000102565b634e487b7160e01b83526022600452602483fd5b90607f16906200003a565b634e487b7160e01b600052604160045260246000fd5b600080fdfe6080604052600436101561001257600080fd5b60003560e01c8062fdd58e1461251357806301ffc9a7146124765780630e89341c146120955780632a55205a146120665780632eb2c2d614611ca8578063305a67a814611c05578063368d9b48146115d35780633dca40e6146115b65780633f4ba83a146115225780634ac0123d1461149a5780634e1273f4146112f85780635c975abb146112d55780635d2691381461122e5780636be9a6f114611172578063715018a6146111155780638456cb59146110bb5780638da5cb5b14611092578063927fbfc814611030578063935b74c814610f955780639b8262fd14610ef0578063a22cb46514610e03578063b0136c8d14610cfa578063b6308e0214610af0578063c48283ff14610847578063cfdbf2541461082b578063e1f1c4a71461080e578063e985e9c5146107b8578063ecf7ba22146102ee578063f242432a14610255578063f2fde38b146101915763f83496171461017057600080fd5b3461018c57600036600319011261018c57602060405160008152f35b600080fd5b3461018c57602036600319011261018c576101aa612542565b6101b26128bb565b6001600160a01b0390811690811561020157600554826001600160601b0360a01b821617600555167f8be0079c531659141344cd1fd0a4f28419497f9722a3daafe3b4186f6b6457e0600080a3005b60405162461bcd60e51b815260206004820152602660248201527f4f776e61626c653a206e6577206f776e657220697320746865207a65726f206160448201526564647265737360d01b6064820152608490fd5b3461018c5760a036600319011261018c5761026e612542565b610276612558565b90608435916001600160401b03831161018c5761029a6102c693369060040161272f565b916001600160a01b03811633811480156102c8575b6102b991506129bb565b6064359160443591612ae4565b005b5060005260016020526040600020336000526020526102b960ff604060002054166102af565b60031960403682011261018c576001600160401b039060043582811161018c5761031c90369060040161288b565b909260243590811161018c5761033690369060040161288b565b9190610340613200565b61034861314b565b8282036107a657601482116107945760009060005b838110610656575081341061064457610377368488612671565b95610383368684612671565b946040516103908161261e565b6000815261039f331515613256565b6103ac8951885114612e3f565b60005b895181101561040257806103c66103fd928a6129a7565b516103d1828d6129a7565b5160005260206000815260406000209033600052526103f66040600020918254612ad7565b9055612998565b6103af565b5088908789604051600033917f4a39dc06d4c0dbc64b70af90fd698a233a518aa5d07e595d983b8c0526c8f7fb33918061043d888b83612e9c565b0390a4333b6104e1575b50505050906104a59461049c7f6583473987e443781108c9a74166cfb5d143516bbb4a3804805a2e0b349115639361048c6040519485946040865260408601916131dc565b90838203602085015233966131dc565b0390a23461318f565b806104b2575b6001600655005b600080808093335af16104c36131ac565b50156104cf57806104ab565b6040516312171d8360e31b8152600490fd5b60209161054261053392604098979851958694859461052363bc197c8160e01b9a8b88523360048901526000602489015260a0604489015260a4880190612777565b9084878303016064880152612777565b91848303016084850152612591565b03816000335af160009181610614575b506105be5761055f612f2a565b6308c379a014610587575b60405162461bcd60e51b81528061058360048201612fb6565b0390fd5b61058f612f48565b8061059a575061056a565b60405162461bcd60e51b815260206004820152908190610583906024830190612591565b6001600160e01b031916036105fb57908461049c7f6583473987e443781108c9a74166cfb5d143516bbb4a3804805a2e0b349115636104a5610447565b60405162461bcd60e51b81528061058360048201612ee1565b61063691925060203d811161063d575b61062e8183612639565b810190612ec1565b9088610552565b503d610624565b60405163cd1c886760e01b8152600490fd5b61066181858961319c565b35600052600960205260406000209260ff600685015416156107825761068882878561319c565b3515610770576005908185019081546106a2858a8861319c565b35810160048801541061075e576106de88926106d8878c8f9b8260036106cb920154928d61319c565b350295868094019b61319c565b3561308e565b9384926106ec888d8b61319c565b3501905581610735575b508103610709575b50505060010161035d565b6000809381938293039060018060a01b039054165af16107276131ac565b50156104cf578780806106fe565b6000918291829182916001600160a01b03165af16107516131ac565b50156104cf57818b6106f6565b604051638a164f6360e01b8152600490fd5b60405163b4fa3fb360e01b8152600490fd5b60405163ad9d099b60e01b8152600490fd5b604051631e80759560e21b8152600490fd5b60405163512509d360e11b8152600490fd5b3461018c57604036600319011261018c576107d1612542565b6107d9612558565b9060018060a01b03809116600052600160205260406000209116600052602052602060ff604060002054166040519015158152f35b3461018c57600036600319011261018c5760206040516127108152f35b3461018c57600036600319011261018c57602060405160148152f35b610850366125b6565b90610859613200565b61086161314b565b8060005260209160098352604060002060ff6006820154161561078257811561077057600581018054916108958484612ad7565b60048201541061075e578360036108ad92015461307b565b9182341061064457836108bf91612ad7565b90556108cb818461308e565b6108d5818461318f565b9181610ac7575b505080610a9c575b50803411610a76575b50604051906108fb8261261e565b6000825261090a331515613256565b6109138361300b565b5061091d8161300b565b50826000526000845260406000203360005284526040600020610941828254612ad7565b90556040518381528185820152600033917fc3d58168c5ae7397731d063d5bbf3d657854427343f4c083240f7aacaa2d0f6260403392a4333b610985576001600655005b6109c7918491604051938492839263f23a6e6160e01b97888552336004860152600060248601526044850152606484015260a0608484015260a4830190612591565b03816000335af160009181610a57575b50610a3d57826109e5612f2a565b6308c379a014610a085760405162461bcd60e51b81528061058360048201612fb6565b610a10612f48565b9081610a1c575061056a565b61058360405192839262461bcd60e51b845260048401526024830190612591565b6001600160e01b0319160390506105fb57808080806104ab565b610a6f919250843d861161063d5761062e8183612639565b90846109d7565b60008080610a8581943461318f565b335af1610a906131ac565b50156104cf57836108ed565b6005546000918291829182916001600160a01b03165af1610abb6131ac565b50156104cf57846108e4565b6000918291829182916001600160a01b03165af1610ae36131ac565b50156104cf5785806108dc565b606036600319011261018c57600435610b07612558565b604435610b12613200565b610b1a61314b565b6001600160a01b0392828416918215610ce8573315610ce857338314610cd65781600052602093600a855260406000208460005285526040600020848782541603610cd657600281019083825410610cc457600101918254610b7c858261307b565b341061064457856000526009885260ff60066040600020015416156107825784610ba68784612913565b10610cc45784610bb59161307b565b97610bc0898761308e565b9091610bcc828c61318f565b9282610ca3575b5050506000808080938a5af1610be76131ac565b50156104cf57610c0b90848660405192610c008461261e565b600084523390612ae4565b610c1683825461318f565b80915515610c78575b54936040519485528401527f5fafad85dec201c2e73b6a2bef6351129304a624ea8720ecd04cd7f04d83bc3960403394a4803411610c5e576001600655005b60008080610c6d81943461318f565b335af16104c36131ac565b82600052600a8552604060002084600052855260006002604082208281558260018201550155610c1f565b6000809381938293165af1610cb66131ac565b50156104cf57898080610bd3565b604051631e9acf1760e31b8152600490fd5b60405163ea8e4eb560e01b8152600490fd5b60405163e6c4247b60e01b8152600490fd5b3461018c57606036600319011261018c57604435600435602435610d1c613200565b610d2461314b565b80610d2f8333612913565b10610cc4578015610770578215610df25781600052600960205260ff600660406000200154161561078257604051610d66816125e7565b338152600260208201858152604083019084825285600052600a60205260406000203360005260205260406000209360018060a01b039051166001600160601b0360a01b8554161784555160018401555191015560405192835260208301527f36e94395fafcb0d2a9bcfcdd5cef807ab52a1f4382906992ebdc18de5f1472c460403393a36001600655005b60405162bfc92160e01b8152600490fd5b3461018c57604036600319011261018c57610e1c612542565b602435908115159081830361018c576001600160a01b031691338314610e9957610e6b9033600052600160205260406000208460005260205260406000209060ff801983541691151516179055565b6040519081527f17307eab39ab6107e8899845ad3d59bd9653f200f220920489ca2b5937696c3160203392a3005b60405162461bcd60e51b815260206004820152602960248201527f455243313135353a2073657474696e6720617070726f76616c20737461747573604482015268103337b91039b2b63360b91b6064820152608490fd5b3461018c57602036600319011261018c57600435610f0c61314b565b60008181526009602052604090208054336001600160a01b0391821614159081610f86575b50610cd657602060ff60067fb98f2e7a31992fd0038957c8b37afbfde15601543d7e49508ff1093c402e6b899301610f798282541615829060ff801983541691151516179055565b54166040519015158152a2005b90506005541633141583610f31565b3461018c57604036600319011261018c576060610fb0612558565b600060408051610fbf816125e7565b8281528260208201520152600435600052600a602052604060002060018060a01b0380921660005260205260406000209060405190610ffd826125e7565b82541691828252604060026001830154926020850193845201549201918252604051928352516020830152516040820152f35b3461018c57604036600319011261018c57606061104b612558565b600435600052600a602052604060002060018060a01b0380921660005260205260406000209081541690600260018201549101549060405192835260208301526040820152f35b3461018c57600036600319011261018c576005546040516001600160a01b039091168152602090f35b3461018c57600036600319011261018c576110d46128bb565b6110dc61314b565b600160ff1960075416176007557f62e78cea01bee320cd4e420270b5ea74000d11b0c9f74754ebdbfc544b05a2586020604051338152a1005b3461018c57600036600319011261018c5761112e6128bb565b600580546001600160a01b031981169091556000906001600160a01b03167f8be0079c531659141344cd1fd0a4f28419497f9722a3daafe3b4186f6b6457e08280a3005b3461018c57602036600319011261018c5761118e600435613567565b604051809160208252805160e06111fe6111b661010093846020880152610120870190612591565b6111e96111d5602087015192601f1993848a83030160408b0152612591565b6040870151838983030160608a0152612591565b90606086015190878303016080880152612591565b9260018060a01b0360808201511660a086015260a081015160c086015260c0810151828601520151908301520390f35b3461018c57602036600319011261018c57600435600090815260096020526040902080546001600160a01b0316611267600183016127e5565b91611274600282016127e5565b60038201549160048101546112ba60ff6006600585015494015416936112ac604051988998895260e060208a015260e0890190612591565b908782036040890152612591565b936060860152608085015260a0840152151560c08301520390f35b3461018c57600036600319011261018c57602060ff600754166040519015158152f35b3461018c57604036600319011261018c576004356001600160401b0380821161018c573660238301121561018c578160040135906113358261265a565b926113436040519485612639565b82845260209260248486019160051b8301019136831161018c57602401905b82821061147b5750505060243590811161018c576113849036906004016126bf565b8251815103611424578251926113998461265a565b936113a76040519586612639565b8085526113b6601f199161265a565b01368486013760005b815181101561140957611404906113f46001600160a01b036113e183866129a7565b51166113ed83876129a7565b5190612913565b6113fe82886129a7565b52612998565b6113bf565b505050611420604051928284938452830190612777565b0390f35b60405162461bcd60e51b815260048101839052602960248201527f455243313135353a206163636f756e747320616e6420696473206c656e677468604482015268040dad2e6dac2e8c6d60bb1b6064820152608490fd5b81356001600160a01b038116810361018c578152908401908401611362565b3461018c576114a8366125b6565b6114b061314b565b60008281526009602052604090208054336001600160a01b0391821614159081611513575b50610cd6578115610df257817f2847cfe8afe8bcd9ac540f0259739697ea019f65d44c8e76c8796b8ce52f7c319260036020930155604051908152a2005b905060055416331415846114d5565b3461018c57600036600319011261018c5761153b6128bb565b60075460ff81161561157a5760ff19166007557f5db9ee0a495bf2e6ff9c91a7834c1ba4fdd244a5e8aa4e537bd38aeae4b073aa6020604051338152a1005b60405162461bcd60e51b815260206004820152601460248201527314185d5cd8589b194e881b9bdd081c185d5cd95960621b6044820152606490fd5b3461018c57600036600319011261018c5760206040516109c48152f35b3461018c5760e036600319011261018c576004356001600160401b03811161018c5761160390369060040161274a565b906024356001600160401b03811161018c5761162390369060040161274a565b91906044356001600160401b03811161018c5761164490369060040161274a565b9290916064356001600160401b03811161018c5761166690369060040161274a565b95909261167161314b565b3315610ce85787158015611bfd575b8015611bf5575b8015611bed575b6107705760843515610df25760a43515611bdb576109c460c43511611bc957600160085401978860085588600052600b6020526040600020916001600160401b038211611a595781906116eb826116e586546127ab565b866130f7565b600090601f8311600114611b6157600092611b56575b50508160011b916000199060031b1c19161790555b86600052600c6020526040600020916001600160401b038211611a59578190611743826116e586546127ab565b600090601f8311600114611aeb57600092611ae0575b50508160011b916000199060031b1c19161790555b604051928360e08101106001600160401b0360e086011117611a59576117b2926117a39160e0860160405233865236916126f8565b936020840194855236916126f8565b6040820152608435606082015260a4356080820152600060a0820152600160c082015282600052600960205260406000209160018060a01b038251166001600160601b0360a01b8454161783555180516001600160401b038111611a5957806001850192611824826116e586546127ab565b602090601f8311600114611a7a57600092611a6f575b50508160011b916000199060031b1c19161790555b604081015180516001600160401b038111611a5957600284019161187d8261187785546127ab565b856130f7565b602090601f83116001146119e757928260c0936118eb9796936006966000926119dc575b50508160011b916000199060031b1c19161790555b606081015160038501556080810151600485015560a081015160058501550151151591019060ff801983541691151516179055565b6001600160601b0360c4351690612710821161198457604051602092611910826125cc565b338252838201908152826000526004845260406000209160018060a01b03905116906001600160601b0360a01b905160a01b16179055604051608435815260a43583820152817f23cbb18bfb096672f2fc538a6d637483d9db0f85666ae980eba20ae2874da1a460403393a3604051908152f35b60405162461bcd60e51b815260206004820152602a60248201527f455243323938313a20726f79616c7479206665652077696c6c206578636565646044820152692073616c65507269636560b01b6064820152608490fd5b0151905089806118a1565b90601f198316918460005260206000209260005b818110611a415750936118eb979693600696936001938360c09810611a28575b505050811b0190556118b6565b015160001960f88460031b161c19169055898080611a1b565b929360206001819287860151815501950193016119fb565b634e487b7160e01b600052604160045260246000fd5b01519050868061183a565b6000858152602081209350601f198516905b818110611ac85750908460019594939210611aaf575b505050811b01905561184f565b015160001960f88460031b161c19169055868080611aa2565b92936020600181928786015181550195019301611a8c565b013590508880611759565b909150601f198316918460005260206000209260005b818110611b3e5750908460019594939210611b24575b505050811b01905561176e565b0135600019600384901b60f8161c19169055888080611b17565b91936020600181928787013581550195019201611b01565b013590508a80611701565b600085815260208120909450915b601f1984168510611bb1576001945083601f19811610611b97575b505050811b019055611716565b0135600019600384901b60f8161c191690558a8080611b8a565b81810135835560209485019460019093019201611b6f565b60405163e0e54ced60e01b8152600490fd5b6040516315ae672760e01b8152600490fd5b50861561168e565b508515611687565b508115611680565b3461018c57602036600319011261018c57600435611c21613200565b611c2961314b565b80600052600a6020526040600020336000526020523360018060a01b036040600020541603610cd65780600052600a6020526040600020336000526020526000600260408220828155826001820155015533907f8e25282255ab31897df2b0456bb993ac7f84d376861aefd84901d2d63a7428a2600080a36001600655005b3461018c5760031960a03682011261018c57611cc2612542565b611cca612558565b906001600160401b039060443582811161018c57611cec9036906004016126bf565b60643583811161018c57611d049036906004016126bf565b9260843590811161018c57611d1d90369060040161272f565b6001600160a01b039283169590338714801561203d575b611d3d906129bb565b611d4a8351865114612e3f565b83861693841515611d5a81612a1e565b8815159081612035575b50611ecf575b5060005b8351811015611dfd5780611d85611df892866129a7565b51611d9082896129a7565b5190806000526020906000825260406000208c600052825282604060002054611dbb82821015612a78565b82600052600084528d6040600020906000528452036040600020556000526000815260406000209088600052526103f66040600020918254612ad7565b611d6e565b5090949392919382876040517f4a39dc06d4c0dbc64b70af90fd698a233a518aa5d07e595d983b8c0526c8f7fb339180611e388a8c83612e9c565b0390a43b611e4257005b6000602094611e846105339761052394604051998a988997889663bc197c8160e01b9e8f89523360048a0152602489015260a0604489015260a4880190612777565b03925af160009181611eaf575b50611e9e5761055f612f2a565b6001600160e01b031916036105fb57005b611ec891925060203d811161063d5761062e8183612639565b9083611e91565b96949390959160005b84518110156120275780611eef611f2792876129a7565b51600052878a600a602090808252604060002084600052825283604060002093845416148061201a575b611f2c575b50505050612998565b611ed8565b611f36858c6129a7565b51928b868c60029687850193845480921015600014611fba57505090915060009650611f6292506129a7565b518452815260408320908b84525260408220828155826001820155015587611f8a82886129a7565b517f8e25282255ab31897df2b0456bb993ac7f84d376861aefd84901d2d63a7428a2600080a35b878b8080611f1e565b7f36e94395fafcb0d2a9bcfcdd5cef807ab52a1f4382906992ebdc18de5f1472c4979598506040965091611fff8492611ff8600196612007966129a7565b519061318f565b8095556129a7565b51950154918351928352820152a3611fb1565b5060028301541515611f19565b509195909394965087611d6a565b905089611d64565b50866000526001602052604060002033600052602052611d3d60ff604060002054169050611d34565b3461018c57604061207f612079366125b6565b9061308e565b82516001600160a01b0390921682526020820152f35b3461018c5760208060031936011261018c5760043560008181526009835260409020546001600160a01b03929190831615612464576120d390613567565b8051908281015160408201519160608101519560808201511695604051966120fa886125e7565b602a885286880190604036833788511561244e5760308253885160019081101561244e57607860218b01536029905b8082116123f05750506123ad57869760a084015161214690613424565b9260c085015161215590613424565b9460e0015161216390613424565b96896040519a8b9a683d913730b6b2911d1160b91b828d01528b81519260298492019201916121919261256e565b8a0161088b60f21b988960298301526e113232b9b1b934b83a34b7b7111d1160891b602b83015280518093603a84019201916121cc9261256e565b0187603a820152681134b6b0b3b2911d1160b91b603c820152815191828d604584019201916121fa9261256e565b01866045820152701130b734b6b0ba34b7b72fbab936111d1160791b6047820152815191828c605884019201916122309261256e565b01908560588301526d2270726f70657274696573223a7b60901b605a8301526a1131b932b0ba37b9111d1160a91b6068830152519182607383016122739261256e565b018360738201526c1136b0bc29bab838363c911d1160991b60758201528151918289608284019201916122a59261256e565b01826082820152701131bab93932b73a29bab838363c911d1160791b60848201528151918288609584019201916122db9261256e565b019060958201526d113937bcb0b63a3ca12829911d1160911b6097820152815191828660a5840192019161230e9261256e565b01601160f91b60a582015260a68101617d7d60f01b90520360888101825260a8016123399082612639565b612342906132de565b9060405180928282017f646174613a6170706c69636174696f6e2f6a736f6e3b6261736536342c00000090528051908184603d85019201916123839261256e565b810103601d81018352603d016123999083612639565b604051918183928352820161142091612591565b6064876040519062461bcd60e51b825280600483015260248201527f537472696e67733a20686578206c656e67746820696e73756666696369656e746044820152fd5b9091600f8116601081101561244e578b5184101561244e576f181899199a1a9b1b9c1cb0b131b232b360811b901a8b84018b015360041c918015612438576000190190612129565b634e487b7160e01b600052601160045260246000fd5b634e487b7160e01b600052603260045260246000fd5b60405163f070cb6f60e01b8152600490fd5b3461018c57602036600319011261018c5760043563ffffffff60e01b811680910361018c5760209063152a902d60e11b811490819081156124cd575b5081156124c5575b506040519015158152f35b9050826124ba565b909150636cdb3d1360e11b8114908115612502575b81156124f1575b5090836124b2565b6301ffc9a760e01b149050836124e9565b6303a24d0760e21b811491506124e2565b3461018c57604036600319011261018c57602061253a612531612542565b60243590612913565b604051908152f35b600435906001600160a01b038216820361018c57565b602435906001600160a01b038216820361018c57565b60005b8381106125815750506000910152565b8181015183820152602001612571565b906020916125aa8151809281855285808601910161256e565b601f01601f1916010190565b604090600319011261018c576004359060243590565b604081019081106001600160401b03821117611a5957604052565b606081019081106001600160401b03821117611a5957604052565b61010081019081106001600160401b03821117611a5957604052565b602081019081106001600160401b03821117611a5957604052565b90601f801991011681019081106001600160401b03821117611a5957604052565b6001600160401b038111611a595760051b60200190565b929161267c8261265a565b9161268a6040519384612639565b829481845260208094019160051b810192831161018c57905b8282106126b05750505050565b813581529083019083016126a3565b9080601f8301121561018c578160206126da93359101612671565b90565b6001600160401b038111611a5957601f01601f191660200190565b929192612704826126dd565b916127126040519384612639565b82948184528183011161018c578281602093846000960137010152565b9080601f8301121561018c578160206126da933591016126f8565b9181601f8401121561018c578235916001600160401b03831161018c576020838186019501011161018c57565b90815180825260208080930193019160005b828110612797575050505090565b835185529381019392810192600101612789565b90600182811c921680156127db575b60208310146127c557565b634e487b7160e01b600052602260045260246000fd5b91607f16916127ba565b90604051918260008254926127f9846127ab565b9081845260019485811690816000146128685750600114612825575b505061282392500383612639565b565b9093915060005260209081600020936000915b81831061285057505061282393508201013880612815565b85548884018501529485019487945091830191612838565b91505061282394506020925060ff191682840152151560051b8201013880612815565b9181601f8401121561018c578235916001600160401b03831161018c576020808501948460051b01011161018c57565b6005546001600160a01b031633036128cf57565b606460405162461bcd60e51b815260206004820152602060248201527f4f776e61626c653a2063616c6c6572206973206e6f7420746865206f776e65726044820152fd5b6001600160a01b031690811561294057600052600060205260406000209060005260205260406000205490565b60405162461bcd60e51b815260206004820152602a60248201527f455243313135353a2061646472657373207a65726f206973206e6f742061207660448201526930b634b21037bbb732b960b11b6064820152608490fd5b60001981146124385760010190565b805182101561244e5760209160051b010190565b156129c257565b60405162461bcd60e51b815260206004820152602e60248201527f455243313135353a2063616c6c6572206973206e6f7420746f6b656e206f776e60448201526d195c881bdc88185c1c1c9bdd995960921b6064820152608490fd5b15612a2557565b60405162461bcd60e51b815260206004820152602560248201527f455243313135353a207472616e7366657220746f20746865207a65726f206164604482015264647265737360d81b6064820152608490fd5b15612a7f57565b60405162461bcd60e51b815260206004820152602a60248201527f455243313135353a20696e73756666696369656e742062616c616e636520666f60448201526939103a3930b739b332b960b11b6064820152608490fd5b9190820180921161243857565b9192909360018060a01b038086169081151594612b0086612a1e565b612b098761300b565b9180612b148761300b565b9216968715159081612e37575b50612cd8575b50505060009285845260209584875260409788862087875288528289872054612b5282821015612a78565b838852878a528a88208989528a5203898720558186528588528886208487528852888620612b81848254612ad7565b905583878a51848152858b8201527fc3d58168c5ae7397731d063d5bbf3d657854427343f4c083240f7aacaa2d0f628c3392a43b612bc4575b5050505050505050565b91849391612c0c9588999a98948b519788958694859363f23a6e6160e01b9c8d865233600487015260248601526044850152606484015260a0608484015260a4830190612591565b03925af1909181612cb9575b50612c7f57505050612c28612f2a565b6308c379a014612c4b575b505162461bcd60e51b81528061058360048201612fb6565b612c53612f48565b9081612c5f5750612c33565b610583835192839262461bcd60e51b845260048401526024830190612591565b919392506001600160e01b031990911603612ca257503880808080808080612bba565b5162461bcd60e51b81528061058360048201612ee1565b612cd1919250853d871161063d5761062e8183612639565b9038612c18565b9490959691989360009893985b8a51811015612e2557808989828e612d00612d3c96826129a7565b516000528b600a602090808252604092836000208860005283528784600020918254161480612e18575b612d41575b5050505050505050612998565b612ce5565b612d4b86886129a7565b5160028281018054919990928211612dc7575050505091612d939591600093612d7487876129a7565b51855281528184209088855252822082815582600182015501556129a7565b517f8e25282255ab31897df2b0456bb993ac7f84d376861aefd84901d2d63a7428a2600080a35b8989828e38808080612d2f565b612e0593995060019450889295969791611ff87f36e94395fafcb0d2a9bcfcdd5cef807ab52a1f4382906992ebdc18de5f1472c49a611fff936129a7565b51950154918351928352820152a3612dba565b5060028101541515612d2a565b50939850935094935094388080612b27565b905038612b21565b15612e4657565b60405162461bcd60e51b815260206004820152602860248201527f455243313135353a2069647320616e6420616d6f756e7473206c656e677468206044820152670dad2e6dac2e8c6d60c31b6064820152608490fd5b9091612eb36126da93604084526040840190612777565b916020818403910152612777565b9081602091031261018c57516001600160e01b03198116810361018c5790565b60809060208152602860208201527f455243313135353a204552433131353552656365697665722072656a656374656040820152676420746f6b656e7360c01b60608201520190565b60009060033d11612f3757565b905060046000803e60005160e01c90565b600060443d106126da57604051600319913d83016004833e81516001600160401b03918282113d602484011117612fa557818401948551938411612fad573d85010160208487010111612fa557506126da92910160200190612639565b949350505050565b50949350505050565b60809060208152603460208201527f455243313135353a207472616e7366657220746f206e6f6e2d455243313135356040820152732932b1b2b4bb32b91034b6b83632b6b2b73a32b960611b60608201520190565b60405190613018826125cc565b6001825260208201602036823782511561244e575290565b6040519061303d826125cc565b6003546001600160a01b038116835260a01c6020830152565b90604051613063816125cc565b91546001600160a01b038116835260a01c6020830152565b8181029291811591840414171561243857565b91909160005260046020526130a66040600020613056565b805190926001600160a01b03918216156130de575b6130d6612710916001600160601b036020870151169061307b565b049251169190565b92506127106130d66130ee613030565b949150506130bb565b90601f811161310557505050565b600091825260208220906020601f850160051c83019410613141575b601f0160051c01915b82811061313657505050565b81815560010161312a565b9092508290613121565b60ff6007541661315757565b60405162461bcd60e51b815260206004820152601060248201526f14185d5cd8589b194e881c185d5cd95960821b6044820152606490fd5b9190820391821161243857565b919081101561244e5760051b0190565b3d156131d7573d906131bd826126dd565b916131cb6040519384612639565b82523d6000602084013e565b606090565b81835290916001600160fb1b03831161018c5760209260051b809284830137010190565b600260065414613211576002600655565b60405162461bcd60e51b815260206004820152601f60248201527f5265656e7472616e637947756172643a207265656e7472616e742063616c6c006044820152606490fd5b1561325d57565b60405162461bcd60e51b815260206004820152602160248201527f455243313135353a206d696e7420746f20746865207a65726f206164647265736044820152607360f81b6064820152608490fd5b906132b6826126dd565b6132c36040519182612639565b82815280926132d4601f19916126dd565b0190602036910137565b805115613410576040516132f1816125e7565b604081527f4142434445464748494a4b4c4d4e4f505152535455565758595a61626364656660208201527f6768696a6b6c6d6e6f707172737475767778797a303132333435363738392b2f60408201528151600292838201809211612438576003918290046001600160fe1b038116810361243857613373908594951b6132ac565b936020850193829183518401925b8381106133bf57505050505106806001146133ac576002146133a1575090565b603d90600019015390565b50603d9081600019820153600119015390565b85600491979293949701918251600190603f9082828260121c16880101518453828282600c1c16880101518385015382828260061c1688010151888501531685010151878201530195929190613381565b5060405161341d8161261e565b6000815290565b806000917a184f03e93ff9f4daa797ed6e38ed64bf6a1f01000000000000000080821015613559575b506d04ee2d6d415b85acef81000000008083101561354a575b50662386f26fc100008083101561353b575b506305f5e1008083101561352c575b506127108083101561351d575b50606482101561350d575b600a80921015613503575b6001908160216134bb8287016132ac565b95860101905b6134cd575b5050505090565b600019019083906f181899199a1a9b1b9c1cb0b131b232b360811b8282061a8353049182156134fe579190826134c1565b6134c6565b91600101916134aa565b919060646002910491019161349f565b60049193920491019138613494565b60089193920491019138613487565b60109193920491019138613478565b60209193920491019138613466565b60409350810491503861344d565b9060409160e0835161357881612602565b60609081815260209082828201528287820152828082015260009381856080819401528260a08201528260c082015201528383526009815260018060a01b0391828785205416156136ad578484526009825286842096600483526135dd818620613056565b838582511615613694575b6001600160601b039101511695612710878102048097036136805761363f9798613665926001928852600b86528080892098600c885220968254169561364b60048401549861364460058601549b85519e8f612602565b6127e5565b8d526127e5565b908b015261365b600283016127e5565b908a0152016127e5565b90860152608085015260a084015260c083015260e082015290565b634e487b7160e01b86526011600452602486fd5b6001600160601b0391506136a6613030565b91506135e8565b865163f070cb6f60e01b8152600490fdfea2646970667358221220ca65871c749ef7bfa882bff9c3c8f690900dc701729ac970dda1cad52b285cc964736f6c63430008140033","opcodes":"PUSH1 0x80 CALLVALUE PUSH3 0x153 JUMPI PUSH1 0x20 DUP2 ADD PUSH1 0x1 PUSH1 0x1 PUSH1 0x40 SHL SUB DUP2 GT DUP3 DUP3 LT OR PUSH3 0x13D JUMPI PUSH1 0x40 MSTORE PUSH1 0x0 DUP1 SWAP2 MSTORE PUSH1 0x2 SLOAD PUSH1 0x1 SWAP1 DUP2 DUP2 DUP2 SHR SWAP2 AND DUP1 ISZERO PUSH3 0x132 JUMPI JUMPDEST PUSH1 0x20 DUP3 LT EQ PUSH3 0x11E JUMPI PUSH1 0x1F DUP2 GT PUSH3 0xD0 JUMPI JUMPDEST POP PUSH1 0x2 DUP3 SWAP1 SSTORE PUSH1 0x5 DUP1 SLOAD CALLER PUSH1 0x1 PUSH1 0x1 PUSH1 0xA0 SHL SUB NOT DUP3 AND DUP2 OR SWAP1 SWAP3 SSTORE PUSH1 0x40 MLOAD SWAP4 PUSH1 0x1 PUSH1 0x1 PUSH1 0xA0 SHL SUB SWAP1 SWAP2 AND SWAP1 PUSH32 0x8BE0079C531659141344CD1FD0A4F28419497F9722A3DAAFE3B4186F6B6457E0 SWAP1 DUP1 LOG3 PUSH1 0x6 SSTORE PUSH1 0xFF NOT PUSH1 0x7 SLOAD AND PUSH1 0x7 SSTORE CALLER ISZERO PUSH3 0xC1 JUMPI PUSH1 0x40 MLOAD PUSH2 0x36F4 SWAP1 DUP2 PUSH3 0x159 DUP3 CODECOPY RETURN JUMPDEST PUSH4 0xE6C4247B PUSH1 0xE0 SHL DUP2 MSTORE PUSH1 0x4 SWAP1 REVERT JUMPDEST PUSH1 0x2 DUP4 MSTORE PUSH1 0x1F ADD PUSH1 0x5 SHR PUSH32 0x405787FA12A823E0F2B7631CC41B3BA8828B3321CA811111FA75CD3AA3BB5ACE SWAP1 DUP2 ADD SWAP1 DUP3 SWAP1 JUMPDEST DUP3 DUP2 LT PUSH3 0x112 JUMPI POP POP PUSH3 0x4E JUMP JUMPDEST DUP5 DUP2 SSTORE ADD DUP3 SWAP1 PUSH3 0x102 JUMP JUMPDEST PUSH4 0x4E487B71 PUSH1 0xE0 SHL DUP4 MSTORE PUSH1 0x22 PUSH1 0x4 MSTORE PUSH1 0x24 DUP4 REVERT JUMPDEST SWAP1 PUSH1 0x7F AND SWAP1 PUSH3 0x3A JUMP JUMPDEST PUSH4 0x4E487B71 PUSH1 0xE0 SHL PUSH1 0x0 MSTORE PUSH1 0x41 PUSH1 0x4 MSTORE PUSH1 0x24 PUSH1 0x0 REVERT JUMPDEST PUSH1 0x0 DUP1 REVERT INVALID PUSH1 0x80 PUSH1 0x40 MSTORE PUSH1 0x4 CALLDATASIZE LT ISZERO PUSH2 0x12 JUMPI PUSH1 0x0 DUP1 REVERT JUMPDEST PUSH1 0x0 CALLDATALOAD PUSH1 0xE0 SHR DUP1 PUSH3 0xFDD58E EQ PUSH2 0x2513 JUMPI DUP1 PUSH4 0x1FFC9A7 EQ PUSH2 0x2476 JUMPI DUP1 PUSH4 0xE89341C EQ PUSH2 0x2095 JUMPI DUP1 PUSH4 0x2A55205A EQ PUSH2 0x2066 JUMPI DUP1 PUSH4 0x2EB2C2D6 EQ PUSH2 0x1CA8 JUMPI DUP1 PUSH4 0x305A67A8 EQ PUSH2 0x1C05 JUMPI DUP1 PUSH4 0x368D9B48 EQ PUSH2 0x15D3 JUMPI DUP1 PUSH4 0x3DCA40E6 EQ PUSH2 0x15B6 JUMPI DUP1 PUSH4 0x3F4BA83A EQ PUSH2 0x1522 JUMPI DUP1 PUSH4 0x4AC0123D EQ PUSH2 0x149A JUMPI DUP1 PUSH4 0x4E1273F4 EQ PUSH2 0x12F8 JUMPI DUP1 PUSH4 0x5C975ABB EQ PUSH2 0x12D5 JUMPI DUP1 PUSH4 0x5D269138 EQ PUSH2 0x122E JUMPI DUP1 PUSH4 0x6BE9A6F1 EQ PUSH2 0x1172 JUMPI DUP1 PUSH4 0x715018A6 EQ PUSH2 0x1115 JUMPI DUP1 PUSH4 0x8456CB59 EQ PUSH2 0x10BB JUMPI DUP1 PUSH4 0x8DA5CB5B EQ PUSH2 0x1092 JUMPI DUP1 PUSH4 0x927FBFC8 EQ PUSH2 0x1030 JUMPI DUP1 PUSH4 0x935B74C8 EQ PUSH2 0xF95 JUMPI DUP1 PUSH4 0x9B8262FD EQ PUSH2 0xEF0 JUMPI DUP1 PUSH4 0xA22CB465 EQ PUSH2 0xE03 JUMPI DUP1 PUSH4 0xB0136C8D EQ PUSH2 0xCFA JUMPI DUP1 PUSH4 0xB6308E02 EQ PUSH2 0xAF0 JUMPI DUP1 PUSH4 0xC48283FF EQ PUSH2 0x847 JUMPI DUP1 PUSH4 0xCFDBF254 EQ PUSH2 0x82B JUMPI DUP1 PUSH4 0xE1F1C4A7 EQ PUSH2 0x80E JUMPI DUP1 PUSH4 0xE985E9C5 EQ PUSH2 0x7B8 JUMPI DUP1 PUSH4 0xECF7BA22 EQ PUSH2 0x2EE JUMPI DUP1 PUSH4 0xF242432A EQ PUSH2 0x255 JUMPI DUP1 PUSH4 0xF2FDE38B EQ PUSH2 0x191 JUMPI PUSH4 0xF8349617 EQ PUSH2 0x170 JUMPI PUSH1 0x0 DUP1 REVERT JUMPDEST CALLVALUE PUSH2 0x18C JUMPI PUSH1 0x0 CALLDATASIZE PUSH1 0x3 NOT ADD SLT PUSH2 0x18C JUMPI PUSH1 0x20 PUSH1 0x40 MLOAD PUSH1 0x0 DUP2 MSTORE RETURN JUMPDEST PUSH1 0x0 DUP1 REVERT JUMPDEST CALLVALUE PUSH2 0x18C JUMPI PUSH1 0x20 CALLDATASIZE PUSH1 0x3 NOT ADD SLT PUSH2 0x18C JUMPI PUSH2 0x1AA PUSH2 0x2542 JUMP JUMPDEST PUSH2 0x1B2 PUSH2 0x28BB JUMP JUMPDEST PUSH1 0x1 PUSH1 0x1 PUSH1 0xA0 SHL SUB SWAP1 DUP2 AND SWAP1 DUP2 ISZERO PUSH2 0x201 JUMPI PUSH1 0x5 SLOAD DUP3 PUSH1 0x1 PUSH1 0x1 PUSH1 0x60 SHL SUB PUSH1 0xA0 SHL DUP3 AND OR PUSH1 0x5 SSTORE AND PUSH32 0x8BE0079C531659141344CD1FD0A4F28419497F9722A3DAAFE3B4186F6B6457E0 PUSH1 0x0 DUP1 LOG3 STOP JUMPDEST PUSH1 0x40 MLOAD PUSH3 0x461BCD PUSH1 0xE5 SHL DUP2 MSTORE PUSH1 0x20 PUSH1 0x4 DUP3 ADD MSTORE PUSH1 0x26 PUSH1 0x24 DUP3 ADD MSTORE PUSH32 0x4F776E61626C653A206E6577206F776E657220697320746865207A65726F2061 PUSH1 0x44 DUP3 ADD MSTORE PUSH6 0x646472657373 PUSH1 0xD0 SHL PUSH1 0x64 DUP3 ADD MSTORE PUSH1 0x84 SWAP1 REVERT JUMPDEST CALLVALUE PUSH2 0x18C JUMPI PUSH1 0xA0 CALLDATASIZE PUSH1 0x3 NOT ADD SLT PUSH2 0x18C JUMPI PUSH2 0x26E PUSH2 0x2542 JUMP JUMPDEST PUSH2 0x276 PUSH2 0x2558 JUMP JUMPDEST SWAP1 PUSH1 0x84 CALLDATALOAD SWAP2 PUSH1 0x1 PUSH1 0x1 PUSH1 0x40 SHL SUB DUP4 GT PUSH2 0x18C JUMPI PUSH2 0x29A PUSH2 0x2C6 SWAP4 CALLDATASIZE SWAP1 PUSH1 0x4 ADD PUSH2 0x272F JUMP JUMPDEST SWAP2 PUSH1 0x1 PUSH1 0x1 PUSH1 0xA0 SHL SUB DUP2 AND CALLER DUP2 EQ DUP1 ISZERO PUSH2 0x2C8 JUMPI JUMPDEST PUSH2 0x2B9 SWAP2 POP PUSH2 0x29BB JUMP JUMPDEST PUSH1 0x64 CALLDATALOAD SWAP2 PUSH1 0x44 CALLDATALOAD SWAP2 PUSH2 0x2AE4 JUMP JUMPDEST STOP JUMPDEST POP PUSH1 0x0 MSTORE PUSH1 0x1 PUSH1 0x20 MSTORE PUSH1 0x40 PUSH1 0x0 KECCAK256 CALLER PUSH1 0x0 MSTORE PUSH1 0x20 MSTORE PUSH2 0x2B9 PUSH1 0xFF PUSH1 0x40 PUSH1 0x0 KECCAK256 SLOAD AND PUSH2 0x2AF JUMP JUMPDEST PUSH1 0x3 NOT PUSH1 0x40 CALLDATASIZE DUP3 ADD SLT PUSH2 0x18C JUMPI PUSH1 0x1 PUSH1 0x1 PUSH1 0x40 SHL SUB SWAP1 PUSH1 0x4 CALLDATALOAD DUP3 DUP2 GT PUSH2 0x18C JUMPI PUSH2 0x31C SWAP1 CALLDATASIZE SWAP1 PUSH1 0x4 ADD PUSH2 0x288B JUMP JUMPDEST SWAP1 SWAP3 PUSH1 0x24 CALLDATALOAD SWAP1 DUP2 GT PUSH2 0x18C JUMPI PUSH2 0x336 SWAP1 CALLDATASIZE SWAP1 PUSH1 0x4 ADD PUSH2 0x288B JUMP JUMPDEST SWAP2 SWAP1 PUSH2 0x340 PUSH2 0x3200 JUMP JUMPDEST PUSH2 0x348 PUSH2 0x314B JUMP JUMPDEST DUP3 DUP3 SUB PUSH2 0x7A6 JUMPI PUSH1 0x14 DUP3 GT PUSH2 0x794 JUMPI PUSH1 0x0 SWAP1 PUSH1 0x0 JUMPDEST DUP4 DUP2 LT PUSH2 0x656 JUMPI POP DUP2 CALLVALUE LT PUSH2 0x644 JUMPI PUSH2 0x377 CALLDATASIZE DUP5 DUP9 PUSH2 0x2671 JUMP JUMPDEST SWAP6 PUSH2 0x383 CALLDATASIZE DUP7 DUP5 PUSH2 0x2671 JUMP JUMPDEST SWAP5 PUSH1 0x40 MLOAD PUSH2 0x390 DUP2 PUSH2 0x261E JUMP JUMPDEST PUSH1 0x0 DUP2 MSTORE PUSH2 0x39F CALLER ISZERO ISZERO PUSH2 0x3256 JUMP JUMPDEST PUSH2 0x3AC DUP10 MLOAD DUP9 MLOAD EQ PUSH2 0x2E3F JUMP JUMPDEST PUSH1 0x0 JUMPDEST DUP10 MLOAD DUP2 LT ISZERO PUSH2 0x402 JUMPI DUP1 PUSH2 0x3C6 PUSH2 0x3FD SWAP3 DUP11 PUSH2 0x29A7 JUMP JUMPDEST MLOAD PUSH2 0x3D1 DUP3 DUP14 PUSH2 0x29A7 JUMP JUMPDEST MLOAD PUSH1 0x0 MSTORE PUSH1 0x20 PUSH1 0x0 DUP2 MSTORE PUSH1 0x40 PUSH1 0x0 KECCAK256 SWAP1 CALLER PUSH1 0x0 MSTORE MSTORE PUSH2 0x3F6 PUSH1 0x40 PUSH1 0x0 KECCAK256 SWAP2 DUP3 SLOAD PUSH2 0x2AD7 JUMP JUMPDEST SWAP1 SSTORE PUSH2 0x2998 JUMP JUMPDEST PUSH2 0x3AF JUMP JUMPDEST POP DUP9 SWAP1 DUP8 DUP10 PUSH1 0x40 MLOAD PUSH1 0x0 CALLER SWAP2 PUSH32 0x4A39DC06D4C0DBC64B70AF90FD698A233A518AA5D07E595D983B8C0526C8F7FB CALLER SWAP2 DUP1 PUSH2 0x43D DUP9 DUP12 DUP4 PUSH2 0x2E9C JUMP JUMPDEST SUB SWAP1 LOG4 CALLER EXTCODESIZE PUSH2 0x4E1 JUMPI JUMPDEST POP POP POP POP SWAP1 PUSH2 0x4A5 SWAP5 PUSH2 0x49C PUSH32 0x6583473987E443781108C9A74166CFB5D143516BBB4A3804805A2E0B34911563 SWAP4 PUSH2 0x48C PUSH1 0x40 MLOAD SWAP5 DUP6 SWAP5 PUSH1 0x40 DUP7 MSTORE PUSH1 0x40 DUP7 ADD SWAP2 PUSH2 0x31DC JUMP JUMPDEST SWAP1 DUP4 DUP3 SUB PUSH1 0x20 DUP6 ADD MSTORE CALLER SWAP7 PUSH2 0x31DC JUMP JUMPDEST SUB SWAP1 LOG2 CALLVALUE PUSH2 0x318F JUMP JUMPDEST DUP1 PUSH2 0x4B2 JUMPI JUMPDEST PUSH1 0x1 PUSH1 0x6 SSTORE STOP JUMPDEST PUSH1 0x0 DUP1 DUP1 DUP1 SWAP4 CALLER GAS CALL PUSH2 0x4C3 PUSH2 0x31AC JUMP JUMPDEST POP ISZERO PUSH2 0x4CF JUMPI DUP1 PUSH2 0x4AB JUMP JUMPDEST PUSH1 0x40 MLOAD PUSH4 0x12171D83 PUSH1 0xE3 SHL DUP2 MSTORE PUSH1 0x4 SWAP1 REVERT JUMPDEST PUSH1 0x20 SWAP2 PUSH2 0x542 PUSH2 0x533 SWAP3 PUSH1 0x40 SWAP9 SWAP8 SWAP9 MLOAD SWAP6 DUP7 SWAP5 DUP6 SWAP5 PUSH2 0x523 PUSH4 0xBC197C81 PUSH1 0xE0 SHL SWAP11 DUP12 DUP9 MSTORE CALLER PUSH1 0x4 DUP10 ADD MSTORE PUSH1 0x0 PUSH1 0x24 DUP10 ADD MSTORE PUSH1 0xA0 PUSH1 0x44 DUP10 ADD MSTORE PUSH1 0xA4 DUP9 ADD SWAP1 PUSH2 0x2777 JUMP JUMPDEST SWAP1 DUP5 DUP8 DUP4 SUB ADD PUSH1 0x64 DUP9 ADD MSTORE PUSH2 0x2777 JUMP JUMPDEST SWAP2 DUP5 DUP4 SUB ADD PUSH1 0x84 DUP6 ADD MSTORE PUSH2 0x2591 JUMP JUMPDEST SUB DUP2 PUSH1 0x0 CALLER GAS CALL PUSH1 0x0 SWAP2 DUP2 PUSH2 0x614 JUMPI JUMPDEST POP PUSH2 0x5BE JUMPI PUSH2 0x55F PUSH2 0x2F2A JUMP JUMPDEST PUSH4 0x8C379A0 EQ PUSH2 0x587 JUMPI JUMPDEST PUSH1 0x40 MLOAD PUSH3 0x461BCD PUSH1 0xE5 SHL DUP2 MSTORE DUP1 PUSH2 0x583 PUSH1 0x4 DUP3 ADD PUSH2 0x2FB6 JUMP JUMPDEST SUB SWAP1 REVERT JUMPDEST PUSH2 0x58F PUSH2 0x2F48 JUMP JUMPDEST DUP1 PUSH2 0x59A JUMPI POP PUSH2 0x56A JUMP JUMPDEST PUSH1 0x40 MLOAD PUSH3 0x461BCD PUSH1 0xE5 SHL DUP2 MSTORE PUSH1 0x20 PUSH1 0x4 DUP3 ADD MSTORE SWAP1 DUP2 SWAP1 PUSH2 0x583 SWAP1 PUSH1 0x24 DUP4 ADD SWAP1 PUSH2 0x2591 JUMP JUMPDEST PUSH1 0x1 PUSH1 0x1 PUSH1 0xE0 SHL SUB NOT AND SUB PUSH2 0x5FB JUMPI SWAP1 DUP5 PUSH2 0x49C PUSH32 0x6583473987E443781108C9A74166CFB5D143516BBB4A3804805A2E0B34911563 PUSH2 0x4A5 PUSH2 0x447 JUMP JUMPDEST PUSH1 0x40 MLOAD PUSH3 0x461BCD PUSH1 0xE5 SHL DUP2 MSTORE DUP1 PUSH2 0x583 PUSH1 0x4 DUP3 ADD PUSH2 0x2EE1 JUMP JUMPDEST PUSH2 0x636 SWAP2 SWAP3 POP PUSH1 0x20 RETURNDATASIZE DUP2 GT PUSH2 0x63D JUMPI JUMPDEST PUSH2 0x62E DUP2 DUP4 PUSH2 0x2639 JUMP JUMPDEST DUP2 ADD SWAP1 PUSH2 0x2EC1 JUMP JUMPDEST SWAP1 DUP9 PUSH2 0x552 JUMP JUMPDEST POP RETURNDATASIZE PUSH2 0x624 JUMP JUMPDEST PUSH1 0x40 MLOAD PUSH4 0xCD1C8867 PUSH1 0xE0 SHL DUP2 MSTORE PUSH1 0x4 SWAP1 REVERT JUMPDEST PUSH2 0x661 DUP2 DUP6 DUP10 PUSH2 0x319C JUMP JUMPDEST CALLDATALOAD PUSH1 0x0 MSTORE PUSH1 0x9 PUSH1 0x20 MSTORE PUSH1 0x40 PUSH1 0x0 KECCAK256 SWAP3 PUSH1 0xFF PUSH1 0x6 DUP6 ADD SLOAD AND ISZERO PUSH2 0x782 JUMPI PUSH2 0x688 DUP3 DUP8 DUP6 PUSH2 0x319C JUMP JUMPDEST CALLDATALOAD ISZERO PUSH2 0x770 JUMPI PUSH1 0x5 SWAP1 DUP2 DUP6 ADD SWAP1 DUP2 SLOAD PUSH2 0x6A2 DUP6 DUP11 DUP9 PUSH2 0x319C JUMP JUMPDEST CALLDATALOAD DUP2 ADD PUSH1 0x4 DUP9 ADD SLOAD LT PUSH2 0x75E JUMPI PUSH2 0x6DE DUP9 SWAP3 PUSH2 0x6D8 DUP8 DUP13 DUP16 SWAP12 DUP3 PUSH1 0x3 PUSH2 0x6CB SWAP3 ADD SLOAD SWAP3 DUP14 PUSH2 0x319C JUMP JUMPDEST CALLDATALOAD MUL SWAP6 DUP7 DUP1 SWAP5 ADD SWAP12 PUSH2 0x319C JUMP JUMPDEST CALLDATALOAD PUSH2 0x308E JUMP JUMPDEST SWAP4 DUP5 SWAP3 PUSH2 0x6EC DUP9 DUP14 DUP12 PUSH2 0x319C JUMP JUMPDEST CALLDATALOAD ADD SWAP1 SSTORE DUP2 PUSH2 0x735 JUMPI JUMPDEST POP DUP2 SUB PUSH2 0x709 JUMPI JUMPDEST POP POP POP PUSH1 0x1 ADD PUSH2 0x35D JUMP JUMPDEST PUSH1 0x0 DUP1 SWAP4 DUP2 SWAP4 DUP3 SWAP4 SUB SWAP1 PUSH1 0x1 DUP1 PUSH1 0xA0 SHL SUB SWAP1 SLOAD AND GAS CALL PUSH2 0x727 PUSH2 0x31AC JUMP JUMPDEST POP ISZERO PUSH2 0x4CF JUMPI DUP8 DUP1 DUP1 PUSH2 0x6FE JUMP JUMPDEST PUSH1 0x0 SWAP2 DUP3 SWAP2 DUP3 SWAP2 DUP3 SWAP2 PUSH1 0x1 PUSH1 0x1 PUSH1 0xA0 SHL SUB AND GAS CALL PUSH2 0x751 PUSH2 0x31AC JUMP JUMPDEST POP ISZERO PUSH2 0x4CF JUMPI DUP2 DUP12 PUSH2 0x6F6 JUMP JUMPDEST PUSH1 0x40 MLOAD PUSH4 0x8A164F63 PUSH1 0xE0 SHL DUP2 MSTORE PUSH1 0x4 SWAP1 REVERT JUMPDEST PUSH1 0x40 MLOAD PUSH4 0xB4FA3FB3 PUSH1 0xE0 SHL DUP2 MSTORE PUSH1 0x4 SWAP1 REVERT JUMPDEST PUSH1 0x40 MLOAD PUSH4 0xAD9D099B PUSH1 0xE0 SHL DUP2 MSTORE PUSH1 0x4 SWAP1 REVERT JUMPDEST PUSH1 0x40 MLOAD PUSH4 0x1E807595 PUSH1 0xE2 SHL DUP2 MSTORE PUSH1 0x4 SWAP1 REVERT JUMPDEST PUSH1 0x40 MLOAD PUSH4 0x512509D3 PUSH1 0xE1 SHL DUP2 MSTORE PUSH1 0x4 SWAP1 REVERT JUMPDEST CALLVALUE PUSH2 0x18C JUMPI PUSH1 0x40 CALLDATASIZE PUSH1 0x3 NOT ADD SLT PUSH2 0x18C JUMPI PUSH2 0x7D1 PUSH2 0x2542 JUMP JUMPDEST PUSH2 0x7D9 PUSH2 0x2558 JUMP JUMPDEST SWAP1 PUSH1 0x1 DUP1 PUSH1 0xA0 SHL SUB DUP1 SWAP2 AND PUSH1 0x0 MSTORE PUSH1 0x1 PUSH1 0x20 MSTORE PUSH1 0x40 PUSH1 0x0 KECCAK256 SWAP2 AND PUSH1 0x0 MSTORE PUSH1 0x20 MSTORE PUSH1 0x20 PUSH1 0xFF PUSH1 0x40 PUSH1 0x0 KECCAK256 SLOAD AND PUSH1 0x40 MLOAD SWAP1 ISZERO ISZERO DUP2 MSTORE RETURN JUMPDEST CALLVALUE PUSH2 0x18C JUMPI PUSH1 0x0 CALLDATASIZE PUSH1 0x3 NOT ADD SLT PUSH2 0x18C JUMPI PUSH1 0x20 PUSH1 0x40 MLOAD PUSH2 0x2710 DUP2 MSTORE RETURN JUMPDEST CALLVALUE PUSH2 0x18C JUMPI PUSH1 0x0 CALLDATASIZE PUSH1 0x3 NOT ADD SLT PUSH2 0x18C JUMPI PUSH1 0x20 PUSH1 0x40 MLOAD PUSH1 0x14 DUP2 MSTORE RETURN JUMPDEST PUSH2 0x850 CALLDATASIZE PUSH2 0x25B6 JUMP JUMPDEST SWAP1 PUSH2 0x859 PUSH2 0x3200 JUMP JUMPDEST PUSH2 0x861 PUSH2 0x314B JUMP JUMPDEST DUP1 PUSH1 0x0 MSTORE PUSH1 0x20 SWAP2 PUSH1 0x9 DUP4 MSTORE PUSH1 0x40 PUSH1 0x0 KECCAK256 PUSH1 0xFF PUSH1 0x6 DUP3 ADD SLOAD AND ISZERO PUSH2 0x782 JUMPI DUP2 ISZERO PUSH2 0x770 JUMPI PUSH1 0x5 DUP2 ADD DUP1 SLOAD SWAP2 PUSH2 0x895 DUP5 DUP5 PUSH2 0x2AD7 JUMP JUMPDEST PUSH1 0x4 DUP3 ADD SLOAD LT PUSH2 0x75E JUMPI DUP4 PUSH1 0x3 PUSH2 0x8AD SWAP3 ADD SLOAD PUSH2 0x307B JUMP JUMPDEST SWAP2 DUP3 CALLVALUE LT PUSH2 0x644 JUMPI DUP4 PUSH2 0x8BF SWAP2 PUSH2 0x2AD7 JUMP JUMPDEST SWAP1 SSTORE PUSH2 0x8CB DUP2 DUP5 PUSH2 0x308E JUMP JUMPDEST PUSH2 0x8D5 DUP2 DUP5 PUSH2 0x318F JUMP JUMPDEST SWAP2 DUP2 PUSH2 0xAC7 JUMPI JUMPDEST POP POP DUP1 PUSH2 0xA9C JUMPI JUMPDEST POP DUP1 CALLVALUE GT PUSH2 0xA76 JUMPI JUMPDEST POP PUSH1 0x40 MLOAD SWAP1 PUSH2 0x8FB DUP3 PUSH2 0x261E JUMP JUMPDEST PUSH1 0x0 DUP3 MSTORE PUSH2 0x90A CALLER ISZERO ISZERO PUSH2 0x3256 JUMP JUMPDEST PUSH2 0x913 DUP4 PUSH2 0x300B JUMP JUMPDEST POP PUSH2 0x91D DUP2 PUSH2 0x300B JUMP JUMPDEST POP DUP3 PUSH1 0x0 MSTORE PUSH1 0x0 DUP5 MSTORE PUSH1 0x40 PUSH1 0x0 KECCAK256 CALLER PUSH1 0x0 MSTORE DUP5 MSTORE PUSH1 0x40 PUSH1 0x0 KECCAK256 PUSH2 0x941 DUP3 DUP3 SLOAD PUSH2 0x2AD7 JUMP JUMPDEST SWAP1 SSTORE PUSH1 0x40 MLOAD DUP4 DUP2 MSTORE DUP2 DUP6 DUP3 ADD MSTORE PUSH1 0x0 CALLER SWAP2 PUSH32 0xC3D58168C5AE7397731D063D5BBF3D657854427343F4C083240F7AACAA2D0F62 PUSH1 0x40 CALLER SWAP3 LOG4 CALLER EXTCODESIZE PUSH2 0x985 JUMPI PUSH1 0x1 PUSH1 0x6 SSTORE STOP JUMPDEST PUSH2 0x9C7 SWAP2 DUP5 SWAP2 PUSH1 0x40 MLOAD SWAP4 DUP5 SWAP3 DUP4 SWAP3 PUSH4 0xF23A6E61 PUSH1 0xE0 SHL SWAP8 DUP9 DUP6 MSTORE CALLER PUSH1 0x4 DUP7 ADD MSTORE PUSH1 0x0 PUSH1 0x24 DUP7 ADD MSTORE PUSH1 0x44 DUP6 ADD MSTORE PUSH1 0x64 DUP5 ADD MSTORE PUSH1 0xA0 PUSH1 0x84 DUP5 ADD MSTORE PUSH1 0xA4 DUP4 ADD SWAP1 PUSH2 0x2591 JUMP JUMPDEST SUB DUP2 PUSH1 0x0 CALLER GAS CALL PUSH1 0x0 SWAP2 DUP2 PUSH2 0xA57 JUMPI JUMPDEST POP PUSH2 0xA3D JUMPI DUP3 PUSH2 0x9E5 PUSH2 0x2F2A JUMP JUMPDEST PUSH4 0x8C379A0 EQ PUSH2 0xA08 JUMPI PUSH1 0x40 MLOAD PUSH3 0x461BCD PUSH1 0xE5 SHL DUP2 MSTORE DUP1 PUSH2 0x583 PUSH1 0x4 DUP3 ADD PUSH2 0x2FB6 JUMP JUMPDEST PUSH2 0xA10 PUSH2 0x2F48 JUMP JUMPDEST SWAP1 DUP2 PUSH2 0xA1C JUMPI POP PUSH2 0x56A JUMP JUMPDEST PUSH2 0x583 PUSH1 0x40 MLOAD SWAP3 DUP4 SWAP3 PUSH3 0x461BCD PUSH1 0xE5 SHL DUP5 MSTORE PUSH1 0x4 DUP5 ADD MSTORE PUSH1 0x24 DUP4 ADD SWAP1 PUSH2 0x2591 JUMP JUMPDEST PUSH1 0x1 PUSH1 0x1 PUSH1 0xE0 SHL SUB NOT AND SUB SWAP1 POP PUSH2 0x5FB JUMPI DUP1 DUP1 DUP1 DUP1 PUSH2 0x4AB JUMP JUMPDEST PUSH2 0xA6F SWAP2 SWAP3 POP DUP5 RETURNDATASIZE DUP7 GT PUSH2 0x63D JUMPI PUSH2 0x62E DUP2 DUP4 PUSH2 0x2639 JUMP JUMPDEST SWAP1 DUP5 PUSH2 0x9D7 JUMP JUMPDEST PUSH1 0x0 DUP1 DUP1 PUSH2 0xA85 DUP2 SWAP5 CALLVALUE PUSH2 0x318F JUMP JUMPDEST CALLER GAS CALL PUSH2 0xA90 PUSH2 0x31AC JUMP JUMPDEST POP ISZERO PUSH2 0x4CF JUMPI DUP4 PUSH2 0x8ED JUMP JUMPDEST PUSH1 0x5 SLOAD PUSH1 0x0 SWAP2 DUP3 SWAP2 DUP3 SWAP2 DUP3 SWAP2 PUSH1 0x1 PUSH1 0x1 PUSH1 0xA0 SHL SUB AND GAS CALL PUSH2 0xABB PUSH2 0x31AC JUMP JUMPDEST POP ISZERO PUSH2 0x4CF JUMPI DUP5 PUSH2 0x8E4 JUMP JUMPDEST PUSH1 0x0 SWAP2 DUP3 SWAP2 DUP3 SWAP2 DUP3 SWAP2 PUSH1 0x1 PUSH1 0x1 PUSH1 0xA0 SHL SUB AND GAS CALL PUSH2 0xAE3 PUSH2 0x31AC JUMP JUMPDEST POP ISZERO PUSH2 0x4CF JUMPI DUP6 DUP1 PUSH2 0x8DC JUMP JUMPDEST PUSH1 0x60 CALLDATASIZE PUSH1 0x3 NOT ADD SLT PUSH2 0x18C JUMPI PUSH1 0x4 CALLDATALOAD PUSH2 0xB07 PUSH2 0x2558 JUMP JUMPDEST PUSH1 0x44 CALLDATALOAD PUSH2 0xB12 PUSH2 0x3200 JUMP JUMPDEST PUSH2 0xB1A PUSH2 0x314B JUMP JUMPDEST PUSH1 0x1 PUSH1 0x1 PUSH1 0xA0 SHL SUB SWAP3 DUP3 DUP5 AND SWAP2 DUP3 ISZERO PUSH2 0xCE8 JUMPI CALLER ISZERO PUSH2 0xCE8 JUMPI CALLER DUP4 EQ PUSH2 0xCD6 JUMPI DUP2 PUSH1 0x0 MSTORE PUSH1 0x20 SWAP4 PUSH1 0xA DUP6 MSTORE PUSH1 0x40 PUSH1 0x0 KECCAK256 DUP5 PUSH1 0x0 MSTORE DUP6 MSTORE PUSH1 0x40 PUSH1 0x0 KECCAK256 DUP5 DUP8 DUP3 SLOAD AND SUB PUSH2 0xCD6 JUMPI PUSH1 0x2 DUP2 ADD SWAP1 DUP4 DUP3 SLOAD LT PUSH2 0xCC4 JUMPI PUSH1 0x1 ADD SWAP2 DUP3 SLOAD PUSH2 0xB7C DUP6 DUP3 PUSH2 0x307B JUMP JUMPDEST CALLVALUE LT PUSH2 0x644 JUMPI DUP6 PUSH1 0x0 MSTORE PUSH1 0x9 DUP9 MSTORE PUSH1 0xFF PUSH1 0x6 PUSH1 0x40 PUSH1 0x0 KECCAK256 ADD SLOAD AND ISZERO PUSH2 0x782 JUMPI DUP5 PUSH2 0xBA6 DUP8 DUP5 PUSH2 0x2913 JUMP JUMPDEST LT PUSH2 0xCC4 JUMPI DUP5 PUSH2 0xBB5 SWAP2 PUSH2 0x307B JUMP JUMPDEST SWAP8 PUSH2 0xBC0 DUP10 DUP8 PUSH2 0x308E JUMP JUMPDEST SWAP1 SWAP2 PUSH2 0xBCC DUP3 DUP13 PUSH2 0x318F JUMP JUMPDEST SWAP3 DUP3 PUSH2 0xCA3 JUMPI JUMPDEST POP POP POP PUSH1 0x0 DUP1 DUP1 DUP1 SWAP4 DUP11 GAS CALL PUSH2 0xBE7 PUSH2 0x31AC JUMP JUMPDEST POP ISZERO PUSH2 0x4CF JUMPI PUSH2 0xC0B SWAP1 DUP5 DUP7 PUSH1 0x40 MLOAD SWAP3 PUSH2 0xC00 DUP5 PUSH2 0x261E JUMP JUMPDEST PUSH1 0x0 DUP5 MSTORE CALLER SWAP1 PUSH2 0x2AE4 JUMP JUMPDEST PUSH2 0xC16 DUP4 DUP3 SLOAD PUSH2 0x318F JUMP JUMPDEST DUP1 SWAP2 SSTORE ISZERO PUSH2 0xC78 JUMPI JUMPDEST SLOAD SWAP4 PUSH1 0x40 MLOAD SWAP5 DUP6 MSTORE DUP5 ADD MSTORE PUSH32 0x5FAFAD85DEC201C2E73B6A2BEF6351129304A624EA8720ECD04CD7F04D83BC39 PUSH1 0x40 CALLER SWAP5 LOG4 DUP1 CALLVALUE GT PUSH2 0xC5E JUMPI PUSH1 0x1 PUSH1 0x6 SSTORE STOP JUMPDEST PUSH1 0x0 DUP1 DUP1 PUSH2 0xC6D DUP2 SWAP5 CALLVALUE PUSH2 0x318F JUMP JUMPDEST CALLER GAS CALL PUSH2 0x4C3 PUSH2 0x31AC JUMP JUMPDEST DUP3 PUSH1 0x0 MSTORE PUSH1 0xA DUP6 MSTORE PUSH1 0x40 PUSH1 0x0 KECCAK256 DUP5 PUSH1 0x0 MSTORE DUP6 MSTORE PUSH1 0x0 PUSH1 0x2 PUSH1 0x40 DUP3 KECCAK256 DUP3 DUP2 SSTORE DUP3 PUSH1 0x1 DUP3 ADD SSTORE ADD SSTORE PUSH2 0xC1F JUMP JUMPDEST PUSH1 0x0 DUP1 SWAP4 DUP2 SWAP4 DUP3 SWAP4 AND GAS CALL PUSH2 0xCB6 PUSH2 0x31AC JUMP JUMPDEST POP ISZERO PUSH2 0x4CF JUMPI DUP10 DUP1 DUP1 PUSH2 0xBD3 JUMP JUMPDEST PUSH1 0x40 MLOAD PUSH4 0x1E9ACF17 PUSH1 0xE3 SHL DUP2 MSTORE PUSH1 0x4 SWAP1 REVERT JUMPDEST PUSH1 0x40 MLOAD PUSH4 0xEA8E4EB5 PUSH1 0xE0 SHL DUP2 MSTORE PUSH1 0x4 SWAP1 REVERT JUMPDEST PUSH1 0x40 MLOAD PUSH4 0xE6C4247B PUSH1 0xE0 SHL DUP2 MSTORE PUSH1 0x4 SWAP1 REVERT JUMPDEST CALLVALUE PUSH2 0x18C JUMPI PUSH1 0x60 CALLDATASIZE PUSH1 0x3 NOT ADD SLT PUSH2 0x18C JUMPI PUSH1 0x44 CALLDATALOAD PUSH1 0x4 CALLDATALOAD PUSH1 0x24 CALLDATALOAD PUSH2 0xD1C PUSH2 0x3200 JUMP JUMPDEST PUSH2 0xD24 PUSH2 0x314B JUMP JUMPDEST DUP1 PUSH2 0xD2F DUP4 CALLER PUSH2 0x2913 JUMP JUMPDEST LT PUSH2 0xCC4 JUMPI DUP1 ISZERO PUSH2 0x770 JUMPI DUP3 ISZERO PUSH2 0xDF2 JUMPI DUP2 PUSH1 0x0 MSTORE PUSH1 0x9 PUSH1 0x20 MSTORE PUSH1 0xFF PUSH1 0x6 PUSH1 0x40 PUSH1 0x0 KECCAK256 ADD SLOAD AND ISZERO PUSH2 0x782 JUMPI PUSH1 0x40 MLOAD PUSH2 0xD66 DUP2 PUSH2 0x25E7 JUMP JUMPDEST CALLER DUP2 MSTORE PUSH1 0x2 PUSH1 0x20 DUP3 ADD DUP6 DUP2 MSTORE PUSH1 0x40 DUP4 ADD SWAP1 DUP5 DUP3 MSTORE DUP6 PUSH1 0x0 MSTORE PUSH1 0xA PUSH1 0x20 MSTORE PUSH1 0x40 PUSH1 0x0 KECCAK256 CALLER PUSH1 0x0 MSTORE PUSH1 0x20 MSTORE PUSH1 0x40 PUSH1 0x0 KECCAK256 SWAP4 PUSH1 0x1 DUP1 PUSH1 0xA0 SHL SUB SWAP1 MLOAD AND PUSH1 0x1 PUSH1 0x1 PUSH1 0x60 SHL SUB PUSH1 0xA0 SHL DUP6 SLOAD AND OR DUP5 SSTORE MLOAD PUSH1 0x1 DUP5 ADD SSTORE MLOAD SWAP2 ADD SSTORE PUSH1 0x40 MLOAD SWAP3 DUP4 MSTORE PUSH1 0x20 DUP4 ADD MSTORE PUSH32 0x36E94395FAFCB0D2A9BCFCDD5CEF807AB52A1F4382906992EBDC18DE5F1472C4 PUSH1 0x40 CALLER SWAP4 LOG3 PUSH1 0x1 PUSH1 0x6 SSTORE STOP JUMPDEST PUSH1 0x40 MLOAD PUSH3 0xBFC921 PUSH1 0xE0 SHL DUP2 MSTORE PUSH1 0x4 SWAP1 REVERT JUMPDEST CALLVALUE PUSH2 0x18C JUMPI PUSH1 0x40 CALLDATASIZE PUSH1 0x3 NOT ADD SLT PUSH2 0x18C JUMPI PUSH2 0xE1C PUSH2 0x2542 JUMP JUMPDEST PUSH1 0x24 CALLDATALOAD SWAP1 DUP2 ISZERO ISZERO SWAP1 DUP2 DUP4 SUB PUSH2 0x18C JUMPI PUSH1 0x1 PUSH1 0x1 PUSH1 0xA0 SHL SUB AND SWAP2 CALLER DUP4 EQ PUSH2 0xE99 JUMPI PUSH2 0xE6B SWAP1 CALLER PUSH1 0x0 MSTORE PUSH1 0x1 PUSH1 0x20 MSTORE PUSH1 0x40 PUSH1 0x0 KECCAK256 DUP5 PUSH1 0x0 MSTORE PUSH1 0x20 MSTORE PUSH1 0x40 PUSH1 0x0 KECCAK256 SWAP1 PUSH1 0xFF DUP1 NOT DUP4 SLOAD AND SWAP2 ISZERO ISZERO AND OR SWAP1 SSTORE JUMP JUMPDEST PUSH1 0x40 MLOAD SWAP1 DUP2 MSTORE PUSH32 0x17307EAB39AB6107E8899845AD3D59BD9653F200F220920489CA2B5937696C31 PUSH1 0x20 CALLER SWAP3 LOG3 STOP JUMPDEST PUSH1 0x40 MLOAD PUSH3 0x461BCD PUSH1 0xE5 SHL DUP2 MSTORE PUSH1 0x20 PUSH1 0x4 DUP3 ADD MSTORE PUSH1 0x29 PUSH1 0x24 DUP3 ADD MSTORE PUSH32 0x455243313135353A2073657474696E6720617070726F76616C20737461747573 PUSH1 0x44 DUP3 ADD MSTORE PUSH9 0x103337B91039B2B633 PUSH1 0xB9 SHL PUSH1 0x64 DUP3 ADD MSTORE PUSH1 0x84 SWAP1 REVERT JUMPDEST CALLVALUE PUSH2 0x18C JUMPI PUSH1 0x20 CALLDATASIZE PUSH1 0x3 NOT ADD SLT PUSH2 0x18C JUMPI PUSH1 0x4 CALLDATALOAD PUSH2 0xF0C PUSH2 0x314B JUMP JUMPDEST PUSH1 0x0 DUP2 DUP2 MSTORE PUSH1 0x9 PUSH1 0x20 MSTORE PUSH1 0x40 SWAP1 KECCAK256 DUP1 SLOAD CALLER PUSH1 0x1 PUSH1 0x1 PUSH1 0xA0 SHL SUB SWAP2 DUP3 AND EQ ISZERO SWAP1 DUP2 PUSH2 0xF86 JUMPI JUMPDEST POP PUSH2 0xCD6 JUMPI PUSH1 0x20 PUSH1 0xFF PUSH1 0x6 PUSH32 0xB98F2E7A31992FD0038957C8B37AFBFDE15601543D7E49508FF1093C402E6B89 SWAP4 ADD PUSH2 0xF79 DUP3 DUP3 SLOAD AND ISZERO DUP3 SWAP1 PUSH1 0xFF DUP1 NOT DUP4 SLOAD AND SWAP2 ISZERO ISZERO AND OR SWAP1 SSTORE JUMP JUMPDEST SLOAD AND PUSH1 0x40 MLOAD SWAP1 ISZERO ISZERO DUP2 MSTORE LOG2 STOP JUMPDEST SWAP1 POP PUSH1 0x5 SLOAD AND CALLER EQ ISZERO DUP4 PUSH2 0xF31 JUMP JUMPDEST CALLVALUE PUSH2 0x18C JUMPI PUSH1 0x40 CALLDATASIZE PUSH1 0x3 NOT ADD SLT PUSH2 0x18C JUMPI PUSH1 0x60 PUSH2 0xFB0 PUSH2 0x2558 JUMP JUMPDEST PUSH1 0x0 PUSH1 0x40 DUP1 MLOAD PUSH2 0xFBF DUP2 PUSH2 0x25E7 JUMP JUMPDEST DUP3 DUP2 MSTORE DUP3 PUSH1 0x20 DUP3 ADD MSTORE ADD MSTORE PUSH1 0x4 CALLDATALOAD PUSH1 0x0 MSTORE PUSH1 0xA PUSH1 0x20 MSTORE PUSH1 0x40 PUSH1 0x0 KECCAK256 PUSH1 0x1 DUP1 PUSH1 0xA0 SHL SUB DUP1 SWAP3 AND PUSH1 0x0 MSTORE PUSH1 0x20 MSTORE PUSH1 0x40 PUSH1 0x0 KECCAK256 SWAP1 PUSH1 0x40 MLOAD SWAP1 PUSH2 0xFFD DUP3 PUSH2 0x25E7 JUMP JUMPDEST DUP3 SLOAD AND SWAP2 DUP3 DUP3 MSTORE PUSH1 0x40 PUSH1 0x2 PUSH1 0x1 DUP4 ADD SLOAD SWAP3 PUSH1 0x20 DUP6 ADD SWAP4 DUP5 MSTORE ADD SLOAD SWAP3 ADD SWAP2 DUP3 MSTORE PUSH1 0x40 MLOAD SWAP3 DUP4 MSTORE MLOAD PUSH1 0x20 DUP4 ADD MSTORE MLOAD PUSH1 0x40 DUP3 ADD MSTORE RETURN JUMPDEST CALLVALUE PUSH2 0x18C JUMPI PUSH1 0x40 CALLDATASIZE PUSH1 0x3 NOT ADD SLT PUSH2 0x18C JUMPI PUSH1 0x60 PUSH2 0x104B PUSH2 0x2558 JUMP JUMPDEST PUSH1 0x4 CALLDATALOAD PUSH1 0x0 MSTORE PUSH1 0xA PUSH1 0x20 MSTORE PUSH1 0x40 PUSH1 0x0 KECCAK256 PUSH1 0x1 DUP1 PUSH1 0xA0 SHL SUB DUP1 SWAP3 AND PUSH1 0x0 MSTORE PUSH1 0x20 MSTORE PUSH1 0x40 PUSH1 0x0 KECCAK256 SWAP1 DUP2 SLOAD AND SWAP1 PUSH1 0x2 PUSH1 0x1 DUP3 ADD SLOAD SWAP2 ADD SLOAD SWAP1 PUSH1 0x40 MLOAD SWAP3 DUP4 MSTORE PUSH1 0x20 DUP4 ADD MSTORE PUSH1 0x40 DUP3 ADD MSTORE RETURN JUMPDEST CALLVALUE PUSH2 0x18C JUMPI PUSH1 0x0 CALLDATASIZE PUSH1 0x3 NOT ADD SLT PUSH2 0x18C JUMPI PUSH1 0x5 SLOAD PUSH1 0x40 MLOAD PUSH1 0x1 PUSH1 0x1 PUSH1 0xA0 SHL SUB SWAP1 SWAP2 AND DUP2 MSTORE PUSH1 0x20 SWAP1 RETURN JUMPDEST CALLVALUE PUSH2 0x18C JUMPI PUSH1 0x0 CALLDATASIZE PUSH1 0x3 NOT ADD SLT PUSH2 0x18C JUMPI PUSH2 0x10D4 PUSH2 0x28BB JUMP JUMPDEST PUSH2 0x10DC PUSH2 0x314B JUMP JUMPDEST PUSH1 0x1 PUSH1 0xFF NOT PUSH1 0x7 SLOAD AND OR PUSH1 0x7 SSTORE PUSH32 0x62E78CEA01BEE320CD4E420270B5EA74000D11B0C9F74754EBDBFC544B05A258 PUSH1 0x20 PUSH1 0x40 MLOAD CALLER DUP2 MSTORE LOG1 STOP JUMPDEST CALLVALUE PUSH2 0x18C JUMPI PUSH1 0x0 CALLDATASIZE PUSH1 0x3 NOT ADD SLT PUSH2 0x18C JUMPI PUSH2 0x112E PUSH2 0x28BB JUMP JUMPDEST PUSH1 0x5 DUP1 SLOAD PUSH1 0x1 PUSH1 0x1 PUSH1 0xA0 SHL SUB NOT DUP2 AND SWAP1 SWAP2 SSTORE PUSH1 0x0 SWAP1 PUSH1 0x1 PUSH1 0x1 PUSH1 0xA0 SHL SUB AND PUSH32 0x8BE0079C531659141344CD1FD0A4F28419497F9722A3DAAFE3B4186F6B6457E0 DUP3 DUP1 LOG3 STOP JUMPDEST CALLVALUE PUSH2 0x18C JUMPI PUSH1 0x20 CALLDATASIZE PUSH1 0x3 NOT ADD SLT PUSH2 0x18C JUMPI PUSH2 0x118E PUSH1 0x4 CALLDATALOAD PUSH2 0x3567 JUMP JUMPDEST PUSH1 0x40 MLOAD DUP1 SWAP2 PUSH1 0x20 DUP3 MSTORE DUP1 MLOAD PUSH1 0xE0 PUSH2 0x11FE PUSH2 0x11B6 PUSH2 0x100 SWAP4 DUP5 PUSH1 0x20 DUP9 ADD MSTORE PUSH2 0x120 DUP8 ADD SWAP1 PUSH2 0x2591 JUMP JUMPDEST PUSH2 0x11E9 PUSH2 0x11D5 PUSH1 0x20 DUP8 ADD MLOAD SWAP3 PUSH1 0x1F NOT SWAP4 DUP5 DUP11 DUP4 SUB ADD PUSH1 0x40 DUP12 ADD MSTORE PUSH2 0x2591 JUMP JUMPDEST PUSH1 0x40 DUP8 ADD MLOAD DUP4 DUP10 DUP4 SUB ADD PUSH1 0x60 DUP11 ADD MSTORE PUSH2 0x2591 JUMP JUMPDEST SWAP1 PUSH1 0x60 DUP7 ADD MLOAD SWAP1 DUP8 DUP4 SUB ADD PUSH1 0x80 DUP9 ADD MSTORE PUSH2 0x2591 JUMP JUMPDEST SWAP3 PUSH1 0x1 DUP1 PUSH1 0xA0 SHL SUB PUSH1 0x80 DUP3 ADD MLOAD AND PUSH1 0xA0 DUP7 ADD MSTORE PUSH1 0xA0 DUP2 ADD MLOAD PUSH1 0xC0 DUP7 ADD MSTORE PUSH1 0xC0 DUP2 ADD MLOAD DUP3 DUP7 ADD MSTORE ADD MLOAD SWAP1 DUP4 ADD MSTORE SUB SWAP1 RETURN JUMPDEST CALLVALUE PUSH2 0x18C JUMPI PUSH1 0x20 CALLDATASIZE PUSH1 0x3 NOT ADD SLT PUSH2 0x18C JUMPI PUSH1 0x4 CALLDATALOAD PUSH1 0x0 SWAP1 DUP2 MSTORE PUSH1 0x9 PUSH1 0x20 MSTORE PUSH1 0x40 SWAP1 KECCAK256 DUP1 SLOAD PUSH1 0x1 PUSH1 0x1 PUSH1 0xA0 SHL SUB AND PUSH2 0x1267 PUSH1 0x1 DUP4 ADD PUSH2 0x27E5 JUMP JUMPDEST SWAP2 PUSH2 0x1274 PUSH1 0x2 DUP3 ADD PUSH2 0x27E5 JUMP JUMPDEST PUSH1 0x3 DUP3 ADD SLOAD SWAP2 PUSH1 0x4 DUP2 ADD SLOAD PUSH2 0x12BA PUSH1 0xFF PUSH1 0x6 PUSH1 0x5 DUP6 ADD SLOAD SWAP5 ADD SLOAD AND SWAP4 PUSH2 0x12AC PUSH1 0x40 MLOAD SWAP9 DUP10 SWAP9 DUP10 MSTORE PUSH1 0xE0 PUSH1 0x20 DUP11 ADD MSTORE PUSH1 0xE0 DUP10 ADD SWAP1 PUSH2 0x2591 JUMP JUMPDEST SWAP1 DUP8 DUP3 SUB PUSH1 0x40 DUP10 ADD MSTORE PUSH2 0x2591 JUMP JUMPDEST SWAP4 PUSH1 0x60 DUP7 ADD MSTORE PUSH1 0x80 DUP6 ADD MSTORE PUSH1 0xA0 DUP5 ADD MSTORE ISZERO ISZERO PUSH1 0xC0 DUP4 ADD MSTORE SUB SWAP1 RETURN JUMPDEST CALLVALUE PUSH2 0x18C JUMPI PUSH1 0x0 CALLDATASIZE PUSH1 0x3 NOT ADD SLT PUSH2 0x18C JUMPI PUSH1 0x20 PUSH1 0xFF PUSH1 0x7 SLOAD AND PUSH1 0x40 MLOAD SWAP1 ISZERO ISZERO DUP2 MSTORE RETURN JUMPDEST CALLVALUE PUSH2 0x18C JUMPI PUSH1 0x40 CALLDATASIZE PUSH1 0x3 NOT ADD SLT PUSH2 0x18C JUMPI PUSH1 0x4 CALLDATALOAD PUSH1 0x1 PUSH1 0x1 PUSH1 0x40 SHL SUB DUP1 DUP3 GT PUSH2 0x18C JUMPI CALLDATASIZE PUSH1 0x23 DUP4 ADD SLT ISZERO PUSH2 0x18C JUMPI DUP2 PUSH1 0x4 ADD CALLDATALOAD SWAP1 PUSH2 0x1335 DUP3 PUSH2 0x265A JUMP JUMPDEST SWAP3 PUSH2 0x1343 PUSH1 0x40 MLOAD SWAP5 DUP6 PUSH2 0x2639 JUMP JUMPDEST DUP3 DUP5 MSTORE PUSH1 0x20 SWAP3 PUSH1 0x24 DUP5 DUP7 ADD SWAP2 PUSH1 0x5 SHL DUP4 ADD ADD SWAP2 CALLDATASIZE DUP4 GT PUSH2 0x18C JUMPI PUSH1 0x24 ADD SWAP1 JUMPDEST DUP3 DUP3 LT PUSH2 0x147B JUMPI POP POP POP PUSH1 0x24 CALLDATALOAD SWAP1 DUP2 GT PUSH2 0x18C JUMPI PUSH2 0x1384 SWAP1 CALLDATASIZE SWAP1 PUSH1 0x4 ADD PUSH2 0x26BF JUMP JUMPDEST DUP3 MLOAD DUP2 MLOAD SUB PUSH2 0x1424 JUMPI DUP3 MLOAD SWAP3 PUSH2 0x1399 DUP5 PUSH2 0x265A JUMP JUMPDEST SWAP4 PUSH2 0x13A7 PUSH1 0x40 MLOAD SWAP6 DUP7 PUSH2 0x2639 JUMP JUMPDEST DUP1 DUP6 MSTORE PUSH2 0x13B6 PUSH1 0x1F NOT SWAP2 PUSH2 0x265A JUMP JUMPDEST ADD CALLDATASIZE DUP5 DUP7 ADD CALLDATACOPY PUSH1 0x0 JUMPDEST DUP2 MLOAD DUP2 LT ISZERO PUSH2 0x1409 JUMPI PUSH2 0x1404 SWAP1 PUSH2 0x13F4 PUSH1 0x1 PUSH1 0x1 PUSH1 0xA0 SHL SUB PUSH2 0x13E1 DUP4 DUP7 PUSH2 0x29A7 JUMP JUMPDEST MLOAD AND PUSH2 0x13ED DUP4 DUP8 PUSH2 0x29A7 JUMP JUMPDEST MLOAD SWAP1 PUSH2 0x2913 JUMP JUMPDEST PUSH2 0x13FE DUP3 DUP9 PUSH2 0x29A7 JUMP JUMPDEST MSTORE PUSH2 0x2998 JUMP JUMPDEST PUSH2 0x13BF JUMP JUMPDEST POP POP POP PUSH2 0x1420 PUSH1 0x40 MLOAD SWAP3 DUP3 DUP5 SWAP4 DUP5 MSTORE DUP4 ADD SWAP1 PUSH2 0x2777 JUMP JUMPDEST SUB SWAP1 RETURN JUMPDEST PUSH1 0x40 MLOAD PUSH3 0x461BCD PUSH1 0xE5 SHL DUP2 MSTORE PUSH1 0x4 DUP2 ADD DUP4 SWAP1 MSTORE PUSH1 0x29 PUSH1 0x24 DUP3 ADD MSTORE PUSH32 0x455243313135353A206163636F756E747320616E6420696473206C656E677468 PUSH1 0x44 DUP3 ADD MSTORE PUSH9 0x40DAD2E6DAC2E8C6D PUSH1 0xBB SHL PUSH1 0x64 DUP3 ADD MSTORE PUSH1 0x84 SWAP1 REVERT JUMPDEST DUP2 CALLDATALOAD PUSH1 0x1 PUSH1 0x1 PUSH1 0xA0 SHL SUB DUP2 AND DUP2 SUB PUSH2 0x18C JUMPI DUP2 MSTORE SWAP1 DUP5 ADD SWAP1 DUP5 ADD PUSH2 0x1362 JUMP JUMPDEST CALLVALUE PUSH2 0x18C JUMPI PUSH2 0x14A8 CALLDATASIZE PUSH2 0x25B6 JUMP JUMPDEST PUSH2 0x14B0 PUSH2 0x314B JUMP JUMPDEST PUSH1 0x0 DUP3 DUP2 MSTORE PUSH1 0x9 PUSH1 0x20 MSTORE PUSH1 0x40 SWAP1 KECCAK256 DUP1 SLOAD CALLER PUSH1 0x1 PUSH1 0x1 PUSH1 0xA0 SHL SUB SWAP2 DUP3 AND EQ ISZERO SWAP1 DUP2 PUSH2 0x1513 JUMPI JUMPDEST POP PUSH2 0xCD6 JUMPI DUP2 ISZERO PUSH2 0xDF2 JUMPI DUP2 PUSH32 0x2847CFE8AFE8BCD9AC540F0259739697EA019F65D44C8E76C8796B8CE52F7C31 SWAP3 PUSH1 0x3 PUSH1 0x20 SWAP4 ADD SSTORE PUSH1 0x40 MLOAD SWAP1 DUP2 MSTORE LOG2 STOP JUMPDEST SWAP1 POP PUSH1 0x5 SLOAD AND CALLER EQ ISZERO DUP5 PUSH2 0x14D5 JUMP JUMPDEST CALLVALUE PUSH2 0x18C JUMPI PUSH1 0x0 CALLDATASIZE PUSH1 0x3 NOT ADD SLT PUSH2 0x18C JUMPI PUSH2 0x153B PUSH2 0x28BB JUMP JUMPDEST PUSH1 0x7 SLOAD PUSH1 0xFF DUP2 AND ISZERO PUSH2 0x157A JUMPI PUSH1 0xFF NOT AND PUSH1 0x7 SSTORE PUSH32 0x5DB9EE0A495BF2E6FF9C91A7834C1BA4FDD244A5E8AA4E537BD38AEAE4B073AA PUSH1 0x20 PUSH1 0x40 MLOAD CALLER DUP2 MSTORE LOG1 STOP JUMPDEST PUSH1 0x40 MLOAD PUSH3 0x461BCD PUSH1 0xE5 SHL DUP2 MSTORE PUSH1 0x20 PUSH1 0x4 DUP3 ADD MSTORE PUSH1 0x14 PUSH1 0x24 DUP3 ADD MSTORE PUSH20 0x14185D5CD8589B194E881B9BDD081C185D5CD959 PUSH1 0x62 SHL PUSH1 0x44 DUP3 ADD MSTORE PUSH1 0x64 SWAP1 REVERT JUMPDEST CALLVALUE PUSH2 0x18C JUMPI PUSH1 0x0 CALLDATASIZE PUSH1 0x3 NOT ADD SLT PUSH2 0x18C JUMPI PUSH1 0x20 PUSH1 0x40 MLOAD PUSH2 0x9C4 DUP2 MSTORE RETURN JUMPDEST CALLVALUE PUSH2 0x18C JUMPI PUSH1 0xE0 CALLDATASIZE PUSH1 0x3 NOT ADD SLT PUSH2 0x18C JUMPI PUSH1 0x4 CALLDATALOAD PUSH1 0x1 PUSH1 0x1 PUSH1 0x40 SHL SUB DUP2 GT PUSH2 0x18C JUMPI PUSH2 0x1603 SWAP1 CALLDATASIZE SWAP1 PUSH1 0x4 ADD PUSH2 0x274A JUMP JUMPDEST SWAP1 PUSH1 0x24 CALLDATALOAD PUSH1 0x1 PUSH1 0x1 PUSH1 0x40 SHL SUB DUP2 GT PUSH2 0x18C JUMPI PUSH2 0x1623 SWAP1 CALLDATASIZE SWAP1 PUSH1 0x4 ADD PUSH2 0x274A JUMP JUMPDEST SWAP2 SWAP1 PUSH1 0x44 CALLDATALOAD PUSH1 0x1 PUSH1 0x1 PUSH1 0x40 SHL SUB DUP2 GT PUSH2 0x18C JUMPI PUSH2 0x1644 SWAP1 CALLDATASIZE SWAP1 PUSH1 0x4 ADD PUSH2 0x274A JUMP JUMPDEST SWAP3 SWAP1 SWAP2 PUSH1 0x64 CALLDATALOAD PUSH1 0x1 PUSH1 0x1 PUSH1 0x40 SHL SUB DUP2 GT PUSH2 0x18C JUMPI PUSH2 0x1666 SWAP1 CALLDATASIZE SWAP1 PUSH1 0x4 ADD PUSH2 0x274A JUMP JUMPDEST SWAP6 SWAP1 SWAP3 PUSH2 0x1671 PUSH2 0x314B JUMP JUMPDEST CALLER ISZERO PUSH2 0xCE8 JUMPI DUP8 ISZERO DUP1 ISZERO PUSH2 0x1BFD JUMPI JUMPDEST DUP1 ISZERO PUSH2 0x1BF5 JUMPI JUMPDEST DUP1 ISZERO PUSH2 0x1BED JUMPI JUMPDEST PUSH2 0x770 JUMPI PUSH1 0x84 CALLDATALOAD ISZERO PUSH2 0xDF2 JUMPI PUSH1 0xA4 CALLDATALOAD ISZERO PUSH2 0x1BDB JUMPI PUSH2 0x9C4 PUSH1 0xC4 CALLDATALOAD GT PUSH2 0x1BC9 JUMPI PUSH1 0x1 PUSH1 0x8 SLOAD ADD SWAP8 DUP9 PUSH1 0x8 SSTORE DUP9 PUSH1 0x0 MSTORE PUSH1 0xB PUSH1 0x20 MSTORE PUSH1 0x40 PUSH1 0x0 KECCAK256 SWAP2 PUSH1 0x1 PUSH1 0x1 PUSH1 0x40 SHL SUB DUP3 GT PUSH2 0x1A59 JUMPI DUP2 SWAP1 PUSH2 0x16EB DUP3 PUSH2 0x16E5 DUP7 SLOAD PUSH2 0x27AB JUMP JUMPDEST DUP7 PUSH2 0x30F7 JUMP JUMPDEST PUSH1 0x0 SWAP1 PUSH1 0x1F DUP4 GT PUSH1 0x1 EQ PUSH2 0x1B61 JUMPI PUSH1 0x0 SWAP3 PUSH2 0x1B56 JUMPI JUMPDEST POP POP DUP2 PUSH1 0x1 SHL SWAP2 PUSH1 0x0 NOT SWAP1 PUSH1 0x3 SHL SHR NOT AND OR SWAP1 SSTORE JUMPDEST DUP7 PUSH1 0x0 MSTORE PUSH1 0xC PUSH1 0x20 MSTORE PUSH1 0x40 PUSH1 0x0 KECCAK256 SWAP2 PUSH1 0x1 PUSH1 0x1 PUSH1 0x40 SHL SUB DUP3 GT PUSH2 0x1A59 JUMPI DUP2 SWAP1 PUSH2 0x1743 DUP3 PUSH2 0x16E5 DUP7 SLOAD PUSH2 0x27AB JUMP JUMPDEST PUSH1 0x0 SWAP1 PUSH1 0x1F DUP4 GT PUSH1 0x1 EQ PUSH2 0x1AEB JUMPI PUSH1 0x0 SWAP3 PUSH2 0x1AE0 JUMPI JUMPDEST POP POP DUP2 PUSH1 0x1 SHL SWAP2 PUSH1 0x0 NOT SWAP1 PUSH1 0x3 SHL SHR NOT AND OR SWAP1 SSTORE JUMPDEST PUSH1 0x40 MLOAD SWAP3 DUP4 PUSH1 0xE0 DUP2 ADD LT PUSH1 0x1 PUSH1 0x1 PUSH1 0x40 SHL SUB PUSH1 0xE0 DUP7 ADD GT OR PUSH2 0x1A59 JUMPI PUSH2 0x17B2 SWAP3 PUSH2 0x17A3 SWAP2 PUSH1 0xE0 DUP7 ADD PUSH1 0x40 MSTORE CALLER DUP7 MSTORE CALLDATASIZE SWAP2 PUSH2 0x26F8 JUMP JUMPDEST SWAP4 PUSH1 0x20 DUP5 ADD SWAP5 DUP6 MSTORE CALLDATASIZE SWAP2 PUSH2 0x26F8 JUMP JUMPDEST PUSH1 0x40 DUP3 ADD MSTORE PUSH1 0x84 CALLDATALOAD PUSH1 0x60 DUP3 ADD MSTORE PUSH1 0xA4 CALLDATALOAD PUSH1 0x80 DUP3 ADD MSTORE PUSH1 0x0 PUSH1 0xA0 DUP3 ADD MSTORE PUSH1 0x1 PUSH1 0xC0 DUP3 ADD MSTORE DUP3 PUSH1 0x0 MSTORE PUSH1 0x9 PUSH1 0x20 MSTORE PUSH1 0x40 PUSH1 0x0 KECCAK256 SWAP2 PUSH1 0x1 DUP1 PUSH1 0xA0 SHL SUB DUP3 MLOAD AND PUSH1 0x1 PUSH1 0x1 PUSH1 0x60 SHL SUB PUSH1 0xA0 SHL DUP5 SLOAD AND OR DUP4 SSTORE MLOAD DUP1 MLOAD PUSH1 0x1 PUSH1 0x1 PUSH1 0x40 SHL SUB DUP2 GT PUSH2 0x1A59 JUMPI DUP1 PUSH1 0x1 DUP6 ADD SWAP3 PUSH2 0x1824 DUP3 PUSH2 0x16E5 DUP7 SLOAD PUSH2 0x27AB JUMP JUMPDEST PUSH1 0x20 SWAP1 PUSH1 0x1F DUP4 GT PUSH1 0x1 EQ PUSH2 0x1A7A JUMPI PUSH1 0x0 SWAP3 PUSH2 0x1A6F JUMPI JUMPDEST POP POP DUP2 PUSH1 0x1 SHL SWAP2 PUSH1 0x0 NOT SWAP1 PUSH1 0x3 SHL SHR NOT AND OR SWAP1 SSTORE JUMPDEST PUSH1 0x40 DUP2 ADD MLOAD DUP1 MLOAD PUSH1 0x1 PUSH1 0x1 PUSH1 0x40 SHL SUB DUP2 GT PUSH2 0x1A59 JUMPI PUSH1 0x2 DUP5 ADD SWAP2 PUSH2 0x187D DUP3 PUSH2 0x1877 DUP6 SLOAD PUSH2 0x27AB JUMP JUMPDEST DUP6 PUSH2 0x30F7 JUMP JUMPDEST PUSH1 0x20 SWAP1 PUSH1 0x1F DUP4 GT PUSH1 0x1 EQ PUSH2 0x19E7 JUMPI SWAP3 DUP3 PUSH1 0xC0 SWAP4 PUSH2 0x18EB SWAP8 SWAP7 SWAP4 PUSH1 0x6 SWAP7 PUSH1 0x0 SWAP3 PUSH2 0x19DC JUMPI JUMPDEST POP POP DUP2 PUSH1 0x1 SHL SWAP2 PUSH1 0x0 NOT SWAP1 PUSH1 0x3 SHL SHR NOT AND OR SWAP1 SSTORE JUMPDEST PUSH1 0x60 DUP2 ADD MLOAD PUSH1 0x3 DUP6 ADD SSTORE PUSH1 0x80 DUP2 ADD MLOAD PUSH1 0x4 DUP6 ADD SSTORE PUSH1 0xA0 DUP2 ADD MLOAD PUSH1 0x5 DUP6 ADD SSTORE ADD MLOAD ISZERO ISZERO SWAP2 ADD SWAP1 PUSH1 0xFF DUP1 NOT DUP4 SLOAD AND SWAP2 ISZERO ISZERO AND OR SWAP1 SSTORE JUMP JUMPDEST PUSH1 0x1 PUSH1 0x1 PUSH1 0x60 SHL SUB PUSH1 0xC4 CALLDATALOAD AND SWAP1 PUSH2 0x2710 DUP3 GT PUSH2 0x1984 JUMPI PUSH1 0x40 MLOAD PUSH1 0x20 SWAP3 PUSH2 0x1910 DUP3 PUSH2 0x25CC JUMP JUMPDEST CALLER DUP3 MSTORE DUP4 DUP3 ADD SWAP1 DUP2 MSTORE DUP3 PUSH1 0x0 MSTORE PUSH1 0x4 DUP5 MSTORE PUSH1 0x40 PUSH1 0x0 KECCAK256 SWAP2 PUSH1 0x1 DUP1 PUSH1 0xA0 SHL SUB SWAP1 MLOAD AND SWAP1 PUSH1 0x1 PUSH1 0x1 PUSH1 0x60 SHL SUB PUSH1 0xA0 SHL SWAP1 MLOAD PUSH1 0xA0 SHL AND OR SWAP1 SSTORE PUSH1 0x40 MLOAD PUSH1 0x84 CALLDATALOAD DUP2 MSTORE PUSH1 0xA4 CALLDATALOAD DUP4 DUP3 ADD MSTORE DUP2 PUSH32 0x23CBB18BFB096672F2FC538A6D637483D9DB0F85666AE980EBA20AE2874DA1A4 PUSH1 0x40 CALLER SWAP4 LOG3 PUSH1 0x40 MLOAD SWAP1 DUP2 MSTORE RETURN JUMPDEST PUSH1 0x40 MLOAD PUSH3 0x461BCD PUSH1 0xE5 SHL DUP2 MSTORE PUSH1 0x20 PUSH1 0x4 DUP3 ADD MSTORE PUSH1 0x2A PUSH1 0x24 DUP3 ADD MSTORE PUSH32 0x455243323938313A20726F79616C7479206665652077696C6C20657863656564 PUSH1 0x44 DUP3 ADD MSTORE PUSH10 0x2073616C655072696365 PUSH1 0xB0 SHL PUSH1 0x64 DUP3 ADD MSTORE PUSH1 0x84 SWAP1 REVERT JUMPDEST ADD MLOAD SWAP1 POP DUP10 DUP1 PUSH2 0x18A1 JUMP JUMPDEST SWAP1 PUSH1 0x1F NOT DUP4 AND SWAP2 DUP5 PUSH1 0x0 MSTORE PUSH1 0x20 PUSH1 0x0 KECCAK256 SWAP3 PUSH1 0x0 JUMPDEST DUP2 DUP2 LT PUSH2 0x1A41 JUMPI POP SWAP4 PUSH2 0x18EB SWAP8 SWAP7 SWAP4 PUSH1 0x6 SWAP7 SWAP4 PUSH1 0x1 SWAP4 DUP4 PUSH1 0xC0 SWAP9 LT PUSH2 0x1A28 JUMPI JUMPDEST POP POP POP DUP2 SHL ADD SWAP1 SSTORE PUSH2 0x18B6 JUMP JUMPDEST ADD MLOAD PUSH1 0x0 NOT PUSH1 0xF8 DUP5 PUSH1 0x3 SHL AND SHR NOT AND SWAP1 SSTORE DUP10 DUP1 DUP1 PUSH2 0x1A1B JUMP JUMPDEST SWAP3 SWAP4 PUSH1 0x20 PUSH1 0x1 DUP2 SWAP3 DUP8 DUP7 ADD MLOAD DUP2 SSTORE ADD SWAP6 ADD SWAP4 ADD PUSH2 0x19FB JUMP JUMPDEST PUSH4 0x4E487B71 PUSH1 0xE0 SHL PUSH1 0x0 MSTORE PUSH1 0x41 PUSH1 0x4 MSTORE PUSH1 0x24 PUSH1 0x0 REVERT JUMPDEST ADD MLOAD SWAP1 POP DUP7 DUP1 PUSH2 0x183A JUMP JUMPDEST PUSH1 0x0 DUP6 DUP2 MSTORE PUSH1 0x20 DUP2 KECCAK256 SWAP4 POP PUSH1 0x1F NOT DUP6 AND SWAP1 JUMPDEST DUP2 DUP2 LT PUSH2 0x1AC8 JUMPI POP SWAP1 DUP5 PUSH1 0x1 SWAP6 SWAP5 SWAP4 SWAP3 LT PUSH2 0x1AAF JUMPI JUMPDEST POP POP POP DUP2 SHL ADD SWAP1 SSTORE PUSH2 0x184F JUMP JUMPDEST ADD MLOAD PUSH1 0x0 NOT PUSH1 0xF8 DUP5 PUSH1 0x3 SHL AND SHR NOT AND SWAP1 SSTORE DUP7 DUP1 DUP1 PUSH2 0x1AA2 JUMP JUMPDEST SWAP3 SWAP4 PUSH1 0x20 PUSH1 0x1 DUP2 SWAP3 DUP8 DUP7 ADD MLOAD DUP2 SSTORE ADD SWAP6 ADD SWAP4 ADD PUSH2 0x1A8C JUMP JUMPDEST ADD CALLDATALOAD SWAP1 POP DUP9 DUP1 PUSH2 0x1759 JUMP JUMPDEST SWAP1 SWAP2 POP PUSH1 0x1F NOT DUP4 AND SWAP2 DUP5 PUSH1 0x0 MSTORE PUSH1 0x20 PUSH1 0x0 KECCAK256 SWAP3 PUSH1 0x0 JUMPDEST DUP2 DUP2 LT PUSH2 0x1B3E JUMPI POP SWAP1 DUP5 PUSH1 0x1 SWAP6 SWAP5 SWAP4 SWAP3 LT PUSH2 0x1B24 JUMPI JUMPDEST POP POP POP DUP2 SHL ADD SWAP1 SSTORE PUSH2 0x176E JUMP JUMPDEST ADD CALLDATALOAD PUSH1 0x0 NOT PUSH1 0x3 DUP5 SWAP1 SHL PUSH1 0xF8 AND SHR NOT AND SWAP1 SSTORE DUP9 DUP1 DUP1 PUSH2 0x1B17 JUMP JUMPDEST SWAP2 SWAP4 PUSH1 0x20 PUSH1 0x1 DUP2 SWAP3 DUP8 DUP8 ADD CALLDATALOAD DUP2 SSTORE ADD SWAP6 ADD SWAP3 ADD PUSH2 0x1B01 JUMP JUMPDEST ADD CALLDATALOAD SWAP1 POP DUP11 DUP1 PUSH2 0x1701 JUMP JUMPDEST PUSH1 0x0 DUP6 DUP2 MSTORE PUSH1 0x20 DUP2 KECCAK256 SWAP1 SWAP5 POP SWAP2 JUMPDEST PUSH1 0x1F NOT DUP5 AND DUP6 LT PUSH2 0x1BB1 JUMPI PUSH1 0x1 SWAP5 POP DUP4 PUSH1 0x1F NOT DUP2 AND LT PUSH2 0x1B97 JUMPI JUMPDEST POP POP POP DUP2 SHL ADD SWAP1 SSTORE PUSH2 0x1716 JUMP JUMPDEST ADD CALLDATALOAD PUSH1 0x0 NOT PUSH1 0x3 DUP5 SWAP1 SHL PUSH1 0xF8 AND SHR NOT AND SWAP1 SSTORE DUP11 DUP1 DUP1 PUSH2 0x1B8A JUMP JUMPDEST DUP2 DUP2 ADD CALLDATALOAD DUP4 SSTORE PUSH1 0x20 SWAP5 DUP6 ADD SWAP5 PUSH1 0x1 SWAP1 SWAP4 ADD SWAP3 ADD PUSH2 0x1B6F JUMP JUMPDEST PUSH1 0x40 MLOAD PUSH4 0xE0E54CED PUSH1 0xE0 SHL DUP2 MSTORE PUSH1 0x4 SWAP1 REVERT JUMPDEST PUSH1 0x40 MLOAD PUSH4 0x15AE6727 PUSH1 0xE0 SHL DUP2 MSTORE PUSH1 0x4 SWAP1 REVERT JUMPDEST POP DUP7 ISZERO PUSH2 0x168E JUMP JUMPDEST POP DUP6 ISZERO PUSH2 0x1687 JUMP JUMPDEST POP DUP2 ISZERO PUSH2 0x1680 JUMP JUMPDEST CALLVALUE PUSH2 0x18C JUMPI PUSH1 0x20 CALLDATASIZE PUSH1 0x3 NOT ADD SLT PUSH2 0x18C JUMPI PUSH1 0x4 CALLDATALOAD PUSH2 0x1C21 PUSH2 0x3200 JUMP JUMPDEST PUSH2 0x1C29 PUSH2 0x314B JUMP JUMPDEST DUP1 PUSH1 0x0 MSTORE PUSH1 0xA PUSH1 0x20 MSTORE PUSH1 0x40 PUSH1 0x0 KECCAK256 CALLER PUSH1 0x0 MSTORE PUSH1 0x20 MSTORE CALLER PUSH1 0x1 DUP1 PUSH1 0xA0 SHL SUB PUSH1 0x40 PUSH1 0x0 KECCAK256 SLOAD AND SUB PUSH2 0xCD6 JUMPI DUP1 PUSH1 0x0 MSTORE PUSH1 0xA PUSH1 0x20 MSTORE PUSH1 0x40 PUSH1 0x0 KECCAK256 CALLER PUSH1 0x0 MSTORE PUSH1 0x20 MSTORE PUSH1 0x0 PUSH1 0x2 PUSH1 0x40 DUP3 KECCAK256 DUP3 DUP2 SSTORE DUP3 PUSH1 0x1 DUP3 ADD SSTORE ADD SSTORE CALLER SWAP1 PUSH32 0x8E25282255AB31897DF2B0456BB993AC7F84D376861AEFD84901D2D63A7428A2 PUSH1 0x0 DUP1 LOG3 PUSH1 0x1 PUSH1 0x6 SSTORE STOP JUMPDEST CALLVALUE PUSH2 0x18C JUMPI PUSH1 0x3 NOT PUSH1 0xA0 CALLDATASIZE DUP3 ADD SLT PUSH2 0x18C JUMPI PUSH2 0x1CC2 PUSH2 0x2542 JUMP JUMPDEST PUSH2 0x1CCA PUSH2 0x2558 JUMP JUMPDEST SWAP1 PUSH1 0x1 PUSH1 0x1 PUSH1 0x40 SHL SUB SWAP1 PUSH1 0x44 CALLDATALOAD DUP3 DUP2 GT PUSH2 0x18C JUMPI PUSH2 0x1CEC SWAP1 CALLDATASIZE SWAP1 PUSH1 0x4 ADD PUSH2 0x26BF JUMP JUMPDEST PUSH1 0x64 CALLDATALOAD DUP4 DUP2 GT PUSH2 0x18C JUMPI PUSH2 0x1D04 SWAP1 CALLDATASIZE SWAP1 PUSH1 0x4 ADD PUSH2 0x26BF JUMP JUMPDEST SWAP3 PUSH1 0x84 CALLDATALOAD SWAP1 DUP2 GT PUSH2 0x18C JUMPI PUSH2 0x1D1D SWAP1 CALLDATASIZE SWAP1 PUSH1 0x4 ADD PUSH2 0x272F JUMP JUMPDEST PUSH1 0x1 PUSH1 0x1 PUSH1 0xA0 SHL SUB SWAP3 DUP4 AND SWAP6 SWAP1 CALLER DUP8 EQ DUP1 ISZERO PUSH2 0x203D JUMPI JUMPDEST PUSH2 0x1D3D SWAP1 PUSH2 0x29BB JUMP JUMPDEST PUSH2 0x1D4A DUP4 MLOAD DUP7 MLOAD EQ PUSH2 0x2E3F JUMP JUMPDEST DUP4 DUP7 AND SWAP4 DUP5 ISZERO ISZERO PUSH2 0x1D5A DUP2 PUSH2 0x2A1E JUMP JUMPDEST DUP9 ISZERO ISZERO SWAP1 DUP2 PUSH2 0x2035 JUMPI JUMPDEST POP PUSH2 0x1ECF JUMPI JUMPDEST POP PUSH1 0x0 JUMPDEST DUP4 MLOAD DUP2 LT ISZERO PUSH2 0x1DFD JUMPI DUP1 PUSH2 0x1D85 PUSH2 0x1DF8 SWAP3 DUP7 PUSH2 0x29A7 JUMP JUMPDEST MLOAD PUSH2 0x1D90 DUP3 DUP10 PUSH2 0x29A7 JUMP JUMPDEST MLOAD SWAP1 DUP1 PUSH1 0x0 MSTORE PUSH1 0x20 SWAP1 PUSH1 0x0 DUP3 MSTORE PUSH1 0x40 PUSH1 0x0 KECCAK256 DUP13 PUSH1 0x0 MSTORE DUP3 MSTORE DUP3 PUSH1 0x40 PUSH1 0x0 KECCAK256 SLOAD PUSH2 0x1DBB DUP3 DUP3 LT ISZERO PUSH2 0x2A78 JUMP JUMPDEST DUP3 PUSH1 0x0 MSTORE PUSH1 0x0 DUP5 MSTORE DUP14 PUSH1 0x40 PUSH1 0x0 KECCAK256 SWAP1 PUSH1 0x0 MSTORE DUP5 MSTORE SUB PUSH1 0x40 PUSH1 0x0 KECCAK256 SSTORE PUSH1 0x0 MSTORE PUSH1 0x0 DUP2 MSTORE PUSH1 0x40 PUSH1 0x0 KECCAK256 SWAP1 DUP9 PUSH1 0x0 MSTORE MSTORE PUSH2 0x3F6 PUSH1 0x40 PUSH1 0x0 KECCAK256 SWAP2 DUP3 SLOAD PUSH2 0x2AD7 JUMP JUMPDEST PUSH2 0x1D6E JUMP JUMPDEST POP SWAP1 SWAP5 SWAP4 SWAP3 SWAP2 SWAP4 DUP3 DUP8 PUSH1 0x40 MLOAD PUSH32 0x4A39DC06D4C0DBC64B70AF90FD698A233A518AA5D07E595D983B8C0526C8F7FB CALLER SWAP2 DUP1 PUSH2 0x1E38 DUP11 DUP13 DUP4 PUSH2 0x2E9C JUMP JUMPDEST SUB SWAP1 LOG4 EXTCODESIZE PUSH2 0x1E42 JUMPI STOP JUMPDEST PUSH1 0x0 PUSH1 0x20 SWAP5 PUSH2 0x1E84 PUSH2 0x533 SWAP8 PUSH2 0x523 SWAP5 PUSH1 0x40 MLOAD SWAP10 DUP11 SWAP9 DUP10 SWAP8 DUP9 SWAP7 PUSH4 0xBC197C81 PUSH1 0xE0 SHL SWAP15 DUP16 DUP10 MSTORE CALLER PUSH1 0x4 DUP11 ADD MSTORE PUSH1 0x24 DUP10 ADD MSTORE PUSH1 0xA0 PUSH1 0x44 DUP10 ADD MSTORE PUSH1 0xA4 DUP9 ADD SWAP1 PUSH2 0x2777 JUMP JUMPDEST SUB SWAP3 GAS CALL PUSH1 0x0 SWAP2 DUP2 PUSH2 0x1EAF JUMPI JUMPDEST POP PUSH2 0x1E9E JUMPI PUSH2 0x55F PUSH2 0x2F2A JUMP JUMPDEST PUSH1 0x1 PUSH1 0x1 PUSH1 0xE0 SHL SUB NOT AND SUB PUSH2 0x5FB JUMPI STOP JUMPDEST PUSH2 0x1EC8 SWAP2 SWAP3 POP PUSH1 0x20 RETURNDATASIZE DUP2 GT PUSH2 0x63D JUMPI PUSH2 0x62E DUP2 DUP4 PUSH2 0x2639 JUMP JUMPDEST SWAP1 DUP4 PUSH2 0x1E91 JUMP JUMPDEST SWAP7 SWAP5 SWAP4 SWAP1 SWAP6 SWAP2 PUSH1 0x0 JUMPDEST DUP5 MLOAD DUP2 LT ISZERO PUSH2 0x2027 JUMPI DUP1 PUSH2 0x1EEF PUSH2 0x1F27 SWAP3 DUP8 PUSH2 0x29A7 JUMP JUMPDEST MLOAD PUSH1 0x0 MSTORE DUP8 DUP11 PUSH1 0xA PUSH1 0x20 SWAP1 DUP1 DUP3 MSTORE PUSH1 0x40 PUSH1 0x0 KECCAK256 DUP5 PUSH1 0x0 MSTORE DUP3 MSTORE DUP4 PUSH1 0x40 PUSH1 0x0 KECCAK256 SWAP4 DUP5 SLOAD AND EQ DUP1 PUSH2 0x201A JUMPI JUMPDEST PUSH2 0x1F2C JUMPI JUMPDEST POP POP POP POP PUSH2 0x2998 JUMP JUMPDEST PUSH2 0x1ED8 JUMP JUMPDEST PUSH2 0x1F36 DUP6 DUP13 PUSH2 0x29A7 JUMP JUMPDEST MLOAD SWAP3 DUP12 DUP7 DUP13 PUSH1 0x2 SWAP7 DUP8 DUP6 ADD SWAP4 DUP5 SLOAD DUP1 SWAP3 LT ISZERO PUSH1 0x0 EQ PUSH2 0x1FBA JUMPI POP POP SWAP1 SWAP2 POP PUSH1 0x0 SWAP7 POP PUSH2 0x1F62 SWAP3 POP PUSH2 0x29A7 JUMP JUMPDEST MLOAD DUP5 MSTORE DUP2 MSTORE PUSH1 0x40 DUP4 KECCAK256 SWAP1 DUP12 DUP5 MSTORE MSTORE PUSH1 0x40 DUP3 KECCAK256 DUP3 DUP2 SSTORE DUP3 PUSH1 0x1 DUP3 ADD SSTORE ADD SSTORE DUP8 PUSH2 0x1F8A DUP3 DUP9 PUSH2 0x29A7 JUMP JUMPDEST MLOAD PUSH32 0x8E25282255AB31897DF2B0456BB993AC7F84D376861AEFD84901D2D63A7428A2 PUSH1 0x0 DUP1 LOG3 JUMPDEST DUP8 DUP12 DUP1 DUP1 PUSH2 0x1F1E JUMP JUMPDEST PUSH32 0x36E94395FAFCB0D2A9BCFCDD5CEF807AB52A1F4382906992EBDC18DE5F1472C4 SWAP8 SWAP6 SWAP9 POP PUSH1 0x40 SWAP7 POP SWAP2 PUSH2 0x1FFF DUP5 SWAP3 PUSH2 0x1FF8 PUSH1 0x1 SWAP7 PUSH2 0x2007 SWAP7 PUSH2 0x29A7 JUMP JUMPDEST MLOAD SWAP1 PUSH2 0x318F JUMP JUMPDEST DUP1 SWAP6 SSTORE PUSH2 0x29A7 JUMP JUMPDEST MLOAD SWAP6 ADD SLOAD SWAP2 DUP4 MLOAD SWAP3 DUP4 MSTORE DUP3 ADD MSTORE LOG3 PUSH2 0x1FB1 JUMP JUMPDEST POP PUSH1 0x2 DUP4 ADD SLOAD ISZERO ISZERO PUSH2 0x1F19 JUMP JUMPDEST POP SWAP2 SWAP6 SWAP1 SWAP4 SWAP5 SWAP7 POP DUP8 PUSH2 0x1D6A JUMP JUMPDEST SWAP1 POP DUP10 PUSH2 0x1D64 JUMP JUMPDEST POP DUP7 PUSH1 0x0 MSTORE PUSH1 0x1 PUSH1 0x20 MSTORE PUSH1 0x40 PUSH1 0x0 KECCAK256 CALLER PUSH1 0x0 MSTORE PUSH1 0x20 MSTORE PUSH2 0x1D3D PUSH1 0xFF PUSH1 0x40 PUSH1 0x0 KECCAK256 SLOAD AND SWAP1 POP PUSH2 0x1D34 JUMP JUMPDEST CALLVALUE PUSH2 0x18C JUMPI PUSH1 0x40 PUSH2 0x207F PUSH2 0x2079 CALLDATASIZE PUSH2 0x25B6 JUMP JUMPDEST SWAP1 PUSH2 0x308E JUMP JUMPDEST DUP3 MLOAD PUSH1 0x1 PUSH1 0x1 PUSH1 0xA0 SHL SUB SWAP1 SWAP3 AND DUP3 MSTORE PUSH1 0x20 DUP3 ADD MSTORE RETURN JUMPDEST CALLVALUE PUSH2 0x18C JUMPI PUSH1 0x20 DUP1 PUSH1 0x3 NOT CALLDATASIZE ADD SLT PUSH2 0x18C JUMPI PUSH1 0x4 CALLDATALOAD PUSH1 0x0 DUP2 DUP2 MSTORE PUSH1 0x9 DUP4 MSTORE PUSH1 0x40 SWAP1 KECCAK256 SLOAD PUSH1 0x1 PUSH1 0x1 PUSH1 0xA0 SHL SUB SWAP3 SWAP2 SWAP1 DUP4 AND ISZERO PUSH2 0x2464 JUMPI PUSH2 0x20D3 SWAP1 PUSH2 0x3567 JUMP JUMPDEST DUP1 MLOAD SWAP1 DUP3 DUP2 ADD MLOAD PUSH1 0x40 DUP3 ADD MLOAD SWAP2 PUSH1 0x60 DUP2 ADD MLOAD SWAP6 PUSH1 0x80 DUP3 ADD MLOAD AND SWAP6 PUSH1 0x40 MLOAD SWAP7 PUSH2 0x20FA DUP9 PUSH2 0x25E7 JUMP JUMPDEST PUSH1 0x2A DUP9 MSTORE DUP7 DUP9 ADD SWAP1 PUSH1 0x40 CALLDATASIZE DUP4 CALLDATACOPY DUP9 MLOAD ISZERO PUSH2 0x244E JUMPI PUSH1 0x30 DUP3 MSTORE8 DUP9 MLOAD PUSH1 0x1 SWAP1 DUP2 LT ISZERO PUSH2 0x244E JUMPI PUSH1 0x78 PUSH1 0x21 DUP12 ADD MSTORE8 PUSH1 0x29 SWAP1 JUMPDEST DUP1 DUP3 GT PUSH2 0x23F0 JUMPI POP POP PUSH2 0x23AD JUMPI DUP7 SWAP8 PUSH1 0xA0 DUP5 ADD MLOAD PUSH2 0x2146 SWAP1 PUSH2 0x3424 JUMP JUMPDEST SWAP3 PUSH1 0xC0 DUP6 ADD MLOAD PUSH2 0x2155 SWAP1 PUSH2 0x3424 JUMP JUMPDEST SWAP5 PUSH1 0xE0 ADD MLOAD PUSH2 0x2163 SWAP1 PUSH2 0x3424 JUMP JUMPDEST SWAP7 DUP10 PUSH1 0x40 MLOAD SWAP11 DUP12 SWAP11 PUSH9 0x3D913730B6B2911D11 PUSH1 0xB9 SHL DUP3 DUP14 ADD MSTORE DUP12 DUP2 MLOAD SWAP3 PUSH1 0x29 DUP5 SWAP3 ADD SWAP3 ADD SWAP2 PUSH2 0x2191 SWAP3 PUSH2 0x256E JUMP JUMPDEST DUP11 ADD PUSH2 0x88B PUSH1 0xF2 SHL SWAP9 DUP10 PUSH1 0x29 DUP4 ADD MSTORE PUSH15 0x113232B9B1B934B83A34B7B7111D11 PUSH1 0x89 SHL PUSH1 0x2B DUP4 ADD MSTORE DUP1 MLOAD DUP1 SWAP4 PUSH1 0x3A DUP5 ADD SWAP3 ADD SWAP2 PUSH2 0x21CC SWAP3 PUSH2 0x256E JUMP JUMPDEST ADD DUP8 PUSH1 0x3A DUP3 ADD MSTORE PUSH9 0x1134B6B0B3B2911D11 PUSH1 0xB9 SHL PUSH1 0x3C DUP3 ADD MSTORE DUP2 MLOAD SWAP2 DUP3 DUP14 PUSH1 0x45 DUP5 ADD SWAP3 ADD SWAP2 PUSH2 0x21FA SWAP3 PUSH2 0x256E JUMP JUMPDEST ADD DUP7 PUSH1 0x45 DUP3 ADD MSTORE PUSH17 0x1130B734B6B0BA34B7B72FBAB936111D11 PUSH1 0x79 SHL PUSH1 0x47 DUP3 ADD MSTORE DUP2 MLOAD SWAP2 DUP3 DUP13 PUSH1 0x58 DUP5 ADD SWAP3 ADD SWAP2 PUSH2 0x2230 SWAP3 PUSH2 0x256E JUMP JUMPDEST ADD SWAP1 DUP6 PUSH1 0x58 DUP4 ADD MSTORE PUSH14 0x2270726F70657274696573223A7B PUSH1 0x90 SHL PUSH1 0x5A DUP4 ADD MSTORE PUSH11 0x1131B932B0BA37B9111D11 PUSH1 0xA9 SHL PUSH1 0x68 DUP4 ADD MSTORE MLOAD SWAP2 DUP3 PUSH1 0x73 DUP4 ADD PUSH2 0x2273 SWAP3 PUSH2 0x256E JUMP JUMPDEST ADD DUP4 PUSH1 0x73 DUP3 ADD MSTORE PUSH13 0x1136B0BC29BAB838363C911D11 PUSH1 0x99 SHL PUSH1 0x75 DUP3 ADD MSTORE DUP2 MLOAD SWAP2 DUP3 DUP10 PUSH1 0x82 DUP5 ADD SWAP3 ADD SWAP2 PUSH2 0x22A5 SWAP3 PUSH2 0x256E JUMP JUMPDEST ADD DUP3 PUSH1 0x82 DUP3 ADD MSTORE PUSH17 0x1131BAB93932B73A29BAB838363C911D11 PUSH1 0x79 SHL PUSH1 0x84 DUP3 ADD MSTORE DUP2 MLOAD SWAP2 DUP3 DUP9 PUSH1 0x95 DUP5 ADD SWAP3 ADD SWAP2 PUSH2 0x22DB SWAP3 PUSH2 0x256E JUMP JUMPDEST ADD SWAP1 PUSH1 0x95 DUP3 ADD MSTORE PUSH14 0x113937BCB0B63A3CA12829911D11 PUSH1 0x91 SHL PUSH1 0x97 DUP3 ADD MSTORE DUP2 MLOAD SWAP2 DUP3 DUP7 PUSH1 0xA5 DUP5 ADD SWAP3 ADD SWAP2 PUSH2 0x230E SWAP3 PUSH2 0x256E JUMP JUMPDEST ADD PUSH1 0x11 PUSH1 0xF9 SHL PUSH1 0xA5 DUP3 ADD MSTORE PUSH1 0xA6 DUP2 ADD PUSH2 0x7D7D PUSH1 0xF0 SHL SWAP1 MSTORE SUB PUSH1 0x88 DUP2 ADD DUP3 MSTORE PUSH1 0xA8 ADD PUSH2 0x2339 SWAP1 DUP3 PUSH2 0x2639 JUMP JUMPDEST PUSH2 0x2342 SWAP1 PUSH2 0x32DE JUMP JUMPDEST SWAP1 PUSH1 0x40 MLOAD DUP1 SWAP3 DUP3 DUP3 ADD PUSH32 0x646174613A6170706C69636174696F6E2F6A736F6E3B6261736536342C000000 SWAP1 MSTORE DUP1 MLOAD SWAP1 DUP2 DUP5 PUSH1 0x3D DUP6 ADD SWAP3 ADD SWAP2 PUSH2 0x2383 SWAP3 PUSH2 0x256E JUMP JUMPDEST DUP2 ADD SUB PUSH1 0x1D DUP2 ADD DUP4 MSTORE PUSH1 0x3D ADD PUSH2 0x2399 SWAP1 DUP4 PUSH2 0x2639 JUMP JUMPDEST PUSH1 0x40 MLOAD SWAP2 DUP2 DUP4 SWAP3 DUP4 MSTORE DUP3 ADD PUSH2 0x1420 SWAP2 PUSH2 0x2591 JUMP JUMPDEST PUSH1 0x64 DUP8 PUSH1 0x40 MLOAD SWAP1 PUSH3 0x461BCD PUSH1 0xE5 SHL DUP3 MSTORE DUP1 PUSH1 0x4 DUP4 ADD MSTORE PUSH1 0x24 DUP3 ADD MSTORE PUSH32 0x537472696E67733A20686578206C656E67746820696E73756666696369656E74 PUSH1 0x44 DUP3 ADD MSTORE REVERT JUMPDEST SWAP1 SWAP2 PUSH1 0xF DUP2 AND PUSH1 0x10 DUP2 LT ISZERO PUSH2 0x244E JUMPI DUP12 MLOAD DUP5 LT ISZERO PUSH2 0x244E JUMPI PUSH16 0x181899199A1A9B1B9C1CB0B131B232B3 PUSH1 0x81 SHL SWAP1 BYTE DUP12 DUP5 ADD DUP12 ADD MSTORE8 PUSH1 0x4 SHR SWAP2 DUP1 ISZERO PUSH2 0x2438 JUMPI PUSH1 0x0 NOT ADD SWAP1 PUSH2 0x2129 JUMP JUMPDEST PUSH4 0x4E487B71 PUSH1 0xE0 SHL PUSH1 0x0 MSTORE PUSH1 0x11 PUSH1 0x4 MSTORE PUSH1 0x24 PUSH1 0x0 REVERT JUMPDEST PUSH4 0x4E487B71 PUSH1 0xE0 SHL PUSH1 0x0 MSTORE PUSH1 0x32 PUSH1 0x4 MSTORE PUSH1 0x24 PUSH1 0x0 REVERT JUMPDEST PUSH1 0x40 MLOAD PUSH4 0xF070CB6F PUSH1 0xE0 SHL DUP2 MSTORE PUSH1 0x4 SWAP1 REVERT JUMPDEST CALLVALUE PUSH2 0x18C JUMPI PUSH1 0x20 CALLDATASIZE PUSH1 0x3 NOT ADD SLT PUSH2 0x18C JUMPI PUSH1 0x4 CALLDATALOAD PUSH4 0xFFFFFFFF PUSH1 0xE0 SHL DUP2 AND DUP1 SWAP2 SUB PUSH2 0x18C JUMPI PUSH1 0x20 SWAP1 PUSH4 0x152A902D PUSH1 0xE1 SHL DUP2 EQ SWAP1 DUP2 SWAP1 DUP2 ISZERO PUSH2 0x24CD JUMPI JUMPDEST POP DUP2 ISZERO PUSH2 0x24C5 JUMPI JUMPDEST POP PUSH1 0x40 MLOAD SWAP1 ISZERO ISZERO DUP2 MSTORE RETURN JUMPDEST SWAP1 POP DUP3 PUSH2 0x24BA JUMP JUMPDEST SWAP1 SWAP2 POP PUSH4 0x6CDB3D13 PUSH1 0xE1 SHL DUP2 EQ SWAP1 DUP2 ISZERO PUSH2 0x2502 JUMPI JUMPDEST DUP2 ISZERO PUSH2 0x24F1 JUMPI JUMPDEST POP SWAP1 DUP4 PUSH2 0x24B2 JUMP JUMPDEST PUSH4 0x1FFC9A7 PUSH1 0xE0 SHL EQ SWAP1 POP DUP4 PUSH2 0x24E9 JUMP JUMPDEST PUSH4 0x3A24D07 PUSH1 0xE2 SHL DUP2 EQ SWAP2 POP PUSH2 0x24E2 JUMP JUMPDEST CALLVALUE PUSH2 0x18C JUMPI PUSH1 0x40 CALLDATASIZE PUSH1 0x3 NOT ADD SLT PUSH2 0x18C JUMPI PUSH1 0x20 PUSH2 0x253A PUSH2 0x2531 PUSH2 0x2542 JUMP JUMPDEST PUSH1 0x24 CALLDATALOAD SWAP1 PUSH2 0x2913 JUMP JUMPDEST PUSH1 0x40 MLOAD SWAP1 DUP2 MSTORE RETURN JUMPDEST PUSH1 0x4 CALLDATALOAD SWAP1 PUSH1 0x1 PUSH1 0x1 PUSH1 0xA0 SHL SUB DUP3 AND DUP3 SUB PUSH2 0x18C JUMPI JUMP JUMPDEST PUSH1 0x24 CALLDATALOAD SWAP1 PUSH1 0x1 PUSH1 0x1 PUSH1 0xA0 SHL SUB DUP3 AND DUP3 SUB PUSH2 0x18C JUMPI JUMP JUMPDEST PUSH1 0x0 JUMPDEST DUP4 DUP2 LT PUSH2 0x2581 JUMPI POP POP PUSH1 0x0 SWAP2 ADD MSTORE JUMP JUMPDEST DUP2 DUP2 ADD MLOAD DUP4 DUP3 ADD MSTORE PUSH1 0x20 ADD PUSH2 0x2571 JUMP JUMPDEST SWAP1 PUSH1 0x20 SWAP2 PUSH2 0x25AA DUP2 MLOAD DUP1 SWAP3 DUP2 DUP6 MSTORE DUP6 DUP1 DUP7 ADD SWAP2 ADD PUSH2 0x256E JUMP JUMPDEST PUSH1 0x1F ADD PUSH1 0x1F NOT AND ADD ADD SWAP1 JUMP JUMPDEST PUSH1 0x40 SWAP1 PUSH1 0x3 NOT ADD SLT PUSH2 0x18C JUMPI PUSH1 0x4 CALLDATALOAD SWAP1 PUSH1 0x24 CALLDATALOAD SWAP1 JUMP JUMPDEST PUSH1 0x40 DUP2 ADD SWAP1 DUP2 LT PUSH1 0x1 PUSH1 0x1 PUSH1 0x40 SHL SUB DUP3 GT OR PUSH2 0x1A59 JUMPI PUSH1 0x40 MSTORE JUMP JUMPDEST PUSH1 0x60 DUP2 ADD SWAP1 DUP2 LT PUSH1 0x1 PUSH1 0x1 PUSH1 0x40 SHL SUB DUP3 GT OR PUSH2 0x1A59 JUMPI PUSH1 0x40 MSTORE JUMP JUMPDEST PUSH2 0x100 DUP2 ADD SWAP1 DUP2 LT PUSH1 0x1 PUSH1 0x1 PUSH1 0x40 SHL SUB DUP3 GT OR PUSH2 0x1A59 JUMPI PUSH1 0x40 MSTORE JUMP JUMPDEST PUSH1 0x20 DUP2 ADD SWAP1 DUP2 LT PUSH1 0x1 PUSH1 0x1 PUSH1 0x40 SHL SUB DUP3 GT OR PUSH2 0x1A59 JUMPI PUSH1 0x40 MSTORE JUMP JUMPDEST SWAP1 PUSH1 0x1F DUP1 NOT SWAP2 ADD AND DUP2 ADD SWAP1 DUP2 LT PUSH1 0x1 PUSH1 0x1 PUSH1 0x40 SHL SUB DUP3 GT OR PUSH2 0x1A59 JUMPI PUSH1 0x40 MSTORE JUMP JUMPDEST PUSH1 0x1 PUSH1 0x1 PUSH1 0x40 SHL SUB DUP2 GT PUSH2 0x1A59 JUMPI PUSH1 0x5 SHL PUSH1 0x20 ADD SWAP1 JUMP JUMPDEST SWAP3 SWAP2 PUSH2 0x267C DUP3 PUSH2 0x265A JUMP JUMPDEST SWAP2 PUSH2 0x268A PUSH1 0x40 MLOAD SWAP4 DUP5 PUSH2 0x2639 JUMP JUMPDEST DUP3 SWAP5 DUP2 DUP5 MSTORE PUSH1 0x20 DUP1 SWAP5 ADD SWAP2 PUSH1 0x5 SHL DUP2 ADD SWAP3 DUP4 GT PUSH2 0x18C JUMPI SWAP1 JUMPDEST DUP3 DUP3 LT PUSH2 0x26B0 JUMPI POP POP POP POP JUMP JUMPDEST DUP2 CALLDATALOAD DUP2 MSTORE SWAP1 DUP4 ADD SWAP1 DUP4 ADD PUSH2 0x26A3 JUMP JUMPDEST SWAP1 DUP1 PUSH1 0x1F DUP4 ADD SLT ISZERO PUSH2 0x18C JUMPI DUP2 PUSH1 0x20 PUSH2 0x26DA SWAP4 CALLDATALOAD SWAP2 ADD PUSH2 0x2671 JUMP JUMPDEST SWAP1 JUMP JUMPDEST PUSH1 0x1 PUSH1 0x1 PUSH1 0x40 SHL SUB DUP2 GT PUSH2 0x1A59 JUMPI PUSH1 0x1F ADD PUSH1 0x1F NOT AND PUSH1 0x20 ADD SWAP1 JUMP JUMPDEST SWAP3 SWAP2 SWAP3 PUSH2 0x2704 DUP3 PUSH2 0x26DD JUMP JUMPDEST SWAP2 PUSH2 0x2712 PUSH1 0x40 MLOAD SWAP4 DUP5 PUSH2 0x2639 JUMP JUMPDEST DUP3 SWAP5 DUP2 DUP5 MSTORE DUP2 DUP4 ADD GT PUSH2 0x18C JUMPI DUP3 DUP2 PUSH1 0x20 SWAP4 DUP5 PUSH1 0x0 SWAP7 ADD CALLDATACOPY ADD ADD MSTORE JUMP JUMPDEST SWAP1 DUP1 PUSH1 0x1F DUP4 ADD SLT ISZERO PUSH2 0x18C JUMPI DUP2 PUSH1 0x20 PUSH2 0x26DA SWAP4 CALLDATALOAD SWAP2 ADD PUSH2 0x26F8 JUMP JUMPDEST SWAP2 DUP2 PUSH1 0x1F DUP5 ADD SLT ISZERO PUSH2 0x18C JUMPI DUP3 CALLDATALOAD SWAP2 PUSH1 0x1 PUSH1 0x1 PUSH1 0x40 SHL SUB DUP4 GT PUSH2 0x18C JUMPI PUSH1 0x20 DUP4 DUP2 DUP7 ADD SWAP6 ADD ADD GT PUSH2 0x18C JUMPI JUMP JUMPDEST SWAP1 DUP2 MLOAD DUP1 DUP3 MSTORE PUSH1 0x20 DUP1 DUP1 SWAP4 ADD SWAP4 ADD SWAP2 PUSH1 0x0 JUMPDEST DUP3 DUP2 LT PUSH2 0x2797 JUMPI POP POP POP POP SWAP1 JUMP JUMPDEST DUP4 MLOAD DUP6 MSTORE SWAP4 DUP2 ADD SWAP4 SWAP3 DUP2 ADD SWAP3 PUSH1 0x1 ADD PUSH2 0x2789 JUMP JUMPDEST SWAP1 PUSH1 0x1 DUP3 DUP2 SHR SWAP3 AND DUP1 ISZERO PUSH2 0x27DB JUMPI JUMPDEST PUSH1 0x20 DUP4 LT EQ PUSH2 0x27C5 JUMPI JUMP JUMPDEST PUSH4 0x4E487B71 PUSH1 0xE0 SHL PUSH1 0x0 MSTORE PUSH1 0x22 PUSH1 0x4 MSTORE PUSH1 0x24 PUSH1 0x0 REVERT JUMPDEST SWAP2 PUSH1 0x7F AND SWAP2 PUSH2 0x27BA JUMP JUMPDEST SWAP1 PUSH1 0x40 MLOAD SWAP2 DUP3 PUSH1 0x0 DUP3 SLOAD SWAP3 PUSH2 0x27F9 DUP5 PUSH2 0x27AB JUMP JUMPDEST SWAP1 DUP2 DUP5 MSTORE PUSH1 0x1 SWAP5 DUP6 DUP2 AND SWAP1 DUP2 PUSH1 0x0 EQ PUSH2 0x2868 JUMPI POP PUSH1 0x1 EQ PUSH2 0x2825 JUMPI JUMPDEST POP POP PUSH2 0x2823 SWAP3 POP SUB DUP4 PUSH2 0x2639 JUMP JUMPDEST JUMP JUMPDEST SWAP1 SWAP4 SWAP2 POP PUSH1 0x0 MSTORE PUSH1 0x20 SWAP1 DUP2 PUSH1 0x0 KECCAK256 SWAP4 PUSH1 0x0 SWAP2 JUMPDEST DUP2 DUP4 LT PUSH2 0x2850 JUMPI POP POP PUSH2 0x2823 SWAP4 POP DUP3 ADD ADD CODESIZE DUP1 PUSH2 0x2815 JUMP JUMPDEST DUP6 SLOAD DUP9 DUP5 ADD DUP6 ADD MSTORE SWAP5 DUP6 ADD SWAP5 DUP8 SWAP5 POP SWAP2 DUP4 ADD SWAP2 PUSH2 0x2838 JUMP JUMPDEST SWAP2 POP POP PUSH2 0x2823 SWAP5 POP PUSH1 0x20 SWAP3 POP PUSH1 0xFF NOT AND DUP3 DUP5 ADD MSTORE ISZERO ISZERO PUSH1 0x5 SHL DUP3 ADD ADD CODESIZE DUP1 PUSH2 0x2815 JUMP JUMPDEST SWAP2 DUP2 PUSH1 0x1F DUP5 ADD SLT ISZERO PUSH2 0x18C JUMPI DUP3 CALLDATALOAD SWAP2 PUSH1 0x1 PUSH1 0x1 PUSH1 0x40 SHL SUB DUP4 GT PUSH2 0x18C JUMPI PUSH1 0x20 DUP1 DUP6 ADD SWAP5 DUP5 PUSH1 0x5 SHL ADD ADD GT PUSH2 0x18C JUMPI JUMP JUMPDEST PUSH1 0x5 SLOAD PUSH1 0x1 PUSH1 0x1 PUSH1 0xA0 SHL SUB AND CALLER SUB PUSH2 0x28CF JUMPI JUMP JUMPDEST PUSH1 0x64 PUSH1 0x40 MLOAD PUSH3 0x461BCD PUSH1 0xE5 SHL DUP2 MSTORE PUSH1 0x20 PUSH1 0x4 DUP3 ADD MSTORE PUSH1 0x20 PUSH1 0x24 DUP3 ADD MSTORE PUSH32 0x4F776E61626C653A2063616C6C6572206973206E6F7420746865206F776E6572 PUSH1 0x44 DUP3 ADD MSTORE REVERT JUMPDEST PUSH1 0x1 PUSH1 0x1 PUSH1 0xA0 SHL SUB AND SWAP1 DUP2 ISZERO PUSH2 0x2940 JUMPI PUSH1 0x0 MSTORE PUSH1 0x0 PUSH1 0x20 MSTORE PUSH1 0x40 PUSH1 0x0 KECCAK256 SWAP1 PUSH1 0x0 MSTORE PUSH1 0x20 MSTORE PUSH1 0x40 PUSH1 0x0 KECCAK256 SLOAD SWAP1 JUMP JUMPDEST PUSH1 0x40 MLOAD PUSH3 0x461BCD PUSH1 0xE5 SHL DUP2 MSTORE PUSH1 0x20 PUSH1 0x4 DUP3 ADD MSTORE PUSH1 0x2A PUSH1 0x24 DUP3 ADD MSTORE PUSH32 0x455243313135353A2061646472657373207A65726F206973206E6F7420612076 PUSH1 0x44 DUP3 ADD MSTORE PUSH10 0x30B634B21037BBB732B9 PUSH1 0xB1 SHL PUSH1 0x64 DUP3 ADD MSTORE PUSH1 0x84 SWAP1 REVERT JUMPDEST PUSH1 0x0 NOT DUP2 EQ PUSH2 0x2438 JUMPI PUSH1 0x1 ADD SWAP1 JUMP JUMPDEST DUP1 MLOAD DUP3 LT ISZERO PUSH2 0x244E JUMPI PUSH1 0x20 SWAP2 PUSH1 0x5 SHL ADD ADD SWAP1 JUMP JUMPDEST ISZERO PUSH2 0x29C2 JUMPI JUMP JUMPDEST PUSH1 0x40 MLOAD PUSH3 0x461BCD PUSH1 0xE5 SHL DUP2 MSTORE PUSH1 0x20 PUSH1 0x4 DUP3 ADD MSTORE PUSH1 0x2E PUSH1 0x24 DUP3 ADD MSTORE PUSH32 0x455243313135353A2063616C6C6572206973206E6F7420746F6B656E206F776E PUSH1 0x44 DUP3 ADD MSTORE PUSH14 0x195C881BDC88185C1C1C9BDD9959 PUSH1 0x92 SHL PUSH1 0x64 DUP3 ADD MSTORE PUSH1 0x84 SWAP1 REVERT JUMPDEST ISZERO PUSH2 0x2A25 JUMPI JUMP JUMPDEST PUSH1 0x40 MLOAD PUSH3 0x461BCD PUSH1 0xE5 SHL DUP2 MSTORE PUSH1 0x20 PUSH1 0x4 DUP3 ADD MSTORE PUSH1 0x25 PUSH1 0x24 DUP3 ADD MSTORE PUSH32 0x455243313135353A207472616E7366657220746F20746865207A65726F206164 PUSH1 0x44 DUP3 ADD MSTORE PUSH5 0x6472657373 PUSH1 0xD8 SHL PUSH1 0x64 DUP3 ADD MSTORE PUSH1 0x84 SWAP1 REVERT JUMPDEST ISZERO PUSH2 0x2A7F JUMPI JUMP JUMPDEST PUSH1 0x40 MLOAD PUSH3 0x461BCD PUSH1 0xE5 SHL DUP2 MSTORE PUSH1 0x20 PUSH1 0x4 DUP3 ADD MSTORE PUSH1 0x2A PUSH1 0x24 DUP3 ADD MSTORE PUSH32 0x455243313135353A20696E73756666696369656E742062616C616E636520666F PUSH1 0x44 DUP3 ADD MSTORE PUSH10 0x39103A3930B739B332B9 PUSH1 0xB1 SHL PUSH1 0x64 DUP3 ADD MSTORE PUSH1 0x84 SWAP1 REVERT JUMPDEST SWAP2 SWAP1 DUP3 ADD DUP1 SWAP3 GT PUSH2 0x2438 JUMPI JUMP JUMPDEST SWAP2 SWAP3 SWAP1 SWAP4 PUSH1 0x1 DUP1 PUSH1 0xA0 SHL SUB DUP1 DUP7 AND SWAP1 DUP2 ISZERO ISZERO SWAP5 PUSH2 0x2B00 DUP7 PUSH2 0x2A1E JUMP JUMPDEST PUSH2 0x2B09 DUP8 PUSH2 0x300B JUMP JUMPDEST SWAP2 DUP1 PUSH2 0x2B14 DUP8 PUSH2 0x300B JUMP JUMPDEST SWAP3 AND SWAP7 DUP8 ISZERO ISZERO SWAP1 DUP2 PUSH2 0x2E37 JUMPI JUMPDEST POP PUSH2 0x2CD8 JUMPI JUMPDEST POP POP POP PUSH1 0x0 SWAP3 DUP6 DUP5 MSTORE PUSH1 0x20 SWAP6 DUP5 DUP8 MSTORE PUSH1 0x40 SWAP8 DUP9 DUP7 KECCAK256 DUP8 DUP8 MSTORE DUP9 MSTORE DUP3 DUP10 DUP8 KECCAK256 SLOAD PUSH2 0x2B52 DUP3 DUP3 LT ISZERO PUSH2 0x2A78 JUMP JUMPDEST DUP4 DUP9 MSTORE DUP8 DUP11 MSTORE DUP11 DUP9 KECCAK256 DUP10 DUP10 MSTORE DUP11 MSTORE SUB DUP10 DUP8 KECCAK256 SSTORE DUP2 DUP7 MSTORE DUP6 DUP9 MSTORE DUP9 DUP7 KECCAK256 DUP5 DUP8 MSTORE DUP9 MSTORE DUP9 DUP7 KECCAK256 PUSH2 0x2B81 DUP5 DUP3 SLOAD PUSH2 0x2AD7 JUMP JUMPDEST SWAP1 SSTORE DUP4 DUP8 DUP11 MLOAD DUP5 DUP2 MSTORE DUP6 DUP12 DUP3 ADD MSTORE PUSH32 0xC3D58168C5AE7397731D063D5BBF3D657854427343F4C083240F7AACAA2D0F62 DUP13 CALLER SWAP3 LOG4 EXTCODESIZE PUSH2 0x2BC4 JUMPI JUMPDEST POP POP POP POP POP POP POP POP JUMP JUMPDEST SWAP2 DUP5 SWAP4 SWAP2 PUSH2 0x2C0C SWAP6 DUP9 SWAP10 SWAP11 SWAP9 SWAP5 DUP12 MLOAD SWAP8 DUP9 SWAP6 DUP7 SWAP5 DUP6 SWAP4 PUSH4 0xF23A6E61 PUSH1 0xE0 SHL SWAP13 DUP14 DUP7 MSTORE CALLER PUSH1 0x4 DUP8 ADD MSTORE PUSH1 0x24 DUP7 ADD MSTORE PUSH1 0x44 DUP6 ADD MSTORE PUSH1 0x64 DUP5 ADD MSTORE PUSH1 0xA0 PUSH1 0x84 DUP5 ADD MSTORE PUSH1 0xA4 DUP4 ADD SWAP1 PUSH2 0x2591 JUMP JUMPDEST SUB SWAP3 GAS CALL SWAP1 SWAP2 DUP2 PUSH2 0x2CB9 JUMPI JUMPDEST POP PUSH2 0x2C7F JUMPI POP POP POP PUSH2 0x2C28 PUSH2 0x2F2A JUMP JUMPDEST PUSH4 0x8C379A0 EQ PUSH2 0x2C4B JUMPI JUMPDEST POP MLOAD PUSH3 0x461BCD PUSH1 0xE5 SHL DUP2 MSTORE DUP1 PUSH2 0x583 PUSH1 0x4 DUP3 ADD PUSH2 0x2FB6 JUMP JUMPDEST PUSH2 0x2C53 PUSH2 0x2F48 JUMP JUMPDEST SWAP1 DUP2 PUSH2 0x2C5F JUMPI POP PUSH2 0x2C33 JUMP JUMPDEST PUSH2 0x583 DUP4 MLOAD SWAP3 DUP4 SWAP3 PUSH3 0x461BCD PUSH1 0xE5 SHL DUP5 MSTORE PUSH1 0x4 DUP5 ADD MSTORE PUSH1 0x24 DUP4 ADD SWAP1 PUSH2 0x2591 JUMP JUMPDEST SWAP2 SWAP4 SWAP3 POP PUSH1 0x1 PUSH1 0x1 PUSH1 0xE0 SHL SUB NOT SWAP1 SWAP2 AND SUB PUSH2 0x2CA2 JUMPI POP CODESIZE DUP1 DUP1 DUP1 DUP1 DUP1 DUP1 DUP1 PUSH2 0x2BBA JUMP JUMPDEST MLOAD PUSH3 0x461BCD PUSH1 0xE5 SHL DUP2 MSTORE DUP1 PUSH2 0x583 PUSH1 0x4 DUP3 ADD PUSH2 0x2EE1 JUMP JUMPDEST PUSH2 0x2CD1 SWAP2 SWAP3 POP DUP6 RETURNDATASIZE DUP8 GT PUSH2 0x63D JUMPI PUSH2 0x62E DUP2 DUP4 PUSH2 0x2639 JUMP JUMPDEST SWAP1 CODESIZE PUSH2 0x2C18 JUMP JUMPDEST SWAP5 SWAP1 SWAP6 SWAP7 SWAP2 SWAP9 SWAP4 PUSH1 0x0 SWAP9 SWAP4 SWAP9 JUMPDEST DUP11 MLOAD DUP2 LT ISZERO PUSH2 0x2E25 JUMPI DUP1 DUP10 DUP10 DUP3 DUP15 PUSH2 0x2D00 PUSH2 0x2D3C SWAP7 DUP3 PUSH2 0x29A7 JUMP JUMPDEST MLOAD PUSH1 0x0 MSTORE DUP12 PUSH1 0xA PUSH1 0x20 SWAP1 DUP1 DUP3 MSTORE PUSH1 0x40 SWAP3 DUP4 PUSH1 0x0 KECCAK256 DUP9 PUSH1 0x0 MSTORE DUP4 MSTORE DUP8 DUP5 PUSH1 0x0 KECCAK256 SWAP2 DUP3 SLOAD AND EQ DUP1 PUSH2 0x2E18 JUMPI JUMPDEST PUSH2 0x2D41 JUMPI JUMPDEST POP POP POP POP POP POP POP POP PUSH2 0x2998 JUMP JUMPDEST PUSH2 0x2CE5 JUMP JUMPDEST PUSH2 0x2D4B DUP7 DUP9 PUSH2 0x29A7 JUMP JUMPDEST MLOAD PUSH1 0x2 DUP3 DUP2 ADD DUP1 SLOAD SWAP2 SWAP10 SWAP1 SWAP3 DUP3 GT PUSH2 0x2DC7 JUMPI POP POP POP POP SWAP2 PUSH2 0x2D93 SWAP6 SWAP2 PUSH1 0x0 SWAP4 PUSH2 0x2D74 DUP8 DUP8 PUSH2 0x29A7 JUMP JUMPDEST MLOAD DUP6 MSTORE DUP2 MSTORE DUP2 DUP5 KECCAK256 SWAP1 DUP9 DUP6 MSTORE MSTORE DUP3 KECCAK256 DUP3 DUP2 SSTORE DUP3 PUSH1 0x1 DUP3 ADD SSTORE ADD SSTORE PUSH2 0x29A7 JUMP JUMPDEST MLOAD PUSH32 0x8E25282255AB31897DF2B0456BB993AC7F84D376861AEFD84901D2D63A7428A2 PUSH1 0x0 DUP1 LOG3 JUMPDEST DUP10 DUP10 DUP3 DUP15 CODESIZE DUP1 DUP1 DUP1 PUSH2 0x2D2F JUMP JUMPDEST PUSH2 0x2E05 SWAP4 SWAP10 POP PUSH1 0x1 SWAP5 POP DUP9 SWAP3 SWAP6 SWAP7 SWAP8 SWAP2 PUSH2 0x1FF8 PUSH32 0x36E94395FAFCB0D2A9BCFCDD5CEF807AB52A1F4382906992EBDC18DE5F1472C4 SWAP11 PUSH2 0x1FFF SWAP4 PUSH2 0x29A7 JUMP JUMPDEST MLOAD SWAP6 ADD SLOAD SWAP2 DUP4 MLOAD SWAP3 DUP4 MSTORE DUP3 ADD MSTORE LOG3 PUSH2 0x2DBA JUMP JUMPDEST POP PUSH1 0x2 DUP2 ADD SLOAD ISZERO ISZERO PUSH2 0x2D2A JUMP JUMPDEST POP SWAP4 SWAP9 POP SWAP4 POP SWAP5 SWAP4 POP SWAP5 CODESIZE DUP1 DUP1 PUSH2 0x2B27 JUMP JUMPDEST SWAP1 POP CODESIZE PUSH2 0x2B21 JUMP JUMPDEST ISZERO PUSH2 0x2E46 JUMPI JUMP JUMPDEST PUSH1 0x40 MLOAD PUSH3 0x461BCD PUSH1 0xE5 SHL DUP2 MSTORE PUSH1 0x20 PUSH1 0x4 DUP3 ADD MSTORE PUSH1 0x28 PUSH1 0x24 DUP3 ADD MSTORE PUSH32 0x455243313135353A2069647320616E6420616D6F756E7473206C656E67746820 PUSH1 0x44 DUP3 ADD MSTORE PUSH8 0xDAD2E6DAC2E8C6D PUSH1 0xC3 SHL PUSH1 0x64 DUP3 ADD MSTORE PUSH1 0x84 SWAP1 REVERT JUMPDEST SWAP1 SWAP2 PUSH2 0x2EB3 PUSH2 0x26DA SWAP4 PUSH1 0x40 DUP5 MSTORE PUSH1 0x40 DUP5 ADD SWAP1 PUSH2 0x2777 JUMP JUMPDEST SWAP2 PUSH1 0x20 DUP2 DUP5 SUB SWAP2 ADD MSTORE PUSH2 0x2777 JUMP JUMPDEST SWAP1 DUP2 PUSH1 0x20 SWAP2 SUB SLT PUSH2 0x18C JUMPI MLOAD PUSH1 0x1 PUSH1 0x1 PUSH1 0xE0 SHL SUB NOT DUP2 AND DUP2 SUB PUSH2 0x18C JUMPI SWAP1 JUMP JUMPDEST PUSH1 0x80 SWAP1 PUSH1 0x20 DUP2 MSTORE PUSH1 0x28 PUSH1 0x20 DUP3 ADD MSTORE PUSH32 0x455243313135353A204552433131353552656365697665722072656A65637465 PUSH1 0x40 DUP3 ADD MSTORE PUSH8 0x6420746F6B656E73 PUSH1 0xC0 SHL PUSH1 0x60 DUP3 ADD MSTORE ADD SWAP1 JUMP JUMPDEST PUSH1 0x0 SWAP1 PUSH1 0x3 RETURNDATASIZE GT PUSH2 0x2F37 JUMPI JUMP JUMPDEST SWAP1 POP PUSH1 0x4 PUSH1 0x0 DUP1 RETURNDATACOPY PUSH1 0x0 MLOAD PUSH1 0xE0 SHR SWAP1 JUMP JUMPDEST PUSH1 0x0 PUSH1 0x44 RETURNDATASIZE LT PUSH2 0x26DA JUMPI PUSH1 0x40 MLOAD PUSH1 0x3 NOT SWAP2 RETURNDATASIZE DUP4 ADD PUSH1 0x4 DUP4 RETURNDATACOPY DUP2 MLOAD PUSH1 0x1 PUSH1 0x1 PUSH1 0x40 SHL SUB SWAP2 DUP3 DUP3 GT RETURNDATASIZE PUSH1 0x24 DUP5 ADD GT OR PUSH2 0x2FA5 JUMPI DUP2 DUP5 ADD SWAP5 DUP6 MLOAD SWAP4 DUP5 GT PUSH2 0x2FAD JUMPI RETURNDATASIZE DUP6 ADD ADD PUSH1 0x20 DUP5 DUP8 ADD ADD GT PUSH2 0x2FA5 JUMPI POP PUSH2 0x26DA SWAP3 SWAP2 ADD PUSH1 0x20 ADD SWAP1 PUSH2 0x2639 JUMP JUMPDEST SWAP5 SWAP4 POP POP POP POP JUMP JUMPDEST POP SWAP5 SWAP4 POP POP POP POP JUMP JUMPDEST PUSH1 0x80 SWAP1 PUSH1 0x20 DUP2 MSTORE PUSH1 0x34 PUSH1 0x20 DUP3 ADD MSTORE PUSH32 0x455243313135353A207472616E7366657220746F206E6F6E2D45524331313535 PUSH1 0x40 DUP3 ADD MSTORE PUSH20 0x2932B1B2B4BB32B91034B6B83632B6B2B73A32B9 PUSH1 0x61 SHL PUSH1 0x60 DUP3 ADD MSTORE ADD SWAP1 JUMP JUMPDEST PUSH1 0x40 MLOAD SWAP1 PUSH2 0x3018 DUP3 PUSH2 0x25CC JUMP JUMPDEST PUSH1 0x1 DUP3 MSTORE PUSH1 0x20 DUP3 ADD PUSH1 0x20 CALLDATASIZE DUP3 CALLDATACOPY DUP3 MLOAD ISZERO PUSH2 0x244E JUMPI MSTORE SWAP1 JUMP JUMPDEST PUSH1 0x40 MLOAD SWAP1 PUSH2 0x303D DUP3 PUSH2 0x25CC JUMP JUMPDEST PUSH1 0x3 SLOAD PUSH1 0x1 PUSH1 0x1 PUSH1 0xA0 SHL SUB DUP2 AND DUP4 MSTORE PUSH1 0xA0 SHR PUSH1 0x20 DUP4 ADD MSTORE JUMP JUMPDEST SWAP1 PUSH1 0x40 MLOAD PUSH2 0x3063 DUP2 PUSH2 0x25CC JUMP JUMPDEST SWAP2 SLOAD PUSH1 0x1 PUSH1 0x1 PUSH1 0xA0 SHL SUB DUP2 AND DUP4 MSTORE PUSH1 0xA0 SHR PUSH1 0x20 DUP4 ADD MSTORE JUMP JUMPDEST DUP2 DUP2 MUL SWAP3 SWAP2 DUP2 ISZERO SWAP2 DUP5 DIV EQ OR ISZERO PUSH2 0x2438 JUMPI JUMP JUMPDEST SWAP2 SWAP1 SWAP2 PUSH1 0x0 MSTORE PUSH1 0x4 PUSH1 0x20 MSTORE PUSH2 0x30A6 PUSH1 0x40 PUSH1 0x0 KECCAK256 PUSH2 0x3056 JUMP JUMPDEST DUP1 MLOAD SWAP1 SWAP3 PUSH1 0x1 PUSH1 0x1 PUSH1 0xA0 SHL SUB SWAP2 DUP3 AND ISZERO PUSH2 0x30DE JUMPI JUMPDEST PUSH2 0x30D6 PUSH2 0x2710 SWAP2 PUSH1 0x1 PUSH1 0x1 PUSH1 0x60 SHL SUB PUSH1 0x20 DUP8 ADD MLOAD AND SWAP1 PUSH2 0x307B JUMP JUMPDEST DIV SWAP3 MLOAD AND SWAP2 SWAP1 JUMP JUMPDEST SWAP3 POP PUSH2 0x2710 PUSH2 0x30D6 PUSH2 0x30EE PUSH2 0x3030 JUMP JUMPDEST SWAP5 SWAP2 POP POP PUSH2 0x30BB JUMP JUMPDEST SWAP1 PUSH1 0x1F DUP2 GT PUSH2 0x3105 JUMPI POP POP POP JUMP JUMPDEST PUSH1 0x0 SWAP2 DUP3 MSTORE PUSH1 0x20 DUP3 KECCAK256 SWAP1 PUSH1 0x20 PUSH1 0x1F DUP6 ADD PUSH1 0x5 SHR DUP4 ADD SWAP5 LT PUSH2 0x3141 JUMPI JUMPDEST PUSH1 0x1F ADD PUSH1 0x5 SHR ADD SWAP2 JUMPDEST DUP3 DUP2 LT PUSH2 0x3136 JUMPI POP POP POP JUMP JUMPDEST DUP2 DUP2 SSTORE PUSH1 0x1 ADD PUSH2 0x312A JUMP JUMPDEST SWAP1 SWAP3 POP DUP3 SWAP1 PUSH2 0x3121 JUMP JUMPDEST PUSH1 0xFF PUSH1 0x7 SLOAD AND PUSH2 0x3157 JUMPI JUMP JUMPDEST PUSH1 0x40 MLOAD PUSH3 0x461BCD PUSH1 0xE5 SHL DUP2 MSTORE PUSH1 0x20 PUSH1 0x4 DUP3 ADD MSTORE PUSH1 0x10 PUSH1 0x24 DUP3 ADD MSTORE PUSH16 0x14185D5CD8589B194E881C185D5CD959 PUSH1 0x82 SHL PUSH1 0x44 DUP3 ADD MSTORE PUSH1 0x64 SWAP1 REVERT JUMPDEST SWAP2 SWAP1 DUP3 SUB SWAP2 DUP3 GT PUSH2 0x2438 JUMPI JUMP JUMPDEST SWAP2 SWAP1 DUP2 LT ISZERO PUSH2 0x244E JUMPI PUSH1 0x5 SHL ADD SWAP1 JUMP JUMPDEST RETURNDATASIZE ISZERO PUSH2 0x31D7 JUMPI RETURNDATASIZE SWAP1 PUSH2 0x31BD DUP3 PUSH2 0x26DD JUMP JUMPDEST SWAP2 PUSH2 0x31CB PUSH1 0x40 MLOAD SWAP4 DUP5 PUSH2 0x2639 JUMP JUMPDEST DUP3 MSTORE RETURNDATASIZE PUSH1 0x0 PUSH1 0x20 DUP5 ADD RETURNDATACOPY JUMP JUMPDEST PUSH1 0x60 SWAP1 JUMP JUMPDEST DUP2 DUP4 MSTORE SWAP1 SWAP2 PUSH1 0x1 PUSH1 0x1 PUSH1 0xFB SHL SUB DUP4 GT PUSH2 0x18C JUMPI PUSH1 0x20 SWAP3 PUSH1 0x5 SHL DUP1 SWAP3 DUP5 DUP4 ADD CALLDATACOPY ADD ADD SWAP1 JUMP JUMPDEST PUSH1 0x2 PUSH1 0x6 SLOAD EQ PUSH2 0x3211 JUMPI PUSH1 0x2 PUSH1 0x6 SSTORE JUMP JUMPDEST PUSH1 0x40 MLOAD PUSH3 0x461BCD PUSH1 0xE5 SHL DUP2 MSTORE PUSH1 0x20 PUSH1 0x4 DUP3 ADD MSTORE PUSH1 0x1F PUSH1 0x24 DUP3 ADD MSTORE PUSH32 0x5265656E7472616E637947756172643A207265656E7472616E742063616C6C00 PUSH1 0x44 DUP3 ADD MSTORE PUSH1 0x64 SWAP1 REVERT JUMPDEST ISZERO PUSH2 0x325D JUMPI JUMP JUMPDEST PUSH1 0x40 MLOAD PUSH3 0x461BCD PUSH1 0xE5 SHL DUP2 MSTORE PUSH1 0x20 PUSH1 0x4 DUP3 ADD MSTORE PUSH1 0x21 PUSH1 0x24 DUP3 ADD MSTORE PUSH32 0x455243313135353A206D696E7420746F20746865207A65726F20616464726573 PUSH1 0x44 DUP3 ADD MSTORE PUSH1 0x73 PUSH1 0xF8 SHL PUSH1 0x64 DUP3 ADD MSTORE PUSH1 0x84 SWAP1 REVERT JUMPDEST SWAP1 PUSH2 0x32B6 DUP3 PUSH2 0x26DD JUMP JUMPDEST PUSH2 0x32C3 PUSH1 0x40 MLOAD SWAP2 DUP3 PUSH2 0x2639 JUMP JUMPDEST DUP3 DUP2 MSTORE DUP1 SWAP3 PUSH2 0x32D4 PUSH1 0x1F NOT SWAP2 PUSH2 0x26DD JUMP JUMPDEST ADD SWAP1 PUSH1 0x20 CALLDATASIZE SWAP2 ADD CALLDATACOPY JUMP JUMPDEST DUP1 MLOAD ISZERO PUSH2 0x3410 JUMPI PUSH1 0x40 MLOAD PUSH2 0x32F1 DUP2 PUSH2 0x25E7 JUMP JUMPDEST PUSH1 0x40 DUP2 MSTORE PUSH32 0x4142434445464748494A4B4C4D4E4F505152535455565758595A616263646566 PUSH1 0x20 DUP3 ADD MSTORE PUSH32 0x6768696A6B6C6D6E6F707172737475767778797A303132333435363738392B2F PUSH1 0x40 DUP3 ADD MSTORE DUP2 MLOAD PUSH1 0x2 SWAP3 DUP4 DUP3 ADD DUP1 SWAP3 GT PUSH2 0x2438 JUMPI PUSH1 0x3 SWAP2 DUP3 SWAP1 DIV PUSH1 0x1 PUSH1 0x1 PUSH1 0xFE SHL SUB DUP2 AND DUP2 SUB PUSH2 0x2438 JUMPI PUSH2 0x3373 SWAP1 DUP6 SWAP5 SWAP6 SHL PUSH2 0x32AC JUMP JUMPDEST SWAP4 PUSH1 0x20 DUP6 ADD SWAP4 DUP3 SWAP2 DUP4 MLOAD DUP5 ADD SWAP3 JUMPDEST DUP4 DUP2 LT PUSH2 0x33BF JUMPI POP POP POP POP MLOAD MOD DUP1 PUSH1 0x1 EQ PUSH2 0x33AC JUMPI PUSH1 0x2 EQ PUSH2 0x33A1 JUMPI POP SWAP1 JUMP JUMPDEST PUSH1 0x3D SWAP1 PUSH1 0x0 NOT ADD MSTORE8 SWAP1 JUMP JUMPDEST POP PUSH1 0x3D SWAP1 DUP2 PUSH1 0x0 NOT DUP3 ADD MSTORE8 PUSH1 0x1 NOT ADD MSTORE8 SWAP1 JUMP JUMPDEST DUP6 PUSH1 0x4 SWAP2 SWAP8 SWAP3 SWAP4 SWAP5 SWAP8 ADD SWAP2 DUP3 MLOAD PUSH1 0x1 SWAP1 PUSH1 0x3F SWAP1 DUP3 DUP3 DUP3 PUSH1 0x12 SHR AND DUP9 ADD ADD MLOAD DUP5 MSTORE8 DUP3 DUP3 DUP3 PUSH1 0xC SHR AND DUP9 ADD ADD MLOAD DUP4 DUP6 ADD MSTORE8 DUP3 DUP3 DUP3 PUSH1 0x6 SHR AND DUP9 ADD ADD MLOAD DUP9 DUP6 ADD MSTORE8 AND DUP6 ADD ADD MLOAD DUP8 DUP3 ADD MSTORE8 ADD SWAP6 SWAP3 SWAP2 SWAP1 PUSH2 0x3381 JUMP JUMPDEST POP PUSH1 0x40 MLOAD PUSH2 0x341D DUP2 PUSH2 0x261E JUMP JUMPDEST PUSH1 0x0 DUP2 MSTORE SWAP1 JUMP JUMPDEST DUP1 PUSH1 0x0 SWAP2 PUSH27 0x184F03E93FF9F4DAA797ED6E38ED64BF6A1F010000000000000000 DUP1 DUP3 LT ISZERO PUSH2 0x3559 JUMPI JUMPDEST POP PUSH14 0x4EE2D6D415B85ACEF8100000000 DUP1 DUP4 LT ISZERO PUSH2 0x354A JUMPI JUMPDEST POP PUSH7 0x2386F26FC10000 DUP1 DUP4 LT ISZERO PUSH2 0x353B JUMPI JUMPDEST POP PUSH4 0x5F5E100 DUP1 DUP4 LT ISZERO PUSH2 0x352C JUMPI JUMPDEST POP PUSH2 0x2710 DUP1 DUP4 LT ISZERO PUSH2 0x351D JUMPI JUMPDEST POP PUSH1 0x64 DUP3 LT ISZERO PUSH2 0x350D JUMPI JUMPDEST PUSH1 0xA DUP1 SWAP3 LT ISZERO PUSH2 0x3503 JUMPI JUMPDEST PUSH1 0x1 SWAP1 DUP2 PUSH1 0x21 PUSH2 0x34BB DUP3 DUP8 ADD PUSH2 0x32AC JUMP JUMPDEST SWAP6 DUP7 ADD ADD SWAP1 JUMPDEST PUSH2 0x34CD JUMPI JUMPDEST POP POP POP POP SWAP1 JUMP JUMPDEST PUSH1 0x0 NOT ADD SWAP1 DUP4 SWAP1 PUSH16 0x181899199A1A9B1B9C1CB0B131B232B3 PUSH1 0x81 SHL DUP3 DUP3 MOD BYTE DUP4 MSTORE8 DIV SWAP2 DUP3 ISZERO PUSH2 0x34FE JUMPI SWAP2 SWAP1 DUP3 PUSH2 0x34C1 JUMP JUMPDEST PUSH2 0x34C6 JUMP JUMPDEST SWAP2 PUSH1 0x1 ADD SWAP2 PUSH2 0x34AA JUMP JUMPDEST SWAP2 SWAP1 PUSH1 0x64 PUSH1 0x2 SWAP2 DIV SWAP2 ADD SWAP2 PUSH2 0x349F JUMP JUMPDEST PUSH1 0x4 SWAP2 SWAP4 SWAP3 DIV SWAP2 ADD SWAP2 CODESIZE PUSH2 0x3494 JUMP JUMPDEST PUSH1 0x8 SWAP2 SWAP4 SWAP3 DIV SWAP2 ADD SWAP2 CODESIZE PUSH2 0x3487 JUMP JUMPDEST PUSH1 0x10 SWAP2 SWAP4 SWAP3 DIV SWAP2 ADD SWAP2 CODESIZE PUSH2 0x3478 JUMP JUMPDEST PUSH1 0x20 SWAP2 SWAP4 SWAP3 DIV SWAP2 ADD SWAP2 CODESIZE PUSH2 0x3466 JUMP JUMPDEST PUSH1 0x40 SWAP4 POP DUP2 DIV SWAP2 POP CODESIZE PUSH2 0x344D JUMP JUMPDEST SWAP1 PUSH1 0x40 SWAP2 PUSH1 0xE0 DUP4 MLOAD PUSH2 0x3578 DUP2 PUSH2 0x2602 JUMP JUMPDEST PUSH1 0x60 SWAP1 DUP2 DUP2 MSTORE PUSH1 0x20 SWAP1 DUP3 DUP3 DUP3 ADD MSTORE DUP3 DUP8 DUP3 ADD MSTORE DUP3 DUP1 DUP3 ADD MSTORE PUSH1 0x0 SWAP4 DUP2 DUP6 PUSH1 0x80 DUP2 SWAP5 ADD MSTORE DUP3 PUSH1 0xA0 DUP3 ADD MSTORE DUP3 PUSH1 0xC0 DUP3 ADD MSTORE ADD MSTORE DUP4 DUP4 MSTORE PUSH1 0x9 DUP2 MSTORE PUSH1 0x1 DUP1 PUSH1 0xA0 SHL SUB SWAP2 DUP3 DUP8 DUP6 KECCAK256 SLOAD AND ISZERO PUSH2 0x36AD JUMPI DUP5 DUP5 MSTORE PUSH1 0x9 DUP3 MSTORE DUP7 DUP5 KECCAK256 SWAP7 PUSH1 0x4 DUP4 MSTORE PUSH2 0x35DD DUP2 DUP7 KECCAK256 PUSH2 0x3056 JUMP JUMPDEST DUP4 DUP6 DUP3 MLOAD AND ISZERO PUSH2 0x3694 JUMPI JUMPDEST PUSH1 0x1 PUSH1 0x1 PUSH1 0x60 SHL SUB SWAP2 ADD MLOAD AND SWAP6 PUSH2 0x2710 DUP8 DUP2 MUL DIV DUP1 SWAP8 SUB PUSH2 0x3680 JUMPI PUSH2 0x363F SWAP8 SWAP9 PUSH2 0x3665 SWAP3 PUSH1 0x1 SWAP3 DUP9 MSTORE PUSH1 0xB DUP7 MSTORE DUP1 DUP1 DUP10 KECCAK256 SWAP9 PUSH1 0xC DUP9 MSTORE KECCAK256 SWAP7 DUP3 SLOAD AND SWAP6 PUSH2 0x364B PUSH1 0x4 DUP5 ADD SLOAD SWAP9 PUSH2 0x3644 PUSH1 0x5 DUP7 ADD SLOAD SWAP12 DUP6 MLOAD SWAP15 DUP16 PUSH2 0x2602 JUMP JUMPDEST PUSH2 0x27E5 JUMP JUMPDEST DUP14 MSTORE PUSH2 0x27E5 JUMP JUMPDEST SWAP1 DUP12 ADD MSTORE PUSH2 0x365B PUSH1 0x2 DUP4 ADD PUSH2 0x27E5 JUMP JUMPDEST SWAP1 DUP11 ADD MSTORE ADD PUSH2 0x27E5 JUMP JUMPDEST SWAP1 DUP7 ADD MSTORE PUSH1 0x80 DUP6 ADD MSTORE PUSH1 0xA0 DUP5 ADD MSTORE PUSH1 0xC0 DUP4 ADD MSTORE PUSH1 0xE0 DUP3 ADD MSTORE SWAP1 JUMP JUMPDEST PUSH4 0x4E487B71 PUSH1 0xE0 SHL DUP7 MSTORE PUSH1 0x11 PUSH1 0x4 MSTORE PUSH1 0x24 DUP7 REVERT JUMPDEST PUSH1 0x1 PUSH1 0x1 PUSH1 0x60 SHL SUB SWAP2 POP PUSH2 0x36A6 PUSH2 0x3030 JUMP JUMPDEST SWAP2 POP PUSH2 0x35E8 JUMP JUMPDEST DUP7 MLOAD PUSH4 0xF070CB6F PUSH1 0xE0 SHL DUP2 MSTORE PUSH1 0x4 SWAP1 REVERT INVALID LOG2 PUSH5 0x6970667358 0x22 SLT KECCAK256 0xCA PUSH6 0x871C749EF7BF 0xA8 DUP3 0xBF 0xF9 0xC3 0xC8 0xF6 SWAP1 SWAP1 0xD 0xC7 ADD PUSH19 0x9AC970DDA1CAD52B285CC964736F6C63430008 EQ STOP CALLER "},"methodIdentifiers":{"BASIS_POINTS()":"e1f1c4a7","MAX_BATCH_SIZE()":"cfdbf254","MAX_ROYALTY_BPS()":"3dca40e6","MIN_ROYALTY_BPS()":"f8349617","balanceOf(address,uint256)":"00fdd58e","balanceOfBatch(address[],uint256[])":"4e1273f4","batchMintNFTs(uint256[],uint256[])":"ecf7ba22","buyListedNFT(uint256,address,uint256)":"b6308e02","cancelListing(uint256)":"305a67a8","createMusicNFT(string,string,string,string,uint256,uint256,uint256)":"368d9b48","getListing(uint256,address)":"935b74c8","getNFTMetadata(uint256)":"6be9a6f1","isApprovedForAll(address,address)":"e985e9c5","listNFT(uint256,uint256,uint256)":"b0136c8d","listings(uint256,address)":"927fbfc8","mintNFT(uint256,uint256)":"c48283ff","musicNFTs(uint256)":"5d269138","owner()":"8da5cb5b","pause()":"8456cb59","paused()":"5c975abb","renounceOwnership()":"715018a6","royaltyInfo(uint256,uint256)":"2a55205a","safeBatchTransferFrom(address,address,uint256[],uint256[],bytes)":"2eb2c2d6","safeTransferFrom(address,address,uint256,uint256,bytes)":"f242432a","setApprovalForAll(address,bool)":"a22cb465","supportsInterface(bytes4)":"01ffc9a7","toggleNFTStatus(uint256)":"9b8262fd","transferOwnership(address)":"f2fde38b","unpause()":"3f4ba83a","updateNFTPrice(uint256,uint256)":"4ac0123d","uri(uint256)":"0e89341c"}}}}}