{"contracts/MusicNFTMarketplace.sol":{"MusicNFTMarketplace":{"abi":[{"inputs":[],"stateMutability":"nonpayable","type":"constructor"},{"inputs":[],"name":"ArrayLengthMismatch","type":"error"},{"inputs":[],"name":"BatchSizeTooLarge","type":"error"},{"inputs":[],"name":"InsufficientBalance","type":"error"},{"inputs":[],"name":"InsufficientPayment","type":"error"},{"inputs":[],"name":"InvalidAddress","type":"error"},{"inputs":[],"name":"InvalidInput","type":"error"},{"inputs":[],"name":"InvalidPrice","type":"error"},{"inputs":[],"name":"InvalidRoyalty","type":"error"},{"inputs":[],"name":"InvalidSupply","type":"error"},{"inputs":[],"name":"MaxSupplyExceeded","type":"error"},{"inputs":[],"name":"NFTNotActive","type":"error"},{"inputs":[],"name":"NFTNotFound","type":"error"},{"inputs":[],"name":"NotAuthorized","type":"error"},{"inputs":[],"name":"Overflow","type":"error"},{"inputs":[],"name":"TransferFailed","type":"error"},{"anonymous":false,"inputs":[{"indexed":true,"internalType":"address","name":"account","type":"address"},{"indexed":true,"internalType":"address","name":"operator","type":"address"},{"indexed":false,"internalType":"bool","name":"approved","type":"bool"}],"name":"ApprovalForAll","type":"event"},{"anonymous":false,"inputs":[{"indexed":true,"internalType":"address","name":"seller","type":"address"},{"indexed":false,"internalType":"uint256[]","name":"tokenIds","type":"uint256[]"},{"indexed":false,"internalType":"uint256[]","name":"amounts","type":"uint256[]"},{"indexed":false,"internalType":"uint256[]","name":"prices","type":"uint256[]"}],"name":"BatchListingCompleted","type":"event"},{"anonymous":false,"inputs":[{"indexed":true,"internalType":"address","name":"buyer","type":"address"},{"indexed":false,"internalType":"uint256[]","name":"tokenIds","type":"uint256[]"},{"indexed":false,"internalType":"uint256[]","name":"amounts","type":"uint256[]"}],"name":"BatchMintCompleted","type":"event"},{"anonymous":false,"inputs":[{"indexed":true,"internalType":"uint256","name":"tokenId","type":"uint256"},{"indexed":true,"internalType":"address","name":"seller","type":"address"}],"name":"ListingCancelled","type":"event"},{"anonymous":false,"inputs":[{"indexed":true,"internalType":"uint256","name":"tokenId","type":"uint256"},{"indexed":true,"internalType":"address","name":"creator","type":"address"},{"indexed":false,"internalType":"uint256","name":"price","type":"uint256"},{"indexed":false,"internalType":"uint256","name":"maxSupply","type":"uint256"}],"name":"NFTCreated","type":"event"},{"anonymous":false,"inputs":[{"indexed":true,"internalType":"uint256","name":"tokenId","type":"uint256"},{"indexed":true,"internalType":"address","name":"seller","type":"address"},{"indexed":false,"internalType":"uint256","name":"price","type":"uint256"},{"indexed":false,"internalType":"uint256","name":"amount","type":"uint256"}],"name":"NFTListed","type":"event"},{"anonymous":false,"inputs":[{"indexed":true,"internalType":"address","name":"minter","type":"address"},{"indexed":false,"internalType":"uint256","name":"tokenId","type":"uint256"},{"indexed":false,"internalType":"uint256","name":"amount","type":"uint256"}],"name":"NFTMinted","type":"event"},{"anonymous":false,"inputs":[{"indexed":true,"internalType":"uint256","name":"tokenId","type":"uint256"},{"indexed":false,"internalType":"uint256","name":"newPrice","type":"uint256"}],"name":"NFTPriceUpdated","type":"event"},{"anonymous":false,"inputs":[{"indexed":true,"internalType":"uint256","name":"tokenId","type":"uint256"},{"indexed":true,"internalType":"address","name":"seller","type":"address"},{"indexed":true,"internalType":"address","name":"buyer","type":"address"},{"indexed":false,"internalType":"uint256","name":"price","type":"uint256"},{"indexed":false,"internalType":"uint256","name":"amount","type":"uint256"}],"name":"NFTSold","type":"event"},{"anonymous":false,"inputs":[{"indexed":true,"internalType":"uint256","name":"tokenId","type":"uint256"},{"indexed":false,"internalType":"bool","name":"isActive","type":"bool"}],"name":"NFTStatusUpdated","type":"event"},{"anonymous":false,"inputs":[{"indexed":true,"internalType":"address","name":"previousOwner","type":"address"},{"indexed":true,"internalType":"address","name":"newOwner","type":"address"}],"name":"OwnershipTransferred","type":"event"},{"anonymous":false,"inputs":[{"indexed":false,"internalType":"address","name":"account","type":"address"}],"name":"Paused","type":"event"},{"anonymous":false,"inputs":[{"indexed":true,"internalType":"address","name":"operator","type":"address"},{"indexed":true,"internalType":"address","name":"from","type":"address"},{"indexed":true,"internalType":"address","name":"to","type":"address"},{"indexed":false,"internalType":"uint256[]","name":"ids","type":"uint256[]"},{"indexed":false,"internalType":"uint256[]","name":"values","type":"uint256[]"}],"name":"TransferBatch","type":"event"},{"anonymous":false,"inputs":[{"indexed":true,"internalType":"address","name":"operator","type":"address"},{"indexed":true,"internalType":"address","name":"from","type":"address"},{"indexed":true,"internalType":"address","name":"to","type":"address"},{"indexed":false,"internalType":"uint256","name":"id","type":"uint256"},{"indexed":false,"internalType":"uint256","name":"value","type":"uint256"}],"name":"TransferSingle","type":"event"},{"anonymous":false,"inputs":[{"indexed":false,"internalType":"string","name":"value","type":"string"},{"indexed":true,"internalType":"uint256","name":"id","type":"uint256"}],"name":"URI","type":"event"},{"anonymous":false,"inputs":[{"indexed":false,"internalType":"address","name":"account","type":"address"}],"name":"Unpaused","type":"event"},{"inputs":[],"name":"BASIS_POINTS","outputs":[{"internalType":"uint256","name":"","type":"uint256"}],"stateMutability":"view","type":"function"},{"inputs":[],"name":"MAX_BATCH_SIZE","outputs":[{"internalType":"uint256","name":"","type":"uint256"}],"stateMutability":"view","type":"function"},{"inputs":[],"name":"MAX_ROYALTY_BPS","outputs":[{"internalType":"uint256","name":"","type":"uint256"}],"stateMutability":"view","type":"function"},{"inputs":[],"name":"MIN_ROYALTY_BPS","outputs":[{"internalType":"uint256","name":"","type":"uint256"}],"stateMutability":"view","type":"function"},{"inputs":[{"internalType":"address","name":"account","type":"address"},{"internalType":"uint256","name":"id","type":"uint256"}],"name":"balanceOf","outputs":[{"internalType":"uint256","name":"","type":"uint256"}],"stateMutability":"view","type":"function"},{"inputs":[{"internalType":"address[]","name":"accounts","type":"address[]"},{"internalType":"uint256[]","name":"ids","type":"uint256[]"}],"name":"balanceOfBatch","outputs":[{"internalType":"uint256[]","name":"","type":"uint256[]"}],"stateMutability":"view","type":"function"},{"inputs":[{"internalType":"uint256[]","name":"_tokenIds","type":"uint256[]"},{"internalType":"uint256[]","name":"_amounts","type":"uint256[]"}],"name":"batchMintNFTs","outputs":[],"stateMutability":"payable","type":"function"},{"inputs":[{"internalType":"uint256","name":"_tokenId","type":"uint256"},{"internalType":"address","name":"_seller","type":"address"},{"internalType":"uint256","name":"_amount","type":"uint256"}],"name":"buyListedNFT","outputs":[],"stateMutability":"payable","type":"function"},{"inputs":[{"internalType":"uint256","name":"_tokenId","type":"uint256"}],"name":"cancelListing","outputs":[],"stateMutability":"nonpayable","type":"function"},{"inputs":[{"internalType":"string","name":"_name","type":"string"},{"internalType":"string","name":"_description","type":"string"},{"internalType":"string","name":"_musicUrl","type":"string"},{"internalType":"string","name":"_imageUrl","type":"string"},{"internalType":"uint256","name":"_price","type":"uint256"},{"internalType":"uint256","name":"_maxSupply","type":"uint256"},{"internalType":"uint256","name":"_royaltyBPS","type":"uint256"}],"name":"createMusicNFT","outputs":[{"internalType":"uint256","name":"","type":"uint256"}],"stateMutability":"nonpayable","type":"function"},{"inputs":[],"name":"getAllMusicNFTs","outputs":[{"components":[{"internalType":"uint256","name":"tokenId","type":"uint256"},{"internalType":"address","name":"creator","type":"address"},{"internalType":"string","name":"name","type":"string"},{"internalType":"string","name":"description","type":"string"},{"internalType":"string","name":"musicUrl","type":"string"},{"internalType":"string","name":"imageUrl","type":"string"},{"internalType":"uint256","name":"price","type":"uint256"},{"internalType":"uint256","name":"maxSupply","type":"uint256"},{"internalType":"uint256","name":"currentSupply","type":"uint256"},{"internalType":"uint256","name":"royaltyBPS","type":"uint256"},{"internalType":"bool","name":"isActive","type":"bool"}],"internalType":"struct MusicNFTMarketplace.MusicNFT[]","name":"","type":"tuple[]"}],"stateMutability":"view","type":"function"},{"inputs":[{"internalType":"uint256","name":"_tokenId","type":"uint256"}],"name":"getBalanceHolders","outputs":[{"internalType":"address[]","name":"","type":"address[]"}],"stateMutability":"view","type":"function"},{"inputs":[{"internalType":"uint256","name":"_tokenId","type":"uint256"},{"internalType":"address","name":"_seller","type":"address"}],"name":"getListing","outputs":[{"components":[{"internalType":"address","name":"seller","type":"address"},{"internalType":"uint256","name":"price","type":"uint256"},{"internalType":"uint256","name":"amount","type":"uint256"}],"internalType":"struct MusicNFTMarketplace.Listing","name":"","type":"tuple"}],"stateMutability":"view","type":"function"},{"inputs":[{"internalType":"uint256","name":"tokenId","type":"uint256"}],"name":"getNFTMetadata","outputs":[{"components":[{"internalType":"string","name":"name","type":"string"},{"internalType":"string","name":"description","type":"string"},{"internalType":"string","name":"imageUrl","type":"string"},{"internalType":"string","name":"musicUrl","type":"string"},{"internalType":"address","name":"creator","type":"address"},{"internalType":"uint256","name":"price","type":"uint256"},{"internalType":"uint256","name":"maxSupply","type":"uint256"},{"internalType":"uint256","name":"currentSupply","type":"uint256"},{"internalType":"uint256","name":"royaltyBPS","type":"uint256"},{"internalType":"bool","name":"isActive","type":"bool"}],"internalType":"struct MusicNFTMarketplace.NFTMetadata","name":"","type":"tuple"}],"stateMutability":"view","type":"function"},{"inputs":[{"internalType":"address","name":"account","type":"address"},{"internalType":"address","name":"operator","type":"address"}],"name":"isApprovedForAll","outputs":[{"internalType":"bool","name":"","type":"bool"}],"stateMutability":"view","type":"function"},{"inputs":[{"internalType":"uint256","name":"_tokenId","type":"uint256"},{"internalType":"uint256","name":"_amount","type":"uint256"},{"internalType":"uint256","name":"_price","type":"uint256"}],"name":"listNFT","outputs":[],"stateMutability":"nonpayable","type":"function"},{"inputs":[{"internalType":"uint256","name":"","type":"uint256"},{"internalType":"address","name":"","type":"address"}],"name":"listings","outputs":[{"internalType":"address","name":"seller","type":"address"},{"internalType":"uint256","name":"price","type":"uint256"},{"internalType":"uint256","name":"amount","type":"uint256"}],"stateMutability":"view","type":"function"},{"inputs":[{"internalType":"uint256","name":"_tokenId","type":"uint256"},{"internalType":"uint256","name":"_amount","type":"uint256"}],"name":"mintNFT","outputs":[],"stateMutability":"payable","type":"function"},{"inputs":[{"internalType":"uint256","name":"","type":"uint256"}],"name":"musicNFTs","outputs":[{"internalType":"uint256","name":"tokenId","type":"uint256"},{"internalType":"address","name":"creator","type":"address"},{"internalType":"string","name":"name","type":"string"},{"internalType":"string","name":"description","type":"string"},{"internalType":"string","name":"musicUrl","type":"string"},{"internalType":"string","name":"imageUrl","type":"string"},{"internalType":"uint256","name":"price","type":"uint256"},{"internalType":"uint256","name":"maxSupply","type":"uint256"},{"internalType":"uint256","name":"currentSupply","type":"uint256"},{"internalType":"uint256","name":"royaltyBPS","type":"uint256"},{"internalType":"bool","name":"isActive","type":"bool"}],"stateMutability":"view","type":"function"},{"inputs":[],"name":"owner","outputs":[{"internalType":"address","name":"","type":"address"}],"stateMutability":"view","type":"function"},{"inputs":[],"name":"pause","outputs":[],"stateMutability":"nonpayable","type":"function"},{"inputs":[],"name":"paused","outputs":[{"internalType":"bool","name":"","type":"bool"}],"stateMutability":"view","type":"function"},{"inputs":[],"name":"renounceOwnership","outputs":[],"stateMutability":"nonpayable","type":"function"},{"inputs":[{"internalType":"uint256","name":"tokenId","type":"uint256"},{"internalType":"uint256","name":"salePrice","type":"uint256"}],"name":"royaltyInfo","outputs":[{"internalType":"address","name":"","type":"address"},{"internalType":"uint256","name":"","type":"uint256"}],"stateMutability":"view","type":"function"},{"inputs":[{"internalType":"address","name":"from","type":"address"},{"internalType":"address","name":"to","type":"address"},{"internalType":"uint256[]","name":"ids","type":"uint256[]"},{"internalType":"uint256[]","name":"amounts","type":"uint256[]"},{"internalType":"bytes","name":"data","type":"bytes"}],"name":"safeBatchTransferFrom","outputs":[],"stateMutability":"nonpayable","type":"function"},{"inputs":[{"internalType":"address","name":"from","type":"address"},{"internalType":"address","name":"to","type":"address"},{"internalType":"uint256","name":"id","type":"uint256"},{"internalType":"uint256","name":"amount","type":"uint256"},{"internalType":"bytes","name":"data","type":"bytes"}],"name":"safeTransferFrom","outputs":[],"stateMutability":"nonpayable","type":"function"},{"inputs":[{"internalType":"address","name":"operator","type":"address"},{"internalType":"bool","name":"approved","type":"bool"}],"name":"setApprovalForAll","outputs":[],"stateMutability":"nonpayable","type":"function"},{"inputs":[{"internalType":"bytes4","name":"interfaceId","type":"bytes4"}],"name":"supportsInterface","outputs":[{"internalType":"bool","name":"","type":"bool"}],"stateMutability":"view","type":"function"},{"inputs":[{"internalType":"uint256","name":"_tokenId","type":"uint256"}],"name":"toggleNFTStatus","outputs":[],"stateMutability":"nonpayable","type":"function"},{"inputs":[{"internalType":"address","name":"newOwner","type":"address"}],"name":"transferOwnership","outputs":[],"stateMutability":"nonpayable","type":"function"},{"inputs":[],"name":"unpause","outputs":[],"stateMutability":"nonpayable","type":"function"},{"inputs":[{"internalType":"uint256","name":"_tokenId","type":"uint256"},{"internalType":"uint256","name":"_newPrice","type":"uint256"}],"name":"updateNFTPrice","outputs":[],"stateMutability":"nonpayable","type":"function"},{"inputs":[{"internalType":"uint256","name":"tokenId","type":"uint256"}],"name":"uri","outputs":[{"internalType":"string","name":"","type":"string"}],"stateMutability":"view","type":"function"}],"evm":{"bytecode":{"linkReferences":{},"object":"6080346200015357602081016001600160401b038111828210176200013d5760405260008091526002546001908181811c9116801562000132575b60208210146200011e57601f8111620000d0575b50600282905560058054336001600160a01b031982168117909255604051936001600160a01b03909116907f8be0079c531659141344cd1fd0a4f28419497f9722a3daafe3b4186f6b6457e09080a360065560ff19600754166007553315620000c1576040516140489081620001598239f35b63e6c4247b60e01b8152600490fd5b60028352601f0160051c7f405787fa12a823e0f2b7631cc41b3ba8828b3321ca811111fa75cd3aa3bb5ace9081019082905b828110620001125750506200004e565b84815501829062000102565b634e487b7160e01b83526022600452602483fd5b90607f16906200003a565b634e487b7160e01b600052604160045260246000fd5b600080fdfe6080604052600436101561001257600080fd5b60003560e01c8062fdd58e14612d6e57806301ffc9a714612cd15780630e89341c146129005780632a55205a146128d15780632eb2c2d61461249f578063305a67a8146123fc578063368d9b4814611bce5780633dca40e614611bb15780633f4ba83a14611b1d5780634ac0123d14611a925780634e1273f4146118f65780635c975abb146118d35780635d269138146117d65780636be9a6f1146117005780636c94b5cb14611549578063715018a6146114ec5780638456cb59146114925780638da5cb5b14611469578063927fbfc814611407578063935b74c81461136c5780639b8262fd146112c4578063a22cb465146111d7578063b0136c8d146110ce578063b6308e0214610eeb578063c48283ff14610be9578063cfdbf25414610bcd578063e1f1c4a714610bb0578063e985e9c514610b5a578063ecf7ba2214610604578063f242432a1461056b578063f2fde38b146104a7578063f59e506f146101a75763f83496171461018657600080fd5b346101a25760003660031901126101a257602060405160008152f35b600080fd5b346101a25760003660031901126101a2576008805460009160015b8281111561046457506101d483612ed1565b926101e26040519485612eb0565b8084526101f1601f1991612ed1565b0160005b818110610401575050600060015b83811115610308576040805160208082528751818301819052600093600582901b8401810192808b01929185015b82871061023e5785850386f35b909192938280600192603f1989820301855287519081518152848060a01b038383015116838201526102c16102ae61029b6102886040860151610160806040880152860190612dec565b6060808701519086830390870152612dec565b6080808601519085830390860152612dec565b60a0808501519084830390850152612dec565b9160c0808201519083015260e081015160e0830152610100808201519083015261012080820151908301526101408091015115159101529601920196019592919092610231565b600081815260096020818152604090922060018101549091906001600160a01b031680610342575b5050505061033d9061320f565b610203565b600a61033d9596936103f7959360ff936040519561035f87612e27565b835487528601526103726002830161305c565b60408601526103836003830161305c565b60608601526103946004830161305c565b60808601526103a56005830161305c565b60a0860152600682015460c0860152600782015460e08601528982015461010086015281015461012085015201541615156101408201526103e6828961321e565b526103f1818861321e565b5061320f565b9190868080610330565b60209060405161041081612e27565b60008152826000818301526060806040840152808084015280608084015260a0830152600060c0830152600060e08301526000610100830152600061012083015260006101408301528288010152016101f5565b6000818152600960205260409020600101546001600160a01b0316610492575b61048d9061320f565b6101c2565b9261049f61048d9161320f565b939050610484565b346101a25760203660031901126101a2576104c0612d9d565b6104c8613132565b6001600160a01b0390811690811561051757600554826001600160601b0360a01b821617600555167f8be0079c531659141344cd1fd0a4f28419497f9722a3daafe3b4186f6b6457e0600080a3005b60405162461bcd60e51b815260206004820152602660248201527f4f776e61626c653a206e6577206f776e657220697320746865207a65726f206160448201526564647265737360d01b6064820152608490fd5b346101a25760a03660031901126101a257610584612d9d565b61058c612db3565b90608435916001600160401b0383116101a2576105b06105dc933690600401612fa6565b916001600160a01b03811633811480156105de575b6105cf9150613232565b606435916044359161335b565b005b5060005260016020526040600020336000526020526105cf60ff604060002054166105c5565b6003196040368201126101a2576001600160401b03906004358281116101a257610632903690600401613102565b90926024359081116101a25761064c903690600401613102565b9190610656613b25565b61065e613a39565b828203610b485760148211610b365760009060005b8381106109fd57508134106109eb5761068d368488612ee8565b95610699368684612ee8565b946040516106a681612e95565b600081523315156106b681613b7b565b6106c38a5189511461372d565b806109d2575b610966575b60005b895181101561072457806106e861071f928a61321e565b516106f3828d61321e565b516000526020600081526040600020903360005252610718604060002091825461334e565b905561320f565b6106d1565b5088908789604051600033917f4a39dc06d4c0dbc64b70af90fd698a233a518aa5d07e595d983b8c0526c8f7fb33918061075f888b8361378a565b0390a4333b610803575b50505050906107c7946107be7f6583473987e443781108c9a74166cfb5d143516bbb4a3804805a2e0b34911563936107ae604051948594604086526040860191613b01565b9083820360208501523396613b01565b0390a234613ab4565b806107d4575b6001600655005b600080808093335af16107e5613ad1565b50156107f157806107cd565b6040516312171d8360e31b8152600490fd5b60209161086461085592604098979851958694859461084563bc197c8160e01b9a8b88523360048901526000602489015260a0604489015260a4880190612fee565b9084878303016064880152612fee565b91848303016084850152612dec565b03816000335af160009181610936575b506108e057610881613818565b6308c379a0146108a9575b60405162461bcd60e51b8152806108a5600482016138a4565b0390fd5b6108b1613836565b806108bc575061088c565b60405162461bcd60e51b8152602060048201529081906108a5906024830190612dec565b6001600160e01b0319160361091d5790846107be7f6583473987e443781108c9a74166cfb5d143516bbb4a3804805a2e0b349115636107c7610769565b60405162461bcd60e51b8152806108a5600482016137cf565b61095891925060203d811161095f575b6109508183612eb0565b8101906137af565b9088610874565b503d610946565b600d54600160401b8110156109bc578060016109859201600d55613a7d565b81549060031b9033821b9160018060a01b03901b191617905533600052600e6020526040600020600160ff198254161790556106ce565b634e487b7160e01b600052604160045260246000fd5b5033600052600e60205260ff60406000205416156106c9565b60405163cd1c886760e01b8152600490fd5b610a08818589613ac1565b35600052600960205260406000209260ff600a8501541615610b2457610a2f828785613ac1565b3515610b125760088401908154610a47848987613ac1565b358101600787015410610b0057610a838792610a7d868b610a708f9b600684910154928c613ac1565b350295868094019a613ac1565b3561397c565b938492610a91878c8a613ac1565b3501905581610ad7575b508103610aad575b5050600101610673565b600080809381930360018060a01b03600554165af1610aca613ad1565b50156107f1578780610aa3565b6000918291829182916001600160a01b03165af1610af3613ad1565b50156107f157818a610a9b565b604051638a164f6360e01b8152600490fd5b60405163b4fa3fb360e01b8152600490fd5b60405163ad9d099b60e01b8152600490fd5b604051631e80759560e21b8152600490fd5b60405163512509d360e11b8152600490fd5b346101a25760403660031901126101a257610b73612d9d565b610b7b612db3565b9060018060a01b03809116600052600160205260406000209116600052602052602060ff604060002054166040519015158152f35b346101a25760003660031901126101a25760206040516127108152f35b346101a25760003660031901126101a257602060405160148152f35b610bf236612e11565b90610bfb613b25565b610c03613a39565b8060005260209160098352604060002060ff600a8201541615610b24578115610b125760088101805491610c37848461334e565b600782015410610b0057836006610c4f920154613969565b918234106109eb5783610c619161334e565b9055610c6d818461397c565b509060008080808460018060a01b038097165af1610c89613ad1565b50156107f157803411610ec5575b5060405190610ca582612e95565b60008252331515610cb581613b7b565b610cbe856138f9565b50610cc8846138f9565b5080610ead575b610e5d575b50826000526000845260406000203360005284526040600020610cf883825461334e565b90556040518381528285820152600033917fc3d58168c5ae7397731d063d5bbf3d657854427343f4c083240f7aacaa2d0f6260403392a4333b610d6e575b50826040519283528201527f3a8a89b59a31c39a36febecb987e0657ab7b7c73b60ebacb44dcb9886c2d5c8a60403392a26001600655005b604051848180610dad63f23a6e6160e01b958683523360048401526000602484015288604484015287606484015260a0608484015260a4830190612dec565b03816000335af160009181610e3e575b50610e235784610dcb613818565b6308c379a014610dee5760405162461bcd60e51b8152806108a5600482016138a4565b610df6613836565b9081610e02575061088c565b6108a560405192839262461bcd60e51b845260048401526024830190612dec565b929391926001600160e01b0319160361091d57919083610d36565b610e56919250863d881161095f576109508183612eb0565b9086610dbd565b600d54600160401b8110156109bc57806001610e7c9201600d55613a7d565b819291549060031b9133831b921b191617905533600052600e84526040600020600160ff1982541617905584610cd4565b5033600052600e855260ff6040600020541615610ccf565b60008080610ed4819434613ab4565b335af1610edf613ad1565b50156107f15784610c97565b60603660031901126101a257600435610f02612db3565b604435610f0d613b25565b610f15613a39565b6001600160a01b03928284169182156110bc5733156110bc573383146110aa5781600052602093600a855260406000208460005285526040600020908487835416036110aa5760028201918383541061109857846000526009875260ff600a604060002001541615610b245783610f8c868461318a565b10611098576001019183835402978834106109eb57610fab898761397c565b919082611078575b50506000808080938c038a5af1610fc8613ad1565b50156107f157610fed8492838760405192610fe284612e95565b60008452339061335b565b80549082820390551461104d575b54936040519485528401527f5fafad85dec201c2e73b6a2bef6351129304a624ea8720ecd04cd7f04d83bc3960403394a480341161103a576001600655005b6000808080933403335af16107e5613ad1565b82600052600a8552604060002084600052855260006002604082208281558260018201550155610ffb565b6000808481948294165af161108b613ad1565b50156107f1578980610fb3565b604051631e9acf1760e31b8152600490fd5b60405163ea8e4eb560e01b8152600490fd5b60405163e6c4247b60e01b8152600490fd5b346101a25760603660031901126101a2576044356004356024356110f0613b25565b6110f8613a39565b80611103833361318a565b10611098578015610b125782156111c65781600052600960205260ff600a604060002001541615610b245760405161113a81612e5e565b338152600260208201858152604083019084825285600052600a60205260406000203360005260205260406000209360018060a01b039051166001600160601b0360a01b8554161784555160018401555191015560405192835260208301527f36e94395fafcb0d2a9bcfcdd5cef807ab52a1f4382906992ebdc18de5f1472c460403393a36001600655005b60405162bfc92160e01b8152600490fd5b346101a25760403660031901126101a2576111f0612d9d565b60243590811515908183036101a2576001600160a01b03169133831461126d5761123f9033600052600160205260406000208460005260205260406000209060ff801983541691151516179055565b6040519081527f17307eab39ab6107e8899845ad3d59bd9653f200f220920489ca2b5937696c3160203392a3005b60405162461bcd60e51b815260206004820152602960248201527f455243313135353a2073657474696e6720617070726f76616c20737461747573604482015268103337b91039b2b63360b91b6064820152608490fd5b346101a25760203660031901126101a2576004356112e0613a39565b60008181526009602052604090206001810154336001600160a01b039182161415908161135d575b506110aa57602060ff600a7fb98f2e7a31992fd0038957c8b37afbfde15601543d7e49508ff1093c402e6b8993016113508282541615829060ff801983541691151516179055565b54166040519015158152a2005b90506005541633141583611308565b346101a25760403660031901126101a2576060611387612db3565b60006040805161139681612e5e565b8281528260208201520152600435600052600a602052604060002060018060a01b03809216600052602052604060002090604051906113d482612e5e565b82541691828252604060026001830154926020850193845201549201918252604051928352516020830152516040820152f35b346101a25760403660031901126101a2576060611422612db3565b600435600052600a602052604060002060018060a01b0380921660005260205260406000209081541690600260018201549101549060405192835260208301526040820152f35b346101a25760003660031901126101a2576005546040516001600160a01b039091168152602090f35b346101a25760003660031901126101a2576114ab613132565b6114b3613a39565b600160ff1960075416176007557f62e78cea01bee320cd4e420270b5ea74000d11b0c9f74754ebdbfc544b05a2586020604051338152a1005b346101a25760003660031901126101a257611505613132565b600580546001600160a01b031981169091556000906001600160a01b03167f8be0079c531659141344cd1fd0a4f28419497f9722a3daafe3b4186f6b6457e08280a3005b346101a2576020806003193601126101a25760043590816000526009815260018060a01b039060019282846040600020015416156116ee579290916000936000600d54905b81811061169d575061159f86612ed1565b916115ad6040519384612eb0565b8683526115b987612ed1565b8387019790601f190136893760009283875b611612575b50505050506040519380850191818652518092526040850195926000905b8382106115fb5786880387f35b8451811688529682019693820193908501906115ee565b908181899b99969594939a97989a1080611694575b15611687578961163682613a7d565b90549060031b1c16611648858261318a565b611667575b506116579061320f565b90919293949799989695986115cb565b856116809161167a61165794988c61321e565b5261320f565b949061164d565b50989698979594976115d0565b50828510611627565b6116bf83856116b2849a989a99969799613a7d565b90549060031b1c1661318a565b6116d9575b6116cd9061320f565b9593959492919461158e565b936116e66116cd9161320f565b9490506116c4565b60405163f070cb6f60e01b8152600490fd5b346101a25760203660031901126101a25761171c600435613e8c565b604051809160208252805161178a61174261014092836020870152610160860190612dec565b611775611761602086015192601f1993848983030160408a0152612dec565b604086015183888303016060890152612dec565b90606085015190868303016080870152612dec565b9160018060a01b0360808201511660a085015260a081015160c085015260c081015160e085015260e0810151610100908186015281015190610120918286015201511515908301520390f35b346101a25760203660031901126101a2576004356000908152600960205260409020805460018201546001600160a01b0316916118156002820161305c565b6118216003830161305c565b9161182e6004820161305c565b9261183b6005830161305c565b93600683015494600784015491600885015493600986015495600a015460ff16966040519a8b9a8b5260208b01526101608060408c01528a0161187d91612dec565b89810360608b015261188e91612dec565b88810360808a015261189f91612dec565b87810360a08901526118b091612dec565b9460c087015260e086015261010085015261012084015215156101408301520390f35b346101a25760003660031901126101a257602060ff600754166040519015158152f35b346101a25760403660031901126101a2576004356001600160401b038082116101a257366023830112156101a25781600401359061193382612ed1565b926119416040519485612eb0565b82845260209260248486019160051b830101913683116101a257602401905b828210611a73575050506024359081116101a257611982903690600401612f36565b8251815103611a1c5782519261199784612ed1565b936119a56040519586612eb0565b8085526119b4601f1991612ed1565b01368486013760005b8151811015611a01576119fc906119f26001600160a01b036119df838661321e565b51166119eb838761321e565b519061318a565b61167a828861321e565b6119bd565b505050611a18604051928284938452830190612fee565b0390f35b60405162461bcd60e51b815260048101839052602960248201527f455243313135353a206163636f756e747320616e6420696473206c656e677468604482015268040dad2e6dac2e8c6d60bb1b6064820152608490fd5b81356001600160a01b03811681036101a2578152908401908401611960565b346101a257611aa036612e11565b611aa8613a39565b60008281526009602052604090206001810154336001600160a01b0391821614159081611b0e575b506110aa5781156111c657817f2847cfe8afe8bcd9ac540f0259739697ea019f65d44c8e76c8796b8ce52f7c319260066020930155604051908152a2005b90506005541633141584611ad0565b346101a25760003660031901126101a257611b36613132565b60075460ff811615611b755760ff19166007557f5db9ee0a495bf2e6ff9c91a7834c1ba4fdd244a5e8aa4e537bd38aeae4b073aa6020604051338152a1005b60405162461bcd60e51b815260206004820152601460248201527314185d5cd8589b194e881b9bdd081c185d5cd95960621b6044820152606490fd5b346101a25760003660031901126101a25760206040516109c48152f35b346101a25760e03660031901126101a2576004356001600160401b0381116101a257611bfe903690600401612fc1565b6024356001600160401b0381116101a257611c1d903690600401612fc1565b90926044356001600160401b0381116101a257611c3e903690600401612fc1565b6064949194356001600160401b0381116101a257611c60903690600401612fc1565b90611c69613a39565b33156110bc57831580156123f4575b80156123ec575b80156123e4575b610b1257608435156111c65760a435156123d2576109c460c435116123c057611d0091611cf4600160085401988960085560405195611cc487612e27565b8a8752336020880152611cd836898b612f6f565b6040880152611ce8368b8e612f6f565b60608801523691612f6f565b60808501523691612f6f565b60a082015260843560c082015260a43560e0820152600061010082015260c43561012082015260016101408201528460005260096020526040600020908051825560018060a01b036020820151166001600160601b0360a01b60018401541617600183015560408101518051906001600160401b0382116109bc578190611d9782611d8e6002880154613022565b600288016139e5565b602090601f831160011461234e57600092612343575b50508160011b916000199060031b1c19161760028301555b60608101518051906001600160401b0382116109bc578190611df782611dee6003880154613022565b600388016139e5565b602090601f83116001146122d1576000926122c6575b50508160011b916000199060031b1c19161760038301555b60808101518051906001600160401b0382116109bc578190611e5782611e4e6004880154613022565b600488016139e5565b602090601f831160011461225457600092612249575b50508160011b916000199060031b1c19161760048301555b60a08101518051906001600160401b0382116109bc57611eb582611eac6005870154613022565b600587016139e5565b602090601f83116001146121cf579282600a9361014093611f3297966000926121c4575b50508160011b916000199060031b1c19161760058501555b60c0810151600685015560e08101516007850155610100810151600885015561012081015160098501550151151591019060ff801983541691151516179055565b83600052600b6020526040600020916001600160401b0382116109bc578190611f6582611f5f8654613022565b866139e5565b600090601f831160011461215c57600092612151575b50508160011b916000199060031b1c19161790555b81600052600c6020526040600020906001600160401b0381116109bc57611fc181611fbb8454613022565b846139e5565b6000601f82116001146120eb57819293946000926120e0575b50508160011b916000199060031b1c19161790555b6001600160601b0360c435169061271082116120885760405160209261201482612e43565b338252838201908152826000526004845260406000209160018060a01b03905116906001600160601b0360a01b905160a01b16179055604051608435815260a43583820152817f23cbb18bfb096672f2fc538a6d637483d9db0f85666ae980eba20ae2874da1a460403393a3604051908152f35b60405162461bcd60e51b815260206004820152602a60248201527f455243323938313a20726f79616c7479206665652077696c6c206578636565646044820152692073616c65507269636560b01b6064820152608490fd5b013590508480611fda565b601f198216948360005260206000209160005b87811061213957508360019596971061211f575b505050811b019055611fef565b0135600019600384901b60f8161c19169055848080612112565b909260206001819286860135815501940191016120fe565b013590508680611f7b565b600085815260208120909450915b601f19841685106121ac576001945083601f19811610612192575b505050811b019055611f90565b0135600019600384901b60f8161c19169055868080612185565b8181013583556020948501946001909301920161216a565b015190508c80611ed9565b906005850160005260206000209160005b601f198516811061223157508361014093611f32979693600193600a97601f19811610612218575b505050811b016005850155611ef1565b015160001960f88460031b161c191690558c8080612208565b919260206001819286850151815501940192016121e0565b015190508980611e6d565b9250600485016000526020600020906000935b601f19841685106122ab576001945083601f19811610612292575b505050811b016004830155611e85565b015160001960f88460031b161c19169055898080612282565b81810151835560209485019460019093019290910190612267565b015190508980611e0d565b9250600385016000526020600020906000935b601f1984168510612328576001945083601f1981161061230f575b505050811b016003830155611e25565b015160001960f88460031b161c191690558980806122ff565b818101518355602094850194600190930192909101906122e4565b015190508980611dad565b9250600285016000526020600020906000935b601f19841685106123a5576001945083601f1981161061238c575b505050811b016002830155611dc5565b015160001960f88460031b161c1916905589808061237c565b81810151835560209485019460019093019290910190612361565b60405163e0e54ced60e01b8152600490fd5b6040516315ae672760e01b8152600490fd5b508115611c86565b508215611c7f565b508515611c78565b346101a25760203660031901126101a257600435612418613b25565b612420613a39565b80600052600a6020526040600020336000526020523360018060a01b0360406000205416036110aa5780600052600a6020526040600020336000526020526000600260408220828155826001820155015533907f8e25282255ab31897df2b0456bb993ac7f84d376861aefd84901d2d63a7428a2600080a36001600655005b346101a25760031960a0368201126101a2576124b9612d9d565b6124c1612db3565b906001600160401b03906044358281116101a2576124e3903690600401612f36565b6064358381116101a2576124fb903690600401612f36565b926084359081116101a257612514903690600401612fa6565b6001600160a01b03928316959033871480156128a8575b61253490613232565b612541835186511461372d565b8386169384151561255181613295565b808061288f575b612840575b8815159081612838575b506126d2575b5060005b835181101561260057806125886125fb928661321e565b51612593828961321e565b5190806000526020906000825260406000208c6000528252826040600020546125be828210156132ef565b82600052600084528d604060002090600052845203604060002055600052600081526040600020908860005252610718604060002091825461334e565b612571565b5090949392919382876040517f4a39dc06d4c0dbc64b70af90fd698a233a518aa5d07e595d983b8c0526c8f7fb33918061263b8a8c8361378a565b0390a43b61264557005b60006020946126876108559761084594604051998a988997889663bc197c8160e01b9e8f89523360048a0152602489015260a0604489015260a4880190612fee565b03925af1600091816126b2575b506126a157610881613818565b6001600160e01b0319160361091d57005b6126cb91925060203d811161095f576109508183612eb0565b9083612694565b96949390959160005b845181101561282a57806126f261272a928761321e565b51600052878a600a602090808252604060002084600052825283604060002093845416148061281d575b61272f575b5050505061320f565b6126db565b612739858c61321e565b51928b868c600296878501938454809210156000146127bd57505090915060009650612765925061321e565b518452815260408320908b8452526040822082815582600182015501558761278d828861321e565b517f8e25282255ab31897df2b0456bb993ac7f84d376861aefd84901d2d63a7428a2600080a35b878b8080612721565b7f36e94395fafcb0d2a9bcfcdd5cef807ab52a1f4382906992ebdc18de5f1472c497959850604096509161280284926127fb60019661280a9661321e565b5190613ab4565b80955561321e565b51950154918351928352820152a36127b4565b506002830154151561271c565b50919590939496508761256d565b905089612567565b600d54600160401b8110156109bc5780600161285f9201600d55613a7d565b81549060031b908489831b921b191617905585600052600e6020526040600020600160ff1982541617905561255d565b5085600052600e60205260ff6040600020541615612558565b5086600052600160205260406000203360005260205261253460ff60406000205416905061252b565b346101a25760406128ea6128e436612e11565b9061397c565b82516001600160a01b0390921682526020820152f35b346101a2576020806003193601126101a25760043590816000526009815260018060a01b0360019281846040600020015416156116ee5761294090613e8c565b908151918381015190604081015192606082015190608083015116966040519761296989612e5e565b602a8952878901916040368437895115612cbb57603083538951811015612cbb57607860218b01536029905b808211612c5d575050612c1a57869760c08401516129b290613d49565b9260e08501516129c190613d49565b9461010001516129d090613d49565b96896040519a8b9a683d913730b6b2911d1160b91b828d01528b81519260298492019201916129fe92612dc9565b8a0161088b60f21b988960298301526e113232b9b1b934b83a34b7b7111d1160891b602b83015280518093603a8401920191612a3992612dc9565b0187603a820152681134b6b0b3b2911d1160b91b603c820152815191828d60458401920191612a6792612dc9565b01866045820152701130b734b6b0ba34b7b72fbab936111d1160791b6047820152815191828c60588401920191612a9d92612dc9565b01908560588301526d2270726f70657274696573223a7b60901b605a8301526a1131b932b0ba37b9111d1160a91b606883015251918260738301612ae092612dc9565b018360738201526c1136b0bc29bab838363c911d1160991b6075820152815191828960828401920191612b1292612dc9565b01826082820152701131bab93932b73a29bab838363c911d1160791b6084820152815191828860958401920191612b4892612dc9565b019060958201526d113937bcb0b63a3ca12829911d1160911b6097820152815191828660a58401920191612b7b92612dc9565b01601160f91b60a582015260a68101617d7d60f01b90520360888101825260a801612ba69082612eb0565b612baf90613c03565b9060405180928282017f646174613a6170706c69636174696f6e2f6a736f6e3b6261736536342c00000090528051908184603d8501920191612bf092612dc9565b810103601d81018352603d01612c069083612eb0565b6040519181839283528201611a1891612dec565b6064876040519062461bcd60e51b825280600483015260248201527f537472696e67733a20686578206c656e67746820696e73756666696369656e746044820152fd5b9091600f81166010811015612cbb578b51841015612cbb576f181899199a1a9b1b9c1cb0b131b232b360811b901a8b84018b015360041c918015612ca5576000190190612995565b634e487b7160e01b600052601160045260246000fd5b634e487b7160e01b600052603260045260246000fd5b346101a25760203660031901126101a25760043563ffffffff60e01b81168091036101a25760209063152a902d60e11b81149081908115612d28575b508115612d20575b506040519015158152f35b905082612d15565b909150636cdb3d1360e11b8114908115612d5d575b8115612d4c575b509083612d0d565b6301ffc9a760e01b14905083612d44565b6303a24d0760e21b81149150612d3d565b346101a25760403660031901126101a2576020612d95612d8c612d9d565b6024359061318a565b604051908152f35b600435906001600160a01b03821682036101a257565b602435906001600160a01b03821682036101a257565b60005b838110612ddc5750506000910152565b8181015183820152602001612dcc565b90602091612e0581518092818552858086019101612dc9565b601f01601f1916010190565b60409060031901126101a2576004359060243590565b61016081019081106001600160401b038211176109bc57604052565b604081019081106001600160401b038211176109bc57604052565b606081019081106001600160401b038211176109bc57604052565b61014081019081106001600160401b038211176109bc57604052565b602081019081106001600160401b038211176109bc57604052565b90601f801991011681019081106001600160401b038211176109bc57604052565b6001600160401b0381116109bc5760051b60200190565b9291612ef382612ed1565b91612f016040519384612eb0565b829481845260208094019160051b81019283116101a257905b828210612f275750505050565b81358152908301908301612f1a565b9080601f830112156101a257816020612f5193359101612ee8565b90565b6001600160401b0381116109bc57601f01601f191660200190565b929192612f7b82612f54565b91612f896040519384612eb0565b8294818452818301116101a2578281602093846000960137010152565b9080601f830112156101a257816020612f5193359101612f6f565b9181601f840112156101a2578235916001600160401b0383116101a257602083818601950101116101a257565b90815180825260208080930193019160005b82811061300e575050505090565b835185529381019392810192600101613000565b90600182811c92168015613052575b602083101461303c57565b634e487b7160e01b600052602260045260246000fd5b91607f1691613031565b906040519182600082549261307084613022565b9081845260019485811690816000146130df575060011461309c575b505061309a92500383612eb0565b565b9093915060005260209081600020936000915b8183106130c757505061309a9350820101388061308c565b855488840185015294850194879450918301916130af565b91505061309a94506020925060ff191682840152151560051b820101388061308c565b9181601f840112156101a2578235916001600160401b0383116101a2576020808501948460051b0101116101a257565b6005546001600160a01b0316330361314657565b606460405162461bcd60e51b815260206004820152602060248201527f4f776e61626c653a2063616c6c6572206973206e6f7420746865206f776e65726044820152fd5b6001600160a01b03169081156131b757600052600060205260406000209060005260205260406000205490565b60405162461bcd60e51b815260206004820152602a60248201527f455243313135353a2061646472657373207a65726f206973206e6f742061207660448201526930b634b21037bbb732b960b11b6064820152608490fd5b6000198114612ca55760010190565b8051821015612cbb5760209160051b010190565b1561323957565b60405162461bcd60e51b815260206004820152602e60248201527f455243313135353a2063616c6c6572206973206e6f7420746f6b656e206f776e60448201526d195c881bdc88185c1c1c9bdd995960921b6064820152608490fd5b1561329c57565b60405162461bcd60e51b815260206004820152602560248201527f455243313135353a207472616e7366657220746f20746865207a65726f206164604482015264647265737360d81b6064820152608490fd5b156132f657565b60405162461bcd60e51b815260206004820152602a60248201527f455243313135353a20696e73756666696369656e742062616c616e636520666f60448201526939103a3930b739b332b960b11b6064820152608490fd5b91908201809211612ca557565b9192909360018060a01b03808616908115159461337786613295565b613380876138f9565b918061338b876138f9565b928880613714575b6136c2575b169687151590816136ba575b5061355b575b505050600092858452602095848752604097888620878752885282898720546133d5828210156132ef565b838852878a528a88208989528a520389872055818652858852888620848752885288862061340484825461334e565b905583878a51848152858b8201527fc3d58168c5ae7397731d063d5bbf3d657854427343f4c083240f7aacaa2d0f628c3392a43b613447575b5050505050505050565b9184939161348f9588999a98948b519788958694859363f23a6e6160e01b9c8d865233600487015260248601526044850152606484015260a0608484015260a4830190612dec565b03925af190918161353c575b50613502575050506134ab613818565b6308c379a0146134ce575b505162461bcd60e51b8152806108a5600482016138a4565b6134d6613836565b90816134e257506134b6565b6108a5835192839262461bcd60e51b845260048401526024830190612dec565b919392506001600160e01b0319909116036135255750388080808080808061343d565b5162461bcd60e51b8152806108a5600482016137cf565b613554919250853d871161095f576109508183612eb0565b903861349b565b9490959691989360009893985b8a518110156136a857808989828e6135836135bf968261321e565b516000528b600a60209080825260409283600020886000528352878460002091825416148061369b575b6135c4575b505050505050505061320f565b613568565b6135ce868861321e565b516002828101805491999092821161364a57505050509161361695916000936135f7878761321e565b518552815281842090888552528220828155826001820155015561321e565b517f8e25282255ab31897df2b0456bb993ac7f84d376861aefd84901d2d63a7428a2600080a35b8989828e388080806135b2565b613688939950600194508892959697916127fb7f36e94395fafcb0d2a9bcfcdd5cef807ab52a1f4382906992ebdc18de5f1472c49a6128029361321e565b51950154918351928352820152a361363d565b50600281015415156135ad565b509398509350949350943880806133aa565b9050386133a4565b600d549150600160401b8210156109bc576136e4826001859401600d55613a7d565b81549060031b908489831b921b191617905585600052600e6020526040600020600160ff19825416179055613398565b5085600052600e60205260ff6040600020541615613393565b1561373457565b60405162461bcd60e51b815260206004820152602860248201527f455243313135353a2069647320616e6420616d6f756e7473206c656e677468206044820152670dad2e6dac2e8c6d60c31b6064820152608490fd5b90916137a1612f5193604084526040840190612fee565b916020818403910152612fee565b908160209103126101a257516001600160e01b0319811681036101a25790565b60809060208152602860208201527f455243313135353a204552433131353552656365697665722072656a656374656040820152676420746f6b656e7360c01b60608201520190565b60009060033d1161382557565b905060046000803e60005160e01c90565b600060443d10612f5157604051600319913d83016004833e81516001600160401b03918282113d6024840111176138935781840194855193841161389b573d850101602084870101116138935750612f5192910160200190612eb0565b949350505050565b50949350505050565b60809060208152603460208201527f455243313135353a207472616e7366657220746f206e6f6e2d455243313135356040820152732932b1b2b4bb32b91034b6b83632b6b2b73a32b960611b60608201520190565b6040519061390682612e43565b60018252602082016020368237825115612cbb575290565b6040519061392b82612e43565b6003546001600160a01b038116835260a01c6020830152565b9060405161395181612e43565b91546001600160a01b038116835260a01c6020830152565b81810292918115918404141715612ca557565b91909160005260046020526139946040600020613944565b805190926001600160a01b03918216156139cc575b6139c4612710916001600160601b0360208701511690613969565b049251169190565b92506127106139c46139dc61391e565b949150506139a9565b90601f81116139f357505050565b600091825260208220906020601f850160051c83019410613a2f575b601f0160051c01915b828110613a2457505050565b818155600101613a18565b9092508290613a0f565b60ff60075416613a4557565b60405162461bcd60e51b815260206004820152601060248201526f14185d5cd8589b194e881c185d5cd95960821b6044820152606490fd5b600d54811015612cbb57600d6000527fd7b6990105719101dabeb77144f2a3385c8033acd3af97e9423a695e81ad1eb50190600090565b91908203918211612ca557565b9190811015612cbb5760051b0190565b3d15613afc573d90613ae282612f54565b91613af06040519384612eb0565b82523d6000602084013e565b606090565b81835290916001600160fb1b0383116101a25760209260051b809284830137010190565b600260065414613b36576002600655565b60405162461bcd60e51b815260206004820152601f60248201527f5265656e7472616e637947756172643a207265656e7472616e742063616c6c006044820152606490fd5b15613b8257565b60405162461bcd60e51b815260206004820152602160248201527f455243313135353a206d696e7420746f20746865207a65726f206164647265736044820152607360f81b6064820152608490fd5b90613bdb82612f54565b613be86040519182612eb0565b8281528092613bf9601f1991612f54565b0190602036910137565b805115613d3557604051613c1681612e5e565b604081527f4142434445464748494a4b4c4d4e4f505152535455565758595a61626364656660208201527f6768696a6b6c6d6e6f707172737475767778797a303132333435363738392b2f60408201528151600292838201809211612ca5576003918290046001600160fe1b0381168103612ca557613c98908594951b613bd1565b936020850193829183518401925b838110613ce45750505050510680600114613cd157600214613cc6575090565b603d90600019015390565b50603d9081600019820153600119015390565b85600491979293949701918251600190603f9082828260121c16880101518453828282600c1c16880101518385015382828260061c1688010151888501531685010151878201530195929190613ca6565b50604051613d4281612e95565b6000815290565b806000917a184f03e93ff9f4daa797ed6e38ed64bf6a1f01000000000000000080821015613e7e575b506d04ee2d6d415b85acef810000000080831015613e6f575b50662386f26fc1000080831015613e60575b506305f5e10080831015613e51575b5061271080831015613e42575b506064821015613e32575b600a80921015613e28575b600190816021613de0828701613bd1565b95860101905b613df2575b5050505090565b600019019083906f181899199a1a9b1b9c1cb0b131b232b360811b8282061a835304918215613e2357919082613de6565b613deb565b9160010191613dcf565b9190606460029104910191613dc4565b60049193920491019138613db9565b60089193920491019138613dac565b60109193920491019138613d9d565b60209193920491019138613d8b565b604093508104915038613d72565b604090815190613e9b82612e79565b6060908183526020938285850152828185015282808501526000948560808601528560a08601528560c08601528560e086015261010091868387015286610120809701528387526009825260018060a01b0394856001838a200154161561400157848852600983528188209060048452613f16838a20613944565b848882511615613fe8575b6001600160601b03910151169561271087810204809703613fd4578952600b845282808a2099600c8652209660018301541690600683015492600781015494600882015496600a83015460ff169a8251809e613f7c82612e79565b613f859061305c565b9052613f909061305c565b908d0152613fa06005830161305c565b908c0152600401613fb09061305c565b908a0152608089015260a088015260c087015260e086015284015215159082015290565b634e487b7160e01b8a52601160045260248afd5b6001600160601b039150613ffa61391e565b9150613f21565b815163f070cb6f60e01b8152600490fdfea2646970667358221220dd14c749245e77bd4b1b8d5180333df445bc5bd73f9646a0d64e4655568f0c3f64736f6c63430008140033","opcodes":"PUSH1 0x80 CALLVALUE PUSH3 0x153 JUMPI PUSH1 0x20 DUP2 ADD PUSH1 0x1 PUSH1 0x1 PUSH1 0x40 SHL SUB DUP2 GT DUP3 DUP3 LT OR PUSH3 0x13D JUMPI PUSH1 0x40 MSTORE PUSH1 0x0 DUP1 SWAP2 MSTORE PUSH1 0x2 SLOAD PUSH1 0x1 SWAP1 DUP2 DUP2 DUP2 SHR SWAP2 AND DUP1 ISZERO PUSH3 0x132 JUMPI JUMPDEST PUSH1 0x20 DUP3 LT EQ PUSH3 0x11E JUMPI PUSH1 0x1F DUP2 GT PUSH3 0xD0 JUMPI JUMPDEST POP PUSH1 0x2 DUP3 SWAP1 SSTORE PUSH1 0x5 DUP1 SLOAD CALLER PUSH1 0x1 PUSH1 0x1 PUSH1 0xA0 SHL SUB NOT DUP3 AND DUP2 OR SWAP1 SWAP3 SSTORE PUSH1 0x40 MLOAD SWAP4 PUSH1 0x1 PUSH1 0x1 PUSH1 0xA0 SHL SUB SWAP1 SWAP2 AND SWAP1 PUSH32 0x8BE0079C531659141344CD1FD0A4F28419497F9722A3DAAFE3B4186F6B6457E0 SWAP1 DUP1 LOG3 PUSH1 0x6 SSTORE PUSH1 0xFF NOT PUSH1 0x7 SLOAD AND PUSH1 0x7 SSTORE CALLER ISZERO PUSH3 0xC1 JUMPI PUSH1 0x40 MLOAD PUSH2 0x4048 SWAP1 DUP2 PUSH3 0x159 DUP3 CODECOPY RETURN JUMPDEST PUSH4 0xE6C4247B PUSH1 0xE0 SHL DUP2 MSTORE PUSH1 0x4 SWAP1 REVERT JUMPDEST PUSH1 0x2 DUP4 MSTORE PUSH1 0x1F ADD PUSH1 0x5 SHR PUSH32 0x405787FA12A823E0F2B7631CC41B3BA8828B3321CA811111FA75CD3AA3BB5ACE SWAP1 DUP2 ADD SWAP1 DUP3 SWAP1 JUMPDEST DUP3 DUP2 LT PUSH3 0x112 JUMPI POP POP PUSH3 0x4E JUMP JUMPDEST DUP5 DUP2 SSTORE ADD DUP3 SWAP1 PUSH3 0x102 JUMP JUMPDEST PUSH4 0x4E487B71 PUSH1 0xE0 SHL DUP4 MSTORE PUSH1 0x22 PUSH1 0x4 MSTORE PUSH1 0x24 DUP4 REVERT JUMPDEST SWAP1 PUSH1 0x7F AND SWAP1 PUSH3 0x3A JUMP JUMPDEST PUSH4 0x4E487B71 PUSH1 0xE0 SHL PUSH1 0x0 MSTORE PUSH1 0x41 PUSH1 0x4 MSTORE PUSH1 0x24 PUSH1 0x0 REVERT JUMPDEST PUSH1 0x0 DUP1 REVERT INVALID PUSH1 0x80 PUSH1 0x40 MSTORE PUSH1 0x4 CALLDATASIZE LT ISZERO PUSH2 0x12 JUMPI PUSH1 0x0 DUP1 REVERT JUMPDEST PUSH1 0x0 CALLDATALOAD PUSH1 0xE0 SHR DUP1 PUSH3 0xFDD58E EQ PUSH2 0x2D6E JUMPI DUP1 PUSH4 0x1FFC9A7 EQ PUSH2 0x2CD1 JUMPI DUP1 PUSH4 0xE89341C EQ PUSH2 0x2900 JUMPI DUP1 PUSH4 0x2A55205A EQ PUSH2 0x28D1 JUMPI DUP1 PUSH4 0x2EB2C2D6 EQ PUSH2 0x249F JUMPI DUP1 PUSH4 0x305A67A8 EQ PUSH2 0x23FC JUMPI DUP1 PUSH4 0x368D9B48 EQ PUSH2 0x1BCE JUMPI DUP1 PUSH4 0x3DCA40E6 EQ PUSH2 0x1BB1 JUMPI DUP1 PUSH4 0x3F4BA83A EQ PUSH2 0x1B1D JUMPI DUP1 PUSH4 0x4AC0123D EQ PUSH2 0x1A92 JUMPI DUP1 PUSH4 0x4E1273F4 EQ PUSH2 0x18F6 JUMPI DUP1 PUSH4 0x5C975ABB EQ PUSH2 0x18D3 JUMPI DUP1 PUSH4 0x5D269138 EQ PUSH2 0x17D6 JUMPI DUP1 PUSH4 0x6BE9A6F1 EQ PUSH2 0x1700 JUMPI DUP1 PUSH4 0x6C94B5CB EQ PUSH2 0x1549 JUMPI DUP1 PUSH4 0x715018A6 EQ PUSH2 0x14EC JUMPI DUP1 PUSH4 0x8456CB59 EQ PUSH2 0x1492 JUMPI DUP1 PUSH4 0x8DA5CB5B EQ PUSH2 0x1469 JUMPI DUP1 PUSH4 0x927FBFC8 EQ PUSH2 0x1407 JUMPI DUP1 PUSH4 0x935B74C8 EQ PUSH2 0x136C JUMPI DUP1 PUSH4 0x9B8262FD EQ PUSH2 0x12C4 JUMPI DUP1 PUSH4 0xA22CB465 EQ PUSH2 0x11D7 JUMPI DUP1 PUSH4 0xB0136C8D EQ PUSH2 0x10CE JUMPI DUP1 PUSH4 0xB6308E02 EQ PUSH2 0xEEB JUMPI DUP1 PUSH4 0xC48283FF EQ PUSH2 0xBE9 JUMPI DUP1 PUSH4 0xCFDBF254 EQ PUSH2 0xBCD JUMPI DUP1 PUSH4 0xE1F1C4A7 EQ PUSH2 0xBB0 JUMPI DUP1 PUSH4 0xE985E9C5 EQ PUSH2 0xB5A JUMPI DUP1 PUSH4 0xECF7BA22 EQ PUSH2 0x604 JUMPI DUP1 PUSH4 0xF242432A EQ PUSH2 0x56B JUMPI DUP1 PUSH4 0xF2FDE38B EQ PUSH2 0x4A7 JUMPI DUP1 PUSH4 0xF59E506F EQ PUSH2 0x1A7 JUMPI PUSH4 0xF8349617 EQ PUSH2 0x186 JUMPI PUSH1 0x0 DUP1 REVERT JUMPDEST CALLVALUE PUSH2 0x1A2 JUMPI PUSH1 0x0 CALLDATASIZE PUSH1 0x3 NOT ADD SLT PUSH2 0x1A2 JUMPI PUSH1 0x20 PUSH1 0x40 MLOAD PUSH1 0x0 DUP2 MSTORE RETURN JUMPDEST PUSH1 0x0 DUP1 REVERT JUMPDEST CALLVALUE PUSH2 0x1A2 JUMPI PUSH1 0x0 CALLDATASIZE PUSH1 0x3 NOT ADD SLT PUSH2 0x1A2 JUMPI PUSH1 0x8 DUP1 SLOAD PUSH1 0x0 SWAP2 PUSH1 0x1 JUMPDEST DUP3 DUP2 GT ISZERO PUSH2 0x464 JUMPI POP PUSH2 0x1D4 DUP4 PUSH2 0x2ED1 JUMP JUMPDEST SWAP3 PUSH2 0x1E2 PUSH1 0x40 MLOAD SWAP5 DUP6 PUSH2 0x2EB0 JUMP JUMPDEST DUP1 DUP5 MSTORE PUSH2 0x1F1 PUSH1 0x1F NOT SWAP2 PUSH2 0x2ED1 JUMP JUMPDEST ADD PUSH1 0x0 JUMPDEST DUP2 DUP2 LT PUSH2 0x401 JUMPI POP POP PUSH1 0x0 PUSH1 0x1 JUMPDEST DUP4 DUP2 GT ISZERO PUSH2 0x308 JUMPI PUSH1 0x40 DUP1 MLOAD PUSH1 0x20 DUP1 DUP3 MSTORE DUP8 MLOAD DUP2 DUP4 ADD DUP2 SWAP1 MSTORE PUSH1 0x0 SWAP4 PUSH1 0x5 DUP3 SWAP1 SHL DUP5 ADD DUP2 ADD SWAP3 DUP1 DUP12 ADD SWAP3 SWAP2 DUP6 ADD JUMPDEST DUP3 DUP8 LT PUSH2 0x23E JUMPI DUP6 DUP6 SUB DUP7 RETURN JUMPDEST SWAP1 SWAP2 SWAP3 SWAP4 DUP3 DUP1 PUSH1 0x1 SWAP3 PUSH1 0x3F NOT DUP10 DUP3 SUB ADD DUP6 MSTORE DUP8 MLOAD SWAP1 DUP2 MLOAD DUP2 MSTORE DUP5 DUP1 PUSH1 0xA0 SHL SUB DUP4 DUP4 ADD MLOAD AND DUP4 DUP3 ADD MSTORE PUSH2 0x2C1 PUSH2 0x2AE PUSH2 0x29B PUSH2 0x288 PUSH1 0x40 DUP7 ADD MLOAD PUSH2 0x160 DUP1 PUSH1 0x40 DUP9 ADD MSTORE DUP7 ADD SWAP1 PUSH2 0x2DEC JUMP JUMPDEST PUSH1 0x60 DUP1 DUP8 ADD MLOAD SWAP1 DUP7 DUP4 SUB SWAP1 DUP8 ADD MSTORE PUSH2 0x2DEC JUMP JUMPDEST PUSH1 0x80 DUP1 DUP7 ADD MLOAD SWAP1 DUP6 DUP4 SUB SWAP1 DUP7 ADD MSTORE PUSH2 0x2DEC JUMP JUMPDEST PUSH1 0xA0 DUP1 DUP6 ADD MLOAD SWAP1 DUP5 DUP4 SUB SWAP1 DUP6 ADD MSTORE PUSH2 0x2DEC JUMP JUMPDEST SWAP2 PUSH1 0xC0 DUP1 DUP3 ADD MLOAD SWAP1 DUP4 ADD MSTORE PUSH1 0xE0 DUP2 ADD MLOAD PUSH1 0xE0 DUP4 ADD MSTORE PUSH2 0x100 DUP1 DUP3 ADD MLOAD SWAP1 DUP4 ADD MSTORE PUSH2 0x120 DUP1 DUP3 ADD MLOAD SWAP1 DUP4 ADD MSTORE PUSH2 0x140 DUP1 SWAP2 ADD MLOAD ISZERO ISZERO SWAP2 ADD MSTORE SWAP7 ADD SWAP3 ADD SWAP7 ADD SWAP6 SWAP3 SWAP2 SWAP1 SWAP3 PUSH2 0x231 JUMP JUMPDEST PUSH1 0x0 DUP2 DUP2 MSTORE PUSH1 0x9 PUSH1 0x20 DUP2 DUP2 MSTORE PUSH1 0x40 SWAP1 SWAP3 KECCAK256 PUSH1 0x1 DUP2 ADD SLOAD SWAP1 SWAP2 SWAP1 PUSH1 0x1 PUSH1 0x1 PUSH1 0xA0 SHL SUB AND DUP1 PUSH2 0x342 JUMPI JUMPDEST POP POP POP POP PUSH2 0x33D SWAP1 PUSH2 0x320F JUMP JUMPDEST PUSH2 0x203 JUMP JUMPDEST PUSH1 0xA PUSH2 0x33D SWAP6 SWAP7 SWAP4 PUSH2 0x3F7 SWAP6 SWAP4 PUSH1 0xFF SWAP4 PUSH1 0x40 MLOAD SWAP6 PUSH2 0x35F DUP8 PUSH2 0x2E27 JUMP JUMPDEST DUP4 SLOAD DUP8 MSTORE DUP7 ADD MSTORE PUSH2 0x372 PUSH1 0x2 DUP4 ADD PUSH2 0x305C JUMP JUMPDEST PUSH1 0x40 DUP7 ADD MSTORE PUSH2 0x383 PUSH1 0x3 DUP4 ADD PUSH2 0x305C JUMP JUMPDEST PUSH1 0x60 DUP7 ADD MSTORE PUSH2 0x394 PUSH1 0x4 DUP4 ADD PUSH2 0x305C JUMP JUMPDEST PUSH1 0x80 DUP7 ADD MSTORE PUSH2 0x3A5 PUSH1 0x5 DUP4 ADD PUSH2 0x305C JUMP JUMPDEST PUSH1 0xA0 DUP7 ADD MSTORE PUSH1 0x6 DUP3 ADD SLOAD PUSH1 0xC0 DUP7 ADD MSTORE PUSH1 0x7 DUP3 ADD SLOAD PUSH1 0xE0 DUP7 ADD MSTORE DUP10 DUP3 ADD SLOAD PUSH2 0x100 DUP7 ADD MSTORE DUP2 ADD SLOAD PUSH2 0x120 DUP6 ADD MSTORE ADD SLOAD AND ISZERO ISZERO PUSH2 0x140 DUP3 ADD MSTORE PUSH2 0x3E6 DUP3 DUP10 PUSH2 0x321E JUMP JUMPDEST MSTORE PUSH2 0x3F1 DUP2 DUP9 PUSH2 0x321E JUMP JUMPDEST POP PUSH2 0x320F JUMP JUMPDEST SWAP2 SWAP1 DUP7 DUP1 DUP1 PUSH2 0x330 JUMP JUMPDEST PUSH1 0x20 SWAP1 PUSH1 0x40 MLOAD PUSH2 0x410 DUP2 PUSH2 0x2E27 JUMP JUMPDEST PUSH1 0x0 DUP2 MSTORE DUP3 PUSH1 0x0 DUP2 DUP4 ADD MSTORE PUSH1 0x60 DUP1 PUSH1 0x40 DUP5 ADD MSTORE DUP1 DUP1 DUP5 ADD MSTORE DUP1 PUSH1 0x80 DUP5 ADD MSTORE PUSH1 0xA0 DUP4 ADD MSTORE PUSH1 0x0 PUSH1 0xC0 DUP4 ADD MSTORE PUSH1 0x0 PUSH1 0xE0 DUP4 ADD MSTORE PUSH1 0x0 PUSH2 0x100 DUP4 ADD MSTORE PUSH1 0x0 PUSH2 0x120 DUP4 ADD MSTORE PUSH1 0x0 PUSH2 0x140 DUP4 ADD MSTORE DUP3 DUP9 ADD ADD MSTORE ADD PUSH2 0x1F5 JUMP JUMPDEST PUSH1 0x0 DUP2 DUP2 MSTORE PUSH1 0x9 PUSH1 0x20 MSTORE PUSH1 0x40 SWAP1 KECCAK256 PUSH1 0x1 ADD SLOAD PUSH1 0x1 PUSH1 0x1 PUSH1 0xA0 SHL SUB AND PUSH2 0x492 JUMPI JUMPDEST PUSH2 0x48D SWAP1 PUSH2 0x320F JUMP JUMPDEST PUSH2 0x1C2 JUMP JUMPDEST SWAP3 PUSH2 0x49F PUSH2 0x48D SWAP2 PUSH2 0x320F JUMP JUMPDEST SWAP4 SWAP1 POP PUSH2 0x484 JUMP JUMPDEST CALLVALUE PUSH2 0x1A2 JUMPI PUSH1 0x20 CALLDATASIZE PUSH1 0x3 NOT ADD SLT PUSH2 0x1A2 JUMPI PUSH2 0x4C0 PUSH2 0x2D9D JUMP JUMPDEST PUSH2 0x4C8 PUSH2 0x3132 JUMP JUMPDEST PUSH1 0x1 PUSH1 0x1 PUSH1 0xA0 SHL SUB SWAP1 DUP2 AND SWAP1 DUP2 ISZERO PUSH2 0x517 JUMPI PUSH1 0x5 SLOAD DUP3 PUSH1 0x1 PUSH1 0x1 PUSH1 0x60 SHL SUB PUSH1 0xA0 SHL DUP3 AND OR PUSH1 0x5 SSTORE AND PUSH32 0x8BE0079C531659141344CD1FD0A4F28419497F9722A3DAAFE3B4186F6B6457E0 PUSH1 0x0 DUP1 LOG3 STOP JUMPDEST PUSH1 0x40 MLOAD PUSH3 0x461BCD PUSH1 0xE5 SHL DUP2 MSTORE PUSH1 0x20 PUSH1 0x4 DUP3 ADD MSTORE PUSH1 0x26 PUSH1 0x24 DUP3 ADD MSTORE PUSH32 0x4F776E61626C653A206E6577206F776E657220697320746865207A65726F2061 PUSH1 0x44 DUP3 ADD MSTORE PUSH6 0x646472657373 PUSH1 0xD0 SHL PUSH1 0x64 DUP3 ADD MSTORE PUSH1 0x84 SWAP1 REVERT JUMPDEST CALLVALUE PUSH2 0x1A2 JUMPI PUSH1 0xA0 CALLDATASIZE PUSH1 0x3 NOT ADD SLT PUSH2 0x1A2 JUMPI PUSH2 0x584 PUSH2 0x2D9D JUMP JUMPDEST PUSH2 0x58C PUSH2 0x2DB3 JUMP JUMPDEST SWAP1 PUSH1 0x84 CALLDATALOAD SWAP2 PUSH1 0x1 PUSH1 0x1 PUSH1 0x40 SHL SUB DUP4 GT PUSH2 0x1A2 JUMPI PUSH2 0x5B0 PUSH2 0x5DC SWAP4 CALLDATASIZE SWAP1 PUSH1 0x4 ADD PUSH2 0x2FA6 JUMP JUMPDEST SWAP2 PUSH1 0x1 PUSH1 0x1 PUSH1 0xA0 SHL SUB DUP2 AND CALLER DUP2 EQ DUP1 ISZERO PUSH2 0x5DE JUMPI JUMPDEST PUSH2 0x5CF SWAP2 POP PUSH2 0x3232 JUMP JUMPDEST PUSH1 0x64 CALLDATALOAD SWAP2 PUSH1 0x44 CALLDATALOAD SWAP2 PUSH2 0x335B JUMP JUMPDEST STOP JUMPDEST POP PUSH1 0x0 MSTORE PUSH1 0x1 PUSH1 0x20 MSTORE PUSH1 0x40 PUSH1 0x0 KECCAK256 CALLER PUSH1 0x0 MSTORE PUSH1 0x20 MSTORE PUSH2 0x5CF PUSH1 0xFF PUSH1 0x40 PUSH1 0x0 KECCAK256 SLOAD AND PUSH2 0x5C5 JUMP JUMPDEST PUSH1 0x3 NOT PUSH1 0x40 CALLDATASIZE DUP3 ADD SLT PUSH2 0x1A2 JUMPI PUSH1 0x1 PUSH1 0x1 PUSH1 0x40 SHL SUB SWAP1 PUSH1 0x4 CALLDATALOAD DUP3 DUP2 GT PUSH2 0x1A2 JUMPI PUSH2 0x632 SWAP1 CALLDATASIZE SWAP1 PUSH1 0x4 ADD PUSH2 0x3102 JUMP JUMPDEST SWAP1 SWAP3 PUSH1 0x24 CALLDATALOAD SWAP1 DUP2 GT PUSH2 0x1A2 JUMPI PUSH2 0x64C SWAP1 CALLDATASIZE SWAP1 PUSH1 0x4 ADD PUSH2 0x3102 JUMP JUMPDEST SWAP2 SWAP1 PUSH2 0x656 PUSH2 0x3B25 JUMP JUMPDEST PUSH2 0x65E PUSH2 0x3A39 JUMP JUMPDEST DUP3 DUP3 SUB PUSH2 0xB48 JUMPI PUSH1 0x14 DUP3 GT PUSH2 0xB36 JUMPI PUSH1 0x0 SWAP1 PUSH1 0x0 JUMPDEST DUP4 DUP2 LT PUSH2 0x9FD JUMPI POP DUP2 CALLVALUE LT PUSH2 0x9EB JUMPI PUSH2 0x68D CALLDATASIZE DUP5 DUP9 PUSH2 0x2EE8 JUMP JUMPDEST SWAP6 PUSH2 0x699 CALLDATASIZE DUP7 DUP5 PUSH2 0x2EE8 JUMP JUMPDEST SWAP5 PUSH1 0x40 MLOAD PUSH2 0x6A6 DUP2 PUSH2 0x2E95 JUMP JUMPDEST PUSH1 0x0 DUP2 MSTORE CALLER ISZERO ISZERO PUSH2 0x6B6 DUP2 PUSH2 0x3B7B JUMP JUMPDEST PUSH2 0x6C3 DUP11 MLOAD DUP10 MLOAD EQ PUSH2 0x372D JUMP JUMPDEST DUP1 PUSH2 0x9D2 JUMPI JUMPDEST PUSH2 0x966 JUMPI JUMPDEST PUSH1 0x0 JUMPDEST DUP10 MLOAD DUP2 LT ISZERO PUSH2 0x724 JUMPI DUP1 PUSH2 0x6E8 PUSH2 0x71F SWAP3 DUP11 PUSH2 0x321E JUMP JUMPDEST MLOAD PUSH2 0x6F3 DUP3 DUP14 PUSH2 0x321E JUMP JUMPDEST MLOAD PUSH1 0x0 MSTORE PUSH1 0x20 PUSH1 0x0 DUP2 MSTORE PUSH1 0x40 PUSH1 0x0 KECCAK256 SWAP1 CALLER PUSH1 0x0 MSTORE MSTORE PUSH2 0x718 PUSH1 0x40 PUSH1 0x0 KECCAK256 SWAP2 DUP3 SLOAD PUSH2 0x334E JUMP JUMPDEST SWAP1 SSTORE PUSH2 0x320F JUMP JUMPDEST PUSH2 0x6D1 JUMP JUMPDEST POP DUP9 SWAP1 DUP8 DUP10 PUSH1 0x40 MLOAD PUSH1 0x0 CALLER SWAP2 PUSH32 0x4A39DC06D4C0DBC64B70AF90FD698A233A518AA5D07E595D983B8C0526C8F7FB CALLER SWAP2 DUP1 PUSH2 0x75F DUP9 DUP12 DUP4 PUSH2 0x378A JUMP JUMPDEST SUB SWAP1 LOG4 CALLER EXTCODESIZE PUSH2 0x803 JUMPI JUMPDEST POP POP POP POP SWAP1 PUSH2 0x7C7 SWAP5 PUSH2 0x7BE PUSH32 0x6583473987E443781108C9A74166CFB5D143516BBB4A3804805A2E0B34911563 SWAP4 PUSH2 0x7AE PUSH1 0x40 MLOAD SWAP5 DUP6 SWAP5 PUSH1 0x40 DUP7 MSTORE PUSH1 0x40 DUP7 ADD SWAP2 PUSH2 0x3B01 JUMP JUMPDEST SWAP1 DUP4 DUP3 SUB PUSH1 0x20 DUP6 ADD MSTORE CALLER SWAP7 PUSH2 0x3B01 JUMP JUMPDEST SUB SWAP1 LOG2 CALLVALUE PUSH2 0x3AB4 JUMP JUMPDEST DUP1 PUSH2 0x7D4 JUMPI JUMPDEST PUSH1 0x1 PUSH1 0x6 SSTORE STOP JUMPDEST PUSH1 0x0 DUP1 DUP1 DUP1 SWAP4 CALLER GAS CALL PUSH2 0x7E5 PUSH2 0x3AD1 JUMP JUMPDEST POP ISZERO PUSH2 0x7F1 JUMPI DUP1 PUSH2 0x7CD JUMP JUMPDEST PUSH1 0x40 MLOAD PUSH4 0x12171D83 PUSH1 0xE3 SHL DUP2 MSTORE PUSH1 0x4 SWAP1 REVERT JUMPDEST PUSH1 0x20 SWAP2 PUSH2 0x864 PUSH2 0x855 SWAP3 PUSH1 0x40 SWAP9 SWAP8 SWAP9 MLOAD SWAP6 DUP7 SWAP5 DUP6 SWAP5 PUSH2 0x845 PUSH4 0xBC197C81 PUSH1 0xE0 SHL SWAP11 DUP12 DUP9 MSTORE CALLER PUSH1 0x4 DUP10 ADD MSTORE PUSH1 0x0 PUSH1 0x24 DUP10 ADD MSTORE PUSH1 0xA0 PUSH1 0x44 DUP10 ADD MSTORE PUSH1 0xA4 DUP9 ADD SWAP1 PUSH2 0x2FEE JUMP JUMPDEST SWAP1 DUP5 DUP8 DUP4 SUB ADD PUSH1 0x64 DUP9 ADD MSTORE PUSH2 0x2FEE JUMP JUMPDEST SWAP2 DUP5 DUP4 SUB ADD PUSH1 0x84 DUP6 ADD MSTORE PUSH2 0x2DEC JUMP JUMPDEST SUB DUP2 PUSH1 0x0 CALLER GAS CALL PUSH1 0x0 SWAP2 DUP2 PUSH2 0x936 JUMPI JUMPDEST POP PUSH2 0x8E0 JUMPI PUSH2 0x881 PUSH2 0x3818 JUMP JUMPDEST PUSH4 0x8C379A0 EQ PUSH2 0x8A9 JUMPI JUMPDEST PUSH1 0x40 MLOAD PUSH3 0x461BCD PUSH1 0xE5 SHL DUP2 MSTORE DUP1 PUSH2 0x8A5 PUSH1 0x4 DUP3 ADD PUSH2 0x38A4 JUMP JUMPDEST SUB SWAP1 REVERT JUMPDEST PUSH2 0x8B1 PUSH2 0x3836 JUMP JUMPDEST DUP1 PUSH2 0x8BC JUMPI POP PUSH2 0x88C JUMP JUMPDEST PUSH1 0x40 MLOAD PUSH3 0x461BCD PUSH1 0xE5 SHL DUP2 MSTORE PUSH1 0x20 PUSH1 0x4 DUP3 ADD MSTORE SWAP1 DUP2 SWAP1 PUSH2 0x8A5 SWAP1 PUSH1 0x24 DUP4 ADD SWAP1 PUSH2 0x2DEC JUMP JUMPDEST PUSH1 0x1 PUSH1 0x1 PUSH1 0xE0 SHL SUB NOT AND SUB PUSH2 0x91D JUMPI SWAP1 DUP5 PUSH2 0x7BE PUSH32 0x6583473987E443781108C9A74166CFB5D143516BBB4A3804805A2E0B34911563 PUSH2 0x7C7 PUSH2 0x769 JUMP JUMPDEST PUSH1 0x40 MLOAD PUSH3 0x461BCD PUSH1 0xE5 SHL DUP2 MSTORE DUP1 PUSH2 0x8A5 PUSH1 0x4 DUP3 ADD PUSH2 0x37CF JUMP JUMPDEST PUSH2 0x958 SWAP2 SWAP3 POP PUSH1 0x20 RETURNDATASIZE DUP2 GT PUSH2 0x95F JUMPI JUMPDEST PUSH2 0x950 DUP2 DUP4 PUSH2 0x2EB0 JUMP JUMPDEST DUP2 ADD SWAP1 PUSH2 0x37AF JUMP JUMPDEST SWAP1 DUP9 PUSH2 0x874 JUMP JUMPDEST POP RETURNDATASIZE PUSH2 0x946 JUMP JUMPDEST PUSH1 0xD SLOAD PUSH1 0x1 PUSH1 0x40 SHL DUP2 LT ISZERO PUSH2 0x9BC JUMPI DUP1 PUSH1 0x1 PUSH2 0x985 SWAP3 ADD PUSH1 0xD SSTORE PUSH2 0x3A7D JUMP JUMPDEST DUP2 SLOAD SWAP1 PUSH1 0x3 SHL SWAP1 CALLER DUP3 SHL SWAP2 PUSH1 0x1 DUP1 PUSH1 0xA0 SHL SUB SWAP1 SHL NOT AND OR SWAP1 SSTORE CALLER PUSH1 0x0 MSTORE PUSH1 0xE PUSH1 0x20 MSTORE PUSH1 0x40 PUSH1 0x0 KECCAK256 PUSH1 0x1 PUSH1 0xFF NOT DUP3 SLOAD AND OR SWAP1 SSTORE PUSH2 0x6CE JUMP JUMPDEST PUSH4 0x4E487B71 PUSH1 0xE0 SHL PUSH1 0x0 MSTORE PUSH1 0x41 PUSH1 0x4 MSTORE PUSH1 0x24 PUSH1 0x0 REVERT JUMPDEST POP CALLER PUSH1 0x0 MSTORE PUSH1 0xE PUSH1 0x20 MSTORE PUSH1 0xFF PUSH1 0x40 PUSH1 0x0 KECCAK256 SLOAD AND ISZERO PUSH2 0x6C9 JUMP JUMPDEST PUSH1 0x40 MLOAD PUSH4 0xCD1C8867 PUSH1 0xE0 SHL DUP2 MSTORE PUSH1 0x4 SWAP1 REVERT JUMPDEST PUSH2 0xA08 DUP2 DUP6 DUP10 PUSH2 0x3AC1 JUMP JUMPDEST CALLDATALOAD PUSH1 0x0 MSTORE PUSH1 0x9 PUSH1 0x20 MSTORE PUSH1 0x40 PUSH1 0x0 KECCAK256 SWAP3 PUSH1 0xFF PUSH1 0xA DUP6 ADD SLOAD AND ISZERO PUSH2 0xB24 JUMPI PUSH2 0xA2F DUP3 DUP8 DUP6 PUSH2 0x3AC1 JUMP JUMPDEST CALLDATALOAD ISZERO PUSH2 0xB12 JUMPI PUSH1 0x8 DUP5 ADD SWAP1 DUP2 SLOAD PUSH2 0xA47 DUP5 DUP10 DUP8 PUSH2 0x3AC1 JUMP JUMPDEST CALLDATALOAD DUP2 ADD PUSH1 0x7 DUP8 ADD SLOAD LT PUSH2 0xB00 JUMPI PUSH2 0xA83 DUP8 SWAP3 PUSH2 0xA7D DUP7 DUP12 PUSH2 0xA70 DUP16 SWAP12 PUSH1 0x6 DUP5 SWAP2 ADD SLOAD SWAP3 DUP13 PUSH2 0x3AC1 JUMP JUMPDEST CALLDATALOAD MUL SWAP6 DUP7 DUP1 SWAP5 ADD SWAP11 PUSH2 0x3AC1 JUMP JUMPDEST CALLDATALOAD PUSH2 0x397C JUMP JUMPDEST SWAP4 DUP5 SWAP3 PUSH2 0xA91 DUP8 DUP13 DUP11 PUSH2 0x3AC1 JUMP JUMPDEST CALLDATALOAD ADD SWAP1 SSTORE DUP2 PUSH2 0xAD7 JUMPI JUMPDEST POP DUP2 SUB PUSH2 0xAAD JUMPI JUMPDEST POP POP PUSH1 0x1 ADD PUSH2 0x673 JUMP JUMPDEST PUSH1 0x0 DUP1 DUP1 SWAP4 DUP2 SWAP4 SUB PUSH1 0x1 DUP1 PUSH1 0xA0 SHL SUB PUSH1 0x5 SLOAD AND GAS CALL PUSH2 0xACA PUSH2 0x3AD1 JUMP JUMPDEST POP ISZERO PUSH2 0x7F1 JUMPI DUP8 DUP1 PUSH2 0xAA3 JUMP JUMPDEST PUSH1 0x0 SWAP2 DUP3 SWAP2 DUP3 SWAP2 DUP3 SWAP2 PUSH1 0x1 PUSH1 0x1 PUSH1 0xA0 SHL SUB AND GAS CALL PUSH2 0xAF3 PUSH2 0x3AD1 JUMP JUMPDEST POP ISZERO PUSH2 0x7F1 JUMPI DUP2 DUP11 PUSH2 0xA9B JUMP JUMPDEST PUSH1 0x40 MLOAD PUSH4 0x8A164F63 PUSH1 0xE0 SHL DUP2 MSTORE PUSH1 0x4 SWAP1 REVERT JUMPDEST PUSH1 0x40 MLOAD PUSH4 0xB4FA3FB3 PUSH1 0xE0 SHL DUP2 MSTORE PUSH1 0x4 SWAP1 REVERT JUMPDEST PUSH1 0x40 MLOAD PUSH4 0xAD9D099B PUSH1 0xE0 SHL DUP2 MSTORE PUSH1 0x4 SWAP1 REVERT JUMPDEST PUSH1 0x40 MLOAD PUSH4 0x1E807595 PUSH1 0xE2 SHL DUP2 MSTORE PUSH1 0x4 SWAP1 REVERT JUMPDEST PUSH1 0x40 MLOAD PUSH4 0x512509D3 PUSH1 0xE1 SHL DUP2 MSTORE PUSH1 0x4 SWAP1 REVERT JUMPDEST CALLVALUE PUSH2 0x1A2 JUMPI PUSH1 0x40 CALLDATASIZE PUSH1 0x3 NOT ADD SLT PUSH2 0x1A2 JUMPI PUSH2 0xB73 PUSH2 0x2D9D JUMP JUMPDEST PUSH2 0xB7B PUSH2 0x2DB3 JUMP JUMPDEST SWAP1 PUSH1 0x1 DUP1 PUSH1 0xA0 SHL SUB DUP1 SWAP2 AND PUSH1 0x0 MSTORE PUSH1 0x1 PUSH1 0x20 MSTORE PUSH1 0x40 PUSH1 0x0 KECCAK256 SWAP2 AND PUSH1 0x0 MSTORE PUSH1 0x20 MSTORE PUSH1 0x20 PUSH1 0xFF PUSH1 0x40 PUSH1 0x0 KECCAK256 SLOAD AND PUSH1 0x40 MLOAD SWAP1 ISZERO ISZERO DUP2 MSTORE RETURN JUMPDEST CALLVALUE PUSH2 0x1A2 JUMPI PUSH1 0x0 CALLDATASIZE PUSH1 0x3 NOT ADD SLT PUSH2 0x1A2 JUMPI PUSH1 0x20 PUSH1 0x40 MLOAD PUSH2 0x2710 DUP2 MSTORE RETURN JUMPDEST CALLVALUE PUSH2 0x1A2 JUMPI PUSH1 0x0 CALLDATASIZE PUSH1 0x3 NOT ADD SLT PUSH2 0x1A2 JUMPI PUSH1 0x20 PUSH1 0x40 MLOAD PUSH1 0x14 DUP2 MSTORE RETURN JUMPDEST PUSH2 0xBF2 CALLDATASIZE PUSH2 0x2E11 JUMP JUMPDEST SWAP1 PUSH2 0xBFB PUSH2 0x3B25 JUMP JUMPDEST PUSH2 0xC03 PUSH2 0x3A39 JUMP JUMPDEST DUP1 PUSH1 0x0 MSTORE PUSH1 0x20 SWAP2 PUSH1 0x9 DUP4 MSTORE PUSH1 0x40 PUSH1 0x0 KECCAK256 PUSH1 0xFF PUSH1 0xA DUP3 ADD SLOAD AND ISZERO PUSH2 0xB24 JUMPI DUP2 ISZERO PUSH2 0xB12 JUMPI PUSH1 0x8 DUP2 ADD DUP1 SLOAD SWAP2 PUSH2 0xC37 DUP5 DUP5 PUSH2 0x334E JUMP JUMPDEST PUSH1 0x7 DUP3 ADD SLOAD LT PUSH2 0xB00 JUMPI DUP4 PUSH1 0x6 PUSH2 0xC4F SWAP3 ADD SLOAD PUSH2 0x3969 JUMP JUMPDEST SWAP2 DUP3 CALLVALUE LT PUSH2 0x9EB JUMPI DUP4 PUSH2 0xC61 SWAP2 PUSH2 0x334E JUMP JUMPDEST SWAP1 SSTORE PUSH2 0xC6D DUP2 DUP5 PUSH2 0x397C JUMP JUMPDEST POP SWAP1 PUSH1 0x0 DUP1 DUP1 DUP1 DUP5 PUSH1 0x1 DUP1 PUSH1 0xA0 SHL SUB DUP1 SWAP8 AND GAS CALL PUSH2 0xC89 PUSH2 0x3AD1 JUMP JUMPDEST POP ISZERO PUSH2 0x7F1 JUMPI DUP1 CALLVALUE GT PUSH2 0xEC5 JUMPI JUMPDEST POP PUSH1 0x40 MLOAD SWAP1 PUSH2 0xCA5 DUP3 PUSH2 0x2E95 JUMP JUMPDEST PUSH1 0x0 DUP3 MSTORE CALLER ISZERO ISZERO PUSH2 0xCB5 DUP2 PUSH2 0x3B7B JUMP JUMPDEST PUSH2 0xCBE DUP6 PUSH2 0x38F9 JUMP JUMPDEST POP PUSH2 0xCC8 DUP5 PUSH2 0x38F9 JUMP JUMPDEST POP DUP1 PUSH2 0xEAD JUMPI JUMPDEST PUSH2 0xE5D JUMPI JUMPDEST POP DUP3 PUSH1 0x0 MSTORE PUSH1 0x0 DUP5 MSTORE PUSH1 0x40 PUSH1 0x0 KECCAK256 CALLER PUSH1 0x0 MSTORE DUP5 MSTORE PUSH1 0x40 PUSH1 0x0 KECCAK256 PUSH2 0xCF8 DUP4 DUP3 SLOAD PUSH2 0x334E JUMP JUMPDEST SWAP1 SSTORE PUSH1 0x40 MLOAD DUP4 DUP2 MSTORE DUP3 DUP6 DUP3 ADD MSTORE PUSH1 0x0 CALLER SWAP2 PUSH32 0xC3D58168C5AE7397731D063D5BBF3D657854427343F4C083240F7AACAA2D0F62 PUSH1 0x40 CALLER SWAP3 LOG4 CALLER EXTCODESIZE PUSH2 0xD6E JUMPI JUMPDEST POP DUP3 PUSH1 0x40 MLOAD SWAP3 DUP4 MSTORE DUP3 ADD MSTORE PUSH32 0x3A8A89B59A31C39A36FEBECB987E0657AB7B7C73B60EBACB44DCB9886C2D5C8A PUSH1 0x40 CALLER SWAP3 LOG2 PUSH1 0x1 PUSH1 0x6 SSTORE STOP JUMPDEST PUSH1 0x40 MLOAD DUP5 DUP2 DUP1 PUSH2 0xDAD PUSH4 0xF23A6E61 PUSH1 0xE0 SHL SWAP6 DUP7 DUP4 MSTORE CALLER PUSH1 0x4 DUP5 ADD MSTORE PUSH1 0x0 PUSH1 0x24 DUP5 ADD MSTORE DUP9 PUSH1 0x44 DUP5 ADD MSTORE DUP8 PUSH1 0x64 DUP5 ADD MSTORE PUSH1 0xA0 PUSH1 0x84 DUP5 ADD MSTORE PUSH1 0xA4 DUP4 ADD SWAP1 PUSH2 0x2DEC JUMP JUMPDEST SUB DUP2 PUSH1 0x0 CALLER GAS CALL PUSH1 0x0 SWAP2 DUP2 PUSH2 0xE3E JUMPI JUMPDEST POP PUSH2 0xE23 JUMPI DUP5 PUSH2 0xDCB PUSH2 0x3818 JUMP JUMPDEST PUSH4 0x8C379A0 EQ PUSH2 0xDEE JUMPI PUSH1 0x40 MLOAD PUSH3 0x461BCD PUSH1 0xE5 SHL DUP2 MSTORE DUP1 PUSH2 0x8A5 PUSH1 0x4 DUP3 ADD PUSH2 0x38A4 JUMP JUMPDEST PUSH2 0xDF6 PUSH2 0x3836 JUMP JUMPDEST SWAP1 DUP2 PUSH2 0xE02 JUMPI POP PUSH2 0x88C JUMP JUMPDEST PUSH2 0x8A5 PUSH1 0x40 MLOAD SWAP3 DUP4 SWAP3 PUSH3 0x461BCD PUSH1 0xE5 SHL DUP5 MSTORE PUSH1 0x4 DUP5 ADD MSTORE PUSH1 0x24 DUP4 ADD SWAP1 PUSH2 0x2DEC JUMP JUMPDEST SWAP3 SWAP4 SWAP2 SWAP3 PUSH1 0x1 PUSH1 0x1 PUSH1 0xE0 SHL SUB NOT AND SUB PUSH2 0x91D JUMPI SWAP2 SWAP1 DUP4 PUSH2 0xD36 JUMP JUMPDEST PUSH2 0xE56 SWAP2 SWAP3 POP DUP7 RETURNDATASIZE DUP9 GT PUSH2 0x95F JUMPI PUSH2 0x950 DUP2 DUP4 PUSH2 0x2EB0 JUMP JUMPDEST SWAP1 DUP7 PUSH2 0xDBD JUMP JUMPDEST PUSH1 0xD SLOAD PUSH1 0x1 PUSH1 0x40 SHL DUP2 LT ISZERO PUSH2 0x9BC JUMPI DUP1 PUSH1 0x1 PUSH2 0xE7C SWAP3 ADD PUSH1 0xD SSTORE PUSH2 0x3A7D JUMP JUMPDEST DUP2 SWAP3 SWAP2 SLOAD SWAP1 PUSH1 0x3 SHL SWAP2 CALLER DUP4 SHL SWAP3 SHL NOT AND OR SWAP1 SSTORE CALLER PUSH1 0x0 MSTORE PUSH1 0xE DUP5 MSTORE PUSH1 0x40 PUSH1 0x0 KECCAK256 PUSH1 0x1 PUSH1 0xFF NOT DUP3 SLOAD AND OR SWAP1 SSTORE DUP5 PUSH2 0xCD4 JUMP JUMPDEST POP CALLER PUSH1 0x0 MSTORE PUSH1 0xE DUP6 MSTORE PUSH1 0xFF PUSH1 0x40 PUSH1 0x0 KECCAK256 SLOAD AND ISZERO PUSH2 0xCCF JUMP JUMPDEST PUSH1 0x0 DUP1 DUP1 PUSH2 0xED4 DUP2 SWAP5 CALLVALUE PUSH2 0x3AB4 JUMP JUMPDEST CALLER GAS CALL PUSH2 0xEDF PUSH2 0x3AD1 JUMP JUMPDEST POP ISZERO PUSH2 0x7F1 JUMPI DUP5 PUSH2 0xC97 JUMP JUMPDEST PUSH1 0x60 CALLDATASIZE PUSH1 0x3 NOT ADD SLT PUSH2 0x1A2 JUMPI PUSH1 0x4 CALLDATALOAD PUSH2 0xF02 PUSH2 0x2DB3 JUMP JUMPDEST PUSH1 0x44 CALLDATALOAD PUSH2 0xF0D PUSH2 0x3B25 JUMP JUMPDEST PUSH2 0xF15 PUSH2 0x3A39 JUMP JUMPDEST PUSH1 0x1 PUSH1 0x1 PUSH1 0xA0 SHL SUB SWAP3 DUP3 DUP5 AND SWAP2 DUP3 ISZERO PUSH2 0x10BC JUMPI CALLER ISZERO PUSH2 0x10BC JUMPI CALLER DUP4 EQ PUSH2 0x10AA JUMPI DUP2 PUSH1 0x0 MSTORE PUSH1 0x20 SWAP4 PUSH1 0xA DUP6 MSTORE PUSH1 0x40 PUSH1 0x0 KECCAK256 DUP5 PUSH1 0x0 MSTORE DUP6 MSTORE PUSH1 0x40 PUSH1 0x0 KECCAK256 SWAP1 DUP5 DUP8 DUP4 SLOAD AND SUB PUSH2 0x10AA JUMPI PUSH1 0x2 DUP3 ADD SWAP2 DUP4 DUP4 SLOAD LT PUSH2 0x1098 JUMPI DUP5 PUSH1 0x0 MSTORE PUSH1 0x9 DUP8 MSTORE PUSH1 0xFF PUSH1 0xA PUSH1 0x40 PUSH1 0x0 KECCAK256 ADD SLOAD AND ISZERO PUSH2 0xB24 JUMPI DUP4 PUSH2 0xF8C DUP7 DUP5 PUSH2 0x318A JUMP JUMPDEST LT PUSH2 0x1098 JUMPI PUSH1 0x1 ADD SWAP2 DUP4 DUP4 SLOAD MUL SWAP8 DUP9 CALLVALUE LT PUSH2 0x9EB JUMPI PUSH2 0xFAB DUP10 DUP8 PUSH2 0x397C JUMP JUMPDEST SWAP2 SWAP1 DUP3 PUSH2 0x1078 JUMPI JUMPDEST POP POP PUSH1 0x0 DUP1 DUP1 DUP1 SWAP4 DUP13 SUB DUP11 GAS CALL PUSH2 0xFC8 PUSH2 0x3AD1 JUMP JUMPDEST POP ISZERO PUSH2 0x7F1 JUMPI PUSH2 0xFED DUP5 SWAP3 DUP4 DUP8 PUSH1 0x40 MLOAD SWAP3 PUSH2 0xFE2 DUP5 PUSH2 0x2E95 JUMP JUMPDEST PUSH1 0x0 DUP5 MSTORE CALLER SWAP1 PUSH2 0x335B JUMP JUMPDEST DUP1 SLOAD SWAP1 DUP3 DUP3 SUB SWAP1 SSTORE EQ PUSH2 0x104D JUMPI JUMPDEST SLOAD SWAP4 PUSH1 0x40 MLOAD SWAP5 DUP6 MSTORE DUP5 ADD MSTORE PUSH32 0x5FAFAD85DEC201C2E73B6A2BEF6351129304A624EA8720ECD04CD7F04D83BC39 PUSH1 0x40 CALLER SWAP5 LOG4 DUP1 CALLVALUE GT PUSH2 0x103A JUMPI PUSH1 0x1 PUSH1 0x6 SSTORE STOP JUMPDEST PUSH1 0x0 DUP1 DUP1 DUP1 SWAP4 CALLVALUE SUB CALLER GAS CALL PUSH2 0x7E5 PUSH2 0x3AD1 JUMP JUMPDEST DUP3 PUSH1 0x0 MSTORE PUSH1 0xA DUP6 MSTORE PUSH1 0x40 PUSH1 0x0 KECCAK256 DUP5 PUSH1 0x0 MSTORE DUP6 MSTORE PUSH1 0x0 PUSH1 0x2 PUSH1 0x40 DUP3 KECCAK256 DUP3 DUP2 SSTORE DUP3 PUSH1 0x1 DUP3 ADD SSTORE ADD SSTORE PUSH2 0xFFB JUMP JUMPDEST PUSH1 0x0 DUP1 DUP5 DUP2 SWAP5 DUP3 SWAP5 AND GAS CALL PUSH2 0x108B PUSH2 0x3AD1 JUMP JUMPDEST POP ISZERO PUSH2 0x7F1 JUMPI DUP10 DUP1 PUSH2 0xFB3 JUMP JUMPDEST PUSH1 0x40 MLOAD PUSH4 0x1E9ACF17 PUSH1 0xE3 SHL DUP2 MSTORE PUSH1 0x4 SWAP1 REVERT JUMPDEST PUSH1 0x40 MLOAD PUSH4 0xEA8E4EB5 PUSH1 0xE0 SHL DUP2 MSTORE PUSH1 0x4 SWAP1 REVERT JUMPDEST PUSH1 0x40 MLOAD PUSH4 0xE6C4247B PUSH1 0xE0 SHL DUP2 MSTORE PUSH1 0x4 SWAP1 REVERT JUMPDEST CALLVALUE PUSH2 0x1A2 JUMPI PUSH1 0x60 CALLDATASIZE PUSH1 0x3 NOT ADD SLT PUSH2 0x1A2 JUMPI PUSH1 0x44 CALLDATALOAD PUSH1 0x4 CALLDATALOAD PUSH1 0x24 CALLDATALOAD PUSH2 0x10F0 PUSH2 0x3B25 JUMP JUMPDEST PUSH2 0x10F8 PUSH2 0x3A39 JUMP JUMPDEST DUP1 PUSH2 0x1103 DUP4 CALLER PUSH2 0x318A JUMP JUMPDEST LT PUSH2 0x1098 JUMPI DUP1 ISZERO PUSH2 0xB12 JUMPI DUP3 ISZERO PUSH2 0x11C6 JUMPI DUP2 PUSH1 0x0 MSTORE PUSH1 0x9 PUSH1 0x20 MSTORE PUSH1 0xFF PUSH1 0xA PUSH1 0x40 PUSH1 0x0 KECCAK256 ADD SLOAD AND ISZERO PUSH2 0xB24 JUMPI PUSH1 0x40 MLOAD PUSH2 0x113A DUP2 PUSH2 0x2E5E JUMP JUMPDEST CALLER DUP2 MSTORE PUSH1 0x2 PUSH1 0x20 DUP3 ADD DUP6 DUP2 MSTORE PUSH1 0x40 DUP4 ADD SWAP1 DUP5 DUP3 MSTORE DUP6 PUSH1 0x0 MSTORE PUSH1 0xA PUSH1 0x20 MSTORE PUSH1 0x40 PUSH1 0x0 KECCAK256 CALLER PUSH1 0x0 MSTORE PUSH1 0x20 MSTORE PUSH1 0x40 PUSH1 0x0 KECCAK256 SWAP4 PUSH1 0x1 DUP1 PUSH1 0xA0 SHL SUB SWAP1 MLOAD AND PUSH1 0x1 PUSH1 0x1 PUSH1 0x60 SHL SUB PUSH1 0xA0 SHL DUP6 SLOAD AND OR DUP5 SSTORE MLOAD PUSH1 0x1 DUP5 ADD SSTORE MLOAD SWAP2 ADD SSTORE PUSH1 0x40 MLOAD SWAP3 DUP4 MSTORE PUSH1 0x20 DUP4 ADD MSTORE PUSH32 0x36E94395FAFCB0D2A9BCFCDD5CEF807AB52A1F4382906992EBDC18DE5F1472C4 PUSH1 0x40 CALLER SWAP4 LOG3 PUSH1 0x1 PUSH1 0x6 SSTORE STOP JUMPDEST PUSH1 0x40 MLOAD PUSH3 0xBFC921 PUSH1 0xE0 SHL DUP2 MSTORE PUSH1 0x4 SWAP1 REVERT JUMPDEST CALLVALUE PUSH2 0x1A2 JUMPI PUSH1 0x40 CALLDATASIZE PUSH1 0x3 NOT ADD SLT PUSH2 0x1A2 JUMPI PUSH2 0x11F0 PUSH2 0x2D9D JUMP JUMPDEST PUSH1 0x24 CALLDATALOAD SWAP1 DUP2 ISZERO ISZERO SWAP1 DUP2 DUP4 SUB PUSH2 0x1A2 JUMPI PUSH1 0x1 PUSH1 0x1 PUSH1 0xA0 SHL SUB AND SWAP2 CALLER DUP4 EQ PUSH2 0x126D JUMPI PUSH2 0x123F SWAP1 CALLER PUSH1 0x0 MSTORE PUSH1 0x1 PUSH1 0x20 MSTORE PUSH1 0x40 PUSH1 0x0 KECCAK256 DUP5 PUSH1 0x0 MSTORE PUSH1 0x20 MSTORE PUSH1 0x40 PUSH1 0x0 KECCAK256 SWAP1 PUSH1 0xFF DUP1 NOT DUP4 SLOAD AND SWAP2 ISZERO ISZERO AND OR SWAP1 SSTORE JUMP JUMPDEST PUSH1 0x40 MLOAD SWAP1 DUP2 MSTORE PUSH32 0x17307EAB39AB6107E8899845AD3D59BD9653F200F220920489CA2B5937696C31 PUSH1 0x20 CALLER SWAP3 LOG3 STOP JUMPDEST PUSH1 0x40 MLOAD PUSH3 0x461BCD PUSH1 0xE5 SHL DUP2 MSTORE PUSH1 0x20 PUSH1 0x4 DUP3 ADD MSTORE PUSH1 0x29 PUSH1 0x24 DUP3 ADD MSTORE PUSH32 0x455243313135353A2073657474696E6720617070726F76616C20737461747573 PUSH1 0x44 DUP3 ADD MSTORE PUSH9 0x103337B91039B2B633 PUSH1 0xB9 SHL PUSH1 0x64 DUP3 ADD MSTORE PUSH1 0x84 SWAP1 REVERT JUMPDEST CALLVALUE PUSH2 0x1A2 JUMPI PUSH1 0x20 CALLDATASIZE PUSH1 0x3 NOT ADD SLT PUSH2 0x1A2 JUMPI PUSH1 0x4 CALLDATALOAD PUSH2 0x12E0 PUSH2 0x3A39 JUMP JUMPDEST PUSH1 0x0 DUP2 DUP2 MSTORE PUSH1 0x9 PUSH1 0x20 MSTORE PUSH1 0x40 SWAP1 KECCAK256 PUSH1 0x1 DUP2 ADD SLOAD CALLER PUSH1 0x1 PUSH1 0x1 PUSH1 0xA0 SHL SUB SWAP2 DUP3 AND EQ ISZERO SWAP1 DUP2 PUSH2 0x135D JUMPI JUMPDEST POP PUSH2 0x10AA JUMPI PUSH1 0x20 PUSH1 0xFF PUSH1 0xA PUSH32 0xB98F2E7A31992FD0038957C8B37AFBFDE15601543D7E49508FF1093C402E6B89 SWAP4 ADD PUSH2 0x1350 DUP3 DUP3 SLOAD AND ISZERO DUP3 SWAP1 PUSH1 0xFF DUP1 NOT DUP4 SLOAD AND SWAP2 ISZERO ISZERO AND OR SWAP1 SSTORE JUMP JUMPDEST SLOAD AND PUSH1 0x40 MLOAD SWAP1 ISZERO ISZERO DUP2 MSTORE LOG2 STOP JUMPDEST SWAP1 POP PUSH1 0x5 SLOAD AND CALLER EQ ISZERO DUP4 PUSH2 0x1308 JUMP JUMPDEST CALLVALUE PUSH2 0x1A2 JUMPI PUSH1 0x40 CALLDATASIZE PUSH1 0x3 NOT ADD SLT PUSH2 0x1A2 JUMPI PUSH1 0x60 PUSH2 0x1387 PUSH2 0x2DB3 JUMP JUMPDEST PUSH1 0x0 PUSH1 0x40 DUP1 MLOAD PUSH2 0x1396 DUP2 PUSH2 0x2E5E JUMP JUMPDEST DUP3 DUP2 MSTORE DUP3 PUSH1 0x20 DUP3 ADD MSTORE ADD MSTORE PUSH1 0x4 CALLDATALOAD PUSH1 0x0 MSTORE PUSH1 0xA PUSH1 0x20 MSTORE PUSH1 0x40 PUSH1 0x0 KECCAK256 PUSH1 0x1 DUP1 PUSH1 0xA0 SHL SUB DUP1 SWAP3 AND PUSH1 0x0 MSTORE PUSH1 0x20 MSTORE PUSH1 0x40 PUSH1 0x0 KECCAK256 SWAP1 PUSH1 0x40 MLOAD SWAP1 PUSH2 0x13D4 DUP3 PUSH2 0x2E5E JUMP JUMPDEST DUP3 SLOAD AND SWAP2 DUP3 DUP3 MSTORE PUSH1 0x40 PUSH1 0x2 PUSH1 0x1 DUP4 ADD SLOAD SWAP3 PUSH1 0x20 DUP6 ADD SWAP4 DUP5 MSTORE ADD SLOAD SWAP3 ADD SWAP2 DUP3 MSTORE PUSH1 0x40 MLOAD SWAP3 DUP4 MSTORE MLOAD PUSH1 0x20 DUP4 ADD MSTORE MLOAD PUSH1 0x40 DUP3 ADD MSTORE RETURN JUMPDEST CALLVALUE PUSH2 0x1A2 JUMPI PUSH1 0x40 CALLDATASIZE PUSH1 0x3 NOT ADD SLT PUSH2 0x1A2 JUMPI PUSH1 0x60 PUSH2 0x1422 PUSH2 0x2DB3 JUMP JUMPDEST PUSH1 0x4 CALLDATALOAD PUSH1 0x0 MSTORE PUSH1 0xA PUSH1 0x20 MSTORE PUSH1 0x40 PUSH1 0x0 KECCAK256 PUSH1 0x1 DUP1 PUSH1 0xA0 SHL SUB DUP1 SWAP3 AND PUSH1 0x0 MSTORE PUSH1 0x20 MSTORE PUSH1 0x40 PUSH1 0x0 KECCAK256 SWAP1 DUP2 SLOAD AND SWAP1 PUSH1 0x2 PUSH1 0x1 DUP3 ADD SLOAD SWAP2 ADD SLOAD SWAP1 PUSH1 0x40 MLOAD SWAP3 DUP4 MSTORE PUSH1 0x20 DUP4 ADD MSTORE PUSH1 0x40 DUP3 ADD MSTORE RETURN JUMPDEST CALLVALUE PUSH2 0x1A2 JUMPI PUSH1 0x0 CALLDATASIZE PUSH1 0x3 NOT ADD SLT PUSH2 0x1A2 JUMPI PUSH1 0x5 SLOAD PUSH1 0x40 MLOAD PUSH1 0x1 PUSH1 0x1 PUSH1 0xA0 SHL SUB SWAP1 SWAP2 AND DUP2 MSTORE PUSH1 0x20 SWAP1 RETURN JUMPDEST CALLVALUE PUSH2 0x1A2 JUMPI PUSH1 0x0 CALLDATASIZE PUSH1 0x3 NOT ADD SLT PUSH2 0x1A2 JUMPI PUSH2 0x14AB PUSH2 0x3132 JUMP JUMPDEST PUSH2 0x14B3 PUSH2 0x3A39 JUMP JUMPDEST PUSH1 0x1 PUSH1 0xFF NOT PUSH1 0x7 SLOAD AND OR PUSH1 0x7 SSTORE PUSH32 0x62E78CEA01BEE320CD4E420270B5EA74000D11B0C9F74754EBDBFC544B05A258 PUSH1 0x20 PUSH1 0x40 MLOAD CALLER DUP2 MSTORE LOG1 STOP JUMPDEST CALLVALUE PUSH2 0x1A2 JUMPI PUSH1 0x0 CALLDATASIZE PUSH1 0x3 NOT ADD SLT PUSH2 0x1A2 JUMPI PUSH2 0x1505 PUSH2 0x3132 JUMP JUMPDEST PUSH1 0x5 DUP1 SLOAD PUSH1 0x1 PUSH1 0x1 PUSH1 0xA0 SHL SUB NOT DUP2 AND SWAP1 SWAP2 SSTORE PUSH1 0x0 SWAP1 PUSH1 0x1 PUSH1 0x1 PUSH1 0xA0 SHL SUB AND PUSH32 0x8BE0079C531659141344CD1FD0A4F28419497F9722A3DAAFE3B4186F6B6457E0 DUP3 DUP1 LOG3 STOP JUMPDEST CALLVALUE PUSH2 0x1A2 JUMPI PUSH1 0x20 DUP1 PUSH1 0x3 NOT CALLDATASIZE ADD SLT PUSH2 0x1A2 JUMPI PUSH1 0x4 CALLDATALOAD SWAP1 DUP2 PUSH1 0x0 MSTORE PUSH1 0x9 DUP2 MSTORE PUSH1 0x1 DUP1 PUSH1 0xA0 SHL SUB SWAP1 PUSH1 0x1 SWAP3 DUP3 DUP5 PUSH1 0x40 PUSH1 0x0 KECCAK256 ADD SLOAD AND ISZERO PUSH2 0x16EE JUMPI SWAP3 SWAP1 SWAP2 PUSH1 0x0 SWAP4 PUSH1 0x0 PUSH1 0xD SLOAD SWAP1 JUMPDEST DUP2 DUP2 LT PUSH2 0x169D JUMPI POP PUSH2 0x159F DUP7 PUSH2 0x2ED1 JUMP JUMPDEST SWAP2 PUSH2 0x15AD PUSH1 0x40 MLOAD SWAP4 DUP5 PUSH2 0x2EB0 JUMP JUMPDEST DUP7 DUP4 MSTORE PUSH2 0x15B9 DUP8 PUSH2 0x2ED1 JUMP JUMPDEST DUP4 DUP8 ADD SWAP8 SWAP1 PUSH1 0x1F NOT ADD CALLDATASIZE DUP10 CALLDATACOPY PUSH1 0x0 SWAP3 DUP4 DUP8 JUMPDEST PUSH2 0x1612 JUMPI JUMPDEST POP POP POP POP POP PUSH1 0x40 MLOAD SWAP4 DUP1 DUP6 ADD SWAP2 DUP2 DUP7 MSTORE MLOAD DUP1 SWAP3 MSTORE PUSH1 0x40 DUP6 ADD SWAP6 SWAP3 PUSH1 0x0 SWAP1 JUMPDEST DUP4 DUP3 LT PUSH2 0x15FB JUMPI DUP7 DUP9 SUB DUP8 RETURN JUMPDEST DUP5 MLOAD DUP2 AND DUP9 MSTORE SWAP7 DUP3 ADD SWAP7 SWAP4 DUP3 ADD SWAP4 SWAP1 DUP6 ADD SWAP1 PUSH2 0x15EE JUMP JUMPDEST SWAP1 DUP2 DUP2 DUP10 SWAP12 SWAP10 SWAP7 SWAP6 SWAP5 SWAP4 SWAP11 SWAP8 SWAP9 SWAP11 LT DUP1 PUSH2 0x1694 JUMPI JUMPDEST ISZERO PUSH2 0x1687 JUMPI DUP10 PUSH2 0x1636 DUP3 PUSH2 0x3A7D JUMP JUMPDEST SWAP1 SLOAD SWAP1 PUSH1 0x3 SHL SHR AND PUSH2 0x1648 DUP6 DUP3 PUSH2 0x318A JUMP JUMPDEST PUSH2 0x1667 JUMPI JUMPDEST POP PUSH2 0x1657 SWAP1 PUSH2 0x320F JUMP JUMPDEST SWAP1 SWAP2 SWAP3 SWAP4 SWAP5 SWAP8 SWAP10 SWAP9 SWAP7 SWAP6 SWAP9 PUSH2 0x15CB JUMP JUMPDEST DUP6 PUSH2 0x1680 SWAP2 PUSH2 0x167A PUSH2 0x1657 SWAP5 SWAP9 DUP13 PUSH2 0x321E JUMP JUMPDEST MSTORE PUSH2 0x320F JUMP JUMPDEST SWAP5 SWAP1 PUSH2 0x164D JUMP JUMPDEST POP SWAP9 SWAP7 SWAP9 SWAP8 SWAP6 SWAP5 SWAP8 PUSH2 0x15D0 JUMP JUMPDEST POP DUP3 DUP6 LT PUSH2 0x1627 JUMP JUMPDEST PUSH2 0x16BF DUP4 DUP6 PUSH2 0x16B2 DUP5 SWAP11 SWAP9 SWAP11 SWAP10 SWAP7 SWAP8 SWAP10 PUSH2 0x3A7D JUMP JUMPDEST SWAP1 SLOAD SWAP1 PUSH1 0x3 SHL SHR AND PUSH2 0x318A JUMP JUMPDEST PUSH2 0x16D9 JUMPI JUMPDEST PUSH2 0x16CD SWAP1 PUSH2 0x320F JUMP JUMPDEST SWAP6 SWAP4 SWAP6 SWAP5 SWAP3 SWAP2 SWAP5 PUSH2 0x158E JUMP JUMPDEST SWAP4 PUSH2 0x16E6 PUSH2 0x16CD SWAP2 PUSH2 0x320F JUMP JUMPDEST SWAP5 SWAP1 POP PUSH2 0x16C4 JUMP JUMPDEST PUSH1 0x40 MLOAD PUSH4 0xF070CB6F PUSH1 0xE0 SHL DUP2 MSTORE PUSH1 0x4 SWAP1 REVERT JUMPDEST CALLVALUE PUSH2 0x1A2 JUMPI PUSH1 0x20 CALLDATASIZE PUSH1 0x3 NOT ADD SLT PUSH2 0x1A2 JUMPI PUSH2 0x171C PUSH1 0x4 CALLDATALOAD PUSH2 0x3E8C JUMP JUMPDEST PUSH1 0x40 MLOAD DUP1 SWAP2 PUSH1 0x20 DUP3 MSTORE DUP1 MLOAD PUSH2 0x178A PUSH2 0x1742 PUSH2 0x140 SWAP3 DUP4 PUSH1 0x20 DUP8 ADD MSTORE PUSH2 0x160 DUP7 ADD SWAP1 PUSH2 0x2DEC JUMP JUMPDEST PUSH2 0x1775 PUSH2 0x1761 PUSH1 0x20 DUP7 ADD MLOAD SWAP3 PUSH1 0x1F NOT SWAP4 DUP5 DUP10 DUP4 SUB ADD PUSH1 0x40 DUP11 ADD MSTORE PUSH2 0x2DEC JUMP JUMPDEST PUSH1 0x40 DUP7 ADD MLOAD DUP4 DUP9 DUP4 SUB ADD PUSH1 0x60 DUP10 ADD MSTORE PUSH2 0x2DEC JUMP JUMPDEST SWAP1 PUSH1 0x60 DUP6 ADD MLOAD SWAP1 DUP7 DUP4 SUB ADD PUSH1 0x80 DUP8 ADD MSTORE PUSH2 0x2DEC JUMP JUMPDEST SWAP2 PUSH1 0x1 DUP1 PUSH1 0xA0 SHL SUB PUSH1 0x80 DUP3 ADD MLOAD AND PUSH1 0xA0 DUP6 ADD MSTORE PUSH1 0xA0 DUP2 ADD MLOAD PUSH1 0xC0 DUP6 ADD MSTORE PUSH1 0xC0 DUP2 ADD MLOAD PUSH1 0xE0 DUP6 ADD MSTORE PUSH1 0xE0 DUP2 ADD MLOAD PUSH2 0x100 SWAP1 DUP2 DUP7 ADD MSTORE DUP2 ADD MLOAD SWAP1 PUSH2 0x120 SWAP2 DUP3 DUP7 ADD MSTORE ADD MLOAD ISZERO ISZERO SWAP1 DUP4 ADD MSTORE SUB SWAP1 RETURN JUMPDEST CALLVALUE PUSH2 0x1A2 JUMPI PUSH1 0x20 CALLDATASIZE PUSH1 0x3 NOT ADD SLT PUSH2 0x1A2 JUMPI PUSH1 0x4 CALLDATALOAD PUSH1 0x0 SWAP1 DUP2 MSTORE PUSH1 0x9 PUSH1 0x20 MSTORE PUSH1 0x40 SWAP1 KECCAK256 DUP1 SLOAD PUSH1 0x1 DUP3 ADD SLOAD PUSH1 0x1 PUSH1 0x1 PUSH1 0xA0 SHL SUB AND SWAP2 PUSH2 0x1815 PUSH1 0x2 DUP3 ADD PUSH2 0x305C JUMP JUMPDEST PUSH2 0x1821 PUSH1 0x3 DUP4 ADD PUSH2 0x305C JUMP JUMPDEST SWAP2 PUSH2 0x182E PUSH1 0x4 DUP3 ADD PUSH2 0x305C JUMP JUMPDEST SWAP3 PUSH2 0x183B PUSH1 0x5 DUP4 ADD PUSH2 0x305C JUMP JUMPDEST SWAP4 PUSH1 0x6 DUP4 ADD SLOAD SWAP5 PUSH1 0x7 DUP5 ADD SLOAD SWAP2 PUSH1 0x8 DUP6 ADD SLOAD SWAP4 PUSH1 0x9 DUP7 ADD SLOAD SWAP6 PUSH1 0xA ADD SLOAD PUSH1 0xFF AND SWAP7 PUSH1 0x40 MLOAD SWAP11 DUP12 SWAP11 DUP12 MSTORE PUSH1 0x20 DUP12 ADD MSTORE PUSH2 0x160 DUP1 PUSH1 0x40 DUP13 ADD MSTORE DUP11 ADD PUSH2 0x187D SWAP2 PUSH2 0x2DEC JUMP JUMPDEST DUP10 DUP2 SUB PUSH1 0x60 DUP12 ADD MSTORE PUSH2 0x188E SWAP2 PUSH2 0x2DEC JUMP JUMPDEST DUP9 DUP2 SUB PUSH1 0x80 DUP11 ADD MSTORE PUSH2 0x189F SWAP2 PUSH2 0x2DEC JUMP JUMPDEST DUP8 DUP2 SUB PUSH1 0xA0 DUP10 ADD MSTORE PUSH2 0x18B0 SWAP2 PUSH2 0x2DEC JUMP JUMPDEST SWAP5 PUSH1 0xC0 DUP8 ADD MSTORE PUSH1 0xE0 DUP7 ADD MSTORE PUSH2 0x100 DUP6 ADD MSTORE PUSH2 0x120 DUP5 ADD MSTORE ISZERO ISZERO PUSH2 0x140 DUP4 ADD MSTORE SUB SWAP1 RETURN JUMPDEST CALLVALUE PUSH2 0x1A2 JUMPI PUSH1 0x0 CALLDATASIZE PUSH1 0x3 NOT ADD SLT PUSH2 0x1A2 JUMPI PUSH1 0x20 PUSH1 0xFF PUSH1 0x7 SLOAD AND PUSH1 0x40 MLOAD SWAP1 ISZERO ISZERO DUP2 MSTORE RETURN JUMPDEST CALLVALUE PUSH2 0x1A2 JUMPI PUSH1 0x40 CALLDATASIZE PUSH1 0x3 NOT ADD SLT PUSH2 0x1A2 JUMPI PUSH1 0x4 CALLDATALOAD PUSH1 0x1 PUSH1 0x1 PUSH1 0x40 SHL SUB DUP1 DUP3 GT PUSH2 0x1A2 JUMPI CALLDATASIZE PUSH1 0x23 DUP4 ADD SLT ISZERO PUSH2 0x1A2 JUMPI DUP2 PUSH1 0x4 ADD CALLDATALOAD SWAP1 PUSH2 0x1933 DUP3 PUSH2 0x2ED1 JUMP JUMPDEST SWAP3 PUSH2 0x1941 PUSH1 0x40 MLOAD SWAP5 DUP6 PUSH2 0x2EB0 JUMP JUMPDEST DUP3 DUP5 MSTORE PUSH1 0x20 SWAP3 PUSH1 0x24 DUP5 DUP7 ADD SWAP2 PUSH1 0x5 SHL DUP4 ADD ADD SWAP2 CALLDATASIZE DUP4 GT PUSH2 0x1A2 JUMPI PUSH1 0x24 ADD SWAP1 JUMPDEST DUP3 DUP3 LT PUSH2 0x1A73 JUMPI POP POP POP PUSH1 0x24 CALLDATALOAD SWAP1 DUP2 GT PUSH2 0x1A2 JUMPI PUSH2 0x1982 SWAP1 CALLDATASIZE SWAP1 PUSH1 0x4 ADD PUSH2 0x2F36 JUMP JUMPDEST DUP3 MLOAD DUP2 MLOAD SUB PUSH2 0x1A1C JUMPI DUP3 MLOAD SWAP3 PUSH2 0x1997 DUP5 PUSH2 0x2ED1 JUMP JUMPDEST SWAP4 PUSH2 0x19A5 PUSH1 0x40 MLOAD SWAP6 DUP7 PUSH2 0x2EB0 JUMP JUMPDEST DUP1 DUP6 MSTORE PUSH2 0x19B4 PUSH1 0x1F NOT SWAP2 PUSH2 0x2ED1 JUMP JUMPDEST ADD CALLDATASIZE DUP5 DUP7 ADD CALLDATACOPY PUSH1 0x0 JUMPDEST DUP2 MLOAD DUP2 LT ISZERO PUSH2 0x1A01 JUMPI PUSH2 0x19FC SWAP1 PUSH2 0x19F2 PUSH1 0x1 PUSH1 0x1 PUSH1 0xA0 SHL SUB PUSH2 0x19DF DUP4 DUP7 PUSH2 0x321E JUMP JUMPDEST MLOAD AND PUSH2 0x19EB DUP4 DUP8 PUSH2 0x321E JUMP JUMPDEST MLOAD SWAP1 PUSH2 0x318A JUMP JUMPDEST PUSH2 0x167A DUP3 DUP9 PUSH2 0x321E JUMP JUMPDEST PUSH2 0x19BD JUMP JUMPDEST POP POP POP PUSH2 0x1A18 PUSH1 0x40 MLOAD SWAP3 DUP3 DUP5 SWAP4 DUP5 MSTORE DUP4 ADD SWAP1 PUSH2 0x2FEE JUMP JUMPDEST SUB SWAP1 RETURN JUMPDEST PUSH1 0x40 MLOAD PUSH3 0x461BCD PUSH1 0xE5 SHL DUP2 MSTORE PUSH1 0x4 DUP2 ADD DUP4 SWAP1 MSTORE PUSH1 0x29 PUSH1 0x24 DUP3 ADD MSTORE PUSH32 0x455243313135353A206163636F756E747320616E6420696473206C656E677468 PUSH1 0x44 DUP3 ADD MSTORE PUSH9 0x40DAD2E6DAC2E8C6D PUSH1 0xBB SHL PUSH1 0x64 DUP3 ADD MSTORE PUSH1 0x84 SWAP1 REVERT JUMPDEST DUP2 CALLDATALOAD PUSH1 0x1 PUSH1 0x1 PUSH1 0xA0 SHL SUB DUP2 AND DUP2 SUB PUSH2 0x1A2 JUMPI DUP2 MSTORE SWAP1 DUP5 ADD SWAP1 DUP5 ADD PUSH2 0x1960 JUMP JUMPDEST CALLVALUE PUSH2 0x1A2 JUMPI PUSH2 0x1AA0 CALLDATASIZE PUSH2 0x2E11 JUMP JUMPDEST PUSH2 0x1AA8 PUSH2 0x3A39 JUMP JUMPDEST PUSH1 0x0 DUP3 DUP2 MSTORE PUSH1 0x9 PUSH1 0x20 MSTORE PUSH1 0x40 SWAP1 KECCAK256 PUSH1 0x1 DUP2 ADD SLOAD CALLER PUSH1 0x1 PUSH1 0x1 PUSH1 0xA0 SHL SUB SWAP2 DUP3 AND EQ ISZERO SWAP1 DUP2 PUSH2 0x1B0E JUMPI JUMPDEST POP PUSH2 0x10AA JUMPI DUP2 ISZERO PUSH2 0x11C6 JUMPI DUP2 PUSH32 0x2847CFE8AFE8BCD9AC540F0259739697EA019F65D44C8E76C8796B8CE52F7C31 SWAP3 PUSH1 0x6 PUSH1 0x20 SWAP4 ADD SSTORE PUSH1 0x40 MLOAD SWAP1 DUP2 MSTORE LOG2 STOP JUMPDEST SWAP1 POP PUSH1 0x5 SLOAD AND CALLER EQ ISZERO DUP5 PUSH2 0x1AD0 JUMP JUMPDEST CALLVALUE PUSH2 0x1A2 JUMPI PUSH1 0x0 CALLDATASIZE PUSH1 0x3 NOT ADD SLT PUSH2 0x1A2 JUMPI PUSH2 0x1B36 PUSH2 0x3132 JUMP JUMPDEST PUSH1 0x7 SLOAD PUSH1 0xFF DUP2 AND ISZERO PUSH2 0x1B75 JUMPI PUSH1 0xFF NOT AND PUSH1 0x7 SSTORE PUSH32 0x5DB9EE0A495BF2E6FF9C91A7834C1BA4FDD244A5E8AA4E537BD38AEAE4B073AA PUSH1 0x20 PUSH1 0x40 MLOAD CALLER DUP2 MSTORE LOG1 STOP JUMPDEST PUSH1 0x40 MLOAD PUSH3 0x461BCD PUSH1 0xE5 SHL DUP2 MSTORE PUSH1 0x20 PUSH1 0x4 DUP3 ADD MSTORE PUSH1 0x14 PUSH1 0x24 DUP3 ADD MSTORE PUSH20 0x14185D5CD8589B194E881B9BDD081C185D5CD959 PUSH1 0x62 SHL PUSH1 0x44 DUP3 ADD MSTORE PUSH1 0x64 SWAP1 REVERT JUMPDEST CALLVALUE PUSH2 0x1A2 JUMPI PUSH1 0x0 CALLDATASIZE PUSH1 0x3 NOT ADD SLT PUSH2 0x1A2 JUMPI PUSH1 0x20 PUSH1 0x40 MLOAD PUSH2 0x9C4 DUP2 MSTORE RETURN JUMPDEST CALLVALUE PUSH2 0x1A2 JUMPI PUSH1 0xE0 CALLDATASIZE PUSH1 0x3 NOT ADD SLT PUSH2 0x1A2 JUMPI PUSH1 0x4 CALLDATALOAD PUSH1 0x1 PUSH1 0x1 PUSH1 0x40 SHL SUB DUP2 GT PUSH2 0x1A2 JUMPI PUSH2 0x1BFE SWAP1 CALLDATASIZE SWAP1 PUSH1 0x4 ADD PUSH2 0x2FC1 JUMP JUMPDEST PUSH1 0x24 CALLDATALOAD PUSH1 0x1 PUSH1 0x1 PUSH1 0x40 SHL SUB DUP2 GT PUSH2 0x1A2 JUMPI PUSH2 0x1C1D SWAP1 CALLDATASIZE SWAP1 PUSH1 0x4 ADD PUSH2 0x2FC1 JUMP JUMPDEST SWAP1 SWAP3 PUSH1 0x44 CALLDATALOAD PUSH1 0x1 PUSH1 0x1 PUSH1 0x40 SHL SUB DUP2 GT PUSH2 0x1A2 JUMPI PUSH2 0x1C3E SWAP1 CALLDATASIZE SWAP1 PUSH1 0x4 ADD PUSH2 0x2FC1 JUMP JUMPDEST PUSH1 0x64 SWAP5 SWAP2 SWAP5 CALLDATALOAD PUSH1 0x1 PUSH1 0x1 PUSH1 0x40 SHL SUB DUP2 GT PUSH2 0x1A2 JUMPI PUSH2 0x1C60 SWAP1 CALLDATASIZE SWAP1 PUSH1 0x4 ADD PUSH2 0x2FC1 JUMP JUMPDEST SWAP1 PUSH2 0x1C69 PUSH2 0x3A39 JUMP JUMPDEST CALLER ISZERO PUSH2 0x10BC JUMPI DUP4 ISZERO DUP1 ISZERO PUSH2 0x23F4 JUMPI JUMPDEST DUP1 ISZERO PUSH2 0x23EC JUMPI JUMPDEST DUP1 ISZERO PUSH2 0x23E4 JUMPI JUMPDEST PUSH2 0xB12 JUMPI PUSH1 0x84 CALLDATALOAD ISZERO PUSH2 0x11C6 JUMPI PUSH1 0xA4 CALLDATALOAD ISZERO PUSH2 0x23D2 JUMPI PUSH2 0x9C4 PUSH1 0xC4 CALLDATALOAD GT PUSH2 0x23C0 JUMPI PUSH2 0x1D00 SWAP2 PUSH2 0x1CF4 PUSH1 0x1 PUSH1 0x8 SLOAD ADD SWAP9 DUP10 PUSH1 0x8 SSTORE PUSH1 0x40 MLOAD SWAP6 PUSH2 0x1CC4 DUP8 PUSH2 0x2E27 JUMP JUMPDEST DUP11 DUP8 MSTORE CALLER PUSH1 0x20 DUP9 ADD MSTORE PUSH2 0x1CD8 CALLDATASIZE DUP10 DUP12 PUSH2 0x2F6F JUMP JUMPDEST PUSH1 0x40 DUP9 ADD MSTORE PUSH2 0x1CE8 CALLDATASIZE DUP12 DUP15 PUSH2 0x2F6F JUMP JUMPDEST PUSH1 0x60 DUP9 ADD MSTORE CALLDATASIZE SWAP2 PUSH2 0x2F6F JUMP JUMPDEST PUSH1 0x80 DUP6 ADD MSTORE CALLDATASIZE SWAP2 PUSH2 0x2F6F JUMP JUMPDEST PUSH1 0xA0 DUP3 ADD MSTORE PUSH1 0x84 CALLDATALOAD PUSH1 0xC0 DUP3 ADD MSTORE PUSH1 0xA4 CALLDATALOAD PUSH1 0xE0 DUP3 ADD MSTORE PUSH1 0x0 PUSH2 0x100 DUP3 ADD MSTORE PUSH1 0xC4 CALLDATALOAD PUSH2 0x120 DUP3 ADD MSTORE PUSH1 0x1 PUSH2 0x140 DUP3 ADD MSTORE DUP5 PUSH1 0x0 MSTORE PUSH1 0x9 PUSH1 0x20 MSTORE PUSH1 0x40 PUSH1 0x0 KECCAK256 SWAP1 DUP1 MLOAD DUP3 SSTORE PUSH1 0x1 DUP1 PUSH1 0xA0 SHL SUB PUSH1 0x20 DUP3 ADD MLOAD AND PUSH1 0x1 PUSH1 0x1 PUSH1 0x60 SHL SUB PUSH1 0xA0 SHL PUSH1 0x1 DUP5 ADD SLOAD AND OR PUSH1 0x1 DUP4 ADD SSTORE PUSH1 0x40 DUP2 ADD MLOAD DUP1 MLOAD SWAP1 PUSH1 0x1 PUSH1 0x1 PUSH1 0x40 SHL SUB DUP3 GT PUSH2 0x9BC JUMPI DUP2 SWAP1 PUSH2 0x1D97 DUP3 PUSH2 0x1D8E PUSH1 0x2 DUP9 ADD SLOAD PUSH2 0x3022 JUMP JUMPDEST PUSH1 0x2 DUP9 ADD PUSH2 0x39E5 JUMP JUMPDEST PUSH1 0x20 SWAP1 PUSH1 0x1F DUP4 GT PUSH1 0x1 EQ PUSH2 0x234E JUMPI PUSH1 0x0 SWAP3 PUSH2 0x2343 JUMPI JUMPDEST POP POP DUP2 PUSH1 0x1 SHL SWAP2 PUSH1 0x0 NOT SWAP1 PUSH1 0x3 SHL SHR NOT AND OR PUSH1 0x2 DUP4 ADD SSTORE JUMPDEST PUSH1 0x60 DUP2 ADD MLOAD DUP1 MLOAD SWAP1 PUSH1 0x1 PUSH1 0x1 PUSH1 0x40 SHL SUB DUP3 GT PUSH2 0x9BC JUMPI DUP2 SWAP1 PUSH2 0x1DF7 DUP3 PUSH2 0x1DEE PUSH1 0x3 DUP9 ADD SLOAD PUSH2 0x3022 JUMP JUMPDEST PUSH1 0x3 DUP9 ADD PUSH2 0x39E5 JUMP JUMPDEST PUSH1 0x20 SWAP1 PUSH1 0x1F DUP4 GT PUSH1 0x1 EQ PUSH2 0x22D1 JUMPI PUSH1 0x0 SWAP3 PUSH2 0x22C6 JUMPI JUMPDEST POP POP DUP2 PUSH1 0x1 SHL SWAP2 PUSH1 0x0 NOT SWAP1 PUSH1 0x3 SHL SHR NOT AND OR PUSH1 0x3 DUP4 ADD SSTORE JUMPDEST PUSH1 0x80 DUP2 ADD MLOAD DUP1 MLOAD SWAP1 PUSH1 0x1 PUSH1 0x1 PUSH1 0x40 SHL SUB DUP3 GT PUSH2 0x9BC JUMPI DUP2 SWAP1 PUSH2 0x1E57 DUP3 PUSH2 0x1E4E PUSH1 0x4 DUP9 ADD SLOAD PUSH2 0x3022 JUMP JUMPDEST PUSH1 0x4 DUP9 ADD PUSH2 0x39E5 JUMP JUMPDEST PUSH1 0x20 SWAP1 PUSH1 0x1F DUP4 GT PUSH1 0x1 EQ PUSH2 0x2254 JUMPI PUSH1 0x0 SWAP3 PUSH2 0x2249 JUMPI JUMPDEST POP POP DUP2 PUSH1 0x1 SHL SWAP2 PUSH1 0x0 NOT SWAP1 PUSH1 0x3 SHL SHR NOT AND OR PUSH1 0x4 DUP4 ADD SSTORE JUMPDEST PUSH1 0xA0 DUP2 ADD MLOAD DUP1 MLOAD SWAP1 PUSH1 0x1 PUSH1 0x1 PUSH1 0x40 SHL SUB DUP3 GT PUSH2 0x9BC JUMPI PUSH2 0x1EB5 DUP3 PUSH2 0x1EAC PUSH1 0x5 DUP8 ADD SLOAD PUSH2 0x3022 JUMP JUMPDEST PUSH1 0x5 DUP8 ADD PUSH2 0x39E5 JUMP JUMPDEST PUSH1 0x20 SWAP1 PUSH1 0x1F DUP4 GT PUSH1 0x1 EQ PUSH2 0x21CF JUMPI SWAP3 DUP3 PUSH1 0xA SWAP4 PUSH2 0x140 SWAP4 PUSH2 0x1F32 SWAP8 SWAP7 PUSH1 0x0 SWAP3 PUSH2 0x21C4 JUMPI JUMPDEST POP POP DUP2 PUSH1 0x1 SHL SWAP2 PUSH1 0x0 NOT SWAP1 PUSH1 0x3 SHL SHR NOT AND OR PUSH1 0x5 DUP6 ADD SSTORE JUMPDEST PUSH1 0xC0 DUP2 ADD MLOAD PUSH1 0x6 DUP6 ADD SSTORE PUSH1 0xE0 DUP2 ADD MLOAD PUSH1 0x7 DUP6 ADD SSTORE PUSH2 0x100 DUP2 ADD MLOAD PUSH1 0x8 DUP6 ADD SSTORE PUSH2 0x120 DUP2 ADD MLOAD PUSH1 0x9 DUP6 ADD SSTORE ADD MLOAD ISZERO ISZERO SWAP2 ADD SWAP1 PUSH1 0xFF DUP1 NOT DUP4 SLOAD AND SWAP2 ISZERO ISZERO AND OR SWAP1 SSTORE JUMP JUMPDEST DUP4 PUSH1 0x0 MSTORE PUSH1 0xB PUSH1 0x20 MSTORE PUSH1 0x40 PUSH1 0x0 KECCAK256 SWAP2 PUSH1 0x1 PUSH1 0x1 PUSH1 0x40 SHL SUB DUP3 GT PUSH2 0x9BC JUMPI DUP2 SWAP1 PUSH2 0x1F65 DUP3 PUSH2 0x1F5F DUP7 SLOAD PUSH2 0x3022 JUMP JUMPDEST DUP7 PUSH2 0x39E5 JUMP JUMPDEST PUSH1 0x0 SWAP1 PUSH1 0x1F DUP4 GT PUSH1 0x1 EQ PUSH2 0x215C JUMPI PUSH1 0x0 SWAP3 PUSH2 0x2151 JUMPI JUMPDEST POP POP DUP2 PUSH1 0x1 SHL SWAP2 PUSH1 0x0 NOT SWAP1 PUSH1 0x3 SHL SHR NOT AND OR SWAP1 SSTORE JUMPDEST DUP2 PUSH1 0x0 MSTORE PUSH1 0xC PUSH1 0x20 MSTORE PUSH1 0x40 PUSH1 0x0 KECCAK256 SWAP1 PUSH1 0x1 PUSH1 0x1 PUSH1 0x40 SHL SUB DUP2 GT PUSH2 0x9BC JUMPI PUSH2 0x1FC1 DUP2 PUSH2 0x1FBB DUP5 SLOAD PUSH2 0x3022 JUMP JUMPDEST DUP5 PUSH2 0x39E5 JUMP JUMPDEST PUSH1 0x0 PUSH1 0x1F DUP3 GT PUSH1 0x1 EQ PUSH2 0x20EB JUMPI DUP2 SWAP3 SWAP4 SWAP5 PUSH1 0x0 SWAP3 PUSH2 0x20E0 JUMPI JUMPDEST POP POP DUP2 PUSH1 0x1 SHL SWAP2 PUSH1 0x0 NOT SWAP1 PUSH1 0x3 SHL SHR NOT AND OR SWAP1 SSTORE JUMPDEST PUSH1 0x1 PUSH1 0x1 PUSH1 0x60 SHL SUB PUSH1 0xC4 CALLDATALOAD AND SWAP1 PUSH2 0x2710 DUP3 GT PUSH2 0x2088 JUMPI PUSH1 0x40 MLOAD PUSH1 0x20 SWAP3 PUSH2 0x2014 DUP3 PUSH2 0x2E43 JUMP JUMPDEST CALLER DUP3 MSTORE DUP4 DUP3 ADD SWAP1 DUP2 MSTORE DUP3 PUSH1 0x0 MSTORE PUSH1 0x4 DUP5 MSTORE PUSH1 0x40 PUSH1 0x0 KECCAK256 SWAP2 PUSH1 0x1 DUP1 PUSH1 0xA0 SHL SUB SWAP1 MLOAD AND SWAP1 PUSH1 0x1 PUSH1 0x1 PUSH1 0x60 SHL SUB PUSH1 0xA0 SHL SWAP1 MLOAD PUSH1 0xA0 SHL AND OR SWAP1 SSTORE PUSH1 0x40 MLOAD PUSH1 0x84 CALLDATALOAD DUP2 MSTORE PUSH1 0xA4 CALLDATALOAD DUP4 DUP3 ADD MSTORE DUP2 PUSH32 0x23CBB18BFB096672F2FC538A6D637483D9DB0F85666AE980EBA20AE2874DA1A4 PUSH1 0x40 CALLER SWAP4 LOG3 PUSH1 0x40 MLOAD SWAP1 DUP2 MSTORE RETURN JUMPDEST PUSH1 0x40 MLOAD PUSH3 0x461BCD PUSH1 0xE5 SHL DUP2 MSTORE PUSH1 0x20 PUSH1 0x4 DUP3 ADD MSTORE PUSH1 0x2A PUSH1 0x24 DUP3 ADD MSTORE PUSH32 0x455243323938313A20726F79616C7479206665652077696C6C20657863656564 PUSH1 0x44 DUP3 ADD MSTORE PUSH10 0x2073616C655072696365 PUSH1 0xB0 SHL PUSH1 0x64 DUP3 ADD MSTORE PUSH1 0x84 SWAP1 REVERT JUMPDEST ADD CALLDATALOAD SWAP1 POP DUP5 DUP1 PUSH2 0x1FDA JUMP JUMPDEST PUSH1 0x1F NOT DUP3 AND SWAP5 DUP4 PUSH1 0x0 MSTORE PUSH1 0x20 PUSH1 0x0 KECCAK256 SWAP2 PUSH1 0x0 JUMPDEST DUP8 DUP2 LT PUSH2 0x2139 JUMPI POP DUP4 PUSH1 0x1 SWAP6 SWAP7 SWAP8 LT PUSH2 0x211F JUMPI JUMPDEST POP POP POP DUP2 SHL ADD SWAP1 SSTORE PUSH2 0x1FEF JUMP JUMPDEST ADD CALLDATALOAD PUSH1 0x0 NOT PUSH1 0x3 DUP5 SWAP1 SHL PUSH1 0xF8 AND SHR NOT AND SWAP1 SSTORE DUP5 DUP1 DUP1 PUSH2 0x2112 JUMP JUMPDEST SWAP1 SWAP3 PUSH1 0x20 PUSH1 0x1 DUP2 SWAP3 DUP7 DUP7 ADD CALLDATALOAD DUP2 SSTORE ADD SWAP5 ADD SWAP2 ADD PUSH2 0x20FE JUMP JUMPDEST ADD CALLDATALOAD SWAP1 POP DUP7 DUP1 PUSH2 0x1F7B JUMP JUMPDEST PUSH1 0x0 DUP6 DUP2 MSTORE PUSH1 0x20 DUP2 KECCAK256 SWAP1 SWAP5 POP SWAP2 JUMPDEST PUSH1 0x1F NOT DUP5 AND DUP6 LT PUSH2 0x21AC JUMPI PUSH1 0x1 SWAP5 POP DUP4 PUSH1 0x1F NOT DUP2 AND LT PUSH2 0x2192 JUMPI JUMPDEST POP POP POP DUP2 SHL ADD SWAP1 SSTORE PUSH2 0x1F90 JUMP JUMPDEST ADD CALLDATALOAD PUSH1 0x0 NOT PUSH1 0x3 DUP5 SWAP1 SHL PUSH1 0xF8 AND SHR NOT AND SWAP1 SSTORE DUP7 DUP1 DUP1 PUSH2 0x2185 JUMP JUMPDEST DUP2 DUP2 ADD CALLDATALOAD DUP4 SSTORE PUSH1 0x20 SWAP5 DUP6 ADD SWAP5 PUSH1 0x1 SWAP1 SWAP4 ADD SWAP3 ADD PUSH2 0x216A JUMP JUMPDEST ADD MLOAD SWAP1 POP DUP13 DUP1 PUSH2 0x1ED9 JUMP JUMPDEST SWAP1 PUSH1 0x5 DUP6 ADD PUSH1 0x0 MSTORE PUSH1 0x20 PUSH1 0x0 KECCAK256 SWAP2 PUSH1 0x0 JUMPDEST PUSH1 0x1F NOT DUP6 AND DUP2 LT PUSH2 0x2231 JUMPI POP DUP4 PUSH2 0x140 SWAP4 PUSH2 0x1F32 SWAP8 SWAP7 SWAP4 PUSH1 0x1 SWAP4 PUSH1 0xA SWAP8 PUSH1 0x1F NOT DUP2 AND LT PUSH2 0x2218 JUMPI JUMPDEST POP POP POP DUP2 SHL ADD PUSH1 0x5 DUP6 ADD SSTORE PUSH2 0x1EF1 JUMP JUMPDEST ADD MLOAD PUSH1 0x0 NOT PUSH1 0xF8 DUP5 PUSH1 0x3 SHL AND SHR NOT AND SWAP1 SSTORE DUP13 DUP1 DUP1 PUSH2 0x2208 JUMP JUMPDEST SWAP2 SWAP3 PUSH1 0x20 PUSH1 0x1 DUP2 SWAP3 DUP7 DUP6 ADD MLOAD DUP2 SSTORE ADD SWAP5 ADD SWAP3 ADD PUSH2 0x21E0 JUMP JUMPDEST ADD MLOAD SWAP1 POP DUP10 DUP1 PUSH2 0x1E6D JUMP JUMPDEST SWAP3 POP PUSH1 0x4 DUP6 ADD PUSH1 0x0 MSTORE PUSH1 0x20 PUSH1 0x0 KECCAK256 SWAP1 PUSH1 0x0 SWAP4 JUMPDEST PUSH1 0x1F NOT DUP5 AND DUP6 LT PUSH2 0x22AB JUMPI PUSH1 0x1 SWAP5 POP DUP4 PUSH1 0x1F NOT DUP2 AND LT PUSH2 0x2292 JUMPI JUMPDEST POP POP POP DUP2 SHL ADD PUSH1 0x4 DUP4 ADD SSTORE PUSH2 0x1E85 JUMP JUMPDEST ADD MLOAD PUSH1 0x0 NOT PUSH1 0xF8 DUP5 PUSH1 0x3 SHL AND SHR NOT AND SWAP1 SSTORE DUP10 DUP1 DUP1 PUSH2 0x2282 JUMP JUMPDEST DUP2 DUP2 ADD MLOAD DUP4 SSTORE PUSH1 0x20 SWAP5 DUP6 ADD SWAP5 PUSH1 0x1 SWAP1 SWAP4 ADD SWAP3 SWAP1 SWAP2 ADD SWAP1 PUSH2 0x2267 JUMP JUMPDEST ADD MLOAD SWAP1 POP DUP10 DUP1 PUSH2 0x1E0D JUMP JUMPDEST SWAP3 POP PUSH1 0x3 DUP6 ADD PUSH1 0x0 MSTORE PUSH1 0x20 PUSH1 0x0 KECCAK256 SWAP1 PUSH1 0x0 SWAP4 JUMPDEST PUSH1 0x1F NOT DUP5 AND DUP6 LT PUSH2 0x2328 JUMPI PUSH1 0x1 SWAP5 POP DUP4 PUSH1 0x1F NOT DUP2 AND LT PUSH2 0x230F JUMPI JUMPDEST POP POP POP DUP2 SHL ADD PUSH1 0x3 DUP4 ADD SSTORE PUSH2 0x1E25 JUMP JUMPDEST ADD MLOAD PUSH1 0x0 NOT PUSH1 0xF8 DUP5 PUSH1 0x3 SHL AND SHR NOT AND SWAP1 SSTORE DUP10 DUP1 DUP1 PUSH2 0x22FF JUMP JUMPDEST DUP2 DUP2 ADD MLOAD DUP4 SSTORE PUSH1 0x20 SWAP5 DUP6 ADD SWAP5 PUSH1 0x1 SWAP1 SWAP4 ADD SWAP3 SWAP1 SWAP2 ADD SWAP1 PUSH2 0x22E4 JUMP JUMPDEST ADD MLOAD SWAP1 POP DUP10 DUP1 PUSH2 0x1DAD JUMP JUMPDEST SWAP3 POP PUSH1 0x2 DUP6 ADD PUSH1 0x0 MSTORE PUSH1 0x20 PUSH1 0x0 KECCAK256 SWAP1 PUSH1 0x0 SWAP4 JUMPDEST PUSH1 0x1F NOT DUP5 AND DUP6 LT PUSH2 0x23A5 JUMPI PUSH1 0x1 SWAP5 POP DUP4 PUSH1 0x1F NOT DUP2 AND LT PUSH2 0x238C JUMPI JUMPDEST POP POP POP DUP2 SHL ADD PUSH1 0x2 DUP4 ADD SSTORE PUSH2 0x1DC5 JUMP JUMPDEST ADD MLOAD PUSH1 0x0 NOT PUSH1 0xF8 DUP5 PUSH1 0x3 SHL AND SHR NOT AND SWAP1 SSTORE DUP10 DUP1 DUP1 PUSH2 0x237C JUMP JUMPDEST DUP2 DUP2 ADD MLOAD DUP4 SSTORE PUSH1 0x20 SWAP5 DUP6 ADD SWAP5 PUSH1 0x1 SWAP1 SWAP4 ADD SWAP3 SWAP1 SWAP2 ADD SWAP1 PUSH2 0x2361 JUMP JUMPDEST PUSH1 0x40 MLOAD PUSH4 0xE0E54CED PUSH1 0xE0 SHL DUP2 MSTORE PUSH1 0x4 SWAP1 REVERT JUMPDEST PUSH1 0x40 MLOAD PUSH4 0x15AE6727 PUSH1 0xE0 SHL DUP2 MSTORE PUSH1 0x4 SWAP1 REVERT JUMPDEST POP DUP2 ISZERO PUSH2 0x1C86 JUMP JUMPDEST POP DUP3 ISZERO PUSH2 0x1C7F JUMP JUMPDEST POP DUP6 ISZERO PUSH2 0x1C78 JUMP JUMPDEST CALLVALUE PUSH2 0x1A2 JUMPI PUSH1 0x20 CALLDATASIZE PUSH1 0x3 NOT ADD SLT PUSH2 0x1A2 JUMPI PUSH1 0x4 CALLDATALOAD PUSH2 0x2418 PUSH2 0x3B25 JUMP JUMPDEST PUSH2 0x2420 PUSH2 0x3A39 JUMP JUMPDEST DUP1 PUSH1 0x0 MSTORE PUSH1 0xA PUSH1 0x20 MSTORE PUSH1 0x40 PUSH1 0x0 KECCAK256 CALLER PUSH1 0x0 MSTORE PUSH1 0x20 MSTORE CALLER PUSH1 0x1 DUP1 PUSH1 0xA0 SHL SUB PUSH1 0x40 PUSH1 0x0 KECCAK256 SLOAD AND SUB PUSH2 0x10AA JUMPI DUP1 PUSH1 0x0 MSTORE PUSH1 0xA PUSH1 0x20 MSTORE PUSH1 0x40 PUSH1 0x0 KECCAK256 CALLER PUSH1 0x0 MSTORE PUSH1 0x20 MSTORE PUSH1 0x0 PUSH1 0x2 PUSH1 0x40 DUP3 KECCAK256 DUP3 DUP2 SSTORE DUP3 PUSH1 0x1 DUP3 ADD SSTORE ADD SSTORE CALLER SWAP1 PUSH32 0x8E25282255AB31897DF2B0456BB993AC7F84D376861AEFD84901D2D63A7428A2 PUSH1 0x0 DUP1 LOG3 PUSH1 0x1 PUSH1 0x6 SSTORE STOP JUMPDEST CALLVALUE PUSH2 0x1A2 JUMPI PUSH1 0x3 NOT PUSH1 0xA0 CALLDATASIZE DUP3 ADD SLT PUSH2 0x1A2 JUMPI PUSH2 0x24B9 PUSH2 0x2D9D JUMP JUMPDEST PUSH2 0x24C1 PUSH2 0x2DB3 JUMP JUMPDEST SWAP1 PUSH1 0x1 PUSH1 0x1 PUSH1 0x40 SHL SUB SWAP1 PUSH1 0x44 CALLDATALOAD DUP3 DUP2 GT PUSH2 0x1A2 JUMPI PUSH2 0x24E3 SWAP1 CALLDATASIZE SWAP1 PUSH1 0x4 ADD PUSH2 0x2F36 JUMP JUMPDEST PUSH1 0x64 CALLDATALOAD DUP4 DUP2 GT PUSH2 0x1A2 JUMPI PUSH2 0x24FB SWAP1 CALLDATASIZE SWAP1 PUSH1 0x4 ADD PUSH2 0x2F36 JUMP JUMPDEST SWAP3 PUSH1 0x84 CALLDATALOAD SWAP1 DUP2 GT PUSH2 0x1A2 JUMPI PUSH2 0x2514 SWAP1 CALLDATASIZE SWAP1 PUSH1 0x4 ADD PUSH2 0x2FA6 JUMP JUMPDEST PUSH1 0x1 PUSH1 0x1 PUSH1 0xA0 SHL SUB SWAP3 DUP4 AND SWAP6 SWAP1 CALLER DUP8 EQ DUP1 ISZERO PUSH2 0x28A8 JUMPI JUMPDEST PUSH2 0x2534 SWAP1 PUSH2 0x3232 JUMP JUMPDEST PUSH2 0x2541 DUP4 MLOAD DUP7 MLOAD EQ PUSH2 0x372D JUMP JUMPDEST DUP4 DUP7 AND SWAP4 DUP5 ISZERO ISZERO PUSH2 0x2551 DUP2 PUSH2 0x3295 JUMP JUMPDEST DUP1 DUP1 PUSH2 0x288F JUMPI JUMPDEST PUSH2 0x2840 JUMPI JUMPDEST DUP9 ISZERO ISZERO SWAP1 DUP2 PUSH2 0x2838 JUMPI JUMPDEST POP PUSH2 0x26D2 JUMPI JUMPDEST POP PUSH1 0x0 JUMPDEST DUP4 MLOAD DUP2 LT ISZERO PUSH2 0x2600 JUMPI DUP1 PUSH2 0x2588 PUSH2 0x25FB SWAP3 DUP7 PUSH2 0x321E JUMP JUMPDEST MLOAD PUSH2 0x2593 DUP3 DUP10 PUSH2 0x321E JUMP JUMPDEST MLOAD SWAP1 DUP1 PUSH1 0x0 MSTORE PUSH1 0x20 SWAP1 PUSH1 0x0 DUP3 MSTORE PUSH1 0x40 PUSH1 0x0 KECCAK256 DUP13 PUSH1 0x0 MSTORE DUP3 MSTORE DUP3 PUSH1 0x40 PUSH1 0x0 KECCAK256 SLOAD PUSH2 0x25BE DUP3 DUP3 LT ISZERO PUSH2 0x32EF JUMP JUMPDEST DUP3 PUSH1 0x0 MSTORE PUSH1 0x0 DUP5 MSTORE DUP14 PUSH1 0x40 PUSH1 0x0 KECCAK256 SWAP1 PUSH1 0x0 MSTORE DUP5 MSTORE SUB PUSH1 0x40 PUSH1 0x0 KECCAK256 SSTORE PUSH1 0x0 MSTORE PUSH1 0x0 DUP2 MSTORE PUSH1 0x40 PUSH1 0x0 KECCAK256 SWAP1 DUP9 PUSH1 0x0 MSTORE MSTORE PUSH2 0x718 PUSH1 0x40 PUSH1 0x0 KECCAK256 SWAP2 DUP3 SLOAD PUSH2 0x334E JUMP JUMPDEST PUSH2 0x2571 JUMP JUMPDEST POP SWAP1 SWAP5 SWAP4 SWAP3 SWAP2 SWAP4 DUP3 DUP8 PUSH1 0x40 MLOAD PUSH32 0x4A39DC06D4C0DBC64B70AF90FD698A233A518AA5D07E595D983B8C0526C8F7FB CALLER SWAP2 DUP1 PUSH2 0x263B DUP11 DUP13 DUP4 PUSH2 0x378A JUMP JUMPDEST SUB SWAP1 LOG4 EXTCODESIZE PUSH2 0x2645 JUMPI STOP JUMPDEST PUSH1 0x0 PUSH1 0x20 SWAP5 PUSH2 0x2687 PUSH2 0x855 SWAP8 PUSH2 0x845 SWAP5 PUSH1 0x40 MLOAD SWAP10 DUP11 SWAP9 DUP10 SWAP8 DUP9 SWAP7 PUSH4 0xBC197C81 PUSH1 0xE0 SHL SWAP15 DUP16 DUP10 MSTORE CALLER PUSH1 0x4 DUP11 ADD MSTORE PUSH1 0x24 DUP10 ADD MSTORE PUSH1 0xA0 PUSH1 0x44 DUP10 ADD MSTORE PUSH1 0xA4 DUP9 ADD SWAP1 PUSH2 0x2FEE JUMP JUMPDEST SUB SWAP3 GAS CALL PUSH1 0x0 SWAP2 DUP2 PUSH2 0x26B2 JUMPI JUMPDEST POP PUSH2 0x26A1 JUMPI PUSH2 0x881 PUSH2 0x3818 JUMP JUMPDEST PUSH1 0x1 PUSH1 0x1 PUSH1 0xE0 SHL SUB NOT AND SUB PUSH2 0x91D JUMPI STOP JUMPDEST PUSH2 0x26CB SWAP2 SWAP3 POP PUSH1 0x20 RETURNDATASIZE DUP2 GT PUSH2 0x95F JUMPI PUSH2 0x950 DUP2 DUP4 PUSH2 0x2EB0 JUMP JUMPDEST SWAP1 DUP4 PUSH2 0x2694 JUMP JUMPDEST SWAP7 SWAP5 SWAP4 SWAP1 SWAP6 SWAP2 PUSH1 0x0 JUMPDEST DUP5 MLOAD DUP2 LT ISZERO PUSH2 0x282A JUMPI DUP1 PUSH2 0x26F2 PUSH2 0x272A SWAP3 DUP8 PUSH2 0x321E JUMP JUMPDEST MLOAD PUSH1 0x0 MSTORE DUP8 DUP11 PUSH1 0xA PUSH1 0x20 SWAP1 DUP1 DUP3 MSTORE PUSH1 0x40 PUSH1 0x0 KECCAK256 DUP5 PUSH1 0x0 MSTORE DUP3 MSTORE DUP4 PUSH1 0x40 PUSH1 0x0 KECCAK256 SWAP4 DUP5 SLOAD AND EQ DUP1 PUSH2 0x281D JUMPI JUMPDEST PUSH2 0x272F JUMPI JUMPDEST POP POP POP POP PUSH2 0x320F JUMP JUMPDEST PUSH2 0x26DB JUMP JUMPDEST PUSH2 0x2739 DUP6 DUP13 PUSH2 0x321E JUMP JUMPDEST MLOAD SWAP3 DUP12 DUP7 DUP13 PUSH1 0x2 SWAP7 DUP8 DUP6 ADD SWAP4 DUP5 SLOAD DUP1 SWAP3 LT ISZERO PUSH1 0x0 EQ PUSH2 0x27BD JUMPI POP POP SWAP1 SWAP2 POP PUSH1 0x0 SWAP7 POP PUSH2 0x2765 SWAP3 POP PUSH2 0x321E JUMP JUMPDEST MLOAD DUP5 MSTORE DUP2 MSTORE PUSH1 0x40 DUP4 KECCAK256 SWAP1 DUP12 DUP5 MSTORE MSTORE PUSH1 0x40 DUP3 KECCAK256 DUP3 DUP2 SSTORE DUP3 PUSH1 0x1 DUP3 ADD SSTORE ADD SSTORE DUP8 PUSH2 0x278D DUP3 DUP9 PUSH2 0x321E JUMP JUMPDEST MLOAD PUSH32 0x8E25282255AB31897DF2B0456BB993AC7F84D376861AEFD84901D2D63A7428A2 PUSH1 0x0 DUP1 LOG3 JUMPDEST DUP8 DUP12 DUP1 DUP1 PUSH2 0x2721 JUMP JUMPDEST PUSH32 0x36E94395FAFCB0D2A9BCFCDD5CEF807AB52A1F4382906992EBDC18DE5F1472C4 SWAP8 SWAP6 SWAP9 POP PUSH1 0x40 SWAP7 POP SWAP2 PUSH2 0x2802 DUP5 SWAP3 PUSH2 0x27FB PUSH1 0x1 SWAP7 PUSH2 0x280A SWAP7 PUSH2 0x321E JUMP JUMPDEST MLOAD SWAP1 PUSH2 0x3AB4 JUMP JUMPDEST DUP1 SWAP6 SSTORE PUSH2 0x321E JUMP JUMPDEST MLOAD SWAP6 ADD SLOAD SWAP2 DUP4 MLOAD SWAP3 DUP4 MSTORE DUP3 ADD MSTORE LOG3 PUSH2 0x27B4 JUMP JUMPDEST POP PUSH1 0x2 DUP4 ADD SLOAD ISZERO ISZERO PUSH2 0x271C JUMP JUMPDEST POP SWAP2 SWAP6 SWAP1 SWAP4 SWAP5 SWAP7 POP DUP8 PUSH2 0x256D JUMP JUMPDEST SWAP1 POP DUP10 PUSH2 0x2567 JUMP JUMPDEST PUSH1 0xD SLOAD PUSH1 0x1 PUSH1 0x40 SHL DUP2 LT ISZERO PUSH2 0x9BC JUMPI DUP1 PUSH1 0x1 PUSH2 0x285F SWAP3 ADD PUSH1 0xD SSTORE PUSH2 0x3A7D JUMP JUMPDEST DUP2 SLOAD SWAP1 PUSH1 0x3 SHL SWAP1 DUP5 DUP10 DUP4 SHL SWAP3 SHL NOT AND OR SWAP1 SSTORE DUP6 PUSH1 0x0 MSTORE PUSH1 0xE PUSH1 0x20 MSTORE PUSH1 0x40 PUSH1 0x0 KECCAK256 PUSH1 0x1 PUSH1 0xFF NOT DUP3 SLOAD AND OR SWAP1 SSTORE PUSH2 0x255D JUMP JUMPDEST POP DUP6 PUSH1 0x0 MSTORE PUSH1 0xE PUSH1 0x20 MSTORE PUSH1 0xFF PUSH1 0x40 PUSH1 0x0 KECCAK256 SLOAD AND ISZERO PUSH2 0x2558 JUMP JUMPDEST POP DUP7 PUSH1 0x0 MSTORE PUSH1 0x1 PUSH1 0x20 MSTORE PUSH1 0x40 PUSH1 0x0 KECCAK256 CALLER PUSH1 0x0 MSTORE PUSH1 0x20 MSTORE PUSH2 0x2534 PUSH1 0xFF PUSH1 0x40 PUSH1 0x0 KECCAK256 SLOAD AND SWAP1 POP PUSH2 0x252B JUMP JUMPDEST CALLVALUE PUSH2 0x1A2 JUMPI PUSH1 0x40 PUSH2 0x28EA PUSH2 0x28E4 CALLDATASIZE PUSH2 0x2E11 JUMP JUMPDEST SWAP1 PUSH2 0x397C JUMP JUMPDEST DUP3 MLOAD PUSH1 0x1 PUSH1 0x1 PUSH1 0xA0 SHL SUB SWAP1 SWAP3 AND DUP3 MSTORE PUSH1 0x20 DUP3 ADD MSTORE RETURN JUMPDEST CALLVALUE PUSH2 0x1A2 JUMPI PUSH1 0x20 DUP1 PUSH1 0x3 NOT CALLDATASIZE ADD SLT PUSH2 0x1A2 JUMPI PUSH1 0x4 CALLDATALOAD SWAP1 DUP2 PUSH1 0x0 MSTORE PUSH1 0x9 DUP2 MSTORE PUSH1 0x1 DUP1 PUSH1 0xA0 SHL SUB PUSH1 0x1 SWAP3 DUP2 DUP5 PUSH1 0x40 PUSH1 0x0 KECCAK256 ADD SLOAD AND ISZERO PUSH2 0x16EE JUMPI PUSH2 0x2940 SWAP1 PUSH2 0x3E8C JUMP JUMPDEST SWAP1 DUP2 MLOAD SWAP2 DUP4 DUP2 ADD MLOAD SWAP1 PUSH1 0x40 DUP2 ADD MLOAD SWAP3 PUSH1 0x60 DUP3 ADD MLOAD SWAP1 PUSH1 0x80 DUP4 ADD MLOAD AND SWAP7 PUSH1 0x40 MLOAD SWAP8 PUSH2 0x2969 DUP10 PUSH2 0x2E5E JUMP JUMPDEST PUSH1 0x2A DUP10 MSTORE DUP8 DUP10 ADD SWAP2 PUSH1 0x40 CALLDATASIZE DUP5 CALLDATACOPY DUP10 MLOAD ISZERO PUSH2 0x2CBB JUMPI PUSH1 0x30 DUP4 MSTORE8 DUP10 MLOAD DUP2 LT ISZERO PUSH2 0x2CBB JUMPI PUSH1 0x78 PUSH1 0x21 DUP12 ADD MSTORE8 PUSH1 0x29 SWAP1 JUMPDEST DUP1 DUP3 GT PUSH2 0x2C5D JUMPI POP POP PUSH2 0x2C1A JUMPI DUP7 SWAP8 PUSH1 0xC0 DUP5 ADD MLOAD PUSH2 0x29B2 SWAP1 PUSH2 0x3D49 JUMP JUMPDEST SWAP3 PUSH1 0xE0 DUP6 ADD MLOAD PUSH2 0x29C1 SWAP1 PUSH2 0x3D49 JUMP JUMPDEST SWAP5 PUSH2 0x100 ADD MLOAD PUSH2 0x29D0 SWAP1 PUSH2 0x3D49 JUMP JUMPDEST SWAP7 DUP10 PUSH1 0x40 MLOAD SWAP11 DUP12 SWAP11 PUSH9 0x3D913730B6B2911D11 PUSH1 0xB9 SHL DUP3 DUP14 ADD MSTORE DUP12 DUP2 MLOAD SWAP3 PUSH1 0x29 DUP5 SWAP3 ADD SWAP3 ADD SWAP2 PUSH2 0x29FE SWAP3 PUSH2 0x2DC9 JUMP JUMPDEST DUP11 ADD PUSH2 0x88B PUSH1 0xF2 SHL SWAP9 DUP10 PUSH1 0x29 DUP4 ADD MSTORE PUSH15 0x113232B9B1B934B83A34B7B7111D11 PUSH1 0x89 SHL PUSH1 0x2B DUP4 ADD MSTORE DUP1 MLOAD DUP1 SWAP4 PUSH1 0x3A DUP5 ADD SWAP3 ADD SWAP2 PUSH2 0x2A39 SWAP3 PUSH2 0x2DC9 JUMP JUMPDEST ADD DUP8 PUSH1 0x3A DUP3 ADD MSTORE PUSH9 0x1134B6B0B3B2911D11 PUSH1 0xB9 SHL PUSH1 0x3C DUP3 ADD MSTORE DUP2 MLOAD SWAP2 DUP3 DUP14 PUSH1 0x45 DUP5 ADD SWAP3 ADD SWAP2 PUSH2 0x2A67 SWAP3 PUSH2 0x2DC9 JUMP JUMPDEST ADD DUP7 PUSH1 0x45 DUP3 ADD MSTORE PUSH17 0x1130B734B6B0BA34B7B72FBAB936111D11 PUSH1 0x79 SHL PUSH1 0x47 DUP3 ADD MSTORE DUP2 MLOAD SWAP2 DUP3 DUP13 PUSH1 0x58 DUP5 ADD SWAP3 ADD SWAP2 PUSH2 0x2A9D SWAP3 PUSH2 0x2DC9 JUMP JUMPDEST ADD SWAP1 DUP6 PUSH1 0x58 DUP4 ADD MSTORE PUSH14 0x2270726F70657274696573223A7B PUSH1 0x90 SHL PUSH1 0x5A DUP4 ADD MSTORE PUSH11 0x1131B932B0BA37B9111D11 PUSH1 0xA9 SHL PUSH1 0x68 DUP4 ADD MSTORE MLOAD SWAP2 DUP3 PUSH1 0x73 DUP4 ADD PUSH2 0x2AE0 SWAP3 PUSH2 0x2DC9 JUMP JUMPDEST ADD DUP4 PUSH1 0x73 DUP3 ADD MSTORE PUSH13 0x1136B0BC29BAB838363C911D11 PUSH1 0x99 SHL PUSH1 0x75 DUP3 ADD MSTORE DUP2 MLOAD SWAP2 DUP3 DUP10 PUSH1 0x82 DUP5 ADD SWAP3 ADD SWAP2 PUSH2 0x2B12 SWAP3 PUSH2 0x2DC9 JUMP JUMPDEST ADD DUP3 PUSH1 0x82 DUP3 ADD MSTORE PUSH17 0x1131BAB93932B73A29BAB838363C911D11 PUSH1 0x79 SHL PUSH1 0x84 DUP3 ADD MSTORE DUP2 MLOAD SWAP2 DUP3 DUP9 PUSH1 0x95 DUP5 ADD SWAP3 ADD SWAP2 PUSH2 0x2B48 SWAP3 PUSH2 0x2DC9 JUMP JUMPDEST ADD SWAP1 PUSH1 0x95 DUP3 ADD MSTORE PUSH14 0x113937BCB0B63A3CA12829911D11 PUSH1 0x91 SHL PUSH1 0x97 DUP3 ADD MSTORE DUP2 MLOAD SWAP2 DUP3 DUP7 PUSH1 0xA5 DUP5 ADD SWAP3 ADD SWAP2 PUSH2 0x2B7B SWAP3 PUSH2 0x2DC9 JUMP JUMPDEST ADD PUSH1 0x11 PUSH1 0xF9 SHL PUSH1 0xA5 DUP3 ADD MSTORE PUSH1 0xA6 DUP2 ADD PUSH2 0x7D7D PUSH1 0xF0 SHL SWAP1 MSTORE SUB PUSH1 0x88 DUP2 ADD DUP3 MSTORE PUSH1 0xA8 ADD PUSH2 0x2BA6 SWAP1 DUP3 PUSH2 0x2EB0 JUMP JUMPDEST PUSH2 0x2BAF SWAP1 PUSH2 0x3C03 JUMP JUMPDEST SWAP1 PUSH1 0x40 MLOAD DUP1 SWAP3 DUP3 DUP3 ADD PUSH32 0x646174613A6170706C69636174696F6E2F6A736F6E3B6261736536342C000000 SWAP1 MSTORE DUP1 MLOAD SWAP1 DUP2 DUP5 PUSH1 0x3D DUP6 ADD SWAP3 ADD SWAP2 PUSH2 0x2BF0 SWAP3 PUSH2 0x2DC9 JUMP JUMPDEST DUP2 ADD SUB PUSH1 0x1D DUP2 ADD DUP4 MSTORE PUSH1 0x3D ADD PUSH2 0x2C06 SWAP1 DUP4 PUSH2 0x2EB0 JUMP JUMPDEST PUSH1 0x40 MLOAD SWAP2 DUP2 DUP4 SWAP3 DUP4 MSTORE DUP3 ADD PUSH2 0x1A18 SWAP2 PUSH2 0x2DEC JUMP JUMPDEST PUSH1 0x64 DUP8 PUSH1 0x40 MLOAD SWAP1 PUSH3 0x461BCD PUSH1 0xE5 SHL DUP3 MSTORE DUP1 PUSH1 0x4 DUP4 ADD MSTORE PUSH1 0x24 DUP3 ADD MSTORE PUSH32 0x537472696E67733A20686578206C656E67746820696E73756666696369656E74 PUSH1 0x44 DUP3 ADD MSTORE REVERT JUMPDEST SWAP1 SWAP2 PUSH1 0xF DUP2 AND PUSH1 0x10 DUP2 LT ISZERO PUSH2 0x2CBB JUMPI DUP12 MLOAD DUP5 LT ISZERO PUSH2 0x2CBB JUMPI PUSH16 0x181899199A1A9B1B9C1CB0B131B232B3 PUSH1 0x81 SHL SWAP1 BYTE DUP12 DUP5 ADD DUP12 ADD MSTORE8 PUSH1 0x4 SHR SWAP2 DUP1 ISZERO PUSH2 0x2CA5 JUMPI PUSH1 0x0 NOT ADD SWAP1 PUSH2 0x2995 JUMP JUMPDEST PUSH4 0x4E487B71 PUSH1 0xE0 SHL PUSH1 0x0 MSTORE PUSH1 0x11 PUSH1 0x4 MSTORE PUSH1 0x24 PUSH1 0x0 REVERT JUMPDEST PUSH4 0x4E487B71 PUSH1 0xE0 SHL PUSH1 0x0 MSTORE PUSH1 0x32 PUSH1 0x4 MSTORE PUSH1 0x24 PUSH1 0x0 REVERT JUMPDEST CALLVALUE PUSH2 0x1A2 JUMPI PUSH1 0x20 CALLDATASIZE PUSH1 0x3 NOT ADD SLT PUSH2 0x1A2 JUMPI PUSH1 0x4 CALLDATALOAD PUSH4 0xFFFFFFFF PUSH1 0xE0 SHL DUP2 AND DUP1 SWAP2 SUB PUSH2 0x1A2 JUMPI PUSH1 0x20 SWAP1 PUSH4 0x152A902D PUSH1 0xE1 SHL DUP2 EQ SWAP1 DUP2 SWAP1 DUP2 ISZERO PUSH2 0x2D28 JUMPI JUMPDEST POP DUP2 ISZERO PUSH2 0x2D20 JUMPI JUMPDEST POP PUSH1 0x40 MLOAD SWAP1 ISZERO ISZERO DUP2 MSTORE RETURN JUMPDEST SWAP1 POP DUP3 PUSH2 0x2D15 JUMP JUMPDEST SWAP1 SWAP2 POP PUSH4 0x6CDB3D13 PUSH1 0xE1 SHL DUP2 EQ SWAP1 DUP2 ISZERO PUSH2 0x2D5D JUMPI JUMPDEST DUP2 ISZERO PUSH2 0x2D4C JUMPI JUMPDEST POP SWAP1 DUP4 PUSH2 0x2D0D JUMP JUMPDEST PUSH4 0x1FFC9A7 PUSH1 0xE0 SHL EQ SWAP1 POP DUP4 PUSH2 0x2D44 JUMP JUMPDEST PUSH4 0x3A24D07 PUSH1 0xE2 SHL DUP2 EQ SWAP2 POP PUSH2 0x2D3D JUMP JUMPDEST CALLVALUE PUSH2 0x1A2 JUMPI PUSH1 0x40 CALLDATASIZE PUSH1 0x3 NOT ADD SLT PUSH2 0x1A2 JUMPI PUSH1 0x20 PUSH2 0x2D95 PUSH2 0x2D8C PUSH2 0x2D9D JUMP JUMPDEST PUSH1 0x24 CALLDATALOAD SWAP1 PUSH2 0x318A JUMP JUMPDEST PUSH1 0x40 MLOAD SWAP1 DUP2 MSTORE RETURN JUMPDEST PUSH1 0x4 CALLDATALOAD SWAP1 PUSH1 0x1 PUSH1 0x1 PUSH1 0xA0 SHL SUB DUP3 AND DUP3 SUB PUSH2 0x1A2 JUMPI JUMP JUMPDEST PUSH1 0x24 CALLDATALOAD SWAP1 PUSH1 0x1 PUSH1 0x1 PUSH1 0xA0 SHL SUB DUP3 AND DUP3 SUB PUSH2 0x1A2 JUMPI JUMP JUMPDEST PUSH1 0x0 JUMPDEST DUP4 DUP2 LT PUSH2 0x2DDC JUMPI POP POP PUSH1 0x0 SWAP2 ADD MSTORE JUMP JUMPDEST DUP2 DUP2 ADD MLOAD DUP4 DUP3 ADD MSTORE PUSH1 0x20 ADD PUSH2 0x2DCC JUMP JUMPDEST SWAP1 PUSH1 0x20 SWAP2 PUSH2 0x2E05 DUP2 MLOAD DUP1 SWAP3 DUP2 DUP6 MSTORE DUP6 DUP1 DUP7 ADD SWAP2 ADD PUSH2 0x2DC9 JUMP JUMPDEST PUSH1 0x1F ADD PUSH1 0x1F NOT AND ADD ADD SWAP1 JUMP JUMPDEST PUSH1 0x40 SWAP1 PUSH1 0x3 NOT ADD SLT PUSH2 0x1A2 JUMPI PUSH1 0x4 CALLDATALOAD SWAP1 PUSH1 0x24 CALLDATALOAD SWAP1 JUMP JUMPDEST PUSH2 0x160 DUP2 ADD SWAP1 DUP2 LT PUSH1 0x1 PUSH1 0x1 PUSH1 0x40 SHL SUB DUP3 GT OR PUSH2 0x9BC JUMPI PUSH1 0x40 MSTORE JUMP JUMPDEST PUSH1 0x40 DUP2 ADD SWAP1 DUP2 LT PUSH1 0x1 PUSH1 0x1 PUSH1 0x40 SHL SUB DUP3 GT OR PUSH2 0x9BC JUMPI PUSH1 0x40 MSTORE JUMP JUMPDEST PUSH1 0x60 DUP2 ADD SWAP1 DUP2 LT PUSH1 0x1 PUSH1 0x1 PUSH1 0x40 SHL SUB DUP3 GT OR PUSH2 0x9BC JUMPI PUSH1 0x40 MSTORE JUMP JUMPDEST PUSH2 0x140 DUP2 ADD SWAP1 DUP2 LT PUSH1 0x1 PUSH1 0x1 PUSH1 0x40 SHL SUB DUP3 GT OR PUSH2 0x9BC JUMPI PUSH1 0x40 MSTORE JUMP JUMPDEST PUSH1 0x20 DUP2 ADD SWAP1 DUP2 LT PUSH1 0x1 PUSH1 0x1 PUSH1 0x40 SHL SUB DUP3 GT OR PUSH2 0x9BC JUMPI PUSH1 0x40 MSTORE JUMP JUMPDEST SWAP1 PUSH1 0x1F DUP1 NOT SWAP2 ADD AND DUP2 ADD SWAP1 DUP2 LT PUSH1 0x1 PUSH1 0x1 PUSH1 0x40 SHL SUB DUP3 GT OR PUSH2 0x9BC JUMPI PUSH1 0x40 MSTORE JUMP JUMPDEST PUSH1 0x1 PUSH1 0x1 PUSH1 0x40 SHL SUB DUP2 GT PUSH2 0x9BC JUMPI PUSH1 0x5 SHL PUSH1 0x20 ADD SWAP1 JUMP JUMPDEST SWAP3 SWAP2 PUSH2 0x2EF3 DUP3 PUSH2 0x2ED1 JUMP JUMPDEST SWAP2 PUSH2 0x2F01 PUSH1 0x40 MLOAD SWAP4 DUP5 PUSH2 0x2EB0 JUMP JUMPDEST DUP3 SWAP5 DUP2 DUP5 MSTORE PUSH1 0x20 DUP1 SWAP5 ADD SWAP2 PUSH1 0x5 SHL DUP2 ADD SWAP3 DUP4 GT PUSH2 0x1A2 JUMPI SWAP1 JUMPDEST DUP3 DUP3 LT PUSH2 0x2F27 JUMPI POP POP POP POP JUMP JUMPDEST DUP2 CALLDATALOAD DUP2 MSTORE SWAP1 DUP4 ADD SWAP1 DUP4 ADD PUSH2 0x2F1A JUMP JUMPDEST SWAP1 DUP1 PUSH1 0x1F DUP4 ADD SLT ISZERO PUSH2 0x1A2 JUMPI DUP2 PUSH1 0x20 PUSH2 0x2F51 SWAP4 CALLDATALOAD SWAP2 ADD PUSH2 0x2EE8 JUMP JUMPDEST SWAP1 JUMP JUMPDEST PUSH1 0x1 PUSH1 0x1 PUSH1 0x40 SHL SUB DUP2 GT PUSH2 0x9BC JUMPI PUSH1 0x1F ADD PUSH1 0x1F NOT AND PUSH1 0x20 ADD SWAP1 JUMP JUMPDEST SWAP3 SWAP2 SWAP3 PUSH2 0x2F7B DUP3 PUSH2 0x2F54 JUMP JUMPDEST SWAP2 PUSH2 0x2F89 PUSH1 0x40 MLOAD SWAP4 DUP5 PUSH2 0x2EB0 JUMP JUMPDEST DUP3 SWAP5 DUP2 DUP5 MSTORE DUP2 DUP4 ADD GT PUSH2 0x1A2 JUMPI DUP3 DUP2 PUSH1 0x20 SWAP4 DUP5 PUSH1 0x0 SWAP7 ADD CALLDATACOPY ADD ADD MSTORE JUMP JUMPDEST SWAP1 DUP1 PUSH1 0x1F DUP4 ADD SLT ISZERO PUSH2 0x1A2 JUMPI DUP2 PUSH1 0x20 PUSH2 0x2F51 SWAP4 CALLDATALOAD SWAP2 ADD PUSH2 0x2F6F JUMP JUMPDEST SWAP2 DUP2 PUSH1 0x1F DUP5 ADD SLT ISZERO PUSH2 0x1A2 JUMPI DUP3 CALLDATALOAD SWAP2 PUSH1 0x1 PUSH1 0x1 PUSH1 0x40 SHL SUB DUP4 GT PUSH2 0x1A2 JUMPI PUSH1 0x20 DUP4 DUP2 DUP7 ADD SWAP6 ADD ADD GT PUSH2 0x1A2 JUMPI JUMP JUMPDEST SWAP1 DUP2 MLOAD DUP1 DUP3 MSTORE PUSH1 0x20 DUP1 DUP1 SWAP4 ADD SWAP4 ADD SWAP2 PUSH1 0x0 JUMPDEST DUP3 DUP2 LT PUSH2 0x300E JUMPI POP POP POP POP SWAP1 JUMP JUMPDEST DUP4 MLOAD DUP6 MSTORE SWAP4 DUP2 ADD SWAP4 SWAP3 DUP2 ADD SWAP3 PUSH1 0x1 ADD PUSH2 0x3000 JUMP JUMPDEST SWAP1 PUSH1 0x1 DUP3 DUP2 SHR SWAP3 AND DUP1 ISZERO PUSH2 0x3052 JUMPI JUMPDEST PUSH1 0x20 DUP4 LT EQ PUSH2 0x303C JUMPI JUMP JUMPDEST PUSH4 0x4E487B71 PUSH1 0xE0 SHL PUSH1 0x0 MSTORE PUSH1 0x22 PUSH1 0x4 MSTORE PUSH1 0x24 PUSH1 0x0 REVERT JUMPDEST SWAP2 PUSH1 0x7F AND SWAP2 PUSH2 0x3031 JUMP JUMPDEST SWAP1 PUSH1 0x40 MLOAD SWAP2 DUP3 PUSH1 0x0 DUP3 SLOAD SWAP3 PUSH2 0x3070 DUP5 PUSH2 0x3022 JUMP JUMPDEST SWAP1 DUP2 DUP5 MSTORE PUSH1 0x1 SWAP5 DUP6 DUP2 AND SWAP1 DUP2 PUSH1 0x0 EQ PUSH2 0x30DF JUMPI POP PUSH1 0x1 EQ PUSH2 0x309C JUMPI JUMPDEST POP POP PUSH2 0x309A SWAP3 POP SUB DUP4 PUSH2 0x2EB0 JUMP JUMPDEST JUMP JUMPDEST SWAP1 SWAP4 SWAP2 POP PUSH1 0x0 MSTORE PUSH1 0x20 SWAP1 DUP2 PUSH1 0x0 KECCAK256 SWAP4 PUSH1 0x0 SWAP2 JUMPDEST DUP2 DUP4 LT PUSH2 0x30C7 JUMPI POP POP PUSH2 0x309A SWAP4 POP DUP3 ADD ADD CODESIZE DUP1 PUSH2 0x308C JUMP JUMPDEST DUP6 SLOAD DUP9 DUP5 ADD DUP6 ADD MSTORE SWAP5 DUP6 ADD SWAP5 DUP8 SWAP5 POP SWAP2 DUP4 ADD SWAP2 PUSH2 0x30AF JUMP JUMPDEST SWAP2 POP POP PUSH2 0x309A SWAP5 POP PUSH1 0x20 SWAP3 POP PUSH1 0xFF NOT AND DUP3 DUP5 ADD MSTORE ISZERO ISZERO PUSH1 0x5 SHL DUP3 ADD ADD CODESIZE DUP1 PUSH2 0x308C JUMP JUMPDEST SWAP2 DUP2 PUSH1 0x1F DUP5 ADD SLT ISZERO PUSH2 0x1A2 JUMPI DUP3 CALLDATALOAD SWAP2 PUSH1 0x1 PUSH1 0x1 PUSH1 0x40 SHL SUB DUP4 GT PUSH2 0x1A2 JUMPI PUSH1 0x20 DUP1 DUP6 ADD SWAP5 DUP5 PUSH1 0x5 SHL ADD ADD GT PUSH2 0x1A2 JUMPI JUMP JUMPDEST PUSH1 0x5 SLOAD PUSH1 0x1 PUSH1 0x1 PUSH1 0xA0 SHL SUB AND CALLER SUB PUSH2 0x3146 JUMPI JUMP JUMPDEST PUSH1 0x64 PUSH1 0x40 MLOAD PUSH3 0x461BCD PUSH1 0xE5 SHL DUP2 MSTORE PUSH1 0x20 PUSH1 0x4 DUP3 ADD MSTORE PUSH1 0x20 PUSH1 0x24 DUP3 ADD MSTORE PUSH32 0x4F776E61626C653A2063616C6C6572206973206E6F7420746865206F776E6572 PUSH1 0x44 DUP3 ADD MSTORE REVERT JUMPDEST PUSH1 0x1 PUSH1 0x1 PUSH1 0xA0 SHL SUB AND SWAP1 DUP2 ISZERO PUSH2 0x31B7 JUMPI PUSH1 0x0 MSTORE PUSH1 0x0 PUSH1 0x20 MSTORE PUSH1 0x40 PUSH1 0x0 KECCAK256 SWAP1 PUSH1 0x0 MSTORE PUSH1 0x20 MSTORE PUSH1 0x40 PUSH1 0x0 KECCAK256 SLOAD SWAP1 JUMP JUMPDEST PUSH1 0x40 MLOAD PUSH3 0x461BCD PUSH1 0xE5 SHL DUP2 MSTORE PUSH1 0x20 PUSH1 0x4 DUP3 ADD MSTORE PUSH1 0x2A PUSH1 0x24 DUP3 ADD MSTORE PUSH32 0x455243313135353A2061646472657373207A65726F206973206E6F7420612076 PUSH1 0x44 DUP3 ADD MSTORE PUSH10 0x30B634B21037BBB732B9 PUSH1 0xB1 SHL PUSH1 0x64 DUP3 ADD MSTORE PUSH1 0x84 SWAP1 REVERT JUMPDEST PUSH1 0x0 NOT DUP2 EQ PUSH2 0x2CA5 JUMPI PUSH1 0x1 ADD SWAP1 JUMP JUMPDEST DUP1 MLOAD DUP3 LT ISZERO PUSH2 0x2CBB JUMPI PUSH1 0x20 SWAP2 PUSH1 0x5 SHL ADD ADD SWAP1 JUMP JUMPDEST ISZERO PUSH2 0x3239 JUMPI JUMP JUMPDEST PUSH1 0x40 MLOAD PUSH3 0x461BCD PUSH1 0xE5 SHL DUP2 MSTORE PUSH1 0x20 PUSH1 0x4 DUP3 ADD MSTORE PUSH1 0x2E PUSH1 0x24 DUP3 ADD MSTORE PUSH32 0x455243313135353A2063616C6C6572206973206E6F7420746F6B656E206F776E PUSH1 0x44 DUP3 ADD MSTORE PUSH14 0x195C881BDC88185C1C1C9BDD9959 PUSH1 0x92 SHL PUSH1 0x64 DUP3 ADD MSTORE PUSH1 0x84 SWAP1 REVERT JUMPDEST ISZERO PUSH2 0x329C JUMPI JUMP JUMPDEST PUSH1 0x40 MLOAD PUSH3 0x461BCD PUSH1 0xE5 SHL DUP2 MSTORE PUSH1 0x20 PUSH1 0x4 DUP3 ADD MSTORE PUSH1 0x25 PUSH1 0x24 DUP3 ADD MSTORE PUSH32 0x455243313135353A207472616E7366657220746F20746865207A65726F206164 PUSH1 0x44 DUP3 ADD MSTORE PUSH5 0x6472657373 PUSH1 0xD8 SHL PUSH1 0x64 DUP3 ADD MSTORE PUSH1 0x84 SWAP1 REVERT JUMPDEST ISZERO PUSH2 0x32F6 JUMPI JUMP JUMPDEST PUSH1 0x40 MLOAD PUSH3 0x461BCD PUSH1 0xE5 SHL DUP2 MSTORE PUSH1 0x20 PUSH1 0x4 DUP3 ADD MSTORE PUSH1 0x2A PUSH1 0x24 DUP3 ADD MSTORE PUSH32 0x455243313135353A20696E73756666696369656E742062616C616E636520666F PUSH1 0x44 DUP3 ADD MSTORE PUSH10 0x39103A3930B739B332B9 PUSH1 0xB1 SHL PUSH1 0x64 DUP3 ADD MSTORE PUSH1 0x84 SWAP1 REVERT JUMPDEST SWAP2 SWAP1 DUP3 ADD DUP1 SWAP3 GT PUSH2 0x2CA5 JUMPI JUMP JUMPDEST SWAP2 SWAP3 SWAP1 SWAP4 PUSH1 0x1 DUP1 PUSH1 0xA0 SHL SUB DUP1 DUP7 AND SWAP1 DUP2 ISZERO ISZERO SWAP5 PUSH2 0x3377 DUP7 PUSH2 0x3295 JUMP JUMPDEST PUSH2 0x3380 DUP8 PUSH2 0x38F9 JUMP JUMPDEST SWAP2 DUP1 PUSH2 0x338B DUP8 PUSH2 0x38F9 JUMP JUMPDEST SWAP3 DUP9 DUP1 PUSH2 0x3714 JUMPI JUMPDEST PUSH2 0x36C2 JUMPI JUMPDEST AND SWAP7 DUP8 ISZERO ISZERO SWAP1 DUP2 PUSH2 0x36BA JUMPI JUMPDEST POP PUSH2 0x355B JUMPI JUMPDEST POP POP POP PUSH1 0x0 SWAP3 DUP6 DUP5 MSTORE PUSH1 0x20 SWAP6 DUP5 DUP8 MSTORE PUSH1 0x40 SWAP8 DUP9 DUP7 KECCAK256 DUP8 DUP8 MSTORE DUP9 MSTORE DUP3 DUP10 DUP8 KECCAK256 SLOAD PUSH2 0x33D5 DUP3 DUP3 LT ISZERO PUSH2 0x32EF JUMP JUMPDEST DUP4 DUP9 MSTORE DUP8 DUP11 MSTORE DUP11 DUP9 KECCAK256 DUP10 DUP10 MSTORE DUP11 MSTORE SUB DUP10 DUP8 KECCAK256 SSTORE DUP2 DUP7 MSTORE DUP6 DUP9 MSTORE DUP9 DUP7 KECCAK256 DUP5 DUP8 MSTORE DUP9 MSTORE DUP9 DUP7 KECCAK256 PUSH2 0x3404 DUP5 DUP3 SLOAD PUSH2 0x334E JUMP JUMPDEST SWAP1 SSTORE DUP4 DUP8 DUP11 MLOAD DUP5 DUP2 MSTORE DUP6 DUP12 DUP3 ADD MSTORE PUSH32 0xC3D58168C5AE7397731D063D5BBF3D657854427343F4C083240F7AACAA2D0F62 DUP13 CALLER SWAP3 LOG4 EXTCODESIZE PUSH2 0x3447 JUMPI JUMPDEST POP POP POP POP POP POP POP POP JUMP JUMPDEST SWAP2 DUP5 SWAP4 SWAP2 PUSH2 0x348F SWAP6 DUP9 SWAP10 SWAP11 SWAP9 SWAP5 DUP12 MLOAD SWAP8 DUP9 SWAP6 DUP7 SWAP5 DUP6 SWAP4 PUSH4 0xF23A6E61 PUSH1 0xE0 SHL SWAP13 DUP14 DUP7 MSTORE CALLER PUSH1 0x4 DUP8 ADD MSTORE PUSH1 0x24 DUP7 ADD MSTORE PUSH1 0x44 DUP6 ADD MSTORE PUSH1 0x64 DUP5 ADD MSTORE PUSH1 0xA0 PUSH1 0x84 DUP5 ADD MSTORE PUSH1 0xA4 DUP4 ADD SWAP1 PUSH2 0x2DEC JUMP JUMPDEST SUB SWAP3 GAS CALL SWAP1 SWAP2 DUP2 PUSH2 0x353C JUMPI JUMPDEST POP PUSH2 0x3502 JUMPI POP POP POP PUSH2 0x34AB PUSH2 0x3818 JUMP JUMPDEST PUSH4 0x8C379A0 EQ PUSH2 0x34CE JUMPI JUMPDEST POP MLOAD PUSH3 0x461BCD PUSH1 0xE5 SHL DUP2 MSTORE DUP1 PUSH2 0x8A5 PUSH1 0x4 DUP3 ADD PUSH2 0x38A4 JUMP JUMPDEST PUSH2 0x34D6 PUSH2 0x3836 JUMP JUMPDEST SWAP1 DUP2 PUSH2 0x34E2 JUMPI POP PUSH2 0x34B6 JUMP JUMPDEST PUSH2 0x8A5 DUP4 MLOAD SWAP3 DUP4 SWAP3 PUSH3 0x461BCD PUSH1 0xE5 SHL DUP5 MSTORE PUSH1 0x4 DUP5 ADD MSTORE PUSH1 0x24 DUP4 ADD SWAP1 PUSH2 0x2DEC JUMP JUMPDEST SWAP2 SWAP4 SWAP3 POP PUSH1 0x1 PUSH1 0x1 PUSH1 0xE0 SHL SUB NOT SWAP1 SWAP2 AND SUB PUSH2 0x3525 JUMPI POP CODESIZE DUP1 DUP1 DUP1 DUP1 DUP1 DUP1 DUP1 PUSH2 0x343D JUMP JUMPDEST MLOAD PUSH3 0x461BCD PUSH1 0xE5 SHL DUP2 MSTORE DUP1 PUSH2 0x8A5 PUSH1 0x4 DUP3 ADD PUSH2 0x37CF JUMP JUMPDEST PUSH2 0x3554 SWAP2 SWAP3 POP DUP6 RETURNDATASIZE DUP8 GT PUSH2 0x95F JUMPI PUSH2 0x950 DUP2 DUP4 PUSH2 0x2EB0 JUMP JUMPDEST SWAP1 CODESIZE PUSH2 0x349B JUMP JUMPDEST SWAP5 SWAP1 SWAP6 SWAP7 SWAP2 SWAP9 SWAP4 PUSH1 0x0 SWAP9 SWAP4 SWAP9 JUMPDEST DUP11 MLOAD DUP2 LT ISZERO PUSH2 0x36A8 JUMPI DUP1 DUP10 DUP10 DUP3 DUP15 PUSH2 0x3583 PUSH2 0x35BF SWAP7 DUP3 PUSH2 0x321E JUMP JUMPDEST MLOAD PUSH1 0x0 MSTORE DUP12 PUSH1 0xA PUSH1 0x20 SWAP1 DUP1 DUP3 MSTORE PUSH1 0x40 SWAP3 DUP4 PUSH1 0x0 KECCAK256 DUP9 PUSH1 0x0 MSTORE DUP4 MSTORE DUP8 DUP5 PUSH1 0x0 KECCAK256 SWAP2 DUP3 SLOAD AND EQ DUP1 PUSH2 0x369B JUMPI JUMPDEST PUSH2 0x35C4 JUMPI JUMPDEST POP POP POP POP POP POP POP POP PUSH2 0x320F JUMP JUMPDEST PUSH2 0x3568 JUMP JUMPDEST PUSH2 0x35CE DUP7 DUP9 PUSH2 0x321E JUMP JUMPDEST MLOAD PUSH1 0x2 DUP3 DUP2 ADD DUP1 SLOAD SWAP2 SWAP10 SWAP1 SWAP3 DUP3 GT PUSH2 0x364A JUMPI POP POP POP POP SWAP2 PUSH2 0x3616 SWAP6 SWAP2 PUSH1 0x0 SWAP4 PUSH2 0x35F7 DUP8 DUP8 PUSH2 0x321E JUMP JUMPDEST MLOAD DUP6 MSTORE DUP2 MSTORE DUP2 DUP5 KECCAK256 SWAP1 DUP9 DUP6 MSTORE MSTORE DUP3 KECCAK256 DUP3 DUP2 SSTORE DUP3 PUSH1 0x1 DUP3 ADD SSTORE ADD SSTORE PUSH2 0x321E JUMP JUMPDEST MLOAD PUSH32 0x8E25282255AB31897DF2B0456BB993AC7F84D376861AEFD84901D2D63A7428A2 PUSH1 0x0 DUP1 LOG3 JUMPDEST DUP10 DUP10 DUP3 DUP15 CODESIZE DUP1 DUP1 DUP1 PUSH2 0x35B2 JUMP JUMPDEST PUSH2 0x3688 SWAP4 SWAP10 POP PUSH1 0x1 SWAP5 POP DUP9 SWAP3 SWAP6 SWAP7 SWAP8 SWAP2 PUSH2 0x27FB PUSH32 0x36E94395FAFCB0D2A9BCFCDD5CEF807AB52A1F4382906992EBDC18DE5F1472C4 SWAP11 PUSH2 0x2802 SWAP4 PUSH2 0x321E JUMP JUMPDEST MLOAD SWAP6 ADD SLOAD SWAP2 DUP4 MLOAD SWAP3 DUP4 MSTORE DUP3 ADD MSTORE LOG3 PUSH2 0x363D JUMP JUMPDEST POP PUSH1 0x2 DUP2 ADD SLOAD ISZERO ISZERO PUSH2 0x35AD JUMP JUMPDEST POP SWAP4 SWAP9 POP SWAP4 POP SWAP5 SWAP4 POP SWAP5 CODESIZE DUP1 DUP1 PUSH2 0x33AA JUMP JUMPDEST SWAP1 POP CODESIZE PUSH2 0x33A4 JUMP JUMPDEST PUSH1 0xD SLOAD SWAP2 POP PUSH1 0x1 PUSH1 0x40 SHL DUP3 LT ISZERO PUSH2 0x9BC JUMPI PUSH2 0x36E4 DUP3 PUSH1 0x1 DUP6 SWAP5 ADD PUSH1 0xD SSTORE PUSH2 0x3A7D JUMP JUMPDEST DUP2 SLOAD SWAP1 PUSH1 0x3 SHL SWAP1 DUP5 DUP10 DUP4 SHL SWAP3 SHL NOT AND OR SWAP1 SSTORE DUP6 PUSH1 0x0 MSTORE PUSH1 0xE PUSH1 0x20 MSTORE PUSH1 0x40 PUSH1 0x0 KECCAK256 PUSH1 0x1 PUSH1 0xFF NOT DUP3 SLOAD AND OR SWAP1 SSTORE PUSH2 0x3398 JUMP JUMPDEST POP DUP6 PUSH1 0x0 MSTORE PUSH1 0xE PUSH1 0x20 MSTORE PUSH1 0xFF PUSH1 0x40 PUSH1 0x0 KECCAK256 SLOAD AND ISZERO PUSH2 0x3393 JUMP JUMPDEST ISZERO PUSH2 0x3734 JUMPI JUMP JUMPDEST PUSH1 0x40 MLOAD PUSH3 0x461BCD PUSH1 0xE5 SHL DUP2 MSTORE PUSH1 0x20 PUSH1 0x4 DUP3 ADD MSTORE PUSH1 0x28 PUSH1 0x24 DUP3 ADD MSTORE PUSH32 0x455243313135353A2069647320616E6420616D6F756E7473206C656E67746820 PUSH1 0x44 DUP3 ADD MSTORE PUSH8 0xDAD2E6DAC2E8C6D PUSH1 0xC3 SHL PUSH1 0x64 DUP3 ADD MSTORE PUSH1 0x84 SWAP1 REVERT JUMPDEST SWAP1 SWAP2 PUSH2 0x37A1 PUSH2 0x2F51 SWAP4 PUSH1 0x40 DUP5 MSTORE PUSH1 0x40 DUP5 ADD SWAP1 PUSH2 0x2FEE JUMP JUMPDEST SWAP2 PUSH1 0x20 DUP2 DUP5 SUB SWAP2 ADD MSTORE PUSH2 0x2FEE JUMP JUMPDEST SWAP1 DUP2 PUSH1 0x20 SWAP2 SUB SLT PUSH2 0x1A2 JUMPI MLOAD PUSH1 0x1 PUSH1 0x1 PUSH1 0xE0 SHL SUB NOT DUP2 AND DUP2 SUB PUSH2 0x1A2 JUMPI SWAP1 JUMP JUMPDEST PUSH1 0x80 SWAP1 PUSH1 0x20 DUP2 MSTORE PUSH1 0x28 PUSH1 0x20 DUP3 ADD MSTORE PUSH32 0x455243313135353A204552433131353552656365697665722072656A65637465 PUSH1 0x40 DUP3 ADD MSTORE PUSH8 0x6420746F6B656E73 PUSH1 0xC0 SHL PUSH1 0x60 DUP3 ADD MSTORE ADD SWAP1 JUMP JUMPDEST PUSH1 0x0 SWAP1 PUSH1 0x3 RETURNDATASIZE GT PUSH2 0x3825 JUMPI JUMP JUMPDEST SWAP1 POP PUSH1 0x4 PUSH1 0x0 DUP1 RETURNDATACOPY PUSH1 0x0 MLOAD PUSH1 0xE0 SHR SWAP1 JUMP JUMPDEST PUSH1 0x0 PUSH1 0x44 RETURNDATASIZE LT PUSH2 0x2F51 JUMPI PUSH1 0x40 MLOAD PUSH1 0x3 NOT SWAP2 RETURNDATASIZE DUP4 ADD PUSH1 0x4 DUP4 RETURNDATACOPY DUP2 MLOAD PUSH1 0x1 PUSH1 0x1 PUSH1 0x40 SHL SUB SWAP2 DUP3 DUP3 GT RETURNDATASIZE PUSH1 0x24 DUP5 ADD GT OR PUSH2 0x3893 JUMPI DUP2 DUP5 ADD SWAP5 DUP6 MLOAD SWAP4 DUP5 GT PUSH2 0x389B JUMPI RETURNDATASIZE DUP6 ADD ADD PUSH1 0x20 DUP5 DUP8 ADD ADD GT PUSH2 0x3893 JUMPI POP PUSH2 0x2F51 SWAP3 SWAP2 ADD PUSH1 0x20 ADD SWAP1 PUSH2 0x2EB0 JUMP JUMPDEST SWAP5 SWAP4 POP POP POP POP JUMP JUMPDEST POP SWAP5 SWAP4 POP POP POP POP JUMP JUMPDEST PUSH1 0x80 SWAP1 PUSH1 0x20 DUP2 MSTORE PUSH1 0x34 PUSH1 0x20 DUP3 ADD MSTORE PUSH32 0x455243313135353A207472616E7366657220746F206E6F6E2D45524331313535 PUSH1 0x40 DUP3 ADD MSTORE PUSH20 0x2932B1B2B4BB32B91034B6B83632B6B2B73A32B9 PUSH1 0x61 SHL PUSH1 0x60 DUP3 ADD MSTORE ADD SWAP1 JUMP JUMPDEST PUSH1 0x40 MLOAD SWAP1 PUSH2 0x3906 DUP3 PUSH2 0x2E43 JUMP JUMPDEST PUSH1 0x1 DUP3 MSTORE PUSH1 0x20 DUP3 ADD PUSH1 0x20 CALLDATASIZE DUP3 CALLDATACOPY DUP3 MLOAD ISZERO PUSH2 0x2CBB JUMPI MSTORE SWAP1 JUMP JUMPDEST PUSH1 0x40 MLOAD SWAP1 PUSH2 0x392B DUP3 PUSH2 0x2E43 JUMP JUMPDEST PUSH1 0x3 SLOAD PUSH1 0x1 PUSH1 0x1 PUSH1 0xA0 SHL SUB DUP2 AND DUP4 MSTORE PUSH1 0xA0 SHR PUSH1 0x20 DUP4 ADD MSTORE JUMP JUMPDEST SWAP1 PUSH1 0x40 MLOAD PUSH2 0x3951 DUP2 PUSH2 0x2E43 JUMP JUMPDEST SWAP2 SLOAD PUSH1 0x1 PUSH1 0x1 PUSH1 0xA0 SHL SUB DUP2 AND DUP4 MSTORE PUSH1 0xA0 SHR PUSH1 0x20 DUP4 ADD MSTORE JUMP JUMPDEST DUP2 DUP2 MUL SWAP3 SWAP2 DUP2 ISZERO SWAP2 DUP5 DIV EQ OR ISZERO PUSH2 0x2CA5 JUMPI JUMP JUMPDEST SWAP2 SWAP1 SWAP2 PUSH1 0x0 MSTORE PUSH1 0x4 PUSH1 0x20 MSTORE PUSH2 0x3994 PUSH1 0x40 PUSH1 0x0 KECCAK256 PUSH2 0x3944 JUMP JUMPDEST DUP1 MLOAD SWAP1 SWAP3 PUSH1 0x1 PUSH1 0x1 PUSH1 0xA0 SHL SUB SWAP2 DUP3 AND ISZERO PUSH2 0x39CC JUMPI JUMPDEST PUSH2 0x39C4 PUSH2 0x2710 SWAP2 PUSH1 0x1 PUSH1 0x1 PUSH1 0x60 SHL SUB PUSH1 0x20 DUP8 ADD MLOAD AND SWAP1 PUSH2 0x3969 JUMP JUMPDEST DIV SWAP3 MLOAD AND SWAP2 SWAP1 JUMP JUMPDEST SWAP3 POP PUSH2 0x2710 PUSH2 0x39C4 PUSH2 0x39DC PUSH2 0x391E JUMP JUMPDEST SWAP5 SWAP2 POP POP PUSH2 0x39A9 JUMP JUMPDEST SWAP1 PUSH1 0x1F DUP2 GT PUSH2 0x39F3 JUMPI POP POP POP JUMP JUMPDEST PUSH1 0x0 SWAP2 DUP3 MSTORE PUSH1 0x20 DUP3 KECCAK256 SWAP1 PUSH1 0x20 PUSH1 0x1F DUP6 ADD PUSH1 0x5 SHR DUP4 ADD SWAP5 LT PUSH2 0x3A2F JUMPI JUMPDEST PUSH1 0x1F ADD PUSH1 0x5 SHR ADD SWAP2 JUMPDEST DUP3 DUP2 LT PUSH2 0x3A24 JUMPI POP POP POP JUMP JUMPDEST DUP2 DUP2 SSTORE PUSH1 0x1 ADD PUSH2 0x3A18 JUMP JUMPDEST SWAP1 SWAP3 POP DUP3 SWAP1 PUSH2 0x3A0F JUMP JUMPDEST PUSH1 0xFF PUSH1 0x7 SLOAD AND PUSH2 0x3A45 JUMPI JUMP JUMPDEST PUSH1 0x40 MLOAD PUSH3 0x461BCD PUSH1 0xE5 SHL DUP2 MSTORE PUSH1 0x20 PUSH1 0x4 DUP3 ADD MSTORE PUSH1 0x10 PUSH1 0x24 DUP3 ADD MSTORE PUSH16 0x14185D5CD8589B194E881C185D5CD959 PUSH1 0x82 SHL PUSH1 0x44 DUP3 ADD MSTORE PUSH1 0x64 SWAP1 REVERT JUMPDEST PUSH1 0xD SLOAD DUP2 LT ISZERO PUSH2 0x2CBB JUMPI PUSH1 0xD PUSH1 0x0 MSTORE PUSH32 0xD7B6990105719101DABEB77144F2A3385C8033ACD3AF97E9423A695E81AD1EB5 ADD SWAP1 PUSH1 0x0 SWAP1 JUMP JUMPDEST SWAP2 SWAP1 DUP3 SUB SWAP2 DUP3 GT PUSH2 0x2CA5 JUMPI JUMP JUMPDEST SWAP2 SWAP1 DUP2 LT ISZERO PUSH2 0x2CBB JUMPI PUSH1 0x5 SHL ADD SWAP1 JUMP JUMPDEST RETURNDATASIZE ISZERO PUSH2 0x3AFC JUMPI RETURNDATASIZE SWAP1 PUSH2 0x3AE2 DUP3 PUSH2 0x2F54 JUMP JUMPDEST SWAP2 PUSH2 0x3AF0 PUSH1 0x40 MLOAD SWAP4 DUP5 PUSH2 0x2EB0 JUMP JUMPDEST DUP3 MSTORE RETURNDATASIZE PUSH1 0x0 PUSH1 0x20 DUP5 ADD RETURNDATACOPY JUMP JUMPDEST PUSH1 0x60 SWAP1 JUMP JUMPDEST DUP2 DUP4 MSTORE SWAP1 SWAP2 PUSH1 0x1 PUSH1 0x1 PUSH1 0xFB SHL SUB DUP4 GT PUSH2 0x1A2 JUMPI PUSH1 0x20 SWAP3 PUSH1 0x5 SHL DUP1 SWAP3 DUP5 DUP4 ADD CALLDATACOPY ADD ADD SWAP1 JUMP JUMPDEST PUSH1 0x2 PUSH1 0x6 SLOAD EQ PUSH2 0x3B36 JUMPI PUSH1 0x2 PUSH1 0x6 SSTORE JUMP JUMPDEST PUSH1 0x40 MLOAD PUSH3 0x461BCD PUSH1 0xE5 SHL DUP2 MSTORE PUSH1 0x20 PUSH1 0x4 DUP3 ADD MSTORE PUSH1 0x1F PUSH1 0x24 DUP3 ADD MSTORE PUSH32 0x5265656E7472616E637947756172643A207265656E7472616E742063616C6C00 PUSH1 0x44 DUP3 ADD MSTORE PUSH1 0x64 SWAP1 REVERT JUMPDEST ISZERO PUSH2 0x3B82 JUMPI JUMP JUMPDEST PUSH1 0x40 MLOAD PUSH3 0x461BCD PUSH1 0xE5 SHL DUP2 MSTORE PUSH1 0x20 PUSH1 0x4 DUP3 ADD MSTORE PUSH1 0x21 PUSH1 0x24 DUP3 ADD MSTORE PUSH32 0x455243313135353A206D696E7420746F20746865207A65726F20616464726573 PUSH1 0x44 DUP3 ADD MSTORE PUSH1 0x73 PUSH1 0xF8 SHL PUSH1 0x64 DUP3 ADD MSTORE PUSH1 0x84 SWAP1 REVERT JUMPDEST SWAP1 PUSH2 0x3BDB DUP3 PUSH2 0x2F54 JUMP JUMPDEST PUSH2 0x3BE8 PUSH1 0x40 MLOAD SWAP2 DUP3 PUSH2 0x2EB0 JUMP JUMPDEST DUP3 DUP2 MSTORE DUP1 SWAP3 PUSH2 0x3BF9 PUSH1 0x1F NOT SWAP2 PUSH2 0x2F54 JUMP JUMPDEST ADD SWAP1 PUSH1 0x20 CALLDATASIZE SWAP2 ADD CALLDATACOPY JUMP JUMPDEST DUP1 MLOAD ISZERO PUSH2 0x3D35 JUMPI PUSH1 0x40 MLOAD PUSH2 0x3C16 DUP2 PUSH2 0x2E5E JUMP JUMPDEST PUSH1 0x40 DUP2 MSTORE PUSH32 0x4142434445464748494A4B4C4D4E4F505152535455565758595A616263646566 PUSH1 0x20 DUP3 ADD MSTORE PUSH32 0x6768696A6B6C6D6E6F707172737475767778797A303132333435363738392B2F PUSH1 0x40 DUP3 ADD MSTORE DUP2 MLOAD PUSH1 0x2 SWAP3 DUP4 DUP3 ADD DUP1 SWAP3 GT PUSH2 0x2CA5 JUMPI PUSH1 0x3 SWAP2 DUP3 SWAP1 DIV PUSH1 0x1 PUSH1 0x1 PUSH1 0xFE SHL SUB DUP2 AND DUP2 SUB PUSH2 0x2CA5 JUMPI PUSH2 0x3C98 SWAP1 DUP6 SWAP5 SWAP6 SHL PUSH2 0x3BD1 JUMP JUMPDEST SWAP4 PUSH1 0x20 DUP6 ADD SWAP4 DUP3 SWAP2 DUP4 MLOAD DUP5 ADD SWAP3 JUMPDEST DUP4 DUP2 LT PUSH2 0x3CE4 JUMPI POP POP POP POP MLOAD MOD DUP1 PUSH1 0x1 EQ PUSH2 0x3CD1 JUMPI PUSH1 0x2 EQ PUSH2 0x3CC6 JUMPI POP SWAP1 JUMP JUMPDEST PUSH1 0x3D SWAP1 PUSH1 0x0 NOT ADD MSTORE8 SWAP1 JUMP JUMPDEST POP PUSH1 0x3D SWAP1 DUP2 PUSH1 0x0 NOT DUP3 ADD MSTORE8 PUSH1 0x1 NOT ADD MSTORE8 SWAP1 JUMP JUMPDEST DUP6 PUSH1 0x4 SWAP2 SWAP8 SWAP3 SWAP4 SWAP5 SWAP8 ADD SWAP2 DUP3 MLOAD PUSH1 0x1 SWAP1 PUSH1 0x3F SWAP1 DUP3 DUP3 DUP3 PUSH1 0x12 SHR AND DUP9 ADD ADD MLOAD DUP5 MSTORE8 DUP3 DUP3 DUP3 PUSH1 0xC SHR AND DUP9 ADD ADD MLOAD DUP4 DUP6 ADD MSTORE8 DUP3 DUP3 DUP3 PUSH1 0x6 SHR AND DUP9 ADD ADD MLOAD DUP9 DUP6 ADD MSTORE8 AND DUP6 ADD ADD MLOAD DUP8 DUP3 ADD MSTORE8 ADD SWAP6 SWAP3 SWAP2 SWAP1 PUSH2 0x3CA6 JUMP JUMPDEST POP PUSH1 0x40 MLOAD PUSH2 0x3D42 DUP2 PUSH2 0x2E95 JUMP JUMPDEST PUSH1 0x0 DUP2 MSTORE SWAP1 JUMP JUMPDEST DUP1 PUSH1 0x0 SWAP2 PUSH27 0x184F03E93FF9F4DAA797ED6E38ED64BF6A1F010000000000000000 DUP1 DUP3 LT ISZERO PUSH2 0x3E7E JUMPI JUMPDEST POP PUSH14 0x4EE2D6D415B85ACEF8100000000 DUP1 DUP4 LT ISZERO PUSH2 0x3E6F JUMPI JUMPDEST POP PUSH7 0x2386F26FC10000 DUP1 DUP4 LT ISZERO PUSH2 0x3E60 JUMPI JUMPDEST POP PUSH4 0x5F5E100 DUP1 DUP4 LT ISZERO PUSH2 0x3E51 JUMPI JUMPDEST POP PUSH2 0x2710 DUP1 DUP4 LT ISZERO PUSH2 0x3E42 JUMPI JUMPDEST POP PUSH1 0x64 DUP3 LT ISZERO PUSH2 0x3E32 JUMPI JUMPDEST PUSH1 0xA DUP1 SWAP3 LT ISZERO PUSH2 0x3E28 JUMPI JUMPDEST PUSH1 0x1 SWAP1 DUP2 PUSH1 0x21 PUSH2 0x3DE0 DUP3 DUP8 ADD PUSH2 0x3BD1 JUMP JUMPDEST SWAP6 DUP7 ADD ADD SWAP1 JUMPDEST PUSH2 0x3DF2 JUMPI JUMPDEST POP POP POP POP SWAP1 JUMP JUMPDEST PUSH1 0x0 NOT ADD SWAP1 DUP4 SWAP1 PUSH16 0x181899199A1A9B1B9C1CB0B131B232B3 PUSH1 0x81 SHL DUP3 DUP3 MOD BYTE DUP4 MSTORE8 DIV SWAP2 DUP3 ISZERO PUSH2 0x3E23 JUMPI SWAP2 SWAP1 DUP3 PUSH2 0x3DE6 JUMP JUMPDEST PUSH2 0x3DEB JUMP JUMPDEST SWAP2 PUSH1 0x1 ADD SWAP2 PUSH2 0x3DCF JUMP JUMPDEST SWAP2 SWAP1 PUSH1 0x64 PUSH1 0x2 SWAP2 DIV SWAP2 ADD SWAP2 PUSH2 0x3DC4 JUMP JUMPDEST PUSH1 0x4 SWAP2 SWAP4 SWAP3 DIV SWAP2 ADD SWAP2 CODESIZE PUSH2 0x3DB9 JUMP JUMPDEST PUSH1 0x8 SWAP2 SWAP4 SWAP3 DIV SWAP2 ADD SWAP2 CODESIZE PUSH2 0x3DAC JUMP JUMPDEST PUSH1 0x10 SWAP2 SWAP4 SWAP3 DIV SWAP2 ADD SWAP2 CODESIZE PUSH2 0x3D9D JUMP JUMPDEST PUSH1 0x20 SWAP2 SWAP4 SWAP3 DIV SWAP2 ADD SWAP2 CODESIZE PUSH2 0x3D8B JUMP JUMPDEST PUSH1 0x40 SWAP4 POP DUP2 DIV SWAP2 POP CODESIZE PUSH2 0x3D72 JUMP JUMPDEST PUSH1 0x40 SWAP1 DUP2 MLOAD SWAP1 PUSH2 0x3E9B DUP3 PUSH2 0x2E79 JUMP JUMPDEST PUSH1 0x60 SWAP1 DUP2 DUP4 MSTORE PUSH1 0x20 SWAP4 DUP3 DUP6 DUP6 ADD MSTORE DUP3 DUP2 DUP6 ADD MSTORE DUP3 DUP1 DUP6 ADD MSTORE PUSH1 0x0 SWAP5 DUP6 PUSH1 0x80 DUP7 ADD MSTORE DUP6 PUSH1 0xA0 DUP7 ADD MSTORE DUP6 PUSH1 0xC0 DUP7 ADD MSTORE DUP6 PUSH1 0xE0 DUP7 ADD MSTORE PUSH2 0x100 SWAP2 DUP7 DUP4 DUP8 ADD MSTORE DUP7 PUSH2 0x120 DUP1 SWAP8 ADD MSTORE DUP4 DUP8 MSTORE PUSH1 0x9 DUP3 MSTORE PUSH1 0x1 DUP1 PUSH1 0xA0 SHL SUB SWAP5 DUP6 PUSH1 0x1 DUP4 DUP11 KECCAK256 ADD SLOAD AND ISZERO PUSH2 0x4001 JUMPI DUP5 DUP9 MSTORE PUSH1 0x9 DUP4 MSTORE DUP2 DUP9 KECCAK256 SWAP1 PUSH1 0x4 DUP5 MSTORE PUSH2 0x3F16 DUP4 DUP11 KECCAK256 PUSH2 0x3944 JUMP JUMPDEST DUP5 DUP9 DUP3 MLOAD AND ISZERO PUSH2 0x3FE8 JUMPI JUMPDEST PUSH1 0x1 PUSH1 0x1 PUSH1 0x60 SHL SUB SWAP2 ADD MLOAD AND SWAP6 PUSH2 0x2710 DUP8 DUP2 MUL DIV DUP1 SWAP8 SUB PUSH2 0x3FD4 JUMPI DUP10 MSTORE PUSH1 0xB DUP5 MSTORE DUP3 DUP1 DUP11 KECCAK256 SWAP10 PUSH1 0xC DUP7 MSTORE KECCAK256 SWAP7 PUSH1 0x1 DUP4 ADD SLOAD AND SWAP1 PUSH1 0x6 DUP4 ADD SLOAD SWAP3 PUSH1 0x7 DUP2 ADD SLOAD SWAP5 PUSH1 0x8 DUP3 ADD SLOAD SWAP7 PUSH1 0xA DUP4 ADD SLOAD PUSH1 0xFF AND SWAP11 DUP3 MLOAD DUP1 SWAP15 PUSH2 0x3F7C DUP3 PUSH2 0x2E79 JUMP JUMPDEST PUSH2 0x3F85 SWAP1 PUSH2 0x305C JUMP JUMPDEST SWAP1 MSTORE PUSH2 0x3F90 SWAP1 PUSH2 0x305C JUMP JUMPDEST SWAP1 DUP14 ADD MSTORE PUSH2 0x3FA0 PUSH1 0x5 DUP4 ADD PUSH2 0x305C JUMP JUMPDEST SWAP1 DUP13 ADD MSTORE PUSH1 0x4 ADD PUSH2 0x3FB0 SWAP1 PUSH2 0x305C JUMP JUMPDEST SWAP1 DUP11 ADD MSTORE PUSH1 0x80 DUP10 ADD MSTORE PUSH1 0xA0 DUP9 ADD MSTORE PUSH1 0xC0 DUP8 ADD MSTORE PUSH1 0xE0 DUP7 ADD MSTORE DUP5 ADD MSTORE ISZERO ISZERO SWAP1 DUP3 ADD MSTORE SWAP1 JUMP JUMPDEST PUSH4 0x4E487B71 PUSH1 0xE0 SHL DUP11 MSTORE PUSH1 0x11 PUSH1 0x4 MSTORE PUSH1 0x24 DUP11 REVERT JUMPDEST PUSH1 0x1 PUSH1 0x1 PUSH1 0x60 SHL SUB SWAP2 POP PUSH2 0x3FFA PUSH2 0x391E JUMP JUMPDEST SWAP2 POP PUSH2 0x3F21 JUMP JUMPDEST DUP2 MLOAD PUSH4 0xF070CB6F PUSH1 0xE0 SHL DUP2 MSTORE PUSH1 0x4 SWAP1 REVERT INVALID LOG2 PUSH5 0x6970667358 0x22 SLT KECCAK256 0xDD EQ 0xC7 0x49 0x24 0x5E PUSH24 0xBD4B1B8D5180333DF445BC5BD73F9646A0D64E4655568F0C EXTCODEHASH PUSH5 0x736F6C6343 STOP ADDMOD EQ STOP CALLER "},"methodIdentifiers":{"BASIS_POINTS()":"e1f1c4a7","MAX_BATCH_SIZE()":"cfdbf254","MAX_ROYALTY_BPS()":"3dca40e6","MIN_ROYALTY_BPS()":"f8349617","balanceOf(address,uint256)":"00fdd58e","balanceOfBatch(address[],uint256[])":"4e1273f4","batchMintNFTs(uint256[],uint256[])":"ecf7ba22","buyListedNFT(uint256,address,uint256)":"b6308e02","cancelListing(uint256)":"305a67a8","createMusicNFT(string,string,string,string,uint256,uint256,uint256)":"368d9b48","getAllMusicNFTs()":"f59e506f","getBalanceHolders(uint256)":"6c94b5cb","getListing(uint256,address)":"935b74c8","getNFTMetadata(uint256)":"6be9a6f1","isApprovedForAll(address,address)":"e985e9c5","listNFT(uint256,uint256,uint256)":"b0136c8d","listings(uint256,address)":"927fbfc8","mintNFT(uint256,uint256)":"c48283ff","musicNFTs(uint256)":"5d269138","owner()":"8da5cb5b","pause()":"8456cb59","paused()":"5c975abb","renounceOwnership()":"715018a6","royaltyInfo(uint256,uint256)":"2a55205a","safeBatchTransferFrom(address,address,uint256[],uint256[],bytes)":"2eb2c2d6","safeTransferFrom(address,address,uint256,uint256,bytes)":"f242432a","setApprovalForAll(address,bool)":"a22cb465","supportsInterface(bytes4)":"01ffc9a7","toggleNFTStatus(uint256)":"9b8262fd","transferOwnership(address)":"f2fde38b","unpause()":"3f4ba83a","updateNFTPrice(uint256,uint256)":"4ac0123d","uri(uint256)":"0e89341c"}}}}}