{"contracts/MusicNFTMarketplace.sol":{"MusicNFTMarketplace":{"abi":[{"inputs":[],"stateMutability":"nonpayable","type":"constructor"},{"inputs":[],"name":"ArrayLengthMismatch","type":"error"},{"inputs":[],"name":"BatchSizeTooLarge","type":"error"},{"inputs":[],"name":"InsufficientBalance","type":"error"},{"inputs":[],"name":"InsufficientPayment","type":"error"},{"inputs":[],"name":"InvalidAddress","type":"error"},{"inputs":[],"name":"InvalidInput","type":"error"},{"inputs":[],"name":"InvalidPrice","type":"error"},{"inputs":[],"name":"InvalidRoyalty","type":"error"},{"inputs":[],"name":"InvalidSupply","type":"error"},{"inputs":[],"name":"MaxSupplyExceeded","type":"error"},{"inputs":[],"name":"NFTNotActive","type":"error"},{"inputs":[],"name":"NFTNotFound","type":"error"},{"inputs":[],"name":"NotAuthorized","type":"error"},{"inputs":[],"name":"Overflow","type":"error"},{"inputs":[],"name":"TransferFailed","type":"error"},{"anonymous":false,"inputs":[{"indexed":true,"internalType":"address","name":"account","type":"address"},{"indexed":true,"internalType":"address","name":"operator","type":"address"},{"indexed":false,"internalType":"bool","name":"approved","type":"bool"}],"name":"ApprovalForAll","type":"event"},{"anonymous":false,"inputs":[{"indexed":true,"internalType":"address","name":"seller","type":"address"},{"indexed":false,"internalType":"uint256[]","name":"tokenIds","type":"uint256[]"},{"indexed":false,"internalType":"uint256[]","name":"amounts","type":"uint256[]"},{"indexed":false,"internalType":"uint256[]","name":"prices","type":"uint256[]"}],"name":"BatchListingCompleted","type":"event"},{"anonymous":false,"inputs":[{"indexed":true,"internalType":"address","name":"buyer","type":"address"},{"indexed":false,"internalType":"uint256[]","name":"tokenIds","type":"uint256[]"},{"indexed":false,"internalType":"uint256[]","name":"amounts","type":"uint256[]"}],"name":"BatchMintCompleted","type":"event"},{"anonymous":false,"inputs":[{"indexed":true,"internalType":"uint256","name":"tokenId","type":"uint256"},{"indexed":true,"internalType":"address","name":"seller","type":"address"}],"name":"ListingCancelled","type":"event"},{"anonymous":false,"inputs":[{"indexed":true,"internalType":"uint256","name":"tokenId","type":"uint256"},{"indexed":true,"internalType":"address","name":"creator","type":"address"},{"indexed":false,"internalType":"uint256","name":"price","type":"uint256"},{"indexed":false,"internalType":"uint256","name":"maxSupply","type":"uint256"}],"name":"NFTCreated","type":"event"},{"anonymous":false,"inputs":[{"indexed":true,"internalType":"uint256","name":"tokenId","type":"uint256"},{"indexed":true,"internalType":"address","name":"seller","type":"address"},{"indexed":false,"internalType":"uint256","name":"price","type":"uint256"},{"indexed":false,"internalType":"uint256","name":"amount","type":"uint256"}],"name":"NFTListed","type":"event"},{"anonymous":false,"inputs":[{"indexed":true,"internalType":"uint256","name":"tokenId","type":"uint256"},{"indexed":false,"internalType":"uint256","name":"newPrice","type":"uint256"}],"name":"NFTPriceUpdated","type":"event"},{"anonymous":false,"inputs":[{"indexed":true,"internalType":"uint256","name":"tokenId","type":"uint256"},{"indexed":true,"internalType":"address","name":"seller","type":"address"},{"indexed":true,"internalType":"address","name":"buyer","type":"address"},{"indexed":false,"internalType":"uint256","name":"price","type":"uint256"},{"indexed":false,"internalType":"uint256","name":"amount","type":"uint256"}],"name":"NFTSold","type":"event"},{"anonymous":false,"inputs":[{"indexed":true,"internalType":"uint256","name":"tokenId","type":"uint256"},{"indexed":false,"internalType":"bool","name":"isActive","type":"bool"}],"name":"NFTStatusUpdated","type":"event"},{"anonymous":false,"inputs":[{"indexed":true,"internalType":"address","name":"previousOwner","type":"address"},{"indexed":true,"internalType":"address","name":"newOwner","type":"address"}],"name":"OwnershipTransferred","type":"event"},{"anonymous":false,"inputs":[{"indexed":false,"internalType":"address","name":"account","type":"address"}],"name":"Paused","type":"event"},{"anonymous":false,"inputs":[{"indexed":true,"internalType":"address","name":"operator","type":"address"},{"indexed":true,"internalType":"address","name":"from","type":"address"},{"indexed":true,"internalType":"address","name":"to","type":"address"},{"indexed":false,"internalType":"uint256[]","name":"ids","type":"uint256[]"},{"indexed":false,"internalType":"uint256[]","name":"values","type":"uint256[]"}],"name":"TransferBatch","type":"event"},{"anonymous":false,"inputs":[{"indexed":true,"internalType":"address","name":"operator","type":"address"},{"indexed":true,"internalType":"address","name":"from","type":"address"},{"indexed":true,"internalType":"address","name":"to","type":"address"},{"indexed":false,"internalType":"uint256","name":"id","type":"uint256"},{"indexed":false,"internalType":"uint256","name":"value","type":"uint256"}],"name":"TransferSingle","type":"event"},{"anonymous":false,"inputs":[{"indexed":false,"internalType":"string","name":"value","type":"string"},{"indexed":true,"internalType":"uint256","name":"id","type":"uint256"}],"name":"URI","type":"event"},{"anonymous":false,"inputs":[{"indexed":false,"internalType":"address","name":"account","type":"address"}],"name":"Unpaused","type":"event"},{"inputs":[],"name":"BASIS_POINTS","outputs":[{"internalType":"uint256","name":"","type":"uint256"}],"stateMutability":"view","type":"function"},{"inputs":[],"name":"MAX_BATCH_SIZE","outputs":[{"internalType":"uint256","name":"","type":"uint256"}],"stateMutability":"view","type":"function"},{"inputs":[],"name":"MAX_ROYALTY_BPS","outputs":[{"internalType":"uint256","name":"","type":"uint256"}],"stateMutability":"view","type":"function"},{"inputs":[],"name":"MIN_ROYALTY_BPS","outputs":[{"internalType":"uint256","name":"","type":"uint256"}],"stateMutability":"view","type":"function"},{"inputs":[{"internalType":"address","name":"account","type":"address"},{"internalType":"uint256","name":"id","type":"uint256"}],"name":"balanceOf","outputs":[{"internalType":"uint256","name":"","type":"uint256"}],"stateMutability":"view","type":"function"},{"inputs":[{"internalType":"address[]","name":"accounts","type":"address[]"},{"internalType":"uint256[]","name":"ids","type":"uint256[]"}],"name":"balanceOfBatch","outputs":[{"internalType":"uint256[]","name":"","type":"uint256[]"}],"stateMutability":"view","type":"function"},{"inputs":[{"internalType":"uint256[]","name":"_tokenIds","type":"uint256[]"},{"internalType":"uint256[]","name":"_amounts","type":"uint256[]"}],"name":"batchMintNFTs","outputs":[],"stateMutability":"payable","type":"function"},{"inputs":[{"internalType":"uint256","name":"_tokenId","type":"uint256"},{"internalType":"address","name":"_seller","type":"address"},{"internalType":"uint256","name":"_amount","type":"uint256"}],"name":"buyListedNFT","outputs":[],"stateMutability":"payable","type":"function"},{"inputs":[{"internalType":"uint256","name":"_tokenId","type":"uint256"}],"name":"cancelListing","outputs":[],"stateMutability":"nonpayable","type":"function"},{"inputs":[{"internalType":"string","name":"_name","type":"string"},{"internalType":"string","name":"_description","type":"string"},{"internalType":"string","name":"_musicUrl","type":"string"},{"internalType":"string","name":"_imageUrl","type":"string"},{"internalType":"uint256","name":"_price","type":"uint256"},{"internalType":"uint256","name":"_maxSupply","type":"uint256"},{"internalType":"uint256","name":"_royaltyBPS","type":"uint256"}],"name":"createMusicNFT","outputs":[{"internalType":"uint256","name":"","type":"uint256"}],"stateMutability":"nonpayable","type":"function"},{"inputs":[],"name":"getAllMusicNFTs","outputs":[{"components":[{"internalType":"address","name":"creator","type":"address"},{"internalType":"string","name":"name","type":"string"},{"internalType":"string","name":"description","type":"string"},{"internalType":"string","name":"musicUrl","type":"string"},{"internalType":"string","name":"imageUrl","type":"string"},{"internalType":"uint256","name":"price","type":"uint256"},{"internalType":"uint256","name":"maxSupply","type":"uint256"},{"internalType":"uint256","name":"currentSupply","type":"uint256"},{"internalType":"uint256","name":"royaltyBPS","type":"uint256"},{"internalType":"bool","name":"isActive","type":"bool"}],"internalType":"struct MusicNFTMarketplace.MusicNFT[]","name":"","type":"tuple[]"}],"stateMutability":"view","type":"function"},{"inputs":[{"internalType":"uint256","name":"_tokenId","type":"uint256"},{"internalType":"address","name":"_seller","type":"address"}],"name":"getListing","outputs":[{"components":[{"internalType":"address","name":"seller","type":"address"},{"internalType":"uint256","name":"price","type":"uint256"},{"internalType":"uint256","name":"amount","type":"uint256"}],"internalType":"struct MusicNFTMarketplace.Listing","name":"","type":"tuple"}],"stateMutability":"view","type":"function"},{"inputs":[{"internalType":"uint256","name":"tokenId","type":"uint256"}],"name":"getNFTMetadata","outputs":[{"components":[{"internalType":"string","name":"name","type":"string"},{"internalType":"string","name":"description","type":"string"},{"internalType":"string","name":"imageUrl","type":"string"},{"internalType":"string","name":"musicUrl","type":"string"},{"internalType":"address","name":"creator","type":"address"},{"internalType":"uint256","name":"price","type":"uint256"},{"internalType":"uint256","name":"maxSupply","type":"uint256"},{"internalType":"uint256","name":"currentSupply","type":"uint256"},{"internalType":"uint256","name":"royaltyBPS","type":"uint256"},{"internalType":"bool","name":"isActive","type":"bool"}],"internalType":"struct MusicNFTMarketplace.NFTMetadata","name":"","type":"tuple"}],"stateMutability":"view","type":"function"},{"inputs":[{"internalType":"address","name":"account","type":"address"},{"internalType":"address","name":"operator","type":"address"}],"name":"isApprovedForAll","outputs":[{"internalType":"bool","name":"","type":"bool"}],"stateMutability":"view","type":"function"},{"inputs":[{"internalType":"uint256","name":"_tokenId","type":"uint256"},{"internalType":"uint256","name":"_amount","type":"uint256"},{"internalType":"uint256","name":"_price","type":"uint256"}],"name":"listNFT","outputs":[],"stateMutability":"nonpayable","type":"function"},{"inputs":[{"internalType":"uint256","name":"","type":"uint256"},{"internalType":"address","name":"","type":"address"}],"name":"listings","outputs":[{"internalType":"address","name":"seller","type":"address"},{"internalType":"uint256","name":"price","type":"uint256"},{"internalType":"uint256","name":"amount","type":"uint256"}],"stateMutability":"view","type":"function"},{"inputs":[{"internalType":"uint256","name":"_tokenId","type":"uint256"},{"internalType":"uint256","name":"_amount","type":"uint256"}],"name":"mintNFT","outputs":[],"stateMutability":"payable","type":"function"},{"inputs":[{"internalType":"uint256","name":"","type":"uint256"}],"name":"musicNFTs","outputs":[{"internalType":"address","name":"creator","type":"address"},{"internalType":"string","name":"name","type":"string"},{"internalType":"string","name":"description","type":"string"},{"internalType":"string","name":"musicUrl","type":"string"},{"internalType":"string","name":"imageUrl","type":"string"},{"internalType":"uint256","name":"price","type":"uint256"},{"internalType":"uint256","name":"maxSupply","type":"uint256"},{"internalType":"uint256","name":"currentSupply","type":"uint256"},{"internalType":"uint256","name":"royaltyBPS","type":"uint256"},{"internalType":"bool","name":"isActive","type":"bool"}],"stateMutability":"view","type":"function"},{"inputs":[],"name":"owner","outputs":[{"internalType":"address","name":"","type":"address"}],"stateMutability":"view","type":"function"},{"inputs":[],"name":"pause","outputs":[],"stateMutability":"nonpayable","type":"function"},{"inputs":[],"name":"paused","outputs":[{"internalType":"bool","name":"","type":"bool"}],"stateMutability":"view","type":"function"},{"inputs":[],"name":"renounceOwnership","outputs":[],"stateMutability":"nonpayable","type":"function"},{"inputs":[{"internalType":"uint256","name":"tokenId","type":"uint256"},{"internalType":"uint256","name":"salePrice","type":"uint256"}],"name":"royaltyInfo","outputs":[{"internalType":"address","name":"","type":"address"},{"internalType":"uint256","name":"","type":"uint256"}],"stateMutability":"view","type":"function"},{"inputs":[{"internalType":"address","name":"from","type":"address"},{"internalType":"address","name":"to","type":"address"},{"internalType":"uint256[]","name":"ids","type":"uint256[]"},{"internalType":"uint256[]","name":"amounts","type":"uint256[]"},{"internalType":"bytes","name":"data","type":"bytes"}],"name":"safeBatchTransferFrom","outputs":[],"stateMutability":"nonpayable","type":"function"},{"inputs":[{"internalType":"address","name":"from","type":"address"},{"internalType":"address","name":"to","type":"address"},{"internalType":"uint256","name":"id","type":"uint256"},{"internalType":"uint256","name":"amount","type":"uint256"},{"internalType":"bytes","name":"data","type":"bytes"}],"name":"safeTransferFrom","outputs":[],"stateMutability":"nonpayable","type":"function"},{"inputs":[{"internalType":"address","name":"operator","type":"address"},{"internalType":"bool","name":"approved","type":"bool"}],"name":"setApprovalForAll","outputs":[],"stateMutability":"nonpayable","type":"function"},{"inputs":[{"internalType":"bytes4","name":"interfaceId","type":"bytes4"}],"name":"supportsInterface","outputs":[{"internalType":"bool","name":"","type":"bool"}],"stateMutability":"view","type":"function"},{"inputs":[{"internalType":"uint256","name":"_tokenId","type":"uint256"}],"name":"toggleNFTStatus","outputs":[],"stateMutability":"nonpayable","type":"function"},{"inputs":[{"internalType":"address","name":"newOwner","type":"address"}],"name":"transferOwnership","outputs":[],"stateMutability":"nonpayable","type":"function"},{"inputs":[],"name":"unpause","outputs":[],"stateMutability":"nonpayable","type":"function"},{"inputs":[{"internalType":"uint256","name":"_tokenId","type":"uint256"},{"internalType":"uint256","name":"_newPrice","type":"uint256"}],"name":"updateNFTPrice","outputs":[],"stateMutability":"nonpayable","type":"function"},{"inputs":[{"internalType":"uint256","name":"tokenId","type":"uint256"}],"name":"uri","outputs":[{"internalType":"string","name":"","type":"string"}],"stateMutability":"view","type":"function"}],"evm":{"bytecode":{"linkReferences":{},"object":"6080346200015357602081016001600160401b038111828210176200013d5760405260008091526002546001908181811c9116801562000132575b60208210146200011e57601f8111620000d0575b50600282905560058054336001600160a01b031982168117909255604051936001600160a01b03909116907f8be0079c531659141344cd1fd0a4f28419497f9722a3daafe3b4186f6b6457e09080a360065560ff19600754166007553315620000c157604051613bfb9081620001598239f35b63e6c4247b60e01b8152600490fd5b60028352601f0160051c7f405787fa12a823e0f2b7631cc41b3ba8828b3321ca811111fa75cd3aa3bb5ace9081019082905b828110620001125750506200004e565b84815501829062000102565b634e487b7160e01b83526022600452602483fd5b90607f16906200003a565b634e487b7160e01b600052604160045260246000fd5b600080fdfe6080604052600436101561001257600080fd5b60003560e01c8062fdd58e146129f157806301ffc9a7146129545780630e89341c146125725780632a55205a146125435780632eb2c2d614612185578063305a67a8146120e2578063368d9b48146118f85780633dca40e6146118db5780633f4ba83a146118475780634ac0123d146117bf5780634e1273f41461161d5780635c975abb146115fa5780635d269138146115085780636be9a6f114611432578063715018a6146113d55780638456cb591461137b5780638da5cb5b14611352578063927fbfc8146112f0578063935b74c8146112555780639b8262fd146111b0578063a22cb465146110c3578063b0136c8d14610fba578063b6308e0214610dd7578063c48283ff14610b2e578063cfdbf25414610b12578063e1f1c4a714610af5578063e985e9c514610a9f578063ecf7ba22146105d7578063f242432a1461053e578063f2fde38b1461047a578063f59e506f1461019c5763f83496171461017b57600080fd5b3461019757600036600319011261019757602060405160008152f35b600080fd5b34610197576000366003190112610197576008805460009160015b8281111561043a57506101c983612b38565b926101d76040519485612b17565b8084526101e6601f1991612b38565b0160005b8181106103de575050600060015b838111156102f1576040805160208082528751818301819052600093600582901b8401810192808b01929185015b8287106102335785850386f35b909192938280600192603f19898203018552875190848060a01b0382511681526102ab610298610285610273868601516101408089880152860190612a6f565b60408601518582036040870152612a6f565b6060808601519085830390860152612a6f565b6080808501519084830390850152612a6f565b9160a0808201519083015260c0808201519083015260e081015160e083015261010080820151908301526101208091015115159101529601920196019592919092610226565b600081815260096020818152604090922080546001600160a01b03169283610326575b5050505061032190612e76565b6101f8565b6103219495926103d4949260ff926040519461034186612aaa565b855261034f60018301612cc3565b9085015261035f60028201612cc3565b604085015261037060038201612cc3565b606085015261038160048201612cc3565b6080850152600581015460a0850152600681015460c0850152600781015460e08501528881015461010085015201541615156101208201526103c38289612e85565b526103ce8188612e85565b50612e76565b9190868080610314565b6020906040516103ed81612aaa565b6000815260608390808284015280604084015280808401526080830152600060a0830152600060c0830152600060e0830152600061010083015260006101208301528288010152016101ea565b6000818152600960205260409020546001600160a01b0316610465575b61046090612e76565b6101b7565b9261047261046091612e76565b939050610457565b3461019757602036600319011261019757610493612a20565b61049b612d99565b6001600160a01b039081169081156104ea57600554826001600160601b0360a01b821617600555167f8be0079c531659141344cd1fd0a4f28419497f9722a3daafe3b4186f6b6457e0600080a3005b60405162461bcd60e51b815260206004820152602660248201527f4f776e61626c653a206e6577206f776e657220697320746865207a65726f206160448201526564647265737360d01b6064820152608490fd5b346101975760a036600319011261019757610557612a20565b61055f612a36565b90608435916001600160401b038311610197576105836105af933690600401612c0d565b916001600160a01b03811633811480156105b1575b6105a29150612e99565b6064359160443591612fc2565b005b5060005260016020526040600020336000526020526105a260ff60406000205416610598565b600319604036820112610197576001600160401b039060043582811161019757610605903690600401612d69565b90926024359081116101975761061f903690600401612d69565b91906106296136de565b610631613629565b828203610a8d5760148211610a7b5760009060005b83811061093f575081341061092d57610660368488612b4f565b9561066c368684612b4f565b9460405161067981612afc565b60008152610688331515613734565b610695895188511461331d565b60005b89518110156106eb57806106af6106e6928a612e85565b516106ba828d612e85565b5160005260206000815260406000209033600052526106df6040600020918254612fb5565b9055612e76565b610698565b5088908789604051600033917f4a39dc06d4c0dbc64b70af90fd698a233a518aa5d07e595d983b8c0526c8f7fb339180610726888b8361337a565b0390a4333b6107ca575b505050509061078e946107857f6583473987e443781108c9a74166cfb5d143516bbb4a3804805a2e0b34911563936107756040519485946040865260408601916136ba565b90838203602085015233966136ba565b0390a23461366d565b8061079b575b6001600655005b600080808093335af16107ac61368a565b50156107b85780610794565b6040516312171d8360e31b8152600490fd5b60209161082b61081c92604098979851958694859461080c63bc197c8160e01b9a8b88523360048901526000602489015260a0604489015260a4880190612c55565b9084878303016064880152612c55565b91848303016084850152612a6f565b03816000335af1600091816108fd575b506108a757610848613408565b6308c379a014610870575b60405162461bcd60e51b81528061086c60048201613494565b0390fd5b610878613426565b806108835750610853565b60405162461bcd60e51b81526020600482015290819061086c906024830190612a6f565b6001600160e01b031916036108e45790846107857f6583473987e443781108c9a74166cfb5d143516bbb4a3804805a2e0b3491156361078e610730565b60405162461bcd60e51b81528061086c600482016133bf565b61091f91925060203d8111610926575b6109178183612b17565b81019061339f565b908861083b565b503d61090d565b60405163cd1c886760e01b8152600490fd5b61094a81858961367a565b3560005260098060205260ff6040600020918201541615610a695761097082878561367a565b3515610a57576007810180549461098884898761367a565b358601600684015410610a455789956109c588926109bf878c6109b2826005809b0154928d61367a565b350295868094019b61367a565b3561356c565b9384926109d3888d8b61367a565b3501905581610a1c575b5081036109f0575b505050600101610646565b6000809381938293039060018060a01b039054165af1610a0e61368a565b50156107b8578780806109e5565b6000918291829182916001600160a01b03165af1610a3861368a565b50156107b857818b6109dd565b604051638a164f6360e01b8152600490fd5b60405163b4fa3fb360e01b8152600490fd5b60405163ad9d099b60e01b8152600490fd5b604051631e80759560e21b8152600490fd5b60405163512509d360e11b8152600490fd5b3461019757604036600319011261019757610ab8612a20565b610ac0612a36565b9060018060a01b03809116600052600160205260406000209116600052602052602060ff604060002054166040519015158152f35b346101975760003660031901126101975760206040516127108152f35b3461019757600036600319011261019757602060405160148152f35b610b3736612a94565b90610b406136de565b610b48613629565b8060005260209160098352604060002060ff60098201541615610a69578115610a575760078101805491610b7c8484612fb5565b600682015410610a4557836005610b94920154613559565b9182341061092d5783610ba691612fb5565b9055610bb2818461356c565b610bbc818461366d565b9181610dae575b505080610d83575b50803411610d5d575b5060405190610be282612afc565b60008252610bf1331515613734565b610bfa836134e9565b50610c04816134e9565b50826000526000845260406000203360005284526040600020610c28828254612fb5565b90556040518381528185820152600033917fc3d58168c5ae7397731d063d5bbf3d657854427343f4c083240f7aacaa2d0f6260403392a4333b610c6c576001600655005b610cae918491604051938492839263f23a6e6160e01b97888552336004860152600060248601526044850152606484015260a0608484015260a4830190612a6f565b03816000335af160009181610d3e575b50610d245782610ccc613408565b6308c379a014610cef5760405162461bcd60e51b81528061086c60048201613494565b610cf7613426565b9081610d035750610853565b61086c60405192839262461bcd60e51b845260048401526024830190612a6f565b6001600160e01b0319160390506108e45780808080610794565b610d56919250843d8611610926576109178183612b17565b9084610cbe565b60008080610d6c81943461366d565b335af1610d7761368a565b50156107b85783610bd4565b6005546000918291829182916001600160a01b03165af1610da261368a565b50156107b85784610bcb565b6000918291829182916001600160a01b03165af1610dca61368a565b50156107b8578580610bc3565b606036600319011261019757600435610dee612a36565b604435610df96136de565b610e01613629565b6001600160a01b0392828416918215610fa8573315610fa857338314610f965781600052602093600a85526040600020846000528552604060002090848783541603610f9657600282019183835410610f8457846000526009875260ff6009604060002001541615610a695783610e788684612df1565b10610f845760010191838354029788341061092d57610e97898761356c565b919082610f64575b50506000808080938c038a5af1610eb461368a565b50156107b857610ed98492838760405192610ece84612afc565b600084523390612fc2565b805490828203905514610f39575b54936040519485528401527f5fafad85dec201c2e73b6a2bef6351129304a624ea8720ecd04cd7f04d83bc3960403394a4803411610f26576001600655005b6000808080933403335af16107ac61368a565b82600052600a8552604060002084600052855260006002604082208281558260018201550155610ee7565b6000808481948294165af1610f7761368a565b50156107b8578980610e9f565b604051631e9acf1760e31b8152600490fd5b60405163ea8e4eb560e01b8152600490fd5b60405163e6c4247b60e01b8152600490fd5b3461019757606036600319011261019757604435600435602435610fdc6136de565b610fe4613629565b80610fef8333612df1565b10610f84578015610a575782156110b25781600052600960205260ff6009604060002001541615610a695760405161102681612ae1565b338152600260208201858152604083019084825285600052600a60205260406000203360005260205260406000209360018060a01b039051166001600160601b0360a01b8554161784555160018401555191015560405192835260208301527f36e94395fafcb0d2a9bcfcdd5cef807ab52a1f4382906992ebdc18de5f1472c460403393a36001600655005b60405162bfc92160e01b8152600490fd5b34610197576040366003190112610197576110dc612a20565b6024359081151590818303610197576001600160a01b0316913383146111595761112b9033600052600160205260406000208460005260205260406000209060ff801983541691151516179055565b6040519081527f17307eab39ab6107e8899845ad3d59bd9653f200f220920489ca2b5937696c3160203392a3005b60405162461bcd60e51b815260206004820152602960248201527f455243313135353a2073657474696e6720617070726f76616c20737461747573604482015268103337b91039b2b63360b91b6064820152608490fd5b34610197576020366003190112610197576004356111cc613629565b60008181526009602052604090208054336001600160a01b0391821614159081611246575b50610f9657602060ff60097fb98f2e7a31992fd0038957c8b37afbfde15601543d7e49508ff1093c402e6b8993016112398282541615829060ff801983541691151516179055565b54166040519015158152a2005b905060055416331415836111f1565b34610197576040366003190112610197576060611270612a36565b60006040805161127f81612ae1565b8281528260208201520152600435600052600a602052604060002060018060a01b03809216600052602052604060002090604051906112bd82612ae1565b82541691828252604060026001830154926020850193845201549201918252604051928352516020830152516040820152f35b3461019757604036600319011261019757606061130b612a36565b600435600052600a602052604060002060018060a01b0380921660005260205260406000209081541690600260018201549101549060405192835260208301526040820152f35b34610197576000366003190112610197576005546040516001600160a01b039091168152602090f35b3461019757600036600319011261019757611394612d99565b61139c613629565b600160ff1960075416176007557f62e78cea01bee320cd4e420270b5ea74000d11b0c9f74754ebdbfc544b05a2586020604051338152a1005b34610197576000366003190112610197576113ee612d99565b600580546001600160a01b031981169091556000906001600160a01b03167f8be0079c531659141344cd1fd0a4f28419497f9722a3daafe3b4186f6b6457e08280a3005b346101975760203660031901126101975761144e600435613a45565b60405180916020825280516114bc61147461014092836020870152610160860190612a6f565b6114a7611493602086015192601f1993848983030160408a0152612a6f565b604086015183888303016060890152612a6f565b90606085015190868303016080870152612a6f565b9160018060a01b0360808201511660a085015260a081015160c085015260c081015160e085015260e0810151610100908186015281015190610120918286015201511515908301520390f35b3461019757602036600319011261019757600435600090815260096020526040902080546001600160a01b031661154160018301612cc3565b9161154e60028201612cc3565b61155a60038301612cc3565b9161156760048201612cc3565b926005820154936115d86006840154916115ca6007860154946115bc60ff600960088a015499015416986115ae6040519d8e9d8e528d610140908160208201520190612a6f565b8c810360408e015290612a6f565b908a820360608c0152612a6f565b9088820360808a0152612a6f565b9460a087015260c086015260e085015261010084015215156101208301520390f35b3461019757600036600319011261019757602060ff600754166040519015158152f35b34610197576040366003190112610197576004356001600160401b0380821161019757366023830112156101975781600401359061165a82612b38565b926116686040519485612b17565b82845260209260248486019160051b8301019136831161019757602401905b8282106117a057505050602435908111610197576116a9903690600401612b9d565b8251815103611749578251926116be84612b38565b936116cc6040519586612b17565b8085526116db601f1991612b38565b01368486013760005b815181101561172e57611729906117196001600160a01b036117068386612e85565b51166117128387612e85565b5190612df1565b6117238288612e85565b52612e76565b6116e4565b505050611745604051928284938452830190612c55565b0390f35b60405162461bcd60e51b815260048101839052602960248201527f455243313135353a206163636f756e747320616e6420696473206c656e677468604482015268040dad2e6dac2e8c6d60bb1b6064820152608490fd5b81356001600160a01b0381168103610197578152908401908401611687565b34610197576117cd36612a94565b6117d5613629565b60008281526009602052604090208054336001600160a01b0391821614159081611838575b50610f965781156110b257817f2847cfe8afe8bcd9ac540f0259739697ea019f65d44c8e76c8796b8ce52f7c319260056020930155604051908152a2005b905060055416331415846117fa565b3461019757600036600319011261019757611860612d99565b60075460ff81161561189f5760ff19166007557f5db9ee0a495bf2e6ff9c91a7834c1ba4fdd244a5e8aa4e537bd38aeae4b073aa6020604051338152a1005b60405162461bcd60e51b815260206004820152601460248201527314185d5cd8589b194e881b9bdd081c185d5cd95960621b6044820152606490fd5b346101975760003660031901126101975760206040516109c48152f35b346101975760e0366003190112610197576004356001600160401b03811161019757611928903690600401612c28565b6024356001600160401b03811161019757611947903690600401612c28565b906044356001600160401b03811161019757611967903690600401612c28565b6064356001600160401b03811161019757611986903690600401612c28565b939094611991613629565b3315610fa857861580156120da575b80156120d2575b80156120ca575b610a5757608435156110b25760a435156120b8576109c460c435116120a657600160085401978860085588600052600b60205260406000206001600160401b038911611e4657611a0889611a028354612c89565b836135d5565b886000601f821160011461204157600091612036575b508960011b906000198b60031b1c19161790555b88600052600c60205260406000206001600160401b038311611e4657611a5c83611a028354612c89565b6000601f8411600114611fba5792611ab2611abe93611ad69a9998969383611aca9997600091611faf575b508460011b906000198660031b1c19161790555b6040519b611aa88d612aaa565b338d523691612bd6565b60208b01523691612bd6565b60408801523691612bd6565b60608501523691612bd6565b608082015260843560a082015260a43560c0820152600060e082015260c435610100820152600161012082015281600052600960205260406000209060018060a01b038151166001600160601b0360a01b835416178255602081015180516001600160401b038111611e4657806001850192611b5c82611b568654612c89565b866135d5565b602090601f8311600114611f4957600092611f3e575b50508160011b916000199060031b1c19161790555b604081015180516001600160401b038111611e4657806002850192611bb082611b568654612c89565b602090601f8311600114611ed857600092611ecd575b50508160011b916000199060031b1c19161790555b606081015180516001600160401b038111611e4657806003850192611c0482611b568654612c89565b602090601f8311600114611e6757600092611e5c575b50508160011b916000199060031b1c19161790555b608081015180516001600160401b038111611e46576004840191611c5d82611c578554612c89565b856135d5565b602090601f8311600114611dd357928261012093611cd7979693600996600092611dc8575b50508160011b916000199060031b1c19161790555b60a0810151600585015560c0810151600685015560e0810151600785015561010081015160088501550151151591019060ff801983541691151516179055565b6001600160601b0360c43516906127108211611d7057604051602092611cfc82612ac6565b338252838201908152826000526004845260406000209160018060a01b03905116906001600160601b0360a01b905160a01b16179055604051608435815260a43583820152817f23cbb18bfb096672f2fc538a6d637483d9db0f85666ae980eba20ae2874da1a460403393a3604051908152f35b60405162461bcd60e51b815260206004820152602a60248201527f455243323938313a20726f79616c7479206665652077696c6c206578636565646044820152692073616c65507269636560b01b6064820152608490fd5b015190508980611c82565b90601f198316918460005260206000209260005b818110611e2e575093611cd797969360099693600193836101209810611e15575b505050811b019055611c97565b015160001960f88460031b161c19169055898080611e08565b92936020600181928786015181550195019301611de7565b634e487b7160e01b600052604160045260246000fd5b015190508680611c1a565b6000858152602081209350601f198516905b818110611eb55750908460019594939210611e9c575b505050811b019055611c2f565b015160001960f88460031b161c19169055868080611e8f565b92936020600181928786015181550195019301611e79565b015190508680611bc6565b6000858152602081209350601f198516905b818110611f265750908460019594939210611f0d575b505050811b019055611bdb565b015160001960f88460031b161c19169055868080611f00565b92936020600181928786015181550195019301611eea565b015190508680611b72565b6000858152602081209350601f198516905b818110611f975750908460019594939210611f7e575b505050811b019055611b87565b015160001960f88460031b161c19169055868080611f71565b92936020600181928786015181550195019301611f5b565b90508501358f611a87565b8160005260206000209060005b601f198616811061201e5750611abe93611ad69a999896938693611ab293611aca9a98601f19811610612004575b5050600184811b019055611a9b565b860135600019600387901b60f8161c191690558e80611ff5565b9091602060018192858a013581550193019101611fc7565b90508201358b611a1e565b60008381526020812092505b601f198c16811061208e57508a601f19811610612074575b5050600189811b019055611a32565b83013560001960038c901b60f8161c191690558a80612065565b9091602060018192858801358155019301910161204d565b60405163e0e54ced60e01b8152600490fd5b6040516315ae672760e01b8152600490fd5b5084156119ae565b5082156119a7565b5080156119a0565b34610197576020366003190112610197576004356120fe6136de565b612106613629565b80600052600a6020526040600020336000526020523360018060a01b036040600020541603610f965780600052600a6020526040600020336000526020526000600260408220828155826001820155015533907f8e25282255ab31897df2b0456bb993ac7f84d376861aefd84901d2d63a7428a2600080a36001600655005b346101975760031960a0368201126101975761219f612a20565b6121a7612a36565b906001600160401b0390604435828111610197576121c9903690600401612b9d565b606435838111610197576121e1903690600401612b9d565b92608435908111610197576121fa903690600401612c0d565b6001600160a01b039283169590338714801561251a575b61221a90612e99565b612227835186511461331d565b8386169384151561223781612efc565b8815159081612512575b506123ac575b5060005b83518110156122da57806122626122d59286612e85565b5161226d8289612e85565b5190806000526020906000825260406000208c60005282528260406000205461229882821015612f56565b82600052600084528d6040600020906000528452036040600020556000526000815260406000209088600052526106df6040600020918254612fb5565b61224b565b5090949392919382876040517f4a39dc06d4c0dbc64b70af90fd698a233a518aa5d07e595d983b8c0526c8f7fb3391806123158a8c8361337a565b0390a43b61231f57005b600060209461236161081c9761080c94604051998a988997889663bc197c8160e01b9e8f89523360048a0152602489015260a0604489015260a4880190612c55565b03925af16000918161238c575b5061237b57610848613408565b6001600160e01b031916036108e457005b6123a591925060203d8111610926576109178183612b17565b908361236e565b96949390959160005b845181101561250457806123cc6124049287612e85565b51600052878a600a60209080825260406000208460005282528360406000209384541614806124f7575b612409575b50505050612e76565b6123b5565b612413858c612e85565b51928b868c600296878501938454809210156000146124975750509091506000965061243f9250612e85565b518452815260408320908b845252604082208281558260018201550155876124678288612e85565b517f8e25282255ab31897df2b0456bb993ac7f84d376861aefd84901d2d63a7428a2600080a35b878b80806123fb565b7f36e94395fafcb0d2a9bcfcdd5cef807ab52a1f4382906992ebdc18de5f1472c49795985060409650916124dc84926124d56001966124e496612e85565b519061366d565b809555612e85565b51950154918351928352820152a361248e565b50600283015415156123f6565b509195909394965087612247565b905089612241565b5086600052600160205260406000203360005260205261221a60ff604060002054169050612211565b3461019757604061255c61255636612a94565b9061356c565b82516001600160a01b0390921682526020820152f35b34610197576020806003193601126101975760043560008181526009835260409020546001600160a01b03929190831615612942576125b090613a45565b8051908281015160408201519160608101519560808201511695604051966125d788612ae1565b602a885286880190604036833788511561292c5760308253885160019081101561292c57607860218b01536029905b8082116128ce57505061288b57869760c084015161262390613902565b9260e085015161263290613902565b94610100015161264190613902565b96896040519a8b9a683d913730b6b2911d1160b91b828d01528b815192602984920192019161266f92612a4c565b8a0161088b60f21b988960298301526e113232b9b1b934b83a34b7b7111d1160891b602b83015280518093603a84019201916126aa92612a4c565b0187603a820152681134b6b0b3b2911d1160b91b603c820152815191828d604584019201916126d892612a4c565b01866045820152701130b734b6b0ba34b7b72fbab936111d1160791b6047820152815191828c6058840192019161270e92612a4c565b01908560588301526d2270726f70657274696573223a7b60901b605a8301526a1131b932b0ba37b9111d1160a91b60688301525191826073830161275192612a4c565b018360738201526c1136b0bc29bab838363c911d1160991b607582015281519182896082840192019161278392612a4c565b01826082820152701131bab93932b73a29bab838363c911d1160791b60848201528151918288609584019201916127b992612a4c565b019060958201526d113937bcb0b63a3ca12829911d1160911b6097820152815191828660a584019201916127ec92612a4c565b01601160f91b60a582015260a68101617d7d60f01b90520360888101825260a8016128179082612b17565b612820906137bc565b9060405180928282017f646174613a6170706c69636174696f6e2f6a736f6e3b6261736536342c00000090528051908184603d850192019161286192612a4c565b810103601d81018352603d016128779083612b17565b604051918183928352820161174591612a6f565b6064876040519062461bcd60e51b825280600483015260248201527f537472696e67733a20686578206c656e67746820696e73756666696369656e746044820152fd5b9091600f8116601081101561292c578b5184101561292c576f181899199a1a9b1b9c1cb0b131b232b360811b901a8b84018b015360041c918015612916576000190190612606565b634e487b7160e01b600052601160045260246000fd5b634e487b7160e01b600052603260045260246000fd5b60405163f070cb6f60e01b8152600490fd5b346101975760203660031901126101975760043563ffffffff60e01b81168091036101975760209063152a902d60e11b811490819081156129ab575b5081156129a3575b506040519015158152f35b905082612998565b909150636cdb3d1360e11b81149081156129e0575b81156129cf575b509083612990565b6301ffc9a760e01b149050836129c7565b6303a24d0760e21b811491506129c0565b34610197576040366003190112610197576020612a18612a0f612a20565b60243590612df1565b604051908152f35b600435906001600160a01b038216820361019757565b602435906001600160a01b038216820361019757565b60005b838110612a5f5750506000910152565b8181015183820152602001612a4f565b90602091612a8881518092818552858086019101612a4c565b601f01601f1916010190565b6040906003190112610197576004359060243590565b61014081019081106001600160401b03821117611e4657604052565b604081019081106001600160401b03821117611e4657604052565b606081019081106001600160401b03821117611e4657604052565b602081019081106001600160401b03821117611e4657604052565b90601f801991011681019081106001600160401b03821117611e4657604052565b6001600160401b038111611e465760051b60200190565b9291612b5a82612b38565b91612b686040519384612b17565b829481845260208094019160051b810192831161019757905b828210612b8e5750505050565b81358152908301908301612b81565b9080601f8301121561019757816020612bb893359101612b4f565b90565b6001600160401b038111611e4657601f01601f191660200190565b929192612be282612bbb565b91612bf06040519384612b17565b829481845281830111610197578281602093846000960137010152565b9080601f8301121561019757816020612bb893359101612bd6565b9181601f84011215610197578235916001600160401b038311610197576020838186019501011161019757565b90815180825260208080930193019160005b828110612c75575050505090565b835185529381019392810192600101612c67565b90600182811c92168015612cb9575b6020831014612ca357565b634e487b7160e01b600052602260045260246000fd5b91607f1691612c98565b9060405191826000825492612cd784612c89565b908184526001948581169081600014612d465750600114612d03575b5050612d0192500383612b17565b565b9093915060005260209081600020936000915b818310612d2e575050612d0193508201013880612cf3565b85548884018501529485019487945091830191612d16565b915050612d0194506020925060ff191682840152151560051b8201013880612cf3565b9181601f84011215610197578235916001600160401b038311610197576020808501948460051b01011161019757565b6005546001600160a01b03163303612dad57565b606460405162461bcd60e51b815260206004820152602060248201527f4f776e61626c653a2063616c6c6572206973206e6f7420746865206f776e65726044820152fd5b6001600160a01b0316908115612e1e57600052600060205260406000209060005260205260406000205490565b60405162461bcd60e51b815260206004820152602a60248201527f455243313135353a2061646472657373207a65726f206973206e6f742061207660448201526930b634b21037bbb732b960b11b6064820152608490fd5b60001981146129165760010190565b805182101561292c5760209160051b010190565b15612ea057565b60405162461bcd60e51b815260206004820152602e60248201527f455243313135353a2063616c6c6572206973206e6f7420746f6b656e206f776e60448201526d195c881bdc88185c1c1c9bdd995960921b6064820152608490fd5b15612f0357565b60405162461bcd60e51b815260206004820152602560248201527f455243313135353a207472616e7366657220746f20746865207a65726f206164604482015264647265737360d81b6064820152608490fd5b15612f5d57565b60405162461bcd60e51b815260206004820152602a60248201527f455243313135353a20696e73756666696369656e742062616c616e636520666f60448201526939103a3930b739b332b960b11b6064820152608490fd5b9190820180921161291657565b9192909360018060a01b038086169081151594612fde86612efc565b612fe7876134e9565b9180612ff2876134e9565b9216968715159081613315575b506131b6575b5050506000928584526020958487526040978886208787528852828987205461303082821015612f56565b838852878a528a88208989528a520389872055818652858852888620848752885288862061305f848254612fb5565b905583878a51848152858b8201527fc3d58168c5ae7397731d063d5bbf3d657854427343f4c083240f7aacaa2d0f628c3392a43b6130a2575b5050505050505050565b918493916130ea9588999a98948b519788958694859363f23a6e6160e01b9c8d865233600487015260248601526044850152606484015260a0608484015260a4830190612a6f565b03925af1909181613197575b5061315d57505050613106613408565b6308c379a014613129575b505162461bcd60e51b81528061086c60048201613494565b613131613426565b908161313d5750613111565b61086c835192839262461bcd60e51b845260048401526024830190612a6f565b919392506001600160e01b03199091160361318057503880808080808080613098565b5162461bcd60e51b81528061086c600482016133bf565b6131af919250853d8711610926576109178183612b17565b90386130f6565b9490959691989360009893985b8a5181101561330357808989828e6131de61321a9682612e85565b516000528b600a6020908082526040928360002088600052835287846000209182541614806132f6575b61321f575b5050505050505050612e76565b6131c3565b6132298688612e85565b51600282810180549199909282116132a557505050509161327195916000936132528787612e85565b5185528152818420908885525282208281558260018201550155612e85565b517f8e25282255ab31897df2b0456bb993ac7f84d376861aefd84901d2d63a7428a2600080a35b8989828e3880808061320d565b6132e3939950600194508892959697916124d57f36e94395fafcb0d2a9bcfcdd5cef807ab52a1f4382906992ebdc18de5f1472c49a6124dc93612e85565b51950154918351928352820152a3613298565b5060028101541515613208565b50939850935094935094388080613005565b905038612fff565b1561332457565b60405162461bcd60e51b815260206004820152602860248201527f455243313135353a2069647320616e6420616d6f756e7473206c656e677468206044820152670dad2e6dac2e8c6d60c31b6064820152608490fd5b9091613391612bb893604084526040840190612c55565b916020818403910152612c55565b9081602091031261019757516001600160e01b0319811681036101975790565b60809060208152602860208201527f455243313135353a204552433131353552656365697665722072656a656374656040820152676420746f6b656e7360c01b60608201520190565b60009060033d1161341557565b905060046000803e60005160e01c90565b600060443d10612bb857604051600319913d83016004833e81516001600160401b03918282113d6024840111176134835781840194855193841161348b573d850101602084870101116134835750612bb892910160200190612b17565b949350505050565b50949350505050565b60809060208152603460208201527f455243313135353a207472616e7366657220746f206e6f6e2d455243313135356040820152732932b1b2b4bb32b91034b6b83632b6b2b73a32b960611b60608201520190565b604051906134f682612ac6565b6001825260208201602036823782511561292c575290565b6040519061351b82612ac6565b6003546001600160a01b038116835260a01c6020830152565b9060405161354181612ac6565b91546001600160a01b038116835260a01c6020830152565b8181029291811591840414171561291657565b91909160005260046020526135846040600020613534565b805190926001600160a01b03918216156135bc575b6135b4612710916001600160601b0360208701511690613559565b049251169190565b92506127106135b46135cc61350e565b94915050613599565b90601f81116135e357505050565b600091825260208220906020601f850160051c8301941061361f575b601f0160051c01915b82811061361457505050565b818155600101613608565b90925082906135ff565b60ff6007541661363557565b60405162461bcd60e51b815260206004820152601060248201526f14185d5cd8589b194e881c185d5cd95960821b6044820152606490fd5b9190820391821161291657565b919081101561292c5760051b0190565b3d156136b5573d9061369b82612bbb565b916136a96040519384612b17565b82523d6000602084013e565b606090565b81835290916001600160fb1b0383116101975760209260051b809284830137010190565b6002600654146136ef576002600655565b60405162461bcd60e51b815260206004820152601f60248201527f5265656e7472616e637947756172643a207265656e7472616e742063616c6c006044820152606490fd5b1561373b57565b60405162461bcd60e51b815260206004820152602160248201527f455243313135353a206d696e7420746f20746865207a65726f206164647265736044820152607360f81b6064820152608490fd5b9061379482612bbb565b6137a16040519182612b17565b82815280926137b2601f1991612bbb565b0190602036910137565b8051156138ee576040516137cf81612ae1565b604081527f4142434445464748494a4b4c4d4e4f505152535455565758595a61626364656660208201527f6768696a6b6c6d6e6f707172737475767778797a303132333435363738392b2f60408201528151600292838201809211612916576003918290046001600160fe1b038116810361291657613851908594951b61378a565b936020850193829183518401925b83811061389d575050505051068060011461388a5760021461387f575090565b603d90600019015390565b50603d9081600019820153600119015390565b85600491979293949701918251600190603f9082828260121c16880101518453828282600c1c16880101518385015382828260061c168801015188850153168501015187820153019592919061385f565b506040516138fb81612afc565b6000815290565b806000917a184f03e93ff9f4daa797ed6e38ed64bf6a1f01000000000000000080821015613a37575b506d04ee2d6d415b85acef810000000080831015613a28575b50662386f26fc1000080831015613a19575b506305f5e10080831015613a0a575b50612710808310156139fb575b5060648210156139eb575b600a809210156139e1575b60019081602161399982870161378a565b95860101905b6139ab575b5050505090565b600019019083906f181899199a1a9b1b9c1cb0b131b232b360811b8282061a8353049182156139dc5791908261399f565b6139a4565b9160010191613988565b919060646002910491019161397d565b60049193920491019138613972565b60089193920491019138613965565b60109193920491019138613956565b60209193920491019138613944565b60409350810491503861392b565b604090815190613a5482612aaa565b6060908183526020938285850152828185015282808501526000948560808601528560a08601528560c08601528560e086015261010091868387015286610120809701528387526009825260018060a01b039485828920541615613bb457848852600983528188209060048452613acc838a20613534565b848882511615613b9b575b6001600160601b03910151169561271087810204809703613b87578952600b845282808a2099600c8652209682541690600583015492600681015494600782015496600983015460ff169a8251809e613b2f82612aaa565b613b3890612cc3565b9052613b4390612cc3565b908d0152613b5360048301612cc3565b908c0152600301613b6390612cc3565b908a0152608089015260a088015260c087015260e086015284015215159082015290565b634e487b7160e01b8a52601160045260248afd5b6001600160601b039150613bad61350e565b9150613ad7565b815163f070cb6f60e01b8152600490fdfea2646970667358221220c2388bb0bc0a1fa249741180ffe63737faf469a8a90c9492b29391fea621745c64736f6c63430008140033","opcodes":"PUSH1 0x80 CALLVALUE PUSH3 0x153 JUMPI PUSH1 0x20 DUP2 ADD PUSH1 0x1 PUSH1 0x1 PUSH1 0x40 SHL SUB DUP2 GT DUP3 DUP3 LT OR PUSH3 0x13D JUMPI PUSH1 0x40 MSTORE PUSH1 0x0 DUP1 SWAP2 MSTORE PUSH1 0x2 SLOAD PUSH1 0x1 SWAP1 DUP2 DUP2 DUP2 SHR SWAP2 AND DUP1 ISZERO PUSH3 0x132 JUMPI JUMPDEST PUSH1 0x20 DUP3 LT EQ PUSH3 0x11E JUMPI PUSH1 0x1F DUP2 GT PUSH3 0xD0 JUMPI JUMPDEST POP PUSH1 0x2 DUP3 SWAP1 SSTORE PUSH1 0x5 DUP1 SLOAD CALLER PUSH1 0x1 PUSH1 0x1 PUSH1 0xA0 SHL SUB NOT DUP3 AND DUP2 OR SWAP1 SWAP3 SSTORE PUSH1 0x40 MLOAD SWAP4 PUSH1 0x1 PUSH1 0x1 PUSH1 0xA0 SHL SUB SWAP1 SWAP2 AND SWAP1 PUSH32 0x8BE0079C531659141344CD1FD0A4F28419497F9722A3DAAFE3B4186F6B6457E0 SWAP1 DUP1 LOG3 PUSH1 0x6 SSTORE PUSH1 0xFF NOT PUSH1 0x7 SLOAD AND PUSH1 0x7 SSTORE CALLER ISZERO PUSH3 0xC1 JUMPI PUSH1 0x40 MLOAD PUSH2 0x3BFB SWAP1 DUP2 PUSH3 0x159 DUP3 CODECOPY RETURN JUMPDEST PUSH4 0xE6C4247B PUSH1 0xE0 SHL DUP2 MSTORE PUSH1 0x4 SWAP1 REVERT JUMPDEST PUSH1 0x2 DUP4 MSTORE PUSH1 0x1F ADD PUSH1 0x5 SHR PUSH32 0x405787FA12A823E0F2B7631CC41B3BA8828B3321CA811111FA75CD3AA3BB5ACE SWAP1 DUP2 ADD SWAP1 DUP3 SWAP1 JUMPDEST DUP3 DUP2 LT PUSH3 0x112 JUMPI POP POP PUSH3 0x4E JUMP JUMPDEST DUP5 DUP2 SSTORE ADD DUP3 SWAP1 PUSH3 0x102 JUMP JUMPDEST PUSH4 0x4E487B71 PUSH1 0xE0 SHL DUP4 MSTORE PUSH1 0x22 PUSH1 0x4 MSTORE PUSH1 0x24 DUP4 REVERT JUMPDEST SWAP1 PUSH1 0x7F AND SWAP1 PUSH3 0x3A JUMP JUMPDEST PUSH4 0x4E487B71 PUSH1 0xE0 SHL PUSH1 0x0 MSTORE PUSH1 0x41 PUSH1 0x4 MSTORE PUSH1 0x24 PUSH1 0x0 REVERT JUMPDEST PUSH1 0x0 DUP1 REVERT INVALID PUSH1 0x80 PUSH1 0x40 MSTORE PUSH1 0x4 CALLDATASIZE LT ISZERO PUSH2 0x12 JUMPI PUSH1 0x0 DUP1 REVERT JUMPDEST PUSH1 0x0 CALLDATALOAD PUSH1 0xE0 SHR DUP1 PUSH3 0xFDD58E EQ PUSH2 0x29F1 JUMPI DUP1 PUSH4 0x1FFC9A7 EQ PUSH2 0x2954 JUMPI DUP1 PUSH4 0xE89341C EQ PUSH2 0x2572 JUMPI DUP1 PUSH4 0x2A55205A EQ PUSH2 0x2543 JUMPI DUP1 PUSH4 0x2EB2C2D6 EQ PUSH2 0x2185 JUMPI DUP1 PUSH4 0x305A67A8 EQ PUSH2 0x20E2 JUMPI DUP1 PUSH4 0x368D9B48 EQ PUSH2 0x18F8 JUMPI DUP1 PUSH4 0x3DCA40E6 EQ PUSH2 0x18DB JUMPI DUP1 PUSH4 0x3F4BA83A EQ PUSH2 0x1847 JUMPI DUP1 PUSH4 0x4AC0123D EQ PUSH2 0x17BF JUMPI DUP1 PUSH4 0x4E1273F4 EQ PUSH2 0x161D JUMPI DUP1 PUSH4 0x5C975ABB EQ PUSH2 0x15FA JUMPI DUP1 PUSH4 0x5D269138 EQ PUSH2 0x1508 JUMPI DUP1 PUSH4 0x6BE9A6F1 EQ PUSH2 0x1432 JUMPI DUP1 PUSH4 0x715018A6 EQ PUSH2 0x13D5 JUMPI DUP1 PUSH4 0x8456CB59 EQ PUSH2 0x137B JUMPI DUP1 PUSH4 0x8DA5CB5B EQ PUSH2 0x1352 JUMPI DUP1 PUSH4 0x927FBFC8 EQ PUSH2 0x12F0 JUMPI DUP1 PUSH4 0x935B74C8 EQ PUSH2 0x1255 JUMPI DUP1 PUSH4 0x9B8262FD EQ PUSH2 0x11B0 JUMPI DUP1 PUSH4 0xA22CB465 EQ PUSH2 0x10C3 JUMPI DUP1 PUSH4 0xB0136C8D EQ PUSH2 0xFBA JUMPI DUP1 PUSH4 0xB6308E02 EQ PUSH2 0xDD7 JUMPI DUP1 PUSH4 0xC48283FF EQ PUSH2 0xB2E JUMPI DUP1 PUSH4 0xCFDBF254 EQ PUSH2 0xB12 JUMPI DUP1 PUSH4 0xE1F1C4A7 EQ PUSH2 0xAF5 JUMPI DUP1 PUSH4 0xE985E9C5 EQ PUSH2 0xA9F JUMPI DUP1 PUSH4 0xECF7BA22 EQ PUSH2 0x5D7 JUMPI DUP1 PUSH4 0xF242432A EQ PUSH2 0x53E JUMPI DUP1 PUSH4 0xF2FDE38B EQ PUSH2 0x47A JUMPI DUP1 PUSH4 0xF59E506F EQ PUSH2 0x19C JUMPI PUSH4 0xF8349617 EQ PUSH2 0x17B JUMPI PUSH1 0x0 DUP1 REVERT JUMPDEST CALLVALUE PUSH2 0x197 JUMPI PUSH1 0x0 CALLDATASIZE PUSH1 0x3 NOT ADD SLT PUSH2 0x197 JUMPI PUSH1 0x20 PUSH1 0x40 MLOAD PUSH1 0x0 DUP2 MSTORE RETURN JUMPDEST PUSH1 0x0 DUP1 REVERT JUMPDEST CALLVALUE PUSH2 0x197 JUMPI PUSH1 0x0 CALLDATASIZE PUSH1 0x3 NOT ADD SLT PUSH2 0x197 JUMPI PUSH1 0x8 DUP1 SLOAD PUSH1 0x0 SWAP2 PUSH1 0x1 JUMPDEST DUP3 DUP2 GT ISZERO PUSH2 0x43A JUMPI POP PUSH2 0x1C9 DUP4 PUSH2 0x2B38 JUMP JUMPDEST SWAP3 PUSH2 0x1D7 PUSH1 0x40 MLOAD SWAP5 DUP6 PUSH2 0x2B17 JUMP JUMPDEST DUP1 DUP5 MSTORE PUSH2 0x1E6 PUSH1 0x1F NOT SWAP2 PUSH2 0x2B38 JUMP JUMPDEST ADD PUSH1 0x0 JUMPDEST DUP2 DUP2 LT PUSH2 0x3DE JUMPI POP POP PUSH1 0x0 PUSH1 0x1 JUMPDEST DUP4 DUP2 GT ISZERO PUSH2 0x2F1 JUMPI PUSH1 0x40 DUP1 MLOAD PUSH1 0x20 DUP1 DUP3 MSTORE DUP8 MLOAD DUP2 DUP4 ADD DUP2 SWAP1 MSTORE PUSH1 0x0 SWAP4 PUSH1 0x5 DUP3 SWAP1 SHL DUP5 ADD DUP2 ADD SWAP3 DUP1 DUP12 ADD SWAP3 SWAP2 DUP6 ADD JUMPDEST DUP3 DUP8 LT PUSH2 0x233 JUMPI DUP6 DUP6 SUB DUP7 RETURN JUMPDEST SWAP1 SWAP2 SWAP3 SWAP4 DUP3 DUP1 PUSH1 0x1 SWAP3 PUSH1 0x3F NOT DUP10 DUP3 SUB ADD DUP6 MSTORE DUP8 MLOAD SWAP1 DUP5 DUP1 PUSH1 0xA0 SHL SUB DUP3 MLOAD AND DUP2 MSTORE PUSH2 0x2AB PUSH2 0x298 PUSH2 0x285 PUSH2 0x273 DUP7 DUP7 ADD MLOAD PUSH2 0x140 DUP1 DUP10 DUP9 ADD MSTORE DUP7 ADD SWAP1 PUSH2 0x2A6F JUMP JUMPDEST PUSH1 0x40 DUP7 ADD MLOAD DUP6 DUP3 SUB PUSH1 0x40 DUP8 ADD MSTORE PUSH2 0x2A6F JUMP JUMPDEST PUSH1 0x60 DUP1 DUP7 ADD MLOAD SWAP1 DUP6 DUP4 SUB SWAP1 DUP7 ADD MSTORE PUSH2 0x2A6F JUMP JUMPDEST PUSH1 0x80 DUP1 DUP6 ADD MLOAD SWAP1 DUP5 DUP4 SUB SWAP1 DUP6 ADD MSTORE PUSH2 0x2A6F JUMP JUMPDEST SWAP2 PUSH1 0xA0 DUP1 DUP3 ADD MLOAD SWAP1 DUP4 ADD MSTORE PUSH1 0xC0 DUP1 DUP3 ADD MLOAD SWAP1 DUP4 ADD MSTORE PUSH1 0xE0 DUP2 ADD MLOAD PUSH1 0xE0 DUP4 ADD MSTORE PUSH2 0x100 DUP1 DUP3 ADD MLOAD SWAP1 DUP4 ADD MSTORE PUSH2 0x120 DUP1 SWAP2 ADD MLOAD ISZERO ISZERO SWAP2 ADD MSTORE SWAP7 ADD SWAP3 ADD SWAP7 ADD SWAP6 SWAP3 SWAP2 SWAP1 SWAP3 PUSH2 0x226 JUMP JUMPDEST PUSH1 0x0 DUP2 DUP2 MSTORE PUSH1 0x9 PUSH1 0x20 DUP2 DUP2 MSTORE PUSH1 0x40 SWAP1 SWAP3 KECCAK256 DUP1 SLOAD PUSH1 0x1 PUSH1 0x1 PUSH1 0xA0 SHL SUB AND SWAP3 DUP4 PUSH2 0x326 JUMPI JUMPDEST POP POP POP POP PUSH2 0x321 SWAP1 PUSH2 0x2E76 JUMP JUMPDEST PUSH2 0x1F8 JUMP JUMPDEST PUSH2 0x321 SWAP5 SWAP6 SWAP3 PUSH2 0x3D4 SWAP5 SWAP3 PUSH1 0xFF SWAP3 PUSH1 0x40 MLOAD SWAP5 PUSH2 0x341 DUP7 PUSH2 0x2AAA JUMP JUMPDEST DUP6 MSTORE PUSH2 0x34F PUSH1 0x1 DUP4 ADD PUSH2 0x2CC3 JUMP JUMPDEST SWAP1 DUP6 ADD MSTORE PUSH2 0x35F PUSH1 0x2 DUP3 ADD PUSH2 0x2CC3 JUMP JUMPDEST PUSH1 0x40 DUP6 ADD MSTORE PUSH2 0x370 PUSH1 0x3 DUP3 ADD PUSH2 0x2CC3 JUMP JUMPDEST PUSH1 0x60 DUP6 ADD MSTORE PUSH2 0x381 PUSH1 0x4 DUP3 ADD PUSH2 0x2CC3 JUMP JUMPDEST PUSH1 0x80 DUP6 ADD MSTORE PUSH1 0x5 DUP2 ADD SLOAD PUSH1 0xA0 DUP6 ADD MSTORE PUSH1 0x6 DUP2 ADD SLOAD PUSH1 0xC0 DUP6 ADD MSTORE PUSH1 0x7 DUP2 ADD SLOAD PUSH1 0xE0 DUP6 ADD MSTORE DUP9 DUP2 ADD SLOAD PUSH2 0x100 DUP6 ADD MSTORE ADD SLOAD AND ISZERO ISZERO PUSH2 0x120 DUP3 ADD MSTORE PUSH2 0x3C3 DUP3 DUP10 PUSH2 0x2E85 JUMP JUMPDEST MSTORE PUSH2 0x3CE DUP2 DUP9 PUSH2 0x2E85 JUMP JUMPDEST POP PUSH2 0x2E76 JUMP JUMPDEST SWAP2 SWAP1 DUP7 DUP1 DUP1 PUSH2 0x314 JUMP JUMPDEST PUSH1 0x20 SWAP1 PUSH1 0x40 MLOAD PUSH2 0x3ED DUP2 PUSH2 0x2AAA JUMP JUMPDEST PUSH1 0x0 DUP2 MSTORE PUSH1 0x60 DUP4 SWAP1 DUP1 DUP3 DUP5 ADD MSTORE DUP1 PUSH1 0x40 DUP5 ADD MSTORE DUP1 DUP1 DUP5 ADD MSTORE PUSH1 0x80 DUP4 ADD MSTORE PUSH1 0x0 PUSH1 0xA0 DUP4 ADD MSTORE PUSH1 0x0 PUSH1 0xC0 DUP4 ADD MSTORE PUSH1 0x0 PUSH1 0xE0 DUP4 ADD MSTORE PUSH1 0x0 PUSH2 0x100 DUP4 ADD MSTORE PUSH1 0x0 PUSH2 0x120 DUP4 ADD MSTORE DUP3 DUP9 ADD ADD MSTORE ADD PUSH2 0x1EA JUMP JUMPDEST PUSH1 0x0 DUP2 DUP2 MSTORE PUSH1 0x9 PUSH1 0x20 MSTORE PUSH1 0x40 SWAP1 KECCAK256 SLOAD PUSH1 0x1 PUSH1 0x1 PUSH1 0xA0 SHL SUB AND PUSH2 0x465 JUMPI JUMPDEST PUSH2 0x460 SWAP1 PUSH2 0x2E76 JUMP JUMPDEST PUSH2 0x1B7 JUMP JUMPDEST SWAP3 PUSH2 0x472 PUSH2 0x460 SWAP2 PUSH2 0x2E76 JUMP JUMPDEST SWAP4 SWAP1 POP PUSH2 0x457 JUMP JUMPDEST CALLVALUE PUSH2 0x197 JUMPI PUSH1 0x20 CALLDATASIZE PUSH1 0x3 NOT ADD SLT PUSH2 0x197 JUMPI PUSH2 0x493 PUSH2 0x2A20 JUMP JUMPDEST PUSH2 0x49B PUSH2 0x2D99 JUMP JUMPDEST PUSH1 0x1 PUSH1 0x1 PUSH1 0xA0 SHL SUB SWAP1 DUP2 AND SWAP1 DUP2 ISZERO PUSH2 0x4EA JUMPI PUSH1 0x5 SLOAD DUP3 PUSH1 0x1 PUSH1 0x1 PUSH1 0x60 SHL SUB PUSH1 0xA0 SHL DUP3 AND OR PUSH1 0x5 SSTORE AND PUSH32 0x8BE0079C531659141344CD1FD0A4F28419497F9722A3DAAFE3B4186F6B6457E0 PUSH1 0x0 DUP1 LOG3 STOP JUMPDEST PUSH1 0x40 MLOAD PUSH3 0x461BCD PUSH1 0xE5 SHL DUP2 MSTORE PUSH1 0x20 PUSH1 0x4 DUP3 ADD MSTORE PUSH1 0x26 PUSH1 0x24 DUP3 ADD MSTORE PUSH32 0x4F776E61626C653A206E6577206F776E657220697320746865207A65726F2061 PUSH1 0x44 DUP3 ADD MSTORE PUSH6 0x646472657373 PUSH1 0xD0 SHL PUSH1 0x64 DUP3 ADD MSTORE PUSH1 0x84 SWAP1 REVERT JUMPDEST CALLVALUE PUSH2 0x197 JUMPI PUSH1 0xA0 CALLDATASIZE PUSH1 0x3 NOT ADD SLT PUSH2 0x197 JUMPI PUSH2 0x557 PUSH2 0x2A20 JUMP JUMPDEST PUSH2 0x55F PUSH2 0x2A36 JUMP JUMPDEST SWAP1 PUSH1 0x84 CALLDATALOAD SWAP2 PUSH1 0x1 PUSH1 0x1 PUSH1 0x40 SHL SUB DUP4 GT PUSH2 0x197 JUMPI PUSH2 0x583 PUSH2 0x5AF SWAP4 CALLDATASIZE SWAP1 PUSH1 0x4 ADD PUSH2 0x2C0D JUMP JUMPDEST SWAP2 PUSH1 0x1 PUSH1 0x1 PUSH1 0xA0 SHL SUB DUP2 AND CALLER DUP2 EQ DUP1 ISZERO PUSH2 0x5B1 JUMPI JUMPDEST PUSH2 0x5A2 SWAP2 POP PUSH2 0x2E99 JUMP JUMPDEST PUSH1 0x64 CALLDATALOAD SWAP2 PUSH1 0x44 CALLDATALOAD SWAP2 PUSH2 0x2FC2 JUMP JUMPDEST STOP JUMPDEST POP PUSH1 0x0 MSTORE PUSH1 0x1 PUSH1 0x20 MSTORE PUSH1 0x40 PUSH1 0x0 KECCAK256 CALLER PUSH1 0x0 MSTORE PUSH1 0x20 MSTORE PUSH2 0x5A2 PUSH1 0xFF PUSH1 0x40 PUSH1 0x0 KECCAK256 SLOAD AND PUSH2 0x598 JUMP JUMPDEST PUSH1 0x3 NOT PUSH1 0x40 CALLDATASIZE DUP3 ADD SLT PUSH2 0x197 JUMPI PUSH1 0x1 PUSH1 0x1 PUSH1 0x40 SHL SUB SWAP1 PUSH1 0x4 CALLDATALOAD DUP3 DUP2 GT PUSH2 0x197 JUMPI PUSH2 0x605 SWAP1 CALLDATASIZE SWAP1 PUSH1 0x4 ADD PUSH2 0x2D69 JUMP JUMPDEST SWAP1 SWAP3 PUSH1 0x24 CALLDATALOAD SWAP1 DUP2 GT PUSH2 0x197 JUMPI PUSH2 0x61F SWAP1 CALLDATASIZE SWAP1 PUSH1 0x4 ADD PUSH2 0x2D69 JUMP JUMPDEST SWAP2 SWAP1 PUSH2 0x629 PUSH2 0x36DE JUMP JUMPDEST PUSH2 0x631 PUSH2 0x3629 JUMP JUMPDEST DUP3 DUP3 SUB PUSH2 0xA8D JUMPI PUSH1 0x14 DUP3 GT PUSH2 0xA7B JUMPI PUSH1 0x0 SWAP1 PUSH1 0x0 JUMPDEST DUP4 DUP2 LT PUSH2 0x93F JUMPI POP DUP2 CALLVALUE LT PUSH2 0x92D JUMPI PUSH2 0x660 CALLDATASIZE DUP5 DUP9 PUSH2 0x2B4F JUMP JUMPDEST SWAP6 PUSH2 0x66C CALLDATASIZE DUP7 DUP5 PUSH2 0x2B4F JUMP JUMPDEST SWAP5 PUSH1 0x40 MLOAD PUSH2 0x679 DUP2 PUSH2 0x2AFC JUMP JUMPDEST PUSH1 0x0 DUP2 MSTORE PUSH2 0x688 CALLER ISZERO ISZERO PUSH2 0x3734 JUMP JUMPDEST PUSH2 0x695 DUP10 MLOAD DUP9 MLOAD EQ PUSH2 0x331D JUMP JUMPDEST PUSH1 0x0 JUMPDEST DUP10 MLOAD DUP2 LT ISZERO PUSH2 0x6EB JUMPI DUP1 PUSH2 0x6AF PUSH2 0x6E6 SWAP3 DUP11 PUSH2 0x2E85 JUMP JUMPDEST MLOAD PUSH2 0x6BA DUP3 DUP14 PUSH2 0x2E85 JUMP JUMPDEST MLOAD PUSH1 0x0 MSTORE PUSH1 0x20 PUSH1 0x0 DUP2 MSTORE PUSH1 0x40 PUSH1 0x0 KECCAK256 SWAP1 CALLER PUSH1 0x0 MSTORE MSTORE PUSH2 0x6DF PUSH1 0x40 PUSH1 0x0 KECCAK256 SWAP2 DUP3 SLOAD PUSH2 0x2FB5 JUMP JUMPDEST SWAP1 SSTORE PUSH2 0x2E76 JUMP JUMPDEST PUSH2 0x698 JUMP JUMPDEST POP DUP9 SWAP1 DUP8 DUP10 PUSH1 0x40 MLOAD PUSH1 0x0 CALLER SWAP2 PUSH32 0x4A39DC06D4C0DBC64B70AF90FD698A233A518AA5D07E595D983B8C0526C8F7FB CALLER SWAP2 DUP1 PUSH2 0x726 DUP9 DUP12 DUP4 PUSH2 0x337A JUMP JUMPDEST SUB SWAP1 LOG4 CALLER EXTCODESIZE PUSH2 0x7CA JUMPI JUMPDEST POP POP POP POP SWAP1 PUSH2 0x78E SWAP5 PUSH2 0x785 PUSH32 0x6583473987E443781108C9A74166CFB5D143516BBB4A3804805A2E0B34911563 SWAP4 PUSH2 0x775 PUSH1 0x40 MLOAD SWAP5 DUP6 SWAP5 PUSH1 0x40 DUP7 MSTORE PUSH1 0x40 DUP7 ADD SWAP2 PUSH2 0x36BA JUMP JUMPDEST SWAP1 DUP4 DUP3 SUB PUSH1 0x20 DUP6 ADD MSTORE CALLER SWAP7 PUSH2 0x36BA JUMP JUMPDEST SUB SWAP1 LOG2 CALLVALUE PUSH2 0x366D JUMP JUMPDEST DUP1 PUSH2 0x79B JUMPI JUMPDEST PUSH1 0x1 PUSH1 0x6 SSTORE STOP JUMPDEST PUSH1 0x0 DUP1 DUP1 DUP1 SWAP4 CALLER GAS CALL PUSH2 0x7AC PUSH2 0x368A JUMP JUMPDEST POP ISZERO PUSH2 0x7B8 JUMPI DUP1 PUSH2 0x794 JUMP JUMPDEST PUSH1 0x40 MLOAD PUSH4 0x12171D83 PUSH1 0xE3 SHL DUP2 MSTORE PUSH1 0x4 SWAP1 REVERT JUMPDEST PUSH1 0x20 SWAP2 PUSH2 0x82B PUSH2 0x81C SWAP3 PUSH1 0x40 SWAP9 SWAP8 SWAP9 MLOAD SWAP6 DUP7 SWAP5 DUP6 SWAP5 PUSH2 0x80C PUSH4 0xBC197C81 PUSH1 0xE0 SHL SWAP11 DUP12 DUP9 MSTORE CALLER PUSH1 0x4 DUP10 ADD MSTORE PUSH1 0x0 PUSH1 0x24 DUP10 ADD MSTORE PUSH1 0xA0 PUSH1 0x44 DUP10 ADD MSTORE PUSH1 0xA4 DUP9 ADD SWAP1 PUSH2 0x2C55 JUMP JUMPDEST SWAP1 DUP5 DUP8 DUP4 SUB ADD PUSH1 0x64 DUP9 ADD MSTORE PUSH2 0x2C55 JUMP JUMPDEST SWAP2 DUP5 DUP4 SUB ADD PUSH1 0x84 DUP6 ADD MSTORE PUSH2 0x2A6F JUMP JUMPDEST SUB DUP2 PUSH1 0x0 CALLER GAS CALL PUSH1 0x0 SWAP2 DUP2 PUSH2 0x8FD JUMPI JUMPDEST POP PUSH2 0x8A7 JUMPI PUSH2 0x848 PUSH2 0x3408 JUMP JUMPDEST PUSH4 0x8C379A0 EQ PUSH2 0x870 JUMPI JUMPDEST PUSH1 0x40 MLOAD PUSH3 0x461BCD PUSH1 0xE5 SHL DUP2 MSTORE DUP1 PUSH2 0x86C PUSH1 0x4 DUP3 ADD PUSH2 0x3494 JUMP JUMPDEST SUB SWAP1 REVERT JUMPDEST PUSH2 0x878 PUSH2 0x3426 JUMP JUMPDEST DUP1 PUSH2 0x883 JUMPI POP PUSH2 0x853 JUMP JUMPDEST PUSH1 0x40 MLOAD PUSH3 0x461BCD PUSH1 0xE5 SHL DUP2 MSTORE PUSH1 0x20 PUSH1 0x4 DUP3 ADD MSTORE SWAP1 DUP2 SWAP1 PUSH2 0x86C SWAP1 PUSH1 0x24 DUP4 ADD SWAP1 PUSH2 0x2A6F JUMP JUMPDEST PUSH1 0x1 PUSH1 0x1 PUSH1 0xE0 SHL SUB NOT AND SUB PUSH2 0x8E4 JUMPI SWAP1 DUP5 PUSH2 0x785 PUSH32 0x6583473987E443781108C9A74166CFB5D143516BBB4A3804805A2E0B34911563 PUSH2 0x78E PUSH2 0x730 JUMP JUMPDEST PUSH1 0x40 MLOAD PUSH3 0x461BCD PUSH1 0xE5 SHL DUP2 MSTORE DUP1 PUSH2 0x86C PUSH1 0x4 DUP3 ADD PUSH2 0x33BF JUMP JUMPDEST PUSH2 0x91F SWAP2 SWAP3 POP PUSH1 0x20 RETURNDATASIZE DUP2 GT PUSH2 0x926 JUMPI JUMPDEST PUSH2 0x917 DUP2 DUP4 PUSH2 0x2B17 JUMP JUMPDEST DUP2 ADD SWAP1 PUSH2 0x339F JUMP JUMPDEST SWAP1 DUP9 PUSH2 0x83B JUMP JUMPDEST POP RETURNDATASIZE PUSH2 0x90D JUMP JUMPDEST PUSH1 0x40 MLOAD PUSH4 0xCD1C8867 PUSH1 0xE0 SHL DUP2 MSTORE PUSH1 0x4 SWAP1 REVERT JUMPDEST PUSH2 0x94A DUP2 DUP6 DUP10 PUSH2 0x367A JUMP JUMPDEST CALLDATALOAD PUSH1 0x0 MSTORE PUSH1 0x9 DUP1 PUSH1 0x20 MSTORE PUSH1 0xFF PUSH1 0x40 PUSH1 0x0 KECCAK256 SWAP2 DUP3 ADD SLOAD AND ISZERO PUSH2 0xA69 JUMPI PUSH2 0x970 DUP3 DUP8 DUP6 PUSH2 0x367A JUMP JUMPDEST CALLDATALOAD ISZERO PUSH2 0xA57 JUMPI PUSH1 0x7 DUP2 ADD DUP1 SLOAD SWAP5 PUSH2 0x988 DUP5 DUP10 DUP8 PUSH2 0x367A JUMP JUMPDEST CALLDATALOAD DUP7 ADD PUSH1 0x6 DUP5 ADD SLOAD LT PUSH2 0xA45 JUMPI DUP10 SWAP6 PUSH2 0x9C5 DUP9 SWAP3 PUSH2 0x9BF DUP8 DUP13 PUSH2 0x9B2 DUP3 PUSH1 0x5 DUP1 SWAP12 ADD SLOAD SWAP3 DUP14 PUSH2 0x367A JUMP JUMPDEST CALLDATALOAD MUL SWAP6 DUP7 DUP1 SWAP5 ADD SWAP12 PUSH2 0x367A JUMP JUMPDEST CALLDATALOAD PUSH2 0x356C JUMP JUMPDEST SWAP4 DUP5 SWAP3 PUSH2 0x9D3 DUP9 DUP14 DUP12 PUSH2 0x367A JUMP JUMPDEST CALLDATALOAD ADD SWAP1 SSTORE DUP2 PUSH2 0xA1C JUMPI JUMPDEST POP DUP2 SUB PUSH2 0x9F0 JUMPI JUMPDEST POP POP POP PUSH1 0x1 ADD PUSH2 0x646 JUMP JUMPDEST PUSH1 0x0 DUP1 SWAP4 DUP2 SWAP4 DUP3 SWAP4 SUB SWAP1 PUSH1 0x1 DUP1 PUSH1 0xA0 SHL SUB SWAP1 SLOAD AND GAS CALL PUSH2 0xA0E PUSH2 0x368A JUMP JUMPDEST POP ISZERO PUSH2 0x7B8 JUMPI DUP8 DUP1 DUP1 PUSH2 0x9E5 JUMP JUMPDEST PUSH1 0x0 SWAP2 DUP3 SWAP2 DUP3 SWAP2 DUP3 SWAP2 PUSH1 0x1 PUSH1 0x1 PUSH1 0xA0 SHL SUB AND GAS CALL PUSH2 0xA38 PUSH2 0x368A JUMP JUMPDEST POP ISZERO PUSH2 0x7B8 JUMPI DUP2 DUP12 PUSH2 0x9DD JUMP JUMPDEST PUSH1 0x40 MLOAD PUSH4 0x8A164F63 PUSH1 0xE0 SHL DUP2 MSTORE PUSH1 0x4 SWAP1 REVERT JUMPDEST PUSH1 0x40 MLOAD PUSH4 0xB4FA3FB3 PUSH1 0xE0 SHL DUP2 MSTORE PUSH1 0x4 SWAP1 REVERT JUMPDEST PUSH1 0x40 MLOAD PUSH4 0xAD9D099B PUSH1 0xE0 SHL DUP2 MSTORE PUSH1 0x4 SWAP1 REVERT JUMPDEST PUSH1 0x40 MLOAD PUSH4 0x1E807595 PUSH1 0xE2 SHL DUP2 MSTORE PUSH1 0x4 SWAP1 REVERT JUMPDEST PUSH1 0x40 MLOAD PUSH4 0x512509D3 PUSH1 0xE1 SHL DUP2 MSTORE PUSH1 0x4 SWAP1 REVERT JUMPDEST CALLVALUE PUSH2 0x197 JUMPI PUSH1 0x40 CALLDATASIZE PUSH1 0x3 NOT ADD SLT PUSH2 0x197 JUMPI PUSH2 0xAB8 PUSH2 0x2A20 JUMP JUMPDEST PUSH2 0xAC0 PUSH2 0x2A36 JUMP JUMPDEST SWAP1 PUSH1 0x1 DUP1 PUSH1 0xA0 SHL SUB DUP1 SWAP2 AND PUSH1 0x0 MSTORE PUSH1 0x1 PUSH1 0x20 MSTORE PUSH1 0x40 PUSH1 0x0 KECCAK256 SWAP2 AND PUSH1 0x0 MSTORE PUSH1 0x20 MSTORE PUSH1 0x20 PUSH1 0xFF PUSH1 0x40 PUSH1 0x0 KECCAK256 SLOAD AND PUSH1 0x40 MLOAD SWAP1 ISZERO ISZERO DUP2 MSTORE RETURN JUMPDEST CALLVALUE PUSH2 0x197 JUMPI PUSH1 0x0 CALLDATASIZE PUSH1 0x3 NOT ADD SLT PUSH2 0x197 JUMPI PUSH1 0x20 PUSH1 0x40 MLOAD PUSH2 0x2710 DUP2 MSTORE RETURN JUMPDEST CALLVALUE PUSH2 0x197 JUMPI PUSH1 0x0 CALLDATASIZE PUSH1 0x3 NOT ADD SLT PUSH2 0x197 JUMPI PUSH1 0x20 PUSH1 0x40 MLOAD PUSH1 0x14 DUP2 MSTORE RETURN JUMPDEST PUSH2 0xB37 CALLDATASIZE PUSH2 0x2A94 JUMP JUMPDEST SWAP1 PUSH2 0xB40 PUSH2 0x36DE JUMP JUMPDEST PUSH2 0xB48 PUSH2 0x3629 JUMP JUMPDEST DUP1 PUSH1 0x0 MSTORE PUSH1 0x20 SWAP2 PUSH1 0x9 DUP4 MSTORE PUSH1 0x40 PUSH1 0x0 KECCAK256 PUSH1 0xFF PUSH1 0x9 DUP3 ADD SLOAD AND ISZERO PUSH2 0xA69 JUMPI DUP2 ISZERO PUSH2 0xA57 JUMPI PUSH1 0x7 DUP2 ADD DUP1 SLOAD SWAP2 PUSH2 0xB7C DUP5 DUP5 PUSH2 0x2FB5 JUMP JUMPDEST PUSH1 0x6 DUP3 ADD SLOAD LT PUSH2 0xA45 JUMPI DUP4 PUSH1 0x5 PUSH2 0xB94 SWAP3 ADD SLOAD PUSH2 0x3559 JUMP JUMPDEST SWAP2 DUP3 CALLVALUE LT PUSH2 0x92D JUMPI DUP4 PUSH2 0xBA6 SWAP2 PUSH2 0x2FB5 JUMP JUMPDEST SWAP1 SSTORE PUSH2 0xBB2 DUP2 DUP5 PUSH2 0x356C JUMP JUMPDEST PUSH2 0xBBC DUP2 DUP5 PUSH2 0x366D JUMP JUMPDEST SWAP2 DUP2 PUSH2 0xDAE JUMPI JUMPDEST POP POP DUP1 PUSH2 0xD83 JUMPI JUMPDEST POP DUP1 CALLVALUE GT PUSH2 0xD5D JUMPI JUMPDEST POP PUSH1 0x40 MLOAD SWAP1 PUSH2 0xBE2 DUP3 PUSH2 0x2AFC JUMP JUMPDEST PUSH1 0x0 DUP3 MSTORE PUSH2 0xBF1 CALLER ISZERO ISZERO PUSH2 0x3734 JUMP JUMPDEST PUSH2 0xBFA DUP4 PUSH2 0x34E9 JUMP JUMPDEST POP PUSH2 0xC04 DUP2 PUSH2 0x34E9 JUMP JUMPDEST POP DUP3 PUSH1 0x0 MSTORE PUSH1 0x0 DUP5 MSTORE PUSH1 0x40 PUSH1 0x0 KECCAK256 CALLER PUSH1 0x0 MSTORE DUP5 MSTORE PUSH1 0x40 PUSH1 0x0 KECCAK256 PUSH2 0xC28 DUP3 DUP3 SLOAD PUSH2 0x2FB5 JUMP JUMPDEST SWAP1 SSTORE PUSH1 0x40 MLOAD DUP4 DUP2 MSTORE DUP2 DUP6 DUP3 ADD MSTORE PUSH1 0x0 CALLER SWAP2 PUSH32 0xC3D58168C5AE7397731D063D5BBF3D657854427343F4C083240F7AACAA2D0F62 PUSH1 0x40 CALLER SWAP3 LOG4 CALLER EXTCODESIZE PUSH2 0xC6C JUMPI PUSH1 0x1 PUSH1 0x6 SSTORE STOP JUMPDEST PUSH2 0xCAE SWAP2 DUP5 SWAP2 PUSH1 0x40 MLOAD SWAP4 DUP5 SWAP3 DUP4 SWAP3 PUSH4 0xF23A6E61 PUSH1 0xE0 SHL SWAP8 DUP9 DUP6 MSTORE CALLER PUSH1 0x4 DUP7 ADD MSTORE PUSH1 0x0 PUSH1 0x24 DUP7 ADD MSTORE PUSH1 0x44 DUP6 ADD MSTORE PUSH1 0x64 DUP5 ADD MSTORE PUSH1 0xA0 PUSH1 0x84 DUP5 ADD MSTORE PUSH1 0xA4 DUP4 ADD SWAP1 PUSH2 0x2A6F JUMP JUMPDEST SUB DUP2 PUSH1 0x0 CALLER GAS CALL PUSH1 0x0 SWAP2 DUP2 PUSH2 0xD3E JUMPI JUMPDEST POP PUSH2 0xD24 JUMPI DUP3 PUSH2 0xCCC PUSH2 0x3408 JUMP JUMPDEST PUSH4 0x8C379A0 EQ PUSH2 0xCEF JUMPI PUSH1 0x40 MLOAD PUSH3 0x461BCD PUSH1 0xE5 SHL DUP2 MSTORE DUP1 PUSH2 0x86C PUSH1 0x4 DUP3 ADD PUSH2 0x3494 JUMP JUMPDEST PUSH2 0xCF7 PUSH2 0x3426 JUMP JUMPDEST SWAP1 DUP2 PUSH2 0xD03 JUMPI POP PUSH2 0x853 JUMP JUMPDEST PUSH2 0x86C PUSH1 0x40 MLOAD SWAP3 DUP4 SWAP3 PUSH3 0x461BCD PUSH1 0xE5 SHL DUP5 MSTORE PUSH1 0x4 DUP5 ADD MSTORE PUSH1 0x24 DUP4 ADD SWAP1 PUSH2 0x2A6F JUMP JUMPDEST PUSH1 0x1 PUSH1 0x1 PUSH1 0xE0 SHL SUB NOT AND SUB SWAP1 POP PUSH2 0x8E4 JUMPI DUP1 DUP1 DUP1 DUP1 PUSH2 0x794 JUMP JUMPDEST PUSH2 0xD56 SWAP2 SWAP3 POP DUP5 RETURNDATASIZE DUP7 GT PUSH2 0x926 JUMPI PUSH2 0x917 DUP2 DUP4 PUSH2 0x2B17 JUMP JUMPDEST SWAP1 DUP5 PUSH2 0xCBE JUMP JUMPDEST PUSH1 0x0 DUP1 DUP1 PUSH2 0xD6C DUP2 SWAP5 CALLVALUE PUSH2 0x366D JUMP JUMPDEST CALLER GAS CALL PUSH2 0xD77 PUSH2 0x368A JUMP JUMPDEST POP ISZERO PUSH2 0x7B8 JUMPI DUP4 PUSH2 0xBD4 JUMP JUMPDEST PUSH1 0x5 SLOAD PUSH1 0x0 SWAP2 DUP3 SWAP2 DUP3 SWAP2 DUP3 SWAP2 PUSH1 0x1 PUSH1 0x1 PUSH1 0xA0 SHL SUB AND GAS CALL PUSH2 0xDA2 PUSH2 0x368A JUMP JUMPDEST POP ISZERO PUSH2 0x7B8 JUMPI DUP5 PUSH2 0xBCB JUMP JUMPDEST PUSH1 0x0 SWAP2 DUP3 SWAP2 DUP3 SWAP2 DUP3 SWAP2 PUSH1 0x1 PUSH1 0x1 PUSH1 0xA0 SHL SUB AND GAS CALL PUSH2 0xDCA PUSH2 0x368A JUMP JUMPDEST POP ISZERO PUSH2 0x7B8 JUMPI DUP6 DUP1 PUSH2 0xBC3 JUMP JUMPDEST PUSH1 0x60 CALLDATASIZE PUSH1 0x3 NOT ADD SLT PUSH2 0x197 JUMPI PUSH1 0x4 CALLDATALOAD PUSH2 0xDEE PUSH2 0x2A36 JUMP JUMPDEST PUSH1 0x44 CALLDATALOAD PUSH2 0xDF9 PUSH2 0x36DE JUMP JUMPDEST PUSH2 0xE01 PUSH2 0x3629 JUMP JUMPDEST PUSH1 0x1 PUSH1 0x1 PUSH1 0xA0 SHL SUB SWAP3 DUP3 DUP5 AND SWAP2 DUP3 ISZERO PUSH2 0xFA8 JUMPI CALLER ISZERO PUSH2 0xFA8 JUMPI CALLER DUP4 EQ PUSH2 0xF96 JUMPI DUP2 PUSH1 0x0 MSTORE PUSH1 0x20 SWAP4 PUSH1 0xA DUP6 MSTORE PUSH1 0x40 PUSH1 0x0 KECCAK256 DUP5 PUSH1 0x0 MSTORE DUP6 MSTORE PUSH1 0x40 PUSH1 0x0 KECCAK256 SWAP1 DUP5 DUP8 DUP4 SLOAD AND SUB PUSH2 0xF96 JUMPI PUSH1 0x2 DUP3 ADD SWAP2 DUP4 DUP4 SLOAD LT PUSH2 0xF84 JUMPI DUP5 PUSH1 0x0 MSTORE PUSH1 0x9 DUP8 MSTORE PUSH1 0xFF PUSH1 0x9 PUSH1 0x40 PUSH1 0x0 KECCAK256 ADD SLOAD AND ISZERO PUSH2 0xA69 JUMPI DUP4 PUSH2 0xE78 DUP7 DUP5 PUSH2 0x2DF1 JUMP JUMPDEST LT PUSH2 0xF84 JUMPI PUSH1 0x1 ADD SWAP2 DUP4 DUP4 SLOAD MUL SWAP8 DUP9 CALLVALUE LT PUSH2 0x92D JUMPI PUSH2 0xE97 DUP10 DUP8 PUSH2 0x356C JUMP JUMPDEST SWAP2 SWAP1 DUP3 PUSH2 0xF64 JUMPI JUMPDEST POP POP PUSH1 0x0 DUP1 DUP1 DUP1 SWAP4 DUP13 SUB DUP11 GAS CALL PUSH2 0xEB4 PUSH2 0x368A JUMP JUMPDEST POP ISZERO PUSH2 0x7B8 JUMPI PUSH2 0xED9 DUP5 SWAP3 DUP4 DUP8 PUSH1 0x40 MLOAD SWAP3 PUSH2 0xECE DUP5 PUSH2 0x2AFC JUMP JUMPDEST PUSH1 0x0 DUP5 MSTORE CALLER SWAP1 PUSH2 0x2FC2 JUMP JUMPDEST DUP1 SLOAD SWAP1 DUP3 DUP3 SUB SWAP1 SSTORE EQ PUSH2 0xF39 JUMPI JUMPDEST SLOAD SWAP4 PUSH1 0x40 MLOAD SWAP5 DUP6 MSTORE DUP5 ADD MSTORE PUSH32 0x5FAFAD85DEC201C2E73B6A2BEF6351129304A624EA8720ECD04CD7F04D83BC39 PUSH1 0x40 CALLER SWAP5 LOG4 DUP1 CALLVALUE GT PUSH2 0xF26 JUMPI PUSH1 0x1 PUSH1 0x6 SSTORE STOP JUMPDEST PUSH1 0x0 DUP1 DUP1 DUP1 SWAP4 CALLVALUE SUB CALLER GAS CALL PUSH2 0x7AC PUSH2 0x368A JUMP JUMPDEST DUP3 PUSH1 0x0 MSTORE PUSH1 0xA DUP6 MSTORE PUSH1 0x40 PUSH1 0x0 KECCAK256 DUP5 PUSH1 0x0 MSTORE DUP6 MSTORE PUSH1 0x0 PUSH1 0x2 PUSH1 0x40 DUP3 KECCAK256 DUP3 DUP2 SSTORE DUP3 PUSH1 0x1 DUP3 ADD SSTORE ADD SSTORE PUSH2 0xEE7 JUMP JUMPDEST PUSH1 0x0 DUP1 DUP5 DUP2 SWAP5 DUP3 SWAP5 AND GAS CALL PUSH2 0xF77 PUSH2 0x368A JUMP JUMPDEST POP ISZERO PUSH2 0x7B8 JUMPI DUP10 DUP1 PUSH2 0xE9F JUMP JUMPDEST PUSH1 0x40 MLOAD PUSH4 0x1E9ACF17 PUSH1 0xE3 SHL DUP2 MSTORE PUSH1 0x4 SWAP1 REVERT JUMPDEST PUSH1 0x40 MLOAD PUSH4 0xEA8E4EB5 PUSH1 0xE0 SHL DUP2 MSTORE PUSH1 0x4 SWAP1 REVERT JUMPDEST PUSH1 0x40 MLOAD PUSH4 0xE6C4247B PUSH1 0xE0 SHL DUP2 MSTORE PUSH1 0x4 SWAP1 REVERT JUMPDEST CALLVALUE PUSH2 0x197 JUMPI PUSH1 0x60 CALLDATASIZE PUSH1 0x3 NOT ADD SLT PUSH2 0x197 JUMPI PUSH1 0x44 CALLDATALOAD PUSH1 0x4 CALLDATALOAD PUSH1 0x24 CALLDATALOAD PUSH2 0xFDC PUSH2 0x36DE JUMP JUMPDEST PUSH2 0xFE4 PUSH2 0x3629 JUMP JUMPDEST DUP1 PUSH2 0xFEF DUP4 CALLER PUSH2 0x2DF1 JUMP JUMPDEST LT PUSH2 0xF84 JUMPI DUP1 ISZERO PUSH2 0xA57 JUMPI DUP3 ISZERO PUSH2 0x10B2 JUMPI DUP2 PUSH1 0x0 MSTORE PUSH1 0x9 PUSH1 0x20 MSTORE PUSH1 0xFF PUSH1 0x9 PUSH1 0x40 PUSH1 0x0 KECCAK256 ADD SLOAD AND ISZERO PUSH2 0xA69 JUMPI PUSH1 0x40 MLOAD PUSH2 0x1026 DUP2 PUSH2 0x2AE1 JUMP JUMPDEST CALLER DUP2 MSTORE PUSH1 0x2 PUSH1 0x20 DUP3 ADD DUP6 DUP2 MSTORE PUSH1 0x40 DUP4 ADD SWAP1 DUP5 DUP3 MSTORE DUP6 PUSH1 0x0 MSTORE PUSH1 0xA PUSH1 0x20 MSTORE PUSH1 0x40 PUSH1 0x0 KECCAK256 CALLER PUSH1 0x0 MSTORE PUSH1 0x20 MSTORE PUSH1 0x40 PUSH1 0x0 KECCAK256 SWAP4 PUSH1 0x1 DUP1 PUSH1 0xA0 SHL SUB SWAP1 MLOAD AND PUSH1 0x1 PUSH1 0x1 PUSH1 0x60 SHL SUB PUSH1 0xA0 SHL DUP6 SLOAD AND OR DUP5 SSTORE MLOAD PUSH1 0x1 DUP5 ADD SSTORE MLOAD SWAP2 ADD SSTORE PUSH1 0x40 MLOAD SWAP3 DUP4 MSTORE PUSH1 0x20 DUP4 ADD MSTORE PUSH32 0x36E94395FAFCB0D2A9BCFCDD5CEF807AB52A1F4382906992EBDC18DE5F1472C4 PUSH1 0x40 CALLER SWAP4 LOG3 PUSH1 0x1 PUSH1 0x6 SSTORE STOP JUMPDEST PUSH1 0x40 MLOAD PUSH3 0xBFC921 PUSH1 0xE0 SHL DUP2 MSTORE PUSH1 0x4 SWAP1 REVERT JUMPDEST CALLVALUE PUSH2 0x197 JUMPI PUSH1 0x40 CALLDATASIZE PUSH1 0x3 NOT ADD SLT PUSH2 0x197 JUMPI PUSH2 0x10DC PUSH2 0x2A20 JUMP JUMPDEST PUSH1 0x24 CALLDATALOAD SWAP1 DUP2 ISZERO ISZERO SWAP1 DUP2 DUP4 SUB PUSH2 0x197 JUMPI PUSH1 0x1 PUSH1 0x1 PUSH1 0xA0 SHL SUB AND SWAP2 CALLER DUP4 EQ PUSH2 0x1159 JUMPI PUSH2 0x112B SWAP1 CALLER PUSH1 0x0 MSTORE PUSH1 0x1 PUSH1 0x20 MSTORE PUSH1 0x40 PUSH1 0x0 KECCAK256 DUP5 PUSH1 0x0 MSTORE PUSH1 0x20 MSTORE PUSH1 0x40 PUSH1 0x0 KECCAK256 SWAP1 PUSH1 0xFF DUP1 NOT DUP4 SLOAD AND SWAP2 ISZERO ISZERO AND OR SWAP1 SSTORE JUMP JUMPDEST PUSH1 0x40 MLOAD SWAP1 DUP2 MSTORE PUSH32 0x17307EAB39AB6107E8899845AD3D59BD9653F200F220920489CA2B5937696C31 PUSH1 0x20 CALLER SWAP3 LOG3 STOP JUMPDEST PUSH1 0x40 MLOAD PUSH3 0x461BCD PUSH1 0xE5 SHL DUP2 MSTORE PUSH1 0x20 PUSH1 0x4 DUP3 ADD MSTORE PUSH1 0x29 PUSH1 0x24 DUP3 ADD MSTORE PUSH32 0x455243313135353A2073657474696E6720617070726F76616C20737461747573 PUSH1 0x44 DUP3 ADD MSTORE PUSH9 0x103337B91039B2B633 PUSH1 0xB9 SHL PUSH1 0x64 DUP3 ADD MSTORE PUSH1 0x84 SWAP1 REVERT JUMPDEST CALLVALUE PUSH2 0x197 JUMPI PUSH1 0x20 CALLDATASIZE PUSH1 0x3 NOT ADD SLT PUSH2 0x197 JUMPI PUSH1 0x4 CALLDATALOAD PUSH2 0x11CC PUSH2 0x3629 JUMP JUMPDEST PUSH1 0x0 DUP2 DUP2 MSTORE PUSH1 0x9 PUSH1 0x20 MSTORE PUSH1 0x40 SWAP1 KECCAK256 DUP1 SLOAD CALLER PUSH1 0x1 PUSH1 0x1 PUSH1 0xA0 SHL SUB SWAP2 DUP3 AND EQ ISZERO SWAP1 DUP2 PUSH2 0x1246 JUMPI JUMPDEST POP PUSH2 0xF96 JUMPI PUSH1 0x20 PUSH1 0xFF PUSH1 0x9 PUSH32 0xB98F2E7A31992FD0038957C8B37AFBFDE15601543D7E49508FF1093C402E6B89 SWAP4 ADD PUSH2 0x1239 DUP3 DUP3 SLOAD AND ISZERO DUP3 SWAP1 PUSH1 0xFF DUP1 NOT DUP4 SLOAD AND SWAP2 ISZERO ISZERO AND OR SWAP1 SSTORE JUMP JUMPDEST SLOAD AND PUSH1 0x40 MLOAD SWAP1 ISZERO ISZERO DUP2 MSTORE LOG2 STOP JUMPDEST SWAP1 POP PUSH1 0x5 SLOAD AND CALLER EQ ISZERO DUP4 PUSH2 0x11F1 JUMP JUMPDEST CALLVALUE PUSH2 0x197 JUMPI PUSH1 0x40 CALLDATASIZE PUSH1 0x3 NOT ADD SLT PUSH2 0x197 JUMPI PUSH1 0x60 PUSH2 0x1270 PUSH2 0x2A36 JUMP JUMPDEST PUSH1 0x0 PUSH1 0x40 DUP1 MLOAD PUSH2 0x127F DUP2 PUSH2 0x2AE1 JUMP JUMPDEST DUP3 DUP2 MSTORE DUP3 PUSH1 0x20 DUP3 ADD MSTORE ADD MSTORE PUSH1 0x4 CALLDATALOAD PUSH1 0x0 MSTORE PUSH1 0xA PUSH1 0x20 MSTORE PUSH1 0x40 PUSH1 0x0 KECCAK256 PUSH1 0x1 DUP1 PUSH1 0xA0 SHL SUB DUP1 SWAP3 AND PUSH1 0x0 MSTORE PUSH1 0x20 MSTORE PUSH1 0x40 PUSH1 0x0 KECCAK256 SWAP1 PUSH1 0x40 MLOAD SWAP1 PUSH2 0x12BD DUP3 PUSH2 0x2AE1 JUMP JUMPDEST DUP3 SLOAD AND SWAP2 DUP3 DUP3 MSTORE PUSH1 0x40 PUSH1 0x2 PUSH1 0x1 DUP4 ADD SLOAD SWAP3 PUSH1 0x20 DUP6 ADD SWAP4 DUP5 MSTORE ADD SLOAD SWAP3 ADD SWAP2 DUP3 MSTORE PUSH1 0x40 MLOAD SWAP3 DUP4 MSTORE MLOAD PUSH1 0x20 DUP4 ADD MSTORE MLOAD PUSH1 0x40 DUP3 ADD MSTORE RETURN JUMPDEST CALLVALUE PUSH2 0x197 JUMPI PUSH1 0x40 CALLDATASIZE PUSH1 0x3 NOT ADD SLT PUSH2 0x197 JUMPI PUSH1 0x60 PUSH2 0x130B PUSH2 0x2A36 JUMP JUMPDEST PUSH1 0x4 CALLDATALOAD PUSH1 0x0 MSTORE PUSH1 0xA PUSH1 0x20 MSTORE PUSH1 0x40 PUSH1 0x0 KECCAK256 PUSH1 0x1 DUP1 PUSH1 0xA0 SHL SUB DUP1 SWAP3 AND PUSH1 0x0 MSTORE PUSH1 0x20 MSTORE PUSH1 0x40 PUSH1 0x0 KECCAK256 SWAP1 DUP2 SLOAD AND SWAP1 PUSH1 0x2 PUSH1 0x1 DUP3 ADD SLOAD SWAP2 ADD SLOAD SWAP1 PUSH1 0x40 MLOAD SWAP3 DUP4 MSTORE PUSH1 0x20 DUP4 ADD MSTORE PUSH1 0x40 DUP3 ADD MSTORE RETURN JUMPDEST CALLVALUE PUSH2 0x197 JUMPI PUSH1 0x0 CALLDATASIZE PUSH1 0x3 NOT ADD SLT PUSH2 0x197 JUMPI PUSH1 0x5 SLOAD PUSH1 0x40 MLOAD PUSH1 0x1 PUSH1 0x1 PUSH1 0xA0 SHL SUB SWAP1 SWAP2 AND DUP2 MSTORE PUSH1 0x20 SWAP1 RETURN JUMPDEST CALLVALUE PUSH2 0x197 JUMPI PUSH1 0x0 CALLDATASIZE PUSH1 0x3 NOT ADD SLT PUSH2 0x197 JUMPI PUSH2 0x1394 PUSH2 0x2D99 JUMP JUMPDEST PUSH2 0x139C PUSH2 0x3629 JUMP JUMPDEST PUSH1 0x1 PUSH1 0xFF NOT PUSH1 0x7 SLOAD AND OR PUSH1 0x7 SSTORE PUSH32 0x62E78CEA01BEE320CD4E420270B5EA74000D11B0C9F74754EBDBFC544B05A258 PUSH1 0x20 PUSH1 0x40 MLOAD CALLER DUP2 MSTORE LOG1 STOP JUMPDEST CALLVALUE PUSH2 0x197 JUMPI PUSH1 0x0 CALLDATASIZE PUSH1 0x3 NOT ADD SLT PUSH2 0x197 JUMPI PUSH2 0x13EE PUSH2 0x2D99 JUMP JUMPDEST PUSH1 0x5 DUP1 SLOAD PUSH1 0x1 PUSH1 0x1 PUSH1 0xA0 SHL SUB NOT DUP2 AND SWAP1 SWAP2 SSTORE PUSH1 0x0 SWAP1 PUSH1 0x1 PUSH1 0x1 PUSH1 0xA0 SHL SUB AND PUSH32 0x8BE0079C531659141344CD1FD0A4F28419497F9722A3DAAFE3B4186F6B6457E0 DUP3 DUP1 LOG3 STOP JUMPDEST CALLVALUE PUSH2 0x197 JUMPI PUSH1 0x20 CALLDATASIZE PUSH1 0x3 NOT ADD SLT PUSH2 0x197 JUMPI PUSH2 0x144E PUSH1 0x4 CALLDATALOAD PUSH2 0x3A45 JUMP JUMPDEST PUSH1 0x40 MLOAD DUP1 SWAP2 PUSH1 0x20 DUP3 MSTORE DUP1 MLOAD PUSH2 0x14BC PUSH2 0x1474 PUSH2 0x140 SWAP3 DUP4 PUSH1 0x20 DUP8 ADD MSTORE PUSH2 0x160 DUP7 ADD SWAP1 PUSH2 0x2A6F JUMP JUMPDEST PUSH2 0x14A7 PUSH2 0x1493 PUSH1 0x20 DUP7 ADD MLOAD SWAP3 PUSH1 0x1F NOT SWAP4 DUP5 DUP10 DUP4 SUB ADD PUSH1 0x40 DUP11 ADD MSTORE PUSH2 0x2A6F JUMP JUMPDEST PUSH1 0x40 DUP7 ADD MLOAD DUP4 DUP9 DUP4 SUB ADD PUSH1 0x60 DUP10 ADD MSTORE PUSH2 0x2A6F JUMP JUMPDEST SWAP1 PUSH1 0x60 DUP6 ADD MLOAD SWAP1 DUP7 DUP4 SUB ADD PUSH1 0x80 DUP8 ADD MSTORE PUSH2 0x2A6F JUMP JUMPDEST SWAP2 PUSH1 0x1 DUP1 PUSH1 0xA0 SHL SUB PUSH1 0x80 DUP3 ADD MLOAD AND PUSH1 0xA0 DUP6 ADD MSTORE PUSH1 0xA0 DUP2 ADD MLOAD PUSH1 0xC0 DUP6 ADD MSTORE PUSH1 0xC0 DUP2 ADD MLOAD PUSH1 0xE0 DUP6 ADD MSTORE PUSH1 0xE0 DUP2 ADD MLOAD PUSH2 0x100 SWAP1 DUP2 DUP7 ADD MSTORE DUP2 ADD MLOAD SWAP1 PUSH2 0x120 SWAP2 DUP3 DUP7 ADD MSTORE ADD MLOAD ISZERO ISZERO SWAP1 DUP4 ADD MSTORE SUB SWAP1 RETURN JUMPDEST CALLVALUE PUSH2 0x197 JUMPI PUSH1 0x20 CALLDATASIZE PUSH1 0x3 NOT ADD SLT PUSH2 0x197 JUMPI PUSH1 0x4 CALLDATALOAD PUSH1 0x0 SWAP1 DUP2 MSTORE PUSH1 0x9 PUSH1 0x20 MSTORE PUSH1 0x40 SWAP1 KECCAK256 DUP1 SLOAD PUSH1 0x1 PUSH1 0x1 PUSH1 0xA0 SHL SUB AND PUSH2 0x1541 PUSH1 0x1 DUP4 ADD PUSH2 0x2CC3 JUMP JUMPDEST SWAP2 PUSH2 0x154E PUSH1 0x2 DUP3 ADD PUSH2 0x2CC3 JUMP JUMPDEST PUSH2 0x155A PUSH1 0x3 DUP4 ADD PUSH2 0x2CC3 JUMP JUMPDEST SWAP2 PUSH2 0x1567 PUSH1 0x4 DUP3 ADD PUSH2 0x2CC3 JUMP JUMPDEST SWAP3 PUSH1 0x5 DUP3 ADD SLOAD SWAP4 PUSH2 0x15D8 PUSH1 0x6 DUP5 ADD SLOAD SWAP2 PUSH2 0x15CA PUSH1 0x7 DUP7 ADD SLOAD SWAP5 PUSH2 0x15BC PUSH1 0xFF PUSH1 0x9 PUSH1 0x8 DUP11 ADD SLOAD SWAP10 ADD SLOAD AND SWAP9 PUSH2 0x15AE PUSH1 0x40 MLOAD SWAP14 DUP15 SWAP14 DUP15 MSTORE DUP14 PUSH2 0x140 SWAP1 DUP2 PUSH1 0x20 DUP3 ADD MSTORE ADD SWAP1 PUSH2 0x2A6F JUMP JUMPDEST DUP13 DUP2 SUB PUSH1 0x40 DUP15 ADD MSTORE SWAP1 PUSH2 0x2A6F JUMP JUMPDEST SWAP1 DUP11 DUP3 SUB PUSH1 0x60 DUP13 ADD MSTORE PUSH2 0x2A6F JUMP JUMPDEST SWAP1 DUP9 DUP3 SUB PUSH1 0x80 DUP11 ADD MSTORE PUSH2 0x2A6F JUMP JUMPDEST SWAP5 PUSH1 0xA0 DUP8 ADD MSTORE PUSH1 0xC0 DUP7 ADD MSTORE PUSH1 0xE0 DUP6 ADD MSTORE PUSH2 0x100 DUP5 ADD MSTORE ISZERO ISZERO PUSH2 0x120 DUP4 ADD MSTORE SUB SWAP1 RETURN JUMPDEST CALLVALUE PUSH2 0x197 JUMPI PUSH1 0x0 CALLDATASIZE PUSH1 0x3 NOT ADD SLT PUSH2 0x197 JUMPI PUSH1 0x20 PUSH1 0xFF PUSH1 0x7 SLOAD AND PUSH1 0x40 MLOAD SWAP1 ISZERO ISZERO DUP2 MSTORE RETURN JUMPDEST CALLVALUE PUSH2 0x197 JUMPI PUSH1 0x40 CALLDATASIZE PUSH1 0x3 NOT ADD SLT PUSH2 0x197 JUMPI PUSH1 0x4 CALLDATALOAD PUSH1 0x1 PUSH1 0x1 PUSH1 0x40 SHL SUB DUP1 DUP3 GT PUSH2 0x197 JUMPI CALLDATASIZE PUSH1 0x23 DUP4 ADD SLT ISZERO PUSH2 0x197 JUMPI DUP2 PUSH1 0x4 ADD CALLDATALOAD SWAP1 PUSH2 0x165A DUP3 PUSH2 0x2B38 JUMP JUMPDEST SWAP3 PUSH2 0x1668 PUSH1 0x40 MLOAD SWAP5 DUP6 PUSH2 0x2B17 JUMP JUMPDEST DUP3 DUP5 MSTORE PUSH1 0x20 SWAP3 PUSH1 0x24 DUP5 DUP7 ADD SWAP2 PUSH1 0x5 SHL DUP4 ADD ADD SWAP2 CALLDATASIZE DUP4 GT PUSH2 0x197 JUMPI PUSH1 0x24 ADD SWAP1 JUMPDEST DUP3 DUP3 LT PUSH2 0x17A0 JUMPI POP POP POP PUSH1 0x24 CALLDATALOAD SWAP1 DUP2 GT PUSH2 0x197 JUMPI PUSH2 0x16A9 SWAP1 CALLDATASIZE SWAP1 PUSH1 0x4 ADD PUSH2 0x2B9D JUMP JUMPDEST DUP3 MLOAD DUP2 MLOAD SUB PUSH2 0x1749 JUMPI DUP3 MLOAD SWAP3 PUSH2 0x16BE DUP5 PUSH2 0x2B38 JUMP JUMPDEST SWAP4 PUSH2 0x16CC PUSH1 0x40 MLOAD SWAP6 DUP7 PUSH2 0x2B17 JUMP JUMPDEST DUP1 DUP6 MSTORE PUSH2 0x16DB PUSH1 0x1F NOT SWAP2 PUSH2 0x2B38 JUMP JUMPDEST ADD CALLDATASIZE DUP5 DUP7 ADD CALLDATACOPY PUSH1 0x0 JUMPDEST DUP2 MLOAD DUP2 LT ISZERO PUSH2 0x172E JUMPI PUSH2 0x1729 SWAP1 PUSH2 0x1719 PUSH1 0x1 PUSH1 0x1 PUSH1 0xA0 SHL SUB PUSH2 0x1706 DUP4 DUP7 PUSH2 0x2E85 JUMP JUMPDEST MLOAD AND PUSH2 0x1712 DUP4 DUP8 PUSH2 0x2E85 JUMP JUMPDEST MLOAD SWAP1 PUSH2 0x2DF1 JUMP JUMPDEST PUSH2 0x1723 DUP3 DUP9 PUSH2 0x2E85 JUMP JUMPDEST MSTORE PUSH2 0x2E76 JUMP JUMPDEST PUSH2 0x16E4 JUMP JUMPDEST POP POP POP PUSH2 0x1745 PUSH1 0x40 MLOAD SWAP3 DUP3 DUP5 SWAP4 DUP5 MSTORE DUP4 ADD SWAP1 PUSH2 0x2C55 JUMP JUMPDEST SUB SWAP1 RETURN JUMPDEST PUSH1 0x40 MLOAD PUSH3 0x461BCD PUSH1 0xE5 SHL DUP2 MSTORE PUSH1 0x4 DUP2 ADD DUP4 SWAP1 MSTORE PUSH1 0x29 PUSH1 0x24 DUP3 ADD MSTORE PUSH32 0x455243313135353A206163636F756E747320616E6420696473206C656E677468 PUSH1 0x44 DUP3 ADD MSTORE PUSH9 0x40DAD2E6DAC2E8C6D PUSH1 0xBB SHL PUSH1 0x64 DUP3 ADD MSTORE PUSH1 0x84 SWAP1 REVERT JUMPDEST DUP2 CALLDATALOAD PUSH1 0x1 PUSH1 0x1 PUSH1 0xA0 SHL SUB DUP2 AND DUP2 SUB PUSH2 0x197 JUMPI DUP2 MSTORE SWAP1 DUP5 ADD SWAP1 DUP5 ADD PUSH2 0x1687 JUMP JUMPDEST CALLVALUE PUSH2 0x197 JUMPI PUSH2 0x17CD CALLDATASIZE PUSH2 0x2A94 JUMP JUMPDEST PUSH2 0x17D5 PUSH2 0x3629 JUMP JUMPDEST PUSH1 0x0 DUP3 DUP2 MSTORE PUSH1 0x9 PUSH1 0x20 MSTORE PUSH1 0x40 SWAP1 KECCAK256 DUP1 SLOAD CALLER PUSH1 0x1 PUSH1 0x1 PUSH1 0xA0 SHL SUB SWAP2 DUP3 AND EQ ISZERO SWAP1 DUP2 PUSH2 0x1838 JUMPI JUMPDEST POP PUSH2 0xF96 JUMPI DUP2 ISZERO PUSH2 0x10B2 JUMPI DUP2 PUSH32 0x2847CFE8AFE8BCD9AC540F0259739697EA019F65D44C8E76C8796B8CE52F7C31 SWAP3 PUSH1 0x5 PUSH1 0x20 SWAP4 ADD SSTORE PUSH1 0x40 MLOAD SWAP1 DUP2 MSTORE LOG2 STOP JUMPDEST SWAP1 POP PUSH1 0x5 SLOAD AND CALLER EQ ISZERO DUP5 PUSH2 0x17FA JUMP JUMPDEST CALLVALUE PUSH2 0x197 JUMPI PUSH1 0x0 CALLDATASIZE PUSH1 0x3 NOT ADD SLT PUSH2 0x197 JUMPI PUSH2 0x1860 PUSH2 0x2D99 JUMP JUMPDEST PUSH1 0x7 SLOAD PUSH1 0xFF DUP2 AND ISZERO PUSH2 0x189F JUMPI PUSH1 0xFF NOT AND PUSH1 0x7 SSTORE PUSH32 0x5DB9EE0A495BF2E6FF9C91A7834C1BA4FDD244A5E8AA4E537BD38AEAE4B073AA PUSH1 0x20 PUSH1 0x40 MLOAD CALLER DUP2 MSTORE LOG1 STOP JUMPDEST PUSH1 0x40 MLOAD PUSH3 0x461BCD PUSH1 0xE5 SHL DUP2 MSTORE PUSH1 0x20 PUSH1 0x4 DUP3 ADD MSTORE PUSH1 0x14 PUSH1 0x24 DUP3 ADD MSTORE PUSH20 0x14185D5CD8589B194E881B9BDD081C185D5CD959 PUSH1 0x62 SHL PUSH1 0x44 DUP3 ADD MSTORE PUSH1 0x64 SWAP1 REVERT JUMPDEST CALLVALUE PUSH2 0x197 JUMPI PUSH1 0x0 CALLDATASIZE PUSH1 0x3 NOT ADD SLT PUSH2 0x197 JUMPI PUSH1 0x20 PUSH1 0x40 MLOAD PUSH2 0x9C4 DUP2 MSTORE RETURN JUMPDEST CALLVALUE PUSH2 0x197 JUMPI PUSH1 0xE0 CALLDATASIZE PUSH1 0x3 NOT ADD SLT PUSH2 0x197 JUMPI PUSH1 0x4 CALLDATALOAD PUSH1 0x1 PUSH1 0x1 PUSH1 0x40 SHL SUB DUP2 GT PUSH2 0x197 JUMPI PUSH2 0x1928 SWAP1 CALLDATASIZE SWAP1 PUSH1 0x4 ADD PUSH2 0x2C28 JUMP JUMPDEST PUSH1 0x24 CALLDATALOAD PUSH1 0x1 PUSH1 0x1 PUSH1 0x40 SHL SUB DUP2 GT PUSH2 0x197 JUMPI PUSH2 0x1947 SWAP1 CALLDATASIZE SWAP1 PUSH1 0x4 ADD PUSH2 0x2C28 JUMP JUMPDEST SWAP1 PUSH1 0x44 CALLDATALOAD PUSH1 0x1 PUSH1 0x1 PUSH1 0x40 SHL SUB DUP2 GT PUSH2 0x197 JUMPI PUSH2 0x1967 SWAP1 CALLDATASIZE SWAP1 PUSH1 0x4 ADD PUSH2 0x2C28 JUMP JUMPDEST PUSH1 0x64 CALLDATALOAD PUSH1 0x1 PUSH1 0x1 PUSH1 0x40 SHL SUB DUP2 GT PUSH2 0x197 JUMPI PUSH2 0x1986 SWAP1 CALLDATASIZE SWAP1 PUSH1 0x4 ADD PUSH2 0x2C28 JUMP JUMPDEST SWAP4 SWAP1 SWAP5 PUSH2 0x1991 PUSH2 0x3629 JUMP JUMPDEST CALLER ISZERO PUSH2 0xFA8 JUMPI DUP7 ISZERO DUP1 ISZERO PUSH2 0x20DA JUMPI JUMPDEST DUP1 ISZERO PUSH2 0x20D2 JUMPI JUMPDEST DUP1 ISZERO PUSH2 0x20CA JUMPI JUMPDEST PUSH2 0xA57 JUMPI PUSH1 0x84 CALLDATALOAD ISZERO PUSH2 0x10B2 JUMPI PUSH1 0xA4 CALLDATALOAD ISZERO PUSH2 0x20B8 JUMPI PUSH2 0x9C4 PUSH1 0xC4 CALLDATALOAD GT PUSH2 0x20A6 JUMPI PUSH1 0x1 PUSH1 0x8 SLOAD ADD SWAP8 DUP9 PUSH1 0x8 SSTORE DUP9 PUSH1 0x0 MSTORE PUSH1 0xB PUSH1 0x20 MSTORE PUSH1 0x40 PUSH1 0x0 KECCAK256 PUSH1 0x1 PUSH1 0x1 PUSH1 0x40 SHL SUB DUP10 GT PUSH2 0x1E46 JUMPI PUSH2 0x1A08 DUP10 PUSH2 0x1A02 DUP4 SLOAD PUSH2 0x2C89 JUMP JUMPDEST DUP4 PUSH2 0x35D5 JUMP JUMPDEST DUP9 PUSH1 0x0 PUSH1 0x1F DUP3 GT PUSH1 0x1 EQ PUSH2 0x2041 JUMPI PUSH1 0x0 SWAP2 PUSH2 0x2036 JUMPI JUMPDEST POP DUP10 PUSH1 0x1 SHL SWAP1 PUSH1 0x0 NOT DUP12 PUSH1 0x3 SHL SHR NOT AND OR SWAP1 SSTORE JUMPDEST DUP9 PUSH1 0x0 MSTORE PUSH1 0xC PUSH1 0x20 MSTORE PUSH1 0x40 PUSH1 0x0 KECCAK256 PUSH1 0x1 PUSH1 0x1 PUSH1 0x40 SHL SUB DUP4 GT PUSH2 0x1E46 JUMPI PUSH2 0x1A5C DUP4 PUSH2 0x1A02 DUP4 SLOAD PUSH2 0x2C89 JUMP JUMPDEST PUSH1 0x0 PUSH1 0x1F DUP5 GT PUSH1 0x1 EQ PUSH2 0x1FBA JUMPI SWAP3 PUSH2 0x1AB2 PUSH2 0x1ABE SWAP4 PUSH2 0x1AD6 SWAP11 SWAP10 SWAP9 SWAP7 SWAP4 DUP4 PUSH2 0x1ACA SWAP10 SWAP8 PUSH1 0x0 SWAP2 PUSH2 0x1FAF JUMPI JUMPDEST POP DUP5 PUSH1 0x1 SHL SWAP1 PUSH1 0x0 NOT DUP7 PUSH1 0x3 SHL SHR NOT AND OR SWAP1 SSTORE JUMPDEST PUSH1 0x40 MLOAD SWAP12 PUSH2 0x1AA8 DUP14 PUSH2 0x2AAA JUMP JUMPDEST CALLER DUP14 MSTORE CALLDATASIZE SWAP2 PUSH2 0x2BD6 JUMP JUMPDEST PUSH1 0x20 DUP12 ADD MSTORE CALLDATASIZE SWAP2 PUSH2 0x2BD6 JUMP JUMPDEST PUSH1 0x40 DUP9 ADD MSTORE CALLDATASIZE SWAP2 PUSH2 0x2BD6 JUMP JUMPDEST PUSH1 0x60 DUP6 ADD MSTORE CALLDATASIZE SWAP2 PUSH2 0x2BD6 JUMP JUMPDEST PUSH1 0x80 DUP3 ADD MSTORE PUSH1 0x84 CALLDATALOAD PUSH1 0xA0 DUP3 ADD MSTORE PUSH1 0xA4 CALLDATALOAD PUSH1 0xC0 DUP3 ADD MSTORE PUSH1 0x0 PUSH1 0xE0 DUP3 ADD MSTORE PUSH1 0xC4 CALLDATALOAD PUSH2 0x100 DUP3 ADD MSTORE PUSH1 0x1 PUSH2 0x120 DUP3 ADD MSTORE DUP2 PUSH1 0x0 MSTORE PUSH1 0x9 PUSH1 0x20 MSTORE PUSH1 0x40 PUSH1 0x0 KECCAK256 SWAP1 PUSH1 0x1 DUP1 PUSH1 0xA0 SHL SUB DUP2 MLOAD AND PUSH1 0x1 PUSH1 0x1 PUSH1 0x60 SHL SUB PUSH1 0xA0 SHL DUP4 SLOAD AND OR DUP3 SSTORE PUSH1 0x20 DUP2 ADD MLOAD DUP1 MLOAD PUSH1 0x1 PUSH1 0x1 PUSH1 0x40 SHL SUB DUP2 GT PUSH2 0x1E46 JUMPI DUP1 PUSH1 0x1 DUP6 ADD SWAP3 PUSH2 0x1B5C DUP3 PUSH2 0x1B56 DUP7 SLOAD PUSH2 0x2C89 JUMP JUMPDEST DUP7 PUSH2 0x35D5 JUMP JUMPDEST PUSH1 0x20 SWAP1 PUSH1 0x1F DUP4 GT PUSH1 0x1 EQ PUSH2 0x1F49 JUMPI PUSH1 0x0 SWAP3 PUSH2 0x1F3E JUMPI JUMPDEST POP POP DUP2 PUSH1 0x1 SHL SWAP2 PUSH1 0x0 NOT SWAP1 PUSH1 0x3 SHL SHR NOT AND OR SWAP1 SSTORE JUMPDEST PUSH1 0x40 DUP2 ADD MLOAD DUP1 MLOAD PUSH1 0x1 PUSH1 0x1 PUSH1 0x40 SHL SUB DUP2 GT PUSH2 0x1E46 JUMPI DUP1 PUSH1 0x2 DUP6 ADD SWAP3 PUSH2 0x1BB0 DUP3 PUSH2 0x1B56 DUP7 SLOAD PUSH2 0x2C89 JUMP JUMPDEST PUSH1 0x20 SWAP1 PUSH1 0x1F DUP4 GT PUSH1 0x1 EQ PUSH2 0x1ED8 JUMPI PUSH1 0x0 SWAP3 PUSH2 0x1ECD JUMPI JUMPDEST POP POP DUP2 PUSH1 0x1 SHL SWAP2 PUSH1 0x0 NOT SWAP1 PUSH1 0x3 SHL SHR NOT AND OR SWAP1 SSTORE JUMPDEST PUSH1 0x60 DUP2 ADD MLOAD DUP1 MLOAD PUSH1 0x1 PUSH1 0x1 PUSH1 0x40 SHL SUB DUP2 GT PUSH2 0x1E46 JUMPI DUP1 PUSH1 0x3 DUP6 ADD SWAP3 PUSH2 0x1C04 DUP3 PUSH2 0x1B56 DUP7 SLOAD PUSH2 0x2C89 JUMP JUMPDEST PUSH1 0x20 SWAP1 PUSH1 0x1F DUP4 GT PUSH1 0x1 EQ PUSH2 0x1E67 JUMPI PUSH1 0x0 SWAP3 PUSH2 0x1E5C JUMPI JUMPDEST POP POP DUP2 PUSH1 0x1 SHL SWAP2 PUSH1 0x0 NOT SWAP1 PUSH1 0x3 SHL SHR NOT AND OR SWAP1 SSTORE JUMPDEST PUSH1 0x80 DUP2 ADD MLOAD DUP1 MLOAD PUSH1 0x1 PUSH1 0x1 PUSH1 0x40 SHL SUB DUP2 GT PUSH2 0x1E46 JUMPI PUSH1 0x4 DUP5 ADD SWAP2 PUSH2 0x1C5D DUP3 PUSH2 0x1C57 DUP6 SLOAD PUSH2 0x2C89 JUMP JUMPDEST DUP6 PUSH2 0x35D5 JUMP JUMPDEST PUSH1 0x20 SWAP1 PUSH1 0x1F DUP4 GT PUSH1 0x1 EQ PUSH2 0x1DD3 JUMPI SWAP3 DUP3 PUSH2 0x120 SWAP4 PUSH2 0x1CD7 SWAP8 SWAP7 SWAP4 PUSH1 0x9 SWAP7 PUSH1 0x0 SWAP3 PUSH2 0x1DC8 JUMPI JUMPDEST POP POP DUP2 PUSH1 0x1 SHL SWAP2 PUSH1 0x0 NOT SWAP1 PUSH1 0x3 SHL SHR NOT AND OR SWAP1 SSTORE JUMPDEST PUSH1 0xA0 DUP2 ADD MLOAD PUSH1 0x5 DUP6 ADD SSTORE PUSH1 0xC0 DUP2 ADD MLOAD PUSH1 0x6 DUP6 ADD SSTORE PUSH1 0xE0 DUP2 ADD MLOAD PUSH1 0x7 DUP6 ADD SSTORE PUSH2 0x100 DUP2 ADD MLOAD PUSH1 0x8 DUP6 ADD SSTORE ADD MLOAD ISZERO ISZERO SWAP2 ADD SWAP1 PUSH1 0xFF DUP1 NOT DUP4 SLOAD AND SWAP2 ISZERO ISZERO AND OR SWAP1 SSTORE JUMP JUMPDEST PUSH1 0x1 PUSH1 0x1 PUSH1 0x60 SHL SUB PUSH1 0xC4 CALLDATALOAD AND SWAP1 PUSH2 0x2710 DUP3 GT PUSH2 0x1D70 JUMPI PUSH1 0x40 MLOAD PUSH1 0x20 SWAP3 PUSH2 0x1CFC DUP3 PUSH2 0x2AC6 JUMP JUMPDEST CALLER DUP3 MSTORE DUP4 DUP3 ADD SWAP1 DUP2 MSTORE DUP3 PUSH1 0x0 MSTORE PUSH1 0x4 DUP5 MSTORE PUSH1 0x40 PUSH1 0x0 KECCAK256 SWAP2 PUSH1 0x1 DUP1 PUSH1 0xA0 SHL SUB SWAP1 MLOAD AND SWAP1 PUSH1 0x1 PUSH1 0x1 PUSH1 0x60 SHL SUB PUSH1 0xA0 SHL SWAP1 MLOAD PUSH1 0xA0 SHL AND OR SWAP1 SSTORE PUSH1 0x40 MLOAD PUSH1 0x84 CALLDATALOAD DUP2 MSTORE PUSH1 0xA4 CALLDATALOAD DUP4 DUP3 ADD MSTORE DUP2 PUSH32 0x23CBB18BFB096672F2FC538A6D637483D9DB0F85666AE980EBA20AE2874DA1A4 PUSH1 0x40 CALLER SWAP4 LOG3 PUSH1 0x40 MLOAD SWAP1 DUP2 MSTORE RETURN JUMPDEST PUSH1 0x40 MLOAD PUSH3 0x461BCD PUSH1 0xE5 SHL DUP2 MSTORE PUSH1 0x20 PUSH1 0x4 DUP3 ADD MSTORE PUSH1 0x2A PUSH1 0x24 DUP3 ADD MSTORE PUSH32 0x455243323938313A20726F79616C7479206665652077696C6C20657863656564 PUSH1 0x44 DUP3 ADD MSTORE PUSH10 0x2073616C655072696365 PUSH1 0xB0 SHL PUSH1 0x64 DUP3 ADD MSTORE PUSH1 0x84 SWAP1 REVERT JUMPDEST ADD MLOAD SWAP1 POP DUP10 DUP1 PUSH2 0x1C82 JUMP JUMPDEST SWAP1 PUSH1 0x1F NOT DUP4 AND SWAP2 DUP5 PUSH1 0x0 MSTORE PUSH1 0x20 PUSH1 0x0 KECCAK256 SWAP3 PUSH1 0x0 JUMPDEST DUP2 DUP2 LT PUSH2 0x1E2E JUMPI POP SWAP4 PUSH2 0x1CD7 SWAP8 SWAP7 SWAP4 PUSH1 0x9 SWAP7 SWAP4 PUSH1 0x1 SWAP4 DUP4 PUSH2 0x120 SWAP9 LT PUSH2 0x1E15 JUMPI JUMPDEST POP POP POP DUP2 SHL ADD SWAP1 SSTORE PUSH2 0x1C97 JUMP JUMPDEST ADD MLOAD PUSH1 0x0 NOT PUSH1 0xF8 DUP5 PUSH1 0x3 SHL AND SHR NOT AND SWAP1 SSTORE DUP10 DUP1 DUP1 PUSH2 0x1E08 JUMP JUMPDEST SWAP3 SWAP4 PUSH1 0x20 PUSH1 0x1 DUP2 SWAP3 DUP8 DUP7 ADD MLOAD DUP2 SSTORE ADD SWAP6 ADD SWAP4 ADD PUSH2 0x1DE7 JUMP JUMPDEST PUSH4 0x4E487B71 PUSH1 0xE0 SHL PUSH1 0x0 MSTORE PUSH1 0x41 PUSH1 0x4 MSTORE PUSH1 0x24 PUSH1 0x0 REVERT JUMPDEST ADD MLOAD SWAP1 POP DUP7 DUP1 PUSH2 0x1C1A JUMP JUMPDEST PUSH1 0x0 DUP6 DUP2 MSTORE PUSH1 0x20 DUP2 KECCAK256 SWAP4 POP PUSH1 0x1F NOT DUP6 AND SWAP1 JUMPDEST DUP2 DUP2 LT PUSH2 0x1EB5 JUMPI POP SWAP1 DUP5 PUSH1 0x1 SWAP6 SWAP5 SWAP4 SWAP3 LT PUSH2 0x1E9C JUMPI JUMPDEST POP POP POP DUP2 SHL ADD SWAP1 SSTORE PUSH2 0x1C2F JUMP JUMPDEST ADD MLOAD PUSH1 0x0 NOT PUSH1 0xF8 DUP5 PUSH1 0x3 SHL AND SHR NOT AND SWAP1 SSTORE DUP7 DUP1 DUP1 PUSH2 0x1E8F JUMP JUMPDEST SWAP3 SWAP4 PUSH1 0x20 PUSH1 0x1 DUP2 SWAP3 DUP8 DUP7 ADD MLOAD DUP2 SSTORE ADD SWAP6 ADD SWAP4 ADD PUSH2 0x1E79 JUMP JUMPDEST ADD MLOAD SWAP1 POP DUP7 DUP1 PUSH2 0x1BC6 JUMP JUMPDEST PUSH1 0x0 DUP6 DUP2 MSTORE PUSH1 0x20 DUP2 KECCAK256 SWAP4 POP PUSH1 0x1F NOT DUP6 AND SWAP1 JUMPDEST DUP2 DUP2 LT PUSH2 0x1F26 JUMPI POP SWAP1 DUP5 PUSH1 0x1 SWAP6 SWAP5 SWAP4 SWAP3 LT PUSH2 0x1F0D JUMPI JUMPDEST POP POP POP DUP2 SHL ADD SWAP1 SSTORE PUSH2 0x1BDB JUMP JUMPDEST ADD MLOAD PUSH1 0x0 NOT PUSH1 0xF8 DUP5 PUSH1 0x3 SHL AND SHR NOT AND SWAP1 SSTORE DUP7 DUP1 DUP1 PUSH2 0x1F00 JUMP JUMPDEST SWAP3 SWAP4 PUSH1 0x20 PUSH1 0x1 DUP2 SWAP3 DUP8 DUP7 ADD MLOAD DUP2 SSTORE ADD SWAP6 ADD SWAP4 ADD PUSH2 0x1EEA JUMP JUMPDEST ADD MLOAD SWAP1 POP DUP7 DUP1 PUSH2 0x1B72 JUMP JUMPDEST PUSH1 0x0 DUP6 DUP2 MSTORE PUSH1 0x20 DUP2 KECCAK256 SWAP4 POP PUSH1 0x1F NOT DUP6 AND SWAP1 JUMPDEST DUP2 DUP2 LT PUSH2 0x1F97 JUMPI POP SWAP1 DUP5 PUSH1 0x1 SWAP6 SWAP5 SWAP4 SWAP3 LT PUSH2 0x1F7E JUMPI JUMPDEST POP POP POP DUP2 SHL ADD SWAP1 SSTORE PUSH2 0x1B87 JUMP JUMPDEST ADD MLOAD PUSH1 0x0 NOT PUSH1 0xF8 DUP5 PUSH1 0x3 SHL AND SHR NOT AND SWAP1 SSTORE DUP7 DUP1 DUP1 PUSH2 0x1F71 JUMP JUMPDEST SWAP3 SWAP4 PUSH1 0x20 PUSH1 0x1 DUP2 SWAP3 DUP8 DUP7 ADD MLOAD DUP2 SSTORE ADD SWAP6 ADD SWAP4 ADD PUSH2 0x1F5B JUMP JUMPDEST SWAP1 POP DUP6 ADD CALLDATALOAD DUP16 PUSH2 0x1A87 JUMP JUMPDEST DUP2 PUSH1 0x0 MSTORE PUSH1 0x20 PUSH1 0x0 KECCAK256 SWAP1 PUSH1 0x0 JUMPDEST PUSH1 0x1F NOT DUP7 AND DUP2 LT PUSH2 0x201E JUMPI POP PUSH2 0x1ABE SWAP4 PUSH2 0x1AD6 SWAP11 SWAP10 SWAP9 SWAP7 SWAP4 DUP7 SWAP4 PUSH2 0x1AB2 SWAP4 PUSH2 0x1ACA SWAP11 SWAP9 PUSH1 0x1F NOT DUP2 AND LT PUSH2 0x2004 JUMPI JUMPDEST POP POP PUSH1 0x1 DUP5 DUP2 SHL ADD SWAP1 SSTORE PUSH2 0x1A9B JUMP JUMPDEST DUP7 ADD CALLDATALOAD PUSH1 0x0 NOT PUSH1 0x3 DUP8 SWAP1 SHL PUSH1 0xF8 AND SHR NOT AND SWAP1 SSTORE DUP15 DUP1 PUSH2 0x1FF5 JUMP JUMPDEST SWAP1 SWAP2 PUSH1 0x20 PUSH1 0x1 DUP2 SWAP3 DUP6 DUP11 ADD CALLDATALOAD DUP2 SSTORE ADD SWAP4 ADD SWAP2 ADD PUSH2 0x1FC7 JUMP JUMPDEST SWAP1 POP DUP3 ADD CALLDATALOAD DUP12 PUSH2 0x1A1E JUMP JUMPDEST PUSH1 0x0 DUP4 DUP2 MSTORE PUSH1 0x20 DUP2 KECCAK256 SWAP3 POP JUMPDEST PUSH1 0x1F NOT DUP13 AND DUP2 LT PUSH2 0x208E JUMPI POP DUP11 PUSH1 0x1F NOT DUP2 AND LT PUSH2 0x2074 JUMPI JUMPDEST POP POP PUSH1 0x1 DUP10 DUP2 SHL ADD SWAP1 SSTORE PUSH2 0x1A32 JUMP JUMPDEST DUP4 ADD CALLDATALOAD PUSH1 0x0 NOT PUSH1 0x3 DUP13 SWAP1 SHL PUSH1 0xF8 AND SHR NOT AND SWAP1 SSTORE DUP11 DUP1 PUSH2 0x2065 JUMP JUMPDEST SWAP1 SWAP2 PUSH1 0x20 PUSH1 0x1 DUP2 SWAP3 DUP6 DUP9 ADD CALLDATALOAD DUP2 SSTORE ADD SWAP4 ADD SWAP2 ADD PUSH2 0x204D JUMP JUMPDEST PUSH1 0x40 MLOAD PUSH4 0xE0E54CED PUSH1 0xE0 SHL DUP2 MSTORE PUSH1 0x4 SWAP1 REVERT JUMPDEST PUSH1 0x40 MLOAD PUSH4 0x15AE6727 PUSH1 0xE0 SHL DUP2 MSTORE PUSH1 0x4 SWAP1 REVERT JUMPDEST POP DUP5 ISZERO PUSH2 0x19AE JUMP JUMPDEST POP DUP3 ISZERO PUSH2 0x19A7 JUMP JUMPDEST POP DUP1 ISZERO PUSH2 0x19A0 JUMP JUMPDEST CALLVALUE PUSH2 0x197 JUMPI PUSH1 0x20 CALLDATASIZE PUSH1 0x3 NOT ADD SLT PUSH2 0x197 JUMPI PUSH1 0x4 CALLDATALOAD PUSH2 0x20FE PUSH2 0x36DE JUMP JUMPDEST PUSH2 0x2106 PUSH2 0x3629 JUMP JUMPDEST DUP1 PUSH1 0x0 MSTORE PUSH1 0xA PUSH1 0x20 MSTORE PUSH1 0x40 PUSH1 0x0 KECCAK256 CALLER PUSH1 0x0 MSTORE PUSH1 0x20 MSTORE CALLER PUSH1 0x1 DUP1 PUSH1 0xA0 SHL SUB PUSH1 0x40 PUSH1 0x0 KECCAK256 SLOAD AND SUB PUSH2 0xF96 JUMPI DUP1 PUSH1 0x0 MSTORE PUSH1 0xA PUSH1 0x20 MSTORE PUSH1 0x40 PUSH1 0x0 KECCAK256 CALLER PUSH1 0x0 MSTORE PUSH1 0x20 MSTORE PUSH1 0x0 PUSH1 0x2 PUSH1 0x40 DUP3 KECCAK256 DUP3 DUP2 SSTORE DUP3 PUSH1 0x1 DUP3 ADD SSTORE ADD SSTORE CALLER SWAP1 PUSH32 0x8E25282255AB31897DF2B0456BB993AC7F84D376861AEFD84901D2D63A7428A2 PUSH1 0x0 DUP1 LOG3 PUSH1 0x1 PUSH1 0x6 SSTORE STOP JUMPDEST CALLVALUE PUSH2 0x197 JUMPI PUSH1 0x3 NOT PUSH1 0xA0 CALLDATASIZE DUP3 ADD SLT PUSH2 0x197 JUMPI PUSH2 0x219F PUSH2 0x2A20 JUMP JUMPDEST PUSH2 0x21A7 PUSH2 0x2A36 JUMP JUMPDEST SWAP1 PUSH1 0x1 PUSH1 0x1 PUSH1 0x40 SHL SUB SWAP1 PUSH1 0x44 CALLDATALOAD DUP3 DUP2 GT PUSH2 0x197 JUMPI PUSH2 0x21C9 SWAP1 CALLDATASIZE SWAP1 PUSH1 0x4 ADD PUSH2 0x2B9D JUMP JUMPDEST PUSH1 0x64 CALLDATALOAD DUP4 DUP2 GT PUSH2 0x197 JUMPI PUSH2 0x21E1 SWAP1 CALLDATASIZE SWAP1 PUSH1 0x4 ADD PUSH2 0x2B9D JUMP JUMPDEST SWAP3 PUSH1 0x84 CALLDATALOAD SWAP1 DUP2 GT PUSH2 0x197 JUMPI PUSH2 0x21FA SWAP1 CALLDATASIZE SWAP1 PUSH1 0x4 ADD PUSH2 0x2C0D JUMP JUMPDEST PUSH1 0x1 PUSH1 0x1 PUSH1 0xA0 SHL SUB SWAP3 DUP4 AND SWAP6 SWAP1 CALLER DUP8 EQ DUP1 ISZERO PUSH2 0x251A JUMPI JUMPDEST PUSH2 0x221A SWAP1 PUSH2 0x2E99 JUMP JUMPDEST PUSH2 0x2227 DUP4 MLOAD DUP7 MLOAD EQ PUSH2 0x331D JUMP JUMPDEST DUP4 DUP7 AND SWAP4 DUP5 ISZERO ISZERO PUSH2 0x2237 DUP2 PUSH2 0x2EFC JUMP JUMPDEST DUP9 ISZERO ISZERO SWAP1 DUP2 PUSH2 0x2512 JUMPI JUMPDEST POP PUSH2 0x23AC JUMPI JUMPDEST POP PUSH1 0x0 JUMPDEST DUP4 MLOAD DUP2 LT ISZERO PUSH2 0x22DA JUMPI DUP1 PUSH2 0x2262 PUSH2 0x22D5 SWAP3 DUP7 PUSH2 0x2E85 JUMP JUMPDEST MLOAD PUSH2 0x226D DUP3 DUP10 PUSH2 0x2E85 JUMP JUMPDEST MLOAD SWAP1 DUP1 PUSH1 0x0 MSTORE PUSH1 0x20 SWAP1 PUSH1 0x0 DUP3 MSTORE PUSH1 0x40 PUSH1 0x0 KECCAK256 DUP13 PUSH1 0x0 MSTORE DUP3 MSTORE DUP3 PUSH1 0x40 PUSH1 0x0 KECCAK256 SLOAD PUSH2 0x2298 DUP3 DUP3 LT ISZERO PUSH2 0x2F56 JUMP JUMPDEST DUP3 PUSH1 0x0 MSTORE PUSH1 0x0 DUP5 MSTORE DUP14 PUSH1 0x40 PUSH1 0x0 KECCAK256 SWAP1 PUSH1 0x0 MSTORE DUP5 MSTORE SUB PUSH1 0x40 PUSH1 0x0 KECCAK256 SSTORE PUSH1 0x0 MSTORE PUSH1 0x0 DUP2 MSTORE PUSH1 0x40 PUSH1 0x0 KECCAK256 SWAP1 DUP9 PUSH1 0x0 MSTORE MSTORE PUSH2 0x6DF PUSH1 0x40 PUSH1 0x0 KECCAK256 SWAP2 DUP3 SLOAD PUSH2 0x2FB5 JUMP JUMPDEST PUSH2 0x224B JUMP JUMPDEST POP SWAP1 SWAP5 SWAP4 SWAP3 SWAP2 SWAP4 DUP3 DUP8 PUSH1 0x40 MLOAD PUSH32 0x4A39DC06D4C0DBC64B70AF90FD698A233A518AA5D07E595D983B8C0526C8F7FB CALLER SWAP2 DUP1 PUSH2 0x2315 DUP11 DUP13 DUP4 PUSH2 0x337A JUMP JUMPDEST SUB SWAP1 LOG4 EXTCODESIZE PUSH2 0x231F JUMPI STOP JUMPDEST PUSH1 0x0 PUSH1 0x20 SWAP5 PUSH2 0x2361 PUSH2 0x81C SWAP8 PUSH2 0x80C SWAP5 PUSH1 0x40 MLOAD SWAP10 DUP11 SWAP9 DUP10 SWAP8 DUP9 SWAP7 PUSH4 0xBC197C81 PUSH1 0xE0 SHL SWAP15 DUP16 DUP10 MSTORE CALLER PUSH1 0x4 DUP11 ADD MSTORE PUSH1 0x24 DUP10 ADD MSTORE PUSH1 0xA0 PUSH1 0x44 DUP10 ADD MSTORE PUSH1 0xA4 DUP9 ADD SWAP1 PUSH2 0x2C55 JUMP JUMPDEST SUB SWAP3 GAS CALL PUSH1 0x0 SWAP2 DUP2 PUSH2 0x238C JUMPI JUMPDEST POP PUSH2 0x237B JUMPI PUSH2 0x848 PUSH2 0x3408 JUMP JUMPDEST PUSH1 0x1 PUSH1 0x1 PUSH1 0xE0 SHL SUB NOT AND SUB PUSH2 0x8E4 JUMPI STOP JUMPDEST PUSH2 0x23A5 SWAP2 SWAP3 POP PUSH1 0x20 RETURNDATASIZE DUP2 GT PUSH2 0x926 JUMPI PUSH2 0x917 DUP2 DUP4 PUSH2 0x2B17 JUMP JUMPDEST SWAP1 DUP4 PUSH2 0x236E JUMP JUMPDEST SWAP7 SWAP5 SWAP4 SWAP1 SWAP6 SWAP2 PUSH1 0x0 JUMPDEST DUP5 MLOAD DUP2 LT ISZERO PUSH2 0x2504 JUMPI DUP1 PUSH2 0x23CC PUSH2 0x2404 SWAP3 DUP8 PUSH2 0x2E85 JUMP JUMPDEST MLOAD PUSH1 0x0 MSTORE DUP8 DUP11 PUSH1 0xA PUSH1 0x20 SWAP1 DUP1 DUP3 MSTORE PUSH1 0x40 PUSH1 0x0 KECCAK256 DUP5 PUSH1 0x0 MSTORE DUP3 MSTORE DUP4 PUSH1 0x40 PUSH1 0x0 KECCAK256 SWAP4 DUP5 SLOAD AND EQ DUP1 PUSH2 0x24F7 JUMPI JUMPDEST PUSH2 0x2409 JUMPI JUMPDEST POP POP POP POP PUSH2 0x2E76 JUMP JUMPDEST PUSH2 0x23B5 JUMP JUMPDEST PUSH2 0x2413 DUP6 DUP13 PUSH2 0x2E85 JUMP JUMPDEST MLOAD SWAP3 DUP12 DUP7 DUP13 PUSH1 0x2 SWAP7 DUP8 DUP6 ADD SWAP4 DUP5 SLOAD DUP1 SWAP3 LT ISZERO PUSH1 0x0 EQ PUSH2 0x2497 JUMPI POP POP SWAP1 SWAP2 POP PUSH1 0x0 SWAP7 POP PUSH2 0x243F SWAP3 POP PUSH2 0x2E85 JUMP JUMPDEST MLOAD DUP5 MSTORE DUP2 MSTORE PUSH1 0x40 DUP4 KECCAK256 SWAP1 DUP12 DUP5 MSTORE MSTORE PUSH1 0x40 DUP3 KECCAK256 DUP3 DUP2 SSTORE DUP3 PUSH1 0x1 DUP3 ADD SSTORE ADD SSTORE DUP8 PUSH2 0x2467 DUP3 DUP9 PUSH2 0x2E85 JUMP JUMPDEST MLOAD PUSH32 0x8E25282255AB31897DF2B0456BB993AC7F84D376861AEFD84901D2D63A7428A2 PUSH1 0x0 DUP1 LOG3 JUMPDEST DUP8 DUP12 DUP1 DUP1 PUSH2 0x23FB JUMP JUMPDEST PUSH32 0x36E94395FAFCB0D2A9BCFCDD5CEF807AB52A1F4382906992EBDC18DE5F1472C4 SWAP8 SWAP6 SWAP9 POP PUSH1 0x40 SWAP7 POP SWAP2 PUSH2 0x24DC DUP5 SWAP3 PUSH2 0x24D5 PUSH1 0x1 SWAP7 PUSH2 0x24E4 SWAP7 PUSH2 0x2E85 JUMP JUMPDEST MLOAD SWAP1 PUSH2 0x366D JUMP JUMPDEST DUP1 SWAP6 SSTORE PUSH2 0x2E85 JUMP JUMPDEST MLOAD SWAP6 ADD SLOAD SWAP2 DUP4 MLOAD SWAP3 DUP4 MSTORE DUP3 ADD MSTORE LOG3 PUSH2 0x248E JUMP JUMPDEST POP PUSH1 0x2 DUP4 ADD SLOAD ISZERO ISZERO PUSH2 0x23F6 JUMP JUMPDEST POP SWAP2 SWAP6 SWAP1 SWAP4 SWAP5 SWAP7 POP DUP8 PUSH2 0x2247 JUMP JUMPDEST SWAP1 POP DUP10 PUSH2 0x2241 JUMP JUMPDEST POP DUP7 PUSH1 0x0 MSTORE PUSH1 0x1 PUSH1 0x20 MSTORE PUSH1 0x40 PUSH1 0x0 KECCAK256 CALLER PUSH1 0x0 MSTORE PUSH1 0x20 MSTORE PUSH2 0x221A PUSH1 0xFF PUSH1 0x40 PUSH1 0x0 KECCAK256 SLOAD AND SWAP1 POP PUSH2 0x2211 JUMP JUMPDEST CALLVALUE PUSH2 0x197 JUMPI PUSH1 0x40 PUSH2 0x255C PUSH2 0x2556 CALLDATASIZE PUSH2 0x2A94 JUMP JUMPDEST SWAP1 PUSH2 0x356C JUMP JUMPDEST DUP3 MLOAD PUSH1 0x1 PUSH1 0x1 PUSH1 0xA0 SHL SUB SWAP1 SWAP3 AND DUP3 MSTORE PUSH1 0x20 DUP3 ADD MSTORE RETURN JUMPDEST CALLVALUE PUSH2 0x197 JUMPI PUSH1 0x20 DUP1 PUSH1 0x3 NOT CALLDATASIZE ADD SLT PUSH2 0x197 JUMPI PUSH1 0x4 CALLDATALOAD PUSH1 0x0 DUP2 DUP2 MSTORE PUSH1 0x9 DUP4 MSTORE PUSH1 0x40 SWAP1 KECCAK256 SLOAD PUSH1 0x1 PUSH1 0x1 PUSH1 0xA0 SHL SUB SWAP3 SWAP2 SWAP1 DUP4 AND ISZERO PUSH2 0x2942 JUMPI PUSH2 0x25B0 SWAP1 PUSH2 0x3A45 JUMP JUMPDEST DUP1 MLOAD SWAP1 DUP3 DUP2 ADD MLOAD PUSH1 0x40 DUP3 ADD MLOAD SWAP2 PUSH1 0x60 DUP2 ADD MLOAD SWAP6 PUSH1 0x80 DUP3 ADD MLOAD AND SWAP6 PUSH1 0x40 MLOAD SWAP7 PUSH2 0x25D7 DUP9 PUSH2 0x2AE1 JUMP JUMPDEST PUSH1 0x2A DUP9 MSTORE DUP7 DUP9 ADD SWAP1 PUSH1 0x40 CALLDATASIZE DUP4 CALLDATACOPY DUP9 MLOAD ISZERO PUSH2 0x292C JUMPI PUSH1 0x30 DUP3 MSTORE8 DUP9 MLOAD PUSH1 0x1 SWAP1 DUP2 LT ISZERO PUSH2 0x292C JUMPI PUSH1 0x78 PUSH1 0x21 DUP12 ADD MSTORE8 PUSH1 0x29 SWAP1 JUMPDEST DUP1 DUP3 GT PUSH2 0x28CE JUMPI POP POP PUSH2 0x288B JUMPI DUP7 SWAP8 PUSH1 0xC0 DUP5 ADD MLOAD PUSH2 0x2623 SWAP1 PUSH2 0x3902 JUMP JUMPDEST SWAP3 PUSH1 0xE0 DUP6 ADD MLOAD PUSH2 0x2632 SWAP1 PUSH2 0x3902 JUMP JUMPDEST SWAP5 PUSH2 0x100 ADD MLOAD PUSH2 0x2641 SWAP1 PUSH2 0x3902 JUMP JUMPDEST SWAP7 DUP10 PUSH1 0x40 MLOAD SWAP11 DUP12 SWAP11 PUSH9 0x3D913730B6B2911D11 PUSH1 0xB9 SHL DUP3 DUP14 ADD MSTORE DUP12 DUP2 MLOAD SWAP3 PUSH1 0x29 DUP5 SWAP3 ADD SWAP3 ADD SWAP2 PUSH2 0x266F SWAP3 PUSH2 0x2A4C JUMP JUMPDEST DUP11 ADD PUSH2 0x88B PUSH1 0xF2 SHL SWAP9 DUP10 PUSH1 0x29 DUP4 ADD MSTORE PUSH15 0x113232B9B1B934B83A34B7B7111D11 PUSH1 0x89 SHL PUSH1 0x2B DUP4 ADD MSTORE DUP1 MLOAD DUP1 SWAP4 PUSH1 0x3A DUP5 ADD SWAP3 ADD SWAP2 PUSH2 0x26AA SWAP3 PUSH2 0x2A4C JUMP JUMPDEST ADD DUP8 PUSH1 0x3A DUP3 ADD MSTORE PUSH9 0x1134B6B0B3B2911D11 PUSH1 0xB9 SHL PUSH1 0x3C DUP3 ADD MSTORE DUP2 MLOAD SWAP2 DUP3 DUP14 PUSH1 0x45 DUP5 ADD SWAP3 ADD SWAP2 PUSH2 0x26D8 SWAP3 PUSH2 0x2A4C JUMP JUMPDEST ADD DUP7 PUSH1 0x45 DUP3 ADD MSTORE PUSH17 0x1130B734B6B0BA34B7B72FBAB936111D11 PUSH1 0x79 SHL PUSH1 0x47 DUP3 ADD MSTORE DUP2 MLOAD SWAP2 DUP3 DUP13 PUSH1 0x58 DUP5 ADD SWAP3 ADD SWAP2 PUSH2 0x270E SWAP3 PUSH2 0x2A4C JUMP JUMPDEST ADD SWAP1 DUP6 PUSH1 0x58 DUP4 ADD MSTORE PUSH14 0x2270726F70657274696573223A7B PUSH1 0x90 SHL PUSH1 0x5A DUP4 ADD MSTORE PUSH11 0x1131B932B0BA37B9111D11 PUSH1 0xA9 SHL PUSH1 0x68 DUP4 ADD MSTORE MLOAD SWAP2 DUP3 PUSH1 0x73 DUP4 ADD PUSH2 0x2751 SWAP3 PUSH2 0x2A4C JUMP JUMPDEST ADD DUP4 PUSH1 0x73 DUP3 ADD MSTORE PUSH13 0x1136B0BC29BAB838363C911D11 PUSH1 0x99 SHL PUSH1 0x75 DUP3 ADD MSTORE DUP2 MLOAD SWAP2 DUP3 DUP10 PUSH1 0x82 DUP5 ADD SWAP3 ADD SWAP2 PUSH2 0x2783 SWAP3 PUSH2 0x2A4C JUMP JUMPDEST ADD DUP3 PUSH1 0x82 DUP3 ADD MSTORE PUSH17 0x1131BAB93932B73A29BAB838363C911D11 PUSH1 0x79 SHL PUSH1 0x84 DUP3 ADD MSTORE DUP2 MLOAD SWAP2 DUP3 DUP9 PUSH1 0x95 DUP5 ADD SWAP3 ADD SWAP2 PUSH2 0x27B9 SWAP3 PUSH2 0x2A4C JUMP JUMPDEST ADD SWAP1 PUSH1 0x95 DUP3 ADD MSTORE PUSH14 0x113937BCB0B63A3CA12829911D11 PUSH1 0x91 SHL PUSH1 0x97 DUP3 ADD MSTORE DUP2 MLOAD SWAP2 DUP3 DUP7 PUSH1 0xA5 DUP5 ADD SWAP3 ADD SWAP2 PUSH2 0x27EC SWAP3 PUSH2 0x2A4C JUMP JUMPDEST ADD PUSH1 0x11 PUSH1 0xF9 SHL PUSH1 0xA5 DUP3 ADD MSTORE PUSH1 0xA6 DUP2 ADD PUSH2 0x7D7D PUSH1 0xF0 SHL SWAP1 MSTORE SUB PUSH1 0x88 DUP2 ADD DUP3 MSTORE PUSH1 0xA8 ADD PUSH2 0x2817 SWAP1 DUP3 PUSH2 0x2B17 JUMP JUMPDEST PUSH2 0x2820 SWAP1 PUSH2 0x37BC JUMP JUMPDEST SWAP1 PUSH1 0x40 MLOAD DUP1 SWAP3 DUP3 DUP3 ADD PUSH32 0x646174613A6170706C69636174696F6E2F6A736F6E3B6261736536342C000000 SWAP1 MSTORE DUP1 MLOAD SWAP1 DUP2 DUP5 PUSH1 0x3D DUP6 ADD SWAP3 ADD SWAP2 PUSH2 0x2861 SWAP3 PUSH2 0x2A4C JUMP JUMPDEST DUP2 ADD SUB PUSH1 0x1D DUP2 ADD DUP4 MSTORE PUSH1 0x3D ADD PUSH2 0x2877 SWAP1 DUP4 PUSH2 0x2B17 JUMP JUMPDEST PUSH1 0x40 MLOAD SWAP2 DUP2 DUP4 SWAP3 DUP4 MSTORE DUP3 ADD PUSH2 0x1745 SWAP2 PUSH2 0x2A6F JUMP JUMPDEST PUSH1 0x64 DUP8 PUSH1 0x40 MLOAD SWAP1 PUSH3 0x461BCD PUSH1 0xE5 SHL DUP3 MSTORE DUP1 PUSH1 0x4 DUP4 ADD MSTORE PUSH1 0x24 DUP3 ADD MSTORE PUSH32 0x537472696E67733A20686578206C656E67746820696E73756666696369656E74 PUSH1 0x44 DUP3 ADD MSTORE REVERT JUMPDEST SWAP1 SWAP2 PUSH1 0xF DUP2 AND PUSH1 0x10 DUP2 LT ISZERO PUSH2 0x292C JUMPI DUP12 MLOAD DUP5 LT ISZERO PUSH2 0x292C JUMPI PUSH16 0x181899199A1A9B1B9C1CB0B131B232B3 PUSH1 0x81 SHL SWAP1 BYTE DUP12 DUP5 ADD DUP12 ADD MSTORE8 PUSH1 0x4 SHR SWAP2 DUP1 ISZERO PUSH2 0x2916 JUMPI PUSH1 0x0 NOT ADD SWAP1 PUSH2 0x2606 JUMP JUMPDEST PUSH4 0x4E487B71 PUSH1 0xE0 SHL PUSH1 0x0 MSTORE PUSH1 0x11 PUSH1 0x4 MSTORE PUSH1 0x24 PUSH1 0x0 REVERT JUMPDEST PUSH4 0x4E487B71 PUSH1 0xE0 SHL PUSH1 0x0 MSTORE PUSH1 0x32 PUSH1 0x4 MSTORE PUSH1 0x24 PUSH1 0x0 REVERT JUMPDEST PUSH1 0x40 MLOAD PUSH4 0xF070CB6F PUSH1 0xE0 SHL DUP2 MSTORE PUSH1 0x4 SWAP1 REVERT JUMPDEST CALLVALUE PUSH2 0x197 JUMPI PUSH1 0x20 CALLDATASIZE PUSH1 0x3 NOT ADD SLT PUSH2 0x197 JUMPI PUSH1 0x4 CALLDATALOAD PUSH4 0xFFFFFFFF PUSH1 0xE0 SHL DUP2 AND DUP1 SWAP2 SUB PUSH2 0x197 JUMPI PUSH1 0x20 SWAP1 PUSH4 0x152A902D PUSH1 0xE1 SHL DUP2 EQ SWAP1 DUP2 SWAP1 DUP2 ISZERO PUSH2 0x29AB JUMPI JUMPDEST POP DUP2 ISZERO PUSH2 0x29A3 JUMPI JUMPDEST POP PUSH1 0x40 MLOAD SWAP1 ISZERO ISZERO DUP2 MSTORE RETURN JUMPDEST SWAP1 POP DUP3 PUSH2 0x2998 JUMP JUMPDEST SWAP1 SWAP2 POP PUSH4 0x6CDB3D13 PUSH1 0xE1 SHL DUP2 EQ SWAP1 DUP2 ISZERO PUSH2 0x29E0 JUMPI JUMPDEST DUP2 ISZERO PUSH2 0x29CF JUMPI JUMPDEST POP SWAP1 DUP4 PUSH2 0x2990 JUMP JUMPDEST PUSH4 0x1FFC9A7 PUSH1 0xE0 SHL EQ SWAP1 POP DUP4 PUSH2 0x29C7 JUMP JUMPDEST PUSH4 0x3A24D07 PUSH1 0xE2 SHL DUP2 EQ SWAP2 POP PUSH2 0x29C0 JUMP JUMPDEST CALLVALUE PUSH2 0x197 JUMPI PUSH1 0x40 CALLDATASIZE PUSH1 0x3 NOT ADD SLT PUSH2 0x197 JUMPI PUSH1 0x20 PUSH2 0x2A18 PUSH2 0x2A0F PUSH2 0x2A20 JUMP JUMPDEST PUSH1 0x24 CALLDATALOAD SWAP1 PUSH2 0x2DF1 JUMP JUMPDEST PUSH1 0x40 MLOAD SWAP1 DUP2 MSTORE RETURN JUMPDEST PUSH1 0x4 CALLDATALOAD SWAP1 PUSH1 0x1 PUSH1 0x1 PUSH1 0xA0 SHL SUB DUP3 AND DUP3 SUB PUSH2 0x197 JUMPI JUMP JUMPDEST PUSH1 0x24 CALLDATALOAD SWAP1 PUSH1 0x1 PUSH1 0x1 PUSH1 0xA0 SHL SUB DUP3 AND DUP3 SUB PUSH2 0x197 JUMPI JUMP JUMPDEST PUSH1 0x0 JUMPDEST DUP4 DUP2 LT PUSH2 0x2A5F JUMPI POP POP PUSH1 0x0 SWAP2 ADD MSTORE JUMP JUMPDEST DUP2 DUP2 ADD MLOAD DUP4 DUP3 ADD MSTORE PUSH1 0x20 ADD PUSH2 0x2A4F JUMP JUMPDEST SWAP1 PUSH1 0x20 SWAP2 PUSH2 0x2A88 DUP2 MLOAD DUP1 SWAP3 DUP2 DUP6 MSTORE DUP6 DUP1 DUP7 ADD SWAP2 ADD PUSH2 0x2A4C JUMP JUMPDEST PUSH1 0x1F ADD PUSH1 0x1F NOT AND ADD ADD SWAP1 JUMP JUMPDEST PUSH1 0x40 SWAP1 PUSH1 0x3 NOT ADD SLT PUSH2 0x197 JUMPI PUSH1 0x4 CALLDATALOAD SWAP1 PUSH1 0x24 CALLDATALOAD SWAP1 JUMP JUMPDEST PUSH2 0x140 DUP2 ADD SWAP1 DUP2 LT PUSH1 0x1 PUSH1 0x1 PUSH1 0x40 SHL SUB DUP3 GT OR PUSH2 0x1E46 JUMPI PUSH1 0x40 MSTORE JUMP JUMPDEST PUSH1 0x40 DUP2 ADD SWAP1 DUP2 LT PUSH1 0x1 PUSH1 0x1 PUSH1 0x40 SHL SUB DUP3 GT OR PUSH2 0x1E46 JUMPI PUSH1 0x40 MSTORE JUMP JUMPDEST PUSH1 0x60 DUP2 ADD SWAP1 DUP2 LT PUSH1 0x1 PUSH1 0x1 PUSH1 0x40 SHL SUB DUP3 GT OR PUSH2 0x1E46 JUMPI PUSH1 0x40 MSTORE JUMP JUMPDEST PUSH1 0x20 DUP2 ADD SWAP1 DUP2 LT PUSH1 0x1 PUSH1 0x1 PUSH1 0x40 SHL SUB DUP3 GT OR PUSH2 0x1E46 JUMPI PUSH1 0x40 MSTORE JUMP JUMPDEST SWAP1 PUSH1 0x1F DUP1 NOT SWAP2 ADD AND DUP2 ADD SWAP1 DUP2 LT PUSH1 0x1 PUSH1 0x1 PUSH1 0x40 SHL SUB DUP3 GT OR PUSH2 0x1E46 JUMPI PUSH1 0x40 MSTORE JUMP JUMPDEST PUSH1 0x1 PUSH1 0x1 PUSH1 0x40 SHL SUB DUP2 GT PUSH2 0x1E46 JUMPI PUSH1 0x5 SHL PUSH1 0x20 ADD SWAP1 JUMP JUMPDEST SWAP3 SWAP2 PUSH2 0x2B5A DUP3 PUSH2 0x2B38 JUMP JUMPDEST SWAP2 PUSH2 0x2B68 PUSH1 0x40 MLOAD SWAP4 DUP5 PUSH2 0x2B17 JUMP JUMPDEST DUP3 SWAP5 DUP2 DUP5 MSTORE PUSH1 0x20 DUP1 SWAP5 ADD SWAP2 PUSH1 0x5 SHL DUP2 ADD SWAP3 DUP4 GT PUSH2 0x197 JUMPI SWAP1 JUMPDEST DUP3 DUP3 LT PUSH2 0x2B8E JUMPI POP POP POP POP JUMP JUMPDEST DUP2 CALLDATALOAD DUP2 MSTORE SWAP1 DUP4 ADD SWAP1 DUP4 ADD PUSH2 0x2B81 JUMP JUMPDEST SWAP1 DUP1 PUSH1 0x1F DUP4 ADD SLT ISZERO PUSH2 0x197 JUMPI DUP2 PUSH1 0x20 PUSH2 0x2BB8 SWAP4 CALLDATALOAD SWAP2 ADD PUSH2 0x2B4F JUMP JUMPDEST SWAP1 JUMP JUMPDEST PUSH1 0x1 PUSH1 0x1 PUSH1 0x40 SHL SUB DUP2 GT PUSH2 0x1E46 JUMPI PUSH1 0x1F ADD PUSH1 0x1F NOT AND PUSH1 0x20 ADD SWAP1 JUMP JUMPDEST SWAP3 SWAP2 SWAP3 PUSH2 0x2BE2 DUP3 PUSH2 0x2BBB JUMP JUMPDEST SWAP2 PUSH2 0x2BF0 PUSH1 0x40 MLOAD SWAP4 DUP5 PUSH2 0x2B17 JUMP JUMPDEST DUP3 SWAP5 DUP2 DUP5 MSTORE DUP2 DUP4 ADD GT PUSH2 0x197 JUMPI DUP3 DUP2 PUSH1 0x20 SWAP4 DUP5 PUSH1 0x0 SWAP7 ADD CALLDATACOPY ADD ADD MSTORE JUMP JUMPDEST SWAP1 DUP1 PUSH1 0x1F DUP4 ADD SLT ISZERO PUSH2 0x197 JUMPI DUP2 PUSH1 0x20 PUSH2 0x2BB8 SWAP4 CALLDATALOAD SWAP2 ADD PUSH2 0x2BD6 JUMP JUMPDEST SWAP2 DUP2 PUSH1 0x1F DUP5 ADD SLT ISZERO PUSH2 0x197 JUMPI DUP3 CALLDATALOAD SWAP2 PUSH1 0x1 PUSH1 0x1 PUSH1 0x40 SHL SUB DUP4 GT PUSH2 0x197 JUMPI PUSH1 0x20 DUP4 DUP2 DUP7 ADD SWAP6 ADD ADD GT PUSH2 0x197 JUMPI JUMP JUMPDEST SWAP1 DUP2 MLOAD DUP1 DUP3 MSTORE PUSH1 0x20 DUP1 DUP1 SWAP4 ADD SWAP4 ADD SWAP2 PUSH1 0x0 JUMPDEST DUP3 DUP2 LT PUSH2 0x2C75 JUMPI POP POP POP POP SWAP1 JUMP JUMPDEST DUP4 MLOAD DUP6 MSTORE SWAP4 DUP2 ADD SWAP4 SWAP3 DUP2 ADD SWAP3 PUSH1 0x1 ADD PUSH2 0x2C67 JUMP JUMPDEST SWAP1 PUSH1 0x1 DUP3 DUP2 SHR SWAP3 AND DUP1 ISZERO PUSH2 0x2CB9 JUMPI JUMPDEST PUSH1 0x20 DUP4 LT EQ PUSH2 0x2CA3 JUMPI JUMP JUMPDEST PUSH4 0x4E487B71 PUSH1 0xE0 SHL PUSH1 0x0 MSTORE PUSH1 0x22 PUSH1 0x4 MSTORE PUSH1 0x24 PUSH1 0x0 REVERT JUMPDEST SWAP2 PUSH1 0x7F AND SWAP2 PUSH2 0x2C98 JUMP JUMPDEST SWAP1 PUSH1 0x40 MLOAD SWAP2 DUP3 PUSH1 0x0 DUP3 SLOAD SWAP3 PUSH2 0x2CD7 DUP5 PUSH2 0x2C89 JUMP JUMPDEST SWAP1 DUP2 DUP5 MSTORE PUSH1 0x1 SWAP5 DUP6 DUP2 AND SWAP1 DUP2 PUSH1 0x0 EQ PUSH2 0x2D46 JUMPI POP PUSH1 0x1 EQ PUSH2 0x2D03 JUMPI JUMPDEST POP POP PUSH2 0x2D01 SWAP3 POP SUB DUP4 PUSH2 0x2B17 JUMP JUMPDEST JUMP JUMPDEST SWAP1 SWAP4 SWAP2 POP PUSH1 0x0 MSTORE PUSH1 0x20 SWAP1 DUP2 PUSH1 0x0 KECCAK256 SWAP4 PUSH1 0x0 SWAP2 JUMPDEST DUP2 DUP4 LT PUSH2 0x2D2E JUMPI POP POP PUSH2 0x2D01 SWAP4 POP DUP3 ADD ADD CODESIZE DUP1 PUSH2 0x2CF3 JUMP JUMPDEST DUP6 SLOAD DUP9 DUP5 ADD DUP6 ADD MSTORE SWAP5 DUP6 ADD SWAP5 DUP8 SWAP5 POP SWAP2 DUP4 ADD SWAP2 PUSH2 0x2D16 JUMP JUMPDEST SWAP2 POP POP PUSH2 0x2D01 SWAP5 POP PUSH1 0x20 SWAP3 POP PUSH1 0xFF NOT AND DUP3 DUP5 ADD MSTORE ISZERO ISZERO PUSH1 0x5 SHL DUP3 ADD ADD CODESIZE DUP1 PUSH2 0x2CF3 JUMP JUMPDEST SWAP2 DUP2 PUSH1 0x1F DUP5 ADD SLT ISZERO PUSH2 0x197 JUMPI DUP3 CALLDATALOAD SWAP2 PUSH1 0x1 PUSH1 0x1 PUSH1 0x40 SHL SUB DUP4 GT PUSH2 0x197 JUMPI PUSH1 0x20 DUP1 DUP6 ADD SWAP5 DUP5 PUSH1 0x5 SHL ADD ADD GT PUSH2 0x197 JUMPI JUMP JUMPDEST PUSH1 0x5 SLOAD PUSH1 0x1 PUSH1 0x1 PUSH1 0xA0 SHL SUB AND CALLER SUB PUSH2 0x2DAD JUMPI JUMP JUMPDEST PUSH1 0x64 PUSH1 0x40 MLOAD PUSH3 0x461BCD PUSH1 0xE5 SHL DUP2 MSTORE PUSH1 0x20 PUSH1 0x4 DUP3 ADD MSTORE PUSH1 0x20 PUSH1 0x24 DUP3 ADD MSTORE PUSH32 0x4F776E61626C653A2063616C6C6572206973206E6F7420746865206F776E6572 PUSH1 0x44 DUP3 ADD MSTORE REVERT JUMPDEST PUSH1 0x1 PUSH1 0x1 PUSH1 0xA0 SHL SUB AND SWAP1 DUP2 ISZERO PUSH2 0x2E1E JUMPI PUSH1 0x0 MSTORE PUSH1 0x0 PUSH1 0x20 MSTORE PUSH1 0x40 PUSH1 0x0 KECCAK256 SWAP1 PUSH1 0x0 MSTORE PUSH1 0x20 MSTORE PUSH1 0x40 PUSH1 0x0 KECCAK256 SLOAD SWAP1 JUMP JUMPDEST PUSH1 0x40 MLOAD PUSH3 0x461BCD PUSH1 0xE5 SHL DUP2 MSTORE PUSH1 0x20 PUSH1 0x4 DUP3 ADD MSTORE PUSH1 0x2A PUSH1 0x24 DUP3 ADD MSTORE PUSH32 0x455243313135353A2061646472657373207A65726F206973206E6F7420612076 PUSH1 0x44 DUP3 ADD MSTORE PUSH10 0x30B634B21037BBB732B9 PUSH1 0xB1 SHL PUSH1 0x64 DUP3 ADD MSTORE PUSH1 0x84 SWAP1 REVERT JUMPDEST PUSH1 0x0 NOT DUP2 EQ PUSH2 0x2916 JUMPI PUSH1 0x1 ADD SWAP1 JUMP JUMPDEST DUP1 MLOAD DUP3 LT ISZERO PUSH2 0x292C JUMPI PUSH1 0x20 SWAP2 PUSH1 0x5 SHL ADD ADD SWAP1 JUMP JUMPDEST ISZERO PUSH2 0x2EA0 JUMPI JUMP JUMPDEST PUSH1 0x40 MLOAD PUSH3 0x461BCD PUSH1 0xE5 SHL DUP2 MSTORE PUSH1 0x20 PUSH1 0x4 DUP3 ADD MSTORE PUSH1 0x2E PUSH1 0x24 DUP3 ADD MSTORE PUSH32 0x455243313135353A2063616C6C6572206973206E6F7420746F6B656E206F776E PUSH1 0x44 DUP3 ADD MSTORE PUSH14 0x195C881BDC88185C1C1C9BDD9959 PUSH1 0x92 SHL PUSH1 0x64 DUP3 ADD MSTORE PUSH1 0x84 SWAP1 REVERT JUMPDEST ISZERO PUSH2 0x2F03 JUMPI JUMP JUMPDEST PUSH1 0x40 MLOAD PUSH3 0x461BCD PUSH1 0xE5 SHL DUP2 MSTORE PUSH1 0x20 PUSH1 0x4 DUP3 ADD MSTORE PUSH1 0x25 PUSH1 0x24 DUP3 ADD MSTORE PUSH32 0x455243313135353A207472616E7366657220746F20746865207A65726F206164 PUSH1 0x44 DUP3 ADD MSTORE PUSH5 0x6472657373 PUSH1 0xD8 SHL PUSH1 0x64 DUP3 ADD MSTORE PUSH1 0x84 SWAP1 REVERT JUMPDEST ISZERO PUSH2 0x2F5D JUMPI JUMP JUMPDEST PUSH1 0x40 MLOAD PUSH3 0x461BCD PUSH1 0xE5 SHL DUP2 MSTORE PUSH1 0x20 PUSH1 0x4 DUP3 ADD MSTORE PUSH1 0x2A PUSH1 0x24 DUP3 ADD MSTORE PUSH32 0x455243313135353A20696E73756666696369656E742062616C616E636520666F PUSH1 0x44 DUP3 ADD MSTORE PUSH10 0x39103A3930B739B332B9 PUSH1 0xB1 SHL PUSH1 0x64 DUP3 ADD MSTORE PUSH1 0x84 SWAP1 REVERT JUMPDEST SWAP2 SWAP1 DUP3 ADD DUP1 SWAP3 GT PUSH2 0x2916 JUMPI JUMP JUMPDEST SWAP2 SWAP3 SWAP1 SWAP4 PUSH1 0x1 DUP1 PUSH1 0xA0 SHL SUB DUP1 DUP7 AND SWAP1 DUP2 ISZERO ISZERO SWAP5 PUSH2 0x2FDE DUP7 PUSH2 0x2EFC JUMP JUMPDEST PUSH2 0x2FE7 DUP8 PUSH2 0x34E9 JUMP JUMPDEST SWAP2 DUP1 PUSH2 0x2FF2 DUP8 PUSH2 0x34E9 JUMP JUMPDEST SWAP3 AND SWAP7 DUP8 ISZERO ISZERO SWAP1 DUP2 PUSH2 0x3315 JUMPI JUMPDEST POP PUSH2 0x31B6 JUMPI JUMPDEST POP POP POP PUSH1 0x0 SWAP3 DUP6 DUP5 MSTORE PUSH1 0x20 SWAP6 DUP5 DUP8 MSTORE PUSH1 0x40 SWAP8 DUP9 DUP7 KECCAK256 DUP8 DUP8 MSTORE DUP9 MSTORE DUP3 DUP10 DUP8 KECCAK256 SLOAD PUSH2 0x3030 DUP3 DUP3 LT ISZERO PUSH2 0x2F56 JUMP JUMPDEST DUP4 DUP9 MSTORE DUP8 DUP11 MSTORE DUP11 DUP9 KECCAK256 DUP10 DUP10 MSTORE DUP11 MSTORE SUB DUP10 DUP8 KECCAK256 SSTORE DUP2 DUP7 MSTORE DUP6 DUP9 MSTORE DUP9 DUP7 KECCAK256 DUP5 DUP8 MSTORE DUP9 MSTORE DUP9 DUP7 KECCAK256 PUSH2 0x305F DUP5 DUP3 SLOAD PUSH2 0x2FB5 JUMP JUMPDEST SWAP1 SSTORE DUP4 DUP8 DUP11 MLOAD DUP5 DUP2 MSTORE DUP6 DUP12 DUP3 ADD MSTORE PUSH32 0xC3D58168C5AE7397731D063D5BBF3D657854427343F4C083240F7AACAA2D0F62 DUP13 CALLER SWAP3 LOG4 EXTCODESIZE PUSH2 0x30A2 JUMPI JUMPDEST POP POP POP POP POP POP POP POP JUMP JUMPDEST SWAP2 DUP5 SWAP4 SWAP2 PUSH2 0x30EA SWAP6 DUP9 SWAP10 SWAP11 SWAP9 SWAP5 DUP12 MLOAD SWAP8 DUP9 SWAP6 DUP7 SWAP5 DUP6 SWAP4 PUSH4 0xF23A6E61 PUSH1 0xE0 SHL SWAP13 DUP14 DUP7 MSTORE CALLER PUSH1 0x4 DUP8 ADD MSTORE PUSH1 0x24 DUP7 ADD MSTORE PUSH1 0x44 DUP6 ADD MSTORE PUSH1 0x64 DUP5 ADD MSTORE PUSH1 0xA0 PUSH1 0x84 DUP5 ADD MSTORE PUSH1 0xA4 DUP4 ADD SWAP1 PUSH2 0x2A6F JUMP JUMPDEST SUB SWAP3 GAS CALL SWAP1 SWAP2 DUP2 PUSH2 0x3197 JUMPI JUMPDEST POP PUSH2 0x315D JUMPI POP POP POP PUSH2 0x3106 PUSH2 0x3408 JUMP JUMPDEST PUSH4 0x8C379A0 EQ PUSH2 0x3129 JUMPI JUMPDEST POP MLOAD PUSH3 0x461BCD PUSH1 0xE5 SHL DUP2 MSTORE DUP1 PUSH2 0x86C PUSH1 0x4 DUP3 ADD PUSH2 0x3494 JUMP JUMPDEST PUSH2 0x3131 PUSH2 0x3426 JUMP JUMPDEST SWAP1 DUP2 PUSH2 0x313D JUMPI POP PUSH2 0x3111 JUMP JUMPDEST PUSH2 0x86C DUP4 MLOAD SWAP3 DUP4 SWAP3 PUSH3 0x461BCD PUSH1 0xE5 SHL DUP5 MSTORE PUSH1 0x4 DUP5 ADD MSTORE PUSH1 0x24 DUP4 ADD SWAP1 PUSH2 0x2A6F JUMP JUMPDEST SWAP2 SWAP4 SWAP3 POP PUSH1 0x1 PUSH1 0x1 PUSH1 0xE0 SHL SUB NOT SWAP1 SWAP2 AND SUB PUSH2 0x3180 JUMPI POP CODESIZE DUP1 DUP1 DUP1 DUP1 DUP1 DUP1 DUP1 PUSH2 0x3098 JUMP JUMPDEST MLOAD PUSH3 0x461BCD PUSH1 0xE5 SHL DUP2 MSTORE DUP1 PUSH2 0x86C PUSH1 0x4 DUP3 ADD PUSH2 0x33BF JUMP JUMPDEST PUSH2 0x31AF SWAP2 SWAP3 POP DUP6 RETURNDATASIZE DUP8 GT PUSH2 0x926 JUMPI PUSH2 0x917 DUP2 DUP4 PUSH2 0x2B17 JUMP JUMPDEST SWAP1 CODESIZE PUSH2 0x30F6 JUMP JUMPDEST SWAP5 SWAP1 SWAP6 SWAP7 SWAP2 SWAP9 SWAP4 PUSH1 0x0 SWAP9 SWAP4 SWAP9 JUMPDEST DUP11 MLOAD DUP2 LT ISZERO PUSH2 0x3303 JUMPI DUP1 DUP10 DUP10 DUP3 DUP15 PUSH2 0x31DE PUSH2 0x321A SWAP7 DUP3 PUSH2 0x2E85 JUMP JUMPDEST MLOAD PUSH1 0x0 MSTORE DUP12 PUSH1 0xA PUSH1 0x20 SWAP1 DUP1 DUP3 MSTORE PUSH1 0x40 SWAP3 DUP4 PUSH1 0x0 KECCAK256 DUP9 PUSH1 0x0 MSTORE DUP4 MSTORE DUP8 DUP5 PUSH1 0x0 KECCAK256 SWAP2 DUP3 SLOAD AND EQ DUP1 PUSH2 0x32F6 JUMPI JUMPDEST PUSH2 0x321F JUMPI JUMPDEST POP POP POP POP POP POP POP POP PUSH2 0x2E76 JUMP JUMPDEST PUSH2 0x31C3 JUMP JUMPDEST PUSH2 0x3229 DUP7 DUP9 PUSH2 0x2E85 JUMP JUMPDEST MLOAD PUSH1 0x2 DUP3 DUP2 ADD DUP1 SLOAD SWAP2 SWAP10 SWAP1 SWAP3 DUP3 GT PUSH2 0x32A5 JUMPI POP POP POP POP SWAP2 PUSH2 0x3271 SWAP6 SWAP2 PUSH1 0x0 SWAP4 PUSH2 0x3252 DUP8 DUP8 PUSH2 0x2E85 JUMP JUMPDEST MLOAD DUP6 MSTORE DUP2 MSTORE DUP2 DUP5 KECCAK256 SWAP1 DUP9 DUP6 MSTORE MSTORE DUP3 KECCAK256 DUP3 DUP2 SSTORE DUP3 PUSH1 0x1 DUP3 ADD SSTORE ADD SSTORE PUSH2 0x2E85 JUMP JUMPDEST MLOAD PUSH32 0x8E25282255AB31897DF2B0456BB993AC7F84D376861AEFD84901D2D63A7428A2 PUSH1 0x0 DUP1 LOG3 JUMPDEST DUP10 DUP10 DUP3 DUP15 CODESIZE DUP1 DUP1 DUP1 PUSH2 0x320D JUMP JUMPDEST PUSH2 0x32E3 SWAP4 SWAP10 POP PUSH1 0x1 SWAP5 POP DUP9 SWAP3 SWAP6 SWAP7 SWAP8 SWAP2 PUSH2 0x24D5 PUSH32 0x36E94395FAFCB0D2A9BCFCDD5CEF807AB52A1F4382906992EBDC18DE5F1472C4 SWAP11 PUSH2 0x24DC SWAP4 PUSH2 0x2E85 JUMP JUMPDEST MLOAD SWAP6 ADD SLOAD SWAP2 DUP4 MLOAD SWAP3 DUP4 MSTORE DUP3 ADD MSTORE LOG3 PUSH2 0x3298 JUMP JUMPDEST POP PUSH1 0x2 DUP2 ADD SLOAD ISZERO ISZERO PUSH2 0x3208 JUMP JUMPDEST POP SWAP4 SWAP9 POP SWAP4 POP SWAP5 SWAP4 POP SWAP5 CODESIZE DUP1 DUP1 PUSH2 0x3005 JUMP JUMPDEST SWAP1 POP CODESIZE PUSH2 0x2FFF JUMP JUMPDEST ISZERO PUSH2 0x3324 JUMPI JUMP JUMPDEST PUSH1 0x40 MLOAD PUSH3 0x461BCD PUSH1 0xE5 SHL DUP2 MSTORE PUSH1 0x20 PUSH1 0x4 DUP3 ADD MSTORE PUSH1 0x28 PUSH1 0x24 DUP3 ADD MSTORE PUSH32 0x455243313135353A2069647320616E6420616D6F756E7473206C656E67746820 PUSH1 0x44 DUP3 ADD MSTORE PUSH8 0xDAD2E6DAC2E8C6D PUSH1 0xC3 SHL PUSH1 0x64 DUP3 ADD MSTORE PUSH1 0x84 SWAP1 REVERT JUMPDEST SWAP1 SWAP2 PUSH2 0x3391 PUSH2 0x2BB8 SWAP4 PUSH1 0x40 DUP5 MSTORE PUSH1 0x40 DUP5 ADD SWAP1 PUSH2 0x2C55 JUMP JUMPDEST SWAP2 PUSH1 0x20 DUP2 DUP5 SUB SWAP2 ADD MSTORE PUSH2 0x2C55 JUMP JUMPDEST SWAP1 DUP2 PUSH1 0x20 SWAP2 SUB SLT PUSH2 0x197 JUMPI MLOAD PUSH1 0x1 PUSH1 0x1 PUSH1 0xE0 SHL SUB NOT DUP2 AND DUP2 SUB PUSH2 0x197 JUMPI SWAP1 JUMP JUMPDEST PUSH1 0x80 SWAP1 PUSH1 0x20 DUP2 MSTORE PUSH1 0x28 PUSH1 0x20 DUP3 ADD MSTORE PUSH32 0x455243313135353A204552433131353552656365697665722072656A65637465 PUSH1 0x40 DUP3 ADD MSTORE PUSH8 0x6420746F6B656E73 PUSH1 0xC0 SHL PUSH1 0x60 DUP3 ADD MSTORE ADD SWAP1 JUMP JUMPDEST PUSH1 0x0 SWAP1 PUSH1 0x3 RETURNDATASIZE GT PUSH2 0x3415 JUMPI JUMP JUMPDEST SWAP1 POP PUSH1 0x4 PUSH1 0x0 DUP1 RETURNDATACOPY PUSH1 0x0 MLOAD PUSH1 0xE0 SHR SWAP1 JUMP JUMPDEST PUSH1 0x0 PUSH1 0x44 RETURNDATASIZE LT PUSH2 0x2BB8 JUMPI PUSH1 0x40 MLOAD PUSH1 0x3 NOT SWAP2 RETURNDATASIZE DUP4 ADD PUSH1 0x4 DUP4 RETURNDATACOPY DUP2 MLOAD PUSH1 0x1 PUSH1 0x1 PUSH1 0x40 SHL SUB SWAP2 DUP3 DUP3 GT RETURNDATASIZE PUSH1 0x24 DUP5 ADD GT OR PUSH2 0x3483 JUMPI DUP2 DUP5 ADD SWAP5 DUP6 MLOAD SWAP4 DUP5 GT PUSH2 0x348B JUMPI RETURNDATASIZE DUP6 ADD ADD PUSH1 0x20 DUP5 DUP8 ADD ADD GT PUSH2 0x3483 JUMPI POP PUSH2 0x2BB8 SWAP3 SWAP2 ADD PUSH1 0x20 ADD SWAP1 PUSH2 0x2B17 JUMP JUMPDEST SWAP5 SWAP4 POP POP POP POP JUMP JUMPDEST POP SWAP5 SWAP4 POP POP POP POP JUMP JUMPDEST PUSH1 0x80 SWAP1 PUSH1 0x20 DUP2 MSTORE PUSH1 0x34 PUSH1 0x20 DUP3 ADD MSTORE PUSH32 0x455243313135353A207472616E7366657220746F206E6F6E2D45524331313535 PUSH1 0x40 DUP3 ADD MSTORE PUSH20 0x2932B1B2B4BB32B91034B6B83632B6B2B73A32B9 PUSH1 0x61 SHL PUSH1 0x60 DUP3 ADD MSTORE ADD SWAP1 JUMP JUMPDEST PUSH1 0x40 MLOAD SWAP1 PUSH2 0x34F6 DUP3 PUSH2 0x2AC6 JUMP JUMPDEST PUSH1 0x1 DUP3 MSTORE PUSH1 0x20 DUP3 ADD PUSH1 0x20 CALLDATASIZE DUP3 CALLDATACOPY DUP3 MLOAD ISZERO PUSH2 0x292C JUMPI MSTORE SWAP1 JUMP JUMPDEST PUSH1 0x40 MLOAD SWAP1 PUSH2 0x351B DUP3 PUSH2 0x2AC6 JUMP JUMPDEST PUSH1 0x3 SLOAD PUSH1 0x1 PUSH1 0x1 PUSH1 0xA0 SHL SUB DUP2 AND DUP4 MSTORE PUSH1 0xA0 SHR PUSH1 0x20 DUP4 ADD MSTORE JUMP JUMPDEST SWAP1 PUSH1 0x40 MLOAD PUSH2 0x3541 DUP2 PUSH2 0x2AC6 JUMP JUMPDEST SWAP2 SLOAD PUSH1 0x1 PUSH1 0x1 PUSH1 0xA0 SHL SUB DUP2 AND DUP4 MSTORE PUSH1 0xA0 SHR PUSH1 0x20 DUP4 ADD MSTORE JUMP JUMPDEST DUP2 DUP2 MUL SWAP3 SWAP2 DUP2 ISZERO SWAP2 DUP5 DIV EQ OR ISZERO PUSH2 0x2916 JUMPI JUMP JUMPDEST SWAP2 SWAP1 SWAP2 PUSH1 0x0 MSTORE PUSH1 0x4 PUSH1 0x20 MSTORE PUSH2 0x3584 PUSH1 0x40 PUSH1 0x0 KECCAK256 PUSH2 0x3534 JUMP JUMPDEST DUP1 MLOAD SWAP1 SWAP3 PUSH1 0x1 PUSH1 0x1 PUSH1 0xA0 SHL SUB SWAP2 DUP3 AND ISZERO PUSH2 0x35BC JUMPI JUMPDEST PUSH2 0x35B4 PUSH2 0x2710 SWAP2 PUSH1 0x1 PUSH1 0x1 PUSH1 0x60 SHL SUB PUSH1 0x20 DUP8 ADD MLOAD AND SWAP1 PUSH2 0x3559 JUMP JUMPDEST DIV SWAP3 MLOAD AND SWAP2 SWAP1 JUMP JUMPDEST SWAP3 POP PUSH2 0x2710 PUSH2 0x35B4 PUSH2 0x35CC PUSH2 0x350E JUMP JUMPDEST SWAP5 SWAP2 POP POP PUSH2 0x3599 JUMP JUMPDEST SWAP1 PUSH1 0x1F DUP2 GT PUSH2 0x35E3 JUMPI POP POP POP JUMP JUMPDEST PUSH1 0x0 SWAP2 DUP3 MSTORE PUSH1 0x20 DUP3 KECCAK256 SWAP1 PUSH1 0x20 PUSH1 0x1F DUP6 ADD PUSH1 0x5 SHR DUP4 ADD SWAP5 LT PUSH2 0x361F JUMPI JUMPDEST PUSH1 0x1F ADD PUSH1 0x5 SHR ADD SWAP2 JUMPDEST DUP3 DUP2 LT PUSH2 0x3614 JUMPI POP POP POP JUMP JUMPDEST DUP2 DUP2 SSTORE PUSH1 0x1 ADD PUSH2 0x3608 JUMP JUMPDEST SWAP1 SWAP3 POP DUP3 SWAP1 PUSH2 0x35FF JUMP JUMPDEST PUSH1 0xFF PUSH1 0x7 SLOAD AND PUSH2 0x3635 JUMPI JUMP JUMPDEST PUSH1 0x40 MLOAD PUSH3 0x461BCD PUSH1 0xE5 SHL DUP2 MSTORE PUSH1 0x20 PUSH1 0x4 DUP3 ADD MSTORE PUSH1 0x10 PUSH1 0x24 DUP3 ADD MSTORE PUSH16 0x14185D5CD8589B194E881C185D5CD959 PUSH1 0x82 SHL PUSH1 0x44 DUP3 ADD MSTORE PUSH1 0x64 SWAP1 REVERT JUMPDEST SWAP2 SWAP1 DUP3 SUB SWAP2 DUP3 GT PUSH2 0x2916 JUMPI JUMP JUMPDEST SWAP2 SWAP1 DUP2 LT ISZERO PUSH2 0x292C JUMPI PUSH1 0x5 SHL ADD SWAP1 JUMP JUMPDEST RETURNDATASIZE ISZERO PUSH2 0x36B5 JUMPI RETURNDATASIZE SWAP1 PUSH2 0x369B DUP3 PUSH2 0x2BBB JUMP JUMPDEST SWAP2 PUSH2 0x36A9 PUSH1 0x40 MLOAD SWAP4 DUP5 PUSH2 0x2B17 JUMP JUMPDEST DUP3 MSTORE RETURNDATASIZE PUSH1 0x0 PUSH1 0x20 DUP5 ADD RETURNDATACOPY JUMP JUMPDEST PUSH1 0x60 SWAP1 JUMP JUMPDEST DUP2 DUP4 MSTORE SWAP1 SWAP2 PUSH1 0x1 PUSH1 0x1 PUSH1 0xFB SHL SUB DUP4 GT PUSH2 0x197 JUMPI PUSH1 0x20 SWAP3 PUSH1 0x5 SHL DUP1 SWAP3 DUP5 DUP4 ADD CALLDATACOPY ADD ADD SWAP1 JUMP JUMPDEST PUSH1 0x2 PUSH1 0x6 SLOAD EQ PUSH2 0x36EF JUMPI PUSH1 0x2 PUSH1 0x6 SSTORE JUMP JUMPDEST PUSH1 0x40 MLOAD PUSH3 0x461BCD PUSH1 0xE5 SHL DUP2 MSTORE PUSH1 0x20 PUSH1 0x4 DUP3 ADD MSTORE PUSH1 0x1F PUSH1 0x24 DUP3 ADD MSTORE PUSH32 0x5265656E7472616E637947756172643A207265656E7472616E742063616C6C00 PUSH1 0x44 DUP3 ADD MSTORE PUSH1 0x64 SWAP1 REVERT JUMPDEST ISZERO PUSH2 0x373B JUMPI JUMP JUMPDEST PUSH1 0x40 MLOAD PUSH3 0x461BCD PUSH1 0xE5 SHL DUP2 MSTORE PUSH1 0x20 PUSH1 0x4 DUP3 ADD MSTORE PUSH1 0x21 PUSH1 0x24 DUP3 ADD MSTORE PUSH32 0x455243313135353A206D696E7420746F20746865207A65726F20616464726573 PUSH1 0x44 DUP3 ADD MSTORE PUSH1 0x73 PUSH1 0xF8 SHL PUSH1 0x64 DUP3 ADD MSTORE PUSH1 0x84 SWAP1 REVERT JUMPDEST SWAP1 PUSH2 0x3794 DUP3 PUSH2 0x2BBB JUMP JUMPDEST PUSH2 0x37A1 PUSH1 0x40 MLOAD SWAP2 DUP3 PUSH2 0x2B17 JUMP JUMPDEST DUP3 DUP2 MSTORE DUP1 SWAP3 PUSH2 0x37B2 PUSH1 0x1F NOT SWAP2 PUSH2 0x2BBB JUMP JUMPDEST ADD SWAP1 PUSH1 0x20 CALLDATASIZE SWAP2 ADD CALLDATACOPY JUMP JUMPDEST DUP1 MLOAD ISZERO PUSH2 0x38EE JUMPI PUSH1 0x40 MLOAD PUSH2 0x37CF DUP2 PUSH2 0x2AE1 JUMP JUMPDEST PUSH1 0x40 DUP2 MSTORE PUSH32 0x4142434445464748494A4B4C4D4E4F505152535455565758595A616263646566 PUSH1 0x20 DUP3 ADD MSTORE PUSH32 0x6768696A6B6C6D6E6F707172737475767778797A303132333435363738392B2F PUSH1 0x40 DUP3 ADD MSTORE DUP2 MLOAD PUSH1 0x2 SWAP3 DUP4 DUP3 ADD DUP1 SWAP3 GT PUSH2 0x2916 JUMPI PUSH1 0x3 SWAP2 DUP3 SWAP1 DIV PUSH1 0x1 PUSH1 0x1 PUSH1 0xFE SHL SUB DUP2 AND DUP2 SUB PUSH2 0x2916 JUMPI PUSH2 0x3851 SWAP1 DUP6 SWAP5 SWAP6 SHL PUSH2 0x378A JUMP JUMPDEST SWAP4 PUSH1 0x20 DUP6 ADD SWAP4 DUP3 SWAP2 DUP4 MLOAD DUP5 ADD SWAP3 JUMPDEST DUP4 DUP2 LT PUSH2 0x389D JUMPI POP POP POP POP MLOAD MOD DUP1 PUSH1 0x1 EQ PUSH2 0x388A JUMPI PUSH1 0x2 EQ PUSH2 0x387F JUMPI POP SWAP1 JUMP JUMPDEST PUSH1 0x3D SWAP1 PUSH1 0x0 NOT ADD MSTORE8 SWAP1 JUMP JUMPDEST POP PUSH1 0x3D SWAP1 DUP2 PUSH1 0x0 NOT DUP3 ADD MSTORE8 PUSH1 0x1 NOT ADD MSTORE8 SWAP1 JUMP JUMPDEST DUP6 PUSH1 0x4 SWAP2 SWAP8 SWAP3 SWAP4 SWAP5 SWAP8 ADD SWAP2 DUP3 MLOAD PUSH1 0x1 SWAP1 PUSH1 0x3F SWAP1 DUP3 DUP3 DUP3 PUSH1 0x12 SHR AND DUP9 ADD ADD MLOAD DUP5 MSTORE8 DUP3 DUP3 DUP3 PUSH1 0xC SHR AND DUP9 ADD ADD MLOAD DUP4 DUP6 ADD MSTORE8 DUP3 DUP3 DUP3 PUSH1 0x6 SHR AND DUP9 ADD ADD MLOAD DUP9 DUP6 ADD MSTORE8 AND DUP6 ADD ADD MLOAD DUP8 DUP3 ADD MSTORE8 ADD SWAP6 SWAP3 SWAP2 SWAP1 PUSH2 0x385F JUMP JUMPDEST POP PUSH1 0x40 MLOAD PUSH2 0x38FB DUP2 PUSH2 0x2AFC JUMP JUMPDEST PUSH1 0x0 DUP2 MSTORE SWAP1 JUMP JUMPDEST DUP1 PUSH1 0x0 SWAP2 PUSH27 0x184F03E93FF9F4DAA797ED6E38ED64BF6A1F010000000000000000 DUP1 DUP3 LT ISZERO PUSH2 0x3A37 JUMPI JUMPDEST POP PUSH14 0x4EE2D6D415B85ACEF8100000000 DUP1 DUP4 LT ISZERO PUSH2 0x3A28 JUMPI JUMPDEST POP PUSH7 0x2386F26FC10000 DUP1 DUP4 LT ISZERO PUSH2 0x3A19 JUMPI JUMPDEST POP PUSH4 0x5F5E100 DUP1 DUP4 LT ISZERO PUSH2 0x3A0A JUMPI JUMPDEST POP PUSH2 0x2710 DUP1 DUP4 LT ISZERO PUSH2 0x39FB JUMPI JUMPDEST POP PUSH1 0x64 DUP3 LT ISZERO PUSH2 0x39EB JUMPI JUMPDEST PUSH1 0xA DUP1 SWAP3 LT ISZERO PUSH2 0x39E1 JUMPI JUMPDEST PUSH1 0x1 SWAP1 DUP2 PUSH1 0x21 PUSH2 0x3999 DUP3 DUP8 ADD PUSH2 0x378A JUMP JUMPDEST SWAP6 DUP7 ADD ADD SWAP1 JUMPDEST PUSH2 0x39AB JUMPI JUMPDEST POP POP POP POP SWAP1 JUMP JUMPDEST PUSH1 0x0 NOT ADD SWAP1 DUP4 SWAP1 PUSH16 0x181899199A1A9B1B9C1CB0B131B232B3 PUSH1 0x81 SHL DUP3 DUP3 MOD BYTE DUP4 MSTORE8 DIV SWAP2 DUP3 ISZERO PUSH2 0x39DC JUMPI SWAP2 SWAP1 DUP3 PUSH2 0x399F JUMP JUMPDEST PUSH2 0x39A4 JUMP JUMPDEST SWAP2 PUSH1 0x1 ADD SWAP2 PUSH2 0x3988 JUMP JUMPDEST SWAP2 SWAP1 PUSH1 0x64 PUSH1 0x2 SWAP2 DIV SWAP2 ADD SWAP2 PUSH2 0x397D JUMP JUMPDEST PUSH1 0x4 SWAP2 SWAP4 SWAP3 DIV SWAP2 ADD SWAP2 CODESIZE PUSH2 0x3972 JUMP JUMPDEST PUSH1 0x8 SWAP2 SWAP4 SWAP3 DIV SWAP2 ADD SWAP2 CODESIZE PUSH2 0x3965 JUMP JUMPDEST PUSH1 0x10 SWAP2 SWAP4 SWAP3 DIV SWAP2 ADD SWAP2 CODESIZE PUSH2 0x3956 JUMP JUMPDEST PUSH1 0x20 SWAP2 SWAP4 SWAP3 DIV SWAP2 ADD SWAP2 CODESIZE PUSH2 0x3944 JUMP JUMPDEST PUSH1 0x40 SWAP4 POP DUP2 DIV SWAP2 POP CODESIZE PUSH2 0x392B JUMP JUMPDEST PUSH1 0x40 SWAP1 DUP2 MLOAD SWAP1 PUSH2 0x3A54 DUP3 PUSH2 0x2AAA JUMP JUMPDEST PUSH1 0x60 SWAP1 DUP2 DUP4 MSTORE PUSH1 0x20 SWAP4 DUP3 DUP6 DUP6 ADD MSTORE DUP3 DUP2 DUP6 ADD MSTORE DUP3 DUP1 DUP6 ADD MSTORE PUSH1 0x0 SWAP5 DUP6 PUSH1 0x80 DUP7 ADD MSTORE DUP6 PUSH1 0xA0 DUP7 ADD MSTORE DUP6 PUSH1 0xC0 DUP7 ADD MSTORE DUP6 PUSH1 0xE0 DUP7 ADD MSTORE PUSH2 0x100 SWAP2 DUP7 DUP4 DUP8 ADD MSTORE DUP7 PUSH2 0x120 DUP1 SWAP8 ADD MSTORE DUP4 DUP8 MSTORE PUSH1 0x9 DUP3 MSTORE PUSH1 0x1 DUP1 PUSH1 0xA0 SHL SUB SWAP5 DUP6 DUP3 DUP10 KECCAK256 SLOAD AND ISZERO PUSH2 0x3BB4 JUMPI DUP5 DUP9 MSTORE PUSH1 0x9 DUP4 MSTORE DUP2 DUP9 KECCAK256 SWAP1 PUSH1 0x4 DUP5 MSTORE PUSH2 0x3ACC DUP4 DUP11 KECCAK256 PUSH2 0x3534 JUMP JUMPDEST DUP5 DUP9 DUP3 MLOAD AND ISZERO PUSH2 0x3B9B JUMPI JUMPDEST PUSH1 0x1 PUSH1 0x1 PUSH1 0x60 SHL SUB SWAP2 ADD MLOAD AND SWAP6 PUSH2 0x2710 DUP8 DUP2 MUL DIV DUP1 SWAP8 SUB PUSH2 0x3B87 JUMPI DUP10 MSTORE PUSH1 0xB DUP5 MSTORE DUP3 DUP1 DUP11 KECCAK256 SWAP10 PUSH1 0xC DUP7 MSTORE KECCAK256 SWAP7 DUP3 SLOAD AND SWAP1 PUSH1 0x5 DUP4 ADD SLOAD SWAP3 PUSH1 0x6 DUP2 ADD SLOAD SWAP5 PUSH1 0x7 DUP3 ADD SLOAD SWAP7 PUSH1 0x9 DUP4 ADD SLOAD PUSH1 0xFF AND SWAP11 DUP3 MLOAD DUP1 SWAP15 PUSH2 0x3B2F DUP3 PUSH2 0x2AAA JUMP JUMPDEST PUSH2 0x3B38 SWAP1 PUSH2 0x2CC3 JUMP JUMPDEST SWAP1 MSTORE PUSH2 0x3B43 SWAP1 PUSH2 0x2CC3 JUMP JUMPDEST SWAP1 DUP14 ADD MSTORE PUSH2 0x3B53 PUSH1 0x4 DUP4 ADD PUSH2 0x2CC3 JUMP JUMPDEST SWAP1 DUP13 ADD MSTORE PUSH1 0x3 ADD PUSH2 0x3B63 SWAP1 PUSH2 0x2CC3 JUMP JUMPDEST SWAP1 DUP11 ADD MSTORE PUSH1 0x80 DUP10 ADD MSTORE PUSH1 0xA0 DUP9 ADD MSTORE PUSH1 0xC0 DUP8 ADD MSTORE PUSH1 0xE0 DUP7 ADD MSTORE DUP5 ADD MSTORE ISZERO ISZERO SWAP1 DUP3 ADD MSTORE SWAP1 JUMP JUMPDEST PUSH4 0x4E487B71 PUSH1 0xE0 SHL DUP11 MSTORE PUSH1 0x11 PUSH1 0x4 MSTORE PUSH1 0x24 DUP11 REVERT JUMPDEST PUSH1 0x1 PUSH1 0x1 PUSH1 0x60 SHL SUB SWAP2 POP PUSH2 0x3BAD PUSH2 0x350E JUMP JUMPDEST SWAP2 POP PUSH2 0x3AD7 JUMP JUMPDEST DUP2 MLOAD PUSH4 0xF070CB6F PUSH1 0xE0 SHL DUP2 MSTORE PUSH1 0x4 SWAP1 REVERT INVALID LOG2 PUSH5 0x6970667358 0x22 SLT KECCAK256 0xC2 CODESIZE DUP12 0xB0 0xBC EXP 0x1F LOG2 0x49 PUSH21 0x1180FFE63737FAF469A8A90C9492B29391FEA62174 0x5C PUSH5 0x736F6C6343 STOP ADDMOD EQ STOP CALLER "},"methodIdentifiers":{"BASIS_POINTS()":"e1f1c4a7","MAX_BATCH_SIZE()":"cfdbf254","MAX_ROYALTY_BPS()":"3dca40e6","MIN_ROYALTY_BPS()":"f8349617","balanceOf(address,uint256)":"00fdd58e","balanceOfBatch(address[],uint256[])":"4e1273f4","batchMintNFTs(uint256[],uint256[])":"ecf7ba22","buyListedNFT(uint256,address,uint256)":"b6308e02","cancelListing(uint256)":"305a67a8","createMusicNFT(string,string,string,string,uint256,uint256,uint256)":"368d9b48","getAllMusicNFTs()":"f59e506f","getListing(uint256,address)":"935b74c8","getNFTMetadata(uint256)":"6be9a6f1","isApprovedForAll(address,address)":"e985e9c5","listNFT(uint256,uint256,uint256)":"b0136c8d","listings(uint256,address)":"927fbfc8","mintNFT(uint256,uint256)":"c48283ff","musicNFTs(uint256)":"5d269138","owner()":"8da5cb5b","pause()":"8456cb59","paused()":"5c975abb","renounceOwnership()":"715018a6","royaltyInfo(uint256,uint256)":"2a55205a","safeBatchTransferFrom(address,address,uint256[],uint256[],bytes)":"2eb2c2d6","safeTransferFrom(address,address,uint256,uint256,bytes)":"f242432a","setApprovalForAll(address,bool)":"a22cb465","supportsInterface(bytes4)":"01ffc9a7","toggleNFTStatus(uint256)":"9b8262fd","transferOwnership(address)":"f2fde38b","unpause()":"3f4ba83a","updateNFTPrice(uint256,uint256)":"4ac0123d","uri(uint256)":"0e89341c"}}}}}