{"@openzeppelin/contracts/token/ERC1155/ERC1155.sol":{"ERC1155":{"abi":[{"inputs":[{"internalType":"string","name":"uri_","type":"string"}],"stateMutability":"nonpayable","type":"constructor"},{"anonymous":false,"inputs":[{"indexed":true,"internalType":"address","name":"account","type":"address"},{"indexed":true,"internalType":"address","name":"operator","type":"address"},{"indexed":false,"internalType":"bool","name":"approved","type":"bool"}],"name":"ApprovalForAll","type":"event"},{"anonymous":false,"inputs":[{"indexed":true,"internalType":"address","name":"operator","type":"address"},{"indexed":true,"internalType":"address","name":"from","type":"address"},{"indexed":true,"internalType":"address","name":"to","type":"address"},{"indexed":false,"internalType":"uint256[]","name":"ids","type":"uint256[]"},{"indexed":false,"internalType":"uint256[]","name":"values","type":"uint256[]"}],"name":"TransferBatch","type":"event"},{"anonymous":false,"inputs":[{"indexed":true,"internalType":"address","name":"operator","type":"address"},{"indexed":true,"internalType":"address","name":"from","type":"address"},{"indexed":true,"internalType":"address","name":"to","type":"address"},{"indexed":false,"internalType":"uint256","name":"id","type":"uint256"},{"indexed":false,"internalType":"uint256","name":"value","type":"uint256"}],"name":"TransferSingle","type":"event"},{"anonymous":false,"inputs":[{"indexed":false,"internalType":"string","name":"value","type":"string"},{"indexed":true,"internalType":"uint256","name":"id","type":"uint256"}],"name":"URI","type":"event"},{"inputs":[{"internalType":"address","name":"account","type":"address"},{"internalType":"uint256","name":"id","type":"uint256"}],"name":"balanceOf","outputs":[{"internalType":"uint256","name":"","type":"uint256"}],"stateMutability":"view","type":"function"},{"inputs":[{"internalType":"address[]","name":"accounts","type":"address[]"},{"internalType":"uint256[]","name":"ids","type":"uint256[]"}],"name":"balanceOfBatch","outputs":[{"internalType":"uint256[]","name":"","type":"uint256[]"}],"stateMutability":"view","type":"function"},{"inputs":[{"internalType":"address","name":"account","type":"address"},{"internalType":"address","name":"operator","type":"address"}],"name":"isApprovedForAll","outputs":[{"internalType":"bool","name":"","type":"bool"}],"stateMutability":"view","type":"function"},{"inputs":[{"internalType":"address","name":"from","type":"address"},{"internalType":"address","name":"to","type":"address"},{"internalType":"uint256[]","name":"ids","type":"uint256[]"},{"internalType":"uint256[]","name":"amounts","type":"uint256[]"},{"internalType":"bytes","name":"data","type":"bytes"}],"name":"safeBatchTransferFrom","outputs":[],"stateMutability":"nonpayable","type":"function"},{"inputs":[{"internalType":"address","name":"from","type":"address"},{"internalType":"address","name":"to","type":"address"},{"internalType":"uint256","name":"id","type":"uint256"},{"internalType":"uint256","name":"amount","type":"uint256"},{"internalType":"bytes","name":"data","type":"bytes"}],"name":"safeTransferFrom","outputs":[],"stateMutability":"nonpayable","type":"function"},{"inputs":[{"internalType":"address","name":"operator","type":"address"},{"internalType":"bool","name":"approved","type":"bool"}],"name":"setApprovalForAll","outputs":[],"stateMutability":"nonpayable","type":"function"},{"inputs":[{"internalType":"bytes4","name":"interfaceId","type":"bytes4"}],"name":"supportsInterface","outputs":[{"internalType":"bool","name":"","type":"bool"}],"stateMutability":"view","type":"function"},{"inputs":[{"internalType":"uint256","name":"","type":"uint256"}],"name":"uri","outputs":[{"internalType":"string","name":"","type":"string"}],"stateMutability":"view","type":"function"}],"evm":{"bytecode":{"linkReferences":{},"object":"608060405234620002175762001226803803806200001d816200021c565b92833981019060208082840312620002175781516001600160401b039283821162000217570192601f9080828601121562000217578451848111620001ec57601f199562000071828501881686016200021c565b928284528583830101116200021757849060005b83811062000202575050600091830101528051938411620001ec57600254926001938481811c91168015620001e1575b82821014620001cb578381116200017f575b50809285116001146200011457508394509083929160009462000108575b50501b916000199060031b1c1916176002555b604051610fe39081620002438239f35b015192503880620000e5565b929484908116600260005284600020946000905b888383106200016457505050106200014a575b505050811b01600255620000f8565b015160001960f88460031b161c191690553880806200013b565b85870151885590960195948501948793509081019062000128565b6002600052816000208480880160051c820192848910620001c1575b0160051c019085905b828110620001b4575050620000c7565b60008155018590620001a4565b925081926200019b565b634e487b7160e01b600052602260045260246000fd5b90607f1690620000b5565b634e487b7160e01b600052604160045260246000fd5b81810183015185820184015286920162000085565b600080fd5b6040519190601f01601f191682016001600160401b03811183821017620001ec5760405256fe6040608081526004908136101561001557600080fd5b600091823560e01c8062fdd58e14610a9b57806301ffc9a714610a2e5780630e89341c146109165780632eb2c2d6146105f85780634e1273f414610457578063a22cb46514610376578063e985e9c5146103245763f242432a1461007857600080fd5b346103205760a036600319011261032057610091610acb565b9161009a610ae6565b92604435906064359060843567ffffffffffffffff811161031c576100c29036908701610bea565b926001600160a01b039182169133831480156102fd575b6100e290610d49565b8716916100f0831515610dac565b6100f982610f77565b5061010384610f77565b50818952602097898952868a20828b52895284878b205461012682821015610e06565b848c528b8b52888c20848d528b5203878b2055828a52898952868a20848b528952868a20610155868254610e65565b905583828851858152878c8201527fc3d58168c5ae7397731d063d5bbf3d657854427343f4c083240f7aacaa2d0f628a3392a43b610191578880f35b918697989596949391868a946101da8a519788968795869463f23a6e6160e01b9c8d8752339087015260248601526044850152606484015260a0608484015260a4830190610afc565b03925af18391816102ce575b5061024f575050506101f6610e92565b6308c379a01461021e575b5162461bcd60e51b81529150819061021a908201610f22565b0390fd5b610226610eb0565b806102315750610201565b61021a915193849362461bcd60e51b85528401526024830190610afc565b9194506001600160e01b03199091160361027157505038808080808080808880f35b5162461bcd60e51b81529150819061021a90820160809060208152602860208201527f455243313135353a204552433131353552656365697665722072656a656374656040820152676420746f6b656e7360c01b60608201520190565b6102ef919250873d89116102f6575b6102e78183610b3c565b810190610e72565b90386101e6565b503d6102dd565b5082895260016020908152868a20338b5290528589205460ff166100d9565b8780fd5b8280fd5b50503461037257806003193601126103725760ff81602093610344610acb565b61034c610ae6565b6001600160a01b0391821683526001875283832091168252855220549151911615158152f35b5080fd5b509034610320578060031936011261032057610390610acb565b9060243591821515809303610453576001600160a01b0316923384146103ff5750338452600160205280842083855260205280842060ff1981541660ff8416179055519081527f17307eab39ab6107e8899845ad3d59bd9653f200f220920489ca2b5937696c3160203392a380f35b6020608492519162461bcd60e51b8352820152602960248201527f455243313135353a2073657474696e6720617070726f76616c20737461747573604482015268103337b91039b2b63360b91b6064820152fd5b8480fd5b5034610320578160031936011261032057803567ffffffffffffffff808211610453573660238301121561045357818301359061049382610b74565b926104a086519485610b3c565b82845260209260248486019160051b830101913683116105f457602401905b8282106105d1575050506024359081116105cd576104e09036908501610b8c565b92825184510361057a57508151946104f786610b74565b9561050486519788610b3c565b808752610513601f1991610b74565b0136838801375b82518110156105645761055f9061054f6001600160a01b0361053c8387610d1f565b51166105488388610d1f565b5190610c75565b6105598289610d1f565b52610cfa565b61051a565b84518281528061057681850189610c41565b0390f35b60849185519162461bcd60e51b8352820152602960248201527f455243313135353a206163636f756e747320616e6420696473206c656e677468604482015268040dad2e6dac2e8c6d60bb1b6064820152fd5b8580fd5b81356001600160a01b03811681036105f05781529084019084016104bf565b8980fd5b8880fd5b508234610913576003199260a03685011261037257610615610acb565b9161061e610ae6565b9467ffffffffffffffff9360443585811161090f576106409036908801610b8c565b606435868111610453576106579036908901610b8c565b956084359081116104535761066f9036908901610bea565b966001600160a01b039283169233841480156108f0575b61068f90610d49565b825188510361089c578916936106a6851515610dac565b855b835181101561072a57806106bf6107259286610d1f565b516106ca828c610d1f565b5190808a526020908a82528b8b20898c528252828c8c8b82822054926106f285851015610e06565b858352828752822091528452038c8c20558a528981528a8a2090898b525261071e8a8a20918254610e65565b9055610cfa565b6106a8565b50949897909692959784878a518b81527f4a39dc06d4c0dbc64b70af90fd698a233a518aa5d07e595d983b8c0526c8f7fb6107678d830188610c41565b9180830360208201528061077c33948b610c41565b0390a43b610788578880f35b8798969751948593849363bc197c8160e01b98898652338c87015260248601526044850160a0905260a485016107bd91610c41565b828582030160648601526107d091610c41565b908382030160848401526107e391610afc565b0381865a94602095f183918161087c575b5061085c57505050610804610e92565b6308c379a014610828575b905162461bcd60e51b815290819061021a908201610f22565b610830610eb0565b8061083b575061080f565b61021a906020935193849362461bcd60e51b85528401526024830190610afc565b9193916001600160e01b0319160361027157505081808080808080808880f35b61089591925060203d81116102f6576102e78183610b3c565b90866107f4565b865162461bcd60e51b8152602081840152602860248201527f455243313135353a2069647320616e6420616d6f756e7473206c656e677468206044820152670dad2e6dac2e8c6d60c31b6064820152608490fd5b508386526001602090815287872033885290528686205460ff16610686565b8380fd5b80fd5b50919034610372576020908160031936011261032057805192806002549060019082821c928281168015610a24575b8785108114610a11578899509688969785829a5291826000146109ea57505060011461098e575b505050610576929161097f910385610b3c565b51928284938452830190610afc565b9190869350600283527f405787fa12a823e0f2b7631cc41b3ba8828b3321ca811111fa75cd3aa3bb5ace5b8284106109d2575050508201018161097f61057661096c565b8054848a0186015288955087949093019281016109b9565b60ff19168782015293151560051b8601909301935084925061097f9150610576905061096c565b634e487b7160e01b835260228a52602483fd5b93607f1693610945565b503461032057602036600319011261032057359063ffffffff60e01b82168092036103205760209250636cdb3d1360e11b8214918215610a8a575b8215610a79575b50519015158152f35b6301ffc9a760e01b14915038610a70565b6303a24d0760e21b81149250610a69565b505034610372578060031936011261037257602090610ac4610abb610acb565b60243590610c75565b9051908152f35b600435906001600160a01b0382168203610ae157565b600080fd5b602435906001600160a01b0382168203610ae157565b919082519283825260005b848110610b28575050826000602080949584010152601f8019910116010190565b602081830181015184830182015201610b07565b90601f8019910116810190811067ffffffffffffffff821117610b5e57604052565b634e487b7160e01b600052604160045260246000fd5b67ffffffffffffffff8111610b5e5760051b60200190565b81601f82011215610ae157803591610ba383610b74565b92610bb16040519485610b3c565b808452602092838086019260051b820101928311610ae1578301905b828210610bdb575050505090565b81358152908301908301610bcd565b81601f82011215610ae15780359067ffffffffffffffff8211610b5e5760405192610c1f601f8401601f191660200185610b3c565b82845260208383010111610ae157816000926020809301838601378301015290565b90815180825260208080930193019160005b828110610c61575050505090565b835185529381019392810192600101610c53565b6001600160a01b0316908115610ca257600052600060205260406000209060005260205260406000205490565b60405162461bcd60e51b815260206004820152602a60248201527f455243313135353a2061646472657373207a65726f206973206e6f742061207660448201526930b634b21037bbb732b960b11b6064820152608490fd5b6000198114610d095760010190565b634e487b7160e01b600052601160045260246000fd5b8051821015610d335760209160051b010190565b634e487b7160e01b600052603260045260246000fd5b15610d5057565b60405162461bcd60e51b815260206004820152602e60248201527f455243313135353a2063616c6c6572206973206e6f7420746f6b656e206f776e60448201526d195c881bdc88185c1c1c9bdd995960921b6064820152608490fd5b15610db357565b60405162461bcd60e51b815260206004820152602560248201527f455243313135353a207472616e7366657220746f20746865207a65726f206164604482015264647265737360d81b6064820152608490fd5b15610e0d57565b60405162461bcd60e51b815260206004820152602a60248201527f455243313135353a20696e73756666696369656e742062616c616e636520666f60448201526939103a3930b739b332b960b11b6064820152608490fd5b91908201809211610d0957565b90816020910312610ae157516001600160e01b031981168103610ae15790565b60009060033d11610e9f57565b905060046000803e60005160e01c90565b600060443d10610f0e57604051600319913d83016004833e815167ffffffffffffffff918282113d602484011117610f1157818401948551938411610f19573d85010160208487010111610f115750610f0e92910160200190610b3c565b90565b949350505050565b50949350505050565b60809060208152603460208201527f455243313135353a207472616e7366657220746f206e6f6e2d455243313135356040820152732932b1b2b4bb32b91034b6b83632b6b2b73a32b960611b60608201520190565b604051906040820182811067ffffffffffffffff821117610b5e5760405260018252602082016020368237825115610d3357529056fea264697066735822122031234a4f897b6f2bcf39fdfaecd4e6fbd67453dfc7b731bbf8e9ef56dcc6253264736f6c63430008140033","opcodes":"PUSH1 0x80 PUSH1 0x40 MSTORE CALLVALUE PUSH3 0x217 JUMPI PUSH3 0x1226 DUP1 CODESIZE SUB DUP1 PUSH3 0x1D DUP2 PUSH3 0x21C JUMP JUMPDEST SWAP3 DUP4 CODECOPY DUP2 ADD SWAP1 PUSH1 0x20 DUP1 DUP3 DUP5 SUB SLT PUSH3 0x217 JUMPI DUP2 MLOAD PUSH1 0x1 PUSH1 0x1 PUSH1 0x40 SHL SUB SWAP3 DUP4 DUP3 GT PUSH3 0x217 JUMPI ADD SWAP3 PUSH1 0x1F SWAP1 DUP1 DUP3 DUP7 ADD SLT ISZERO PUSH3 0x217 JUMPI DUP5 MLOAD DUP5 DUP2 GT PUSH3 0x1EC JUMPI PUSH1 0x1F NOT SWAP6 PUSH3 0x71 DUP3 DUP6 ADD DUP9 AND DUP7 ADD PUSH3 0x21C JUMP JUMPDEST SWAP3 DUP3 DUP5 MSTORE DUP6 DUP4 DUP4 ADD ADD GT PUSH3 0x217 JUMPI DUP5 SWAP1 PUSH1 0x0 JUMPDEST DUP4 DUP2 LT PUSH3 0x202 JUMPI POP POP PUSH1 0x0 SWAP2 DUP4 ADD ADD MSTORE DUP1 MLOAD SWAP4 DUP5 GT PUSH3 0x1EC JUMPI PUSH1 0x2 SLOAD SWAP3 PUSH1 0x1 SWAP4 DUP5 DUP2 DUP2 SHR SWAP2 AND DUP1 ISZERO PUSH3 0x1E1 JUMPI JUMPDEST DUP3 DUP3 LT EQ PUSH3 0x1CB JUMPI DUP4 DUP2 GT PUSH3 0x17F JUMPI JUMPDEST POP DUP1 SWAP3 DUP6 GT PUSH1 0x1 EQ PUSH3 0x114 JUMPI POP DUP4 SWAP5 POP SWAP1 DUP4 SWAP3 SWAP2 PUSH1 0x0 SWAP5 PUSH3 0x108 JUMPI JUMPDEST POP POP SHL SWAP2 PUSH1 0x0 NOT SWAP1 PUSH1 0x3 SHL SHR NOT AND OR PUSH1 0x2 SSTORE JUMPDEST PUSH1 0x40 MLOAD PUSH2 0xFE3 SWAP1 DUP2 PUSH3 0x243 DUP3 CODECOPY RETURN JUMPDEST ADD MLOAD SWAP3 POP CODESIZE DUP1 PUSH3 0xE5 JUMP JUMPDEST SWAP3 SWAP5 DUP5 SWAP1 DUP2 AND PUSH1 0x2 PUSH1 0x0 MSTORE DUP5 PUSH1 0x0 KECCAK256 SWAP5 PUSH1 0x0 SWAP1 JUMPDEST DUP9 DUP4 DUP4 LT PUSH3 0x164 JUMPI POP POP POP LT PUSH3 0x14A JUMPI JUMPDEST POP POP POP DUP2 SHL ADD PUSH1 0x2 SSTORE PUSH3 0xF8 JUMP JUMPDEST ADD MLOAD PUSH1 0x0 NOT PUSH1 0xF8 DUP5 PUSH1 0x3 SHL AND SHR NOT AND SWAP1 SSTORE CODESIZE DUP1 DUP1 PUSH3 0x13B JUMP JUMPDEST DUP6 DUP8 ADD MLOAD DUP9 SSTORE SWAP1 SWAP7 ADD SWAP6 SWAP5 DUP6 ADD SWAP5 DUP8 SWAP4 POP SWAP1 DUP2 ADD SWAP1 PUSH3 0x128 JUMP JUMPDEST PUSH1 0x2 PUSH1 0x0 MSTORE DUP2 PUSH1 0x0 KECCAK256 DUP5 DUP1 DUP9 ADD PUSH1 0x5 SHR DUP3 ADD SWAP3 DUP5 DUP10 LT PUSH3 0x1C1 JUMPI JUMPDEST ADD PUSH1 0x5 SHR ADD SWAP1 DUP6 SWAP1 JUMPDEST DUP3 DUP2 LT PUSH3 0x1B4 JUMPI POP POP PUSH3 0xC7 JUMP JUMPDEST PUSH1 0x0 DUP2 SSTORE ADD DUP6 SWAP1 PUSH3 0x1A4 JUMP JUMPDEST SWAP3 POP DUP2 SWAP3 PUSH3 0x19B JUMP JUMPDEST PUSH4 0x4E487B71 PUSH1 0xE0 SHL PUSH1 0x0 MSTORE PUSH1 0x22 PUSH1 0x4 MSTORE PUSH1 0x24 PUSH1 0x0 REVERT JUMPDEST SWAP1 PUSH1 0x7F AND SWAP1 PUSH3 0xB5 JUMP JUMPDEST PUSH4 0x4E487B71 PUSH1 0xE0 SHL PUSH1 0x0 MSTORE PUSH1 0x41 PUSH1 0x4 MSTORE PUSH1 0x24 PUSH1 0x0 REVERT JUMPDEST DUP2 DUP2 ADD DUP4 ADD MLOAD DUP6 DUP3 ADD DUP5 ADD MSTORE DUP7 SWAP3 ADD PUSH3 0x85 JUMP JUMPDEST PUSH1 0x0 DUP1 REVERT JUMPDEST PUSH1 0x40 MLOAD SWAP2 SWAP1 PUSH1 0x1F ADD PUSH1 0x1F NOT AND DUP3 ADD PUSH1 0x1 PUSH1 0x1 PUSH1 0x40 SHL SUB DUP2 GT DUP4 DUP3 LT OR PUSH3 0x1EC JUMPI PUSH1 0x40 MSTORE JUMP INVALID PUSH1 0x40 PUSH1 0x80 DUP2 MSTORE PUSH1 0x4 SWAP1 DUP2 CALLDATASIZE LT ISZERO PUSH2 0x15 JUMPI PUSH1 0x0 DUP1 REVERT JUMPDEST PUSH1 0x0 SWAP2 DUP3 CALLDATALOAD PUSH1 0xE0 SHR DUP1 PUSH3 0xFDD58E EQ PUSH2 0xA9B JUMPI DUP1 PUSH4 0x1FFC9A7 EQ PUSH2 0xA2E JUMPI DUP1 PUSH4 0xE89341C EQ PUSH2 0x916 JUMPI DUP1 PUSH4 0x2EB2C2D6 EQ PUSH2 0x5F8 JUMPI DUP1 PUSH4 0x4E1273F4 EQ PUSH2 0x457 JUMPI DUP1 PUSH4 0xA22CB465 EQ PUSH2 0x376 JUMPI DUP1 PUSH4 0xE985E9C5 EQ PUSH2 0x324 JUMPI PUSH4 0xF242432A EQ PUSH2 0x78 JUMPI PUSH1 0x0 DUP1 REVERT JUMPDEST CALLVALUE PUSH2 0x320 JUMPI PUSH1 0xA0 CALLDATASIZE PUSH1 0x3 NOT ADD SLT PUSH2 0x320 JUMPI PUSH2 0x91 PUSH2 0xACB JUMP JUMPDEST SWAP2 PUSH2 0x9A PUSH2 0xAE6 JUMP JUMPDEST SWAP3 PUSH1 0x44 CALLDATALOAD SWAP1 PUSH1 0x64 CALLDATALOAD SWAP1 PUSH1 0x84 CALLDATALOAD PUSH8 0xFFFFFFFFFFFFFFFF DUP2 GT PUSH2 0x31C JUMPI PUSH2 0xC2 SWAP1 CALLDATASIZE SWAP1 DUP8 ADD PUSH2 0xBEA JUMP JUMPDEST SWAP3 PUSH1 0x1 PUSH1 0x1 PUSH1 0xA0 SHL SUB SWAP2 DUP3 AND SWAP2 CALLER DUP4 EQ DUP1 ISZERO PUSH2 0x2FD JUMPI JUMPDEST PUSH2 0xE2 SWAP1 PUSH2 0xD49 JUMP JUMPDEST DUP8 AND SWAP2 PUSH2 0xF0 DUP4 ISZERO ISZERO PUSH2 0xDAC JUMP JUMPDEST PUSH2 0xF9 DUP3 PUSH2 0xF77 JUMP JUMPDEST POP PUSH2 0x103 DUP5 PUSH2 0xF77 JUMP JUMPDEST POP DUP2 DUP10 MSTORE PUSH1 0x20 SWAP8 DUP10 DUP10 MSTORE DUP7 DUP11 KECCAK256 DUP3 DUP12 MSTORE DUP10 MSTORE DUP5 DUP8 DUP12 KECCAK256 SLOAD PUSH2 0x126 DUP3 DUP3 LT ISZERO PUSH2 0xE06 JUMP JUMPDEST DUP5 DUP13 MSTORE DUP12 DUP12 MSTORE DUP9 DUP13 KECCAK256 DUP5 DUP14 MSTORE DUP12 MSTORE SUB DUP8 DUP12 KECCAK256 SSTORE DUP3 DUP11 MSTORE DUP10 DUP10 MSTORE DUP7 DUP11 KECCAK256 DUP5 DUP12 MSTORE DUP10 MSTORE DUP7 DUP11 KECCAK256 PUSH2 0x155 DUP7 DUP3 SLOAD PUSH2 0xE65 JUMP JUMPDEST SWAP1 SSTORE DUP4 DUP3 DUP9 MLOAD DUP6 DUP2 MSTORE DUP8 DUP13 DUP3 ADD MSTORE PUSH32 0xC3D58168C5AE7397731D063D5BBF3D657854427343F4C083240F7AACAA2D0F62 DUP11 CALLER SWAP3 LOG4 EXTCODESIZE PUSH2 0x191 JUMPI DUP9 DUP1 RETURN JUMPDEST SWAP2 DUP7 SWAP8 SWAP9 SWAP6 SWAP7 SWAP5 SWAP4 SWAP2 DUP7 DUP11 SWAP5 PUSH2 0x1DA DUP11 MLOAD SWAP8 DUP9 SWAP7 DUP8 SWAP6 DUP7 SWAP5 PUSH4 0xF23A6E61 PUSH1 0xE0 SHL SWAP13 DUP14 DUP8 MSTORE CALLER SWAP1 DUP8 ADD MSTORE PUSH1 0x24 DUP7 ADD MSTORE PUSH1 0x44 DUP6 ADD MSTORE PUSH1 0x64 DUP5 ADD MSTORE PUSH1 0xA0 PUSH1 0x84 DUP5 ADD MSTORE PUSH1 0xA4 DUP4 ADD SWAP1 PUSH2 0xAFC JUMP JUMPDEST SUB SWAP3 GAS CALL DUP4 SWAP2 DUP2 PUSH2 0x2CE JUMPI JUMPDEST POP PUSH2 0x24F JUMPI POP POP POP PUSH2 0x1F6 PUSH2 0xE92 JUMP JUMPDEST PUSH4 0x8C379A0 EQ PUSH2 0x21E JUMPI JUMPDEST MLOAD PUSH3 0x461BCD PUSH1 0xE5 SHL DUP2 MSTORE SWAP2 POP DUP2 SWAP1 PUSH2 0x21A SWAP1 DUP3 ADD PUSH2 0xF22 JUMP JUMPDEST SUB SWAP1 REVERT JUMPDEST PUSH2 0x226 PUSH2 0xEB0 JUMP JUMPDEST DUP1 PUSH2 0x231 JUMPI POP PUSH2 0x201 JUMP JUMPDEST PUSH2 0x21A SWAP2 MLOAD SWAP4 DUP5 SWAP4 PUSH3 0x461BCD PUSH1 0xE5 SHL DUP6 MSTORE DUP5 ADD MSTORE PUSH1 0x24 DUP4 ADD SWAP1 PUSH2 0xAFC JUMP JUMPDEST SWAP2 SWAP5 POP PUSH1 0x1 PUSH1 0x1 PUSH1 0xE0 SHL SUB NOT SWAP1 SWAP2 AND SUB PUSH2 0x271 JUMPI POP POP CODESIZE DUP1 DUP1 DUP1 DUP1 DUP1 DUP1 DUP1 DUP9 DUP1 RETURN JUMPDEST MLOAD PUSH3 0x461BCD PUSH1 0xE5 SHL DUP2 MSTORE SWAP2 POP DUP2 SWAP1 PUSH2 0x21A SWAP1 DUP3 ADD PUSH1 0x80 SWAP1 PUSH1 0x20 DUP2 MSTORE PUSH1 0x28 PUSH1 0x20 DUP3 ADD MSTORE PUSH32 0x455243313135353A204552433131353552656365697665722072656A65637465 PUSH1 0x40 DUP3 ADD MSTORE PUSH8 0x6420746F6B656E73 PUSH1 0xC0 SHL PUSH1 0x60 DUP3 ADD MSTORE ADD SWAP1 JUMP JUMPDEST PUSH2 0x2EF SWAP2 SWAP3 POP DUP8 RETURNDATASIZE DUP10 GT PUSH2 0x2F6 JUMPI JUMPDEST PUSH2 0x2E7 DUP2 DUP4 PUSH2 0xB3C JUMP JUMPDEST DUP2 ADD SWAP1 PUSH2 0xE72 JUMP JUMPDEST SWAP1 CODESIZE PUSH2 0x1E6 JUMP JUMPDEST POP RETURNDATASIZE PUSH2 0x2DD JUMP JUMPDEST POP DUP3 DUP10 MSTORE PUSH1 0x1 PUSH1 0x20 SWAP1 DUP2 MSTORE DUP7 DUP11 KECCAK256 CALLER DUP12 MSTORE SWAP1 MSTORE DUP6 DUP10 KECCAK256 SLOAD PUSH1 0xFF AND PUSH2 0xD9 JUMP JUMPDEST DUP8 DUP1 REVERT JUMPDEST DUP3 DUP1 REVERT JUMPDEST POP POP CALLVALUE PUSH2 0x372 JUMPI DUP1 PUSH1 0x3 NOT CALLDATASIZE ADD SLT PUSH2 0x372 JUMPI PUSH1 0xFF DUP2 PUSH1 0x20 SWAP4 PUSH2 0x344 PUSH2 0xACB JUMP JUMPDEST PUSH2 0x34C PUSH2 0xAE6 JUMP JUMPDEST PUSH1 0x1 PUSH1 0x1 PUSH1 0xA0 SHL SUB SWAP2 DUP3 AND DUP4 MSTORE PUSH1 0x1 DUP8 MSTORE DUP4 DUP4 KECCAK256 SWAP2 AND DUP3 MSTORE DUP6 MSTORE KECCAK256 SLOAD SWAP2 MLOAD SWAP2 AND ISZERO ISZERO DUP2 MSTORE RETURN JUMPDEST POP DUP1 REVERT JUMPDEST POP SWAP1 CALLVALUE PUSH2 0x320 JUMPI DUP1 PUSH1 0x3 NOT CALLDATASIZE ADD SLT PUSH2 0x320 JUMPI PUSH2 0x390 PUSH2 0xACB JUMP JUMPDEST SWAP1 PUSH1 0x24 CALLDATALOAD SWAP2 DUP3 ISZERO ISZERO DUP1 SWAP4 SUB PUSH2 0x453 JUMPI PUSH1 0x1 PUSH1 0x1 PUSH1 0xA0 SHL SUB AND SWAP3 CALLER DUP5 EQ PUSH2 0x3FF JUMPI POP CALLER DUP5 MSTORE PUSH1 0x1 PUSH1 0x20 MSTORE DUP1 DUP5 KECCAK256 DUP4 DUP6 MSTORE PUSH1 0x20 MSTORE DUP1 DUP5 KECCAK256 PUSH1 0xFF NOT DUP2 SLOAD AND PUSH1 0xFF DUP5 AND OR SWAP1 SSTORE MLOAD SWAP1 DUP2 MSTORE PUSH32 0x17307EAB39AB6107E8899845AD3D59BD9653F200F220920489CA2B5937696C31 PUSH1 0x20 CALLER SWAP3 LOG3 DUP1 RETURN JUMPDEST PUSH1 0x20 PUSH1 0x84 SWAP3 MLOAD SWAP2 PUSH3 0x461BCD PUSH1 0xE5 SHL DUP4 MSTORE DUP3 ADD MSTORE PUSH1 0x29 PUSH1 0x24 DUP3 ADD MSTORE PUSH32 0x455243313135353A2073657474696E6720617070726F76616C20737461747573 PUSH1 0x44 DUP3 ADD MSTORE PUSH9 0x103337B91039B2B633 PUSH1 0xB9 SHL PUSH1 0x64 DUP3 ADD MSTORE REVERT JUMPDEST DUP5 DUP1 REVERT JUMPDEST POP CALLVALUE PUSH2 0x320 JUMPI DUP2 PUSH1 0x3 NOT CALLDATASIZE ADD SLT PUSH2 0x320 JUMPI DUP1 CALLDATALOAD PUSH8 0xFFFFFFFFFFFFFFFF DUP1 DUP3 GT PUSH2 0x453 JUMPI CALLDATASIZE PUSH1 0x23 DUP4 ADD SLT ISZERO PUSH2 0x453 JUMPI DUP2 DUP4 ADD CALLDATALOAD SWAP1 PUSH2 0x493 DUP3 PUSH2 0xB74 JUMP JUMPDEST SWAP3 PUSH2 0x4A0 DUP7 MLOAD SWAP5 DUP6 PUSH2 0xB3C JUMP JUMPDEST DUP3 DUP5 MSTORE PUSH1 0x20 SWAP3 PUSH1 0x24 DUP5 DUP7 ADD SWAP2 PUSH1 0x5 SHL DUP4 ADD ADD SWAP2 CALLDATASIZE DUP4 GT PUSH2 0x5F4 JUMPI PUSH1 0x24 ADD SWAP1 JUMPDEST DUP3 DUP3 LT PUSH2 0x5D1 JUMPI POP POP POP PUSH1 0x24 CALLDATALOAD SWAP1 DUP2 GT PUSH2 0x5CD JUMPI PUSH2 0x4E0 SWAP1 CALLDATASIZE SWAP1 DUP6 ADD PUSH2 0xB8C JUMP JUMPDEST SWAP3 DUP3 MLOAD DUP5 MLOAD SUB PUSH2 0x57A JUMPI POP DUP2 MLOAD SWAP5 PUSH2 0x4F7 DUP7 PUSH2 0xB74 JUMP JUMPDEST SWAP6 PUSH2 0x504 DUP7 MLOAD SWAP8 DUP9 PUSH2 0xB3C JUMP JUMPDEST DUP1 DUP8 MSTORE PUSH2 0x513 PUSH1 0x1F NOT SWAP2 PUSH2 0xB74 JUMP JUMPDEST ADD CALLDATASIZE DUP4 DUP9 ADD CALLDATACOPY JUMPDEST DUP3 MLOAD DUP2 LT ISZERO PUSH2 0x564 JUMPI PUSH2 0x55F SWAP1 PUSH2 0x54F PUSH1 0x1 PUSH1 0x1 PUSH1 0xA0 SHL SUB PUSH2 0x53C DUP4 DUP8 PUSH2 0xD1F JUMP JUMPDEST MLOAD AND PUSH2 0x548 DUP4 DUP9 PUSH2 0xD1F JUMP JUMPDEST MLOAD SWAP1 PUSH2 0xC75 JUMP JUMPDEST PUSH2 0x559 DUP3 DUP10 PUSH2 0xD1F JUMP JUMPDEST MSTORE PUSH2 0xCFA JUMP JUMPDEST PUSH2 0x51A JUMP JUMPDEST DUP5 MLOAD DUP3 DUP2 MSTORE DUP1 PUSH2 0x576 DUP2 DUP6 ADD DUP10 PUSH2 0xC41 JUMP JUMPDEST SUB SWAP1 RETURN JUMPDEST PUSH1 0x84 SWAP2 DUP6 MLOAD SWAP2 PUSH3 0x461BCD PUSH1 0xE5 SHL DUP4 MSTORE DUP3 ADD MSTORE PUSH1 0x29 PUSH1 0x24 DUP3 ADD MSTORE PUSH32 0x455243313135353A206163636F756E747320616E6420696473206C656E677468 PUSH1 0x44 DUP3 ADD MSTORE PUSH9 0x40DAD2E6DAC2E8C6D PUSH1 0xBB SHL PUSH1 0x64 DUP3 ADD MSTORE REVERT JUMPDEST DUP6 DUP1 REVERT JUMPDEST DUP2 CALLDATALOAD PUSH1 0x1 PUSH1 0x1 PUSH1 0xA0 SHL SUB DUP2 AND DUP2 SUB PUSH2 0x5F0 JUMPI DUP2 MSTORE SWAP1 DUP5 ADD SWAP1 DUP5 ADD PUSH2 0x4BF JUMP JUMPDEST DUP10 DUP1 REVERT JUMPDEST DUP9 DUP1 REVERT JUMPDEST POP DUP3 CALLVALUE PUSH2 0x913 JUMPI PUSH1 0x3 NOT SWAP3 PUSH1 0xA0 CALLDATASIZE DUP6 ADD SLT PUSH2 0x372 JUMPI PUSH2 0x615 PUSH2 0xACB JUMP JUMPDEST SWAP2 PUSH2 0x61E PUSH2 0xAE6 JUMP JUMPDEST SWAP5 PUSH8 0xFFFFFFFFFFFFFFFF SWAP4 PUSH1 0x44 CALLDATALOAD DUP6 DUP2 GT PUSH2 0x90F JUMPI PUSH2 0x640 SWAP1 CALLDATASIZE SWAP1 DUP9 ADD PUSH2 0xB8C JUMP JUMPDEST PUSH1 0x64 CALLDATALOAD DUP7 DUP2 GT PUSH2 0x453 JUMPI PUSH2 0x657 SWAP1 CALLDATASIZE SWAP1 DUP10 ADD PUSH2 0xB8C JUMP JUMPDEST SWAP6 PUSH1 0x84 CALLDATALOAD SWAP1 DUP2 GT PUSH2 0x453 JUMPI PUSH2 0x66F SWAP1 CALLDATASIZE SWAP1 DUP10 ADD PUSH2 0xBEA JUMP JUMPDEST SWAP7 PUSH1 0x1 PUSH1 0x1 PUSH1 0xA0 SHL SUB SWAP3 DUP4 AND SWAP3 CALLER DUP5 EQ DUP1 ISZERO PUSH2 0x8F0 JUMPI JUMPDEST PUSH2 0x68F SWAP1 PUSH2 0xD49 JUMP JUMPDEST DUP3 MLOAD DUP9 MLOAD SUB PUSH2 0x89C JUMPI DUP10 AND SWAP4 PUSH2 0x6A6 DUP6 ISZERO ISZERO PUSH2 0xDAC JUMP JUMPDEST DUP6 JUMPDEST DUP4 MLOAD DUP2 LT ISZERO PUSH2 0x72A JUMPI DUP1 PUSH2 0x6BF PUSH2 0x725 SWAP3 DUP7 PUSH2 0xD1F JUMP JUMPDEST MLOAD PUSH2 0x6CA DUP3 DUP13 PUSH2 0xD1F JUMP JUMPDEST MLOAD SWAP1 DUP1 DUP11 MSTORE PUSH1 0x20 SWAP1 DUP11 DUP3 MSTORE DUP12 DUP12 KECCAK256 DUP10 DUP13 MSTORE DUP3 MSTORE DUP3 DUP13 DUP13 DUP12 DUP3 DUP3 KECCAK256 SLOAD SWAP3 PUSH2 0x6F2 DUP6 DUP6 LT ISZERO PUSH2 0xE06 JUMP JUMPDEST DUP6 DUP4 MSTORE DUP3 DUP8 MSTORE DUP3 KECCAK256 SWAP2 MSTORE DUP5 MSTORE SUB DUP13 DUP13 KECCAK256 SSTORE DUP11 MSTORE DUP10 DUP2 MSTORE DUP11 DUP11 KECCAK256 SWAP1 DUP10 DUP12 MSTORE MSTORE PUSH2 0x71E DUP11 DUP11 KECCAK256 SWAP2 DUP3 SLOAD PUSH2 0xE65 JUMP JUMPDEST SWAP1 SSTORE PUSH2 0xCFA JUMP JUMPDEST PUSH2 0x6A8 JUMP JUMPDEST POP SWAP5 SWAP9 SWAP8 SWAP1 SWAP7 SWAP3 SWAP6 SWAP8 DUP5 DUP8 DUP11 MLOAD DUP12 DUP2 MSTORE PUSH32 0x4A39DC06D4C0DBC64B70AF90FD698A233A518AA5D07E595D983B8C0526C8F7FB PUSH2 0x767 DUP14 DUP4 ADD DUP9 PUSH2 0xC41 JUMP JUMPDEST SWAP2 DUP1 DUP4 SUB PUSH1 0x20 DUP3 ADD MSTORE DUP1 PUSH2 0x77C CALLER SWAP5 DUP12 PUSH2 0xC41 JUMP JUMPDEST SUB SWAP1 LOG4 EXTCODESIZE PUSH2 0x788 JUMPI DUP9 DUP1 RETURN JUMPDEST DUP8 SWAP9 SWAP7 SWAP8 MLOAD SWAP5 DUP6 SWAP4 DUP5 SWAP4 PUSH4 0xBC197C81 PUSH1 0xE0 SHL SWAP9 DUP10 DUP7 MSTORE CALLER DUP13 DUP8 ADD MSTORE PUSH1 0x24 DUP7 ADD MSTORE PUSH1 0x44 DUP6 ADD PUSH1 0xA0 SWAP1 MSTORE PUSH1 0xA4 DUP6 ADD PUSH2 0x7BD SWAP2 PUSH2 0xC41 JUMP JUMPDEST DUP3 DUP6 DUP3 SUB ADD PUSH1 0x64 DUP7 ADD MSTORE PUSH2 0x7D0 SWAP2 PUSH2 0xC41 JUMP JUMPDEST SWAP1 DUP4 DUP3 SUB ADD PUSH1 0x84 DUP5 ADD MSTORE PUSH2 0x7E3 SWAP2 PUSH2 0xAFC JUMP JUMPDEST SUB DUP2 DUP7 GAS SWAP5 PUSH1 0x20 SWAP6 CALL DUP4 SWAP2 DUP2 PUSH2 0x87C JUMPI JUMPDEST POP PUSH2 0x85C JUMPI POP POP POP PUSH2 0x804 PUSH2 0xE92 JUMP JUMPDEST PUSH4 0x8C379A0 EQ PUSH2 0x828 JUMPI JUMPDEST SWAP1 MLOAD PUSH3 0x461BCD PUSH1 0xE5 SHL DUP2 MSTORE SWAP1 DUP2 SWAP1 PUSH2 0x21A SWAP1 DUP3 ADD PUSH2 0xF22 JUMP JUMPDEST PUSH2 0x830 PUSH2 0xEB0 JUMP JUMPDEST DUP1 PUSH2 0x83B JUMPI POP PUSH2 0x80F JUMP JUMPDEST PUSH2 0x21A SWAP1 PUSH1 0x20 SWAP4 MLOAD SWAP4 DUP5 SWAP4 PUSH3 0x461BCD PUSH1 0xE5 SHL DUP6 MSTORE DUP5 ADD MSTORE PUSH1 0x24 DUP4 ADD SWAP1 PUSH2 0xAFC JUMP JUMPDEST SWAP2 SWAP4 SWAP2 PUSH1 0x1 PUSH1 0x1 PUSH1 0xE0 SHL SUB NOT AND SUB PUSH2 0x271 JUMPI POP POP DUP2 DUP1 DUP1 DUP1 DUP1 DUP1 DUP1 DUP1 DUP9 DUP1 RETURN JUMPDEST PUSH2 0x895 SWAP2 SWAP3 POP PUSH1 0x20 RETURNDATASIZE DUP2 GT PUSH2 0x2F6 JUMPI PUSH2 0x2E7 DUP2 DUP4 PUSH2 0xB3C JUMP JUMPDEST SWAP1 DUP7 PUSH2 0x7F4 JUMP JUMPDEST DUP7 MLOAD PUSH3 0x461BCD PUSH1 0xE5 SHL DUP2 MSTORE PUSH1 0x20 DUP2 DUP5 ADD MSTORE PUSH1 0x28 PUSH1 0x24 DUP3 ADD MSTORE PUSH32 0x455243313135353A2069647320616E6420616D6F756E7473206C656E67746820 PUSH1 0x44 DUP3 ADD MSTORE PUSH8 0xDAD2E6DAC2E8C6D PUSH1 0xC3 SHL PUSH1 0x64 DUP3 ADD MSTORE PUSH1 0x84 SWAP1 REVERT JUMPDEST POP DUP4 DUP7 MSTORE PUSH1 0x1 PUSH1 0x20 SWAP1 DUP2 MSTORE DUP8 DUP8 KECCAK256 CALLER DUP9 MSTORE SWAP1 MSTORE DUP7 DUP7 KECCAK256 SLOAD PUSH1 0xFF AND PUSH2 0x686 JUMP JUMPDEST DUP4 DUP1 REVERT JUMPDEST DUP1 REVERT JUMPDEST POP SWAP2 SWAP1 CALLVALUE PUSH2 0x372 JUMPI PUSH1 0x20 SWAP1 DUP2 PUSH1 0x3 NOT CALLDATASIZE ADD SLT PUSH2 0x320 JUMPI DUP1 MLOAD SWAP3 DUP1 PUSH1 0x2 SLOAD SWAP1 PUSH1 0x1 SWAP1 DUP3 DUP3 SHR SWAP3 DUP3 DUP2 AND DUP1 ISZERO PUSH2 0xA24 JUMPI JUMPDEST DUP8 DUP6 LT DUP2 EQ PUSH2 0xA11 JUMPI DUP9 SWAP10 POP SWAP7 DUP9 SWAP7 SWAP8 DUP6 DUP3 SWAP11 MSTORE SWAP2 DUP3 PUSH1 0x0 EQ PUSH2 0x9EA JUMPI POP POP PUSH1 0x1 EQ PUSH2 0x98E JUMPI JUMPDEST POP POP POP PUSH2 0x576 SWAP3 SWAP2 PUSH2 0x97F SWAP2 SUB DUP6 PUSH2 0xB3C JUMP JUMPDEST MLOAD SWAP3 DUP3 DUP5 SWAP4 DUP5 MSTORE DUP4 ADD SWAP1 PUSH2 0xAFC JUMP JUMPDEST SWAP2 SWAP1 DUP7 SWAP4 POP PUSH1 0x2 DUP4 MSTORE PUSH32 0x405787FA12A823E0F2B7631CC41B3BA8828B3321CA811111FA75CD3AA3BB5ACE JUMPDEST DUP3 DUP5 LT PUSH2 0x9D2 JUMPI POP POP POP DUP3 ADD ADD DUP2 PUSH2 0x97F PUSH2 0x576 PUSH2 0x96C JUMP JUMPDEST DUP1 SLOAD DUP5 DUP11 ADD DUP7 ADD MSTORE DUP9 SWAP6 POP DUP8 SWAP5 SWAP1 SWAP4 ADD SWAP3 DUP2 ADD PUSH2 0x9B9 JUMP JUMPDEST PUSH1 0xFF NOT AND DUP8 DUP3 ADD MSTORE SWAP4 ISZERO ISZERO PUSH1 0x5 SHL DUP7 ADD SWAP1 SWAP4 ADD SWAP4 POP DUP5 SWAP3 POP PUSH2 0x97F SWAP2 POP PUSH2 0x576 SWAP1 POP PUSH2 0x96C JUMP JUMPDEST PUSH4 0x4E487B71 PUSH1 0xE0 SHL DUP4 MSTORE PUSH1 0x22 DUP11 MSTORE PUSH1 0x24 DUP4 REVERT JUMPDEST SWAP4 PUSH1 0x7F AND SWAP4 PUSH2 0x945 JUMP JUMPDEST POP CALLVALUE PUSH2 0x320 JUMPI PUSH1 0x20 CALLDATASIZE PUSH1 0x3 NOT ADD SLT PUSH2 0x320 JUMPI CALLDATALOAD SWAP1 PUSH4 0xFFFFFFFF PUSH1 0xE0 SHL DUP3 AND DUP1 SWAP3 SUB PUSH2 0x320 JUMPI PUSH1 0x20 SWAP3 POP PUSH4 0x6CDB3D13 PUSH1 0xE1 SHL DUP3 EQ SWAP2 DUP3 ISZERO PUSH2 0xA8A JUMPI JUMPDEST DUP3 ISZERO PUSH2 0xA79 JUMPI JUMPDEST POP MLOAD SWAP1 ISZERO ISZERO DUP2 MSTORE RETURN JUMPDEST PUSH4 0x1FFC9A7 PUSH1 0xE0 SHL EQ SWAP2 POP CODESIZE PUSH2 0xA70 JUMP JUMPDEST PUSH4 0x3A24D07 PUSH1 0xE2 SHL DUP2 EQ SWAP3 POP PUSH2 0xA69 JUMP JUMPDEST POP POP CALLVALUE PUSH2 0x372 JUMPI DUP1 PUSH1 0x3 NOT CALLDATASIZE ADD SLT PUSH2 0x372 JUMPI PUSH1 0x20 SWAP1 PUSH2 0xAC4 PUSH2 0xABB PUSH2 0xACB JUMP JUMPDEST PUSH1 0x24 CALLDATALOAD SWAP1 PUSH2 0xC75 JUMP JUMPDEST SWAP1 MLOAD SWAP1 DUP2 MSTORE RETURN JUMPDEST PUSH1 0x4 CALLDATALOAD SWAP1 PUSH1 0x1 PUSH1 0x1 PUSH1 0xA0 SHL SUB DUP3 AND DUP3 SUB PUSH2 0xAE1 JUMPI JUMP JUMPDEST PUSH1 0x0 DUP1 REVERT JUMPDEST PUSH1 0x24 CALLDATALOAD SWAP1 PUSH1 0x1 PUSH1 0x1 PUSH1 0xA0 SHL SUB DUP3 AND DUP3 SUB PUSH2 0xAE1 JUMPI JUMP JUMPDEST SWAP2 SWAP1 DUP3 MLOAD SWAP3 DUP4 DUP3 MSTORE PUSH1 0x0 JUMPDEST DUP5 DUP2 LT PUSH2 0xB28 JUMPI POP POP DUP3 PUSH1 0x0 PUSH1 0x20 DUP1 SWAP5 SWAP6 DUP5 ADD ADD MSTORE PUSH1 0x1F DUP1 NOT SWAP2 ADD AND ADD ADD SWAP1 JUMP JUMPDEST PUSH1 0x20 DUP2 DUP4 ADD DUP2 ADD MLOAD DUP5 DUP4 ADD DUP3 ADD MSTORE ADD PUSH2 0xB07 JUMP JUMPDEST SWAP1 PUSH1 0x1F DUP1 NOT SWAP2 ADD AND DUP2 ADD SWAP1 DUP2 LT PUSH8 0xFFFFFFFFFFFFFFFF DUP3 GT OR PUSH2 0xB5E JUMPI PUSH1 0x40 MSTORE JUMP JUMPDEST PUSH4 0x4E487B71 PUSH1 0xE0 SHL PUSH1 0x0 MSTORE PUSH1 0x41 PUSH1 0x4 MSTORE PUSH1 0x24 PUSH1 0x0 REVERT JUMPDEST PUSH8 0xFFFFFFFFFFFFFFFF DUP2 GT PUSH2 0xB5E JUMPI PUSH1 0x5 SHL PUSH1 0x20 ADD SWAP1 JUMP JUMPDEST DUP2 PUSH1 0x1F DUP3 ADD SLT ISZERO PUSH2 0xAE1 JUMPI DUP1 CALLDATALOAD SWAP2 PUSH2 0xBA3 DUP4 PUSH2 0xB74 JUMP JUMPDEST SWAP3 PUSH2 0xBB1 PUSH1 0x40 MLOAD SWAP5 DUP6 PUSH2 0xB3C JUMP JUMPDEST DUP1 DUP5 MSTORE PUSH1 0x20 SWAP3 DUP4 DUP1 DUP7 ADD SWAP3 PUSH1 0x5 SHL DUP3 ADD ADD SWAP3 DUP4 GT PUSH2 0xAE1 JUMPI DUP4 ADD SWAP1 JUMPDEST DUP3 DUP3 LT PUSH2 0xBDB JUMPI POP POP POP POP SWAP1 JUMP JUMPDEST DUP2 CALLDATALOAD DUP2 MSTORE SWAP1 DUP4 ADD SWAP1 DUP4 ADD PUSH2 0xBCD JUMP JUMPDEST DUP2 PUSH1 0x1F DUP3 ADD SLT ISZERO PUSH2 0xAE1 JUMPI DUP1 CALLDATALOAD SWAP1 PUSH8 0xFFFFFFFFFFFFFFFF DUP3 GT PUSH2 0xB5E JUMPI PUSH1 0x40 MLOAD SWAP3 PUSH2 0xC1F PUSH1 0x1F DUP5 ADD PUSH1 0x1F NOT AND PUSH1 0x20 ADD DUP6 PUSH2 0xB3C JUMP JUMPDEST DUP3 DUP5 MSTORE PUSH1 0x20 DUP4 DUP4 ADD ADD GT PUSH2 0xAE1 JUMPI DUP2 PUSH1 0x0 SWAP3 PUSH1 0x20 DUP1 SWAP4 ADD DUP4 DUP7 ADD CALLDATACOPY DUP4 ADD ADD MSTORE SWAP1 JUMP JUMPDEST SWAP1 DUP2 MLOAD DUP1 DUP3 MSTORE PUSH1 0x20 DUP1 DUP1 SWAP4 ADD SWAP4 ADD SWAP2 PUSH1 0x0 JUMPDEST DUP3 DUP2 LT PUSH2 0xC61 JUMPI POP POP POP POP SWAP1 JUMP JUMPDEST DUP4 MLOAD DUP6 MSTORE SWAP4 DUP2 ADD SWAP4 SWAP3 DUP2 ADD SWAP3 PUSH1 0x1 ADD PUSH2 0xC53 JUMP JUMPDEST PUSH1 0x1 PUSH1 0x1 PUSH1 0xA0 SHL SUB AND SWAP1 DUP2 ISZERO PUSH2 0xCA2 JUMPI PUSH1 0x0 MSTORE PUSH1 0x0 PUSH1 0x20 MSTORE PUSH1 0x40 PUSH1 0x0 KECCAK256 SWAP1 PUSH1 0x0 MSTORE PUSH1 0x20 MSTORE PUSH1 0x40 PUSH1 0x0 KECCAK256 SLOAD SWAP1 JUMP JUMPDEST PUSH1 0x40 MLOAD PUSH3 0x461BCD PUSH1 0xE5 SHL DUP2 MSTORE PUSH1 0x20 PUSH1 0x4 DUP3 ADD MSTORE PUSH1 0x2A PUSH1 0x24 DUP3 ADD MSTORE PUSH32 0x455243313135353A2061646472657373207A65726F206973206E6F7420612076 PUSH1 0x44 DUP3 ADD MSTORE PUSH10 0x30B634B21037BBB732B9 PUSH1 0xB1 SHL PUSH1 0x64 DUP3 ADD MSTORE PUSH1 0x84 SWAP1 REVERT JUMPDEST PUSH1 0x0 NOT DUP2 EQ PUSH2 0xD09 JUMPI PUSH1 0x1 ADD SWAP1 JUMP JUMPDEST PUSH4 0x4E487B71 PUSH1 0xE0 SHL PUSH1 0x0 MSTORE PUSH1 0x11 PUSH1 0x4 MSTORE PUSH1 0x24 PUSH1 0x0 REVERT JUMPDEST DUP1 MLOAD DUP3 LT ISZERO PUSH2 0xD33 JUMPI PUSH1 0x20 SWAP2 PUSH1 0x5 SHL ADD ADD SWAP1 JUMP JUMPDEST PUSH4 0x4E487B71 PUSH1 0xE0 SHL PUSH1 0x0 MSTORE PUSH1 0x32 PUSH1 0x4 MSTORE PUSH1 0x24 PUSH1 0x0 REVERT JUMPDEST ISZERO PUSH2 0xD50 JUMPI JUMP JUMPDEST PUSH1 0x40 MLOAD PUSH3 0x461BCD PUSH1 0xE5 SHL DUP2 MSTORE PUSH1 0x20 PUSH1 0x4 DUP3 ADD MSTORE PUSH1 0x2E PUSH1 0x24 DUP3 ADD MSTORE PUSH32 0x455243313135353A2063616C6C6572206973206E6F7420746F6B656E206F776E PUSH1 0x44 DUP3 ADD MSTORE PUSH14 0x195C881BDC88185C1C1C9BDD9959 PUSH1 0x92 SHL PUSH1 0x64 DUP3 ADD MSTORE PUSH1 0x84 SWAP1 REVERT JUMPDEST ISZERO PUSH2 0xDB3 JUMPI JUMP JUMPDEST PUSH1 0x40 MLOAD PUSH3 0x461BCD PUSH1 0xE5 SHL DUP2 MSTORE PUSH1 0x20 PUSH1 0x4 DUP3 ADD MSTORE PUSH1 0x25 PUSH1 0x24 DUP3 ADD MSTORE PUSH32 0x455243313135353A207472616E7366657220746F20746865207A65726F206164 PUSH1 0x44 DUP3 ADD MSTORE PUSH5 0x6472657373 PUSH1 0xD8 SHL PUSH1 0x64 DUP3 ADD MSTORE PUSH1 0x84 SWAP1 REVERT JUMPDEST ISZERO PUSH2 0xE0D JUMPI JUMP JUMPDEST PUSH1 0x40 MLOAD PUSH3 0x461BCD PUSH1 0xE5 SHL DUP2 MSTORE PUSH1 0x20 PUSH1 0x4 DUP3 ADD MSTORE PUSH1 0x2A PUSH1 0x24 DUP3 ADD MSTORE PUSH32 0x455243313135353A20696E73756666696369656E742062616C616E636520666F PUSH1 0x44 DUP3 ADD MSTORE PUSH10 0x39103A3930B739B332B9 PUSH1 0xB1 SHL PUSH1 0x64 DUP3 ADD MSTORE PUSH1 0x84 SWAP1 REVERT JUMPDEST SWAP2 SWAP1 DUP3 ADD DUP1 SWAP3 GT PUSH2 0xD09 JUMPI JUMP JUMPDEST SWAP1 DUP2 PUSH1 0x20 SWAP2 SUB SLT PUSH2 0xAE1 JUMPI MLOAD PUSH1 0x1 PUSH1 0x1 PUSH1 0xE0 SHL SUB NOT DUP2 AND DUP2 SUB PUSH2 0xAE1 JUMPI SWAP1 JUMP JUMPDEST PUSH1 0x0 SWAP1 PUSH1 0x3 RETURNDATASIZE GT PUSH2 0xE9F JUMPI JUMP JUMPDEST SWAP1 POP PUSH1 0x4 PUSH1 0x0 DUP1 RETURNDATACOPY PUSH1 0x0 MLOAD PUSH1 0xE0 SHR SWAP1 JUMP JUMPDEST PUSH1 0x0 PUSH1 0x44 RETURNDATASIZE LT PUSH2 0xF0E JUMPI PUSH1 0x40 MLOAD PUSH1 0x3 NOT SWAP2 RETURNDATASIZE DUP4 ADD PUSH1 0x4 DUP4 RETURNDATACOPY DUP2 MLOAD PUSH8 0xFFFFFFFFFFFFFFFF SWAP2 DUP3 DUP3 GT RETURNDATASIZE PUSH1 0x24 DUP5 ADD GT OR PUSH2 0xF11 JUMPI DUP2 DUP5 ADD SWAP5 DUP6 MLOAD SWAP4 DUP5 GT PUSH2 0xF19 JUMPI RETURNDATASIZE DUP6 ADD ADD PUSH1 0x20 DUP5 DUP8 ADD ADD GT PUSH2 0xF11 JUMPI POP PUSH2 0xF0E SWAP3 SWAP2 ADD PUSH1 0x20 ADD SWAP1 PUSH2 0xB3C JUMP JUMPDEST SWAP1 JUMP JUMPDEST SWAP5 SWAP4 POP POP POP POP JUMP JUMPDEST POP SWAP5 SWAP4 POP POP POP POP JUMP JUMPDEST PUSH1 0x80 SWAP1 PUSH1 0x20 DUP2 MSTORE PUSH1 0x34 PUSH1 0x20 DUP3 ADD MSTORE PUSH32 0x455243313135353A207472616E7366657220746F206E6F6E2D45524331313535 PUSH1 0x40 DUP3 ADD MSTORE PUSH20 0x2932B1B2B4BB32B91034B6B83632B6B2B73A32B9 PUSH1 0x61 SHL PUSH1 0x60 DUP3 ADD MSTORE ADD SWAP1 JUMP JUMPDEST PUSH1 0x40 MLOAD SWAP1 PUSH1 0x40 DUP3 ADD DUP3 DUP2 LT PUSH8 0xFFFFFFFFFFFFFFFF DUP3 GT OR PUSH2 0xB5E JUMPI PUSH1 0x40 MSTORE PUSH1 0x1 DUP3 MSTORE PUSH1 0x20 DUP3 ADD PUSH1 0x20 CALLDATASIZE DUP3 CALLDATACOPY DUP3 MLOAD ISZERO PUSH2 0xD33 JUMPI MSTORE SWAP1 JUMP INVALID LOG2 PUSH5 0x6970667358 0x22 SLT KECCAK256 BALANCE 0x23 0x4A 0x4F DUP10 PUSH28 0x6F2BCF39FDFAECD4E6FBD67453DFC7B731BBF8E9EF56DCC625326473 PUSH16 0x6C634300081400330000000000000000 "},"methodIdentifiers":{"balanceOf(address,uint256)":"00fdd58e","balanceOfBatch(address[],uint256[])":"4e1273f4","isApprovedForAll(address,address)":"e985e9c5","safeBatchTransferFrom(address,address,uint256[],uint256[],bytes)":"2eb2c2d6","safeTransferFrom(address,address,uint256,uint256,bytes)":"f242432a","setApprovalForAll(address,bool)":"a22cb465","supportsInterface(bytes4)":"01ffc9a7","uri(uint256)":"0e89341c"}}}}}