{
  "_format": "hh-sol-artifact-1",
  "contractName": "MusicNFTMarketplace",
  "sourceName": "contracts/MusicNFTMarketplace.sol",
  "abi": [
    {
      "inputs": [],
      "stateMutability": "nonpayable",
      "type": "constructor"
    },
    {
      "inputs": [],
      "name": "ArrayLengthMismatch",
      "type": "error"
    },
    {
      "inputs": [],
      "name": "BatchSizeTooLarge",
      "type": "error"
    },
    {
      "inputs": [],
      "name": "InsufficientBalance",
      "type": "error"
    },
    {
      "inputs": [],
      "name": "InsufficientPayment",
      "type": "error"
    },
    {
      "inputs": [],
      "name": "InvalidAddress",
      "type": "error"
    },
    {
      "inputs": [],
      "name": "InvalidInput",
      "type": "error"
    },
    {
      "inputs": [],
      "name": "InvalidPrice",
      "type": "error"
    },
    {
      "inputs": [],
      "name": "InvalidRoyalty",
      "type": "error"
    },
    {
      "inputs": [],
      "name": "InvalidSupply",
      "type": "error"
    },
    {
      "inputs": [],
      "name": "MaxSupplyExceeded",
      "type": "error"
    },
    {
      "inputs": [],
      "name": "NFTNotActive",
      "type": "error"
    },
    {
      "inputs": [],
      "name": "NFTNotFound",
      "type": "error"
    },
    {
      "inputs": [],
      "name": "NotAuthorized",
      "type": "error"
    },
    {
      "inputs": [],
      "name": "Overflow",
      "type": "error"
    },
    {
      "inputs": [],
      "name": "TransferFailed",
      "type": "error"
    },
    {
      "anonymous": false,
      "inputs": [
        {
          "indexed": true,
          "internalType": "address",
          "name": "account",
          "type": "address"
        },
        {
          "indexed": true,
          "internalType": "address",
          "name": "operator",
          "type": "address"
        },
        {
          "indexed": false,
          "internalType": "bool",
          "name": "approved",
          "type": "bool"
        }
      ],
      "name": "ApprovalForAll",
      "type": "event"
    },
    {
      "anonymous": false,
      "inputs": [
        {
          "indexed": true,
          "internalType": "address",
          "name": "seller",
          "type": "address"
        },
        {
          "indexed": false,
          "internalType": "uint256[]",
          "name": "tokenIds",
          "type": "uint256[]"
        },
        {
          "indexed": false,
          "internalType": "uint256[]",
          "name": "amounts",
          "type": "uint256[]"
        },
        {
          "indexed": false,
          "internalType": "uint256[]",
          "name": "prices",
          "type": "uint256[]"
        }
      ],
      "name": "BatchListingCompleted",
      "type": "event"
    },
    {
      "anonymous": false,
      "inputs": [
        {
          "indexed": true,
          "internalType": "address",
          "name": "buyer",
          "type": "address"
        },
        {
          "indexed": false,
          "internalType": "uint256[]",
          "name": "tokenIds",
          "type": "uint256[]"
        },
        {
          "indexed": false,
          "internalType": "uint256[]",
          "name": "amounts",
          "type": "uint256[]"
        }
      ],
      "name": "BatchMintCompleted",
      "type": "event"
    },
    {
      "anonymous": false,
      "inputs": [
        {
          "indexed": true,
          "internalType": "uint256",
          "name": "tokenId",
          "type": "uint256"
        },
        {
          "indexed": true,
          "internalType": "address",
          "name": "seller",
          "type": "address"
        }
      ],
      "name": "ListingCancelled",
      "type": "event"
    },
    {
      "anonymous": false,
      "inputs": [
        {
          "indexed": true,
          "internalType": "uint256",
          "name": "tokenId",
          "type": "uint256"
        },
        {
          "indexed": true,
          "internalType": "address",
          "name": "creator",
          "type": "address"
        },
        {
          "indexed": false,
          "internalType": "uint256",
          "name": "price",
          "type": "uint256"
        },
        {
          "indexed": false,
          "internalType": "uint256",
          "name": "maxSupply",
          "type": "uint256"
        }
      ],
      "name": "NFTCreated",
      "type": "event"
    },
    {
      "anonymous": false,
      "inputs": [
        {
          "indexed": true,
          "internalType": "uint256",
          "name": "tokenId",
          "type": "uint256"
        },
        {
          "indexed": true,
          "internalType": "address",
          "name": "seller",
          "type": "address"
        },
        {
          "indexed": false,
          "internalType": "uint256",
          "name": "price",
          "type": "uint256"
        },
        {
          "indexed": false,
          "internalType": "uint256",
          "name": "amount",
          "type": "uint256"
        }
      ],
      "name": "NFTListed",
      "type": "event"
    },
    {
      "anonymous": false,
      "inputs": [
        {
          "indexed": true,
          "internalType": "address",
          "name": "minter",
          "type": "address"
        },
        {
          "indexed": false,
          "internalType": "uint256",
          "name": "tokenId",
          "type": "uint256"
        },
        {
          "indexed": false,
          "internalType": "uint256",
          "name": "amount",
          "type": "uint256"
        }
      ],
      "name": "NFTMinted",
      "type": "event"
    },
    {
      "anonymous": false,
      "inputs": [
        {
          "indexed": true,
          "internalType": "uint256",
          "name": "tokenId",
          "type": "uint256"
        },
        {
          "indexed": false,
          "internalType": "uint256",
          "name": "newPrice",
          "type": "uint256"
        }
      ],
      "name": "NFTPriceUpdated",
      "type": "event"
    },
    {
      "anonymous": false,
      "inputs": [
        {
          "indexed": true,
          "internalType": "uint256",
          "name": "tokenId",
          "type": "uint256"
        },
        {
          "indexed": true,
          "internalType": "address",
          "name": "seller",
          "type": "address"
        },
        {
          "indexed": true,
          "internalType": "address",
          "name": "buyer",
          "type": "address"
        },
        {
          "indexed": false,
          "internalType": "uint256",
          "name": "price",
          "type": "uint256"
        },
        {
          "indexed": false,
          "internalType": "uint256",
          "name": "amount",
          "type": "uint256"
        }
      ],
      "name": "NFTSold",
      "type": "event"
    },
    {
      "anonymous": false,
      "inputs": [
        {
          "indexed": true,
          "internalType": "uint256",
          "name": "tokenId",
          "type": "uint256"
        },
        {
          "indexed": false,
          "internalType": "bool",
          "name": "isActive",
          "type": "bool"
        }
      ],
      "name": "NFTStatusUpdated",
      "type": "event"
    },
    {
      "anonymous": false,
      "inputs": [
        {
          "indexed": true,
          "internalType": "address",
          "name": "previousOwner",
          "type": "address"
        },
        {
          "indexed": true,
          "internalType": "address",
          "name": "newOwner",
          "type": "address"
        }
      ],
      "name": "OwnershipTransferred",
      "type": "event"
    },
    {
      "anonymous": false,
      "inputs": [
        {
          "indexed": false,
          "internalType": "address",
          "name": "account",
          "type": "address"
        }
      ],
      "name": "Paused",
      "type": "event"
    },
    {
      "anonymous": false,
      "inputs": [
        {
          "indexed": true,
          "internalType": "address",
          "name": "operator",
          "type": "address"
        },
        {
          "indexed": true,
          "internalType": "address",
          "name": "from",
          "type": "address"
        },
        {
          "indexed": true,
          "internalType": "address",
          "name": "to",
          "type": "address"
        },
        {
          "indexed": false,
          "internalType": "uint256[]",
          "name": "ids",
          "type": "uint256[]"
        },
        {
          "indexed": false,
          "internalType": "uint256[]",
          "name": "values",
          "type": "uint256[]"
        }
      ],
      "name": "TransferBatch",
      "type": "event"
    },
    {
      "anonymous": false,
      "inputs": [
        {
          "indexed": true,
          "internalType": "address",
          "name": "operator",
          "type": "address"
        },
        {
          "indexed": true,
          "internalType": "address",
          "name": "from",
          "type": "address"
        },
        {
          "indexed": true,
          "internalType": "address",
          "name": "to",
          "type": "address"
        },
        {
          "indexed": false,
          "internalType": "uint256",
          "name": "id",
          "type": "uint256"
        },
        {
          "indexed": false,
          "internalType": "uint256",
          "name": "value",
          "type": "uint256"
        }
      ],
      "name": "TransferSingle",
      "type": "event"
    },
    {
      "anonymous": false,
      "inputs": [
        {
          "indexed": false,
          "internalType": "string",
          "name": "value",
          "type": "string"
        },
        {
          "indexed": true,
          "internalType": "uint256",
          "name": "id",
          "type": "uint256"
        }
      ],
      "name": "URI",
      "type": "event"
    },
    {
      "anonymous": false,
      "inputs": [
        {
          "indexed": false,
          "internalType": "address",
          "name": "account",
          "type": "address"
        }
      ],
      "name": "Unpaused",
      "type": "event"
    },
    {
      "inputs": [],
      "name": "BASIS_POINTS",
      "outputs": [
        {
          "internalType": "uint256",
          "name": "",
          "type": "uint256"
        }
      ],
      "stateMutability": "view",
      "type": "function"
    },
    {
      "inputs": [],
      "name": "MAX_BATCH_SIZE",
      "outputs": [
        {
          "internalType": "uint256",
          "name": "",
          "type": "uint256"
        }
      ],
      "stateMutability": "view",
      "type": "function"
    },
    {
      "inputs": [],
      "name": "MAX_ROYALTY_BPS",
      "outputs": [
        {
          "internalType": "uint256",
          "name": "",
          "type": "uint256"
        }
      ],
      "stateMutability": "view",
      "type": "function"
    },
    {
      "inputs": [],
      "name": "MIN_ROYALTY_BPS",
      "outputs": [
        {
          "internalType": "uint256",
          "name": "",
          "type": "uint256"
        }
      ],
      "stateMutability": "view",
      "type": "function"
    },
    {
      "inputs": [
        {
          "internalType": "address",
          "name": "account",
          "type": "address"
        },
        {
          "internalType": "uint256",
          "name": "id",
          "type": "uint256"
        }
      ],
      "name": "balanceOf",
      "outputs": [
        {
          "internalType": "uint256",
          "name": "",
          "type": "uint256"
        }
      ],
      "stateMutability": "view",
      "type": "function"
    },
    {
      "inputs": [
        {
          "internalType": "address[]",
          "name": "accounts",
          "type": "address[]"
        },
        {
          "internalType": "uint256[]",
          "name": "ids",
          "type": "uint256[]"
        }
      ],
      "name": "balanceOfBatch",
      "outputs": [
        {
          "internalType": "uint256[]",
          "name": "",
          "type": "uint256[]"
        }
      ],
      "stateMutability": "view",
      "type": "function"
    },
    {
      "inputs": [
        {
          "internalType": "uint256[]",
          "name": "_tokenIds",
          "type": "uint256[]"
        },
        {
          "internalType": "uint256[]",
          "name": "_amounts",
          "type": "uint256[]"
        }
      ],
      "name": "batchMintNFTs",
      "outputs": [],
      "stateMutability": "payable",
      "type": "function"
    },
    {
      "inputs": [
        {
          "internalType": "uint256",
          "name": "_tokenId",
          "type": "uint256"
        },
        {
          "internalType": "address",
          "name": "_seller",
          "type": "address"
        },
        {
          "internalType": "uint256",
          "name": "_amount",
          "type": "uint256"
        }
      ],
      "name": "buyListedNFT",
      "outputs": [],
      "stateMutability": "payable",
      "type": "function"
    },
    {
      "inputs": [
        {
          "internalType": "uint256",
          "name": "_tokenId",
          "type": "uint256"
        }
      ],
      "name": "cancelListing",
      "outputs": [],
      "stateMutability": "nonpayable",
      "type": "function"
    },
    {
      "inputs": [
        {
          "internalType": "string",
          "name": "_name",
          "type": "string"
        },
        {
          "internalType": "string",
          "name": "_description",
          "type": "string"
        },
        {
          "internalType": "string",
          "name": "_musicUrl",
          "type": "string"
        },
        {
          "internalType": "string",
          "name": "_imageUrl",
          "type": "string"
        },
        {
          "internalType": "uint256",
          "name": "_price",
          "type": "uint256"
        },
        {
          "internalType": "uint256",
          "name": "_maxSupply",
          "type": "uint256"
        },
        {
          "internalType": "uint256",
          "name": "_royaltyBPS",
          "type": "uint256"
        }
      ],
      "name": "createMusicNFT",
      "outputs": [
        {
          "internalType": "uint256",
          "name": "",
          "type": "uint256"
        }
      ],
      "stateMutability": "nonpayable",
      "type": "function"
    },
    {
      "inputs": [],
      "name": "getAllMusicNFTs",
      "outputs": [
        {
          "components": [
            {
              "internalType": "uint256",
              "name": "tokenId",
              "type": "uint256"
            },
            {
              "internalType": "address",
              "name": "creator",
              "type": "address"
            },
            {
              "internalType": "string",
              "name": "name",
              "type": "string"
            },
            {
              "internalType": "string",
              "name": "description",
              "type": "string"
            },
            {
              "internalType": "string",
              "name": "musicUrl",
              "type": "string"
            },
            {
              "internalType": "string",
              "name": "imageUrl",
              "type": "string"
            },
            {
              "internalType": "uint256",
              "name": "price",
              "type": "uint256"
            },
            {
              "internalType": "uint256",
              "name": "maxSupply",
              "type": "uint256"
            },
            {
              "internalType": "uint256",
              "name": "currentSupply",
              "type": "uint256"
            },
            {
              "internalType": "uint256",
              "name": "royaltyBPS",
              "type": "uint256"
            },
            {
              "internalType": "bool",
              "name": "isActive",
              "type": "bool"
            }
          ],
          "internalType": "struct MusicNFTMarketplace.MusicNFT[]",
          "name": "",
          "type": "tuple[]"
        }
      ],
      "stateMutability": "view",
      "type": "function"
    },
    {
      "inputs": [
        {
          "internalType": "uint256",
          "name": "_tokenId",
          "type": "uint256"
        }
      ],
      "name": "getBalanceHolders",
      "outputs": [
        {
          "internalType": "address[]",
          "name": "",
          "type": "address[]"
        }
      ],
      "stateMutability": "view",
      "type": "function"
    },
    {
      "inputs": [
        {
          "internalType": "uint256",
          "name": "_tokenId",
          "type": "uint256"
        },
        {
          "internalType": "address",
          "name": "_seller",
          "type": "address"
        }
      ],
      "name": "getListing",
      "outputs": [
        {
          "components": [
            {
              "internalType": "address",
              "name": "seller",
              "type": "address"
            },
            {
              "internalType": "uint256",
              "name": "price",
              "type": "uint256"
            },
            {
              "internalType": "uint256",
              "name": "amount",
              "type": "uint256"
            }
          ],
          "internalType": "struct MusicNFTMarketplace.Listing",
          "name": "",
          "type": "tuple"
        }
      ],
      "stateMutability": "view",
      "type": "function"
    },
    {
      "inputs": [
        {
          "internalType": "uint256",
          "name": "tokenId",
          "type": "uint256"
        }
      ],
      "name": "getNFTMetadata",
      "outputs": [
        {
          "components": [
            {
              "internalType": "string",
              "name": "name",
              "type": "string"
            },
            {
              "internalType": "string",
              "name": "description",
              "type": "string"
            },
            {
              "internalType": "string",
              "name": "imageUrl",
              "type": "string"
            },
            {
              "internalType": "string",
              "name": "musicUrl",
              "type": "string"
            },
            {
              "internalType": "address",
              "name": "creator",
              "type": "address"
            },
            {
              "internalType": "uint256",
              "name": "price",
              "type": "uint256"
            },
            {
              "internalType": "uint256",
              "name": "maxSupply",
              "type": "uint256"
            },
            {
              "internalType": "uint256",
              "name": "currentSupply",
              "type": "uint256"
            },
            {
              "internalType": "uint256",
              "name": "royaltyBPS",
              "type": "uint256"
            },
            {
              "internalType": "bool",
              "name": "isActive",
              "type": "bool"
            }
          ],
          "internalType": "struct MusicNFTMarketplace.NFTMetadata",
          "name": "",
          "type": "tuple"
        }
      ],
      "stateMutability": "view",
      "type": "function"
    },
    {
      "inputs": [
        {
          "internalType": "address",
          "name": "account",
          "type": "address"
        },
        {
          "internalType": "address",
          "name": "operator",
          "type": "address"
        }
      ],
      "name": "isApprovedForAll",
      "outputs": [
        {
          "internalType": "bool",
          "name": "",
          "type": "bool"
        }
      ],
      "stateMutability": "view",
      "type": "function"
    },
    {
      "inputs": [
        {
          "internalType": "uint256",
          "name": "_tokenId",
          "type": "uint256"
        },
        {
          "internalType": "uint256",
          "name": "_amount",
          "type": "uint256"
        },
        {
          "internalType": "uint256",
          "name": "_price",
          "type": "uint256"
        }
      ],
      "name": "listNFT",
      "outputs": [],
      "stateMutability": "nonpayable",
      "type": "function"
    },
    {
      "inputs": [
        {
          "internalType": "uint256",
          "name": "",
          "type": "uint256"
        },
        {
          "internalType": "address",
          "name": "",
          "type": "address"
        }
      ],
      "name": "listings",
      "outputs": [
        {
          "internalType": "address",
          "name": "seller",
          "type": "address"
        },
        {
          "internalType": "uint256",
          "name": "price",
          "type": "uint256"
        },
        {
          "internalType": "uint256",
          "name": "amount",
          "type": "uint256"
        }
      ],
      "stateMutability": "view",
      "type": "function"
    },
    {
      "inputs": [
        {
          "internalType": "uint256",
          "name": "_tokenId",
          "type": "uint256"
        },
        {
          "internalType": "uint256",
          "name": "_amount",
          "type": "uint256"
        }
      ],
      "name": "mintNFT",
      "outputs": [],
      "stateMutability": "payable",
      "type": "function"
    },
    {
      "inputs": [
        {
          "internalType": "uint256",
          "name": "",
          "type": "uint256"
        }
      ],
      "name": "musicNFTs",
      "outputs": [
        {
          "internalType": "uint256",
          "name": "tokenId",
          "type": "uint256"
        },
        {
          "internalType": "address",
          "name": "creator",
          "type": "address"
        },
        {
          "internalType": "string",
          "name": "name",
          "type": "string"
        },
        {
          "internalType": "string",
          "name": "description",
          "type": "string"
        },
        {
          "internalType": "string",
          "name": "musicUrl",
          "type": "string"
        },
        {
          "internalType": "string",
          "name": "imageUrl",
          "type": "string"
        },
        {
          "internalType": "uint256",
          "name": "price",
          "type": "uint256"
        },
        {
          "internalType": "uint256",
          "name": "maxSupply",
          "type": "uint256"
        },
        {
          "internalType": "uint256",
          "name": "currentSupply",
          "type": "uint256"
        },
        {
          "internalType": "uint256",
          "name": "royaltyBPS",
          "type": "uint256"
        },
        {
          "internalType": "bool",
          "name": "isActive",
          "type": "bool"
        }
      ],
      "stateMutability": "view",
      "type": "function"
    },
    {
      "inputs": [],
      "name": "owner",
      "outputs": [
        {
          "internalType": "address",
          "name": "",
          "type": "address"
        }
      ],
      "stateMutability": "view",
      "type": "function"
    },
    {
      "inputs": [],
      "name": "pause",
      "outputs": [],
      "stateMutability": "nonpayable",
      "type": "function"
    },
    {
      "inputs": [],
      "name": "paused",
      "outputs": [
        {
          "internalType": "bool",
          "name": "",
          "type": "bool"
        }
      ],
      "stateMutability": "view",
      "type": "function"
    },
    {
      "inputs": [],
      "name": "renounceOwnership",
      "outputs": [],
      "stateMutability": "nonpayable",
      "type": "function"
    },
    {
      "inputs": [
        {
          "internalType": "uint256",
          "name": "tokenId",
          "type": "uint256"
        },
        {
          "internalType": "uint256",
          "name": "salePrice",
          "type": "uint256"
        }
      ],
      "name": "royaltyInfo",
      "outputs": [
        {
          "internalType": "address",
          "name": "",
          "type": "address"
        },
        {
          "internalType": "uint256",
          "name": "",
          "type": "uint256"
        }
      ],
      "stateMutability": "view",
      "type": "function"
    },
    {
      "inputs": [
        {
          "internalType": "address",
          "name": "from",
          "type": "address"
        },
        {
          "internalType": "address",
          "name": "to",
          "type": "address"
        },
        {
          "internalType": "uint256[]",
          "name": "ids",
          "type": "uint256[]"
        },
        {
          "internalType": "uint256[]",
          "name": "amounts",
          "type": "uint256[]"
        },
        {
          "internalType": "bytes",
          "name": "data",
          "type": "bytes"
        }
      ],
      "name": "safeBatchTransferFrom",
      "outputs": [],
      "stateMutability": "nonpayable",
      "type": "function"
    },
    {
      "inputs": [
        {
          "internalType": "address",
          "name": "from",
          "type": "address"
        },
        {
          "internalType": "address",
          "name": "to",
          "type": "address"
        },
        {
          "internalType": "uint256",
          "name": "id",
          "type": "uint256"
        },
        {
          "internalType": "uint256",
          "name": "amount",
          "type": "uint256"
        },
        {
          "internalType": "bytes",
          "name": "data",
          "type": "bytes"
        }
      ],
      "name": "safeTransferFrom",
      "outputs": [],
      "stateMutability": "nonpayable",
      "type": "function"
    },
    {
      "inputs": [
        {
          "internalType": "address",
          "name": "operator",
          "type": "address"
        },
        {
          "internalType": "bool",
          "name": "approved",
          "type": "bool"
        }
      ],
      "name": "setApprovalForAll",
      "outputs": [],
      "stateMutability": "nonpayable",
      "type": "function"
    },
    {
      "inputs": [
        {
          "internalType": "bytes4",
          "name": "interfaceId",
          "type": "bytes4"
        }
      ],
      "name": "supportsInterface",
      "outputs": [
        {
          "internalType": "bool",
          "name": "",
          "type": "bool"
        }
      ],
      "stateMutability": "view",
      "type": "function"
    },
    {
      "inputs": [
        {
          "internalType": "uint256",
          "name": "_tokenId",
          "type": "uint256"
        }
      ],
      "name": "toggleNFTStatus",
      "outputs": [],
      "stateMutability": "nonpayable",
      "type": "function"
    },
    {
      "inputs": [
        {
          "internalType": "address",
          "name": "newOwner",
          "type": "address"
        }
      ],
      "name": "transferOwnership",
      "outputs": [],
      "stateMutability": "nonpayable",
      "type": "function"
    },
    {
      "inputs": [],
      "name": "unpause",
      "outputs": [],
      "stateMutability": "nonpayable",
      "type": "function"
    },
    {
      "inputs": [
        {
          "internalType": "uint256",
          "name": "_tokenId",
          "type": "uint256"
        },
        {
          "internalType": "uint256",
          "name": "_newPrice",
          "type": "uint256"
        }
      ],
      "name": "updateNFTPrice",
      "outputs": [],
      "stateMutability": "nonpayable",
      "type": "function"
    },
    {
      "inputs": [
        {
          "internalType": "uint256",
          "name": "tokenId",
          "type": "uint256"
        }
      ],
      "name": "uri",
      "outputs": [
        {
          "internalType": "string",
          "name": "",
          "type": "string"
        }
      ],
      "stateMutability": "view",
      "type": "function"
    }
  ],
  "bytecode": "0x6080346200015357602081016001600160401b038111828210176200013d5760405260008091526002546001908181811c9116801562000132575b60208210146200011e57601f8111620000d0575b50600282905560058054336001600160a01b031982168117909255604051936001600160a01b03909116907f8be0079c531659141344cd1fd0a4f28419497f9722a3daafe3b4186f6b6457e09080a360065560ff19600754166007553315620000c1576040516140489081620001598239f35b63e6c4247b60e01b8152600490fd5b60028352601f0160051c7f405787fa12a823e0f2b7631cc41b3ba8828b3321ca811111fa75cd3aa3bb5ace9081019082905b828110620001125750506200004e565b84815501829062000102565b634e487b7160e01b83526022600452602483fd5b90607f16906200003a565b634e487b7160e01b600052604160045260246000fd5b600080fdfe6080604052600436101561001257600080fd5b60003560e01c8062fdd58e14612d6e57806301ffc9a714612cd15780630e89341c146129005780632a55205a146128d15780632eb2c2d61461249f578063305a67a8146123fc578063368d9b4814611bce5780633dca40e614611bb15780633f4ba83a14611b1d5780634ac0123d14611a925780634e1273f4146118f65780635c975abb146118d35780635d269138146117d65780636be9a6f1146117005780636c94b5cb14611549578063715018a6146114ec5780638456cb59146114925780638da5cb5b14611469578063927fbfc814611407578063935b74c81461136c5780639b8262fd146112c4578063a22cb465146111d7578063b0136c8d146110ce578063b6308e0214610eeb578063c48283ff14610be9578063cfdbf25414610bcd578063e1f1c4a714610bb0578063e985e9c514610b5a578063ecf7ba2214610604578063f242432a1461056b578063f2fde38b146104a7578063f59e506f146101a75763f83496171461018657600080fd5b346101a25760003660031901126101a257602060405160008152f35b600080fd5b346101a25760003660031901126101a2576008805460009160015b8281111561046457506101d483612ed1565b926101e26040519485612eb0565b8084526101f1601f1991612ed1565b0160005b818110610401575050600060015b83811115610308576040805160208082528751818301819052600093600582901b8401810192808b01929185015b82871061023e5785850386f35b909192938280600192603f1989820301855287519081518152848060a01b038383015116838201526102c16102ae61029b6102886040860151610160806040880152860190612dec565b6060808701519086830390870152612dec565b6080808601519085830390860152612dec565b60a0808501519084830390850152612dec565b9160c0808201519083015260e081015160e0830152610100808201519083015261012080820151908301526101408091015115159101529601920196019592919092610231565b600081815260096020818152604090922060018101549091906001600160a01b031680610342575b5050505061033d9061320f565b610203565b600a61033d9596936103f7959360ff936040519561035f87612e27565b835487528601526103726002830161305c565b60408601526103836003830161305c565b60608601526103946004830161305c565b60808601526103a56005830161305c565b60a0860152600682015460c0860152600782015460e08601528982015461010086015281015461012085015201541615156101408201526103e6828961321e565b526103f1818861321e565b5061320f565b9190868080610330565b60209060405161041081612e27565b60008152826000818301526060806040840152808084015280608084015260a0830152600060c0830152600060e08301526000610100830152600061012083015260006101408301528288010152016101f5565b6000818152600960205260409020600101546001600160a01b0316610492575b61048d9061320f565b6101c2565b9261049f61048d9161320f565b939050610484565b346101a25760203660031901126101a2576104c0612d9d565b6104c8613132565b6001600160a01b0390811690811561051757600554826001600160601b0360a01b821617600555167f8be0079c531659141344cd1fd0a4f28419497f9722a3daafe3b4186f6b6457e0600080a3005b60405162461bcd60e51b815260206004820152602660248201527f4f776e61626c653a206e6577206f776e657220697320746865207a65726f206160448201526564647265737360d01b6064820152608490fd5b346101a25760a03660031901126101a257610584612d9d565b61058c612db3565b90608435916001600160401b0383116101a2576105b06105dc933690600401612fa6565b916001600160a01b03811633811480156105de575b6105cf9150613232565b606435916044359161335b565b005b5060005260016020526040600020336000526020526105cf60ff604060002054166105c5565b6003196040368201126101a2576001600160401b03906004358281116101a257610632903690600401613102565b90926024359081116101a25761064c903690600401613102565b9190610656613b25565b61065e613a39565b828203610b485760148211610b365760009060005b8381106109fd57508134106109eb5761068d368488612ee8565b95610699368684612ee8565b946040516106a681612e95565b600081523315156106b681613b7b565b6106c38a5189511461372d565b806109d2575b610966575b60005b895181101561072457806106e861071f928a61321e565b516106f3828d61321e565b516000526020600081526040600020903360005252610718604060002091825461334e565b905561320f565b6106d1565b5088908789604051600033917f4a39dc06d4c0dbc64b70af90fd698a233a518aa5d07e595d983b8c0526c8f7fb33918061075f888b8361378a565b0390a4333b610803575b50505050906107c7946107be7f6583473987e443781108c9a74166cfb5d143516bbb4a3804805a2e0b34911563936107ae604051948594604086526040860191613b01565b9083820360208501523396613b01565b0390a234613ab4565b806107d4575b6001600655005b600080808093335af16107e5613ad1565b50156107f157806107cd565b6040516312171d8360e31b8152600490fd5b60209161086461085592604098979851958694859461084563bc197c8160e01b9a8b88523360048901526000602489015260a0604489015260a4880190612fee565b9084878303016064880152612fee565b91848303016084850152612dec565b03816000335af160009181610936575b506108e057610881613818565b6308c379a0146108a9575b60405162461bcd60e51b8152806108a5600482016138a4565b0390fd5b6108b1613836565b806108bc575061088c565b60405162461bcd60e51b8152602060048201529081906108a5906024830190612dec565b6001600160e01b0319160361091d5790846107be7f6583473987e443781108c9a74166cfb5d143516bbb4a3804805a2e0b349115636107c7610769565b60405162461bcd60e51b8152806108a5600482016137cf565b61095891925060203d811161095f575b6109508183612eb0565b8101906137af565b9088610874565b503d610946565b600d54600160401b8110156109bc578060016109859201600d55613a7d565b81549060031b9033821b9160018060a01b03901b191617905533600052600e6020526040600020600160ff198254161790556106ce565b634e487b7160e01b600052604160045260246000fd5b5033600052600e60205260ff60406000205416156106c9565b60405163cd1c886760e01b8152600490fd5b610a08818589613ac1565b35600052600960205260406000209260ff600a8501541615610b2457610a2f828785613ac1565b3515610b125760088401908154610a47848987613ac1565b358101600787015410610b0057610a838792610a7d868b610a708f9b600684910154928c613ac1565b350295868094019a613ac1565b3561397c565b938492610a91878c8a613ac1565b3501905581610ad7575b508103610aad575b5050600101610673565b600080809381930360018060a01b03600554165af1610aca613ad1565b50156107f1578780610aa3565b6000918291829182916001600160a01b03165af1610af3613ad1565b50156107f157818a610a9b565b604051638a164f6360e01b8152600490fd5b60405163b4fa3fb360e01b8152600490fd5b60405163ad9d099b60e01b8152600490fd5b604051631e80759560e21b8152600490fd5b60405163512509d360e11b8152600490fd5b346101a25760403660031901126101a257610b73612d9d565b610b7b612db3565b9060018060a01b03809116600052600160205260406000209116600052602052602060ff604060002054166040519015158152f35b346101a25760003660031901126101a25760206040516127108152f35b346101a25760003660031901126101a257602060405160148152f35b610bf236612e11565b90610bfb613b25565b610c03613a39565b8060005260209160098352604060002060ff600a8201541615610b24578115610b125760088101805491610c37848461334e565b600782015410610b0057836006610c4f920154613969565b918234106109eb5783610c619161334e565b9055610c6d818461397c565b509060008080808460018060a01b038097165af1610c89613ad1565b50156107f157803411610ec5575b5060405190610ca582612e95565b60008252331515610cb581613b7b565b610cbe856138f9565b50610cc8846138f9565b5080610ead575b610e5d575b50826000526000845260406000203360005284526040600020610cf883825461334e565b90556040518381528285820152600033917fc3d58168c5ae7397731d063d5bbf3d657854427343f4c083240f7aacaa2d0f6260403392a4333b610d6e575b50826040519283528201527f3a8a89b59a31c39a36febecb987e0657ab7b7c73b60ebacb44dcb9886c2d5c8a60403392a26001600655005b604051848180610dad63f23a6e6160e01b958683523360048401526000602484015288604484015287606484015260a0608484015260a4830190612dec565b03816000335af160009181610e3e575b50610e235784610dcb613818565b6308c379a014610dee5760405162461bcd60e51b8152806108a5600482016138a4565b610df6613836565b9081610e02575061088c565b6108a560405192839262461bcd60e51b845260048401526024830190612dec565b929391926001600160e01b0319160361091d57919083610d36565b610e56919250863d881161095f576109508183612eb0565b9086610dbd565b600d54600160401b8110156109bc57806001610e7c9201600d55613a7d565b819291549060031b9133831b921b191617905533600052600e84526040600020600160ff1982541617905584610cd4565b5033600052600e855260ff6040600020541615610ccf565b60008080610ed4819434613ab4565b335af1610edf613ad1565b50156107f15784610c97565b60603660031901126101a257600435610f02612db3565b604435610f0d613b25565b610f15613a39565b6001600160a01b03928284169182156110bc5733156110bc573383146110aa5781600052602093600a855260406000208460005285526040600020908487835416036110aa5760028201918383541061109857846000526009875260ff600a604060002001541615610b245783610f8c868461318a565b10611098576001019183835402978834106109eb57610fab898761397c565b919082611078575b50506000808080938c038a5af1610fc8613ad1565b50156107f157610fed8492838760405192610fe284612e95565b60008452339061335b565b80549082820390551461104d575b54936040519485528401527f5fafad85dec201c2e73b6a2bef6351129304a624ea8720ecd04cd7f04d83bc3960403394a480341161103a576001600655005b6000808080933403335af16107e5613ad1565b82600052600a8552604060002084600052855260006002604082208281558260018201550155610ffb565b6000808481948294165af161108b613ad1565b50156107f1578980610fb3565b604051631e9acf1760e31b8152600490fd5b60405163ea8e4eb560e01b8152600490fd5b60405163e6c4247b60e01b8152600490fd5b346101a25760603660031901126101a2576044356004356024356110f0613b25565b6110f8613a39565b80611103833361318a565b10611098578015610b125782156111c65781600052600960205260ff600a604060002001541615610b245760405161113a81612e5e565b338152600260208201858152604083019084825285600052600a60205260406000203360005260205260406000209360018060a01b039051166001600160601b0360a01b8554161784555160018401555191015560405192835260208301527f36e94395fafcb0d2a9bcfcdd5cef807ab52a1f4382906992ebdc18de5f1472c460403393a36001600655005b60405162bfc92160e01b8152600490fd5b346101a25760403660031901126101a2576111f0612d9d565b60243590811515908183036101a2576001600160a01b03169133831461126d5761123f9033600052600160205260406000208460005260205260406000209060ff801983541691151516179055565b6040519081527f17307eab39ab6107e8899845ad3d59bd9653f200f220920489ca2b5937696c3160203392a3005b60405162461bcd60e51b815260206004820152602960248201527f455243313135353a2073657474696e6720617070726f76616c20737461747573604482015268103337b91039b2b63360b91b6064820152608490fd5b346101a25760203660031901126101a2576004356112e0613a39565b60008181526009602052604090206001810154336001600160a01b039182161415908161135d575b506110aa57602060ff600a7fb98f2e7a31992fd0038957c8b37afbfde15601543d7e49508ff1093c402e6b8993016113508282541615829060ff801983541691151516179055565b54166040519015158152a2005b90506005541633141583611308565b346101a25760403660031901126101a2576060611387612db3565b60006040805161139681612e5e565b8281528260208201520152600435600052600a602052604060002060018060a01b03809216600052602052604060002090604051906113d482612e5e565b82541691828252604060026001830154926020850193845201549201918252604051928352516020830152516040820152f35b346101a25760403660031901126101a2576060611422612db3565b600435600052600a602052604060002060018060a01b0380921660005260205260406000209081541690600260018201549101549060405192835260208301526040820152f35b346101a25760003660031901126101a2576005546040516001600160a01b039091168152602090f35b346101a25760003660031901126101a2576114ab613132565b6114b3613a39565b600160ff1960075416176007557f62e78cea01bee320cd4e420270b5ea74000d11b0c9f74754ebdbfc544b05a2586020604051338152a1005b346101a25760003660031901126101a257611505613132565b600580546001600160a01b031981169091556000906001600160a01b03167f8be0079c531659141344cd1fd0a4f28419497f9722a3daafe3b4186f6b6457e08280a3005b346101a2576020806003193601126101a25760043590816000526009815260018060a01b039060019282846040600020015416156116ee579290916000936000600d54905b81811061169d575061159f86612ed1565b916115ad6040519384612eb0565b8683526115b987612ed1565b8387019790601f190136893760009283875b611612575b50505050506040519380850191818652518092526040850195926000905b8382106115fb5786880387f35b8451811688529682019693820193908501906115ee565b908181899b99969594939a97989a1080611694575b15611687578961163682613a7d565b90549060031b1c16611648858261318a565b611667575b506116579061320f565b90919293949799989695986115cb565b856116809161167a61165794988c61321e565b5261320f565b949061164d565b50989698979594976115d0565b50828510611627565b6116bf83856116b2849a989a99969799613a7d565b90549060031b1c1661318a565b6116d9575b6116cd9061320f565b9593959492919461158e565b936116e66116cd9161320f565b9490506116c4565b60405163f070cb6f60e01b8152600490fd5b346101a25760203660031901126101a25761171c600435613e8c565b604051809160208252805161178a61174261014092836020870152610160860190612dec565b611775611761602086015192601f1993848983030160408a0152612dec565b604086015183888303016060890152612dec565b90606085015190868303016080870152612dec565b9160018060a01b0360808201511660a085015260a081015160c085015260c081015160e085015260e0810151610100908186015281015190610120918286015201511515908301520390f35b346101a25760203660031901126101a2576004356000908152600960205260409020805460018201546001600160a01b0316916118156002820161305c565b6118216003830161305c565b9161182e6004820161305c565b9261183b6005830161305c565b93600683015494600784015491600885015493600986015495600a015460ff16966040519a8b9a8b5260208b01526101608060408c01528a0161187d91612dec565b89810360608b015261188e91612dec565b88810360808a015261189f91612dec565b87810360a08901526118b091612dec565b9460c087015260e086015261010085015261012084015215156101408301520390f35b346101a25760003660031901126101a257602060ff600754166040519015158152f35b346101a25760403660031901126101a2576004356001600160401b038082116101a257366023830112156101a25781600401359061193382612ed1565b926119416040519485612eb0565b82845260209260248486019160051b830101913683116101a257602401905b828210611a73575050506024359081116101a257611982903690600401612f36565b8251815103611a1c5782519261199784612ed1565b936119a56040519586612eb0565b8085526119b4601f1991612ed1565b01368486013760005b8151811015611a01576119fc906119f26001600160a01b036119df838661321e565b51166119eb838761321e565b519061318a565b61167a828861321e565b6119bd565b505050611a18604051928284938452830190612fee565b0390f35b60405162461bcd60e51b815260048101839052602960248201527f455243313135353a206163636f756e747320616e6420696473206c656e677468604482015268040dad2e6dac2e8c6d60bb1b6064820152608490fd5b81356001600160a01b03811681036101a2578152908401908401611960565b346101a257611aa036612e11565b611aa8613a39565b60008281526009602052604090206001810154336001600160a01b0391821614159081611b0e575b506110aa5781156111c657817f2847cfe8afe8bcd9ac540f0259739697ea019f65d44c8e76c8796b8ce52f7c319260066020930155604051908152a2005b90506005541633141584611ad0565b346101a25760003660031901126101a257611b36613132565b60075460ff811615611b755760ff19166007557f5db9ee0a495bf2e6ff9c91a7834c1ba4fdd244a5e8aa4e537bd38aeae4b073aa6020604051338152a1005b60405162461bcd60e51b815260206004820152601460248201527314185d5cd8589b194e881b9bdd081c185d5cd95960621b6044820152606490fd5b346101a25760003660031901126101a25760206040516109c48152f35b346101a25760e03660031901126101a2576004356001600160401b0381116101a257611bfe903690600401612fc1565b6024356001600160401b0381116101a257611c1d903690600401612fc1565b90926044356001600160401b0381116101a257611c3e903690600401612fc1565b6064949194356001600160401b0381116101a257611c60903690600401612fc1565b90611c69613a39565b33156110bc57831580156123f4575b80156123ec575b80156123e4575b610b1257608435156111c65760a435156123d2576109c460c435116123c057611d0091611cf4600160085401988960085560405195611cc487612e27565b8a8752336020880152611cd836898b612f6f565b6040880152611ce8368b8e612f6f565b60608801523691612f6f565b60808501523691612f6f565b60a082015260843560c082015260a43560e0820152600061010082015260c43561012082015260016101408201528460005260096020526040600020908051825560018060a01b036020820151166001600160601b0360a01b60018401541617600183015560408101518051906001600160401b0382116109bc578190611d9782611d8e6002880154613022565b600288016139e5565b602090601f831160011461234e57600092612343575b50508160011b916000199060031b1c19161760028301555b60608101518051906001600160401b0382116109bc578190611df782611dee6003880154613022565b600388016139e5565b602090601f83116001146122d1576000926122c6575b50508160011b916000199060031b1c19161760038301555b60808101518051906001600160401b0382116109bc578190611e5782611e4e6004880154613022565b600488016139e5565b602090601f831160011461225457600092612249575b50508160011b916000199060031b1c19161760048301555b60a08101518051906001600160401b0382116109bc57611eb582611eac6005870154613022565b600587016139e5565b602090601f83116001146121cf579282600a9361014093611f3297966000926121c4575b50508160011b916000199060031b1c19161760058501555b60c0810151600685015560e08101516007850155610100810151600885015561012081015160098501550151151591019060ff801983541691151516179055565b83600052600b6020526040600020916001600160401b0382116109bc578190611f6582611f5f8654613022565b866139e5565b600090601f831160011461215c57600092612151575b50508160011b916000199060031b1c19161790555b81600052600c6020526040600020906001600160401b0381116109bc57611fc181611fbb8454613022565b846139e5565b6000601f82116001146120eb57819293946000926120e0575b50508160011b916000199060031b1c19161790555b6001600160601b0360c435169061271082116120885760405160209261201482612e43565b338252838201908152826000526004845260406000209160018060a01b03905116906001600160601b0360a01b905160a01b16179055604051608435815260a43583820152817f23cbb18bfb096672f2fc538a6d637483d9db0f85666ae980eba20ae2874da1a460403393a3604051908152f35b60405162461bcd60e51b815260206004820152602a60248201527f455243323938313a20726f79616c7479206665652077696c6c206578636565646044820152692073616c65507269636560b01b6064820152608490fd5b013590508480611fda565b601f198216948360005260206000209160005b87811061213957508360019596971061211f575b505050811b019055611fef565b0135600019600384901b60f8161c19169055848080612112565b909260206001819286860135815501940191016120fe565b013590508680611f7b565b600085815260208120909450915b601f19841685106121ac576001945083601f19811610612192575b505050811b019055611f90565b0135600019600384901b60f8161c19169055868080612185565b8181013583556020948501946001909301920161216a565b015190508c80611ed9565b906005850160005260206000209160005b601f198516811061223157508361014093611f32979693600193600a97601f19811610612218575b505050811b016005850155611ef1565b015160001960f88460031b161c191690558c8080612208565b919260206001819286850151815501940192016121e0565b015190508980611e6d565b9250600485016000526020600020906000935b601f19841685106122ab576001945083601f19811610612292575b505050811b016004830155611e85565b015160001960f88460031b161c19169055898080612282565b81810151835560209485019460019093019290910190612267565b015190508980611e0d565b9250600385016000526020600020906000935b601f1984168510612328576001945083601f1981161061230f575b505050811b016003830155611e25565b015160001960f88460031b161c191690558980806122ff565b818101518355602094850194600190930192909101906122e4565b015190508980611dad565b9250600285016000526020600020906000935b601f19841685106123a5576001945083601f1981161061238c575b505050811b016002830155611dc5565b015160001960f88460031b161c1916905589808061237c565b81810151835560209485019460019093019290910190612361565b60405163e0e54ced60e01b8152600490fd5b6040516315ae672760e01b8152600490fd5b508115611c86565b508215611c7f565b508515611c78565b346101a25760203660031901126101a257600435612418613b25565b612420613a39565b80600052600a6020526040600020336000526020523360018060a01b0360406000205416036110aa5780600052600a6020526040600020336000526020526000600260408220828155826001820155015533907f8e25282255ab31897df2b0456bb993ac7f84d376861aefd84901d2d63a7428a2600080a36001600655005b346101a25760031960a0368201126101a2576124b9612d9d565b6124c1612db3565b906001600160401b03906044358281116101a2576124e3903690600401612f36565b6064358381116101a2576124fb903690600401612f36565b926084359081116101a257612514903690600401612fa6565b6001600160a01b03928316959033871480156128a8575b61253490613232565b612541835186511461372d565b8386169384151561255181613295565b808061288f575b612840575b8815159081612838575b506126d2575b5060005b835181101561260057806125886125fb928661321e565b51612593828961321e565b5190806000526020906000825260406000208c6000528252826040600020546125be828210156132ef565b82600052600084528d604060002090600052845203604060002055600052600081526040600020908860005252610718604060002091825461334e565b612571565b5090949392919382876040517f4a39dc06d4c0dbc64b70af90fd698a233a518aa5d07e595d983b8c0526c8f7fb33918061263b8a8c8361378a565b0390a43b61264557005b60006020946126876108559761084594604051998a988997889663bc197c8160e01b9e8f89523360048a0152602489015260a0604489015260a4880190612fee565b03925af1600091816126b2575b506126a157610881613818565b6001600160e01b0319160361091d57005b6126cb91925060203d811161095f576109508183612eb0565b9083612694565b96949390959160005b845181101561282a57806126f261272a928761321e565b51600052878a600a602090808252604060002084600052825283604060002093845416148061281d575b61272f575b5050505061320f565b6126db565b612739858c61321e565b51928b868c600296878501938454809210156000146127bd57505090915060009650612765925061321e565b518452815260408320908b8452526040822082815582600182015501558761278d828861321e565b517f8e25282255ab31897df2b0456bb993ac7f84d376861aefd84901d2d63a7428a2600080a35b878b8080612721565b7f36e94395fafcb0d2a9bcfcdd5cef807ab52a1f4382906992ebdc18de5f1472c497959850604096509161280284926127fb60019661280a9661321e565b5190613ab4565b80955561321e565b51950154918351928352820152a36127b4565b506002830154151561271c565b50919590939496508761256d565b905089612567565b600d54600160401b8110156109bc5780600161285f9201600d55613a7d565b81549060031b908489831b921b191617905585600052600e6020526040600020600160ff1982541617905561255d565b5085600052600e60205260ff6040600020541615612558565b5086600052600160205260406000203360005260205261253460ff60406000205416905061252b565b346101a25760406128ea6128e436612e11565b9061397c565b82516001600160a01b0390921682526020820152f35b346101a2576020806003193601126101a25760043590816000526009815260018060a01b0360019281846040600020015416156116ee5761294090613e8c565b908151918381015190604081015192606082015190608083015116966040519761296989612e5e565b602a8952878901916040368437895115612cbb57603083538951811015612cbb57607860218b01536029905b808211612c5d575050612c1a57869760c08401516129b290613d49565b9260e08501516129c190613d49565b9461010001516129d090613d49565b96896040519a8b9a683d913730b6b2911d1160b91b828d01528b81519260298492019201916129fe92612dc9565b8a0161088b60f21b988960298301526e113232b9b1b934b83a34b7b7111d1160891b602b83015280518093603a8401920191612a3992612dc9565b0187603a820152681134b6b0b3b2911d1160b91b603c820152815191828d60458401920191612a6792612dc9565b01866045820152701130b734b6b0ba34b7b72fbab936111d1160791b6047820152815191828c60588401920191612a9d92612dc9565b01908560588301526d2270726f70657274696573223a7b60901b605a8301526a1131b932b0ba37b9111d1160a91b606883015251918260738301612ae092612dc9565b018360738201526c1136b0bc29bab838363c911d1160991b6075820152815191828960828401920191612b1292612dc9565b01826082820152701131bab93932b73a29bab838363c911d1160791b6084820152815191828860958401920191612b4892612dc9565b019060958201526d113937bcb0b63a3ca12829911d1160911b6097820152815191828660a58401920191612b7b92612dc9565b01601160f91b60a582015260a68101617d7d60f01b90520360888101825260a801612ba69082612eb0565b612baf90613c03565b9060405180928282017f646174613a6170706c69636174696f6e2f6a736f6e3b6261736536342c00000090528051908184603d8501920191612bf092612dc9565b810103601d81018352603d01612c069083612eb0565b6040519181839283528201611a1891612dec565b6064876040519062461bcd60e51b825280600483015260248201527f537472696e67733a20686578206c656e67746820696e73756666696369656e746044820152fd5b9091600f81166010811015612cbb578b51841015612cbb576f181899199a1a9b1b9c1cb0b131b232b360811b901a8b84018b015360041c918015612ca5576000190190612995565b634e487b7160e01b600052601160045260246000fd5b634e487b7160e01b600052603260045260246000fd5b346101a25760203660031901126101a25760043563ffffffff60e01b81168091036101a25760209063152a902d60e11b81149081908115612d28575b508115612d20575b506040519015158152f35b905082612d15565b909150636cdb3d1360e11b8114908115612d5d575b8115612d4c575b509083612d0d565b6301ffc9a760e01b14905083612d44565b6303a24d0760e21b81149150612d3d565b346101a25760403660031901126101a2576020612d95612d8c612d9d565b6024359061318a565b604051908152f35b600435906001600160a01b03821682036101a257565b602435906001600160a01b03821682036101a257565b60005b838110612ddc5750506000910152565b8181015183820152602001612dcc565b90602091612e0581518092818552858086019101612dc9565b601f01601f1916010190565b60409060031901126101a2576004359060243590565b61016081019081106001600160401b038211176109bc57604052565b604081019081106001600160401b038211176109bc57604052565b606081019081106001600160401b038211176109bc57604052565b61014081019081106001600160401b038211176109bc57604052565b602081019081106001600160401b038211176109bc57604052565b90601f801991011681019081106001600160401b038211176109bc57604052565b6001600160401b0381116109bc5760051b60200190565b9291612ef382612ed1565b91612f016040519384612eb0565b829481845260208094019160051b81019283116101a257905b828210612f275750505050565b81358152908301908301612f1a565b9080601f830112156101a257816020612f5193359101612ee8565b90565b6001600160401b0381116109bc57601f01601f191660200190565b929192612f7b82612f54565b91612f896040519384612eb0565b8294818452818301116101a2578281602093846000960137010152565b9080601f830112156101a257816020612f5193359101612f6f565b9181601f840112156101a2578235916001600160401b0383116101a257602083818601950101116101a257565b90815180825260208080930193019160005b82811061300e575050505090565b835185529381019392810192600101613000565b90600182811c92168015613052575b602083101461303c57565b634e487b7160e01b600052602260045260246000fd5b91607f1691613031565b906040519182600082549261307084613022565b9081845260019485811690816000146130df575060011461309c575b505061309a92500383612eb0565b565b9093915060005260209081600020936000915b8183106130c757505061309a9350820101388061308c565b855488840185015294850194879450918301916130af565b91505061309a94506020925060ff191682840152151560051b820101388061308c565b9181601f840112156101a2578235916001600160401b0383116101a2576020808501948460051b0101116101a257565b6005546001600160a01b0316330361314657565b606460405162461bcd60e51b815260206004820152602060248201527f4f776e61626c653a2063616c6c6572206973206e6f7420746865206f776e65726044820152fd5b6001600160a01b03169081156131b757600052600060205260406000209060005260205260406000205490565b60405162461bcd60e51b815260206004820152602a60248201527f455243313135353a2061646472657373207a65726f206973206e6f742061207660448201526930b634b21037bbb732b960b11b6064820152608490fd5b6000198114612ca55760010190565b8051821015612cbb5760209160051b010190565b1561323957565b60405162461bcd60e51b815260206004820152602e60248201527f455243313135353a2063616c6c6572206973206e6f7420746f6b656e206f776e60448201526d195c881bdc88185c1c1c9bdd995960921b6064820152608490fd5b1561329c57565b60405162461bcd60e51b815260206004820152602560248201527f455243313135353a207472616e7366657220746f20746865207a65726f206164604482015264647265737360d81b6064820152608490fd5b156132f657565b60405162461bcd60e51b815260206004820152602a60248201527f455243313135353a20696e73756666696369656e742062616c616e636520666f60448201526939103a3930b739b332b960b11b6064820152608490fd5b91908201809211612ca557565b9192909360018060a01b03808616908115159461337786613295565b613380876138f9565b918061338b876138f9565b928880613714575b6136c2575b169687151590816136ba575b5061355b575b505050600092858452602095848752604097888620878752885282898720546133d5828210156132ef565b838852878a528a88208989528a520389872055818652858852888620848752885288862061340484825461334e565b905583878a51848152858b8201527fc3d58168c5ae7397731d063d5bbf3d657854427343f4c083240f7aacaa2d0f628c3392a43b613447575b5050505050505050565b9184939161348f9588999a98948b519788958694859363f23a6e6160e01b9c8d865233600487015260248601526044850152606484015260a0608484015260a4830190612dec565b03925af190918161353c575b50613502575050506134ab613818565b6308c379a0146134ce575b505162461bcd60e51b8152806108a5600482016138a4565b6134d6613836565b90816134e257506134b6565b6108a5835192839262461bcd60e51b845260048401526024830190612dec565b919392506001600160e01b0319909116036135255750388080808080808061343d565b5162461bcd60e51b8152806108a5600482016137cf565b613554919250853d871161095f576109508183612eb0565b903861349b565b9490959691989360009893985b8a518110156136a857808989828e6135836135bf968261321e565b516000528b600a60209080825260409283600020886000528352878460002091825416148061369b575b6135c4575b505050505050505061320f565b613568565b6135ce868861321e565b516002828101805491999092821161364a57505050509161361695916000936135f7878761321e565b518552815281842090888552528220828155826001820155015561321e565b517f8e25282255ab31897df2b0456bb993ac7f84d376861aefd84901d2d63a7428a2600080a35b8989828e388080806135b2565b613688939950600194508892959697916127fb7f36e94395fafcb0d2a9bcfcdd5cef807ab52a1f4382906992ebdc18de5f1472c49a6128029361321e565b51950154918351928352820152a361363d565b50600281015415156135ad565b509398509350949350943880806133aa565b9050386133a4565b600d549150600160401b8210156109bc576136e4826001859401600d55613a7d565b81549060031b908489831b921b191617905585600052600e6020526040600020600160ff19825416179055613398565b5085600052600e60205260ff6040600020541615613393565b1561373457565b60405162461bcd60e51b815260206004820152602860248201527f455243313135353a2069647320616e6420616d6f756e7473206c656e677468206044820152670dad2e6dac2e8c6d60c31b6064820152608490fd5b90916137a1612f5193604084526040840190612fee565b916020818403910152612fee565b908160209103126101a257516001600160e01b0319811681036101a25790565b60809060208152602860208201527f455243313135353a204552433131353552656365697665722072656a656374656040820152676420746f6b656e7360c01b60608201520190565b60009060033d1161382557565b905060046000803e60005160e01c90565b600060443d10612f5157604051600319913d83016004833e81516001600160401b03918282113d6024840111176138935781840194855193841161389b573d850101602084870101116138935750612f5192910160200190612eb0565b949350505050565b50949350505050565b60809060208152603460208201527f455243313135353a207472616e7366657220746f206e6f6e2d455243313135356040820152732932b1b2b4bb32b91034b6b83632b6b2b73a32b960611b60608201520190565b6040519061390682612e43565b60018252602082016020368237825115612cbb575290565b6040519061392b82612e43565b6003546001600160a01b038116835260a01c6020830152565b9060405161395181612e43565b91546001600160a01b038116835260a01c6020830152565b81810292918115918404141715612ca557565b91909160005260046020526139946040600020613944565b805190926001600160a01b03918216156139cc575b6139c4612710916001600160601b0360208701511690613969565b049251169190565b92506127106139c46139dc61391e565b949150506139a9565b90601f81116139f357505050565b600091825260208220906020601f850160051c83019410613a2f575b601f0160051c01915b828110613a2457505050565b818155600101613a18565b9092508290613a0f565b60ff60075416613a4557565b60405162461bcd60e51b815260206004820152601060248201526f14185d5cd8589b194e881c185d5cd95960821b6044820152606490fd5b600d54811015612cbb57600d6000527fd7b6990105719101dabeb77144f2a3385c8033acd3af97e9423a695e81ad1eb50190600090565b91908203918211612ca557565b9190811015612cbb5760051b0190565b3d15613afc573d90613ae282612f54565b91613af06040519384612eb0565b82523d6000602084013e565b606090565b81835290916001600160fb1b0383116101a25760209260051b809284830137010190565b600260065414613b36576002600655565b60405162461bcd60e51b815260206004820152601f60248201527f5265656e7472616e637947756172643a207265656e7472616e742063616c6c006044820152606490fd5b15613b8257565b60405162461bcd60e51b815260206004820152602160248201527f455243313135353a206d696e7420746f20746865207a65726f206164647265736044820152607360f81b6064820152608490fd5b90613bdb82612f54565b613be86040519182612eb0565b8281528092613bf9601f1991612f54565b0190602036910137565b805115613d3557604051613c1681612e5e565b604081527f4142434445464748494a4b4c4d4e4f505152535455565758595a61626364656660208201527f6768696a6b6c6d6e6f707172737475767778797a303132333435363738392b2f60408201528151600292838201809211612ca5576003918290046001600160fe1b0381168103612ca557613c98908594951b613bd1565b936020850193829183518401925b838110613ce45750505050510680600114613cd157600214613cc6575090565b603d90600019015390565b50603d9081600019820153600119015390565b85600491979293949701918251600190603f9082828260121c16880101518453828282600c1c16880101518385015382828260061c1688010151888501531685010151878201530195929190613ca6565b50604051613d4281612e95565b6000815290565b806000917a184f03e93ff9f4daa797ed6e38ed64bf6a1f01000000000000000080821015613e7e575b506d04ee2d6d415b85acef810000000080831015613e6f575b50662386f26fc1000080831015613e60575b506305f5e10080831015613e51575b5061271080831015613e42575b506064821015613e32575b600a80921015613e28575b600190816021613de0828701613bd1565b95860101905b613df2575b5050505090565b600019019083906f181899199a1a9b1b9c1cb0b131b232b360811b8282061a835304918215613e2357919082613de6565b613deb565b9160010191613dcf565b9190606460029104910191613dc4565b60049193920491019138613db9565b60089193920491019138613dac565b60109193920491019138613d9d565b60209193920491019138613d8b565b604093508104915038613d72565b604090815190613e9b82612e79565b6060908183526020938285850152828185015282808501526000948560808601528560a08601528560c08601528560e086015261010091868387015286610120809701528387526009825260018060a01b0394856001838a200154161561400157848852600983528188209060048452613f16838a20613944565b848882511615613fe8575b6001600160601b03910151169561271087810204809703613fd4578952600b845282808a2099600c8652209660018301541690600683015492600781015494600882015496600a83015460ff169a8251809e613f7c82612e79565b613f859061305c565b9052613f909061305c565b908d0152613fa06005830161305c565b908c0152600401613fb09061305c565b908a0152608089015260a088015260c087015260e086015284015215159082015290565b634e487b7160e01b8a52601160045260248afd5b6001600160601b039150613ffa61391e565b9150613f21565b815163f070cb6f60e01b8152600490fdfea2646970667358221220dd14c749245e77bd4b1b8d5180333df445bc5bd73f9646a0d64e4655568f0c3f64736f6c63430008140033",
  "linkReferences": {},
  "deployedLinkReferences": {}
}