{
  "_format": "hh-sol-artifact-1",
  "contractName": "MusicNFTMarketplace",
  "sourceName": "contracts/MusicNFTMarketplace.sol",
  "abi": [
    {
      "inputs": [],
      "stateMutability": "nonpayable",
      "type": "constructor"
    },
    {
      "inputs": [],
      "name": "ArrayLengthMismatch",
      "type": "error"
    },
    {
      "inputs": [],
      "name": "BatchSizeTooLarge",
      "type": "error"
    },
    {
      "inputs": [],
      "name": "InsufficientBalance",
      "type": "error"
    },
    {
      "inputs": [],
      "name": "InsufficientPayment",
      "type": "error"
    },
    {
      "inputs": [],
      "name": "InvalidAddress",
      "type": "error"
    },
    {
      "inputs": [],
      "name": "InvalidInput",
      "type": "error"
    },
    {
      "inputs": [],
      "name": "InvalidPrice",
      "type": "error"
    },
    {
      "inputs": [],
      "name": "InvalidRoyalty",
      "type": "error"
    },
    {
      "inputs": [],
      "name": "InvalidSupply",
      "type": "error"
    },
    {
      "inputs": [],
      "name": "MaxSupplyExceeded",
      "type": "error"
    },
    {
      "inputs": [],
      "name": "NFTNotActive",
      "type": "error"
    },
    {
      "inputs": [],
      "name": "NFTNotFound",
      "type": "error"
    },
    {
      "inputs": [],
      "name": "NotAuthorized",
      "type": "error"
    },
    {
      "inputs": [],
      "name": "Overflow",
      "type": "error"
    },
    {
      "inputs": [],
      "name": "TransferFailed",
      "type": "error"
    },
    {
      "anonymous": false,
      "inputs": [
        {
          "indexed": true,
          "internalType": "address",
          "name": "account",
          "type": "address"
        },
        {
          "indexed": true,
          "internalType": "address",
          "name": "operator",
          "type": "address"
        },
        {
          "indexed": false,
          "internalType": "bool",
          "name": "approved",
          "type": "bool"
        }
      ],
      "name": "ApprovalForAll",
      "type": "event"
    },
    {
      "anonymous": false,
      "inputs": [
        {
          "indexed": true,
          "internalType": "address",
          "name": "seller",
          "type": "address"
        },
        {
          "indexed": false,
          "internalType": "uint256[]",
          "name": "tokenIds",
          "type": "uint256[]"
        },
        {
          "indexed": false,
          "internalType": "uint256[]",
          "name": "amounts",
          "type": "uint256[]"
        },
        {
          "indexed": false,
          "internalType": "uint256[]",
          "name": "prices",
          "type": "uint256[]"
        }
      ],
      "name": "BatchListingCompleted",
      "type": "event"
    },
    {
      "anonymous": false,
      "inputs": [
        {
          "indexed": true,
          "internalType": "address",
          "name": "buyer",
          "type": "address"
        },
        {
          "indexed": false,
          "internalType": "uint256[]",
          "name": "tokenIds",
          "type": "uint256[]"
        },
        {
          "indexed": false,
          "internalType": "uint256[]",
          "name": "amounts",
          "type": "uint256[]"
        }
      ],
      "name": "BatchMintCompleted",
      "type": "event"
    },
    {
      "anonymous": false,
      "inputs": [
        {
          "indexed": true,
          "internalType": "uint256",
          "name": "tokenId",
          "type": "uint256"
        },
        {
          "indexed": true,
          "internalType": "address",
          "name": "seller",
          "type": "address"
        }
      ],
      "name": "ListingCancelled",
      "type": "event"
    },
    {
      "anonymous": false,
      "inputs": [
        {
          "indexed": true,
          "internalType": "uint256",
          "name": "tokenId",
          "type": "uint256"
        },
        {
          "indexed": true,
          "internalType": "address",
          "name": "creator",
          "type": "address"
        },
        {
          "indexed": false,
          "internalType": "uint256",
          "name": "price",
          "type": "uint256"
        },
        {
          "indexed": false,
          "internalType": "uint256",
          "name": "maxSupply",
          "type": "uint256"
        }
      ],
      "name": "NFTCreated",
      "type": "event"
    },
    {
      "anonymous": false,
      "inputs": [
        {
          "indexed": true,
          "internalType": "uint256",
          "name": "tokenId",
          "type": "uint256"
        },
        {
          "indexed": true,
          "internalType": "address",
          "name": "seller",
          "type": "address"
        },
        {
          "indexed": false,
          "internalType": "uint256",
          "name": "price",
          "type": "uint256"
        },
        {
          "indexed": false,
          "internalType": "uint256",
          "name": "amount",
          "type": "uint256"
        }
      ],
      "name": "NFTListed",
      "type": "event"
    },
    {
      "anonymous": false,
      "inputs": [
        {
          "indexed": true,
          "internalType": "uint256",
          "name": "tokenId",
          "type": "uint256"
        },
        {
          "indexed": false,
          "internalType": "uint256",
          "name": "newPrice",
          "type": "uint256"
        }
      ],
      "name": "NFTPriceUpdated",
      "type": "event"
    },
    {
      "anonymous": false,
      "inputs": [
        {
          "indexed": true,
          "internalType": "uint256",
          "name": "tokenId",
          "type": "uint256"
        },
        {
          "indexed": true,
          "internalType": "address",
          "name": "seller",
          "type": "address"
        },
        {
          "indexed": true,
          "internalType": "address",
          "name": "buyer",
          "type": "address"
        },
        {
          "indexed": false,
          "internalType": "uint256",
          "name": "price",
          "type": "uint256"
        },
        {
          "indexed": false,
          "internalType": "uint256",
          "name": "amount",
          "type": "uint256"
        }
      ],
      "name": "NFTSold",
      "type": "event"
    },
    {
      "anonymous": false,
      "inputs": [
        {
          "indexed": true,
          "internalType": "uint256",
          "name": "tokenId",
          "type": "uint256"
        },
        {
          "indexed": false,
          "internalType": "bool",
          "name": "isActive",
          "type": "bool"
        }
      ],
      "name": "NFTStatusUpdated",
      "type": "event"
    },
    {
      "anonymous": false,
      "inputs": [
        {
          "indexed": true,
          "internalType": "address",
          "name": "previousOwner",
          "type": "address"
        },
        {
          "indexed": true,
          "internalType": "address",
          "name": "newOwner",
          "type": "address"
        }
      ],
      "name": "OwnershipTransferred",
      "type": "event"
    },
    {
      "anonymous": false,
      "inputs": [
        {
          "indexed": false,
          "internalType": "address",
          "name": "account",
          "type": "address"
        }
      ],
      "name": "Paused",
      "type": "event"
    },
    {
      "anonymous": false,
      "inputs": [
        {
          "indexed": true,
          "internalType": "address",
          "name": "operator",
          "type": "address"
        },
        {
          "indexed": true,
          "internalType": "address",
          "name": "from",
          "type": "address"
        },
        {
          "indexed": true,
          "internalType": "address",
          "name": "to",
          "type": "address"
        },
        {
          "indexed": false,
          "internalType": "uint256[]",
          "name": "ids",
          "type": "uint256[]"
        },
        {
          "indexed": false,
          "internalType": "uint256[]",
          "name": "values",
          "type": "uint256[]"
        }
      ],
      "name": "TransferBatch",
      "type": "event"
    },
    {
      "anonymous": false,
      "inputs": [
        {
          "indexed": true,
          "internalType": "address",
          "name": "operator",
          "type": "address"
        },
        {
          "indexed": true,
          "internalType": "address",
          "name": "from",
          "type": "address"
        },
        {
          "indexed": true,
          "internalType": "address",
          "name": "to",
          "type": "address"
        },
        {
          "indexed": false,
          "internalType": "uint256",
          "name": "id",
          "type": "uint256"
        },
        {
          "indexed": false,
          "internalType": "uint256",
          "name": "value",
          "type": "uint256"
        }
      ],
      "name": "TransferSingle",
      "type": "event"
    },
    {
      "anonymous": false,
      "inputs": [
        {
          "indexed": false,
          "internalType": "string",
          "name": "value",
          "type": "string"
        },
        {
          "indexed": true,
          "internalType": "uint256",
          "name": "id",
          "type": "uint256"
        }
      ],
      "name": "URI",
      "type": "event"
    },
    {
      "anonymous": false,
      "inputs": [
        {
          "indexed": false,
          "internalType": "address",
          "name": "account",
          "type": "address"
        }
      ],
      "name": "Unpaused",
      "type": "event"
    },
    {
      "inputs": [],
      "name": "BASIS_POINTS",
      "outputs": [
        {
          "internalType": "uint256",
          "name": "",
          "type": "uint256"
        }
      ],
      "stateMutability": "view",
      "type": "function"
    },
    {
      "inputs": [],
      "name": "MAX_BATCH_SIZE",
      "outputs": [
        {
          "internalType": "uint256",
          "name": "",
          "type": "uint256"
        }
      ],
      "stateMutability": "view",
      "type": "function"
    },
    {
      "inputs": [],
      "name": "MAX_ROYALTY_BPS",
      "outputs": [
        {
          "internalType": "uint256",
          "name": "",
          "type": "uint256"
        }
      ],
      "stateMutability": "view",
      "type": "function"
    },
    {
      "inputs": [],
      "name": "MIN_ROYALTY_BPS",
      "outputs": [
        {
          "internalType": "uint256",
          "name": "",
          "type": "uint256"
        }
      ],
      "stateMutability": "view",
      "type": "function"
    },
    {
      "inputs": [
        {
          "internalType": "address",
          "name": "account",
          "type": "address"
        },
        {
          "internalType": "uint256",
          "name": "id",
          "type": "uint256"
        }
      ],
      "name": "balanceOf",
      "outputs": [
        {
          "internalType": "uint256",
          "name": "",
          "type": "uint256"
        }
      ],
      "stateMutability": "view",
      "type": "function"
    },
    {
      "inputs": [
        {
          "internalType": "address[]",
          "name": "accounts",
          "type": "address[]"
        },
        {
          "internalType": "uint256[]",
          "name": "ids",
          "type": "uint256[]"
        }
      ],
      "name": "balanceOfBatch",
      "outputs": [
        {
          "internalType": "uint256[]",
          "name": "",
          "type": "uint256[]"
        }
      ],
      "stateMutability": "view",
      "type": "function"
    },
    {
      "inputs": [
        {
          "internalType": "uint256[]",
          "name": "_tokenIds",
          "type": "uint256[]"
        },
        {
          "internalType": "uint256[]",
          "name": "_amounts",
          "type": "uint256[]"
        }
      ],
      "name": "batchMintNFTs",
      "outputs": [],
      "stateMutability": "payable",
      "type": "function"
    },
    {
      "inputs": [
        {
          "internalType": "uint256",
          "name": "_tokenId",
          "type": "uint256"
        },
        {
          "internalType": "address",
          "name": "_seller",
          "type": "address"
        },
        {
          "internalType": "uint256",
          "name": "_amount",
          "type": "uint256"
        }
      ],
      "name": "buyListedNFT",
      "outputs": [],
      "stateMutability": "payable",
      "type": "function"
    },
    {
      "inputs": [
        {
          "internalType": "uint256",
          "name": "_tokenId",
          "type": "uint256"
        }
      ],
      "name": "cancelListing",
      "outputs": [],
      "stateMutability": "nonpayable",
      "type": "function"
    },
    {
      "inputs": [
        {
          "internalType": "string",
          "name": "_name",
          "type": "string"
        },
        {
          "internalType": "string",
          "name": "_description",
          "type": "string"
        },
        {
          "internalType": "string",
          "name": "_musicUrl",
          "type": "string"
        },
        {
          "internalType": "string",
          "name": "_imageUrl",
          "type": "string"
        },
        {
          "internalType": "uint256",
          "name": "_price",
          "type": "uint256"
        },
        {
          "internalType": "uint256",
          "name": "_maxSupply",
          "type": "uint256"
        },
        {
          "internalType": "uint256",
          "name": "_royaltyBPS",
          "type": "uint256"
        }
      ],
      "name": "createMusicNFT",
      "outputs": [
        {
          "internalType": "uint256",
          "name": "",
          "type": "uint256"
        }
      ],
      "stateMutability": "nonpayable",
      "type": "function"
    },
    {
      "inputs": [
        {
          "internalType": "uint256",
          "name": "_tokenId",
          "type": "uint256"
        },
        {
          "internalType": "address",
          "name": "_seller",
          "type": "address"
        }
      ],
      "name": "getListing",
      "outputs": [
        {
          "components": [
            {
              "internalType": "address",
              "name": "seller",
              "type": "address"
            },
            {
              "internalType": "uint256",
              "name": "price",
              "type": "uint256"
            },
            {
              "internalType": "uint256",
              "name": "amount",
              "type": "uint256"
            }
          ],
          "internalType": "struct MusicNFTMarketplace.Listing",
          "name": "",
          "type": "tuple"
        }
      ],
      "stateMutability": "view",
      "type": "function"
    },
    {
      "inputs": [
        {
          "internalType": "uint256",
          "name": "tokenId",
          "type": "uint256"
        }
      ],
      "name": "getNFTMetadata",
      "outputs": [
        {
          "components": [
            {
              "internalType": "string",
              "name": "name",
              "type": "string"
            },
            {
              "internalType": "string",
              "name": "description",
              "type": "string"
            },
            {
              "internalType": "string",
              "name": "imageUrl",
              "type": "string"
            },
            {
              "internalType": "string",
              "name": "musicUrl",
              "type": "string"
            },
            {
              "internalType": "address",
              "name": "creator",
              "type": "address"
            },
            {
              "internalType": "uint256",
              "name": "maxSupply",
              "type": "uint256"
            },
            {
              "internalType": "uint256",
              "name": "currentSupply",
              "type": "uint256"
            },
            {
              "internalType": "uint256",
              "name": "royaltyBPS",
              "type": "uint256"
            }
          ],
          "internalType": "struct MusicNFTMarketplace.NFTMetadata",
          "name": "",
          "type": "tuple"
        }
      ],
      "stateMutability": "view",
      "type": "function"
    },
    {
      "inputs": [
        {
          "internalType": "address",
          "name": "account",
          "type": "address"
        },
        {
          "internalType": "address",
          "name": "operator",
          "type": "address"
        }
      ],
      "name": "isApprovedForAll",
      "outputs": [
        {
          "internalType": "bool",
          "name": "",
          "type": "bool"
        }
      ],
      "stateMutability": "view",
      "type": "function"
    },
    {
      "inputs": [
        {
          "internalType": "uint256",
          "name": "_tokenId",
          "type": "uint256"
        },
        {
          "internalType": "uint256",
          "name": "_amount",
          "type": "uint256"
        },
        {
          "internalType": "uint256",
          "name": "_price",
          "type": "uint256"
        }
      ],
      "name": "listNFT",
      "outputs": [],
      "stateMutability": "nonpayable",
      "type": "function"
    },
    {
      "inputs": [
        {
          "internalType": "uint256",
          "name": "",
          "type": "uint256"
        },
        {
          "internalType": "address",
          "name": "",
          "type": "address"
        }
      ],
      "name": "listings",
      "outputs": [
        {
          "internalType": "address",
          "name": "seller",
          "type": "address"
        },
        {
          "internalType": "uint256",
          "name": "price",
          "type": "uint256"
        },
        {
          "internalType": "uint256",
          "name": "amount",
          "type": "uint256"
        }
      ],
      "stateMutability": "view",
      "type": "function"
    },
    {
      "inputs": [
        {
          "internalType": "uint256",
          "name": "_tokenId",
          "type": "uint256"
        },
        {
          "internalType": "uint256",
          "name": "_amount",
          "type": "uint256"
        }
      ],
      "name": "mintNFT",
      "outputs": [],
      "stateMutability": "payable",
      "type": "function"
    },
    {
      "inputs": [
        {
          "internalType": "uint256",
          "name": "",
          "type": "uint256"
        }
      ],
      "name": "musicNFTs",
      "outputs": [
        {
          "internalType": "address",
          "name": "creator",
          "type": "address"
        },
        {
          "internalType": "string",
          "name": "musicUrl",
          "type": "string"
        },
        {
          "internalType": "string",
          "name": "imageUrl",
          "type": "string"
        },
        {
          "internalType": "uint256",
          "name": "price",
          "type": "uint256"
        },
        {
          "internalType": "uint256",
          "name": "maxSupply",
          "type": "uint256"
        },
        {
          "internalType": "uint256",
          "name": "currentSupply",
          "type": "uint256"
        },
        {
          "internalType": "bool",
          "name": "isActive",
          "type": "bool"
        }
      ],
      "stateMutability": "view",
      "type": "function"
    },
    {
      "inputs": [],
      "name": "owner",
      "outputs": [
        {
          "internalType": "address",
          "name": "",
          "type": "address"
        }
      ],
      "stateMutability": "view",
      "type": "function"
    },
    {
      "inputs": [],
      "name": "pause",
      "outputs": [],
      "stateMutability": "nonpayable",
      "type": "function"
    },
    {
      "inputs": [],
      "name": "paused",
      "outputs": [
        {
          "internalType": "bool",
          "name": "",
          "type": "bool"
        }
      ],
      "stateMutability": "view",
      "type": "function"
    },
    {
      "inputs": [],
      "name": "renounceOwnership",
      "outputs": [],
      "stateMutability": "nonpayable",
      "type": "function"
    },
    {
      "inputs": [
        {
          "internalType": "uint256",
          "name": "tokenId",
          "type": "uint256"
        },
        {
          "internalType": "uint256",
          "name": "salePrice",
          "type": "uint256"
        }
      ],
      "name": "royaltyInfo",
      "outputs": [
        {
          "internalType": "address",
          "name": "",
          "type": "address"
        },
        {
          "internalType": "uint256",
          "name": "",
          "type": "uint256"
        }
      ],
      "stateMutability": "view",
      "type": "function"
    },
    {
      "inputs": [
        {
          "internalType": "address",
          "name": "from",
          "type": "address"
        },
        {
          "internalType": "address",
          "name": "to",
          "type": "address"
        },
        {
          "internalType": "uint256[]",
          "name": "ids",
          "type": "uint256[]"
        },
        {
          "internalType": "uint256[]",
          "name": "amounts",
          "type": "uint256[]"
        },
        {
          "internalType": "bytes",
          "name": "data",
          "type": "bytes"
        }
      ],
      "name": "safeBatchTransferFrom",
      "outputs": [],
      "stateMutability": "nonpayable",
      "type": "function"
    },
    {
      "inputs": [
        {
          "internalType": "address",
          "name": "from",
          "type": "address"
        },
        {
          "internalType": "address",
          "name": "to",
          "type": "address"
        },
        {
          "internalType": "uint256",
          "name": "id",
          "type": "uint256"
        },
        {
          "internalType": "uint256",
          "name": "amount",
          "type": "uint256"
        },
        {
          "internalType": "bytes",
          "name": "data",
          "type": "bytes"
        }
      ],
      "name": "safeTransferFrom",
      "outputs": [],
      "stateMutability": "nonpayable",
      "type": "function"
    },
    {
      "inputs": [
        {
          "internalType": "address",
          "name": "operator",
          "type": "address"
        },
        {
          "internalType": "bool",
          "name": "approved",
          "type": "bool"
        }
      ],
      "name": "setApprovalForAll",
      "outputs": [],
      "stateMutability": "nonpayable",
      "type": "function"
    },
    {
      "inputs": [
        {
          "internalType": "bytes4",
          "name": "interfaceId",
          "type": "bytes4"
        }
      ],
      "name": "supportsInterface",
      "outputs": [
        {
          "internalType": "bool",
          "name": "",
          "type": "bool"
        }
      ],
      "stateMutability": "view",
      "type": "function"
    },
    {
      "inputs": [
        {
          "internalType": "uint256",
          "name": "_tokenId",
          "type": "uint256"
        }
      ],
      "name": "toggleNFTStatus",
      "outputs": [],
      "stateMutability": "nonpayable",
      "type": "function"
    },
    {
      "inputs": [
        {
          "internalType": "address",
          "name": "newOwner",
          "type": "address"
        }
      ],
      "name": "transferOwnership",
      "outputs": [],
      "stateMutability": "nonpayable",
      "type": "function"
    },
    {
      "inputs": [],
      "name": "unpause",
      "outputs": [],
      "stateMutability": "nonpayable",
      "type": "function"
    },
    {
      "inputs": [
        {
          "internalType": "uint256",
          "name": "_tokenId",
          "type": "uint256"
        },
        {
          "internalType": "uint256",
          "name": "_newPrice",
          "type": "uint256"
        }
      ],
      "name": "updateNFTPrice",
      "outputs": [],
      "stateMutability": "nonpayable",
      "type": "function"
    },
    {
      "inputs": [
        {
          "internalType": "uint256",
          "name": "tokenId",
          "type": "uint256"
        }
      ],
      "name": "uri",
      "outputs": [
        {
          "internalType": "string",
          "name": "",
          "type": "string"
        }
      ],
      "stateMutability": "view",
      "type": "function"
    }
  ],
  "bytecode": "0x6080346200015357602081016001600160401b038111828210176200013d5760405260008091526002546001908181811c9116801562000132575b60208210146200011e57601f8111620000d0575b50600282905560058054336001600160a01b031982168117909255604051936001600160a01b03909116907f8be0079c531659141344cd1fd0a4f28419497f9722a3daafe3b4186f6b6457e09080a360065560ff19600754166007553315620000c1576040516136cd9081620001598239f35b63e6c4247b60e01b8152600490fd5b60028352601f0160051c7f405787fa12a823e0f2b7631cc41b3ba8828b3321ca811111fa75cd3aa3bb5ace9081019082905b828110620001125750506200004e565b84815501829062000102565b634e487b7160e01b83526022600452602483fd5b90607f16906200003a565b634e487b7160e01b600052604160045260246000fd5b600080fdfe6080604052600436101561001257600080fd5b60003560e01c8062fdd58e146124ec57806301ffc9a71461244f5780630e89341c1461206e5780632a55205a1461203f5780632eb2c2d614611c81578063305a67a814611bde578063368d9b48146115ac5780633dca40e61461158f5780633f4ba83a146114fb5780634ac0123d146114735780634e1273f4146112d15780635c975abb146112ae5780635d269138146112075780636be9a6f11461114b578063715018a6146110ee5780638456cb59146110945780638da5cb5b1461106b578063927fbfc814611009578063935b74c814610f6e5780639b8262fd14610ec9578063a22cb46514610ddc578063b0136c8d14610cd3578063b6308e0214610af0578063c48283ff14610847578063cfdbf2541461082b578063e1f1c4a71461080e578063e985e9c5146107b8578063ecf7ba22146102ee578063f242432a14610255578063f2fde38b146101915763f83496171461017057600080fd5b3461018c57600036600319011261018c57602060405160008152f35b600080fd5b3461018c57602036600319011261018c576101aa61251b565b6101b2612894565b6001600160a01b0390811690811561020157600554826001600160601b0360a01b821617600555167f8be0079c531659141344cd1fd0a4f28419497f9722a3daafe3b4186f6b6457e0600080a3005b60405162461bcd60e51b815260206004820152602660248201527f4f776e61626c653a206e6577206f776e657220697320746865207a65726f206160448201526564647265737360d01b6064820152608490fd5b3461018c5760a036600319011261018c5761026e61251b565b610276612531565b90608435916001600160401b03831161018c5761029a6102c6933690600401612708565b916001600160a01b03811633811480156102c8575b6102b99150612994565b6064359160443591612abd565b005b5060005260016020526040600020336000526020526102b960ff604060002054166102af565b60031960403682011261018c576001600160401b039060043582811161018c5761031c903690600401612864565b909260243590811161018c57610336903690600401612864565b91906103406131d9565b610348613124565b8282036107a657601482116107945760009060005b83811061065657508134106106445761037736848861264a565b9561038336868461264a565b94604051610390816125f7565b6000815261039f33151561322f565b6103ac8951885114612e18565b60005b895181101561040257806103c66103fd928a612980565b516103d1828d612980565b5160005260206000815260406000209033600052526103f66040600020918254612ab0565b9055612971565b6103af565b5088908789604051600033917f4a39dc06d4c0dbc64b70af90fd698a233a518aa5d07e595d983b8c0526c8f7fb33918061043d888b83612e75565b0390a4333b6104e1575b50505050906104a59461049c7f6583473987e443781108c9a74166cfb5d143516bbb4a3804805a2e0b349115639361048c6040519485946040865260408601916131b5565b90838203602085015233966131b5565b0390a234613168565b806104b2575b6001600655005b600080808093335af16104c3613185565b50156104cf57806104ab565b6040516312171d8360e31b8152600490fd5b60209161054261053392604098979851958694859461052363bc197c8160e01b9a8b88523360048901526000602489015260a0604489015260a4880190612750565b9084878303016064880152612750565b9184830301608485015261256a565b03816000335af160009181610614575b506105be5761055f612f03565b6308c379a014610587575b60405162461bcd60e51b81528061058360048201612f8f565b0390fd5b61058f612f21565b8061059a575061056a565b60405162461bcd60e51b81526020600482015290819061058390602483019061256a565b6001600160e01b031916036105fb57908461049c7f6583473987e443781108c9a74166cfb5d143516bbb4a3804805a2e0b349115636104a5610447565b60405162461bcd60e51b81528061058360048201612eba565b61063691925060203d811161063d575b61062e8183612612565b810190612e9a565b9088610552565b503d610624565b60405163cd1c886760e01b8152600490fd5b610661818589613175565b35600052600960205260406000209260ff6006850154161561078257610688828785613175565b3515610770576005908185019081546106a2858a88613175565b35810160048801541061075e576106de88926106d8878c8f9b8260036106cb920154928d613175565b350295868094019b613175565b35613067565b9384926106ec888d8b613175565b3501905581610735575b508103610709575b50505060010161035d565b6000809381938293039060018060a01b039054165af1610727613185565b50156104cf578780806106fe565b6000918291829182916001600160a01b03165af1610751613185565b50156104cf57818b6106f6565b604051638a164f6360e01b8152600490fd5b60405163b4fa3fb360e01b8152600490fd5b60405163ad9d099b60e01b8152600490fd5b604051631e80759560e21b8152600490fd5b60405163512509d360e11b8152600490fd5b3461018c57604036600319011261018c576107d161251b565b6107d9612531565b9060018060a01b03809116600052600160205260406000209116600052602052602060ff604060002054166040519015158152f35b3461018c57600036600319011261018c5760206040516127108152f35b3461018c57600036600319011261018c57602060405160148152f35b6108503661258f565b906108596131d9565b610861613124565b8060005260209160098352604060002060ff6006820154161561078257811561077057600581018054916108958484612ab0565b60048201541061075e578360036108ad920154613054565b9182341061064457836108bf91612ab0565b90556108cb8184613067565b6108d58184613168565b9181610ac7575b505080610a9c575b50803411610a76575b50604051906108fb826125f7565b6000825261090a33151561322f565b61091383612fe4565b5061091d81612fe4565b50826000526000845260406000203360005284526040600020610941828254612ab0565b90556040518381528185820152600033917fc3d58168c5ae7397731d063d5bbf3d657854427343f4c083240f7aacaa2d0f6260403392a4333b610985576001600655005b6109c7918491604051938492839263f23a6e6160e01b97888552336004860152600060248601526044850152606484015260a0608484015260a483019061256a565b03816000335af160009181610a57575b50610a3d57826109e5612f03565b6308c379a014610a085760405162461bcd60e51b81528061058360048201612f8f565b610a10612f21565b9081610a1c575061056a565b61058360405192839262461bcd60e51b84526004840152602483019061256a565b6001600160e01b0319160390506105fb57808080806104ab565b610a6f919250843d861161063d5761062e8183612612565b90846109d7565b60008080610a85819434613168565b335af1610a90613185565b50156104cf57836108ed565b6005546000918291829182916001600160a01b03165af1610abb613185565b50156104cf57846108e4565b6000918291829182916001600160a01b03165af1610ae3613185565b50156104cf5785806108dc565b606036600319011261018c57600435610b07612531565b604435610b126131d9565b610b1a613124565b6001600160a01b0392828416918215610cc1573315610cc157338314610caf5781600052602093600a85526040600020846000528552604060002090848783541603610caf57600282019183835410610c9d57846000526009875260ff60066040600020015416156107825783610b9186846128ec565b10610c9d5760010191838354029788341061064457610bb08987613067565b919082610c7d575b50506000808080938c038a5af1610bcd613185565b50156104cf57610bf28492838760405192610be7846125f7565b600084523390612abd565b805490828203905514610c52575b54936040519485528401527f5fafad85dec201c2e73b6a2bef6351129304a624ea8720ecd04cd7f04d83bc3960403394a4803411610c3f576001600655005b6000808080933403335af16104c3613185565b82600052600a8552604060002084600052855260006002604082208281558260018201550155610c00565b6000808481948294165af1610c90613185565b50156104cf578980610bb8565b604051631e9acf1760e31b8152600490fd5b60405163ea8e4eb560e01b8152600490fd5b60405163e6c4247b60e01b8152600490fd5b3461018c57606036600319011261018c57604435600435602435610cf56131d9565b610cfd613124565b80610d0883336128ec565b10610c9d578015610770578215610dcb5781600052600960205260ff600660406000200154161561078257604051610d3f816125c0565b338152600260208201858152604083019084825285600052600a60205260406000203360005260205260406000209360018060a01b039051166001600160601b0360a01b8554161784555160018401555191015560405192835260208301527f36e94395fafcb0d2a9bcfcdd5cef807ab52a1f4382906992ebdc18de5f1472c460403393a36001600655005b60405162bfc92160e01b8152600490fd5b3461018c57604036600319011261018c57610df561251b565b602435908115159081830361018c576001600160a01b031691338314610e7257610e449033600052600160205260406000208460005260205260406000209060ff801983541691151516179055565b6040519081527f17307eab39ab6107e8899845ad3d59bd9653f200f220920489ca2b5937696c3160203392a3005b60405162461bcd60e51b815260206004820152602960248201527f455243313135353a2073657474696e6720617070726f76616c20737461747573604482015268103337b91039b2b63360b91b6064820152608490fd5b3461018c57602036600319011261018c57600435610ee5613124565b60008181526009602052604090208054336001600160a01b0391821614159081610f5f575b50610caf57602060ff60067fb98f2e7a31992fd0038957c8b37afbfde15601543d7e49508ff1093c402e6b899301610f528282541615829060ff801983541691151516179055565b54166040519015158152a2005b90506005541633141583610f0a565b3461018c57604036600319011261018c576060610f89612531565b600060408051610f98816125c0565b8281528260208201520152600435600052600a602052604060002060018060a01b0380921660005260205260406000209060405190610fd6826125c0565b82541691828252604060026001830154926020850193845201549201918252604051928352516020830152516040820152f35b3461018c57604036600319011261018c576060611024612531565b600435600052600a602052604060002060018060a01b0380921660005260205260406000209081541690600260018201549101549060405192835260208301526040820152f35b3461018c57600036600319011261018c576005546040516001600160a01b039091168152602090f35b3461018c57600036600319011261018c576110ad612894565b6110b5613124565b600160ff1960075416176007557f62e78cea01bee320cd4e420270b5ea74000d11b0c9f74754ebdbfc544b05a2586020604051338152a1005b3461018c57600036600319011261018c57611107612894565b600580546001600160a01b031981169091556000906001600160a01b03167f8be0079c531659141344cd1fd0a4f28419497f9722a3daafe3b4186f6b6457e08280a3005b3461018c57602036600319011261018c57611167600435613540565b604051809160208252805160e06111d761118f6101009384602088015261012087019061256a565b6111c26111ae602087015192601f1993848a83030160408b015261256a565b6040870151838983030160608a015261256a565b9060608601519087830301608088015261256a565b9260018060a01b0360808201511660a086015260a081015160c086015260c0810151828601520151908301520390f35b3461018c57602036600319011261018c57600435600090815260096020526040902080546001600160a01b0316611240600183016127be565b9161124d600282016127be565b600382015491600481015461129360ff600660058501549401541693611285604051988998895260e060208a015260e089019061256a565b90878203604089015261256a565b936060860152608085015260a0840152151560c08301520390f35b3461018c57600036600319011261018c57602060ff600754166040519015158152f35b3461018c57604036600319011261018c576004356001600160401b0380821161018c573660238301121561018c5781600401359061130e82612633565b9261131c6040519485612612565b82845260209260248486019160051b8301019136831161018c57602401905b8282106114545750505060243590811161018c5761135d903690600401612698565b82518151036113fd5782519261137284612633565b936113806040519586612612565b80855261138f601f1991612633565b01368486013760005b81518110156113e2576113dd906113cd6001600160a01b036113ba8386612980565b51166113c68387612980565b51906128ec565b6113d78288612980565b52612971565b611398565b5050506113f9604051928284938452830190612750565b0390f35b60405162461bcd60e51b815260048101839052602960248201527f455243313135353a206163636f756e747320616e6420696473206c656e677468604482015268040dad2e6dac2e8c6d60bb1b6064820152608490fd5b81356001600160a01b038116810361018c57815290840190840161133b565b3461018c576114813661258f565b611489613124565b60008281526009602052604090208054336001600160a01b03918216141590816114ec575b50610caf578115610dcb57817f2847cfe8afe8bcd9ac540f0259739697ea019f65d44c8e76c8796b8ce52f7c319260036020930155604051908152a2005b905060055416331415846114ae565b3461018c57600036600319011261018c57611514612894565b60075460ff8116156115535760ff19166007557f5db9ee0a495bf2e6ff9c91a7834c1ba4fdd244a5e8aa4e537bd38aeae4b073aa6020604051338152a1005b60405162461bcd60e51b815260206004820152601460248201527314185d5cd8589b194e881b9bdd081c185d5cd95960621b6044820152606490fd5b3461018c57600036600319011261018c5760206040516109c48152f35b3461018c5760e036600319011261018c576004356001600160401b03811161018c576115dc903690600401612723565b906024356001600160401b03811161018c576115fc903690600401612723565b91906044356001600160401b03811161018c5761161d903690600401612723565b9290916064356001600160401b03811161018c5761163f903690600401612723565b95909261164a613124565b3315610cc15787158015611bd6575b8015611bce575b8015611bc6575b6107705760843515610dcb5760a43515611bb4576109c460c43511611ba257600160085401978860085588600052600b6020526040600020916001600160401b038211611a325781906116c4826116be8654612784565b866130d0565b600090601f8311600114611b3a57600092611b2f575b50508160011b916000199060031b1c19161790555b86600052600c6020526040600020916001600160401b038211611a3257819061171c826116be8654612784565b600090601f8311600114611ac457600092611ab9575b50508160011b916000199060031b1c19161790555b604051928360e08101106001600160401b0360e086011117611a325761178b9261177c9160e0860160405233865236916126d1565b936020840194855236916126d1565b6040820152608435606082015260a4356080820152600060a0820152600160c082015282600052600960205260406000209160018060a01b038251166001600160601b0360a01b8454161783555180516001600160401b038111611a32578060018501926117fd826116be8654612784565b602090601f8311600114611a5357600092611a48575b50508160011b916000199060031b1c19161790555b604081015180516001600160401b038111611a32576002840191611856826118508554612784565b856130d0565b602090601f83116001146119c057928260c0936118c49796936006966000926119b5575b50508160011b916000199060031b1c19161790555b606081015160038501556080810151600485015560a081015160058501550151151591019060ff801983541691151516179055565b6001600160601b0360c4351690612710821161195d576040516020926118e9826125a5565b338252838201908152826000526004845260406000209160018060a01b03905116906001600160601b0360a01b905160a01b16179055604051608435815260a43583820152817f23cbb18bfb096672f2fc538a6d637483d9db0f85666ae980eba20ae2874da1a460403393a3604051908152f35b60405162461bcd60e51b815260206004820152602a60248201527f455243323938313a20726f79616c7479206665652077696c6c206578636565646044820152692073616c65507269636560b01b6064820152608490fd5b01519050898061187a565b90601f198316918460005260206000209260005b818110611a1a5750936118c4979693600696936001938360c09810611a01575b505050811b01905561188f565b015160001960f88460031b161c191690558980806119f4565b929360206001819287860151815501950193016119d4565b634e487b7160e01b600052604160045260246000fd5b015190508680611813565b6000858152602081209350601f198516905b818110611aa15750908460019594939210611a88575b505050811b019055611828565b015160001960f88460031b161c19169055868080611a7b565b92936020600181928786015181550195019301611a65565b013590508880611732565b909150601f198316918460005260206000209260005b818110611b175750908460019594939210611afd575b505050811b019055611747565b0135600019600384901b60f8161c19169055888080611af0565b91936020600181928787013581550195019201611ada565b013590508a806116da565b600085815260208120909450915b601f1984168510611b8a576001945083601f19811610611b70575b505050811b0190556116ef565b0135600019600384901b60f8161c191690558a8080611b63565b81810135835560209485019460019093019201611b48565b60405163e0e54ced60e01b8152600490fd5b6040516315ae672760e01b8152600490fd5b508615611667565b508515611660565b508115611659565b3461018c57602036600319011261018c57600435611bfa6131d9565b611c02613124565b80600052600a6020526040600020336000526020523360018060a01b036040600020541603610caf5780600052600a6020526040600020336000526020526000600260408220828155826001820155015533907f8e25282255ab31897df2b0456bb993ac7f84d376861aefd84901d2d63a7428a2600080a36001600655005b3461018c5760031960a03682011261018c57611c9b61251b565b611ca3612531565b906001600160401b039060443582811161018c57611cc5903690600401612698565b60643583811161018c57611cdd903690600401612698565b9260843590811161018c57611cf6903690600401612708565b6001600160a01b0392831695903387148015612016575b611d1690612994565b611d238351865114612e18565b83861693841515611d33816129f7565b881515908161200e575b50611ea8575b5060005b8351811015611dd65780611d5e611dd19286612980565b51611d698289612980565b5190806000526020906000825260406000208c600052825282604060002054611d9482821015612a51565b82600052600084528d6040600020906000528452036040600020556000526000815260406000209088600052526103f66040600020918254612ab0565b611d47565b5090949392919382876040517f4a39dc06d4c0dbc64b70af90fd698a233a518aa5d07e595d983b8c0526c8f7fb339180611e118a8c83612e75565b0390a43b611e1b57005b6000602094611e5d6105339761052394604051998a988997889663bc197c8160e01b9e8f89523360048a0152602489015260a0604489015260a4880190612750565b03925af160009181611e88575b50611e775761055f612f03565b6001600160e01b031916036105fb57005b611ea191925060203d811161063d5761062e8183612612565b9083611e6a565b96949390959160005b84518110156120005780611ec8611f009287612980565b51600052878a600a6020908082526040600020846000528252836040600020938454161480611ff3575b611f05575b50505050612971565b611eb1565b611f0f858c612980565b51928b868c60029687850193845480921015600014611f9357505090915060009650611f3b9250612980565b518452815260408320908b84525260408220828155826001820155015587611f638288612980565b517f8e25282255ab31897df2b0456bb993ac7f84d376861aefd84901d2d63a7428a2600080a35b878b8080611ef7565b7f36e94395fafcb0d2a9bcfcdd5cef807ab52a1f4382906992ebdc18de5f1472c4979598506040965091611fd88492611fd1600196611fe096612980565b5190613168565b809555612980565b51950154918351928352820152a3611f8a565b5060028301541515611ef2565b509195909394965087611d43565b905089611d3d565b50866000526001602052604060002033600052602052611d1660ff604060002054169050611d0d565b3461018c5760406120586120523661258f565b90613067565b82516001600160a01b0390921682526020820152f35b3461018c5760208060031936011261018c5760043560008181526009835260409020546001600160a01b0392919083161561243d576120ac90613540565b8051908281015160408201519160608101519560808201511695604051966120d3886125c0565b602a88528688019060403683378851156124275760308253885160019081101561242757607860218b01536029905b8082116123c957505061238657869760a084015161211f906133fd565b9260c085015161212e906133fd565b9460e0015161213c906133fd565b96896040519a8b9a683d913730b6b2911d1160b91b828d01528b815192602984920192019161216a92612547565b8a0161088b60f21b988960298301526e113232b9b1b934b83a34b7b7111d1160891b602b83015280518093603a84019201916121a592612547565b0187603a820152681134b6b0b3b2911d1160b91b603c820152815191828d604584019201916121d392612547565b01866045820152701130b734b6b0ba34b7b72fbab936111d1160791b6047820152815191828c6058840192019161220992612547565b01908560588301526d2270726f70657274696573223a7b60901b605a8301526a1131b932b0ba37b9111d1160a91b60688301525191826073830161224c92612547565b018360738201526c1136b0bc29bab838363c911d1160991b607582015281519182896082840192019161227e92612547565b01826082820152701131bab93932b73a29bab838363c911d1160791b60848201528151918288609584019201916122b492612547565b019060958201526d113937bcb0b63a3ca12829911d1160911b6097820152815191828660a584019201916122e792612547565b01601160f91b60a582015260a68101617d7d60f01b90520360888101825260a8016123129082612612565b61231b906132b7565b9060405180928282017f646174613a6170706c69636174696f6e2f6a736f6e3b6261736536342c00000090528051908184603d850192019161235c92612547565b810103601d81018352603d016123729083612612565b60405191818392835282016113f99161256a565b6064876040519062461bcd60e51b825280600483015260248201527f537472696e67733a20686578206c656e67746820696e73756666696369656e746044820152fd5b9091600f81166010811015612427578b51841015612427576f181899199a1a9b1b9c1cb0b131b232b360811b901a8b84018b015360041c918015612411576000190190612102565b634e487b7160e01b600052601160045260246000fd5b634e487b7160e01b600052603260045260246000fd5b60405163f070cb6f60e01b8152600490fd5b3461018c57602036600319011261018c5760043563ffffffff60e01b811680910361018c5760209063152a902d60e11b811490819081156124a6575b50811561249e575b506040519015158152f35b905082612493565b909150636cdb3d1360e11b81149081156124db575b81156124ca575b50908361248b565b6301ffc9a760e01b149050836124c2565b6303a24d0760e21b811491506124bb565b3461018c57604036600319011261018c57602061251361250a61251b565b602435906128ec565b604051908152f35b600435906001600160a01b038216820361018c57565b602435906001600160a01b038216820361018c57565b60005b83811061255a5750506000910152565b818101518382015260200161254a565b9060209161258381518092818552858086019101612547565b601f01601f1916010190565b604090600319011261018c576004359060243590565b604081019081106001600160401b03821117611a3257604052565b606081019081106001600160401b03821117611a3257604052565b61010081019081106001600160401b03821117611a3257604052565b602081019081106001600160401b03821117611a3257604052565b90601f801991011681019081106001600160401b03821117611a3257604052565b6001600160401b038111611a325760051b60200190565b929161265582612633565b916126636040519384612612565b829481845260208094019160051b810192831161018c57905b8282106126895750505050565b8135815290830190830161267c565b9080601f8301121561018c578160206126b39335910161264a565b90565b6001600160401b038111611a3257601f01601f191660200190565b9291926126dd826126b6565b916126eb6040519384612612565b82948184528183011161018c578281602093846000960137010152565b9080601f8301121561018c578160206126b3933591016126d1565b9181601f8401121561018c578235916001600160401b03831161018c576020838186019501011161018c57565b90815180825260208080930193019160005b828110612770575050505090565b835185529381019392810192600101612762565b90600182811c921680156127b4575b602083101461279e57565b634e487b7160e01b600052602260045260246000fd5b91607f1691612793565b90604051918260008254926127d284612784565b90818452600194858116908160001461284157506001146127fe575b50506127fc92500383612612565b565b9093915060005260209081600020936000915b8183106128295750506127fc935082010138806127ee565b85548884018501529485019487945091830191612811565b9150506127fc94506020925060ff191682840152151560051b82010138806127ee565b9181601f8401121561018c578235916001600160401b03831161018c576020808501948460051b01011161018c57565b6005546001600160a01b031633036128a857565b606460405162461bcd60e51b815260206004820152602060248201527f4f776e61626c653a2063616c6c6572206973206e6f7420746865206f776e65726044820152fd5b6001600160a01b031690811561291957600052600060205260406000209060005260205260406000205490565b60405162461bcd60e51b815260206004820152602a60248201527f455243313135353a2061646472657373207a65726f206973206e6f742061207660448201526930b634b21037bbb732b960b11b6064820152608490fd5b60001981146124115760010190565b80518210156124275760209160051b010190565b1561299b57565b60405162461bcd60e51b815260206004820152602e60248201527f455243313135353a2063616c6c6572206973206e6f7420746f6b656e206f776e60448201526d195c881bdc88185c1c1c9bdd995960921b6064820152608490fd5b156129fe57565b60405162461bcd60e51b815260206004820152602560248201527f455243313135353a207472616e7366657220746f20746865207a65726f206164604482015264647265737360d81b6064820152608490fd5b15612a5857565b60405162461bcd60e51b815260206004820152602a60248201527f455243313135353a20696e73756666696369656e742062616c616e636520666f60448201526939103a3930b739b332b960b11b6064820152608490fd5b9190820180921161241157565b9192909360018060a01b038086169081151594612ad9866129f7565b612ae287612fe4565b9180612aed87612fe4565b9216968715159081612e10575b50612cb1575b50505060009285845260209584875260409788862087875288528289872054612b2b82821015612a51565b838852878a528a88208989528a5203898720558186528588528886208487528852888620612b5a848254612ab0565b905583878a51848152858b8201527fc3d58168c5ae7397731d063d5bbf3d657854427343f4c083240f7aacaa2d0f628c3392a43b612b9d575b5050505050505050565b91849391612be59588999a98948b519788958694859363f23a6e6160e01b9c8d865233600487015260248601526044850152606484015260a0608484015260a483019061256a565b03925af1909181612c92575b50612c5857505050612c01612f03565b6308c379a014612c24575b505162461bcd60e51b81528061058360048201612f8f565b612c2c612f21565b9081612c385750612c0c565b610583835192839262461bcd60e51b84526004840152602483019061256a565b919392506001600160e01b031990911603612c7b57503880808080808080612b93565b5162461bcd60e51b81528061058360048201612eba565b612caa919250853d871161063d5761062e8183612612565b9038612bf1565b9490959691989360009893985b8a51811015612dfe57808989828e612cd9612d159682612980565b516000528b600a602090808252604092836000208860005283528784600020918254161480612df1575b612d1a575b5050505050505050612971565b612cbe565b612d248688612980565b5160028281018054919990928211612da0575050505091612d6c9591600093612d4d8787612980565b5185528152818420908885525282208281558260018201550155612980565b517f8e25282255ab31897df2b0456bb993ac7f84d376861aefd84901d2d63a7428a2600080a35b8989828e38808080612d08565b612dde93995060019450889295969791611fd17f36e94395fafcb0d2a9bcfcdd5cef807ab52a1f4382906992ebdc18de5f1472c49a611fd893612980565b51950154918351928352820152a3612d93565b5060028101541515612d03565b50939850935094935094388080612b00565b905038612afa565b15612e1f57565b60405162461bcd60e51b815260206004820152602860248201527f455243313135353a2069647320616e6420616d6f756e7473206c656e677468206044820152670dad2e6dac2e8c6d60c31b6064820152608490fd5b9091612e8c6126b393604084526040840190612750565b916020818403910152612750565b9081602091031261018c57516001600160e01b03198116810361018c5790565b60809060208152602860208201527f455243313135353a204552433131353552656365697665722072656a656374656040820152676420746f6b656e7360c01b60608201520190565b60009060033d11612f1057565b905060046000803e60005160e01c90565b600060443d106126b357604051600319913d83016004833e81516001600160401b03918282113d602484011117612f7e57818401948551938411612f86573d85010160208487010111612f7e57506126b392910160200190612612565b949350505050565b50949350505050565b60809060208152603460208201527f455243313135353a207472616e7366657220746f206e6f6e2d455243313135356040820152732932b1b2b4bb32b91034b6b83632b6b2b73a32b960611b60608201520190565b60405190612ff1826125a5565b60018252602082016020368237825115612427575290565b60405190613016826125a5565b6003546001600160a01b038116835260a01c6020830152565b9060405161303c816125a5565b91546001600160a01b038116835260a01c6020830152565b8181029291811591840414171561241157565b919091600052600460205261307f604060002061302f565b805190926001600160a01b03918216156130b7575b6130af612710916001600160601b0360208701511690613054565b049251169190565b92506127106130af6130c7613009565b94915050613094565b90601f81116130de57505050565b600091825260208220906020601f850160051c8301941061311a575b601f0160051c01915b82811061310f57505050565b818155600101613103565b90925082906130fa565b60ff6007541661313057565b60405162461bcd60e51b815260206004820152601060248201526f14185d5cd8589b194e881c185d5cd95960821b6044820152606490fd5b9190820391821161241157565b91908110156124275760051b0190565b3d156131b0573d90613196826126b6565b916131a46040519384612612565b82523d6000602084013e565b606090565b81835290916001600160fb1b03831161018c5760209260051b809284830137010190565b6002600654146131ea576002600655565b60405162461bcd60e51b815260206004820152601f60248201527f5265656e7472616e637947756172643a207265656e7472616e742063616c6c006044820152606490fd5b1561323657565b60405162461bcd60e51b815260206004820152602160248201527f455243313135353a206d696e7420746f20746865207a65726f206164647265736044820152607360f81b6064820152608490fd5b9061328f826126b6565b61329c6040519182612612565b82815280926132ad601f19916126b6565b0190602036910137565b8051156133e9576040516132ca816125c0565b604081527f4142434445464748494a4b4c4d4e4f505152535455565758595a61626364656660208201527f6768696a6b6c6d6e6f707172737475767778797a303132333435363738392b2f60408201528151600292838201809211612411576003918290046001600160fe1b03811681036124115761334c908594951b613285565b936020850193829183518401925b83811061339857505050505106806001146133855760021461337a575090565b603d90600019015390565b50603d9081600019820153600119015390565b85600491979293949701918251600190603f9082828260121c16880101518453828282600c1c16880101518385015382828260061c168801015188850153168501015187820153019592919061335a565b506040516133f6816125f7565b6000815290565b806000917a184f03e93ff9f4daa797ed6e38ed64bf6a1f01000000000000000080821015613532575b506d04ee2d6d415b85acef810000000080831015613523575b50662386f26fc1000080831015613514575b506305f5e10080831015613505575b50612710808310156134f6575b5060648210156134e6575b600a809210156134dc575b600190816021613494828701613285565b95860101905b6134a6575b5050505090565b600019019083906f181899199a1a9b1b9c1cb0b131b232b360811b8282061a8353049182156134d75791908261349a565b61349f565b9160010191613483565b9190606460029104910191613478565b6004919392049101913861346d565b60089193920491019138613460565b60109193920491019138613451565b6020919392049101913861343f565b604093508104915038613426565b9060409160e08351613551816125db565b60609081815260209082828201528287820152828082015260009381856080819401528260a08201528260c082015201528383526009815260018060a01b039182878520541615613686578484526009825286842096600483526135b681862061302f565b83858251161561366d575b6001600160601b0391015116956127108781020480970361365957613618979861363e926001928852600b86528080892098600c885220968254169561362460048401549861361d60058601549b85519e8f6125db565b6127be565b8d526127be565b908b0152613634600283016127be565b908a0152016127be565b90860152608085015260a084015260c083015260e082015290565b634e487b7160e01b86526011600452602486fd5b6001600160601b03915061367f613009565b91506135c1565b865163f070cb6f60e01b8152600490fdfea2646970667358221220dca31224a420a65eac48670f4b848d42df816bb1aa2b58208b764d3430dcd8c664736f6c63430008140033",
  "linkReferences": {},
  "deployedLinkReferences": {}
}