{
  "_format": "hh-sol-artifact-1",
  "contractName": "MusicNFTMarketplace",
  "sourceName": "contracts/MusicNFTMarketplace.sol",
  "abi": [
    {
      "inputs": [],
      "stateMutability": "nonpayable",
      "type": "constructor"
    },
    {
      "inputs": [],
      "name": "ArrayLengthMismatch",
      "type": "error"
    },
    {
      "inputs": [],
      "name": "BatchSizeTooLarge",
      "type": "error"
    },
    {
      "inputs": [],
      "name": "InsufficientBalance",
      "type": "error"
    },
    {
      "inputs": [],
      "name": "InsufficientPayment",
      "type": "error"
    },
    {
      "inputs": [],
      "name": "InvalidAddress",
      "type": "error"
    },
    {
      "inputs": [],
      "name": "InvalidInput",
      "type": "error"
    },
    {
      "inputs": [],
      "name": "InvalidPrice",
      "type": "error"
    },
    {
      "inputs": [],
      "name": "InvalidRoyalty",
      "type": "error"
    },
    {
      "inputs": [],
      "name": "InvalidSupply",
      "type": "error"
    },
    {
      "inputs": [],
      "name": "MaxSupplyExceeded",
      "type": "error"
    },
    {
      "inputs": [],
      "name": "NFTNotActive",
      "type": "error"
    },
    {
      "inputs": [],
      "name": "NFTNotFound",
      "type": "error"
    },
    {
      "inputs": [],
      "name": "NotAuthorized",
      "type": "error"
    },
    {
      "inputs": [],
      "name": "Overflow",
      "type": "error"
    },
    {
      "inputs": [],
      "name": "TransferFailed",
      "type": "error"
    },
    {
      "anonymous": false,
      "inputs": [
        {
          "indexed": true,
          "internalType": "address",
          "name": "account",
          "type": "address"
        },
        {
          "indexed": true,
          "internalType": "address",
          "name": "operator",
          "type": "address"
        },
        {
          "indexed": false,
          "internalType": "bool",
          "name": "approved",
          "type": "bool"
        }
      ],
      "name": "ApprovalForAll",
      "type": "event"
    },
    {
      "anonymous": false,
      "inputs": [
        {
          "indexed": true,
          "internalType": "address",
          "name": "seller",
          "type": "address"
        },
        {
          "indexed": false,
          "internalType": "uint256[]",
          "name": "tokenIds",
          "type": "uint256[]"
        },
        {
          "indexed": false,
          "internalType": "uint256[]",
          "name": "amounts",
          "type": "uint256[]"
        },
        {
          "indexed": false,
          "internalType": "uint256[]",
          "name": "prices",
          "type": "uint256[]"
        }
      ],
      "name": "BatchListingCompleted",
      "type": "event"
    },
    {
      "anonymous": false,
      "inputs": [
        {
          "indexed": true,
          "internalType": "address",
          "name": "buyer",
          "type": "address"
        },
        {
          "indexed": false,
          "internalType": "uint256[]",
          "name": "tokenIds",
          "type": "uint256[]"
        },
        {
          "indexed": false,
          "internalType": "uint256[]",
          "name": "amounts",
          "type": "uint256[]"
        }
      ],
      "name": "BatchMintCompleted",
      "type": "event"
    },
    {
      "anonymous": false,
      "inputs": [
        {
          "indexed": true,
          "internalType": "uint256",
          "name": "tokenId",
          "type": "uint256"
        },
        {
          "indexed": true,
          "internalType": "address",
          "name": "seller",
          "type": "address"
        }
      ],
      "name": "ListingCancelled",
      "type": "event"
    },
    {
      "anonymous": false,
      "inputs": [
        {
          "indexed": true,
          "internalType": "uint256",
          "name": "tokenId",
          "type": "uint256"
        },
        {
          "indexed": true,
          "internalType": "address",
          "name": "creator",
          "type": "address"
        },
        {
          "indexed": false,
          "internalType": "uint256",
          "name": "price",
          "type": "uint256"
        },
        {
          "indexed": false,
          "internalType": "uint256",
          "name": "maxSupply",
          "type": "uint256"
        }
      ],
      "name": "NFTCreated",
      "type": "event"
    },
    {
      "anonymous": false,
      "inputs": [
        {
          "indexed": true,
          "internalType": "uint256",
          "name": "tokenId",
          "type": "uint256"
        },
        {
          "indexed": true,
          "internalType": "address",
          "name": "seller",
          "type": "address"
        },
        {
          "indexed": false,
          "internalType": "uint256",
          "name": "price",
          "type": "uint256"
        },
        {
          "indexed": false,
          "internalType": "uint256",
          "name": "amount",
          "type": "uint256"
        }
      ],
      "name": "NFTListed",
      "type": "event"
    },
    {
      "anonymous": false,
      "inputs": [
        {
          "indexed": true,
          "internalType": "uint256",
          "name": "tokenId",
          "type": "uint256"
        },
        {
          "indexed": false,
          "internalType": "uint256",
          "name": "newPrice",
          "type": "uint256"
        }
      ],
      "name": "NFTPriceUpdated",
      "type": "event"
    },
    {
      "anonymous": false,
      "inputs": [
        {
          "indexed": true,
          "internalType": "uint256",
          "name": "tokenId",
          "type": "uint256"
        },
        {
          "indexed": true,
          "internalType": "address",
          "name": "seller",
          "type": "address"
        },
        {
          "indexed": true,
          "internalType": "address",
          "name": "buyer",
          "type": "address"
        },
        {
          "indexed": false,
          "internalType": "uint256",
          "name": "price",
          "type": "uint256"
        },
        {
          "indexed": false,
          "internalType": "uint256",
          "name": "amount",
          "type": "uint256"
        }
      ],
      "name": "NFTSold",
      "type": "event"
    },
    {
      "anonymous": false,
      "inputs": [
        {
          "indexed": true,
          "internalType": "uint256",
          "name": "tokenId",
          "type": "uint256"
        },
        {
          "indexed": false,
          "internalType": "bool",
          "name": "isActive",
          "type": "bool"
        }
      ],
      "name": "NFTStatusUpdated",
      "type": "event"
    },
    {
      "anonymous": false,
      "inputs": [
        {
          "indexed": true,
          "internalType": "address",
          "name": "previousOwner",
          "type": "address"
        },
        {
          "indexed": true,
          "internalType": "address",
          "name": "newOwner",
          "type": "address"
        }
      ],
      "name": "OwnershipTransferred",
      "type": "event"
    },
    {
      "anonymous": false,
      "inputs": [
        {
          "indexed": false,
          "internalType": "address",
          "name": "account",
          "type": "address"
        }
      ],
      "name": "Paused",
      "type": "event"
    },
    {
      "anonymous": false,
      "inputs": [
        {
          "indexed": true,
          "internalType": "address",
          "name": "operator",
          "type": "address"
        },
        {
          "indexed": true,
          "internalType": "address",
          "name": "from",
          "type": "address"
        },
        {
          "indexed": true,
          "internalType": "address",
          "name": "to",
          "type": "address"
        },
        {
          "indexed": false,
          "internalType": "uint256[]",
          "name": "ids",
          "type": "uint256[]"
        },
        {
          "indexed": false,
          "internalType": "uint256[]",
          "name": "values",
          "type": "uint256[]"
        }
      ],
      "name": "TransferBatch",
      "type": "event"
    },
    {
      "anonymous": false,
      "inputs": [
        {
          "indexed": true,
          "internalType": "address",
          "name": "operator",
          "type": "address"
        },
        {
          "indexed": true,
          "internalType": "address",
          "name": "from",
          "type": "address"
        },
        {
          "indexed": true,
          "internalType": "address",
          "name": "to",
          "type": "address"
        },
        {
          "indexed": false,
          "internalType": "uint256",
          "name": "id",
          "type": "uint256"
        },
        {
          "indexed": false,
          "internalType": "uint256",
          "name": "value",
          "type": "uint256"
        }
      ],
      "name": "TransferSingle",
      "type": "event"
    },
    {
      "anonymous": false,
      "inputs": [
        {
          "indexed": false,
          "internalType": "string",
          "name": "value",
          "type": "string"
        },
        {
          "indexed": true,
          "internalType": "uint256",
          "name": "id",
          "type": "uint256"
        }
      ],
      "name": "URI",
      "type": "event"
    },
    {
      "anonymous": false,
      "inputs": [
        {
          "indexed": false,
          "internalType": "address",
          "name": "account",
          "type": "address"
        }
      ],
      "name": "Unpaused",
      "type": "event"
    },
    {
      "inputs": [],
      "name": "BASIS_POINTS",
      "outputs": [
        {
          "internalType": "uint256",
          "name": "",
          "type": "uint256"
        }
      ],
      "stateMutability": "view",
      "type": "function"
    },
    {
      "inputs": [],
      "name": "MAX_BATCH_SIZE",
      "outputs": [
        {
          "internalType": "uint256",
          "name": "",
          "type": "uint256"
        }
      ],
      "stateMutability": "view",
      "type": "function"
    },
    {
      "inputs": [],
      "name": "MAX_ROYALTY_BPS",
      "outputs": [
        {
          "internalType": "uint256",
          "name": "",
          "type": "uint256"
        }
      ],
      "stateMutability": "view",
      "type": "function"
    },
    {
      "inputs": [],
      "name": "MIN_ROYALTY_BPS",
      "outputs": [
        {
          "internalType": "uint256",
          "name": "",
          "type": "uint256"
        }
      ],
      "stateMutability": "view",
      "type": "function"
    },
    {
      "inputs": [
        {
          "internalType": "address",
          "name": "account",
          "type": "address"
        },
        {
          "internalType": "uint256",
          "name": "id",
          "type": "uint256"
        }
      ],
      "name": "balanceOf",
      "outputs": [
        {
          "internalType": "uint256",
          "name": "",
          "type": "uint256"
        }
      ],
      "stateMutability": "view",
      "type": "function"
    },
    {
      "inputs": [
        {
          "internalType": "address[]",
          "name": "accounts",
          "type": "address[]"
        },
        {
          "internalType": "uint256[]",
          "name": "ids",
          "type": "uint256[]"
        }
      ],
      "name": "balanceOfBatch",
      "outputs": [
        {
          "internalType": "uint256[]",
          "name": "",
          "type": "uint256[]"
        }
      ],
      "stateMutability": "view",
      "type": "function"
    },
    {
      "inputs": [
        {
          "internalType": "uint256[]",
          "name": "_tokenIds",
          "type": "uint256[]"
        },
        {
          "internalType": "uint256[]",
          "name": "_amounts",
          "type": "uint256[]"
        }
      ],
      "name": "batchMintNFTs",
      "outputs": [],
      "stateMutability": "payable",
      "type": "function"
    },
    {
      "inputs": [
        {
          "internalType": "uint256",
          "name": "_tokenId",
          "type": "uint256"
        },
        {
          "internalType": "address",
          "name": "_seller",
          "type": "address"
        },
        {
          "internalType": "uint256",
          "name": "_amount",
          "type": "uint256"
        }
      ],
      "name": "buyListedNFT",
      "outputs": [],
      "stateMutability": "payable",
      "type": "function"
    },
    {
      "inputs": [
        {
          "internalType": "uint256",
          "name": "_tokenId",
          "type": "uint256"
        }
      ],
      "name": "cancelListing",
      "outputs": [],
      "stateMutability": "nonpayable",
      "type": "function"
    },
    {
      "inputs": [
        {
          "internalType": "string",
          "name": "_name",
          "type": "string"
        },
        {
          "internalType": "string",
          "name": "_description",
          "type": "string"
        },
        {
          "internalType": "string",
          "name": "_musicUrl",
          "type": "string"
        },
        {
          "internalType": "string",
          "name": "_imageUrl",
          "type": "string"
        },
        {
          "internalType": "uint256",
          "name": "_price",
          "type": "uint256"
        },
        {
          "internalType": "uint256",
          "name": "_maxSupply",
          "type": "uint256"
        },
        {
          "internalType": "uint256",
          "name": "_royaltyBPS",
          "type": "uint256"
        }
      ],
      "name": "createMusicNFT",
      "outputs": [
        {
          "internalType": "uint256",
          "name": "",
          "type": "uint256"
        }
      ],
      "stateMutability": "nonpayable",
      "type": "function"
    },
    {
      "inputs": [],
      "name": "getAllMusicNFTs",
      "outputs": [
        {
          "components": [
            {
              "internalType": "address",
              "name": "creator",
              "type": "address"
            },
            {
              "internalType": "string",
              "name": "name",
              "type": "string"
            },
            {
              "internalType": "string",
              "name": "description",
              "type": "string"
            },
            {
              "internalType": "string",
              "name": "musicUrl",
              "type": "string"
            },
            {
              "internalType": "string",
              "name": "imageUrl",
              "type": "string"
            },
            {
              "internalType": "uint256",
              "name": "price",
              "type": "uint256"
            },
            {
              "internalType": "uint256",
              "name": "maxSupply",
              "type": "uint256"
            },
            {
              "internalType": "uint256",
              "name": "currentSupply",
              "type": "uint256"
            },
            {
              "internalType": "uint256",
              "name": "royaltyBPS",
              "type": "uint256"
            },
            {
              "internalType": "bool",
              "name": "isActive",
              "type": "bool"
            }
          ],
          "internalType": "struct MusicNFTMarketplace.MusicNFT[]",
          "name": "",
          "type": "tuple[]"
        }
      ],
      "stateMutability": "view",
      "type": "function"
    },
    {
      "inputs": [
        {
          "internalType": "uint256",
          "name": "_tokenId",
          "type": "uint256"
        },
        {
          "internalType": "address",
          "name": "_seller",
          "type": "address"
        }
      ],
      "name": "getListing",
      "outputs": [
        {
          "components": [
            {
              "internalType": "address",
              "name": "seller",
              "type": "address"
            },
            {
              "internalType": "uint256",
              "name": "price",
              "type": "uint256"
            },
            {
              "internalType": "uint256",
              "name": "amount",
              "type": "uint256"
            }
          ],
          "internalType": "struct MusicNFTMarketplace.Listing",
          "name": "",
          "type": "tuple"
        }
      ],
      "stateMutability": "view",
      "type": "function"
    },
    {
      "inputs": [
        {
          "internalType": "uint256",
          "name": "tokenId",
          "type": "uint256"
        }
      ],
      "name": "getNFTMetadata",
      "outputs": [
        {
          "components": [
            {
              "internalType": "string",
              "name": "name",
              "type": "string"
            },
            {
              "internalType": "string",
              "name": "description",
              "type": "string"
            },
            {
              "internalType": "string",
              "name": "imageUrl",
              "type": "string"
            },
            {
              "internalType": "string",
              "name": "musicUrl",
              "type": "string"
            },
            {
              "internalType": "address",
              "name": "creator",
              "type": "address"
            },
            {
              "internalType": "uint256",
              "name": "price",
              "type": "uint256"
            },
            {
              "internalType": "uint256",
              "name": "maxSupply",
              "type": "uint256"
            },
            {
              "internalType": "uint256",
              "name": "currentSupply",
              "type": "uint256"
            },
            {
              "internalType": "uint256",
              "name": "royaltyBPS",
              "type": "uint256"
            },
            {
              "internalType": "bool",
              "name": "isActive",
              "type": "bool"
            }
          ],
          "internalType": "struct MusicNFTMarketplace.NFTMetadata",
          "name": "",
          "type": "tuple"
        }
      ],
      "stateMutability": "view",
      "type": "function"
    },
    {
      "inputs": [
        {
          "internalType": "address",
          "name": "account",
          "type": "address"
        },
        {
          "internalType": "address",
          "name": "operator",
          "type": "address"
        }
      ],
      "name": "isApprovedForAll",
      "outputs": [
        {
          "internalType": "bool",
          "name": "",
          "type": "bool"
        }
      ],
      "stateMutability": "view",
      "type": "function"
    },
    {
      "inputs": [
        {
          "internalType": "uint256",
          "name": "_tokenId",
          "type": "uint256"
        },
        {
          "internalType": "uint256",
          "name": "_amount",
          "type": "uint256"
        },
        {
          "internalType": "uint256",
          "name": "_price",
          "type": "uint256"
        }
      ],
      "name": "listNFT",
      "outputs": [],
      "stateMutability": "nonpayable",
      "type": "function"
    },
    {
      "inputs": [
        {
          "internalType": "uint256",
          "name": "",
          "type": "uint256"
        },
        {
          "internalType": "address",
          "name": "",
          "type": "address"
        }
      ],
      "name": "listings",
      "outputs": [
        {
          "internalType": "address",
          "name": "seller",
          "type": "address"
        },
        {
          "internalType": "uint256",
          "name": "price",
          "type": "uint256"
        },
        {
          "internalType": "uint256",
          "name": "amount",
          "type": "uint256"
        }
      ],
      "stateMutability": "view",
      "type": "function"
    },
    {
      "inputs": [
        {
          "internalType": "uint256",
          "name": "_tokenId",
          "type": "uint256"
        },
        {
          "internalType": "uint256",
          "name": "_amount",
          "type": "uint256"
        }
      ],
      "name": "mintNFT",
      "outputs": [],
      "stateMutability": "payable",
      "type": "function"
    },
    {
      "inputs": [
        {
          "internalType": "uint256",
          "name": "",
          "type": "uint256"
        }
      ],
      "name": "musicNFTs",
      "outputs": [
        {
          "internalType": "address",
          "name": "creator",
          "type": "address"
        },
        {
          "internalType": "string",
          "name": "name",
          "type": "string"
        },
        {
          "internalType": "string",
          "name": "description",
          "type": "string"
        },
        {
          "internalType": "string",
          "name": "musicUrl",
          "type": "string"
        },
        {
          "internalType": "string",
          "name": "imageUrl",
          "type": "string"
        },
        {
          "internalType": "uint256",
          "name": "price",
          "type": "uint256"
        },
        {
          "internalType": "uint256",
          "name": "maxSupply",
          "type": "uint256"
        },
        {
          "internalType": "uint256",
          "name": "currentSupply",
          "type": "uint256"
        },
        {
          "internalType": "uint256",
          "name": "royaltyBPS",
          "type": "uint256"
        },
        {
          "internalType": "bool",
          "name": "isActive",
          "type": "bool"
        }
      ],
      "stateMutability": "view",
      "type": "function"
    },
    {
      "inputs": [],
      "name": "owner",
      "outputs": [
        {
          "internalType": "address",
          "name": "",
          "type": "address"
        }
      ],
      "stateMutability": "view",
      "type": "function"
    },
    {
      "inputs": [],
      "name": "pause",
      "outputs": [],
      "stateMutability": "nonpayable",
      "type": "function"
    },
    {
      "inputs": [],
      "name": "paused",
      "outputs": [
        {
          "internalType": "bool",
          "name": "",
          "type": "bool"
        }
      ],
      "stateMutability": "view",
      "type": "function"
    },
    {
      "inputs": [],
      "name": "renounceOwnership",
      "outputs": [],
      "stateMutability": "nonpayable",
      "type": "function"
    },
    {
      "inputs": [
        {
          "internalType": "uint256",
          "name": "tokenId",
          "type": "uint256"
        },
        {
          "internalType": "uint256",
          "name": "salePrice",
          "type": "uint256"
        }
      ],
      "name": "royaltyInfo",
      "outputs": [
        {
          "internalType": "address",
          "name": "",
          "type": "address"
        },
        {
          "internalType": "uint256",
          "name": "",
          "type": "uint256"
        }
      ],
      "stateMutability": "view",
      "type": "function"
    },
    {
      "inputs": [
        {
          "internalType": "address",
          "name": "from",
          "type": "address"
        },
        {
          "internalType": "address",
          "name": "to",
          "type": "address"
        },
        {
          "internalType": "uint256[]",
          "name": "ids",
          "type": "uint256[]"
        },
        {
          "internalType": "uint256[]",
          "name": "amounts",
          "type": "uint256[]"
        },
        {
          "internalType": "bytes",
          "name": "data",
          "type": "bytes"
        }
      ],
      "name": "safeBatchTransferFrom",
      "outputs": [],
      "stateMutability": "nonpayable",
      "type": "function"
    },
    {
      "inputs": [
        {
          "internalType": "address",
          "name": "from",
          "type": "address"
        },
        {
          "internalType": "address",
          "name": "to",
          "type": "address"
        },
        {
          "internalType": "uint256",
          "name": "id",
          "type": "uint256"
        },
        {
          "internalType": "uint256",
          "name": "amount",
          "type": "uint256"
        },
        {
          "internalType": "bytes",
          "name": "data",
          "type": "bytes"
        }
      ],
      "name": "safeTransferFrom",
      "outputs": [],
      "stateMutability": "nonpayable",
      "type": "function"
    },
    {
      "inputs": [
        {
          "internalType": "address",
          "name": "operator",
          "type": "address"
        },
        {
          "internalType": "bool",
          "name": "approved",
          "type": "bool"
        }
      ],
      "name": "setApprovalForAll",
      "outputs": [],
      "stateMutability": "nonpayable",
      "type": "function"
    },
    {
      "inputs": [
        {
          "internalType": "bytes4",
          "name": "interfaceId",
          "type": "bytes4"
        }
      ],
      "name": "supportsInterface",
      "outputs": [
        {
          "internalType": "bool",
          "name": "",
          "type": "bool"
        }
      ],
      "stateMutability": "view",
      "type": "function"
    },
    {
      "inputs": [
        {
          "internalType": "uint256",
          "name": "_tokenId",
          "type": "uint256"
        }
      ],
      "name": "toggleNFTStatus",
      "outputs": [],
      "stateMutability": "nonpayable",
      "type": "function"
    },
    {
      "inputs": [
        {
          "internalType": "address",
          "name": "newOwner",
          "type": "address"
        }
      ],
      "name": "transferOwnership",
      "outputs": [],
      "stateMutability": "nonpayable",
      "type": "function"
    },
    {
      "inputs": [],
      "name": "unpause",
      "outputs": [],
      "stateMutability": "nonpayable",
      "type": "function"
    },
    {
      "inputs": [
        {
          "internalType": "uint256",
          "name": "_tokenId",
          "type": "uint256"
        },
        {
          "internalType": "uint256",
          "name": "_newPrice",
          "type": "uint256"
        }
      ],
      "name": "updateNFTPrice",
      "outputs": [],
      "stateMutability": "nonpayable",
      "type": "function"
    },
    {
      "inputs": [
        {
          "internalType": "uint256",
          "name": "tokenId",
          "type": "uint256"
        }
      ],
      "name": "uri",
      "outputs": [
        {
          "internalType": "string",
          "name": "",
          "type": "string"
        }
      ],
      "stateMutability": "view",
      "type": "function"
    }
  ],
  "bytecode": "0x6080346200015357602081016001600160401b038111828210176200013d5760405260008091526002546001908181811c9116801562000132575b60208210146200011e57601f8111620000d0575b50600282905560058054336001600160a01b031982168117909255604051936001600160a01b03909116907f8be0079c531659141344cd1fd0a4f28419497f9722a3daafe3b4186f6b6457e09080a360065560ff19600754166007553315620000c157604051613bfb9081620001598239f35b63e6c4247b60e01b8152600490fd5b60028352601f0160051c7f405787fa12a823e0f2b7631cc41b3ba8828b3321ca811111fa75cd3aa3bb5ace9081019082905b828110620001125750506200004e565b84815501829062000102565b634e487b7160e01b83526022600452602483fd5b90607f16906200003a565b634e487b7160e01b600052604160045260246000fd5b600080fdfe6080604052600436101561001257600080fd5b60003560e01c8062fdd58e146129f157806301ffc9a7146129545780630e89341c146125725780632a55205a146125435780632eb2c2d614612185578063305a67a8146120e2578063368d9b48146118f85780633dca40e6146118db5780633f4ba83a146118475780634ac0123d146117bf5780634e1273f41461161d5780635c975abb146115fa5780635d269138146115085780636be9a6f114611432578063715018a6146113d55780638456cb591461137b5780638da5cb5b14611352578063927fbfc8146112f0578063935b74c8146112555780639b8262fd146111b0578063a22cb465146110c3578063b0136c8d14610fba578063b6308e0214610dd7578063c48283ff14610b2e578063cfdbf25414610b12578063e1f1c4a714610af5578063e985e9c514610a9f578063ecf7ba22146105d7578063f242432a1461053e578063f2fde38b1461047a578063f59e506f1461019c5763f83496171461017b57600080fd5b3461019757600036600319011261019757602060405160008152f35b600080fd5b34610197576000366003190112610197576008805460009160015b8281111561043a57506101c983612b38565b926101d76040519485612b17565b8084526101e6601f1991612b38565b0160005b8181106103de575050600060015b838111156102f1576040805160208082528751818301819052600093600582901b8401810192808b01929185015b8287106102335785850386f35b909192938280600192603f19898203018552875190848060a01b0382511681526102ab610298610285610273868601516101408089880152860190612a6f565b60408601518582036040870152612a6f565b6060808601519085830390860152612a6f565b6080808501519084830390850152612a6f565b9160a0808201519083015260c0808201519083015260e081015160e083015261010080820151908301526101208091015115159101529601920196019592919092610226565b600081815260096020818152604090922080546001600160a01b03169283610326575b5050505061032190612e76565b6101f8565b6103219495926103d4949260ff926040519461034186612aaa565b855261034f60018301612cc3565b9085015261035f60028201612cc3565b604085015261037060038201612cc3565b606085015261038160048201612cc3565b6080850152600581015460a0850152600681015460c0850152600781015460e08501528881015461010085015201541615156101208201526103c38289612e85565b526103ce8188612e85565b50612e76565b9190868080610314565b6020906040516103ed81612aaa565b6000815260608390808284015280604084015280808401526080830152600060a0830152600060c0830152600060e0830152600061010083015260006101208301528288010152016101ea565b6000818152600960205260409020546001600160a01b0316610465575b61046090612e76565b6101b7565b9261047261046091612e76565b939050610457565b3461019757602036600319011261019757610493612a20565b61049b612d99565b6001600160a01b039081169081156104ea57600554826001600160601b0360a01b821617600555167f8be0079c531659141344cd1fd0a4f28419497f9722a3daafe3b4186f6b6457e0600080a3005b60405162461bcd60e51b815260206004820152602660248201527f4f776e61626c653a206e6577206f776e657220697320746865207a65726f206160448201526564647265737360d01b6064820152608490fd5b346101975760a036600319011261019757610557612a20565b61055f612a36565b90608435916001600160401b038311610197576105836105af933690600401612c0d565b916001600160a01b03811633811480156105b1575b6105a29150612e99565b6064359160443591612fc2565b005b5060005260016020526040600020336000526020526105a260ff60406000205416610598565b600319604036820112610197576001600160401b039060043582811161019757610605903690600401612d69565b90926024359081116101975761061f903690600401612d69565b91906106296136de565b610631613629565b828203610a8d5760148211610a7b5760009060005b83811061093f575081341061092d57610660368488612b4f565b9561066c368684612b4f565b9460405161067981612afc565b60008152610688331515613734565b610695895188511461331d565b60005b89518110156106eb57806106af6106e6928a612e85565b516106ba828d612e85565b5160005260206000815260406000209033600052526106df6040600020918254612fb5565b9055612e76565b610698565b5088908789604051600033917f4a39dc06d4c0dbc64b70af90fd698a233a518aa5d07e595d983b8c0526c8f7fb339180610726888b8361337a565b0390a4333b6107ca575b505050509061078e946107857f6583473987e443781108c9a74166cfb5d143516bbb4a3804805a2e0b34911563936107756040519485946040865260408601916136ba565b90838203602085015233966136ba565b0390a23461366d565b8061079b575b6001600655005b600080808093335af16107ac61368a565b50156107b85780610794565b6040516312171d8360e31b8152600490fd5b60209161082b61081c92604098979851958694859461080c63bc197c8160e01b9a8b88523360048901526000602489015260a0604489015260a4880190612c55565b9084878303016064880152612c55565b91848303016084850152612a6f565b03816000335af1600091816108fd575b506108a757610848613408565b6308c379a014610870575b60405162461bcd60e51b81528061086c60048201613494565b0390fd5b610878613426565b806108835750610853565b60405162461bcd60e51b81526020600482015290819061086c906024830190612a6f565b6001600160e01b031916036108e45790846107857f6583473987e443781108c9a74166cfb5d143516bbb4a3804805a2e0b3491156361078e610730565b60405162461bcd60e51b81528061086c600482016133bf565b61091f91925060203d8111610926575b6109178183612b17565b81019061339f565b908861083b565b503d61090d565b60405163cd1c886760e01b8152600490fd5b61094a81858961367a565b3560005260098060205260ff6040600020918201541615610a695761097082878561367a565b3515610a57576007810180549461098884898761367a565b358601600684015410610a455789956109c588926109bf878c6109b2826005809b0154928d61367a565b350295868094019b61367a565b3561356c565b9384926109d3888d8b61367a565b3501905581610a1c575b5081036109f0575b505050600101610646565b6000809381938293039060018060a01b039054165af1610a0e61368a565b50156107b8578780806109e5565b6000918291829182916001600160a01b03165af1610a3861368a565b50156107b857818b6109dd565b604051638a164f6360e01b8152600490fd5b60405163b4fa3fb360e01b8152600490fd5b60405163ad9d099b60e01b8152600490fd5b604051631e80759560e21b8152600490fd5b60405163512509d360e11b8152600490fd5b3461019757604036600319011261019757610ab8612a20565b610ac0612a36565b9060018060a01b03809116600052600160205260406000209116600052602052602060ff604060002054166040519015158152f35b346101975760003660031901126101975760206040516127108152f35b3461019757600036600319011261019757602060405160148152f35b610b3736612a94565b90610b406136de565b610b48613629565b8060005260209160098352604060002060ff60098201541615610a69578115610a575760078101805491610b7c8484612fb5565b600682015410610a4557836005610b94920154613559565b9182341061092d5783610ba691612fb5565b9055610bb2818461356c565b610bbc818461366d565b9181610dae575b505080610d83575b50803411610d5d575b5060405190610be282612afc565b60008252610bf1331515613734565b610bfa836134e9565b50610c04816134e9565b50826000526000845260406000203360005284526040600020610c28828254612fb5565b90556040518381528185820152600033917fc3d58168c5ae7397731d063d5bbf3d657854427343f4c083240f7aacaa2d0f6260403392a4333b610c6c576001600655005b610cae918491604051938492839263f23a6e6160e01b97888552336004860152600060248601526044850152606484015260a0608484015260a4830190612a6f565b03816000335af160009181610d3e575b50610d245782610ccc613408565b6308c379a014610cef5760405162461bcd60e51b81528061086c60048201613494565b610cf7613426565b9081610d035750610853565b61086c60405192839262461bcd60e51b845260048401526024830190612a6f565b6001600160e01b0319160390506108e45780808080610794565b610d56919250843d8611610926576109178183612b17565b9084610cbe565b60008080610d6c81943461366d565b335af1610d7761368a565b50156107b85783610bd4565b6005546000918291829182916001600160a01b03165af1610da261368a565b50156107b85784610bcb565b6000918291829182916001600160a01b03165af1610dca61368a565b50156107b8578580610bc3565b606036600319011261019757600435610dee612a36565b604435610df96136de565b610e01613629565b6001600160a01b0392828416918215610fa8573315610fa857338314610f965781600052602093600a85526040600020846000528552604060002090848783541603610f9657600282019183835410610f8457846000526009875260ff6009604060002001541615610a695783610e788684612df1565b10610f845760010191838354029788341061092d57610e97898761356c565b919082610f64575b50506000808080938c038a5af1610eb461368a565b50156107b857610ed98492838760405192610ece84612afc565b600084523390612fc2565b805490828203905514610f39575b54936040519485528401527f5fafad85dec201c2e73b6a2bef6351129304a624ea8720ecd04cd7f04d83bc3960403394a4803411610f26576001600655005b6000808080933403335af16107ac61368a565b82600052600a8552604060002084600052855260006002604082208281558260018201550155610ee7565b6000808481948294165af1610f7761368a565b50156107b8578980610e9f565b604051631e9acf1760e31b8152600490fd5b60405163ea8e4eb560e01b8152600490fd5b60405163e6c4247b60e01b8152600490fd5b3461019757606036600319011261019757604435600435602435610fdc6136de565b610fe4613629565b80610fef8333612df1565b10610f84578015610a575782156110b25781600052600960205260ff6009604060002001541615610a695760405161102681612ae1565b338152600260208201858152604083019084825285600052600a60205260406000203360005260205260406000209360018060a01b039051166001600160601b0360a01b8554161784555160018401555191015560405192835260208301527f36e94395fafcb0d2a9bcfcdd5cef807ab52a1f4382906992ebdc18de5f1472c460403393a36001600655005b60405162bfc92160e01b8152600490fd5b34610197576040366003190112610197576110dc612a20565b6024359081151590818303610197576001600160a01b0316913383146111595761112b9033600052600160205260406000208460005260205260406000209060ff801983541691151516179055565b6040519081527f17307eab39ab6107e8899845ad3d59bd9653f200f220920489ca2b5937696c3160203392a3005b60405162461bcd60e51b815260206004820152602960248201527f455243313135353a2073657474696e6720617070726f76616c20737461747573604482015268103337b91039b2b63360b91b6064820152608490fd5b34610197576020366003190112610197576004356111cc613629565b60008181526009602052604090208054336001600160a01b0391821614159081611246575b50610f9657602060ff60097fb98f2e7a31992fd0038957c8b37afbfde15601543d7e49508ff1093c402e6b8993016112398282541615829060ff801983541691151516179055565b54166040519015158152a2005b905060055416331415836111f1565b34610197576040366003190112610197576060611270612a36565b60006040805161127f81612ae1565b8281528260208201520152600435600052600a602052604060002060018060a01b03809216600052602052604060002090604051906112bd82612ae1565b82541691828252604060026001830154926020850193845201549201918252604051928352516020830152516040820152f35b3461019757604036600319011261019757606061130b612a36565b600435600052600a602052604060002060018060a01b0380921660005260205260406000209081541690600260018201549101549060405192835260208301526040820152f35b34610197576000366003190112610197576005546040516001600160a01b039091168152602090f35b3461019757600036600319011261019757611394612d99565b61139c613629565b600160ff1960075416176007557f62e78cea01bee320cd4e420270b5ea74000d11b0c9f74754ebdbfc544b05a2586020604051338152a1005b34610197576000366003190112610197576113ee612d99565b600580546001600160a01b031981169091556000906001600160a01b03167f8be0079c531659141344cd1fd0a4f28419497f9722a3daafe3b4186f6b6457e08280a3005b346101975760203660031901126101975761144e600435613a45565b60405180916020825280516114bc61147461014092836020870152610160860190612a6f565b6114a7611493602086015192601f1993848983030160408a0152612a6f565b604086015183888303016060890152612a6f565b90606085015190868303016080870152612a6f565b9160018060a01b0360808201511660a085015260a081015160c085015260c081015160e085015260e0810151610100908186015281015190610120918286015201511515908301520390f35b3461019757602036600319011261019757600435600090815260096020526040902080546001600160a01b031661154160018301612cc3565b9161154e60028201612cc3565b61155a60038301612cc3565b9161156760048201612cc3565b926005820154936115d86006840154916115ca6007860154946115bc60ff600960088a015499015416986115ae6040519d8e9d8e528d610140908160208201520190612a6f565b8c810360408e015290612a6f565b908a820360608c0152612a6f565b9088820360808a0152612a6f565b9460a087015260c086015260e085015261010084015215156101208301520390f35b3461019757600036600319011261019757602060ff600754166040519015158152f35b34610197576040366003190112610197576004356001600160401b0380821161019757366023830112156101975781600401359061165a82612b38565b926116686040519485612b17565b82845260209260248486019160051b8301019136831161019757602401905b8282106117a057505050602435908111610197576116a9903690600401612b9d565b8251815103611749578251926116be84612b38565b936116cc6040519586612b17565b8085526116db601f1991612b38565b01368486013760005b815181101561172e57611729906117196001600160a01b036117068386612e85565b51166117128387612e85565b5190612df1565b6117238288612e85565b52612e76565b6116e4565b505050611745604051928284938452830190612c55565b0390f35b60405162461bcd60e51b815260048101839052602960248201527f455243313135353a206163636f756e747320616e6420696473206c656e677468604482015268040dad2e6dac2e8c6d60bb1b6064820152608490fd5b81356001600160a01b0381168103610197578152908401908401611687565b34610197576117cd36612a94565b6117d5613629565b60008281526009602052604090208054336001600160a01b0391821614159081611838575b50610f965781156110b257817f2847cfe8afe8bcd9ac540f0259739697ea019f65d44c8e76c8796b8ce52f7c319260056020930155604051908152a2005b905060055416331415846117fa565b3461019757600036600319011261019757611860612d99565b60075460ff81161561189f5760ff19166007557f5db9ee0a495bf2e6ff9c91a7834c1ba4fdd244a5e8aa4e537bd38aeae4b073aa6020604051338152a1005b60405162461bcd60e51b815260206004820152601460248201527314185d5cd8589b194e881b9bdd081c185d5cd95960621b6044820152606490fd5b346101975760003660031901126101975760206040516109c48152f35b346101975760e0366003190112610197576004356001600160401b03811161019757611928903690600401612c28565b6024356001600160401b03811161019757611947903690600401612c28565b906044356001600160401b03811161019757611967903690600401612c28565b6064356001600160401b03811161019757611986903690600401612c28565b939094611991613629565b3315610fa857861580156120da575b80156120d2575b80156120ca575b610a5757608435156110b25760a435156120b8576109c460c435116120a657600160085401978860085588600052600b60205260406000206001600160401b038911611e4657611a0889611a028354612c89565b836135d5565b886000601f821160011461204157600091612036575b508960011b906000198b60031b1c19161790555b88600052600c60205260406000206001600160401b038311611e4657611a5c83611a028354612c89565b6000601f8411600114611fba5792611ab2611abe93611ad69a9998969383611aca9997600091611faf575b508460011b906000198660031b1c19161790555b6040519b611aa88d612aaa565b338d523691612bd6565b60208b01523691612bd6565b60408801523691612bd6565b60608501523691612bd6565b608082015260843560a082015260a43560c0820152600060e082015260c435610100820152600161012082015281600052600960205260406000209060018060a01b038151166001600160601b0360a01b835416178255602081015180516001600160401b038111611e4657806001850192611b5c82611b568654612c89565b866135d5565b602090601f8311600114611f4957600092611f3e575b50508160011b916000199060031b1c19161790555b604081015180516001600160401b038111611e4657806002850192611bb082611b568654612c89565b602090601f8311600114611ed857600092611ecd575b50508160011b916000199060031b1c19161790555b606081015180516001600160401b038111611e4657806003850192611c0482611b568654612c89565b602090601f8311600114611e6757600092611e5c575b50508160011b916000199060031b1c19161790555b608081015180516001600160401b038111611e46576004840191611c5d82611c578554612c89565b856135d5565b602090601f8311600114611dd357928261012093611cd7979693600996600092611dc8575b50508160011b916000199060031b1c19161790555b60a0810151600585015560c0810151600685015560e0810151600785015561010081015160088501550151151591019060ff801983541691151516179055565b6001600160601b0360c43516906127108211611d7057604051602092611cfc82612ac6565b338252838201908152826000526004845260406000209160018060a01b03905116906001600160601b0360a01b905160a01b16179055604051608435815260a43583820152817f23cbb18bfb096672f2fc538a6d637483d9db0f85666ae980eba20ae2874da1a460403393a3604051908152f35b60405162461bcd60e51b815260206004820152602a60248201527f455243323938313a20726f79616c7479206665652077696c6c206578636565646044820152692073616c65507269636560b01b6064820152608490fd5b015190508980611c82565b90601f198316918460005260206000209260005b818110611e2e575093611cd797969360099693600193836101209810611e15575b505050811b019055611c97565b015160001960f88460031b161c19169055898080611e08565b92936020600181928786015181550195019301611de7565b634e487b7160e01b600052604160045260246000fd5b015190508680611c1a565b6000858152602081209350601f198516905b818110611eb55750908460019594939210611e9c575b505050811b019055611c2f565b015160001960f88460031b161c19169055868080611e8f565b92936020600181928786015181550195019301611e79565b015190508680611bc6565b6000858152602081209350601f198516905b818110611f265750908460019594939210611f0d575b505050811b019055611bdb565b015160001960f88460031b161c19169055868080611f00565b92936020600181928786015181550195019301611eea565b015190508680611b72565b6000858152602081209350601f198516905b818110611f975750908460019594939210611f7e575b505050811b019055611b87565b015160001960f88460031b161c19169055868080611f71565b92936020600181928786015181550195019301611f5b565b90508501358f611a87565b8160005260206000209060005b601f198616811061201e5750611abe93611ad69a999896938693611ab293611aca9a98601f19811610612004575b5050600184811b019055611a9b565b860135600019600387901b60f8161c191690558e80611ff5565b9091602060018192858a013581550193019101611fc7565b90508201358b611a1e565b60008381526020812092505b601f198c16811061208e57508a601f19811610612074575b5050600189811b019055611a32565b83013560001960038c901b60f8161c191690558a80612065565b9091602060018192858801358155019301910161204d565b60405163e0e54ced60e01b8152600490fd5b6040516315ae672760e01b8152600490fd5b5084156119ae565b5082156119a7565b5080156119a0565b34610197576020366003190112610197576004356120fe6136de565b612106613629565b80600052600a6020526040600020336000526020523360018060a01b036040600020541603610f965780600052600a6020526040600020336000526020526000600260408220828155826001820155015533907f8e25282255ab31897df2b0456bb993ac7f84d376861aefd84901d2d63a7428a2600080a36001600655005b346101975760031960a0368201126101975761219f612a20565b6121a7612a36565b906001600160401b0390604435828111610197576121c9903690600401612b9d565b606435838111610197576121e1903690600401612b9d565b92608435908111610197576121fa903690600401612c0d565b6001600160a01b039283169590338714801561251a575b61221a90612e99565b612227835186511461331d565b8386169384151561223781612efc565b8815159081612512575b506123ac575b5060005b83518110156122da57806122626122d59286612e85565b5161226d8289612e85565b5190806000526020906000825260406000208c60005282528260406000205461229882821015612f56565b82600052600084528d6040600020906000528452036040600020556000526000815260406000209088600052526106df6040600020918254612fb5565b61224b565b5090949392919382876040517f4a39dc06d4c0dbc64b70af90fd698a233a518aa5d07e595d983b8c0526c8f7fb3391806123158a8c8361337a565b0390a43b61231f57005b600060209461236161081c9761080c94604051998a988997889663bc197c8160e01b9e8f89523360048a0152602489015260a0604489015260a4880190612c55565b03925af16000918161238c575b5061237b57610848613408565b6001600160e01b031916036108e457005b6123a591925060203d8111610926576109178183612b17565b908361236e565b96949390959160005b845181101561250457806123cc6124049287612e85565b51600052878a600a60209080825260406000208460005282528360406000209384541614806124f7575b612409575b50505050612e76565b6123b5565b612413858c612e85565b51928b868c600296878501938454809210156000146124975750509091506000965061243f9250612e85565b518452815260408320908b845252604082208281558260018201550155876124678288612e85565b517f8e25282255ab31897df2b0456bb993ac7f84d376861aefd84901d2d63a7428a2600080a35b878b80806123fb565b7f36e94395fafcb0d2a9bcfcdd5cef807ab52a1f4382906992ebdc18de5f1472c49795985060409650916124dc84926124d56001966124e496612e85565b519061366d565b809555612e85565b51950154918351928352820152a361248e565b50600283015415156123f6565b509195909394965087612247565b905089612241565b5086600052600160205260406000203360005260205261221a60ff604060002054169050612211565b3461019757604061255c61255636612a94565b9061356c565b82516001600160a01b0390921682526020820152f35b34610197576020806003193601126101975760043560008181526009835260409020546001600160a01b03929190831615612942576125b090613a45565b8051908281015160408201519160608101519560808201511695604051966125d788612ae1565b602a885286880190604036833788511561292c5760308253885160019081101561292c57607860218b01536029905b8082116128ce57505061288b57869760c084015161262390613902565b9260e085015161263290613902565b94610100015161264190613902565b96896040519a8b9a683d913730b6b2911d1160b91b828d01528b815192602984920192019161266f92612a4c565b8a0161088b60f21b988960298301526e113232b9b1b934b83a34b7b7111d1160891b602b83015280518093603a84019201916126aa92612a4c565b0187603a820152681134b6b0b3b2911d1160b91b603c820152815191828d604584019201916126d892612a4c565b01866045820152701130b734b6b0ba34b7b72fbab936111d1160791b6047820152815191828c6058840192019161270e92612a4c565b01908560588301526d2270726f70657274696573223a7b60901b605a8301526a1131b932b0ba37b9111d1160a91b60688301525191826073830161275192612a4c565b018360738201526c1136b0bc29bab838363c911d1160991b607582015281519182896082840192019161278392612a4c565b01826082820152701131bab93932b73a29bab838363c911d1160791b60848201528151918288609584019201916127b992612a4c565b019060958201526d113937bcb0b63a3ca12829911d1160911b6097820152815191828660a584019201916127ec92612a4c565b01601160f91b60a582015260a68101617d7d60f01b90520360888101825260a8016128179082612b17565b612820906137bc565b9060405180928282017f646174613a6170706c69636174696f6e2f6a736f6e3b6261736536342c00000090528051908184603d850192019161286192612a4c565b810103601d81018352603d016128779083612b17565b604051918183928352820161174591612a6f565b6064876040519062461bcd60e51b825280600483015260248201527f537472696e67733a20686578206c656e67746820696e73756666696369656e746044820152fd5b9091600f8116601081101561292c578b5184101561292c576f181899199a1a9b1b9c1cb0b131b232b360811b901a8b84018b015360041c918015612916576000190190612606565b634e487b7160e01b600052601160045260246000fd5b634e487b7160e01b600052603260045260246000fd5b60405163f070cb6f60e01b8152600490fd5b346101975760203660031901126101975760043563ffffffff60e01b81168091036101975760209063152a902d60e11b811490819081156129ab575b5081156129a3575b506040519015158152f35b905082612998565b909150636cdb3d1360e11b81149081156129e0575b81156129cf575b509083612990565b6301ffc9a760e01b149050836129c7565b6303a24d0760e21b811491506129c0565b34610197576040366003190112610197576020612a18612a0f612a20565b60243590612df1565b604051908152f35b600435906001600160a01b038216820361019757565b602435906001600160a01b038216820361019757565b60005b838110612a5f5750506000910152565b8181015183820152602001612a4f565b90602091612a8881518092818552858086019101612a4c565b601f01601f1916010190565b6040906003190112610197576004359060243590565b61014081019081106001600160401b03821117611e4657604052565b604081019081106001600160401b03821117611e4657604052565b606081019081106001600160401b03821117611e4657604052565b602081019081106001600160401b03821117611e4657604052565b90601f801991011681019081106001600160401b03821117611e4657604052565b6001600160401b038111611e465760051b60200190565b9291612b5a82612b38565b91612b686040519384612b17565b829481845260208094019160051b810192831161019757905b828210612b8e5750505050565b81358152908301908301612b81565b9080601f8301121561019757816020612bb893359101612b4f565b90565b6001600160401b038111611e4657601f01601f191660200190565b929192612be282612bbb565b91612bf06040519384612b17565b829481845281830111610197578281602093846000960137010152565b9080601f8301121561019757816020612bb893359101612bd6565b9181601f84011215610197578235916001600160401b038311610197576020838186019501011161019757565b90815180825260208080930193019160005b828110612c75575050505090565b835185529381019392810192600101612c67565b90600182811c92168015612cb9575b6020831014612ca357565b634e487b7160e01b600052602260045260246000fd5b91607f1691612c98565b9060405191826000825492612cd784612c89565b908184526001948581169081600014612d465750600114612d03575b5050612d0192500383612b17565b565b9093915060005260209081600020936000915b818310612d2e575050612d0193508201013880612cf3565b85548884018501529485019487945091830191612d16565b915050612d0194506020925060ff191682840152151560051b8201013880612cf3565b9181601f84011215610197578235916001600160401b038311610197576020808501948460051b01011161019757565b6005546001600160a01b03163303612dad57565b606460405162461bcd60e51b815260206004820152602060248201527f4f776e61626c653a2063616c6c6572206973206e6f7420746865206f776e65726044820152fd5b6001600160a01b0316908115612e1e57600052600060205260406000209060005260205260406000205490565b60405162461bcd60e51b815260206004820152602a60248201527f455243313135353a2061646472657373207a65726f206973206e6f742061207660448201526930b634b21037bbb732b960b11b6064820152608490fd5b60001981146129165760010190565b805182101561292c5760209160051b010190565b15612ea057565b60405162461bcd60e51b815260206004820152602e60248201527f455243313135353a2063616c6c6572206973206e6f7420746f6b656e206f776e60448201526d195c881bdc88185c1c1c9bdd995960921b6064820152608490fd5b15612f0357565b60405162461bcd60e51b815260206004820152602560248201527f455243313135353a207472616e7366657220746f20746865207a65726f206164604482015264647265737360d81b6064820152608490fd5b15612f5d57565b60405162461bcd60e51b815260206004820152602a60248201527f455243313135353a20696e73756666696369656e742062616c616e636520666f60448201526939103a3930b739b332b960b11b6064820152608490fd5b9190820180921161291657565b9192909360018060a01b038086169081151594612fde86612efc565b612fe7876134e9565b9180612ff2876134e9565b9216968715159081613315575b506131b6575b5050506000928584526020958487526040978886208787528852828987205461303082821015612f56565b838852878a528a88208989528a520389872055818652858852888620848752885288862061305f848254612fb5565b905583878a51848152858b8201527fc3d58168c5ae7397731d063d5bbf3d657854427343f4c083240f7aacaa2d0f628c3392a43b6130a2575b5050505050505050565b918493916130ea9588999a98948b519788958694859363f23a6e6160e01b9c8d865233600487015260248601526044850152606484015260a0608484015260a4830190612a6f565b03925af1909181613197575b5061315d57505050613106613408565b6308c379a014613129575b505162461bcd60e51b81528061086c60048201613494565b613131613426565b908161313d5750613111565b61086c835192839262461bcd60e51b845260048401526024830190612a6f565b919392506001600160e01b03199091160361318057503880808080808080613098565b5162461bcd60e51b81528061086c600482016133bf565b6131af919250853d8711610926576109178183612b17565b90386130f6565b9490959691989360009893985b8a5181101561330357808989828e6131de61321a9682612e85565b516000528b600a6020908082526040928360002088600052835287846000209182541614806132f6575b61321f575b5050505050505050612e76565b6131c3565b6132298688612e85565b51600282810180549199909282116132a557505050509161327195916000936132528787612e85565b5185528152818420908885525282208281558260018201550155612e85565b517f8e25282255ab31897df2b0456bb993ac7f84d376861aefd84901d2d63a7428a2600080a35b8989828e3880808061320d565b6132e3939950600194508892959697916124d57f36e94395fafcb0d2a9bcfcdd5cef807ab52a1f4382906992ebdc18de5f1472c49a6124dc93612e85565b51950154918351928352820152a3613298565b5060028101541515613208565b50939850935094935094388080613005565b905038612fff565b1561332457565b60405162461bcd60e51b815260206004820152602860248201527f455243313135353a2069647320616e6420616d6f756e7473206c656e677468206044820152670dad2e6dac2e8c6d60c31b6064820152608490fd5b9091613391612bb893604084526040840190612c55565b916020818403910152612c55565b9081602091031261019757516001600160e01b0319811681036101975790565b60809060208152602860208201527f455243313135353a204552433131353552656365697665722072656a656374656040820152676420746f6b656e7360c01b60608201520190565b60009060033d1161341557565b905060046000803e60005160e01c90565b600060443d10612bb857604051600319913d83016004833e81516001600160401b03918282113d6024840111176134835781840194855193841161348b573d850101602084870101116134835750612bb892910160200190612b17565b949350505050565b50949350505050565b60809060208152603460208201527f455243313135353a207472616e7366657220746f206e6f6e2d455243313135356040820152732932b1b2b4bb32b91034b6b83632b6b2b73a32b960611b60608201520190565b604051906134f682612ac6565b6001825260208201602036823782511561292c575290565b6040519061351b82612ac6565b6003546001600160a01b038116835260a01c6020830152565b9060405161354181612ac6565b91546001600160a01b038116835260a01c6020830152565b8181029291811591840414171561291657565b91909160005260046020526135846040600020613534565b805190926001600160a01b03918216156135bc575b6135b4612710916001600160601b0360208701511690613559565b049251169190565b92506127106135b46135cc61350e565b94915050613599565b90601f81116135e357505050565b600091825260208220906020601f850160051c8301941061361f575b601f0160051c01915b82811061361457505050565b818155600101613608565b90925082906135ff565b60ff6007541661363557565b60405162461bcd60e51b815260206004820152601060248201526f14185d5cd8589b194e881c185d5cd95960821b6044820152606490fd5b9190820391821161291657565b919081101561292c5760051b0190565b3d156136b5573d9061369b82612bbb565b916136a96040519384612b17565b82523d6000602084013e565b606090565b81835290916001600160fb1b0383116101975760209260051b809284830137010190565b6002600654146136ef576002600655565b60405162461bcd60e51b815260206004820152601f60248201527f5265656e7472616e637947756172643a207265656e7472616e742063616c6c006044820152606490fd5b1561373b57565b60405162461bcd60e51b815260206004820152602160248201527f455243313135353a206d696e7420746f20746865207a65726f206164647265736044820152607360f81b6064820152608490fd5b9061379482612bbb565b6137a16040519182612b17565b82815280926137b2601f1991612bbb565b0190602036910137565b8051156138ee576040516137cf81612ae1565b604081527f4142434445464748494a4b4c4d4e4f505152535455565758595a61626364656660208201527f6768696a6b6c6d6e6f707172737475767778797a303132333435363738392b2f60408201528151600292838201809211612916576003918290046001600160fe1b038116810361291657613851908594951b61378a565b936020850193829183518401925b83811061389d575050505051068060011461388a5760021461387f575090565b603d90600019015390565b50603d9081600019820153600119015390565b85600491979293949701918251600190603f9082828260121c16880101518453828282600c1c16880101518385015382828260061c168801015188850153168501015187820153019592919061385f565b506040516138fb81612afc565b6000815290565b806000917a184f03e93ff9f4daa797ed6e38ed64bf6a1f01000000000000000080821015613a37575b506d04ee2d6d415b85acef810000000080831015613a28575b50662386f26fc1000080831015613a19575b506305f5e10080831015613a0a575b50612710808310156139fb575b5060648210156139eb575b600a809210156139e1575b60019081602161399982870161378a565b95860101905b6139ab575b5050505090565b600019019083906f181899199a1a9b1b9c1cb0b131b232b360811b8282061a8353049182156139dc5791908261399f565b6139a4565b9160010191613988565b919060646002910491019161397d565b60049193920491019138613972565b60089193920491019138613965565b60109193920491019138613956565b60209193920491019138613944565b60409350810491503861392b565b604090815190613a5482612aaa565b6060908183526020938285850152828185015282808501526000948560808601528560a08601528560c08601528560e086015261010091868387015286610120809701528387526009825260018060a01b039485828920541615613bb457848852600983528188209060048452613acc838a20613534565b848882511615613b9b575b6001600160601b03910151169561271087810204809703613b87578952600b845282808a2099600c8652209682541690600583015492600681015494600782015496600983015460ff169a8251809e613b2f82612aaa565b613b3890612cc3565b9052613b4390612cc3565b908d0152613b5360048301612cc3565b908c0152600301613b6390612cc3565b908a0152608089015260a088015260c087015260e086015284015215159082015290565b634e487b7160e01b8a52601160045260248afd5b6001600160601b039150613bad61350e565b9150613ad7565b815163f070cb6f60e01b8152600490fdfea2646970667358221220c2388bb0bc0a1fa249741180ffe63737faf469a8a90c9492b29391fea621745c64736f6c63430008140033",
  "linkReferences": {},
  "deployedLinkReferences": {}
}