{
  "_format": "hh-sol-artifact-1",
  "contractName": "MusicNFTMarketplace",
  "sourceName": "contracts/MusicNFTMarketplace.sol",
  "abi": [
    {
      "inputs": [],
      "stateMutability": "nonpayable",
      "type": "constructor"
    },
    {
      "inputs": [],
      "name": "ArrayLengthMismatch",
      "type": "error"
    },
    {
      "inputs": [],
      "name": "BatchSizeTooLarge",
      "type": "error"
    },
    {
      "inputs": [],
      "name": "InsufficientBalance",
      "type": "error"
    },
    {
      "inputs": [],
      "name": "InsufficientPayment",
      "type": "error"
    },
    {
      "inputs": [],
      "name": "InvalidAddress",
      "type": "error"
    },
    {
      "inputs": [],
      "name": "InvalidInput",
      "type": "error"
    },
    {
      "inputs": [],
      "name": "InvalidPrice",
      "type": "error"
    },
    {
      "inputs": [],
      "name": "InvalidRoyalty",
      "type": "error"
    },
    {
      "inputs": [],
      "name": "InvalidSupply",
      "type": "error"
    },
    {
      "inputs": [],
      "name": "MaxSupplyExceeded",
      "type": "error"
    },
    {
      "inputs": [],
      "name": "NFTNotActive",
      "type": "error"
    },
    {
      "inputs": [],
      "name": "NFTNotFound",
      "type": "error"
    },
    {
      "inputs": [],
      "name": "NotAuthorized",
      "type": "error"
    },
    {
      "inputs": [],
      "name": "Overflow",
      "type": "error"
    },
    {
      "inputs": [],
      "name": "TransferFailed",
      "type": "error"
    },
    {
      "anonymous": false,
      "inputs": [
        {
          "indexed": true,
          "internalType": "address",
          "name": "account",
          "type": "address"
        },
        {
          "indexed": true,
          "internalType": "address",
          "name": "operator",
          "type": "address"
        },
        {
          "indexed": false,
          "internalType": "bool",
          "name": "approved",
          "type": "bool"
        }
      ],
      "name": "ApprovalForAll",
      "type": "event"
    },
    {
      "anonymous": false,
      "inputs": [
        {
          "indexed": true,
          "internalType": "address",
          "name": "seller",
          "type": "address"
        },
        {
          "indexed": false,
          "internalType": "uint256[]",
          "name": "tokenIds",
          "type": "uint256[]"
        },
        {
          "indexed": false,
          "internalType": "uint256[]",
          "name": "amounts",
          "type": "uint256[]"
        },
        {
          "indexed": false,
          "internalType": "uint256[]",
          "name": "prices",
          "type": "uint256[]"
        }
      ],
      "name": "BatchListingCompleted",
      "type": "event"
    },
    {
      "anonymous": false,
      "inputs": [
        {
          "indexed": true,
          "internalType": "address",
          "name": "buyer",
          "type": "address"
        },
        {
          "indexed": false,
          "internalType": "uint256[]",
          "name": "tokenIds",
          "type": "uint256[]"
        },
        {
          "indexed": false,
          "internalType": "uint256[]",
          "name": "amounts",
          "type": "uint256[]"
        }
      ],
      "name": "BatchMintCompleted",
      "type": "event"
    },
    {
      "anonymous": false,
      "inputs": [
        {
          "indexed": true,
          "internalType": "uint256",
          "name": "tokenId",
          "type": "uint256"
        },
        {
          "indexed": true,
          "internalType": "address",
          "name": "seller",
          "type": "address"
        }
      ],
      "name": "ListingCancelled",
      "type": "event"
    },
    {
      "anonymous": false,
      "inputs": [
        {
          "indexed": true,
          "internalType": "uint256",
          "name": "tokenId",
          "type": "uint256"
        },
        {
          "indexed": true,
          "internalType": "address",
          "name": "creator",
          "type": "address"
        },
        {
          "indexed": false,
          "internalType": "uint256",
          "name": "price",
          "type": "uint256"
        },
        {
          "indexed": false,
          "internalType": "uint256",
          "name": "maxSupply",
          "type": "uint256"
        }
      ],
      "name": "NFTCreated",
      "type": "event"
    },
    {
      "anonymous": false,
      "inputs": [
        {
          "indexed": true,
          "internalType": "uint256",
          "name": "tokenId",
          "type": "uint256"
        },
        {
          "indexed": true,
          "internalType": "address",
          "name": "seller",
          "type": "address"
        },
        {
          "indexed": false,
          "internalType": "uint256",
          "name": "price",
          "type": "uint256"
        },
        {
          "indexed": false,
          "internalType": "uint256",
          "name": "amount",
          "type": "uint256"
        }
      ],
      "name": "NFTListed",
      "type": "event"
    },
    {
      "anonymous": false,
      "inputs": [
        {
          "indexed": true,
          "internalType": "address",
          "name": "minter",
          "type": "address"
        },
        {
          "indexed": false,
          "internalType": "uint256",
          "name": "tokenId",
          "type": "uint256"
        },
        {
          "indexed": false,
          "internalType": "uint256",
          "name": "amount",
          "type": "uint256"
        }
      ],
      "name": "NFTMinted",
      "type": "event"
    },
    {
      "anonymous": false,
      "inputs": [
        {
          "indexed": true,
          "internalType": "uint256",
          "name": "tokenId",
          "type": "uint256"
        },
        {
          "indexed": false,
          "internalType": "uint256",
          "name": "newPrice",
          "type": "uint256"
        }
      ],
      "name": "NFTPriceUpdated",
      "type": "event"
    },
    {
      "anonymous": false,
      "inputs": [
        {
          "indexed": true,
          "internalType": "uint256",
          "name": "tokenId",
          "type": "uint256"
        },
        {
          "indexed": true,
          "internalType": "address",
          "name": "seller",
          "type": "address"
        },
        {
          "indexed": true,
          "internalType": "address",
          "name": "buyer",
          "type": "address"
        },
        {
          "indexed": false,
          "internalType": "uint256",
          "name": "price",
          "type": "uint256"
        },
        {
          "indexed": false,
          "internalType": "uint256",
          "name": "amount",
          "type": "uint256"
        }
      ],
      "name": "NFTSold",
      "type": "event"
    },
    {
      "anonymous": false,
      "inputs": [
        {
          "indexed": true,
          "internalType": "uint256",
          "name": "tokenId",
          "type": "uint256"
        },
        {
          "indexed": false,
          "internalType": "bool",
          "name": "isActive",
          "type": "bool"
        }
      ],
      "name": "NFTStatusUpdated",
      "type": "event"
    },
    {
      "anonymous": false,
      "inputs": [
        {
          "indexed": true,
          "internalType": "address",
          "name": "previousOwner",
          "type": "address"
        },
        {
          "indexed": true,
          "internalType": "address",
          "name": "newOwner",
          "type": "address"
        }
      ],
      "name": "OwnershipTransferred",
      "type": "event"
    },
    {
      "anonymous": false,
      "inputs": [
        {
          "indexed": false,
          "internalType": "address",
          "name": "account",
          "type": "address"
        }
      ],
      "name": "Paused",
      "type": "event"
    },
    {
      "anonymous": false,
      "inputs": [
        {
          "indexed": true,
          "internalType": "address",
          "name": "operator",
          "type": "address"
        },
        {
          "indexed": true,
          "internalType": "address",
          "name": "from",
          "type": "address"
        },
        {
          "indexed": true,
          "internalType": "address",
          "name": "to",
          "type": "address"
        },
        {
          "indexed": false,
          "internalType": "uint256[]",
          "name": "ids",
          "type": "uint256[]"
        },
        {
          "indexed": false,
          "internalType": "uint256[]",
          "name": "values",
          "type": "uint256[]"
        }
      ],
      "name": "TransferBatch",
      "type": "event"
    },
    {
      "anonymous": false,
      "inputs": [
        {
          "indexed": true,
          "internalType": "address",
          "name": "operator",
          "type": "address"
        },
        {
          "indexed": true,
          "internalType": "address",
          "name": "from",
          "type": "address"
        },
        {
          "indexed": true,
          "internalType": "address",
          "name": "to",
          "type": "address"
        },
        {
          "indexed": false,
          "internalType": "uint256",
          "name": "id",
          "type": "uint256"
        },
        {
          "indexed": false,
          "internalType": "uint256",
          "name": "value",
          "type": "uint256"
        }
      ],
      "name": "TransferSingle",
      "type": "event"
    },
    {
      "anonymous": false,
      "inputs": [
        {
          "indexed": false,
          "internalType": "string",
          "name": "value",
          "type": "string"
        },
        {
          "indexed": true,
          "internalType": "uint256",
          "name": "id",
          "type": "uint256"
        }
      ],
      "name": "URI",
      "type": "event"
    },
    {
      "anonymous": false,
      "inputs": [
        {
          "indexed": false,
          "internalType": "address",
          "name": "account",
          "type": "address"
        }
      ],
      "name": "Unpaused",
      "type": "event"
    },
    {
      "inputs": [],
      "name": "BASIS_POINTS",
      "outputs": [
        {
          "internalType": "uint256",
          "name": "",
          "type": "uint256"
        }
      ],
      "stateMutability": "view",
      "type": "function"
    },
    {
      "inputs": [],
      "name": "MAX_BATCH_SIZE",
      "outputs": [
        {
          "internalType": "uint256",
          "name": "",
          "type": "uint256"
        }
      ],
      "stateMutability": "view",
      "type": "function"
    },
    {
      "inputs": [],
      "name": "MAX_ROYALTY_BPS",
      "outputs": [
        {
          "internalType": "uint256",
          "name": "",
          "type": "uint256"
        }
      ],
      "stateMutability": "view",
      "type": "function"
    },
    {
      "inputs": [],
      "name": "MIN_ROYALTY_BPS",
      "outputs": [
        {
          "internalType": "uint256",
          "name": "",
          "type": "uint256"
        }
      ],
      "stateMutability": "view",
      "type": "function"
    },
    {
      "inputs": [
        {
          "internalType": "address",
          "name": "account",
          "type": "address"
        },
        {
          "internalType": "uint256",
          "name": "id",
          "type": "uint256"
        }
      ],
      "name": "balanceOf",
      "outputs": [
        {
          "internalType": "uint256",
          "name": "",
          "type": "uint256"
        }
      ],
      "stateMutability": "view",
      "type": "function"
    },
    {
      "inputs": [
        {
          "internalType": "address[]",
          "name": "accounts",
          "type": "address[]"
        },
        {
          "internalType": "uint256[]",
          "name": "ids",
          "type": "uint256[]"
        }
      ],
      "name": "balanceOfBatch",
      "outputs": [
        {
          "internalType": "uint256[]",
          "name": "",
          "type": "uint256[]"
        }
      ],
      "stateMutability": "view",
      "type": "function"
    },
    {
      "inputs": [
        {
          "internalType": "uint256[]",
          "name": "_tokenIds",
          "type": "uint256[]"
        },
        {
          "internalType": "uint256[]",
          "name": "_amounts",
          "type": "uint256[]"
        }
      ],
      "name": "batchMintNFTs",
      "outputs": [],
      "stateMutability": "payable",
      "type": "function"
    },
    {
      "inputs": [
        {
          "internalType": "uint256",
          "name": "_tokenId",
          "type": "uint256"
        },
        {
          "internalType": "address",
          "name": "_seller",
          "type": "address"
        },
        {
          "internalType": "uint256",
          "name": "_amount",
          "type": "uint256"
        }
      ],
      "name": "buyListedNFT",
      "outputs": [],
      "stateMutability": "payable",
      "type": "function"
    },
    {
      "inputs": [
        {
          "internalType": "uint256",
          "name": "_tokenId",
          "type": "uint256"
        }
      ],
      "name": "cancelListing",
      "outputs": [],
      "stateMutability": "nonpayable",
      "type": "function"
    },
    {
      "inputs": [
        {
          "internalType": "string",
          "name": "_name",
          "type": "string"
        },
        {
          "internalType": "string",
          "name": "_description",
          "type": "string"
        },
        {
          "internalType": "string",
          "name": "_musicUrl",
          "type": "string"
        },
        {
          "internalType": "string",
          "name": "_imageUrl",
          "type": "string"
        },
        {
          "internalType": "uint256",
          "name": "_price",
          "type": "uint256"
        },
        {
          "internalType": "uint256",
          "name": "_maxSupply",
          "type": "uint256"
        },
        {
          "internalType": "uint256",
          "name": "_royaltyBPS",
          "type": "uint256"
        }
      ],
      "name": "createMusicNFT",
      "outputs": [
        {
          "internalType": "uint256",
          "name": "",
          "type": "uint256"
        }
      ],
      "stateMutability": "nonpayable",
      "type": "function"
    },
    {
      "inputs": [],
      "name": "getAllMusicNFTs",
      "outputs": [
        {
          "components": [
            {
              "internalType": "uint256",
              "name": "tokenId",
              "type": "uint256"
            },
            {
              "internalType": "address",
              "name": "creator",
              "type": "address"
            },
            {
              "internalType": "string",
              "name": "name",
              "type": "string"
            },
            {
              "internalType": "string",
              "name": "description",
              "type": "string"
            },
            {
              "internalType": "string",
              "name": "musicUrl",
              "type": "string"
            },
            {
              "internalType": "string",
              "name": "imageUrl",
              "type": "string"
            },
            {
              "internalType": "uint256",
              "name": "price",
              "type": "uint256"
            },
            {
              "internalType": "uint256",
              "name": "maxSupply",
              "type": "uint256"
            },
            {
              "internalType": "uint256",
              "name": "currentSupply",
              "type": "uint256"
            },
            {
              "internalType": "uint256",
              "name": "royaltyBPS",
              "type": "uint256"
            },
            {
              "internalType": "bool",
              "name": "isActive",
              "type": "bool"
            }
          ],
          "internalType": "struct MusicNFTMarketplace.MusicNFT[]",
          "name": "",
          "type": "tuple[]"
        }
      ],
      "stateMutability": "view",
      "type": "function"
    },
    {
      "inputs": [
        {
          "internalType": "uint256",
          "name": "_tokenId",
          "type": "uint256"
        },
        {
          "internalType": "address",
          "name": "_seller",
          "type": "address"
        }
      ],
      "name": "getListing",
      "outputs": [
        {
          "components": [
            {
              "internalType": "address",
              "name": "seller",
              "type": "address"
            },
            {
              "internalType": "uint256",
              "name": "price",
              "type": "uint256"
            },
            {
              "internalType": "uint256",
              "name": "amount",
              "type": "uint256"
            }
          ],
          "internalType": "struct MusicNFTMarketplace.Listing",
          "name": "",
          "type": "tuple"
        }
      ],
      "stateMutability": "view",
      "type": "function"
    },
    {
      "inputs": [
        {
          "internalType": "uint256",
          "name": "tokenId",
          "type": "uint256"
        }
      ],
      "name": "getNFTMetadata",
      "outputs": [
        {
          "components": [
            {
              "internalType": "string",
              "name": "name",
              "type": "string"
            },
            {
              "internalType": "string",
              "name": "description",
              "type": "string"
            },
            {
              "internalType": "string",
              "name": "imageUrl",
              "type": "string"
            },
            {
              "internalType": "string",
              "name": "musicUrl",
              "type": "string"
            },
            {
              "internalType": "address",
              "name": "creator",
              "type": "address"
            },
            {
              "internalType": "uint256",
              "name": "price",
              "type": "uint256"
            },
            {
              "internalType": "uint256",
              "name": "maxSupply",
              "type": "uint256"
            },
            {
              "internalType": "uint256",
              "name": "currentSupply",
              "type": "uint256"
            },
            {
              "internalType": "uint256",
              "name": "royaltyBPS",
              "type": "uint256"
            },
            {
              "internalType": "bool",
              "name": "isActive",
              "type": "bool"
            }
          ],
          "internalType": "struct MusicNFTMarketplace.NFTMetadata",
          "name": "",
          "type": "tuple"
        }
      ],
      "stateMutability": "view",
      "type": "function"
    },
    {
      "inputs": [
        {
          "internalType": "address",
          "name": "account",
          "type": "address"
        },
        {
          "internalType": "address",
          "name": "operator",
          "type": "address"
        }
      ],
      "name": "isApprovedForAll",
      "outputs": [
        {
          "internalType": "bool",
          "name": "",
          "type": "bool"
        }
      ],
      "stateMutability": "view",
      "type": "function"
    },
    {
      "inputs": [
        {
          "internalType": "uint256",
          "name": "_tokenId",
          "type": "uint256"
        },
        {
          "internalType": "uint256",
          "name": "_amount",
          "type": "uint256"
        },
        {
          "internalType": "uint256",
          "name": "_price",
          "type": "uint256"
        }
      ],
      "name": "listNFT",
      "outputs": [],
      "stateMutability": "nonpayable",
      "type": "function"
    },
    {
      "inputs": [
        {
          "internalType": "uint256",
          "name": "",
          "type": "uint256"
        },
        {
          "internalType": "address",
          "name": "",
          "type": "address"
        }
      ],
      "name": "listings",
      "outputs": [
        {
          "internalType": "address",
          "name": "seller",
          "type": "address"
        },
        {
          "internalType": "uint256",
          "name": "price",
          "type": "uint256"
        },
        {
          "internalType": "uint256",
          "name": "amount",
          "type": "uint256"
        }
      ],
      "stateMutability": "view",
      "type": "function"
    },
    {
      "inputs": [
        {
          "internalType": "uint256",
          "name": "_tokenId",
          "type": "uint256"
        },
        {
          "internalType": "uint256",
          "name": "_amount",
          "type": "uint256"
        }
      ],
      "name": "mintNFT",
      "outputs": [],
      "stateMutability": "payable",
      "type": "function"
    },
    {
      "inputs": [
        {
          "internalType": "uint256",
          "name": "",
          "type": "uint256"
        }
      ],
      "name": "musicNFTs",
      "outputs": [
        {
          "internalType": "uint256",
          "name": "tokenId",
          "type": "uint256"
        },
        {
          "internalType": "address",
          "name": "creator",
          "type": "address"
        },
        {
          "internalType": "string",
          "name": "name",
          "type": "string"
        },
        {
          "internalType": "string",
          "name": "description",
          "type": "string"
        },
        {
          "internalType": "string",
          "name": "musicUrl",
          "type": "string"
        },
        {
          "internalType": "string",
          "name": "imageUrl",
          "type": "string"
        },
        {
          "internalType": "uint256",
          "name": "price",
          "type": "uint256"
        },
        {
          "internalType": "uint256",
          "name": "maxSupply",
          "type": "uint256"
        },
        {
          "internalType": "uint256",
          "name": "currentSupply",
          "type": "uint256"
        },
        {
          "internalType": "uint256",
          "name": "royaltyBPS",
          "type": "uint256"
        },
        {
          "internalType": "bool",
          "name": "isActive",
          "type": "bool"
        }
      ],
      "stateMutability": "view",
      "type": "function"
    },
    {
      "inputs": [],
      "name": "owner",
      "outputs": [
        {
          "internalType": "address",
          "name": "",
          "type": "address"
        }
      ],
      "stateMutability": "view",
      "type": "function"
    },
    {
      "inputs": [],
      "name": "pause",
      "outputs": [],
      "stateMutability": "nonpayable",
      "type": "function"
    },
    {
      "inputs": [],
      "name": "paused",
      "outputs": [
        {
          "internalType": "bool",
          "name": "",
          "type": "bool"
        }
      ],
      "stateMutability": "view",
      "type": "function"
    },
    {
      "inputs": [],
      "name": "renounceOwnership",
      "outputs": [],
      "stateMutability": "nonpayable",
      "type": "function"
    },
    {
      "inputs": [
        {
          "internalType": "uint256",
          "name": "tokenId",
          "type": "uint256"
        },
        {
          "internalType": "uint256",
          "name": "salePrice",
          "type": "uint256"
        }
      ],
      "name": "royaltyInfo",
      "outputs": [
        {
          "internalType": "address",
          "name": "",
          "type": "address"
        },
        {
          "internalType": "uint256",
          "name": "",
          "type": "uint256"
        }
      ],
      "stateMutability": "view",
      "type": "function"
    },
    {
      "inputs": [
        {
          "internalType": "address",
          "name": "from",
          "type": "address"
        },
        {
          "internalType": "address",
          "name": "to",
          "type": "address"
        },
        {
          "internalType": "uint256[]",
          "name": "ids",
          "type": "uint256[]"
        },
        {
          "internalType": "uint256[]",
          "name": "amounts",
          "type": "uint256[]"
        },
        {
          "internalType": "bytes",
          "name": "data",
          "type": "bytes"
        }
      ],
      "name": "safeBatchTransferFrom",
      "outputs": [],
      "stateMutability": "nonpayable",
      "type": "function"
    },
    {
      "inputs": [
        {
          "internalType": "address",
          "name": "from",
          "type": "address"
        },
        {
          "internalType": "address",
          "name": "to",
          "type": "address"
        },
        {
          "internalType": "uint256",
          "name": "id",
          "type": "uint256"
        },
        {
          "internalType": "uint256",
          "name": "amount",
          "type": "uint256"
        },
        {
          "internalType": "bytes",
          "name": "data",
          "type": "bytes"
        }
      ],
      "name": "safeTransferFrom",
      "outputs": [],
      "stateMutability": "nonpayable",
      "type": "function"
    },
    {
      "inputs": [
        {
          "internalType": "address",
          "name": "operator",
          "type": "address"
        },
        {
          "internalType": "bool",
          "name": "approved",
          "type": "bool"
        }
      ],
      "name": "setApprovalForAll",
      "outputs": [],
      "stateMutability": "nonpayable",
      "type": "function"
    },
    {
      "inputs": [
        {
          "internalType": "bytes4",
          "name": "interfaceId",
          "type": "bytes4"
        }
      ],
      "name": "supportsInterface",
      "outputs": [
        {
          "internalType": "bool",
          "name": "",
          "type": "bool"
        }
      ],
      "stateMutability": "view",
      "type": "function"
    },
    {
      "inputs": [
        {
          "internalType": "uint256",
          "name": "_tokenId",
          "type": "uint256"
        }
      ],
      "name": "toggleNFTStatus",
      "outputs": [],
      "stateMutability": "nonpayable",
      "type": "function"
    },
    {
      "inputs": [
        {
          "internalType": "address",
          "name": "newOwner",
          "type": "address"
        }
      ],
      "name": "transferOwnership",
      "outputs": [],
      "stateMutability": "nonpayable",
      "type": "function"
    },
    {
      "inputs": [],
      "name": "unpause",
      "outputs": [],
      "stateMutability": "nonpayable",
      "type": "function"
    },
    {
      "inputs": [
        {
          "internalType": "uint256",
          "name": "_tokenId",
          "type": "uint256"
        },
        {
          "internalType": "uint256",
          "name": "_newPrice",
          "type": "uint256"
        }
      ],
      "name": "updateNFTPrice",
      "outputs": [],
      "stateMutability": "nonpayable",
      "type": "function"
    },
    {
      "inputs": [
        {
          "internalType": "uint256",
          "name": "tokenId",
          "type": "uint256"
        }
      ],
      "name": "uri",
      "outputs": [
        {
          "internalType": "string",
          "name": "",
          "type": "string"
        }
      ],
      "stateMutability": "view",
      "type": "function"
    }
  ],
  "bytecode": "0x6080346200015357602081016001600160401b038111828210176200013d5760405260008091526002546001908181811c9116801562000132575b60208210146200011e57601f8111620000d0575b50600282905560058054336001600160a01b031982168117909255604051936001600160a01b03909116907f8be0079c531659141344cd1fd0a4f28419497f9722a3daafe3b4186f6b6457e09080a360065560ff19600754166007553315620000c157604051613c899081620001598239f35b63e6c4247b60e01b8152600490fd5b60028352601f0160051c7f405787fa12a823e0f2b7631cc41b3ba8828b3321ca811111fa75cd3aa3bb5ace9081019082905b828110620001125750506200004e565b84815501829062000102565b634e487b7160e01b83526022600452602483fd5b90607f16906200003a565b634e487b7160e01b600052604160045260246000fd5b600080fdfe6080604052600436101561001257600080fd5b60003560e01c8062fdd58e14612a5d57806301ffc9a7146129c05780630e89341c146125dd5780632a55205a146125ae5780632eb2c2d6146121f0578063305a67a81461214d578063368d9b48146119095780633dca40e6146118ec5780633f4ba83a146118585780634ac0123d146117cd5780634e1273f41461162b5780635c975abb146116085780635d2691381461150b5780636be9a6f114611435578063715018a6146113d85780638456cb591461137e5780638da5cb5b14611355578063927fbfc8146112f3578063935b74c8146112585780639b8262fd146111b0578063a22cb465146110c3578063b0136c8d14610fba578063b6308e0214610dd7578063c48283ff14610b4d578063cfdbf25414610b31578063e1f1c4a714610b14578063e985e9c514610abe578063ecf7ba22146105f9578063f242432a14610560578063f2fde38b1461049c578063f59e506f1461019c5763f83496171461017b57600080fd5b3461019757600036600319011261019757602060405160008152f35b600080fd5b34610197576000366003190112610197576008805460009160015b8281111561045957506101c983612bc0565b926101d76040519485612b9f565b8084526101e6601f1991612bc0565b0160005b8181106103f6575050600060015b838111156102fd576040805160208082528751818301819052600093600582901b8401810192808b01929185015b8287106102335785850386f35b909192938280600192603f1989820301855287519081518152848060a01b038383015116838201526102b66102a361029061027d6040860151610160806040880152860190612adb565b6060808701519086830390870152612adb565b6080808601519085830390860152612adb565b60a0808501519084830390850152612adb565b9160c0808201519083015260e081015160e0830152610100808201519083015261012080820151908301526101408091015115159101529601920196019592919092610226565b600081815260096020818152604090922060018101549091906001600160a01b031680610337575b5050505061033290612efe565b6101f8565b600a6103329596936103ec959360ff936040519561035487612b16565b8354875286015261036760028301612d4b565b604086015261037860038301612d4b565b606086015261038960048301612d4b565b608086015261039a60058301612d4b565b60a0860152600682015460c0860152600782015460e08601528982015461010086015281015461012085015201541615156101408201526103db8289612f0d565b526103e68188612f0d565b50612efe565b9190868080610325565b60209060405161040581612b16565b60008152826000818301526060806040840152808084015280608084015260a0830152600060c0830152600060e08301526000610100830152600061012083015260006101408301528288010152016101ea565b6000818152600960205260409020600101546001600160a01b0316610487575b61048290612efe565b6101b7565b9261049461048291612efe565b939050610479565b34610197576020366003190112610197576104b5612a8c565b6104bd612e21565b6001600160a01b0390811690811561050c57600554826001600160601b0360a01b821617600555167f8be0079c531659141344cd1fd0a4f28419497f9722a3daafe3b4186f6b6457e0600080a3005b60405162461bcd60e51b815260206004820152602660248201527f4f776e61626c653a206e6577206f776e657220697320746865207a65726f206160448201526564647265737360d01b6064820152608490fd5b346101975760a036600319011261019757610579612a8c565b610581612aa2565b90608435916001600160401b038311610197576105a56105d1933690600401612c95565b916001600160a01b03811633811480156105d3575b6105c49150612f21565b606435916044359161304a565b005b5060005260016020526040600020336000526020526105c460ff604060002054166105ba565b600319604036820112610197576001600160401b039060043582811161019757610627903690600401612df1565b909260243590811161019757610641903690600401612df1565b919061064b613766565b6106536136b1565b828203610aac5760148211610a9a5760009060005b838110610961575081341061094f57610682368488612bd7565b9561068e368684612bd7565b9460405161069b81612b84565b600081526106aa3315156137bc565b6106b789518851146133a5565b60005b895181101561070d57806106d1610708928a612f0d565b516106dc828d612f0d565b516000526020600081526040600020903360005252610701604060002091825461303d565b9055612efe565b6106ba565b5088908789604051600033917f4a39dc06d4c0dbc64b70af90fd698a233a518aa5d07e595d983b8c0526c8f7fb339180610748888b83613402565b0390a4333b6107ec575b50505050906107b0946107a77f6583473987e443781108c9a74166cfb5d143516bbb4a3804805a2e0b3491156393610797604051948594604086526040860191613742565b9083820360208501523396613742565b0390a2346136f5565b806107bd575b6001600655005b600080808093335af16107ce613712565b50156107da57806107b6565b6040516312171d8360e31b8152600490fd5b60209161084d61083e92604098979851958694859461082e63bc197c8160e01b9a8b88523360048901526000602489015260a0604489015260a4880190612cdd565b9084878303016064880152612cdd565b91848303016084850152612adb565b03816000335af16000918161091f575b506108c95761086a613490565b6308c379a014610892575b60405162461bcd60e51b81528061088e6004820161351c565b0390fd5b61089a6134ae565b806108a55750610875565b60405162461bcd60e51b81526020600482015290819061088e906024830190612adb565b6001600160e01b031916036109065790846107a77f6583473987e443781108c9a74166cfb5d143516bbb4a3804805a2e0b349115636107b0610752565b60405162461bcd60e51b81528061088e60048201613447565b61094191925060203d8111610948575b6109398183612b9f565b810190613427565b908861085d565b503d61092f565b60405163cd1c886760e01b8152600490fd5b61096c818589613702565b35600052600960205260406000209260ff600a8501541615610a8857610993828785613702565b3515610a7657600884019081546109ab848987613702565b358101600787015410610a64576109e787926109e1868b6109d48f9b600684910154928c613702565b350295868094019a613702565b356135f4565b9384926109f5878c8a613702565b3501905581610a3b575b508103610a11575b5050600101610668565b600080809381930360018060a01b03600554165af1610a2e613712565b50156107da578780610a07565b6000918291829182916001600160a01b03165af1610a57613712565b50156107da57818a6109ff565b604051638a164f6360e01b8152600490fd5b60405163b4fa3fb360e01b8152600490fd5b60405163ad9d099b60e01b8152600490fd5b604051631e80759560e21b8152600490fd5b60405163512509d360e11b8152600490fd5b3461019757604036600319011261019757610ad7612a8c565b610adf612aa2565b9060018060a01b03809116600052600160205260406000209116600052602052602060ff604060002054166040519015158152f35b346101975760003660031901126101975760206040516127108152f35b3461019757600036600319011261019757602060405160148152f35b610b5636612b00565b90610b5f613766565b610b676136b1565b8060005260209160098352604060002060ff600a8201541615610a88578115610a765760088101805491610b9b848461303d565b600782015410610a6457836006610bb39201546135e1565b9182341061094f5783610bc59161303d565b9055600080808084610bd781896135f4565b506001600160a01b03165af1610beb613712565b50156107da57803411610db1575b50604051610c0681612b84565b60008152610c153315156137bc565b610c1e83613571565b50610c2882613571565b50826000526000845260406000203360005284526040600020610c4c83825461303d565b90556040518381528285820152600033917fc3d58168c5ae7397731d063d5bbf3d657854427343f4c083240f7aacaa2d0f6260403392a4333b610cc2575b50826040519283528201527f3a8a89b59a31c39a36febecb987e0657ab7b7c73b60ebacb44dcb9886c2d5c8a60403392a26001600655005b604051848180610d0163f23a6e6160e01b958683523360048401526000602484015288604484015287606484015260a0608484015260a4830190612adb565b03816000335af160009181610d92575b50610d775784610d1f613490565b6308c379a014610d425760405162461bcd60e51b81528061088e6004820161351c565b610d4a6134ae565b9081610d565750610875565b61088e60405192839262461bcd60e51b845260048401526024830190612adb565b929391926001600160e01b0319160361090657919083610c8a565b610daa919250863d8811610948576109398183612b9f565b9086610d11565b60008080610dc08194346136f5565b335af1610dcb613712565b50156107da5783610bf9565b606036600319011261019757600435610dee612aa2565b604435610df9613766565b610e016136b1565b6001600160a01b0392828416918215610fa8573315610fa857338314610f965781600052602093600a85526040600020846000528552604060002090848783541603610f9657600282019183835410610f8457846000526009875260ff600a604060002001541615610a885783610e788684612e79565b10610f845760010191838354029788341061094f57610e9789876135f4565b919082610f64575b50506000808080938c038a5af1610eb4613712565b50156107da57610ed98492838760405192610ece84612b84565b60008452339061304a565b805490828203905514610f39575b54936040519485528401527f5fafad85dec201c2e73b6a2bef6351129304a624ea8720ecd04cd7f04d83bc3960403394a4803411610f26576001600655005b6000808080933403335af16107ce613712565b82600052600a8552604060002084600052855260006002604082208281558260018201550155610ee7565b6000808481948294165af1610f77613712565b50156107da578980610e9f565b604051631e9acf1760e31b8152600490fd5b60405163ea8e4eb560e01b8152600490fd5b60405163e6c4247b60e01b8152600490fd5b3461019757606036600319011261019757604435600435602435610fdc613766565b610fe46136b1565b80610fef8333612e79565b10610f84578015610a765782156110b25781600052600960205260ff600a604060002001541615610a885760405161102681612b4d565b338152600260208201858152604083019084825285600052600a60205260406000203360005260205260406000209360018060a01b039051166001600160601b0360a01b8554161784555160018401555191015560405192835260208301527f36e94395fafcb0d2a9bcfcdd5cef807ab52a1f4382906992ebdc18de5f1472c460403393a36001600655005b60405162bfc92160e01b8152600490fd5b34610197576040366003190112610197576110dc612a8c565b6024359081151590818303610197576001600160a01b0316913383146111595761112b9033600052600160205260406000208460005260205260406000209060ff801983541691151516179055565b6040519081527f17307eab39ab6107e8899845ad3d59bd9653f200f220920489ca2b5937696c3160203392a3005b60405162461bcd60e51b815260206004820152602960248201527f455243313135353a2073657474696e6720617070726f76616c20737461747573604482015268103337b91039b2b63360b91b6064820152608490fd5b34610197576020366003190112610197576004356111cc6136b1565b60008181526009602052604090206001810154336001600160a01b0391821614159081611249575b50610f9657602060ff600a7fb98f2e7a31992fd0038957c8b37afbfde15601543d7e49508ff1093c402e6b89930161123c8282541615829060ff801983541691151516179055565b54166040519015158152a2005b905060055416331415836111f4565b34610197576040366003190112610197576060611273612aa2565b60006040805161128281612b4d565b8281528260208201520152600435600052600a602052604060002060018060a01b03809216600052602052604060002090604051906112c082612b4d565b82541691828252604060026001830154926020850193845201549201918252604051928352516020830152516040820152f35b3461019757604036600319011261019757606061130e612aa2565b600435600052600a602052604060002060018060a01b0380921660005260205260406000209081541690600260018201549101549060405192835260208301526040820152f35b34610197576000366003190112610197576005546040516001600160a01b039091168152602090f35b3461019757600036600319011261019757611397612e21565b61139f6136b1565b600160ff1960075416176007557f62e78cea01bee320cd4e420270b5ea74000d11b0c9f74754ebdbfc544b05a2586020604051338152a1005b34610197576000366003190112610197576113f1612e21565b600580546001600160a01b031981169091556000906001600160a01b03167f8be0079c531659141344cd1fd0a4f28419497f9722a3daafe3b4186f6b6457e08280a3005b3461019757602036600319011261019757611451600435613acd565b60405180916020825280516114bf61147761014092836020870152610160860190612adb565b6114aa611496602086015192601f1993848983030160408a0152612adb565b604086015183888303016060890152612adb565b90606085015190868303016080870152612adb565b9160018060a01b0360808201511660a085015260a081015160c085015260c081015160e085015260e0810151610100908186015281015190610120918286015201511515908301520390f35b34610197576020366003190112610197576004356000908152600960205260409020805460018201546001600160a01b03169161154a60028201612d4b565b61155660038301612d4b565b9161156360048201612d4b565b9261157060058301612d4b565b93600683015494600784015491600885015493600986015495600a015460ff16966040519a8b9a8b5260208b01526101608060408c01528a016115b291612adb565b89810360608b01526115c391612adb565b88810360808a01526115d491612adb565b87810360a08901526115e591612adb565b9460c087015260e086015261010085015261012084015215156101408301520390f35b3461019757600036600319011261019757602060ff600754166040519015158152f35b34610197576040366003190112610197576004356001600160401b0380821161019757366023830112156101975781600401359061166882612bc0565b926116766040519485612b9f565b82845260209260248486019160051b8301019136831161019757602401905b8282106117ae57505050602435908111610197576116b7903690600401612c25565b8251815103611757578251926116cc84612bc0565b936116da6040519586612b9f565b8085526116e9601f1991612bc0565b01368486013760005b815181101561173c57611737906117276001600160a01b036117148386612f0d565b51166117208387612f0d565b5190612e79565b6117318288612f0d565b52612efe565b6116f2565b505050611753604051928284938452830190612cdd565b0390f35b60405162461bcd60e51b815260048101839052602960248201527f455243313135353a206163636f756e747320616e6420696473206c656e677468604482015268040dad2e6dac2e8c6d60bb1b6064820152608490fd5b81356001600160a01b0381168103610197578152908401908401611695565b34610197576117db36612b00565b6117e36136b1565b60008281526009602052604090206001810154336001600160a01b0391821614159081611849575b50610f965781156110b257817f2847cfe8afe8bcd9ac540f0259739697ea019f65d44c8e76c8796b8ce52f7c319260066020930155604051908152a2005b9050600554163314158461180b565b3461019757600036600319011261019757611871612e21565b60075460ff8116156118b05760ff19166007557f5db9ee0a495bf2e6ff9c91a7834c1ba4fdd244a5e8aa4e537bd38aeae4b073aa6020604051338152a1005b60405162461bcd60e51b815260206004820152601460248201527314185d5cd8589b194e881b9bdd081c185d5cd95960621b6044820152606490fd5b346101975760003660031901126101975760206040516109c48152f35b346101975760e0366003190112610197576004356001600160401b03811161019757611939903690600401612cb0565b6024356001600160401b03811161019757611958903690600401612cb0565b90926044356001600160401b03811161019757611979903690600401612cb0565b6064949194356001600160401b0381116101975761199b903690600401612cb0565b906119a46136b1565b3315610fa85783158015612145575b801561213d575b8015612135575b610a7657608435156110b25760a43515612123576109c460c4351161211157611a3b91611a2f6001600854019889600855604051956119ff87612b16565b8a8752336020880152611a1336898b612c5e565b6040880152611a23368b8e612c5e565b60608801523691612c5e565b60808501523691612c5e565b60a082015260843560c082015260a43560e0820152600061010082015260c43561012082015260016101408201528460005260096020526040600020908051825560018060a01b036020820151166001600160601b0360a01b60018401541617600183015560408101518051906001600160401b038211611e8c578190611ad282611ac96002880154612d11565b6002880161365d565b602090601f831160011461209f57600092612094575b50508160011b916000199060031b1c19161760028301555b60608101518051906001600160401b038211611e8c578190611b3282611b296003880154612d11565b6003880161365d565b602090601f831160011461202257600092612017575b50508160011b916000199060031b1c19161760038301555b60808101518051906001600160401b038211611e8c578190611b9282611b896004880154612d11565b6004880161365d565b602090601f8311600114611fa557600092611f9a575b50508160011b916000199060031b1c19161760048301555b60a08101518051906001600160401b038211611e8c57611bf082611be76005870154612d11565b6005870161365d565b602090601f8311600114611f20579282600a9361014093611c6d9796600092611f15575b50508160011b916000199060031b1c19161760058501555b60c0810151600685015560e08101516007850155610100810151600885015561012081015160098501550151151591019060ff801983541691151516179055565b83600052600b6020526040600020916001600160401b038211611e8c578190611ca082611c9a8654612d11565b8661365d565b600090601f8311600114611ead57600092611ea2575b50508160011b916000199060031b1c19161790555b81600052600c6020526040600020906001600160401b038111611e8c57611cfc81611cf68454612d11565b8461365d565b6000601f8211600114611e265781929394600092611e1b575b50508160011b916000199060031b1c19161790555b6001600160601b0360c43516906127108211611dc357604051602092611d4f82612b32565b338252838201908152826000526004845260406000209160018060a01b03905116906001600160601b0360a01b905160a01b16179055604051608435815260a43583820152817f23cbb18bfb096672f2fc538a6d637483d9db0f85666ae980eba20ae2874da1a460403393a3604051908152f35b60405162461bcd60e51b815260206004820152602a60248201527f455243323938313a20726f79616c7479206665652077696c6c206578636565646044820152692073616c65507269636560b01b6064820152608490fd5b013590508480611d15565b601f198216948360005260206000209160005b878110611e74575083600195969710611e5a575b505050811b019055611d2a565b0135600019600384901b60f8161c19169055848080611e4d565b90926020600181928686013581550194019101611e39565b634e487b7160e01b600052604160045260246000fd5b013590508680611cb6565b600085815260208120909450915b601f1984168510611efd576001945083601f19811610611ee3575b505050811b019055611ccb565b0135600019600384901b60f8161c19169055868080611ed6565b81810135835560209485019460019093019201611ebb565b015190508c80611c14565b906005850160005260206000209160005b601f1985168110611f8257508361014093611c6d979693600193600a97601f19811610611f69575b505050811b016005850155611c2c565b015160001960f88460031b161c191690558c8080611f59565b91926020600181928685015181550194019201611f31565b015190508980611ba8565b9250600485016000526020600020906000935b601f1984168510611ffc576001945083601f19811610611fe3575b505050811b016004830155611bc0565b015160001960f88460031b161c19169055898080611fd3565b81810151835560209485019460019093019290910190611fb8565b015190508980611b48565b9250600385016000526020600020906000935b601f1984168510612079576001945083601f19811610612060575b505050811b016003830155611b60565b015160001960f88460031b161c19169055898080612050565b81810151835560209485019460019093019290910190612035565b015190508980611ae8565b9250600285016000526020600020906000935b601f19841685106120f6576001945083601f198116106120dd575b505050811b016002830155611b00565b015160001960f88460031b161c191690558980806120cd565b818101518355602094850194600190930192909101906120b2565b60405163e0e54ced60e01b8152600490fd5b6040516315ae672760e01b8152600490fd5b5081156119c1565b5082156119ba565b5085156119b3565b3461019757602036600319011261019757600435612169613766565b6121716136b1565b80600052600a6020526040600020336000526020523360018060a01b036040600020541603610f965780600052600a6020526040600020336000526020526000600260408220828155826001820155015533907f8e25282255ab31897df2b0456bb993ac7f84d376861aefd84901d2d63a7428a2600080a36001600655005b346101975760031960a0368201126101975761220a612a8c565b612212612aa2565b906001600160401b039060443582811161019757612234903690600401612c25565b6064358381116101975761224c903690600401612c25565b9260843590811161019757612265903690600401612c95565b6001600160a01b0392831695903387148015612585575b61228590612f21565b61229283518651146133a5565b838616938415156122a281612f84565b881515908161257d575b50612417575b5060005b835181101561234557806122cd6123409286612f0d565b516122d88289612f0d565b5190806000526020906000825260406000208c60005282528260406000205461230382821015612fde565b82600052600084528d604060002090600052845203604060002055600052600081526040600020908860005252610701604060002091825461303d565b6122b6565b5090949392919382876040517f4a39dc06d4c0dbc64b70af90fd698a233a518aa5d07e595d983b8c0526c8f7fb3391806123808a8c83613402565b0390a43b61238a57005b60006020946123cc61083e9761082e94604051998a988997889663bc197c8160e01b9e8f89523360048a0152602489015260a0604489015260a4880190612cdd565b03925af1600091816123f7575b506123e65761086a613490565b6001600160e01b0319160361090657005b61241091925060203d8111610948576109398183612b9f565b90836123d9565b96949390959160005b845181101561256f578061243761246f9287612f0d565b51600052878a600a6020908082526040600020846000528252836040600020938454161480612562575b612474575b50505050612efe565b612420565b61247e858c612f0d565b51928b868c60029687850193845480921015600014612502575050909150600096506124aa9250612f0d565b518452815260408320908b845252604082208281558260018201550155876124d28288612f0d565b517f8e25282255ab31897df2b0456bb993ac7f84d376861aefd84901d2d63a7428a2600080a35b878b8080612466565b7f36e94395fafcb0d2a9bcfcdd5cef807ab52a1f4382906992ebdc18de5f1472c4979598506040965091612547849261254060019661254f96612f0d565b51906136f5565b809555612f0d565b51950154918351928352820152a36124f9565b5060028301541515612461565b5091959093949650876122b2565b9050896122ac565b5086600052600160205260406000203360005260205261228560ff60406000205416905061227c565b346101975760406125c76125c136612b00565b906135f4565b82516001600160a01b0390921682526020820152f35b34610197576020806003193601126101975760043590816000526009815260018060a01b0360019281846040600020015416156129ae5761261d90613acd565b908151918381015190604081015192606082015190608083015116966040519761264689612b4d565b602a89528789019160403684378951156129985760308353895181101561299857607860218b01536029905b80821161293a5750506128f757869760c084015161268f9061398a565b9260e085015161269e9061398a565b9461010001516126ad9061398a565b96896040519a8b9a683d913730b6b2911d1160b91b828d01528b81519260298492019201916126db92612ab8565b8a0161088b60f21b988960298301526e113232b9b1b934b83a34b7b7111d1160891b602b83015280518093603a840192019161271692612ab8565b0187603a820152681134b6b0b3b2911d1160b91b603c820152815191828d6045840192019161274492612ab8565b01866045820152701130b734b6b0ba34b7b72fbab936111d1160791b6047820152815191828c6058840192019161277a92612ab8565b01908560588301526d2270726f70657274696573223a7b60901b605a8301526a1131b932b0ba37b9111d1160a91b6068830152519182607383016127bd92612ab8565b018360738201526c1136b0bc29bab838363c911d1160991b60758201528151918289608284019201916127ef92612ab8565b01826082820152701131bab93932b73a29bab838363c911d1160791b608482015281519182886095840192019161282592612ab8565b019060958201526d113937bcb0b63a3ca12829911d1160911b6097820152815191828660a5840192019161285892612ab8565b01601160f91b60a582015260a68101617d7d60f01b90520360888101825260a8016128839082612b9f565b61288c90613844565b9060405180928282017f646174613a6170706c69636174696f6e2f6a736f6e3b6261736536342c00000090528051908184603d85019201916128cd92612ab8565b810103601d81018352603d016128e39083612b9f565b604051918183928352820161175391612adb565b6064876040519062461bcd60e51b825280600483015260248201527f537472696e67733a20686578206c656e67746820696e73756666696369656e746044820152fd5b9091600f81166010811015612998578b51841015612998576f181899199a1a9b1b9c1cb0b131b232b360811b901a8b84018b015360041c918015612982576000190190612672565b634e487b7160e01b600052601160045260246000fd5b634e487b7160e01b600052603260045260246000fd5b60405163f070cb6f60e01b8152600490fd5b346101975760203660031901126101975760043563ffffffff60e01b81168091036101975760209063152a902d60e11b81149081908115612a17575b508115612a0f575b506040519015158152f35b905082612a04565b909150636cdb3d1360e11b8114908115612a4c575b8115612a3b575b5090836129fc565b6301ffc9a760e01b14905083612a33565b6303a24d0760e21b81149150612a2c565b34610197576040366003190112610197576020612a84612a7b612a8c565b60243590612e79565b604051908152f35b600435906001600160a01b038216820361019757565b602435906001600160a01b038216820361019757565b60005b838110612acb5750506000910152565b8181015183820152602001612abb565b90602091612af481518092818552858086019101612ab8565b601f01601f1916010190565b6040906003190112610197576004359060243590565b61016081019081106001600160401b03821117611e8c57604052565b604081019081106001600160401b03821117611e8c57604052565b606081019081106001600160401b03821117611e8c57604052565b61014081019081106001600160401b03821117611e8c57604052565b602081019081106001600160401b03821117611e8c57604052565b90601f801991011681019081106001600160401b03821117611e8c57604052565b6001600160401b038111611e8c5760051b60200190565b9291612be282612bc0565b91612bf06040519384612b9f565b829481845260208094019160051b810192831161019757905b828210612c165750505050565b81358152908301908301612c09565b9080601f8301121561019757816020612c4093359101612bd7565b90565b6001600160401b038111611e8c57601f01601f191660200190565b929192612c6a82612c43565b91612c786040519384612b9f565b829481845281830111610197578281602093846000960137010152565b9080601f8301121561019757816020612c4093359101612c5e565b9181601f84011215610197578235916001600160401b038311610197576020838186019501011161019757565b90815180825260208080930193019160005b828110612cfd575050505090565b835185529381019392810192600101612cef565b90600182811c92168015612d41575b6020831014612d2b57565b634e487b7160e01b600052602260045260246000fd5b91607f1691612d20565b9060405191826000825492612d5f84612d11565b908184526001948581169081600014612dce5750600114612d8b575b5050612d8992500383612b9f565b565b9093915060005260209081600020936000915b818310612db6575050612d8993508201013880612d7b565b85548884018501529485019487945091830191612d9e565b915050612d8994506020925060ff191682840152151560051b8201013880612d7b565b9181601f84011215610197578235916001600160401b038311610197576020808501948460051b01011161019757565b6005546001600160a01b03163303612e3557565b606460405162461bcd60e51b815260206004820152602060248201527f4f776e61626c653a2063616c6c6572206973206e6f7420746865206f776e65726044820152fd5b6001600160a01b0316908115612ea657600052600060205260406000209060005260205260406000205490565b60405162461bcd60e51b815260206004820152602a60248201527f455243313135353a2061646472657373207a65726f206973206e6f742061207660448201526930b634b21037bbb732b960b11b6064820152608490fd5b60001981146129825760010190565b80518210156129985760209160051b010190565b15612f2857565b60405162461bcd60e51b815260206004820152602e60248201527f455243313135353a2063616c6c6572206973206e6f7420746f6b656e206f776e60448201526d195c881bdc88185c1c1c9bdd995960921b6064820152608490fd5b15612f8b57565b60405162461bcd60e51b815260206004820152602560248201527f455243313135353a207472616e7366657220746f20746865207a65726f206164604482015264647265737360d81b6064820152608490fd5b15612fe557565b60405162461bcd60e51b815260206004820152602a60248201527f455243313135353a20696e73756666696369656e742062616c616e636520666f60448201526939103a3930b739b332b960b11b6064820152608490fd5b9190820180921161298257565b9192909360018060a01b03808616908115159461306686612f84565b61306f87613571565b918061307a87613571565b921696871515908161339d575b5061323e575b505050600092858452602095848752604097888620878752885282898720546130b882821015612fde565b838852878a528a88208989528a52038987205581865285885288862084875288528886206130e784825461303d565b905583878a51848152858b8201527fc3d58168c5ae7397731d063d5bbf3d657854427343f4c083240f7aacaa2d0f628c3392a43b61312a575b5050505050505050565b918493916131729588999a98948b519788958694859363f23a6e6160e01b9c8d865233600487015260248601526044850152606484015260a0608484015260a4830190612adb565b03925af190918161321f575b506131e55750505061318e613490565b6308c379a0146131b1575b505162461bcd60e51b81528061088e6004820161351c565b6131b96134ae565b90816131c55750613199565b61088e835192839262461bcd60e51b845260048401526024830190612adb565b919392506001600160e01b03199091160361320857503880808080808080613120565b5162461bcd60e51b81528061088e60048201613447565b613237919250853d8711610948576109398183612b9f565b903861317e565b9490959691989360009893985b8a5181101561338b57808989828e6132666132a29682612f0d565b516000528b600a60209080825260409283600020886000528352878460002091825416148061337e575b6132a7575b5050505050505050612efe565b61324b565b6132b18688612f0d565b516002828101805491999092821161332d5750505050916132f995916000936132da8787612f0d565b5185528152818420908885525282208281558260018201550155612f0d565b517f8e25282255ab31897df2b0456bb993ac7f84d376861aefd84901d2d63a7428a2600080a35b8989828e38808080613295565b61336b939950600194508892959697916125407f36e94395fafcb0d2a9bcfcdd5cef807ab52a1f4382906992ebdc18de5f1472c49a61254793612f0d565b51950154918351928352820152a3613320565b5060028101541515613290565b5093985093509493509438808061308d565b905038613087565b156133ac57565b60405162461bcd60e51b815260206004820152602860248201527f455243313135353a2069647320616e6420616d6f756e7473206c656e677468206044820152670dad2e6dac2e8c6d60c31b6064820152608490fd5b9091613419612c4093604084526040840190612cdd565b916020818403910152612cdd565b9081602091031261019757516001600160e01b0319811681036101975790565b60809060208152602860208201527f455243313135353a204552433131353552656365697665722072656a656374656040820152676420746f6b656e7360c01b60608201520190565b60009060033d1161349d57565b905060046000803e60005160e01c90565b600060443d10612c4057604051600319913d83016004833e81516001600160401b03918282113d60248401111761350b57818401948551938411613513573d8501016020848701011161350b5750612c4092910160200190612b9f565b949350505050565b50949350505050565b60809060208152603460208201527f455243313135353a207472616e7366657220746f206e6f6e2d455243313135356040820152732932b1b2b4bb32b91034b6b83632b6b2b73a32b960611b60608201520190565b6040519061357e82612b32565b60018252602082016020368237825115612998575290565b604051906135a382612b32565b6003546001600160a01b038116835260a01c6020830152565b906040516135c981612b32565b91546001600160a01b038116835260a01c6020830152565b8181029291811591840414171561298257565b919091600052600460205261360c60406000206135bc565b805190926001600160a01b0391821615613644575b61363c612710916001600160601b03602087015116906135e1565b049251169190565b925061271061363c613654613596565b94915050613621565b90601f811161366b57505050565b600091825260208220906020601f850160051c830194106136a7575b601f0160051c01915b82811061369c57505050565b818155600101613690565b9092508290613687565b60ff600754166136bd57565b60405162461bcd60e51b815260206004820152601060248201526f14185d5cd8589b194e881c185d5cd95960821b6044820152606490fd5b9190820391821161298257565b91908110156129985760051b0190565b3d1561373d573d9061372382612c43565b916137316040519384612b9f565b82523d6000602084013e565b606090565b81835290916001600160fb1b0383116101975760209260051b809284830137010190565b600260065414613777576002600655565b60405162461bcd60e51b815260206004820152601f60248201527f5265656e7472616e637947756172643a207265656e7472616e742063616c6c006044820152606490fd5b156137c357565b60405162461bcd60e51b815260206004820152602160248201527f455243313135353a206d696e7420746f20746865207a65726f206164647265736044820152607360f81b6064820152608490fd5b9061381c82612c43565b6138296040519182612b9f565b828152809261383a601f1991612c43565b0190602036910137565b8051156139765760405161385781612b4d565b604081527f4142434445464748494a4b4c4d4e4f505152535455565758595a61626364656660208201527f6768696a6b6c6d6e6f707172737475767778797a303132333435363738392b2f60408201528151600292838201809211612982576003918290046001600160fe1b0381168103612982576138d9908594951b613812565b936020850193829183518401925b838110613925575050505051068060011461391257600214613907575090565b603d90600019015390565b50603d9081600019820153600119015390565b85600491979293949701918251600190603f9082828260121c16880101518453828282600c1c16880101518385015382828260061c16880101518885015316850101518782015301959291906138e7565b5060405161398381612b84565b6000815290565b806000917a184f03e93ff9f4daa797ed6e38ed64bf6a1f01000000000000000080821015613abf575b506d04ee2d6d415b85acef810000000080831015613ab0575b50662386f26fc1000080831015613aa1575b506305f5e10080831015613a92575b5061271080831015613a83575b506064821015613a73575b600a80921015613a69575b600190816021613a21828701613812565b95860101905b613a33575b5050505090565b600019019083906f181899199a1a9b1b9c1cb0b131b232b360811b8282061a835304918215613a6457919082613a27565b613a2c565b9160010191613a10565b9190606460029104910191613a05565b600491939204910191386139fa565b600891939204910191386139ed565b601091939204910191386139de565b602091939204910191386139cc565b6040935081049150386139b3565b604090815190613adc82612b68565b6060908183526020938285850152828185015282808501526000948560808601528560a08601528560c08601528560e086015261010091868387015286610120809701528387526009825260018060a01b0394856001838a2001541615613c4257848852600983528188209060048452613b57838a206135bc565b848882511615613c29575b6001600160601b03910151169561271087810204809703613c15578952600b845282808a2099600c8652209660018301541690600683015492600781015494600882015496600a83015460ff169a8251809e613bbd82612b68565b613bc690612d4b565b9052613bd190612d4b565b908d0152613be160058301612d4b565b908c0152600401613bf190612d4b565b908a0152608089015260a088015260c087015260e086015284015215159082015290565b634e487b7160e01b8a52601160045260248afd5b6001600160601b039150613c3b613596565b9150613b62565b815163f070cb6f60e01b8152600490fdfea26469706673582212203e74b58fa7ccca8007e51043ad80b243be5688ea25701f620c460188f79bfe3464736f6c63430008140033",
  "linkReferences": {},
  "deployedLinkReferences": {}
}